:020000040800F2
:10000000580700202902000809110008E50F000820
:1000100005110008D5030008C51200080000000003
:1000200000000000000000000000000011110008A6
:10003000D9030008000000000D1100081511000888
:10004000430200084302000843020008430200087C
:10005000430200084302000843020008430200086C
:10006000430200084302000843020008430200085C
:10007000430200084302000843020008430200084C
:10008000430200084302000843020008430200083C
:10009000430200084302000843020008430200082C
:1000A000430200084302000843020008430200081C
:1000B000430200084302000843020008430200080C
:1000C00043020008430200084302000843020008FC
:1000D00043020008430200084302000843020008EC
:1000E00043020008430200084302000843020008DC
:1000F00043020008430200084302000843020008CC
:1001000043020008430200084302000843020008BB
:1001100043020008430200084302000843020008AB
:10012000430200084302000843020008430200089B
:10013000430200084302000843020008430200088B
:10014000430200084302000843020008430200087B
:10015000430200084302000843020008430200086B
:10016000430200084302000843020008430200085B
:100170004302000843020008430200080000000098
:10018000430200084302000800F002F800F03CF8C7
:100190000AA090E8000C82448344AAF10107DA45E2
:1001A00001D100F031F8AFF2090EBAE80F0013F0F8
:1001B000010F18BFFB1A43F0010318475811000044
:1001C00078110000103A24BF78C878C1FAD85207D5
:1001D00024BF30C830C144BF04680C6070470000C1
:1001E0000023002400250026103A28BF78C1FBD840
:1001F000520728BF30C148BF0B6070471FB501F0E0
:1002000070F81FBD10B510BD00F0AFF81146FFF734
:10021000F5FF01F059F800F0CDF803B4FFF7F2FF55
:1002200003BC00F0D1F800000948804709480047A6
:10023000FEE7FEE7FEE7FEE7FEE7FEE7FEE7FEE796
:10024000FEE7FEE704480549054A064B70470000F3
:10025000C11100088901000858010020580700203A
:10026000580300205803002053EA020C00F0698074
:100270002DE9F04B4FF00006002B1FBFB3FA83F5BA
:1002800003FA05F424FA05F65E4012BF1643B2FAEB
:1002900082F502FA05F4C5F120051EBF22FA05FC1D
:1002A00044EA0C04203556EA044C4FEA144418BFC3
:1002B000641C4FF000084FF00009904271EB030CF2
:1002C00039D3002919BFB1FA81F701FA07F6B0FA5C
:1002D00080F700FA07F6C7F120071EBF20FA07FCD7
:1002E00046EA0C062037B6FBF4FCA7EB0507103FE7
:1002F00007F01F0BCBF120062CFA06F60CFA0BFBCD
:1003000044BFB3460026202FA4BF5E464FF0000B2B
:100310005BEA060C08BF4FF0010B19EB0B0948EB29
:100320000608ABFB027C06FB02CC0BFB03CCC01B1C
:1003300071EB0C01C1E70B46024641464846BDE859
:10034000F08B13B5084318BF4FF0FF300146AFF3F1
:100350000080BDE81C407047704770477047000040
:10036000004870471000002070477546FFF7F8FFFF
:10037000AE4605006946534620F00700854618B092
:1003800020B5FFF75FFFBDE820404FF000064FF0BB
:1003900000074FF000084FF0000BAC46ACE8C00976
:1003A000ACE8C009ACE8C009ACE8C00921F007011D
:1003B0008D46704710B50446AFF300802046BDE877
:1003C0001040FFF72ABF000001491820ABBEFEE72E
:1003D00026000200FEE700007047000072B600BF72
:1003E000FEE700002DE9F04F82B000F13E4241F6F9
:1003F000004502F1FF77C4F20205082243F6004EE1
:100400004FEAB726A84208BF0722C4F2010E072E02
:1004100038BF4FEAB7220125002600274FF0000819
:10042000009208E008F101080437B8F1100F06F156
:10043000020600F0A7800C6805FA08F914EA090F13
:10044000F0D0D1F804B003220BF0030CACF101049E
:10045000B240012C6FEA020A10D88268CC6802EA26
:100460000A02B440224382604268CBF3001422EABD
:10047000090204FA08F42243426005E0BCF1030FCC
:1004800002D14FF0030C20E0C2688C6802EA0A0235
:10049000B4402243BCF1020FC26016D16FF00302D8
:1004A00002EA58020244D2F820C007F01C050F23CC
:1004B0000C69AB402CEA030304FA05F52B431362E5
:1004C000D1F804B001250BF0030C02680CFA06F316
:1004D00002EA0A021A431BF4403F0260A2D0002243
:1004E00043F644030192C4F202031A684FF6084C23
:1004F00042F480421A601A68CFF6FF7C02F4804210
:100500000192019A28F00302724452F80C3007F06D
:100510000C050F24AC40A343009C04FA05F52B43C3
:1005200042F80C30DEF808204B6842EA090543F631
:100530000C4CDC0258BF22EA0905CEF80850C4F280
:10054000010CDCF800209C0242EA090558BF22EAAF
:100550000905CCF80050DEF804209C0342EA0905A6
:1005600058BF22EA0905CEF80450DEF80020DB036C
:1005700042EA090558BF22EA0905CEF800500125D4
:1005800050E700BF02B0BDE8F08F000040F2541009
:10059000C2F200000068704770B5B8B3044690F826
:1005A0003D0028B9002084F83C00204600F0B0F857
:1005B000242084F83D002068016821F001010160D9
:1005C000016841F400410160016821F400410160CB
:1005D00000F04AFA48F28041C0F21E0140F60013D2
:1005E000D4F804E088424FF00001C0F23D0348F225
:1005F000A16C4FF0000238BF01219842C0F2010CFB
:1006000038BF0122E64538BF0A460AB1012070BD55
:100610004DF68361C4F21B31A0FB01122168950CD9
:100620004B684FF4967623F03F0343EA92437543B9
:1006300044F6D3564B60C1F262060B6AA5FB065620
:10064000B50923F03F03E64538BF950C6A1C1A43F1
:100650000A62CA6948F2A0664CF6FF73C0F201064E
:10066000B64522EA03020BD801384FEA4E03B0FB2D
:10067000F3F001306FF31F30042898BF04201EE010
:10068000A368013863B119230EFB03F3B0FBF3F049
:1006900001306FF31F3078B100F5804008E000BFF3
:1006A0000EEB4E03B0FBF3F001306FF31F3028B1B7
:1006B00000F5004003E000BF012000E001201043EE
:1006C000C8610868D4E9072320F0C000104318432C
:1006D0000860886848F2FF3204F10C0690434CCE63
:1006E00018431043A5698860C86820F0FF003043B4
:1006F0002843C860086840F00100086000202021FD
:10070000206484F83D10206384F83E0070BD000032
:100710002DE9F04786B0006845F60047C4F20007AF
:10072000B84203D006B0BDE8F08700BF002643F60C
:1007300030050196C4F20205286801AC40F00400BF
:10074000286028684FF0120800F00400019001981A
:10075000019628684FF0030940F0010028602868DE
:100760004FF0040A00F00100019001984FF400706E
:10077000019007F5D6302146CDE90286CDF81090DC
:10078000CDF814A0FFF72EFE4FF48070CDE90108DC
:1007900003A880E8400607F5D2302146FFF722FE85
:1007A0000096286940F400002861286900F40000E0
:1007B0000090009806B0BDE8F087000040F200000D
:1007C00040F25411C2F20000C2F2000100780A683F
:1007D000104408607047000080B543F60040C4F242
:1007E0000200016841F400710160016841F4806118
:1007F0000160016841F480710160032000F074F829
:100800000F2000F005F800F027F8002080BD000060
:1008100070B540F20006C2F2000640F208013278DC
:10082000C2F200014FF47A730968B3FBF2F2044696
:10083000B1FBF2F1084600F02FFB0F2C4FF0010541
:1008400008D838B94FF0FF3021460022002500F0CB
:100850001FF87460284670BD82B0002043F6400146
:100860000190C4F202014A6842F480424A604A6838
:1008700002F480420192019A0090086840F0805092
:100880000860086800F080500090009802B070473F
:1008900010B54EF60C5CCEF2000CDCF80030C3F361
:1008A000022E8EF00704042C28BF0424BEF103039B
:1008B0004FF0FF3E0EFA04F438BF0023A1439940E5
:1008C0000EFA03F39A43114300F00F0200F1604364
:1008D0000901043A03F564436244002848BF02F169
:1008E0000C03197010BD00004EF60C51CEF2000141
:1008F0000A684FF6FF031A4060F30A2242F0806054
:1009000040F0FD70086070472DE9F041002800F0CC
:100910008B8043F60808C4F202080446D8F8F803AE
:100920000D4600F00700884207D288F8F853D8F83F
:10093000F80300F00700A84276D12068810717D598
:10094000410705D5D8F8001041F4E051C8F800106F
:10095000010705D5D8F8001041F46041C8F800102F
:10096000D8F80010A26821F0F0011143C8F8001077
:10097000C0073FD1D8F8F80300F00700A84207D914
:1009800088F8F853D8F8F80300F00700A8424BD1D4
:100990002068410707D5D8F80010E26821F4E0513B
:1009A0001143C8F80010000708D5D8F800002169E5
:1009B00020F4604040EAC100C8F8000000F07CF874
:1009C000D8F8001041F2FC22C1F30311C0F6000276
:1009D000515C40F2080220FA01F140F20400C2F238
:1009E00000000068C2F200021160FFF711FF002052
:1009F000BDE8F0816068811E022907D258F8081C02
:100A000089015CBF0120BDE8F08111E0012807D118
:100A100058F8081C89035CBF0120BDE8F08107E09D
:100A200058F8081C890703D40120BDE8F08100BFF5
:100A3000D8F8001021F003010843C8F80000FFF7C0
:100A4000A5FD064641F28837D8F80000616800F03D
:100A50000C00B0EB810F8DD0FFF798FD801BB842E2
:100A6000F2D90320BDE8F08140F2080043F6080106
:100A7000C2F20000C4F202010068096841F20C32BF
:100A8000C1F38221C0F60002515CC84070470000EB
:100A900040F2080043F60801C2F20000C4F202016D
:100AA0000068096841F20C32C1F34231C0F600021D
:100AB000515CC8407047000010B543F60404C4F20E
:100AC0000204606800F00C0008280BD0042819BF4D
:100AD00042F20040C0F2F40047F64000C0F27D1040
:100AE00010BD00BF206821682368490247F6400115
:100AF000C0F27D1100F03F02C3F388105CBF42F2E8
:100B00000041C0F2F401A1FB00010023FFF7ACFBA0
:100B100021680222C1F3014102EB4101B0FBF1F077
:100B200010BD00002DE9F04182B0002868D00446D5
:100B3000007843F60006C007C4F202060BD0B06886
:100B400000F00C00042840F09F803068800302D53C
:100B50006068002854D0207880071AD5B06810F05B
:100B60000C0F09D0B06800F00C00082840F0A680F7
:100B70007068400200F1A2803068800702D5E0680A
:100B800001283DD13068216920F0F80040EAC10019
:100B900030602078000737D4207840074CD4A5690E
:100BA00055B3B06800F00C00082840F0BB80012D60
:100BB00026D07068E16900F480028A4220D1216A5F
:100BC00000F03F028A421BD147F6C071626A0140C1
:100BD000B1EB821F14D1A16A4FF6FF73C903994389
:100BE00000F44032A1F580318A4209D1E16A00F077
:100BF0007060B0EB016F03D1002002B0BDE8F0815E
:100C0000012002B0BDE8F0816069002840F20000D8
:100C1000C4F2472076D00121C0F8801EFFF7B6FC51
:100C2000054600BF706F8007B6D4FFF7AFFC401BCE
:100C30000228F7D9DDE000BF306C10F080580AD1EF
:100C400000200190306C40F080503064306C00F037
:100C500080500190019847F20007C4F200073868FD
:100C6000C00541D4386840F480703860FFF78EFCCE
:100C7000054600BF3868C00536D4FFF787FC401B27
:100C80000228F7D9B5E000BFB06800F00C000828D2
:100C900003D1706840023FF558AF6068B0F5803FFF
:100CA00007D0B0F5A02F40F08D80306840F4802050
:100CB0003060306840F4803030608DE0E0680028BB
:100CC00052D00020C4F2472001210160FFF75EFCF2
:100CD000054600BF306880073FF554AFFFF756FC6C
:100CE000401B0228F6D984E0A068012805D0052819
:100CF0004ED1306F40F004003067306F40F001009B
:100D000030674FE00021C0F8801EFFF73FFC05462A
:100D1000706F80077FF540AFFFF738FC401B02285B
:100D2000F6D966E00027C4F2472700203866FFF7AF
:100D30002DFC022D05460BD1306880015ED5FFF7F2
:100D400025FC401B02284FF00300F5D955E700BFF2
:100D5000306880017FF550AFFFF718FC401B022878
:100D60004FF00300F4D948E70020C4F247200021E7
:100D70000160FFF70BFC0546306880077FF509AF7F
:100D8000FFF704FC401B02284FF00300F4D934E7BE
:100D9000316F002821F001013167316F21F004012A
:100DA00031674DD0FFF7F2FB054641F2883700BFAF
:100DB000306F800756D4FFF7E9FB401BB842F7D9E4
:100DC00017E000BF3168002821F4803131603168BC
:100DD00021F4802131604FD0FFF7D8FB054600BFDA
:100DE000306880033FF5B7AEFFF7D0FB401B6428A7
:100DF000F6D9032002B0BDE8F08100BF04F11C0564
:100E00002FCD084340EA8210D9034FF6FF72914379
:100E1000A1F5803140EA0560084370600120386622
:100E2000FFF7B4FB044600BF306880013FF5E4AE35
:100E3000FFF7ACFB001B02284FF00300F4D9DCE6FF
:100E4000FFF7A4FB054641F2883700BF306F8007EB
:100E500008D5FFF79BFB401BB8424FF00300F5D9C4
:100E6000CBE600BFB8F1000F7FF499AE306C20F0F4
:100E70008050306493E600BFFFF788FB054600BF53
:100E8000306880037FF567AEFFF780FB401B642866
:100E90004FF00300F4D9B0E6411E0020B0EB116F13
:100EA0001CBF012070474EF21002CEF200025160CA
:100EB0004EF62351CEF20001F0230B700721906013
:100EC00011607047002804BF0120704710B5044628
:100ED00090F8410028B9002084F84000204600F036
:100EE00021F8242084F841002068C16821F40051D1
:100EF000C160204600F06EF92068016921F490413C
:100F00000161416921F02A014161C16841F4005148
:100F1000C16000202021606484F8411084F84210F0
:100F2000606310BD80B586B0006844F20042C4F230
:100F3000000200219042CDE90411CDE90211019196
:100F400024D041F20001C4F20101884248D10020BE
:100F500043F630010090C4F202014A6942F01002E7
:100F60004A614A6902F010020092009A00900868F3
:100F700040F00100086008684FF4C06100F0010013
:100F8000009000980020C4F202001DE043F63000FB
:100F90000091C4F20200026942F400320261026967
:100FA00002F400320092009A0091016841F00801B9
:100FB00001600068602100F00800009000980020A7
:100FC000C4F2020000F5406001910221029100216B
:100FD0000391032104910721059101A9FFF702FA6A
:100FE00006B080BDFEE7000081B0002043F630016E
:100FF0000090C4F202010A6842F080020A600A68A6
:1010000002F080020092009A00900A6842F0040206
:101010000A600A6802F004020092009A00900A68CE
:1010200042F001020A600A6802F001020092009A8E
:101030000090086840F008000860086800F00800A8
:101040000090009801B0704780B540F2700045F6FE
:101050000041C2F20000C4F2000148F2A062002385
:101060004FF4804CC0F2010280E80E00C0E9033C5E
:10107000C0E90533C0E90733FFF78EFA002808BF3F
:1010800080BDBDE88040FFF7A9B9000080B540F2FF
:10109000C40041F20001C2F20000C4F201010023C9
:1010A0004FF00C0C4FF4E13280E80E00C0E903333E
:1010B000C0E905C3C361FFF705FF002808BF80BD75
:1010C000BDE88040FFF78AB980B540F20C1044F2C9
:1010D0000041C2F20000C4F2000100234FF00C0CEA
:1010E0004FF4E13280E80E00C0E90333C0E905C3E4
:1010F000C361FFF7E7FE002808BF80BDBDE8804060
:10110000FFF76CB9FEE70000FEE700007047000043
:1011100070470000FFF752BBB0B592B0002443F611
:1011200040000B94CDE90944CDE907440594CDE98D
:101130000344CDE901440094C4F202000168022591
:1011400041F080510160006800F0805000900098EC
:1011500047F200000094C4F20000016841F48041AD
:101160000160006800F48040009000980120099020
:1011700010200A9008200E90A820CDE90F05042029
:10118000119006A80695CDE90C54FFF7CBFC18B1D9
:1011900072B600BFFEE700BF0F20CDE901054FF496
:1011A000A05004904FF48050059001A805210394AD
:1011B000FFF7AAFB10B172B6FEE700BF12B0B0BDD8
:1011C0004EF68850CEF20000016841F470010160D3
:1011D0007047000010B504460068D4E902C22369D4
:1011E000016921F4405111430161626943EA0C0134
:1011F000E3691143C268194349F20C639A431143EE
:10120000C1604169A26921F4407141F20043114378
:1012100040F48062C4F201039A42416102D1FFF7B7
:1012200037FC01E0FFF720FCE16963681922B1F5A2
:10123000004FA0FB020123D15A00DB0FFFF714F887
:1012400048F21F51C5F2EB11A0FB01235A094FF6DA
:101250009C73C0F6FF7303F1805302FB030032233B
:1012600003EBC000A0FB01014FF4F87000EA11107D
:1012700000EB0210C1F3421108442168886010BDE0
:101280009A009B0FFEF7F0FF48F21F51C5F2EB11D9
:10129000A0FB01235A094FF69C73C0F6FF7302FBB3
:1012A0000300322303EB0010A0FB0101F02000EA51
:1012B000511000EB0210C1F343110844216888600B
:1012C00010BD0000FEE70000FFF786FAFFF724FFDD
:1012D000FFF78AFEFFF7B8FEFFF7D8FEFFF7F4FE30
:1012E000FEE7F1EE100A4FF6FF71C0F2C03120EABE
:1012F000010040F04070E1EE100A7047000000006D
:1013000000000000010203040607080900000000B5
:101310000102030438130008000000201000000040
:10132000C40100084813000810000020480700000E
:10133000E0010008000000000100000010000000B3
:081340000024F400000000008D
:040000050800018965
:00000001FF
