:020000040800F2
:10000000400B00205D02000899390008B12A000861
:1000100055370008710B0008A540000800000000DB
:10002000000000000000000000000000FD3A000891
:10003000C10C0008000000009D390008693C000860
:1000400077020008770200087702000877020008AC
:10005000770200087702000877020008770200089C
:10006000770200087702000877020008770200088C
:10007000770200087702000877020008770200087C
:10008000770200087702000877020008770200086C
:10009000770200087702000877020008770200085C
:1000A000770200087702000877020008770200084C
:1000B00077020008770200082D3D0008770200084B
:1000C000770200087702000877020008770200082C
:1000D000770200087702000877020008770200081C
:1000E000770200087702000877020008770200080C
:1000F00077020008770200087702000877020008FC
:1001000077020008770200087702000877020008EB
:100110007702000877020008E53D0008353E000838
:1001200077020008770200087702000877020008CB
:1001300077020008770200087702000877020008BB
:1001400077020008770200087702000877020008AB
:10015000770200087702000877020008770200089B
:10016000770200087702000877020008770200088B
:1001700077020008770200087702000800000000FC
:10018000770200087702000800F002F800F056F845
:1001900014A696E8000CB244B344DA4501D100F04D
:1001A0004DF8BAE80F000FA696E83000A5EB04055D
:1001B00004EB0607AAEB0704A7F101074FEA1515A0
:1001C0004FEA3414A4F10104AC4201D300F036F834
:1001D00013F0010F18BFFB1A43F0010300F001F800
:1001E000DBE71847D04B0000F04B0000103A24BF6B
:1001F00078C878C1FAD8520724BF30C830C144BF8C
:1002000004680C6070470000704700000023002461
:1002100000250026103A28BF78C1FBD8520728BF16
:1002200030C148BF0B6070471FB504F09AFD9DE8D0
:10023000030000F05BF91FBD10B510BD00F00AFA15
:100240001146FFF7F1FF03F081FF00F028FA03B435
:10025000FFF7F2FF03BC00F059FA0000094880479D
:1002600009480047FEE7FEE7FEE7FEE7FEE7FEE798
:10027000FEE7FEE7FEE7FEE704480549054A064BB0
:1002800070470000193D0008890100084005002062
:10029000400B0020400700204007002070B50646B4
:1002A00000F008F9056806F10B0020F00704B442DD
:1002B0009CBF002070BD2B466A68BAB11068A0428E
:1002C00010D304F1080188423CBF5068586007D33E
:1002D0005168101941601168091B01605860146071
:1002E000101D70BD13465268002AE7D121462846EA
:1002F00000F0E8F80028DED170BD70B50D46064666
:10030000041F00F0D7F80268BDB1DEB105F10B00A3
:1003100020F00701A9423CBF002070BD23688B423A
:1003200038BF506813D35A1A082A36D3601840F8D9
:10033000042B216000F00FF92FE0304600F00BF99C
:10034000002070BD2846BDE87040FFF7A7BF002819
:1003500018BFA0423CBF02464068F8D303EB040C30
:1003600084451CD1D0F800C06344994217D8A3EB50
:10037000010CBCF1080F0DD3D0F804C06318C3F80A
:1003800004C0D4F800C000686044401A18602160BE
:10039000536002E0236040685060201D70BD284615
:1003A000FFF77CFF050008D031462068021F284671
:1003B00000F0F8F8201D00F0CEF8284670BD53EA92
:1003C000020C00F069802DE9F04B4FF00006002B85
:1003D0001FBFB3FA83F503FA05F424FA05F65E406D
:1003E00012BF1643B2FA82F502FA05F4C5F12005F0
:1003F0001EBF22FA05FC44EA0C04203556EA044CE0
:100400004FEA144418BF641C4FF000084FF0000975
:10041000904271EB030C39D3002919BFB1FA81F76F
:1004200001FA07F6B0FA80F700FA07F6C7F12007DD
:100430001EBF20FA07FC46EA0C062037B6FBF4FC88
:10044000A7EB0507103F07F01F0BCBF120062CFA96
:1004500006F60CFA0BFB44BFB3460026202FA4BFC0
:100460005E464FF0000B5BEA060C08BF4FF0010B35
:1004700019EB0B0948EB0608ABFB027C06FB02CC30
:100480000BFB03CCC01B71EB0C01C1E70B46024612
:1004900041464846BDE8F08B13B5084318BF4FF0FE
:1004A000FF300146AFF30080BDE81C407047704745
:1004B0007047704700487047180000207047704729
:1004C0007047704738B504460A4600206946AFF3C6
:1004D0000080002808BF38BD02460099204600F081
:1004E00097F8012038BD012000F0ACB8F8B5AFF3A3
:1004F0000080054600200C460C2000BF0646A819C7
:10050000A0420DD9324669460020AFF300800700B3
:1005100008BF00F097F80098A04218BF0546C4191C
:10052000FFF7C8FF05600746F01D20F007004619D9
:10053000284600F00AF8B44208BFF8BDA21B3146B5
:100540003868BDE8F84000F063B800210160416000
:1005500070470C20704770B50446051FFFF7AAFFCF
:100560000068002C14BF446870BD002C18BFAC425A
:100570003CBF20466468F8D301680A18AA4218BF35
:10058000456003D12A680546114401602868411975
:10059000A1421CBF6C6070BD61686960216808443D
:1005A000286070BD10B5203AC0F00B80B1E818503B
:1005B000A0E81850B1E81850A0E81850203ABFF44D
:1005C000F5AF5FEA027C24BFB1E81850A0E81850EC
:1005D00044BF18C918C0BDE810405FEA827C24BF40
:1005E00051F8043B40F8043B08BF7047D20728BFCE
:1005F00031F8023B48BF11F8012B28BF20F8023B1D
:1006000048BF00F8012B70470048704710000020D9
:10061000034640688C46002818BF88423CBF03460A
:100620004068F8D318681844884207D00CF10300DA
:1006300020F00700001D411A521A0146081D0A60E9
:10064000FFF789BF10B500F039F8BDE8104000F0A1
:100650002FB870477546FFF7D7FFAE4605006946CD
:10066000534620F00700854618B020B5FFF704FE7A
:10067000BDE820404FF000064FF000074FF00008A3
:100680004FF0000BAC46ACE8C009ACE8C009ACE8E0
:10069000C009ACE8C00921F007018D46704710B5CC
:1006A0000446AFF300802046BDE81040FFF7CFBD01
:1006B000002801D000F02AB87047000010B50128CA
:1006C00005D0002103A000F027F8012010BD09A1EA
:1006D000F8E7000053494752544D454D3A204F75B5
:1006E00074206F662068656170206D656D6F72792A
:1006F000000000003A2048656170206D656D6F72E2
:100700007920636F727275707465640001491820F6
:10071000ABBEFEE72600020070B505460C460A2077
:1007200000E06D1C00F011F835B128780028F8D1F0
:1007300002E0641C00F009F814B120780028F8D118
:10074000BDE870400A20AFF3008008B569468DF817
:1007500000000320ABBE08BD10B540F2A400C2F2F9
:1007600000008068022809D19FED1F0A02F0F4FF03
:100770009FED190ABDE8104003F064B89FED160A1A
:1007800003F096F89FED150A02F0E6FF9FED140ABC
:1007900003F058F840F29B04C2F20004207961791A
:1007A000084305D002F008FC207961790843F9D1AB
:1007B00003F02EFA9FED0B0A02F0CEFF207961794B
:1007C000084305D002F0F8FB207961790843F9D19C
:1007D000BDE8104003F01CBA9A99193F0000344359
:1007E000CDCCCC3D0000B4420000B4C240F2A40025
:1007F000C2F200009FED260A856802F0ADFF9FED72
:10080000250A03F01FF89FED240A03F08BF840F24D
:100810009B04C2F2000420796179084318BF0120CB
:10082000022D13D130B100BF02F0C6FB20796179EF
:100830000843F9D103F0ECF99FED170A03F072F8C1
:1008400002F0BAFB03F0E4F9FAE700BF30B100BFF1
:1008500002F0B2FB207961790843F9D103F0D8F9AD
:100860009FED0B0A02F078FF20796179084305D0EB
:1008700002F0A2FB207961790843F9D103F0C8F9AD
:100880009FED060A02F068FF02F096FBFCE700BF4E
:100890000000B4C29A99193F9A99993E0000B44257
:1008A00040F2A400C2F200009FED1D0A856802F02C
:1008B00053FF9FED1C0A02F0C5FF9FED1B0A02F0DB
:1008C000F7FF40F29B04C2F20004207961790843EB
:1008D00018BF0120022D11D130B100BF02F06CFB16
:1008E000207961790843F9D103F092F99FED0F0A5D
:1008F00002F032FF02F060FBFCE700BF30B100BF46
:1009000002F05AFB207961790843F9D103F080F9AC
:100910009FED060A02F020FF02F04EFBFCE700BF4D
:100920000000B4C29A99193F9A99993E0000B442C6
:1009300010B52DED028B40F2A404C2F20004A068B1
:1009400002280FD0012815D080B99FED1E8AB0EE85
:10095000480A02F0E7FF9FED1C0A02F073FF5F20D8
:1009600013E000BF00200121C4E90201BDEC028BAD
:1009700010BD00BF9FED138AB0EE480A02F0D2FF0F
:100980009FED110A02F05EFF232003F08DFB03F0C0
:10099000B7F803F027F903F029F89FED0C0A03F0EC
:1009A000E3F8412003F080FBB0EE480A02F080FF3C
:1009B0009FED070A02F0D0FEA0680130A060BDECF8
:1009C000028B10BD9A99993E9A99193E0000C8C2AF
:1009D0000000344310B52DED028B40F2A404C2F2A6
:1009E0000004A06802280FD0012815D080B99FED1F
:1009F0001E8AB0EE480A02F095FF9FED1C0A02F035
:100A000021FF5F2013E000BF00200121C4E90201A3
:100A1000BDEC028B10BD00BF9FED138AB0EE480AFB
:100A200002F080FF9FED110A02F00CFF232003F07B
:100A30003BFB03F065F803F0D5F802F0D7FF9FED1C
:100A40000C0A03F091F8412003F02EFBB0EE480AA7
:100A500002F02EFF9FED070A02F07EFEA068013033
:100A6000A060BDEC028B10BD9A99993E9A99193EEF
:100A70000000C8C20000344310B52DED028B40F2D7
:100A8000A404C2F20004A06802280FD0012815D0E7
:100A900080B99FED1E8AB0EE480A02F043FF9FED39
:100AA0001C0A02F0CFFE5F2013E000BF00200121EE
:100AB000C4E90201BDEC028B10BD00BF9FED138A9B
:100AC000B0EE480A02F02EFF9FED110A02F0BAFEC6
:100AD000232003F0E9FA03F013F803F083F802F09F
:100AE00085FF9FED0C0A03F03FF8412003F0DCFA8C
:100AF000B0EE480A02F0DCFE9FED070A02F02CFE81
:100B0000A0680130A060BDEC028B10BD9A99993E9F
:100B10009A99193E0000C8C20000344370B540F2F3
:100B20009B050024C2F20005002600BF02F044FA33
:100B30002878E978002808BF012686F001000843DC
:100B4000B0FA80F14FEA51110C4408BF0646032C5D
:100B5000ECD103F05DF840F2A401C2F200010122E1
:100B600040F2DC500A61BDE8704000F05DBA000060
:100B7000FEE7000010B52DED028B9FED228A40F2BA
:100B8000A404C2F200040020B0EE480A206102F082
:100B9000C9FE40F2DC5000F047FA9FED1B0A02F05C
:100BA0001BFE4FF47A7000F03FFA40F28C00C2F264
:100BB00000000078606002F0A3FF4FF47A7000F04C
:100BC00033FA03F00FF802F011FF9FED100A02F064
:100BD000CBFF4FF47A7000F027FAB0EE480A02F02B
:100BE00067FE40F2DC5000F01FFA9FED090A02F0A8
:100BF000B3FD40F2DC5000F017FA01202061BDEC9B
:100C0000028B10BD9A99993ECDCCCC3D0000C8C254
:100C10000000344340F2A400C2F200000069013831
:100C2000B0FA80F04009704740F2A400C2F2000020
:100C30000169406881F0010180F003000843B0FAC7
:100C400080F040097047000040F29B00C2F20000B3
:100C50000179407908431CBF0020704740F2A4008E
:100C6000C2F20000C068B0FA80F04009704700008E
:100C700040F29B00C2F200000179407908431CBF9A
:100C80000020704740F2A400C2F200004068013822
:100C9000B0FA80F04009704740F29B00C2F20000B9
:100CA0000179407908431CBF0020704740F2A4003E
:100CB000C2F2000040680238B0FA80F04009704784
:100CC0007047000010B540F29B04C2F20004E178C6
:100CD00040F2A400C2F200000022026129B100BF6C
:100CE00002F06AF9E0780028FAD102F091FF9FED56
:100CF000110A02F031FD4FF47A7000F095F99FED82
:100D00000E0A02F09FFD4FF47A7000F08DF9207901
:100D10006179084306D000BF02F04EF9207961796D
:100D20000843F9D102F074FF9FED040ABDE81040BA
:100D300002F0F8BD0000B4C2CDCCCC3D9A99193F69
:100D400002F03AF9FCE7000002F036F9FCE7000097
:100D500080B52DED028B40F2A400C2F20000806845
:100D600002280BD0012811D040BB9FED168AB0EEAF
:100D7000480A02F067FD7D200FE000BF02F02CFE64
:100D8000BDEC028BBDE8804002F022BF9FED0D8AD2
:100D9000B0EE480A02F056FDFB2003F085F902F0A0
:100DA0001BFE02F015FF412003F07EF9B0EE480A69
:100DB000BDEC028BBDE8804002F00EBDBDEC028BA5
:100DC00080BD00BF9A99193E80B52DED028B40F28F
:100DD000A400C2F20000806802280BD0012811D0C4
:100DE00040BB9FED168AB0EE480A02F02BFD7D2035
:100DF0000FE000BF02F0F0FDBDEC028BBDE88040CB
:100E000002F0E6BE9FED0D8AB0EE480A02F01AFD30
:100E1000FB2003F049F902F0DFFD02F0D9FE41208A
:100E200003F042F9B0EE480ABDEC028BBDE8804009
:100E300002F0D2BCBDEC028B80BD00BF9A99193E76
:100E400080B52DED028B40F2A400C2F20000806854
:100E500002280BD0012811D040BB9FED168AB0EEBE
:100E6000480A02F0EFFC7D200FE000BF02F0B4FD65
:100E7000BDEC028BBDE8804002F0AABE9FED0D8A5A
:100E8000B0EE480A02F0DEFC232003F00DF902F078
:100E9000A3FD02F09DFE412003F006F9B0EE480AE2
:100EA000BDEC028BBDE8804002F096BCBDEC028B2D
:100EB00080BD00BF9A99193E72B600BFFEE70000E0
:100EC000F0B540F29300C2F200000278437890F847
:100ED00002E082F0010183F0010739438EF001073F
:100EE00051EA070C16D10121C17001799FED4D1A0D
:100EF00001294FF000012CD14479012C29D18479AA
:100F0000012C26D1C479012C04BFB0EE0C0AF0BD2F
:100F10001FE000BFB9EE000A9FED421A002A4FF011
:100F2000010108BFB0EE401AB8EE040A08BF022162
:100F3000002BB2FA82F431EE000A0CBFB0EE401A78
:100F40006109BEF1000F04D1BFEE000A31EE001AB4
:100F50000131BEEE000AC77831EE000A0479B6EE20
:100F6000002A45798679002F04BFB0EE401A01317E
:100F700031EE020A002C04BFB0EE401A0131B7EE88
:100F8000000A1A4331EE000A42EA0E02002D04BFA5
:100F9000B0EE401A0131B0EE040A3A4331EE000AD5
:100FA000002E04BFB0EE401A0131C07942EA0403BA
:100FB000B1EE003A2B4331EE030A002843EA060360
:100FC00004BFB0EE401A01310343B0EE0C0A27D043
:100FD000002A08BF012D1FD044EA050333431843FC
:100FE000BCFA8CF2B0FA80F052094009024218BFF4
:100FF000F0BD00EE101AB8EEC00A81EE000AB6EE9F
:101000000C1A30EE030A20EE010A30EE020ABDEEA1
:10101000C00AB8EEC00AF0BD012EDDD10128DBD137
:10102000F0BD00BF00000000B0B5044600F0E6F8D7
:10103000054640F20000C2F200000078611C18BFB3
:10104000044400BF00F0DAF8401BA042FAD3B0BD60
:101050002DE9F04F82B000F13E4707F1FF7786059A
:1010600046EA972741F60046C4F20206082243F6F4
:10107000004EB04208BF0722C4F2010E072F38BF4E
:101080003A46002600274FF00008009209E000BF12
:1010900008F101080237B8F1100F06F1040600F05C
:1010A000A3800D68012202FA08F415EA0409EFD0C2
:1010B000D1F804B003220BF0030CACF10105BA40E7
:1010C000012D6FEA020A0FD88268CD6802EA0A028F
:1010D000BD402A4382604268A243CBF3001404FA65
:1010E00008F42243426005E0BCF1030F02D14FF047
:1010F000030C1EE0C2688C6802EA0A02BC4022436C
:10110000BCF1020FC26014D16FF0030202EA580270
:101110000244D2F820C006F01C040F230D69A3403E
:101120002CEA0303A5402B431362D1F804B00BF063
:10113000030C02680CFA07F302EA0A021A431BF4D2
:10114000403F0260A4D0002243F644030192C4F25F
:1011500002031A684FF6084C42F480421A601A687B
:10116000CFF6FF7C02F480420192019A28F003023C
:10117000724452F80C3006F00C050F24AC40A34327
:10118000009C04FA05F52B4342F80C30DEF80820E9
:101190004B6842EA090543F60C4CDC0258BF22EAD0
:1011A0000905CEF80850C4F2010CDCF800209C02BE
:1011B00042EA090558BF22EA0905CCF80050DEF8DA
:1011C00004209C0342EA090558BF22EA0905CEF82B
:1011D0000450DEF80020DB0342EA090558BF22EA8A
:1011E0000905CEF8005053E702B0BDE8F08F0000CB
:1011F000002A08BF090481617047000040F23C509A
:10120000C2F2000000687047002804BF0120704748
:10121000F0B581B0044690F83D0028B9002084F86C
:101220003C00204600F0CEF9242084F83D002068E0
:10123000016821F001010160016841F40041016091
:10124000016821F40041016000F0D4FB636848F2BA
:10125000A16CC0F2010C40F60011C0F23D016345E3
:101260003CBF48F28041C0F21E01884202D20120F8
:1012700001B0F0BD4DF68361C4F21B31A0FB011239
:101280002168970CD1F804E04FF496762EF03F05D4
:1012900045EA92454D60774348F638160D6AC0F22C
:1012A0004106A7FB067625F03F07634538BF960C3D
:1012B000721C3A430A62CA6948F2A0664CF6FF778C
:1012C000C0F20106B34222EA07020BD801385B00E4
:1012D000B0FBF3F001306FF31F30042898BF0420F7
:1012E0001BE000BFA768013857B119277B43B0FB4B
:1012F000F3F001306FF31F3070B100F5804007E06C
:1013000003EB4303B0FBF3F001306FF31F3018B170
:1013100000F5004001E000BF01201043C8610868EB
:10132000D4E9072320F0C000104318430860886800
:1013300048F2FF3204F10C0790438CCF184310435E
:10134000A6698860C86820F0FF0038433043C86051
:10135000086840F00100086000202021206484F823
:101360003D10206384F83E0001B0F0BD2DE9F04748
:1013700084B0994616460F460446FFF73FFF94F89F
:101380003D10202927D10546206800BF81698907C3
:101390001CD5FFF733FF411B20681A29F6D381695A
:1013A0008907F3D500202021206384F83D1084F8BC
:1013B0003E00206C04F13C0A40F020002064022032
:1013C00000218AF8001004B0BDE8F087A2461AF8A0
:1013D0003C1F012904D1022004B0BDE8F08700BF02
:1013E00001228AF800200368DDE90D180C9ADB075A
:1013F00003D1036843F001030360036823F400632F
:101400000360222084F83D00402084F83E00002044
:10141000206462626185608D394620850020CFF6A8
:10142000FF70E062204632464B46CDE9008501F070
:1014300041FB18B1012004B0BDE8F087208DA8B1B0
:1014400002282BD0012835D121680A6822F4806255
:101450000A60002203924A6903928A690392039AFE
:101460000A6842F400720A602CE000BF002003907A
:10147000206841690391816903910399016841F4EE
:1014800000710160202084F83D00002084F83E00B7
:1014900000218AF8001004B0BDE8F08721680A68CE
:1014A00022F480620A600A6842F400620A60002244
:1014B000039202E00021039121684A69039289693D
:1014C000039103990427C0F201070CE0106908702A
:1014D000606A218D01306062481E2085618D01396E
:1014E00061850104CED080B203280FD802284AD0EB
:1014F00001282DD1204641462A4601F0B7FC00289C
:1015000098D12068616A0069E1E700BF2046414642
:101510002A4601F0ABFC00287FF48CAF2068616A9A
:1015200000690870606A2268411C208D6162013880
:101530002085638D013B638553695B07D1D580B2FC
:101540000328C3D1106820F480601060BEE700BF9C
:101550002046394600224346009501F035FB00281D
:101560007FF468AF2068616A026822F480620260DA
:1015700000690870606A218D01306062481E208514
:10158000608D01386085204639460022434600952B
:1015900001F01AFB00287FF44DAF2068616A0268F1
:1015A00042F40072026000690870606A2268411C9F
:1015B0006162218D01392185618D01396185116952
:1015C000417085E72DE9F04786B0006845F6004197
:1015D000C4F2000100268842CDE90466CDE9026626
:1015E00001962FD045F60001C4F2000188426ED169
:1015F000002543F630040095C4F20204206801A9D6
:1016000040F002002060206800F002000090009886
:101610004FF4406001901220CDE9020503200490B0
:10162000042005900020C4F2020000F58060FFF75E
:101630000FFD0095206940F480002061206900F4CE
:10164000800042E043F630070096C4F20207386893
:10165000002440F0040038603868C4F2020400F04E
:101660000400009000980096386801AD40F0010039
:10167000386038684FF0120800F0010000900098C0
:101680004FF4007001904FF003094FF0040A04F585
:1016900000602946CDE90286CDF81090CDF814A05F
:1016A000FFF7D6FC4FF48070CDE9010803A880E86D
:1016B000400620462946FFF7CBFC0096386940F4E7
:1016C00000003861386900F400000090009806B00E
:1016D000BDE8F08740F2000040F23C51C2F2000049
:1016E000C2F2000100780A681044086070470000E8
:1016F00080B543F60040C4F20200016841F4007175
:101700000160016841F480610160016841F4807109
:101710000160032000F0ACF8002000F005F800F0B4
:1017200027F8002080BD000070B540F20006C2F22C
:10173000000640F20C013278C2F200014FF47A73D5
:101740000968B3FBF2F20446B1FBF2F1084600F07F
:1017500087FB0F2C4FF0010508D838B94FF0FF3048
:1017600021460022002500F057F87460284670BD1D
:1017700080B582B0002043F640010190C4F202011E
:101780004A6842F480424A604A6802F48042019208
:10179000019A00900868002240F0805008600868B4
:1017A000012100F08050009000986FF00B0000F0D5
:1017B00033F86FF00A000121002200F02DF86FF0DD
:1017C00009000121002200F027F86FF00400012138
:1017D000002200F021F86FF003000121002200F048
:1017E0001BF86FF001000121002202B0BDE880402B
:1017F00000F012B8002848BF704700F01F01012216
:1018000002FA01F11C2202EAD0004EF20012CEF2DE
:10181000000281507047000010B54EF60C5CCEF20D
:10182000000CDCF80030C3F3022E8EF00704042C09
:1018300028BF0424BEF103034FF0FF3E0EFA04F468
:1018400038BF0023A14399400EFA03F39A43114392
:1018500000F00F0200F160430901043A03F564430C
:101860006244002848BF02F10C03197010BD00004B
:101870004EF60C51CEF200010A684FF6FF031A40F3
:1018800060F30A2242F0806040F0FD70086070470B
:10189000002804BF012070472DE9F04143F60808F5
:1018A000C4F202080446D8F8F8030D4600F0070019
:1018B000884207D288F8F853D8F8F80300F00700F8
:1018C000A84277D12068810717D5410705D5D8F8F8
:1018D000001041F4E051C8F80010010705D5D8F810
:1018E000001041F46041C8F80010D8F80010A26858
:1018F00021F0F0011143C8F80010C00740D1D8F81A
:10190000F80300F00700A84207D988F8F853D8F880
:10191000F80300F00700A8424CD12068410707D522
:10192000D8F80010E26821F4E0511143C8F8001023
:10193000000708D5D8F80000216920F4604040EA8B
:10194000C100C8F8000000F07DF8D8F8001044F697
:101950007C52C1F30311C0F60002515C40F20C024C
:1019600020FA01F140F20400C2F200000068C2F265
:1019700000021160FFF7D8FE0020BDE8F08100BF33
:101980006068811E022907D258F8081C89015CBFD3
:101990000120BDE8F08111E0012807D158F8081CAA
:1019A00089035CBF0120BDE8F08107E058F8081CFE
:1019B000890703D40120BDE8F08100BFD8F80010EA
:1019C00021F003010843C8F80000FFF717FC0646A2
:1019D00041F28837D8F80000616800F00C00B0EBE5
:1019E000810F8CD0FFF70AFC801BB842F2D903208C
:1019F000BDE8F08140F20C0043F60801C2F200009D
:101A0000C4F202010068096844F68C52C1F38221D5
:101A1000C0F60002515CC8407047000040F20C0064
:101A200043F60801C2F20000C4F20201006809682E
:101A300044F68C52C1F34231C0F60002515CC840FA
:101A40007047000010B543F60404C4F20204606855
:101A500000F00C0008280BD0042819BF42F2004007
:101A6000C0F2F40047F64000C0F27D1010BD00BF88
:101A7000206821682368490247F64001C0F27D11C1
:101A800000F03F02C3F388105CBF42F20041C0F295
:101A9000F401A1FB00010023FEF791FC2168022262
:101AA000C1F3014102EB4101B0FBF1F010BD0000B8
:101AB000002804BF012070472DE9F04182B00446A0
:101AC000007843F60006C007C4F202060CD0B068E6
:101AD00000F00C00042840F081803068800303D5BA
:101AE0006068002800F06A81207880071BD5B06804
:101AF00010F00C0F09D0B06800F00C00082840F07E
:101B000087807068400200F183803068800703D5C9
:101B1000E068012840F052813068216920F0F80027
:101B200040EAC10030602078000713D420784007D5
:101B30002AD4A569002D00F03C81B06800F00C00AB
:101B4000082840F0A180012D40F01081012002B052
:101B5000BDE8F0816069002840F20000C4F247202F
:101B600000F07E800121C0F8801EFFF747FB05468C
:101B7000706F8007DAD4FFF741FB401B0228F7D9CA
:101B8000032002B0BDE8F081306C5FEAC0080AD4DF
:101B900000200190306C40F080503064306C00F0D8
:101BA00080500190019847F20007C4F2000738689E
:101BB000C00547D4386840F480703860FFF71EFBDA
:101BC000054600BF3868C0053CD4FFF717FB401B33
:101BD0000228F7D9032002B0BDE8F081B06800F018
:101BE0000C00082803D1706840023FF576AF6068AA
:101BF000B0F5803F07D0B0F5A02F40F09B80306853
:101C000040F480203060306840F4803030609BE0E9
:101C1000E06800285CD00020C4F247200121016068
:101C2000FFF7ECFA054600BF306880073FF574AF58
:101C3000FFF7E4FA401B0228F6D9032002B0BDE802
:101C4000F08100BFA068012805D0052854D1306F6D
:101C500040F004003067306F40F00100306755E01D
:101C60000021C0F8801EFFF7C9FA0546706F800793
:101C70007FF55CAFFFF7C2FA401B0228F6D90320BC
:101C800002B0BDE8F08100BF0027C4F24727002062
:101C90003866FFF7B3FA022D05460DD13068800192
:101CA00040F19080FFF7AAFA401B02284FF0030092
:101CB000F4D902B0BDE8F0813068800179D5FFF732
:101CC0009DFA401B02284FF00300F5D9F1E700BF51
:101CD0000020C4F2472000210160FFF78FFA05467B
:101CE000306880077FF51FAFFFF788FA401B022896
:101CF0004FF00300F4D9DCE7316F002821F0010137
:101D00003167316F21F0040131677DD0FFF776FA3A
:101D1000054641F2883700BF306F800700F18680AA
:101D2000FFF76CFA401BB842F6D9032002B0BDE8B9
:101D3000F08100BF3168002821F4803131603168C2
:101D400021F4802131607BD0FFF758FA054600BFAF
:101D5000306880033FF5C8AEFFF750FA401B642897
:101D6000F6D9032002B0BDE8F08100BF7068E169D8
:101D700000F480028A4221D1216A00F03F028A42A7
:101D80001CD147F6C071626A0140B1EB821F15D1C8
:101D9000A16A4FF6FF73C903994300F44032A1F5DD
:101DA00080318A420AD1E16A00F07060B0EB016FC5
:101DB00004D1002002B0BDE8F08100BF012002B0D4
:101DC000BDE8F08104F11C052FCD084340EA8210E4
:101DD000D9034FF6FF729143A1F5803140EA0560C7
:101DE0000843706001203866FFF708FA044600BF18
:101DF00030688001DDD4FFF701FA001B02284FF0A4
:101E00000300F5D955E700BFFFF7F8F9054641F2A1
:101E1000883700BF306F800708D5FFF7EFF9401B08
:101E2000B8424FF00300F5D943E700BFB8F1000F07
:101E30003FF57FAE306C20F08050306479E600BF13
:101E4000FFF7DCF9054600BF306880037FF54CAE34
:101E5000FFF7D4F9401B64284FF00300F4D928E7BA
:101E6000411E0020B0EB116F1CBF012070474EF2E5
:101E70001002CEF2000251604EF62351CEF2000164
:101E8000F0230B70072190601160704770470000CD
:101E90007047000090F83C20012A4FF0020254D015
:101EA00010B580F83D200268D2F804E0D2F808C0EE
:101EB0000C682EF07003234341F2FF74C4F2000457
:101EC000A24253600EDC40F2FF73C4F200039A4258
:101ED00016DCB2F1804F2BD040F20043C4F2000375
:101EE00024E000BF40F2FF33C4F201039A4213DC46
:101EF00041F60003C4F200039A4219D0002313E014
:101F000040F60003C4F200039A4211D040F60043A9
:101F1000C4F200030AE000BF44F20003C4F201036C
:101F20009A4205D040F20043C4F201039A4204D120
:101F300049682CF08003194391600121002280F848
:101F40003D1080F83C20BDE810401046704700006E
:101F5000002804BF0120704710B5044690F83D00EA
:101F600028B9002084F83C00204600F01FF8022029
:101F700084F83D002068211D01F062FF012084F8F3
:101F8000460084F83E0084F83F0084F8400084F85E
:101F9000410084F8420084F8430084F8440084F847
:101FA000450084F83D00002010BD000080B582B0DF
:101FB000006800F14041800540EA912005284AD898
:101FC000DFE800F00412203A4C6600BF00200190C8
:101FD00043F64000C4F20200016841F001010160D3
:101FE000006800F0010034E00020019043F640005A
:101FF000C4F20200016841F002010160006800F0D3
:10200000020026E00020019043F64000C4F20200E6
:102010000168002241F0040101600068002100F025
:102020000400019001981E20FFF7F6FB1E2002B06D
:10203000BDE88040FFF7DEBB0020019043F6400082
:10204000C4F20200016841F008010160006800F07C
:1020500008000190019802B080BD00BF00200190EF
:1020600043F64000C4F202000168002241F0100172
:1020700001600068012100F01000019001983620F5
:10208000FFF7CAFB362002B0BDE88040FFF7B2BBC5
:102090000020019043F64000C4F2020001680022D3
:1020A00041F0200101600068012100F02000019052
:1020B00001983720FFF7B0FB372002B0BDE8804021
:1020C000FFF798BB90F83D1001291CBF0120704715
:1020D000022180F83D10006841F2FF72C168C4F22D
:1020E0000002904241F00101C1600DDC40F2FF713D
:1020F000C4F20001884215DCB0F1804F2AD040F2D2
:102100000041C4F2000123E040F2FF31C4F20101BA
:10211000884213DC41F60001C4F20001884219D064
:10212000002113E040F60001C4F20001884211D002
:1021300040F60041C4F200010AE000BF44F2000191
:10214000C4F20101884205D040F20041C4F201010D
:10215000884206D1816801F00701062904BF0020EA
:102160007047016841F001010160002070470000E4
:1021700090F83C20012A4FF0020200F0C58080B5A3
:1021800080F83D20D0F800C04FF67772DCF80830B8
:1021900023EA0202CCF808200B684F2B28DC1F2B07
:1021A00044DD202B45D0302B43D0402B40F0AE8077
:1021B000D1F804E0C968DCF82030DCF8202022F0F7
:1021C0000102CCF82020DCF8182022F0F00242EACC
:1021D000011123F00A0242EA0E02CCF81810CCF8E2
:1021E0002020DCF8081041F0470121F0300180E0A8
:1021F0006F2B27DDB3F5005F48D0B3F5805F7AD051
:10220000702B40F08380D1E901E3C968DCF8082035
:1022100043EA0E0322F47F4243EA01211143CCF842
:102220000810DCF8081041F0770162E00BB1102BC8
:102230006CD1DCF8081021F07001194341F007015E
:1022400057E000BF502B35D0602B5FD1D1F804E0B0
:10225000C968DCF82030DCF8202022F01002CCF82D
:102260002020DCF8182022F4704242EA013123F0E9
:10227000A00242EA0E12CCF81810CCF82020DCF8AC
:10228000081041F0670121F0100132E0D1E901E3CB
:10229000C968DCF8082043EA0E0322F47F4243EACF
:1022A00001211143CCF80810DCF8081041F48041FA
:1022B0001FE000BFD1F804E0C968DCF82030DCF88A
:1022C000202022F00102CCF82020DCF8182022F097
:1022D000F00242EA011123F00A0242EA0E02CCF8AF
:1022E0001810CCF82020DCF8081041F0570121F03C
:1022F0002001CCF808100022012180F83D100021B7
:1023000080F83C10BDE88040104670470122F3E79A
:102310007047000070B504460068C5680669B107DB
:1023200016D515F0020113D06FF0020101610121F1
:1023300021778069800703D02046FFF7E9FF05E099
:10234000204600F08FF8204600F0D0F900202077DA
:10235000700719D515F0040016D020686FF004013D
:10236000016102212177806910F4407F04D020466A
:10237000FFF7CEFF06E000BF204600F073F82046CE
:1023800000F0B4F900202077300717D515F00800C9
:1023900014D020686FF00801016104212177C06921
:1023A000800703D02046FFF7B3FF05E0204600F08A
:1023B00059F8204600F09AF900202077F00619D548
:1023C00015F0100016D020686FF01001016108218F
:1023D0002177C06910F4407F04D02046FFF798FFB2
:1023E00006E000BF204600F03DF8204600F07EF9F0
:1023F00000202077F00718BF15F0010002D1300649
:1024000009D412E020686FF001010161204600F05C
:10241000FFF9300609D515F0800006D020686FF06E
:10242000800101612046FFF731FD700609D515F0E6
:10243000400006D020686FF040010161204600F0A6
:10244000E9F9B00658BF70BD15F0200008D021682A
:102450006FF0200220460A61BDE87040FFF718BD0A
:1024600070BD00007047000090F83C30012B04BFA5
:10247000022070474FEAB202032A00F201812DE9DF
:10248000F043DFE802F0033F7FBF00BF036840F284
:1024900000461C6A1A6A24F0020422F001021A6241
:1024A0001A46D3F804C052F818EF8F6843F48065D9
:1024B000C4F20106B54244EA070405D1CF6824F00E
:1024C0000C0427F004073C430F68B54206D1D1E95C
:1024D00005582CF440762E4346EA080C2EF073067D
:1024E0003743C3F804C09F614F6809695F631C628A
:1024F0009F6947F008079F619F6927F004079F6164
:10250000B2E000BF036840F200481C6A1A6A24F077
:10251000200422F010021A621A46D3F804C052F8BE
:1025200018EF8F6843F48065C4F20108454544EA1A
:10253000071407D1CF686FF0400624F0C00406EA04
:1025400007163443D1F80090454506D1D1E9055628
:102550002CF440672E4347EA860C2EF4E64747EA00
:102560000927C3F804C09F614F6809699F631C6213
:102570009F6947F400679F619F6927F480679F61A7
:1025800071E000BF036840F200481C6A1A6A24F434
:10259000007422F480721A621A46D3F804C052F80A
:1025A0001CEF8F6843F48065C4F20108454544EA96
:1025B000072408D1CF6840F2FF463F0224F440646C
:1025C00027EA06063443D1F80090454506D1D1E903
:1025D00005562CF440572E4347EA061C2EF073078D
:1025E00047EA0907C3F804C0DF614F680969DF6380
:1025F0001C62DF6947F00807DF61DF6927F0040725
:10260000DF6131E0036840F20045D3F820C01A6A68
:1026100043F4806722F480521A621A465C6852F8CA
:102620001CEFD1F800808E68C4F20105AF4204D1DE
:102630004D6924F4804444EA85142CF4005747EA99
:1026400006372EF4E64646EA08265C60DE614E68F0
:1026500009691E641F62DF6947F40067DF61DF6993
:1026600027F48067DF6109021368194311600021B4
:10267000BDE8F043002280F83C200846704700BFC8
:102680000121002280F83C2008467047002804BF42
:102690000120704710B5044690F83D0028B900208D
:1026A00084F83C00204600F01FF8022084F83D002A
:1026B0002068211D01F0C4FB012084F8460084F845
:1026C0003E0084F83F0084F8400084F8410084F81C
:1026D000420084F8430084F8440084F8450084F8FC
:1026E0003D00002010BD0000704700007047000052
:1026F00041B1082910D0042914BF00F1410200F1B2
:102700003F020BE090F83E20012A1CBF01207047D9
:10271000022280F83E2013E000F140021278012AE4
:102720001CBF012070470222082907D0042914BFCA
:1027300080F8412080F83F2002E000BF80F8402070
:10274000006801F01F010122036A02FA01F123EA85
:1027500001020262026A114341F2FF72C4F20002F6
:102760009042016210DC40F2FF71C4F20001884225
:102770001CDCB0F1804F3FD040F20041C4F20001B8
:10278000884239D03DE000BF40F2FF31C4F2010180
:10279000884219DC41F60001C4F2000188422BD0C6
:1027A0000021C4F2010188421AD02AE040F600015B
:1027B000C4F2000188421FD040F60041C4F200017B
:1027C000884219D01DE000BF44F20001C4F20101AB
:1027D000884211D040F20041C4F20101884210D178
:1027E000416C40F2004340F48062C4F2010341F4C2
:1027F00000419A42416404D1816801F00701062931
:1028000003D0016841F00101016000207047000021
:102810007047000070470000002804BF0120704787
:1028200010B5044690F8410028B9002084F8400013
:10283000204600F021F8242084F841002068C16877
:1028400021F40051C160204601F09CFB2068016921
:1028500021F490410161416921F02A014161C1687F
:1028600041F40051C16000202021606484F84110CF
:1028700084F84210606310BD80B586B0006844F2F1
:102880000042C4F2000200219042CDE90411CDE9DA
:102890000211019124D041F20001C4F201018842E9
:1028A00048D1002043F630010090C4F202014A6989
:1028B00042F010024A614A6902F010020092009A46
:1028C0000090086840F00100086008684FF4C0619B
:1028D00000F00100009000980020C4F202001DE00A
:1028E00043F630000091C4F20200026942F4003263
:1028F0000261026902F400320092009A00910168BC
:1029000041F0080101600068602100F008000090BB
:1029100000980020C4F2020000F5406001910221FD
:10292000029100210391032104910721059101A93E
:10293000FEF78EFB06B080BD2DE9F041044690F80D
:10294000410020281CBF0220BDE8F0810D4600296F
:102950004FF0010000F0AA801646002A08BFBDE82B
:10296000F081002060642120984684F84100FEF741
:1029700045FCA684E684A1680646B1F5805F02D1D5
:102980002069002862D02F460025E08C002861D005
:1029900018F1010018D0B8F1000F37D1216808E014
:1029A00017F8010B4860E08C0138E084E08C0028C7
:1029B00051D00868000673D5002FF1D135F8020B0D
:1029C00000276FF35F20EDE7216802E0086800064A
:1029D00009D40868000606D4086800065CBF0868C9
:1029E0005FEA0060F2D51FB117F8010B05E000BFE8
:1029F00035F8020B00276FF35F204860E08C013848
:102A0000E084E08C0028E4D125E000BF216800BF0D
:102A10000868000608D4FEF7F1FB801B404541D84A
:102A20002168C868F4E700BF17B117F8010B04E08C
:102A300035F8020B00276FF35F204860E08C013807
:102A4000E084E08C0028E3D105E000BF0027E08CA3
:102A500000289DD12168086840061FD4B8F1000FF6
:102A60001ED018F101000FD10868400616D408687E
:102A7000400613D40868400610D4086840064FF09A
:102A80000000F1D50FE000BFFEF7B8FB801B40450A
:102A900008D82068C16800684006F5D5002002E02B
:102AA000FEF7ACFB0320202184F84110BDE8F08143
:102AB000FEE700002DE9F04782B0044600689A4620
:102AC0000B9D0A9E0368914643F48062026002688F
:102AD0000F4642F48071016020464FF00111002240
:102AE0003346009500F070F850B120680068C005CA
:102AF00044BF4FF400702064032002B0BDE8F087AB
:102B000040F202082068C0F2010807F0FE070761E2
:102B10002046414632462B4600F03CF920B10120C8
:102B200002B0BDE8F08700BF0020019020682A466F
:102B3000416901918069314601900198204600F079
:102B4000DDF9B0B92068BAF1010F09D04FEA1921B7
:102B50000161204631462A4600F0D0F948B9206884
:102B60005FFA89F10161204631462A4600F0C6F934
:102B700060B1206C0428D2D12068016841F4007152
:102B80000160012002B0BDE8F08700BF206800228C
:102B90000168334641F48071016020464FF0011115
:102BA000009500F011F800289FD147F0010C27682C
:102BB0002046414632462B46C7F810C002B0BDE859
:102BC000F04700F0E7B800002DE9F0410546006845
:102BD0001E46144601F47F0201338FB242D0DDF865
:102BE0001880B2F5803F40F0878040693840C01BB4
:102BF000B0FA80F04009A04240F0C8804EB924E00D
:102C000040693840C01BB0FA80F04009A04240F053
:102C1000BD80FEF7F3FAA0EB08012868B142EFD9B6
:102C200041693940C91BB1FA81F14909A142E7D193
:102C30009BE000BF40693840C01BB0FA80F04009FB
:102C4000A0424FF0000040F0A280FEF7D7FA2868BB
:102C500041693940C91BB1FA81F14909A142E9D161
:102C600083E000BFB2F5803F24D100BF4169394005
:102C7000C91BB1FA81F14909A14240F0878041693D
:102C80003940C91BB1FA81F14909A14240F07E8067
:102C900041693940C91BB1FA81F14909A14275D195
:102CA00041693940C91BB1FA81F14909A142DDD01E
:102CB0006CE000BF81693940C91BB1FA81F1490953
:102CC000A14263D181693940C91BB1FA81F1490937
:102CD000A1425BD181693940C91BB1FA81F149092F
:102CE000A14253D181693940C91BB1FA81F1490927
:102CF000A142DFD04AE000BF80693840C01BB0FA73
:102D000080F04009A04241D146B923E080693840B3
:102D1000C01BB0FA80F04009A04237D1FEF76EFA2E
:102D2000A0EB08012868B142F0D981693940C91B7C
:102D3000B1FA81F14909A142E8D116E08069384031
:102D4000C01BB0FA80F04009A0424FF0000018BF4D
:102D5000BDE8F081FEF752FA286881693940C91B45
:102D6000B1FA81F14909A142E8D10020202128636C
:102D700085F83D1085F83E00296C41F0200129645A
:102D800085F83C000120BDE8F08100BF0020BDE8CF
:102D9000F0810000F0B581B0044600681D4643692B
:102DA0008FB203EA0701B94202D1002001B0F0BDA1
:102DB0004169164601323FD049053FD4CEB100BF2C
:102DC000FEF71CFA411B2068B14203D94169394022
:102DD000B94215D141693940B942E6D04169490546
:102DE000EED52BE041693940B942DED04169490551
:102DF00024D4FEF703FA206841693940B942F1D082
:102E0000202023E041693940B942CED041694905CB
:102E100014D441693940B942C7D0416949050DD43C
:102E200041693940B942C0D04169490506D4416978
:102E30003940B942B9D041694905E3D5016841F447
:102E4000007101606FF48061416104200021202243
:102E5000216384F83D2084F83E10226C10432064E6
:102E600084F83C10012001B0F0BD000070B50446AC
:102E70000068154650F8143F5A063DD40E4629B94D
:102E800026E000BF50F8141F490635D40168C90672
:102E900021D4FEF7B3F9411B2068B142F2D9416950
:102EA0004906EFD400202021206384F83D1084F8E7
:102EB0003E00206C40F0200018E000BFFEF79EF9B5
:102EC000206850F8141F4906ECD50168490613D450
:102ED0000168C906F2D56FF01001016000202021C1
:102EE000206384F83D1084F83E00206C20640020AC
:102EF00084F83C00012070BD002070BD70B50368EF
:102F0000044653F8140F000611D40E46481C29D06D
:102F100086BB00BF1868400527D4FEF76FF9236809
:102F200053F8140F000637D518680006F2D50020B4
:102F300070BD00BF18680006F9D41868400514D4A5
:102F400018680006F3D4186840050ED41868000607
:102F5000EDD41868400508D4186800064FF000004A
:102F600048BF70BD18684005E4D56FF480601860F4
:102F7000042012E0154603E053F8140F0006D6D4DF
:102F800018684005F1D4FEF739F9401B2368B042B8
:102F9000F2D958690006EFD42020002120222163B5
:102FA00084F83D2084F83E10226C104320640120F8
:102FB00084F83C1070BD000080B52DED048BFDF74A
:102FC0007FFFB0EE408AB0EE0C0AB4EE408AF1EE1C
:102FD00010FA21D19FED299A40F2F000C2F20000D0
:102FE000B0EE490A01F028FB40F24810C2F200009E
:102FF000B0EE490A01F020FB40F2A010C2F200003E
:10300000B0EE490A01F018FB40F2F810C2F20000DD
:10301000B0EE490A01F010FBB8EE0C0A9FED181A49
:1030200038EE000A9FED152A20EE010A30EE028AE2
:1030300040F2F00032EE409AC2F20000B0EE480AD0
:1030400001F0FAFA40F24810C2F20000B0EE490A6C
:1030500001F0F2FA40F2A010C2F20000B0EE480A0D
:1030600001F0EAFA40F2F810C2F20000B0EE490AAC
:10307000BDEC048BBDE8804001F0DEBACDCC4C3E07
:10308000CDCC4C3D70B586B0002543F6300005959B
:103090000095C4F20200016840F6000441F080018E
:1030A00001600168C4F2020401F0800100910099FE
:1030B00000950168002241F0010101600168C0260D
:1030C00001F00101009100990095016841F00201B1
:1030D0000160016801F0020100910099009501680A
:1030E00041F004010160016801F0040100910099C0
:1030F0000095016841F0080101600068C02100F0FE
:103100000800009000982046FEF772F80120CDE9F3
:10311000020501A9204601960495FDF799FF06B026
:1031200070BD000080B540F2502045F60001C2F2AB
:103130000000C4F2000100234FF4804C42F21072F0
:1031400080E80E00C0E9033CC0E90533C0E907335D
:10315000FEF75AF8002808BF80BDBDE88040FDF7A3
:10316000ABBE000080B540F2A42045F60041C2F29B
:103170000000C4F2000100234FF4804C42F21072B0
:1031800080E80E00C0E9033CC0E90533C0E907331D
:10319000FEF73AF8002808BF80BDBDE88040FDF783
:1031A0008BBE000010B594B040F2F8200021C2F2AE
:1031B00000004FF08042532344F61F640D91CDE987
:1031C0000B110991CDE90711CDE90511CDE90311E5
:1031D000CDE90111C0E90023C0E902140161816158
:1031E000FEF7B6FE002818BFFDF766FE4FF48050CC
:1031F0000A9040F2F820C2F200000AA9FEF7B8FFD8
:10320000002818BFFDF758FE40F2F820C2F2000077
:10321000FFF73CFA002818BFFDF74EFE40F2F820F9
:103220000024C2F2000008A9CDE90844FEF732FEEE
:10323000002818BFFDF740FE6020CDE9010403948B
:10324000059440F2F824C2F2000401A920460022AD
:10325000FFF70AF9002818BFFDF72EFE206840F698
:103260000042C4F20002002190420F911CD040F2B3
:103270000041C4F20001884226D0B0F1804F41D114
:1032800000200E9043F63000C4F20200016841F0C5
:1032900001010160006800F001000E900E982020EE
:1032A0000F90012022E000BF43F630000E91C4F2DF
:1032B0000200016841F001010160006800F00100B6
:1032C0000E900E9801200FE000200E9043F6300083
:1032D000C4F20200016841F001010160006800F0E1
:1032E00001000E900E9840200F90022002211091B4
:1032F000002113900020CDE91111C4F202000FA9A2
:10330000FDF7A6FE14B010BDB0B594B040F2004574
:1033100040F24030C4F200050021C2F20000532206
:1033200044F61F630D91CDE90B110991CDE9071109
:10333000CDE90511CDE90311CDE90111C0E9005234
:10334000C0E9021301618161FEF702FE002818BF87
:10335000FDF7B2FD4FF480500A9040F24030C2F2C7
:1033600000000AA9FEF704FF002818BFFDF7A4FD1E
:1033700040F24030C2F20000FFF788F9002818BF81
:10338000FDF79AFD40F240300024C2F2000008A987
:10339000CDE90844FEF77EFD002818BFFDF78CFD3F
:1033A0006020CDE901040394059440F24034C2F258
:1033B000000401A920460022FFF756F8002818BF94
:1033C000FDF77AFD206840F60042C4F200020021B9
:1033D00090420F9118D0A84226D0B0F1804F40D132
:1033E00000200E9043F63000C4F20200016841F064
:1033F00001010160006800F001000E900E9820208D
:103400000F90012022E000BF43F630000E91C4F27D
:103410000200016841F001010160006800F0010054
:103420000E900E9801200FE000200E9043F6300021
:10343000C4F20200016841F001010160006800F07F
:1034400001000E900E9840200F9002200221109152
:103450000021CDE91111139005F5FE300FA9FDF7FC
:10346000F7FD14B0B0BD000080B586B040F28830E2
:1034700040F600020021C2F20000C4F20002532311
:103480000591CDE90311CDE90011C0E90021C0E9A2
:103490000213016180218161FEF75AFD002818BFE7
:1034A000FDF70AFD4FF48050029040F28830C2F2DE
:1034B000000002A9FEF75CFE002818BFFDF7FCFC27
:1034C00040F28830C2F200006946FEF7E3FC0028B3
:1034D00018BFFDF7F1FC06B080BD0000B0B594B098
:1034E00040F6004540F2D030C4F200050021C2F29F
:1034F0000000532244F61F630D91CDE90B11099191
:10350000CDE90711CDE90511CDE90311CDE901118F
:10351000C0E90052C0E9021301618161FEF718FDA4
:10352000002818BFFDF7C8FC4FF480500A9040F205
:10353000D030C2F200000AA9FEF71AFE002818BF18
:10354000FDF7BAFC40F2D030C2F20000FFF79EF85F
:10355000002818BFFDF7B0FC40F2D0300024C2F2C2
:10356000000008A9CDE90844FEF794FC002818BF24
:10357000FDF7A2FC6020CDE901040394059440F21C
:10358000D034C2F2000401A920460022FEF76CFFED
:10359000002818BFFDF790FC20680021A8420F9179
:1035A0001CD040F20041C4F20001884226D0B0F1A4
:1035B000804F40D100200E9043F63000C4F202004C
:1035C000016841F001010160006800F001000E9007
:1035D0000E9820200F90012022E000BF43F630001B
:1035E0000E91C4F20200016841F00101016000681F
:1035F00000F001000E900E9801200FE000200E90C8
:1036000043F63000C4F20200016841F0010101609C
:10361000006800F001000E900E9840200F900220EC
:10362000022110910021CDE91111139005F5FA3016
:103630000FA9FDF70DFD14B0B0BD000080B582B03C
:1036400040F2184041F200020021C2F20000C4F230
:103650000002532342F20F7CCDE90011C0E90023A0
:10366000C0E9021C8161FEF773FC002818BFFDF75A
:1036700023FC40F21840C2F200006946FEF70AFC43
:10368000002818BFFDF718FC02B080BD80B582B0DD
:1036900040F2604041F200420021C2F20000C4F258
:1036A000000254234FF6FF7CCDE90011C0E900234E
:1036B000C0E9021C8161FEF74BFC002818BFFDF732
:1036C000FBFB40F26040C2F200006946FEF7E2FBFD
:1036D000002818BFFDF7F0FB02B080BD80B540F2B6
:1036E000A84041F20001C2F20000C4F2010100232F
:1036F0004FF00C0C4FF4E13280E80E00C0E90333C8
:10370000C0E905C3C361FFF787F8002808BF80BD83
:10371000BDE88040FDF7D0BB80B540F2F04044F2F8
:103720000041C2F20000C4F2000100234FF00C0C73
:103730004FF4E13280E80E00C0E90333C0E905C36D
:10374000C361FFF769F8002808BF80BDBDE880406D
:10375000FDF7B2BBFEE7000080B52DED068B9FEDB7
:103760001B8A9FED1B1A20EE080A80EE019A40F298
:10377000F000C2F20000B0EE480AF0EE490A00F094
:10378000CBFE9FED14AA40F24810C2F20000B0EE4A
:103790004A0AF0EE490A00F0BFFE40F2A010C2F261
:1037A0000000B0EE480AF0EE490A00F0B5FE40F223
:1037B000F810C2F20000B0EE4A0AF0EE490ABDEC81
:1037C000068BBDE8804000F0A7BE00BFF5DB973E4A
:1037D0000000B442F5DB97BE80B52DED048B9FED64
:1037E000189AB0EE408A40F2F000C2F20000B0EE4B
:1037F000490AF0EE480A00F08FFE40F24810C2F28B
:103800000000B0EE490AF0EE480A00F085FE40F2F2
:10381000A010C2F20000B0EE490AF0EE480A00F033
:103820007BFE40F2F810C2F20000B0EE490AF0EE62
:10383000480ABDEC048BBDE8804000F06DBE00BFBF
:10384000CDCC4CBE80B52DED048B9FED189AB0EE1B
:10385000408A40F2F000C2F20000B0EE490AF0EEF9
:10386000480A00F059FE40F24810C2F20000B0EEE3
:10387000490AF0EE480A00F04FFE40F2A010C2F2F2
:103880000000B0EE490AF0EE480A00F045FE40F2B2
:10389000F810C2F20000B0EE490AF0EE480ABDECA2
:1038A000048BBDE8804000F037BE00BFCDCC4C3E5D
:1038B00080B52DED068B9FED199AB0EE408A40F24F
:1038C000F000C2F20000B0EE490AF0EE480A00F043
:1038D00023FE9FED13AA40F24810C2F20000B0EEA2
:1038E0004A0AF0EE480A00F017FE40F2A010C2F2B9
:1038F0000000B0EE4A0AF0EE480A00F00DFE40F279
:10390000F810C2F20000B0EE490AF0EE480ABDEC31
:10391000068BBDE8804000F0FFBD00BFCDCC4CBEA3
:10392000CDCC4C3E80B52DED068B9FED199AB0EEB7
:10393000408A40F2F000C2F20000B0EE490AF0EE18
:10394000480A00F0E9FD9FED13AA40F24810C2F2C8
:103950000000B0EE4A0AF0EE480A00F0DDFD40F249
:10396000A010C2F20000B0EE4A0AF0EE480A00F0E1
:10397000D3FD40F2F810C2F20000B0EE490AF0EEBA
:10398000480ABDEC068BBDE8804000F0C5BD00BF15
:10399000CDCC4C3ECDCC4CBEFEE7000070470000C5
:1039A00080B584B001200DF10F01CDE9001040F287
:1039B00050204FF47A7CC2F200009021AA22012309
:1039C000CDF808C0FDF7D2FC9DF80F00663818BF8F
:1039D000012004B080BD000040F2F820C2F20000D7
:1039E00000684FF4FA7141637047000040F2F8201C
:1039F000C2F20000006840F6C41141637047000045
:103A0000F0B585B040F2A4240020C2F20004ADF865
:103A100012004FF47A7501260DF112072046982105
:103A2000DD220123CDE900760295FDF79FFC781C8D
:103A3000CDE9000620469A21DD2201230295FDF7FB
:103A400095FC9DF812109DF8130040F28C0201F0D5
:103A50000103C2F20002D37100F00103D373C1F37A
:103A600040031372C0F340031374C1F38003537215
:103A7000C0F380035374C1F3C0039372C0F3C00357
:103A80009374C1F30013D372C0F30013D374C1F362
:103A900040131373C0F340131375C1F380135373B2
:103AA000C0F38013C909C00953759173907505B0AF
:103AB000F0BD0000F0B583B040F28C07C2F2000701
:103AC00040F250240326781CC2F200044FF47A75A9
:103AD000CDE9000620469021D02201230295FDF772
:103AE00045FC381DCDE9000620469021D122012356
:103AF0000295FDF73BFC03B0F0BD000070470000ED
:103B00002DE9F04381B040F28D06C2F200067079D3
:103B100040F27C0740F2385840F27809EF28C2F2B0
:103B20000007C2F20008C2F200090DD001244FF4D0
:103B3000C84500BFFFF7BEFF70793C60EF28C8F8AA
:103B40000050C9F80040F5D141F200610120C0F2F7
:103B50000D013860C8F80010C9F8000001B0BDE8D8
:103B6000F08300000000000080B510EE100A40F263
:103B70007C020021B5EE400AC2F2000220F00040B3
:103B8000F1EE10FAC8BF0121116001F079F89FED44
:103B90000E0B53EC102B00F075FF00F045FFC11722
:103BA00000EB517140F238520730C910C2F20002E6
:103BB0000F28116038BF80BD40F27800C2F20000CB
:103BC0000121016080BD00BF000000000000F9403D
:103BD00040F24030C2F2000000684FF4FA714163D5
:103BE0007047000040F24030C2F20000006840F62A
:103BF000C411416370470000DDF800C001604263FA
:103C000080F8383080ED0F0A80F840C0704700001F
:103C100080B52DED028B9FED138A40F2F000C2F2C9
:103C20000000B0EE480A00F007FD40F24810C2F272
:103C30000000B0EE480A00F0FFFC40F2A010C2F213
:103C40000000B0EE480A00F0F7FC40F2F810C2F2B3
:103C50000000B0EE480ABDEC028BBDE8804000F0E9
:103C6000EBBC00BF00000000FDF734BDB0B592B062
:103C7000002443F64000CDE90A44CDE90844059408
:103C8000CDE90344CDE901440094C4F20200016887
:103C9000022541F080510160006800F080500090E2
:103CA000009847F200000094C4F20000016841F45B
:103CB00080410160006800F480400090009801207D
:103CC00006904FF4803007904FF480000D9019203B
:103CD0000E904FF4A870CDE90F050420119006A8AE
:103CE0000C95FDF7E5FE18B172B600BFFEE700BF08
:103CF0000F20CDE901054FF4A05004904FF48050FF
:103D0000059001A805210394FDF7C2FD10B172B61C
:103D1000FEE700BF12B0B0BD4EF68850CEF20000F4
:103D2000016841F4700101607047000070B540F215
:103D30007005C2F20005A86801282FD1E86840F696
:103D400000040138C4F20204B0FA80F042092046AF
:103D50008021FDF74DFA2868012827D0F0B940F2FC
:103D60003856C2F20006306880B320464021012256
:103D7000FDF73EFA40F20800C2F2000069680068F0
:103D800032680131013A81424FF0000069603260CF
:103D9000A4BF6860012029680844286040F2883088
:103DA000C2F20000BDE87040FEF7B4BA20464021E0
:103DB00000220024FDF71CFA2C6040F28830C2F289
:103DC0000000BDE87040FEF7A5BA00BF0020A86063
:103DD000286140F28830C2F20000BDE87040FEF772
:103DE00099BA000010B540F27004C2F20004606994
:103DF000022805D0012807D098B9FFF75BFE05E03F
:103E000000F038F900200BE0FFF7FAFDD4E90501D6
:103E10004A1CB1F1FF3FC8BF0022A261C8BF0130F8
:103E2000606140F21840C2F20000BDE81040FEF7A9
:103E300071BA000040F26040C2F20000FEF76ABAB8
:103E4000B0B540F6FF3E0568C4F2000E40F2004CEB
:103E50007045C4F2010C27DCB0F1804F31D040F244
:103E60000043C4F2000398422BD040F60003C4F292
:103E70000003984225D041F6FF73C4F20003984234
:103E80002ADC70453CDCB0F1804F5FD040F200434B
:103E9000C4F20003984259D040F60003C4F2000374
:103EA000984253D057E000BF40F60043C4F20003ED
:103EB000984206D0604504D00023C4F20103984222
:103EC000D9D14B6825F0700243EA020541F6FF7331
:103ED000C4F200039842D4DD43F6FF73C4F2010339
:103EE000984221DC42F20003C4F2000398422DD034
:103EF0000023C4F20103984228D0604526D02AE06E
:103F000040F60043C4F2000398421FD041F600037C
:103F1000C4F20003984219D041F60043C4F20003F2
:103F2000984213D017E000BF44F20003C4F201032B
:103F300098420BD044F60003C4F20103984205D026
:103F400044F20043C4F20103984204D1CB6825F443
:103F5000407243EA02050A688C684B69C46240F407
:103F600080648262644504BF09690163026825F0C8
:103F7000800142F0040219430260012242610160A3
:103F8000B0BD000010B504460068D4E902C2236940
:103F9000016921F4405111430161626943EA0C0156
:103FA000E3691143C268194349F20C639A43114310
:103FB000C1604169A26921F4407141F2004311439B
:103FC00040F48062C4F201039A42416102D1FDF7DC
:103FD00025FD01E0FDF70EFDE16963681922B1F5E9
:103FE000004FA0FB020123D15A00DB0FFCF7E7F9D9
:103FF00048F21F51C5F2EB11A0FB01235A094FF6FD
:104000009C73C0F6FF7303F1805302FB030032235D
:1040100003EBC000A0FB01014FF4F87000EA11109F
:1040200000EB0210C1F3421108442168886010BD02
:104030009A009B0FFCF7C3F948F21F51C5F2EB1130
:10404000A0FB01235A094FF69C73C0F6FF7302FBD5
:104050000300322303EB0010A0FB0101F02000EA73
:10406000511000EB0210C1F343110844216888602D
:1040700010BD000040F28C00C2F200000179C2299C
:1040800082BF0121017070471A293EBF02210170D1
:104090007047A1F12D0200211F2A38BF03210170B2
:1040A00070470000FEE700004FF4FA6148434BF60A
:1040B000D711C0F2F201A0FB010140F2D030C2F2F0
:1040C0000000006801F5FA714163704770B514464D
:1040D0000546D0E903020E46511C2961C900FCF7D0
:1040E0000CF92969E86000EBC10040E9026470BD89
:1040F00080B50C20FCF7D2F80021C0E900118160E6
:1041000080BD00002DE9F041074614209846154671
:104110000E46FCF7C3F804460020C4E90300D7E9C3
:104120000101C4E900650131B9608900C4F8088063
:10413000FCF7E3F8B968786000EB8101204641F8AC
:10414000044CBDE8F08100000160704782B0FDF7CB
:10415000CFFAFFF78BFDFEF795FFFFF703F8FEF7A9
:10416000E1FFFFF7BBFAFFF7D7FAFFF71BF8FFF7FE
:10417000CBF8FFF7B3F9FFF777F9FFF75FFAFFF72F
:1041800085FA40F28830C2F20000FDF79BFF40F252
:104190001840C2F20000FDF795FF40F2F820C2F28D
:1041A000000000210025FEF7A3FA40F24030C2F2E1
:1041B00000000021FEF79CFA40F2D030C2F200006D
:1041C0000021FEF795FA40F2A8449FED258A40F2BF
:1041D000F000C2F20004C2F20000022122460023D5
:1041E000B0EE480A0095FFF707FD40F24810C2F212
:1041F0000000012122460123B0EE480A0095012665
:10420000FFF7FAFC40F2A010C2F2000003212246A0
:104210000023B0EE480A0095FFF7EEFC40F2F810DC
:10422000C2F20000042122460123B0EE480A0096A3
:10423000FFF7E2FC00F016F84120FFF735FFFFF72B
:10424000CBFBFFF7C5FCFFF7ABFB38B10120FCF758
:10425000EBFEFFF7A5FB0028F8D100BFFEE700BF8B
:104260002DB29D3DB0B5FFF743FF40F2A40540F6E7
:104270001D33C2F200057DA2C0F6000300212860B4
:10428000FFF740FF296840F67533686179A2C0F6F0
:10429000000308460121FFF735FF296844F6A352C1
:1042A00040F6C543A861C0F60002C0F60003084608
:1042B0000221FFF727FF296844F6945240F6515334
:1042C000E861C0F60002C0F6000308460321FFF7CC
:1042D00019FF296840F25973286268A2C0F60003EA
:1042E00008460421FFF70EFF296840F63113686283
:1042F00066A2C0F6000308460521FFF703FF296800
:1043000040F64153A86264A2C0F6000308460621A5
:10431000FFF7F8FE296840F6C953E86263A2C0F6C9
:10432000000308460721FFF7EDFE296840F2ED7310
:10433000286362A2C0F6000308460821FFF7E2FEE8
:10434000296840F6D513686360A2C0F600030846EA
:104350000921FFF7D7FE296840F64953A8635EA2FA
:10436000C0F6000308460A21FFF7CCFE296840F694
:104370004163E8635DA2C0F6000308460B21FFF726
:10438000C1FE296840F6A10328645CA2C0F60003C0
:1043900008460C21FFF7B6FE296840F679236864C9
:1043A0005AA2C0F6000308460D21FFF7ABFED5E97F
:1043B000052140F61544C0F60004A86410462246C4
:1043C000FFF784FED5E9060140F62942C0F6000257
:1043D000FFF77CFED5E907012246FFF777FED5E916
:1043E00008012246FFF772FED5E909012246FFF7D0
:1043F0006DFEE969A86A40F64942C0F60002FFF77F
:1044000065FEA869E96A40F67142C0F60002FFF74E
:104410005DFED5E90B012246FFF758FED5E90C01F8
:104420002246FFF753FED5E90D012246FFF74EFE67
:10443000A869E96B40F69942C0F60002FFF746FE14
:10444000D5E90F012246FFF741FED5E910012246CA
:10445000FFF73CFED5E911012246FFF737FE286839
:104460006969BDE8B040FFF76FBE00BF426567698C
:104470006E00000043617272794100004261636B1B
:104480005F626567696E4131000000004261636BE5
:104490005F656E644131000044656C6976657279D0
:1044A0005F626567696E41320000000044656C69B7
:1044B000766572795F656E64413200004261636BBC
:1044C0005F626567696E4132000000004261636BA4
:1044D0005F656E644132000044656C69766572798F
:1044E0005F626567696E41330000000044656C6976
:1044F000766572795F656E64413300004261636B7B
:104500005F626567696E4133000000004261636B62
:104510005F656E64413300002DE9F0412DED048BA1
:10452000B0EE409A9FED420A044629EE000A10EED2
:10453000100AB0EE608A00F0A3FB0546E06B8846E7
:1045400000F09EFB9FED360B53EC102B00F09AFA17
:1045500006460F462846414632463B4600F0DAF80A
:1045600000F032FA0546608718EE100A00F088FB6A
:1045700032463B4600F0CEF89FED2B0B53EC102B50
:1045800000F080FA00F050FA94F83810B5F1FF3FCF
:1045900002DDAAB206E000BFB1FA81F16D4249091D
:1045A000AAB265872368264606F8413FB17000210C
:1045B0007171010EB171010CF171010A70724FF449
:1045C0008070120AFD23317270816B2156F80D0C38
:1045D0007370F270317331460D224FF47A73357176
:1045E000FEF7AAF90120FCF71FFD16F8010C78B1BF
:1045F0004FF60071C6F66631606BC4F84110314663
:1046000004224FF47A73FEF797F90120FCF70CFDB2
:1046100084ED099A84ED0A8ABDEC048BBDE8F08133
:104620001F85EB51B81E0940000000000000A940A2
:104630000000704200000000F0B581B0054600683F
:104640002C4604F8410F9FED321AA4F11D0080EDB5
:10465000000A20EE010A10EE100A00F011FB0646D7
:1046600054F8050C0F4600F00BFB9FED270B53ECA5
:10467000102B00F007FA02460B463046394600F090
:1046800049F800F0A1F901B280EAE13714F8092CE9
:10469000A7EBE13124F8070C00284FEA1120B2FA09
:1046A00082F3D8BF5A09E0704FF48070F62321716D
:1046B000A4F805006B2154F80D0C6370A270E17131
:1046C000214608224FF47A73FEF736F90120FCF7F1
:1046D000ABFC14F8010C98B14FF60071C6F66631C8
:1046E000686BC5F84110214604224FF47A73FEF737
:1046F00023F9012001B0BDE8F040FCF795BC00BFF4
:1047000001B0F0BD00BF00BF1F85EB51B81E0940CE
:10471000000070422DE9C04130B4DFF8A4C23CEA89
:10472000111418BF3CEA131400F0ED801CEA1114B8
:1047300081EA030544EAD57418BF1CEA131500F09A
:10474000C880A4EB050404F17F7404F500344FF035
:10475000004545EAC12145EAC32341EA505143EAF5
:1047600052534FEAC0204FEAC222994208BF9042FA
:1047700000F09D804FEA13650FF24416765D4FEA14
:10478000134506FB05F7C7F1807706FB07F74FEAED
:10479000D737A7FB03687642A7FB06CEC8F580385B
:1047A00038BFA8F1010807FB08E6A6FB028C4FF012
:1047B000000EE6FB03CEDCF1000CCEF1004E38BF5C
:1047C000AEF1010EA6FB0C584FF00007E6FB0E877A
:1047D000A1FB08C6A0FB07CE16EB0E064FF00005A6
:1047E00045F10005E1FB076515F1E04E7EBFA4F53C
:1047F00080345FEA46066D4116F1800745F10005F9
:104800004FEA172747EA05674FEA15254FEA06667C
:10481000A6F1DE46B6F1805F20D9384605EBC471BB
:1048200024F0010C01EB0C11BCF1FE6F02D8F0BCBE
:10483000BDE8008124425CBF01F5801E9EEAC47F72
:1048400002D4F0BCBDE80081244200F13980A1F11E
:10485000C041F0BCBDE8004100F00CBA4FEAD020E6
:1048600040EA41504FEAD1214FEAD22242EA435274
:104870004FEAD323A7FB028607FB036605FB02660C
:104880001EEA0E0F58BFA6EB0056B6EB00564FEAD5
:10489000520E4EEAC37E18EB0E0E56EB530EBCD5ED
:1048A00018EB02085E417F1C55F10005B5E74FF497
:1048B00080154FF000074FF000064FF00008ACE7FE
:1048C00001F1C04101F000414FF00000F0BCBDE833
:1048D00000810CEA131511EA0C1F00D00CE013EA5A
:1048E0000C1F00F026804FF0000081EA030101F068
:1048F0000041F0BCBDE80081F0BCBDE8004181EAA8
:10490000030100F0B7B9F0BCBDE8004170B500F09C
:1049100063F900BF097EFC3E00F007B84FF00000CD
:1049200081EA030101F00041704781EA030100F0D0
:10493000A1B9F0BCBDE8004122494FF0000070472A
:10494000FFFDFBF9F7F5F4F2F0EEEDEBE9E8E6E454
:10495000E3E1E0DEDDDBDAD8D7D5D4D3D1D0CFCDDB
:10496000CCCBCAC8C7C6C5C4C2C1C0BFBEBDBCBB14
:10497000BAB9B8B7B6B5B4B3B2B1B0AFAEADACAB0F
:10498000AAA9A8A8A7A6A5A4A3A3A2A1A09F9F9EE9
:104990009D9C9C9B9A99999897979695959493939B
:1049A000929191908F8F8E8E8D8C8C8B8B8A898932
:1049B00088888787868585848483838282818180B5
:1049C0000000FF070000F87F4FEA41034FEA53530E
:1049D000A3F58063D3F11E03C8BFD3F1210C0CDD16
:1049E0004FF0004242EAC12242EA505232FA03FC3E
:1049F0008CEAE17CACEBE1707047102BC4BF002067
:104A0000704703F5787CBCF1FF3F04D06FF00042A3
:104A100082EA2100704770B500F0DEF849922480E8
:104A200000207047F2E700004FEA1153A3F58063BE
:104A3000D3F11E03A8BFD3F1200C08DB4FF00042D6
:104A400042EAC12252EA505232FA03F07047094258
:104A50000BD4102BC4BF0020704703F5787CBCF149
:104A6000FF3F05D04FF0FF3070474FF00000704718
:104A700070B500F0B1F800BF499224800020704763
:104A8000F0E7000070B5DFF848C11CEA111E1EBF38
:104A90001CEA13159EEA0C0F95EA0C0F00F06F80CC
:104AA00081EA03044EEAD47EAE4421EA4C1123EAA3
:104AB0004C1341F4801143F48013AEF17F7EA1FBCF
:104AC000024CA0FB0365361955EB0C05A1FB034C0A
:104AD0004CF10003A0FB021C16EB0C06654153F1E0
:104AE0000003094218BF46F0010613F4007F0BD102
:104AF0004FEA03314FEA053041EA155140EA1650BA
:104B000034036FF003020AE04FEAC3214FEAC520E5
:104B100041EA555140EA5650F4026FF0020202EBAE
:104B20002E4201EB025585EACE710AD05FEA440CB1
:104B300018BF24F0004450F1000041F1000120EAC8
:104B4000D47040F2FE7C624500D270BDA84214BF12
:104B50004FF080444FF04044002E08BF0024BEF1C7
:104B6000806FA8BFA1F1C041BDE8704080F2828093
:104B700001F1C04101F000414FF0000070470CEA24
:104B800013159EEA0C0F18BF95EA0C0F06D081EAA8
:104B9000030E4FF000000EF0004170BD00F01CF855
:104BA0008900013E00F007B800F009B84FEA430C55
:104BB0005FEA5C5C08D081EA030100F05BB84FEA71
:104BC000410C5FEA5C5CF6D102494FF0000070478F
:104BD0000000FF070000F87F0EF1020E2EF0030E1A
:104BE0005EF8046B364205D4012A43EB030515F544
:104BF000001F12D8012841EB010C1CF5001F0CD836
:104C00000ED14FEAD17C0CEB4C0C0CF1020C15F5DB
:104C1000001F08BF4CEBD37C04E04FF0080C01E010
:104C20004FEAD37C0CEB4C0526FA05F606F0070696
:104C3000B6F1040C06D20EEB860CBDE870404CF0C9
:104C4000010C6047DFE80CF0090B02024FF0004155
:104C5000A1F500214FF0000070BD19461046012853
:104C600051EB010418BFD4F5001484BF002001F0FB
:104C7000004170BD0808A0F500114FEA31017047EE
:104C800043004FEAD30C4FEA3C0C43401FBF4007A0
:104C90000CF1605113F0FE4F70471CF0006F03D110
:104CA0000CF00041002070470CF0004343EA5070C4
:104CB00040EACC0010B500F00EF800BF00000092F2
:104CC0004FEA0001FFF7D6BF4FF00041A1F50021E8
:104CD0004FF0000070470EF1020E2EF0030E5EF84A
:104CE000044B244204D44FEA4102B2F17F4F11D861
:104CF0004FEA4003B3F17F4F0CD80ED14FEAD07C7E
:104D00000CEB4C0C0CF1020CB2F17F4F08BF4CEBDA
:104D1000D17C04E04FF0080C01E04FEAD17C0CEBB1
:104D20004C0324FA03F404F00704B4F1040C06D293
:104D30000EEB840CBDE810404CF0010C6047DFE83E
:104D40000CF0070802024FF00040A0F5800010BDF3
:104D50000846420018BFD2F1807288BF00F00040C0
:104D600010BDF1EE100A4FF6FF71C0F2C03120EA1B
:104D7000010040F04070E1EE100A704700000000B2
:104D800000000000010203040607080900000000FB
:104D90000102030444656C69766572795F656E642F
:104DA00041310044656C69766572795F6265676957
:104DB0006E413100D84D00080000002010000000B6
:104DC000EC010008E84D000810000020300B000046
:104DD0000C020008000000000100000010000000AC
:084DE000190000000024F4009A
:040000050800018965
:00000001FF
