:020000040800F2
:10000000A00A0020550200081D280008891C0008CD
:100010001928000801040008CD2C00080000000089
:100020000000000000000000000000002929000876
:1000300005040008000000002128000859290008D4
:100040006F0200086F0200086F0200086F020008CC
:100050006F0200086F0200086F0200086F020008BC
:100060006F0200086F0200086F0200086F020008AC
:100070006F0200086F0200086F0200086F0200089C
:100080006F0200086F0200086F0200086F0200088C
:100090006F0200086F0200086F0200086F0200087C
:1000A0006F0200086F0200086F0200086F0200086C
:1000B0006F0200086F0200081D2A00086F02000886
:1000C0006F0200086F0200086F0200086F0200084C
:1000D0006F0200086F0200086F0200086F0200083C
:1000E0006F0200086F0200086F0200086F0200082C
:1000F0006F0200086F0200086F0200086F0200081C
:100100006F0200086F0200086F0200086F0200080B
:100110006F0200086F0200086F0200086F020008FB
:100120006F0200086F0200086F0200086F020008EB
:100130006F0200086F0200086F0200086F020008DB
:100140006F0200086F0200086F0200086F020008CB
:100150006F0200086F0200086F0200086F020008BB
:100160006F0200086F0200086F0200086F020008AB
:100170006F0200086F0200086F0200080000000014
:100180006F0200086F02000800F002F800F052F859
:1001900014A696E8000CB244B344DA4501D100F04D
:1001A00049F8BAE80F000FA696E83000A5EB040561
:1001B00004EB0607AAEB0704A7F101074FEA1515A0
:1001C0004FEA3414A4F10104AC4201D300F032F838
:1001D00013F0010F18BFFB1A43F0010300F001F800
:1001E000DBE71847502C0000702C0000103A24BFA9
:1001F00078C878C1FAD8520724BF30C830C144BF8C
:1002000004680C6070470000704700000023002461
:1002100000250026103A28BF78C1FBD8520728BF16
:1002200030C148BF0B6070471FB502F0E9FD1FBD2C
:1002300010B510BD00F0AFF81146FFF7F5FF02F062
:1002400059FD00F0CDF803B4FFF7F2FF03BC00F056
:10025000D1F800000948804709480047FEE7FEE75B
:10026000FEE7FEE7FEE7FEE7FEE7FEE7FEE7FEE766
:1002700004480549054A064B70470000092A000852
:1002800089010008A0040020A00A0020A006002088
:10029000A006002053EA020C00F069802DE9F04B23
:1002A0004FF00006002B1FBFB3FA83F503FA05F4E5
:1002B00024FA05F65E4012BF1643B2FA82F502FA3E
:1002C00005F4C5F120051EBF22FA05FC44EA0C0422
:1002D000203556EA044C4FEA144418BF641C4FF012
:1002E00000084FF00009904271EB030C39D300294C
:1002F00019BFB1FA81F701FA07F6B0FA80F700FAF0
:1003000007F6C7F120071EBF20FA07FC46EA0C06D5
:100310002037B6FBF4FCA7EB0507103F07F01F0BD7
:10032000CBF120062CFA06F60CFA0BFB44BFB346C1
:100330000026202FA4BF5E464FF0000B5BEA060CA0
:1003400008BF4FF0010B19EB0B0948EB0608ABFB9C
:10035000027C06FB02CC0BFB03CCC01B71EB0C0137
:10036000C1E70B46024641464846BDE8F08B13B54F
:10037000084318BF4FF0FF300146AFF30080BDE8DF
:100380001C40704770477047704700000048704736
:100390001000002070477546FFF7F8FFAE460500D5
:1003A0006946534620F00700854618B020B5FFF790
:1003B0005FFFBDE820404FF000064FF000074FF010
:1003C00000084FF0000BAC46ACE8C009ACE8C0092F
:1003D000ACE8C009ACE8C00921F007018D467047C0
:1003E00010B50446AFF300802046BDE81040FFF78B
:1003F0002ABF000001491820ABBEFEE7260002001C
:10040000FEE700007047000072B600BFFEE7000084
:10041000B0B5044600F0E6F8054640F20000C2F22E
:1004200000000078611C18BF044400BF00F0DAF837
:10043000401BA042FAD3B0BD2DE9F04F82B000F1CD
:100440003E4707F1FF77860546EA972741F60046C3
:10045000C4F20206082243F6004EB04208BF07224B
:10046000C4F2010E072F38BF3A46002600274FF08E
:100470000008009209E000BF08F101080237B8F156
:10048000100F06F1040600F0A3800D68012202FAA5
:1004900008F415EA0409EFD0D1F804B003220BF0F8
:1004A000030CACF10105BA40012D6FEA020A0FD826
:1004B0008268CD6802EA0A02BD402A43826042682F
:1004C000A243CBF3001404FA08F42243426005E08F
:1004D000BCF1030F02D14FF0030C1EE0C2688C6820
:1004E00002EA0A02BC402243BCF1020FC26014D1EE
:1004F0006FF0030202EA58020244D2F820C006F06C
:100500001C040F230D69A3402CEA0303A5402B43D1
:100510001362D1F804B00BF0030C02680CFA07F375
:1005200002EA0A021A431BF4403F0260A4D00022F0
:1005300043F644030192C4F202031A684FF6084CD2
:1005400042F480421A601A68CFF6FF7C02F48042BF
:100550000192019A28F00302724452F80C3006F01E
:100560000C050F24AC40A343009C04FA05F52B4373
:1005700042F80C30DEF808204B6842EA090543F6E1
:100580000C4CDC0258BF22EA0905CEF80850C4F230
:10059000010CDCF800209C0242EA090558BF22EA5F
:1005A0000905CCF80050DEF804209C0342EA090556
:1005B00058BF22EA0905CEF80450DEF80020DB031C
:1005C00042EA090558BF22EA0905CEF8005053E770
:1005D00002B0BDE8F08F0000002A08BF0904816165
:1005E0007047000040F29840C2F200000068704777
:1005F000002804BF01207047F0B581B0044690F890
:100600003D0028B9002084F83C00204600F0CEF9D7
:10061000242084F83D002068016821F00101016078
:10062000016841F400410160016821F4004101606A
:1006300000F0AEFB636848F2A16CC0F2010C40F61A
:100640000011C0F23D0163453CBF48F28041C0F259
:100650001E01884202D2012001B0F0BD4DF6836137
:10066000C4F21B31A0FB01122168970CD1F804E001
:100670004FF496762EF03F0545EA92454D6077435C
:1006800048F638160D6AC0F24106A7FB067625F03B
:100690003F07634538BF960C721C3A430A62CA6929
:1006A00048F2A0664CF6FF77C0F20106B34222EA98
:1006B00007020BD801385B00B0FBF3F001306FF399
:1006C0001F30042898BF04201BE000BFA768013832
:1006D00057B119277B43B0FBF3F001306FF31F30A4
:1006E00070B100F5804007E003EB4303B0FBF3F08B
:1006F00001306FF31F3018B100F5004001E000BF7A
:1007000001201043C8610868D4E9072320F0C00025
:10071000104318430860886848F2FF3204F10C0760
:1007200090438CCF18431043A6698860C86820F0B6
:10073000FF0038433043C860086840F0010008609B
:1007400000202021206484F83D10206384F83E00BE
:1007500001B0F0BD2DE9F04784B0994616460F462A
:100760000446FFF73FFF94F83D10202927D10546A6
:10077000206800BF816989071CD5FFF733FF411B43
:1007800020681A29F6D381698907F3D50020202132
:10079000206384F83D1084F83E00206C04F13C0A8C
:1007A00040F020002064022000218AF8001004B0EC
:1007B000BDE8F087A2461AF83C1F012904D10220A7
:1007C00004B0BDE8F08700BF01228AF8002003686A
:1007D000DDE90D180C9ADB0703D1036843F0010330
:1007E0000360036823F400630360222084F83D0063
:1007F000402084F83E000020206462626185608DA4
:10080000394620850020CFF6FF70E0622046324650
:100810004B46CDE9008501F039FA18B1012004B04A
:10082000BDE8F087208DA8B102282BD0012835D152
:1008300021680A6822F480620A60002203924A69F1
:1008400003928A690392039A0A6842F400720A606A
:100850002CE000BF0020039020684169039181696A
:1008600003910399016841F400710160202084F82C
:100870003D00002084F83E0000218AF8001004B0FA
:10088000BDE8F08721680A6822F480620A600A687D
:1008900042F400620A600022039202E00021039108
:1008A00021684A6903928969039103990427C0F278
:1008B00001070CE010690870606A218D01306062E8
:1008C000481E2085618D013961850104CED080B23A
:1008D00003280FD802284AD001282DD120464146AE
:1008E0002A4601F0AFFB002898D12068616A0069B0
:1008F000E1E700BF204641462A4601F0A3FB00285D
:100900007FF48CAF2068616A00690870606A2268B1
:10091000411C208D616201382085638D013B638518
:1009200053695B07D1D580B20328C3D1106820F486
:1009300080601060BEE700BF204639460022434673
:10094000009501F02DFA00287FF468AF2068616AF5
:10095000026822F48062026000690870606A218D7A
:1009600001306062481E2085608D01386085204618
:10097000394600224346009501F012FA00287FF420
:100980004DAF2068616A026842F40072026000693B
:100990000870606A2268411C6162218D01392185DD
:1009A000618D013961851169417085E72DE9F04755
:1009B00086B0006845F60041C4F200010026884276
:1009C000CDE90466CDE9026601962FD045F6000117
:1009D000C4F2000188426ED1002543F63004009530
:1009E000C4F20204206801A940F0020020602068DF
:1009F00000F00200009000984FF440600190122037
:100A0000CDE9020503200490042005900020C4F2E3
:100A1000020000F58060FFF70FFD0095206940F4AB
:100A200080002061206900F4800042E043F6300736
:100A30000096C4F202073868002440F004003860D1
:100A40003868C4F2020400F0040000900098009698
:100A5000386801AD40F00100386038684FF0120886
:100A600000F00100009000984FF4007001904FF0EA
:100A700003094FF0040A04F500602946CDE9028617
:100A8000CDF81090CDF814A0FFF7D6FC4FF480708D
:100A9000CDE9010803A880E8400620462946FFF773
:100AA000CBFC0096386940F400003861386900F4E6
:100AB00000000090009806B0BDE8F08740F200000A
:100AC00040F29841C2F20000C2F2000100780A68C8
:100AD000104408607047000080B543F60040C4F23F
:100AE0000200016841F400710160016841F4806115
:100AF0000160016841F480710160032000F086F814
:100B00000F2000F005F800F027F8002080BD00005D
:100B100070B540F20006C2F2000640F20C013278D5
:100B2000C2F200014FF47A730968B3FBF2F2044693
:100B3000B1FBF2F1084600F061FB0F2C4FF001050C
:100B400008D838B94FF0FF3021460022002500F0C8
:100B500031F87460284670BD82B0002043F6400131
:100B60000190C4F202014A6842F480424A604A6835
:100B700002F480420192019A0090086840F080508F
:100B80000860086800F080500090009802B070473C
:100B9000002848BF704700F01F01012202FA01F14E
:100BA0001C2202EAD0004EF20012CEF20002815066
:100BB0007047000010B54EF60C5CCEF2000CDCF86D
:100BC0000030C3F3022E8EF00704042C28BF042447
:100BD000BEF103034FF0FF3E0EFA04F438BF0023CA
:100BE000A14399400EFA03F39A43114300F00F0218
:100BF00000F160430901043A03F5644362440028AC
:100C000048BF02F10C03197010BD00004EF60C51E4
:100C1000CEF200010A684FF6FF031A4060F30A2281
:100C200042F0806040F0FD7008607047002804BF0B
:100C3000012070472DE9F04143F60808C4F202088C
:100C40000446D8F8F8030D4600F00700884207D2A2
:100C500088F8F853D8F8F80300F00700A84277D1D5
:100C60002068810717D5410705D5D8F8001041F451
:100C7000E051C8F80010010705D5D8F8001041F47C
:100C80006041C8F80010D8F80010A26821F0F00107
:100C90001143C8F80010C00740D1D8F8F80300F09D
:100CA0000700A84207D988F8F853D8F8F80300F0ED
:100CB0000700A8424CD12068410707D5D8F800109A
:100CC000E26821F4E0511143C8F80010000708D58C
:100CD000D8F80000216920F4604040EAC100C8F85B
:100CE000000000F07DF8D8F8001042F61A62C1F357
:100CF0000311C0F60002515C40F20C0220FA01F12F
:100D000040F20400C2F200000068C2F2000211606A
:100D1000FFF7FEFE0020BDE8F08100BF6068811E85
:100D2000022907D258F8081C89015CBF0120BDE8E0
:100D3000F08111E0012807D158F8081C89035CBF35
:100D40000120BDE8F08107E058F8081C890703D4AA
:100D50000120BDE8F08100BFD8F8001021F00301A8
:100D60000843C8F80000FFF73DFC064641F288370B
:100D7000D8F80000616800F00C00B0EB810F8CD057
:100D8000FFF730FC801BB842F2D90320BDE8F081A8
:100D900040F20C0043F60801C2F20000C4F2020166
:100DA0000068096842F62A62C1F38221C0F6000297
:100DB000515CC8407047000040F20C0043F6080147
:100DC000C2F20000C4F202010068096842F62A6219
:100DD000C1F34231C0F60002515CC84070470000C8
:100DE00010B543F60404C4F20204606800F00C007D
:100DF00008280BD0042819BF42F20040C0F2F400CA
:100E000047F64000C0F27D1010BD00BF2068216889
:100E10002368490247F64001C0F27D1100F03F020D
:100E2000C3F388105CBF42F20041C0F2F401A1FBA1
:100E300000010023FFF72EFA21680222C1F30141CD
:100E400002EB4101B0FBF1F010BD0000002804BF2F
:100E5000012070472DE9F04182B00446007843F646
:100E60000006C007C4F202060CD0B06800F00C0007
:100E7000042840F081803068800303D56068002832
:100E800000F06A81207880071BD5B06810F00C0F45
:100E900009D0B06800F00C00082840F08780706826
:100EA000400200F183803068800703D5E0680128A4
:100EB00040F052813068216920F0F80040EAC1001A
:100EC00030602078000713D4207840072AD4A56921
:100ED000002D00F03C81B06800F00C00082840F0C4
:100EE000A180012D40F01081012002B0BDE8F08109
:100EF0006069002840F20000C4F2472000F07E80C4
:100F00000121C0F8801EFFF76DFB0546706F80075A
:100F1000DAD4FFF767FB401B0228F7D9032002B0A1
:100F2000BDE8F081306C5FEAC0080AD4002001906F
:100F3000306C40F080503064306C00F08050019094
:100F4000019847F20007C4F200073868C00547D48B
:100F5000386840F480703860FFF744FB054600BFF6
:100F60003868C0053CD4FFF73DFB401B0228F7D989
:100F7000032002B0BDE8F081B06800F00C00082842
:100F800003D1706840023FF576AF6068B0F5803FEE
:100F900007D0B0F5A02F40F09B80306840F480204F
:100FA0003060306840F4803030609BE0E0680028BA
:100FB0005CD00020C4F2472001210160FFF712FB42
:100FC000054600BF306880073FF574AFFFF70AFBA6
:100FD000401B0228F6D9032002B0BDE8F08100BF13
:100FE000A068012805D0052854D1306F40F00400D6
:100FF0003067306F40F00100306755E00021C0F8E5
:10100000801EFFF7EFFA0546706F80077FF55CAF33
:10101000FFF7E8FA401B0228F6D9032002B0BDE82A
:10102000F08100BF0027C4F2472700203866FFF791
:10103000D9FA022D05460DD13068800140F190802B
:10104000FFF7D0FA401B02284FF00300F4D902B09A
:10105000BDE8F0813068800179D5FFF7C3FA401B05
:1010600002284FF00300F5D9F1E700BF0020C4F2D9
:10107000472000210160FFF7B5FA05463068800778
:101080007FF51FAFFFF7AEFA401B02284FF00300B9
:10109000F4D9DCE7316F002821F001013167316FAD
:1010A00021F0040131677DD0FFF79CFA054641F23B
:1010B000883700BF306F800700F18680FFF792FA13
:1010C000401BB842F6D9032002B0BDE8F08100BF52
:1010D0003168002821F480313160316821F48021A9
:1010E00031607BD0FFF77EFA054600BF3068800391
:1010F0003FF5C8AEFFF776FA401B6428F6D9032007
:1011000002B0BDE8F08100BF7068E16900F48002C0
:101110008A4221D1216A00F03F028A421CD147F65F
:10112000C071626A0140B1EB821F15D1A16A4FF60E
:10113000FF73C903994300F44032A1F580318A421C
:101140000AD1E16A00F07060B0EB016F04D10020B9
:1011500002B0BDE8F08100BF012002B0BDE8F0811F
:1011600004F11C052FCD084340EA8210D9034FF645
:10117000FF729143A1F5803140EA05600843706039
:1011800001203866FFF72EFA044600BF3068800160
:10119000DDD4FFF727FA001B02284FF00300F5D932
:1011A00055E700BFFFF71EFA054641F2883700BF3A
:1011B000306F800708D5FFF715FA401BB8424FF093
:1011C0000300F5D943E700BFB8F1000F3FF57FAE4C
:1011D000306C20F08050306479E600BFFFF702FAEF
:1011E000054600BF306880037FF54CAEFFF7FAF983
:1011F000401B64284FF00300F4D928E7411E00206B
:10120000B0EB116F1CBF012070474EF21002CEF2FE
:10121000000251604EF62351CEF20001F0230B7014
:101220000721906011607047704700007047000010
:1012300090F83C20012A4FF0020254D010B580F8FB
:101240003D200268D2F804E0D2F808C00C682EF005
:101250007003234341F2FF74C4F20004A2425360BE
:101260000EDC40F2FF73C4F200039A4216DCB2F1C6
:10127000804F2BD040F20043C4F2000324E000BFB3
:1012800040F2FF33C4F201039A4213DC41F600033B
:10129000C4F200039A4219D0002313E040F6000381
:1012A000C4F200039A4211D040F60043C4F2000396
:1012B0000AE000BF44F20003C4F201039A4205D0E1
:1012C00040F20043C4F201039A4204D149682CF071
:1012D0008003194391600121002280F83D1080F8BD
:1012E0003C20BDE81040104670470000002804BFB5
:1012F0000120704710B5044690F83D0028B9002041
:1013000084F83C00204600F01FF8022084F83D00DD
:101310002068211D01F0C0FB012084F8460084F8FC
:101320003E0084F83F0084F8400084F8410084F8CF
:10133000420084F8430084F8440084F8450084F8AF
:101340003D00002010BD000080B582B0006800F1B3
:101350004041800540EA9120042858D8DFE800F099
:101360000412203A480000BF0020019043F64000DC
:10137000C4F20200016841F001010160006800F060
:10138000010042E00020019043F64000C4F2020058
:10139000016841F002010160006800F0020034E0E1
:1013A0000020019043F64000C4F2020001680022D0
:1013B00041F0040101600068002100F00400019088
:1013C00001981E20FFF7F6FB1E2002B0BDE880400A
:1013D000FFF7DEBB0020019043F64000C4F202009C
:1013E000016841F008010160006800F008000CE0AD
:1013F0000020019043F64000C4F20200016841F071
:1014000010010160006800F010000190019802B026
:1014100080BD000090F83D1001291CBF01207047DD
:10142000022180F83D10006841F2FF72C168C4F2E9
:101430000002904241F00101C1600DDC40F2FF71F9
:10144000C4F20001884215DCB0F1804F2AD040F28E
:101450000041C4F2000123E040F2FF31C4F2010177
:10146000884213DC41F60001C4F20001884219D021
:10147000002113E040F60001C4F20001884211D0BF
:1014800040F60041C4F200010AE000BF44F200014E
:10149000C4F20101884205D040F20041C4F20101CA
:1014A000884206D1816801F00701062904BF0020A7
:1014B0007047016841F001010160002070470000A1
:1014C00090F83C20012A4FF0020200F0C58080B560
:1014D00080F83D20D0F800C04FF67772DCF8083075
:1014E00023EA0202CCF808200B684F2B28DC1F2BC4
:1014F00044DD202B45D0302B43D0402B40F0AE8034
:10150000D1F804E0C968DCF82030DCF8202022F0B3
:101510000102CCF82020DCF8182022F0F00242EA88
:10152000011123F00A0242EA0E02CCF81810CCF89E
:101530002020DCF8081041F0470121F0300180E064
:101540006F2B27DDB3F5005F48D0B3F5805F7AD00D
:10155000702B40F08380D1E901E3C968DCF80820F2
:1015600043EA0E0322F47F4243EA01211143CCF8FF
:101570000810DCF8081041F0770162E00BB1102B85
:101580006CD1DCF8081021F07001194341F007011B
:1015900057E000BF502B35D0602B5FD1D1F804E06D
:1015A000C968DCF82030DCF8202022F01002CCF8EA
:1015B0002020DCF8182022F4704242EA013123F0A6
:1015C000A00242EA0E12CCF81810CCF82020DCF869
:1015D000081041F0670121F0100132E0D1E901E388
:1015E000C968DCF8082043EA0E0322F47F4243EA8C
:1015F00001211143CCF80810DCF8081041F48041B7
:101600001FE000BFD1F804E0C968DCF82030DCF846
:10161000202022F00102CCF82020DCF8182022F053
:10162000F00242EA011123F00A0242EA0E02CCF86B
:101630001810CCF82020DCF8081041F0570121F0F8
:101640002001CCF808100022012180F83D10002173
:1016500080F83C10BDE88040104670470122F3E757
:101660007047000070B504460068C5680669B10798
:1016700016D515F0020113D06FF0020101610121AE
:1016800021778069800703D02046FFF7E9FF05E056
:10169000204600F08FF8204600F0D0F90020207797
:1016A000700719D515F0040016D020686FF00401FA
:1016B000016102212177806910F4407F04D0204627
:1016C000FFF7CEFF06E000BF204600F073F820468B
:1016D00000F0B4F900202077300717D515F0080086
:1016E00014D020686FF00801016104212177C069DE
:1016F000800703D02046FFF7B3FF05E0204600F047
:1017000059F8204600F09AF900202077F00619D504
:1017100015F0100016D020686FF01001016108214B
:101720002177C06910F4407F04D02046FFF798FF6E
:1017300006E000BF204600F03DF8204600F07EF9AC
:1017400000202077F00718BF15F0010002D1300605
:1017500009D412E020686FF001010161204600F019
:10176000FFF9300609D515F0800006D020686FF02B
:10177000800101612046FFF757FD700609D515F07D
:10178000400006D020686FF040010161204600F063
:10179000E9F9B00658BF70BD15F0200008D02168E7
:1017A0006FF0200220460A61BDE87040FFF73EBDA1
:1017B00070BD00007047000090F83C30012B04BF62
:1017C000022070474FEAB202032A00F201812DE99C
:1017D000F043DFE802F0033F7FBF00BF036840F241
:1017E00000461C6A1A6A24F0020422F001021A62FE
:1017F0001A46D3F804C052F818EF8F6843F4806596
:10180000C4F20106B54244EA070405D1CF6824F0CA
:101810000C0427F004073C430F68B54206D1D1E918
:1018200005582CF440762E4346EA080C2EF0730639
:101830003743C3F804C09F614F6809695F631C6246
:101840009F6947F008079F619F6927F004079F6120
:10185000B2E000BF036840F200481C6A1A6A24F034
:10186000200422F010021A621A46D3F804C052F87B
:1018700018EF8F6843F48065C4F20108454544EAD7
:10188000071407D1CF686FF0400624F0C00406EAC1
:1018900007163443D1F80090454506D1D1E90556E5
:1018A0002CF440672E4347EA860C2EF4E64747EABD
:1018B0000927C3F804C09F614F6809699F631C62D0
:1018C0009F6947F400679F619F6927F480679F6164
:1018D00071E000BF036840F200481C6A1A6A24F4F1
:1018E000007422F480721A621A46D3F804C052F8C7
:1018F0001CEF8F6843F48065C4F20108454544EA53
:10190000072408D1CF6840F2FF463F0224F4406428
:1019100027EA06063443D1F80090454506D1D1E9BF
:1019200005562CF440572E4347EA061C2EF0730749
:1019300047EA0907C3F804C0DF614F680969DF633C
:101940001C62DF6947F00807DF61DF6927F00407E1
:10195000DF6131E0036840F20045D3F820C01A6A25
:1019600043F4806722F480521A621A465C6852F887
:101970001CEFD1F800808E68C4F20105AF4204D19B
:101980004D6924F4804444EA85142CF4005747EA56
:1019900006372EF4E64646EA08265C60DE614E68AD
:1019A00009691E641F62DF6947F40067DF61DF6950
:1019B00027F48067DF610902136819431160002171
:1019C000BDE8F043002280F83C200846704700BF85
:1019D0000121002280F83C2008467047002804BFFF
:1019E0000120704710B5044690F83D0028B900204A
:1019F00084F83C00204600F01FF8022084F83D00E7
:101A00002068211D01F048F8012084F8460084F880
:101A10003E0084F83F0084F8400084F8410084F8D8
:101A2000420084F8430084F8440084F8450084F8B8
:101A30003D00002010BD000070470000704700000E
:101A400041B1082910D0042914BF00F1410200F16E
:101A50003F020BE090F83E20012A1CBF0120704796
:101A6000022280F83E2013E000F140021278012AA1
:101A70001CBF012070470222082907D0042914BF87
:101A800080F8412080F83F2002E000BF80F840202D
:101A9000006801F01F010122036A02FA01F123EA42
:101AA00001020262026A114341F2FF72C4F20002B3
:101AB0009042016210DC40F2FF71C4F200018842E2
:101AC0001CDCB0F1804F3FD040F20041C4F2000175
:101AD000884239D03DE000BF40F2FF31C4F201013D
:101AE000884219DC41F60001C4F2000188422BD083
:101AF0000021C4F2010188421AD02AE040F6000118
:101B0000C4F2000188421FD040F60041C4F2000137
:101B1000884219D01DE000BF44F20001C4F2010167
:101B2000884211D040F20041C4F20101884210D134
:101B3000416C40F2004340F48062C4F2010341F47E
:101B400000419A42416404D1816801F007010629ED
:101B500003D0016841F001010160002070470000DE
:101B60007047000070470000002804BF0120704744
:101B700010B5044690F8410028B9002084F84000D0
:101B8000204600F021F8242084F841002068C16834
:101B900021F40051C160204601F020F8206801695D
:101BA00021F490410161416921F02A014161C1683C
:101BB00041F40051C16000202021606484F841108C
:101BC00084F84210606310BD80B586B0006844F2AE
:101BD0000042C4F2000200219042CDE90411CDE997
:101BE0000211019124D041F20001C4F201018842A6
:101BF00048D1002043F630010090C4F202014A6946
:101C000042F010024A614A6902F010020092009A02
:101C10000090086840F00100086008684FF4C06157
:101C200000F00100009000980020C4F202001DE0C6
:101C300043F630000091C4F20200026942F400321F
:101C40000261026902F400320092009A0091016878
:101C500041F0080101600068602100F00800009078
:101C600000980020C4F2020000F5406001910221BA
:101C7000029100210391032104910721059101A9FB
:101C8000FEF7DAFB06B080BDFEE700002DE9F04765
:101C900082B0044600689A460B9D0A9E03689146EE
:101CA00043F48062026002680F4642F48071016072
:101CB00020464FF0011100223346009500F070F8E5
:101CC00050B120680068C00544BF4FF40070206424
:101CD000032002B0BDE8F08740F202082068C0F29D
:101CE000010807F0FE0707612046414632462B46B1
:101CF00000F03CF920B1012002B0BDE8F08700BF40
:101D00000020019020682A4641690191806931468E
:101D100001900198204600F0DDF9B0B92068BAF1D1
:101D2000010F09D04FEA19210161204631462A46A8
:101D300000F0D0F948B920685FFA89F101612046C6
:101D400031462A4600F0C6F960B1206C0428D2D191
:101D50002068016841F400710160012002B0BDE813
:101D6000F08700BF206800220168334641F480718B
:101D7000016020464FF00111009500F011F8002895
:101D80009FD147F0010C27682046414632462B463A
:101D9000C7F810C002B0BDE8F04700F0E7B8000097
:101DA0002DE9F041054600681E46144601F47F0205
:101DB00001338FB242D0DDF81880B2F5803F40F099
:101DC000878040693840C01BB0FA80F04009A042CB
:101DD00040F0C8804EB924E040693840C01BB0FADA
:101DE00080F04009A04240F0BD80FEF7FBFBA0EB75
:101DF00008012868B142EFD941693940C91BB1FADD
:101E000081F14909A142E7D19BE000BF4069384018
:101E1000C01BB0FA80F04009A0424FF0000040F033
:101E2000A280FEF7DFFB286841693940C91BB1FA7F
:101E300081F14909A142E9D183E000BFB2F5803FB9
:101E400024D100BF41693940C91BB1FA81F1490968
:101E5000A14240F0878041693940C91BB1FA81F144
:101E60004909A14240F07E8041693940C91BB1FA5D
:101E700081F14909A14275D141693940C91BB1FAC3
:101E800081F14909A142DDD06CE000BF8169394090
:101E9000C91BB1FA81F14909A14263D18169394075
:101EA000C91BB1FA81F14909A1425BD1816939406D
:101EB000C91BB1FA81F14909A14253D18169394065
:101EC000C91BB1FA81F14909A142DFD04AE000BF44
:101ED00080693840C01BB0FA80F04009A04241D16F
:101EE00046B923E080693840C01BB0FA80F0400951
:101EF000A04237D1FEF776FBA0EB08012868B1427B
:101F0000F0D981693940C91BB1FA81F14909A1426F
:101F1000E8D116E080693840C01BB0FA80F0400973
:101F2000A0424FF0000018BFBDE8F081FEF75AFB59
:101F3000286881693940C91BB1FA81F14909A14278
:101F4000E8D100202021286385F83D1085F83E0067
:101F5000296C41F02001296485F83C000120BDE88E
:101F6000F08100BF0020BDE8F0810000F0B581B035
:101F7000044600681D4643698FB203EA0701B9426F
:101F800002D1002001B0F0BD4169164601323FD0B8
:101F900049053FD4CEB100BFFEF724FB411B2068AA
:101FA000B14203D941693940B94215D1416939403B
:101FB000B942E6D041694905EED52BE04169394087
:101FC000B942DED04169490524D4FEF70BFB2068F5
:101FD00041693940B942F1D0202023E041693940BC
:101FE000B942CED04169490514D441693940B9425A
:101FF000C7D0416949050DD441693940B942C0D0C3
:102000004169490506D441693940B942B9D04169AD
:102010004905E3D5016841F4007101606FF4806106
:102020004161042000212022216384F83D2084F8AE
:102030003E10226C1043206484F83C10012001B053
:10204000F0BD000070B504460068154650F8143F16
:102050005A063DD40E4629B926E000BF50F8141F99
:10206000490635D40168C90621D4FEF7BBFA411BE5
:102070002068B142F2D941694906EFD400202021FD
:10208000206384F83D1084F83E00206C40F020006E
:1020900018E000BFFEF7A6FA206850F8141F4906A2
:1020A000ECD50168490613D40168C906F2D56FF072
:1020B0001001016000202021206384F83D1084F885
:1020C0003E00206C2064002084F83C00012070BD9C
:1020D000002070BD70B50368044653F8140F000665
:1020E00011D40E46481C29D086BB00BF1868400595
:1020F00027D4FEF777FA236853F8140F000637D574
:1021000018680006F2D5002070BD00BF18680006F0
:10211000F9D41868400514D418680006F3D4186878
:1021200040050ED418680006EDD41868400508D4A0
:10213000186800064FF0000048BF70BD18684005E1
:10214000E4D56FF480601860042012E0154603E0C7
:1021500053F8140F0006D6D418684005F1D4FEF7E2
:1021600041FA401B2368B042F2D958690006EFD407
:10217000202000212022216384F83D2084F83E1095
:10218000226C10432064012084F83C1070BD0000D4
:1021900070B586B0002543F6300005950095C4F271
:1021A0000200016840F6000441F08001016001680E
:1021B000C4F2020401F080010091009900950168C9
:1021C000002241F0010101600168C02601F0010117
:1021D000009100990095016841F0020101600168D9
:1021E00001F00201009100990095016841F004019D
:1021F0000160016801F004010091009900950168F7
:1022000041F0080101600068C02100F00800009062
:1022100000982046FEF7E0F90120CDE9020501A96A
:10222000204601960495FEF707F906B070BD000040
:1022300080B540F2F81045F60001C2F20000C4F289
:10224000000148F2A06200234FF4804CC0F201026A
:1022500080E80E00C0E9033CC0E90533C0E907335C
:10226000FEF7C6F9002808BF80BDBDE88040FEF734
:10227000CBB8000080B540F24C2045F60041C2F2D8
:102280000000C4F2000148F2A06200234FF4804C29
:10229000C0F2010280E80E00C0E9033CC0E905334A
:1022A000C0E90733FEF7A4F9002808BF80BDBDE8E8
:1022B0008040FEF7A9B8000010B594B040F2A0200D
:1022C0000021C2F200004FF08042532344F61F6405
:1022D0000D91CDE90B110991CDE90711CDE905115A
:1022E000CDE90311CDE90111C0E90023C0E90214D1
:1022F00001618161FEF7FAFF002818BFFEF784F83C
:102300004FF480500A9040F2A020C2F200000AA9C7
:10231000FFF7D6F8002818BFFEF776F840F2A020A5
:10232000C2F20000FFF75AFB002818BFFEF76CF856
:1023300040F2A0200024C2F2000008A9CDE9084420
:10234000FEF776FF002818BFFEF75EF86020CDE9A3
:1023500001040394059440F2A024C2F2000401A9F0
:1023600020460022FFF728FA002818BFFEF74CF895
:10237000206840F60042C4F20002002190420F9112
:102380001CD040F20041C4F20001884226D0B0F1D6
:10239000804F41D100200E9043F63000C4F202007D
:1023A000016841F001010160006800F001000E9039
:1023B0000E9820200F90012022E000BF43F630004D
:1023C0000E91C4F20200016841F001010160006851
:1023D00000F001000E900E9801200FE000200E90FA
:1023E00043F63000C4F20200016841F001010160CF
:1023F000006800F001000E900E9840200F9002201F
:1024000002211091002113900020CDE91111C4F296
:1024100002000FA9FEF710F814B010BDB0B594B0CB
:1024200040F2004540F2E820C4F200050021C2F26B
:102430000000532244F61F630D91CDE90B11099161
:10244000CDE90711CDE90511CDE90311CDE9011160
:10245000C0E90052C0E9021301618161FEF746FF45
:10246000002818BFFDF7D0FF4FF480500A9040F2CB
:10247000E820C2F200000AA9FFF722F8002818BFDE
:10248000FDF7C2FF40F2E820C2F20000FFF7A6FA13
:10249000002818BFFDF7B8FF40F2E8200024C2F280
:1024A000000008A9CDE90844FEF7C2FE002818BFC5
:1024B000FDF7AAFF6020CDE901040394059440F2E2
:1024C000E824C2F2000401A920460022FFF774F9B3
:1024D000002818BFFDF798FF206840F60042C4F2BC
:1024E0000002002190420F9118D0A84226D0B0F1EE
:1024F000804F40D100200E9043F63000C4F202001D
:10250000016841F001010160006800F001000E90D7
:102510000E9820200F90012022E000BF43F63000EB
:102520000E91C4F20200016841F0010101600068EF
:1025300000F001000E900E9801200FE000200E9098
:1025400043F63000C4F20200016841F0010101606D
:10255000006800F001000E900E9840200F900220BD
:10256000022110910021CDE91111139005F5FE30E3
:102570000FA9FDF761FF14B0B0BD000080B586B0B3
:1025800040F2303040F600020021C2F20000C4F2F6
:10259000000253230591CDE90311CDE90011C0E9F3
:1025A0000021C0E90213016180218161FEF79EFED6
:1025B000002818BFFDF728FF4FF48050029040F22A
:1025C0003030C2F2000002A9FEF77AFF002818BFDF
:1025D000FDF71AFF40F23030C2F200006946FEF704
:1025E00027FE002818BFFDF70FFF06B080BD0000D2
:1025F000B0B594B040F6004540F27830C4F2000522
:102600000021C2F20000532244F61F630D91CDE970
:102610000B110991CDE90711CDE90511CDE90311A0
:10262000CDE90111C0E90052C0E9021301618161E5
:10263000FEF75CFE002818BFFDF7E6FE4FF4805061
:102640000A9040F27830C2F200000AA9FEF738FF83
:10265000002818BFFDF7D8FE40F27830C2F2000023
:10266000FFF7BCF9002818BFFDF7CEFE40F2783026
:102670000024C2F2000008A9CDE90844FEF7D8FD05
:10268000002818BFFDF7C0FE6020CDE901040394C7
:10269000059440F27834C2F2000401A920460022D9
:1026A000FFF78AF8002818BFFDF7AEFE206800216A
:1026B000A8420F911CD040F20041C4F200018842B0
:1026C00026D0B0F1804F40D100200E9043F630006C
:1026D000C4F20200016841F001010160006800F0ED
:1026E00001000E900E9820200F90012022E000BFE4
:1026F00043F630000E91C4F20200016841F001017E
:102700000160006800F001000E900E9801200FE0BB
:1027100000200E9043F63000C4F20200016841F040
:1027200001010160006800F001000E900E98402049
:102730000F900220022110910021CDE91111139078
:1027400005F5FA300FA9FDF777FE14B0B0BD000013
:1027500080B582B040F2C03041F200020021C2F2E6
:102760000000C4F20002532346F2A71CCDE9001179
:10277000C0E90023C0E9021C8161FEF7B7FD002813
:1027800018BFFDF741FE40F2C030C2F200006946BA
:10279000FEF74EFD002818BFFDF736FE02B080BDE3
:1027A00080B540F2084041F20001C2F20000C4F2DC
:1027B000010100234FF00C0C4FF4E13280E80E00D1
:1027C000C0E90333C0E905C3C361FFF7CDF90028B1
:1027D00008BF80BDBDE88040FDF716BE80B540F261
:1027E000504044F20041C2F20000C4F20001002354
:1027F0004FF00C0C4FF4E13280E80E00C0E90333D7
:10280000C0E905C3C361FFF7AFF9002808BF80BD69
:10281000BDE88040FDF7F8BDFEE70000FEE70000E0
:102820007047000080B584B001200DF10F01CDE9A3
:10283000001040F24C204FF47A7CC2F20000982144
:10284000AA220123CDF808C0FDF784FF9DF80F00F0
:10285000663818BF012004B080BD000040F2A020FF
:10286000C2F2000000684FF4FA7141637047000043
:10287000F0B585B040F24C240020C2F20004ADF85F
:1028800012004FF47A7501260DF1120720469821A7
:10289000DD220123CDE900760295FDF75BFF781C70
:1028A000CDE9000620469A21DD2201230295FDF79D
:1028B00051FF9DF812109DF8130040F2800201F0C4
:1028C0000103C2F20002D37100F00103D373C1F31C
:1028D00040031372C0F340031374C1F380035372B7
:1028E000C0F380035374C1F3C0039372C0F3C003F9
:1028F0009374C1F30013D372C0F30013D374C1F304
:1029000040131373C0F340131375C1F38013537353
:10291000C0F38013C009C909907564205375917381
:10292000FDF776FD05B0F0BD7047000040F2E820ED
:10293000C2F2000000684FF4FA7141637047000072
:10294000DDF800C00160426380F8383080ED0F0A86
:1029500080F840C070470000FEF7B0B8B0B592B044
:10296000002443F64000CDE90A44CDE9084405942B
:10297000CDE90344CDE901440094C4F202000168AA
:10298000022541F080510160006800F08050009005
:10299000009847F200000094C4F20000016841F47E
:1029A00080410160006800F48040009000980120A0
:1029B00006904FF4803007904FF480000D9019205E
:1029C0000E904FF4A870CDE90F050420119006A8D1
:1029D0000C95FEF73BFA18B172B600BFFEE700BFD8
:1029E0000F20CDE901054FF4A05004904FF4805022
:1029F000059001A805210394FEF718F910B172B6ED
:102A0000FEE700BF12B0B0BD4EF68850CEF2000017
:102A1000016841F47001016070470000B0B540F2F8
:102A20007005C2F20005A86801282CD1E86840F6BC
:102A300000040138C4F20204B0FA80F042092046D2
:102A40008021FDF7C9FD2868012815D0D8B9204696
:102A500040210122FDF7C0FD40F20800C2F2000053
:102A6000D5E90041006801318142A8BF00216960B9
:102A7000A8BF013406E000BF204640210022002408
:102A8000FDF7AAFD2C6040F23030C2F20000BDE834
:102A9000B040FEF7E7BD0000B0B540F6FF3E056868
:102AA000C4F2000E40F2004C7045C4F2010C27DC69
:102AB000B0F1804F31D040F20043C4F2000398429D
:102AC0002BD040F60003C4F20003984225D041F613
:102AD000FF73C4F2000398422ADC70453CDCB0F17D
:102AE000804F5FD040F20043C4F20003984259D0B7
:102AF00040F60003C4F20003984253D057E000BFF1
:102B000040F60043C4F20003984206D0604504D06A
:102B10000023C4F201039842D9D14B6825F070021A
:102B200043EA020541F6FF73C4F200039842D4DD84
:102B300043F6FF73C4F20103984221DC42F2000322
:102B4000C4F2000398422DD00023C4F2010398423E
:102B500028D0604526D02AE040F60043C4F20003A6
:102B600098421FD041F60003C4F20003984219D0E6
:102B700041F60043C4F20003984213D017E000BFAF
:102B800044F20003C4F2010398420BD044F6000360
:102B9000C4F20103984205D044F20043C4F2010399
:102BA000984204D1CB6825F4407243EA02050A68D2
:102BB0008C684B69C46240F480648262644504BFDF
:102BC00009690163026825F0800142F0040219439B
:102BD0000260012242610160B0BD000010B50446F0
:102BE0000068D4E902C22369016921F4405111430C
:102BF0000161626943EA0C01E3691143C268194348
:102C000049F20C639A431143C1604169A26921F4FE
:102C1000407141F20043114340F48062C4F2010369
:102C20009A42416102D1FEF7C7F801E0FEF7B0F821
:102C3000E16963681922B1F5004FA0FB020123D1BD
:102C40005A00DB0FFDF726FB48F21F51C5F2EB11CE
:102C5000A0FB01235A094FF69C73C0F6FF7303F1E2
:102C6000805302FB0300322303EBC000A0FB0101F1
:102C70004FF4F87000EA111000EB0210C1F342119A
:102C800008442168886010BD9A009B0FFDF702FB85
:102C900048F21F51C5F2EB11A0FB01235A094FF670
:102CA0009C73C0F6FF7302FB0300322303EB00109A
:102CB000A0FB0101F02000EA511000EB0210C1F36B
:102CC000431108442168886010BD0000FEE7000041
:102CD0004FF4FA6148434BF6D711C0F2F201A0FB62
:102CE000010140F27830C2F20000006801F5FA718B
:102CF0004163704782B0FDF7EFFEFFF72FFEFFF74D
:102D000047FAFFF7B7FAFFF74BFDFFF767FDFFF74D
:102D10008FFAFFF7D1FAFFF781FBFFF769FCFFF7A6
:102D20002DFCFFF715FD40F23030C2F20000FEF737
:102D300071FB40F2A020C2F2000000210025FEF746
:102D40007FFE40F2E820C2F200000021FEF778FE8C
:102D500040F27830C2F200000021FEF771FE40F22E
:102D600008449FED268A40F29800C2F20004C2F2A5
:102D70000000042122460023B0EE480A0095FFF728
:102D8000DFFD40F2F000C2F20000012122460123E3
:102D9000B0EE480A00950126FFF7D2FD40F2481038
:102DA000C2F20000022122460023B0EE480A00953C
:102DB000FFF7C6FD40F2A010C2F200000321224638
:102DC0000123B0EE480A0096FFF7BAFDFFF746FD73
:102DD000FFF7ACFD5A20FFF77BFFFFF723FD38B16B
:102DE0000120FDF715FBFFF71DFD0028F8D100BFFE
:102DF000FFF73EFD0A20FDF70BFBF9E72DB29D3DE5
:102E0000F1EE100A4FF6FF71C0F2C03120EA010066
:102E100040F04070E1EE100A704700000000000032
:102E20000000010203040607080900000000010277
:102E300003040000582E00080000002010000000CD
:102E4000EC010008682E000810000020900A000025
:102E50000C0200080000000001000000100000004B
:082E6000640000000024F400EE
:040000050800018965
:00000001FF
