:020000040800F2
:10000000606C00209D010008153B0008612F00086E
:10001000D1380008050D0008D54200080000000096
:10002000000000000000000000000000B13C0008DB
:10003000610E000800000000213B0008E93E0008B6
:10004000B7010008B7010008B7010008B7010008B0
:10005000B7010008B7010008B7010008B7010008A0
:10006000B7010008B7010008B7010008B701000890
:10007000B7010008B7010008B7010008B701000880
:10008000B7010008B7010008B7010008B701000870
:10009000B7010008B7010008B7010008B701000860
:1000A000B7010008B7010008B7010008B701000850
:1000B000B7010008B7010008C13F0008B7010008F8
:1000C000B7010008B7010008B7010008B701000830
:1000D000B7010008B7010008B7010008B701000820
:1000E000B7010008B7010008B7010008B701000810
:1000F000B7010008B7010008B7010008B701000800
:10010000B7010008B7010008B7010008B7010008EF
:10011000B7010008B7010008B7010008B7010008DF
:10012000B7010008B7010008B7010008B7010008CF
:10013000B7010008B7010008B7010008B7010008BF
:10014000B7010008B7010008B7010008B7010008AF
:10015000B7010008B7010008B7010008B70100089F
:10016000B7010008B7010008B7010008B70100088F
:10017000B7010008B7010008B7010008000000003F
:10018000B7010008B7010008DFF80CD000F004FA4E
:1001900000480047C1430008606C002006488047C3
:1001A00006480047FEE7FEE7FEE7FEE7FEE7FEE75C
:1001B000FEE7FEE7FEE7FEE7AD3F00088901000825
:1001C0002DE9F05F0546002092469B46884606468C
:1001D000814640241BE0284641464746224600F01F
:1001E0006DF953465A46C01A914110D3114618462C
:1001F000224600F054F92D1A67EB01084F462246BB
:100200000120002100F04BF917EB00094E41201EA0
:10021000A4F10104DFDC484631462A464346BDE8E6
:10022000F09F40EA01039B0703D009E008C9121FB1
:1002300008C0042AFAD203E011F8013B00F8013BA0
:10024000521EF9D270472DE9FE4F81EA030404F0F3
:10025000004421F0004100944FF0000B23F00043D4
:1002600050EA01045ED052EA03045BD0C3F30A549F
:10027000C1F30A552C44A4F2F3340194A0FB0254B8
:10028000C1F3130141F48011C3F3130343F480134A
:1002900001FB024400FB034E840A970A44EA81549E
:1002A00047EA8357A4FB076802958D0A05FB07857B
:1002B0004FEA932C04FB0C542705029D4FEA065885
:1002C00047EA1637B5EB08056EEB070C870E920E62
:1002D00047EA811742EA8312A7FB0201B6EB0B0142
:1002E00064EB00042B0D43EA0C335E1844EB1C5006
:1002F000DA465146E7FB0201C5F313044FEA0B331C
:1003000043EA14534FEA0432019C43EA0603A4F182
:100310000C040294009CCDE900B400F0EEF803B0A8
:10032000BDE8F08F00200146F9E72DE9F04D81EAA4
:10033000030404F0004B21F0004514464FF0000A7E
:1003400023F0004150EA050220D054EA01021DD0FA
:10035000C5F30A570246C5F31303C1F31300C1F3F3
:100360000A5640F4801543F48013A7EB0608101BCF
:10037000D64608F2FD3873EB050002D308F10108F8
:1003800001E092185B41B8F1000F03DA002001464A
:10039000BDE8F08D00204FF48011064684460EE043
:1003A000171B73EB050705D3121B63EB050306430D
:1003B0004CEA010C49084FEA300092185B4150EAC0
:1003C0000107EDD152EA030012D082EA040083EA69
:1003D0000501084305D0101BAB4106D201220023C2
:1003E00006E000224FF0004302E06FF001025310DC
:1003F0001AEB06004CEB085110EB0A0041EB0B0125
:10040000BDE8F04D00F06AB870B5C1F30A5201F0D2
:1004100000450024C1F3130140F2FF3341F4801181
:100420009A4201DA002070BD40F233439A42A2F2B0
:10043000334203DC524200F041F800E090402C438C
:10044000F1D0404270BDC1F30A5210B5C1F313019F
:1004500040F2FF3341F480119A4201DA002010BDCE
:1004600040F233439A42A2F2334203DC524200F09C
:1004700025F810BD904010BD00F0004230F0004063
:100480000AD0C10D01F56071C0F3160042EA0151B6
:10049000C208400711437047002001467047202AD8
:1004A00004DB203A00FA02F1002070479140C2F1CB
:1004B000200320FA03F3194390407047202A04DBFD
:1004C000203A21FA02F00021704721FA02F3D040CD
:1004D000C2F12002914008431946704710B5141E1E
:1004E00073F1000408DA401C41F1000192185B41ED
:1004F0001A4301D120F0010010BD2DE9F04D9246C4
:100500009B4611B1B1FA81F202E0B0FA80F22032DA
:100510009046FFF7C4FF04460F4640EA0A0041EA4E
:100520000B0153465A46084313D0114653EA0100C3
:1005300019D0C8F140025046FFF7C0FF05460E46ED
:10054000504659464246FFF7AAFF084305D001200E
:1005500004E020463946BDE8F08D0020054346EA18
:10056000E0762C4337430A986305E40AA0EB0800C1
:100570000022FD0A44EA47540A3002D50020014611
:10058000E9E7010510196941DDE9084500196941EC
:10059000BDE8F04DA2E700001CB5094800900948ED
:1005A00001900546009C06E0E06840F0010394E8F5
:1005B000070098471034AC42F6D3FFF7E9FD00007E
:1005C000B45D0008D45D0008B0B540F2EC10C2F292
:1005D0000000006840F2F014C2F20004002102287A
:1005E00021600ED19FED290A04F0A0F940F6980091
:1005F00004F024FF9FED220A03F0E2F94FF4486073
:1006000039E09FED1F0A03F011FA4FF4486004F03F
:1006100015FF9FED1C0A04F089F940F6980004F0DC
:100620000DFF9FED190A03F0CBF94FF4FA7004F0B7
:1006300005FF40F2FC15C2F2000500BFE87810B1DA
:1006400002F05AFEFAE703F023FC40F2DC5004F01B
:10065000F5FE9FED0E0A03F03DF940F6980004F018
:10066000EDFE00BFE87810B102F046FEFAE703F0B5
:100670000FFC40F2DC5004F0E1FE01202060B0BD30
:100680009A99193F00003443CDCCCC3D0000B442D0
:100690002DE9F04140F2EC1140F2F01840F2E01583
:1006A00040F2E416C2F200019FED300AC2F20008E7
:1006B0000020C2F20005C2F200060C68C8F8000073
:1006C0002860306003F046F940F6980004F0B6FE6A
:1006D0009FED270A04F02AF940F6980004F0AEFED8
:1006E0002868022C1DD1032816D040F2FC17C2F254
:1006F0000007002402F000FE3878002806BF012120
:1007000031603168FA782868002A01BF0129013078
:10071000286034600328EDD19FED150A03F0DAF864
:100720001EE0042816D040F2FC17C2F20007002495
:1007300002F0E2FD3878002806BF012131603168FF
:10074000FA782868002A01BF012901302860346046
:100750000428EDD103F09CFB40F2DC5004F06EFE67
:100760000120C8F80000BDE8F08100BF9A99993EC9
:100770000000B4422DE9F04103F066FB40F2EC11B9
:1007800040F2F01840F2E41640F2E017C2F2000125
:100790009FED610AC2F200080020C2F20006C2F218
:1007A00000070C68C8F800003060386004F0BEF83C
:1007B00040F6980004F042FE9FED580A03F000F95D
:1007C0004FF4486004F03AFE9FED550A03F02EF90D
:1007D00040F6980004F032FE40F2FC15C2F200052B
:1007E000E878022C46D100BF20B102F085FDE87800
:1007F0000028FAD103F04CFB40F2DC5004F01EFE5E
:100800009FED450A03F066F840F2DC5004F016FE56
:100810003868052812D0002402F06EFD28780028E0
:1008200006BF012131603168EA783868002A01BFCB
:1008300001290130386034600528EDD103F028FB30
:1008400040F2DC5004F0FAFD9FED330A03F042F869
:1008500040F2DC5004F0F2FD9FED320A03F0B0F8F4
:100860004FF47A7004F0EAFDE87840B102F044FDFC
:10087000FAE700BFF8B102F03FFDE878FAE703F0CD
:1008800007FB40F2DC5004F0D9FD9FED230A04F091
:100890004DF840F6980004F0D1FD9FED220A03F0D8
:1008A0008FF84FF47A7004F0C9FD00BFE87838B3D0
:1008B00002F022FDFAE703F0EBFA40F2DC5004F01C
:1008C000BDFD9FED150A03F005F840F2DC5004F081
:1008D000B5FD3868062813D0002400BF02F00CFDD7
:1008E0002878002806BF012131603168EA7838682D
:1008F000002A01BF01290130386034600628EDD19B
:1009000003F0C6FA40F2DC5004F098FD0120C8F86C
:100910000000BDE8F08100BF0000B442CDCC4C3FE8
:100920009A99993ECDCCCC3DB0B540F2EC15C2F2CF
:100930000005286840F2F014C2F2000400210228E9
:1009400021603BD0012841D0002840F08680B5EEE0
:10095000000A03F0A5F840F2DC5004F06FFD9FEDB3
:10096000410A03F02DF840F2DC5004F067FD5520F9
:1009700003F0B2FC4FF4486004F060FD03F064FA49
:1009800003F00AF940F2DC5004F058FD03F0A2F93C
:1009900040F6C41004F052FD9FED330A03F020FA34
:1009A00040F2DC5004F04AFD412003F095FC40F297
:1009B000DC5004F043FD9FED2F0A3DE044F25C4023
:1009C0002960C2F200000121016046E09FED240A87
:1009D00003F066F840F6980004F030FD9FED210A20
:1009E00002F0EEFF40F2DC5004F028FD2D2003F071
:1009F00073FC4FF4486004F021FD03F025FA03F086
:100A0000CBF840F2DC5004F019FD03F063F940F636
:100A1000C41004F013FD9FED140A03F0E1F940F255
:100A2000DC5004F00BFD412003F056FC40F2DC509A
:100A300004F004FD9FED0D0A02F0F8FF40F6980067
:100A400004F0FCFC9FED0A0A02F044FF40F6980017
:100A500004F0F4FC28680130286001202060B0BD5B
:100A6000C3F5A83E9A99193E0000C8C2EC51B83EA1
:100A700000003443713D8A3EB0B52DED028B40F24B
:100A8000EC15C2F20005286840F2F014C2F200042E
:100A900000210228216017D001281DD0002860D134
:100AA000B5EE008AB0EE480A02F0FAFF40F2DC50E0
:100AB00004F0C4FC9FED2E0A02F082FF40F2DC50ED
:100AC00004F0BCFC55201AE044F25C402960C2F2FC
:100AD00000000121016044E09FED248AB0EE480A45
:100AE00002F0DEFF40F6980004F0A8FC9FED200A1B
:100AF00002F066FF40F2DC5004F0A0FC2D2003F071
:100B0000EBFB4FF4486004F099FC03F09DF903F00F
:100B100043F803F0DFF840F6C41004F08FFC9FEDBB
:100B2000150A03F05DF940F2DC5004F087FC412027
:100B300003F0D2FB40F2DC5004F080FCB0EE480A37
:100B400002F074FF40F6980004F078FC9FED0A0A6A
:100B500002F0C0FE40F6980004F070FC28680130F6
:100B6000286001202060BDEC028BB0BDC3F5A83E1B
:100B70009A99193E0000C8C200003443B0B52DED6B
:100B8000028B40F2EC15C2F20005286840F2F01426
:100B9000C2F2000400210228216017D001281DD0D4
:100BA000002860D1B5EE008AB0EE480A02F078FF66
:100BB00040F2DC5004F042FC9FED2E0A02F000FFF0
:100BC00040F2DC5004F03AFC55201AE044F25C405C
:100BD0002960C2F200000121016044E09FED248AF7
:100BE000B0EE480A02F05CFF40F6980004F026FCE4
:100BF0009FED200A02F0E4FE40F2DC5004F01EFCFF
:100C00002D2003F069FB4FF4486004F017FC03F05B
:100C10001BF902F0C1FF03F05DF840F6C41004F0C8
:100C20000DFC9FED150A03F0DBF840F2DC5004F0F8
:100C300005FC412003F050FB40F2DC5004F0FEFBC9
:100C4000B0EE480A02F0F2FE40F6980004F0F6FB1F
:100C50009FED0A0A02F03EFE40F6980004F0EEFB1B
:100C600028680130286001202060BDEC028BB0BDF7
:100C7000C3F5A83E9A99193E0000C8C2000034434B
:100C80002DE9F04140F2E41440F2E01640F2F4178E
:100C900040F2FC15C2F200044FF00008C2F2000658
:100CA000C2F20007C2F20005C4F80080C6F8008056
:100CB0000DE000BF01212160EA783068002A01BF01
:100CC000012901303060C4F8008004280BD002F004
:100CD00013FBB879F9790843ECD038787978084370
:100CE000E8D02168E8E703F0D3F84FF4FA7004F095
:100CF000A5FB40F2F010C2F2000001210160BDE846
:100D0000F0810000FEE7000010B52DED028B40F2EF
:100D1000F0149FED230AC2F200040020206002F0CC
:100D200019FE40F2DC5004F089FB9FED1E8AB0EE04
:100D3000480A02F0B5FE40F6B83004F07FFB40F2FE
:100D4000D810C2F20000007840F2DC11C2F20001BB
:100D5000086003F079F802F01FFF02F0BBFF40F6D5
:100D6000C41004F06BFB9FED100A03F039F840F259
:100D7000DC5004F063FBB0EE480A02F057FE40F28C
:100D8000DC5004F05BFB9FED090A02F0A3FD4FF479
:100D9000486004F053FB01202060BDEC028B10BDC5
:100DA000CDCC4C3D9A99993E0000C8C20000344316
:100DB00040F2F010C2F2000000680138B0FA80F092
:100DC0004009704740F2F01040F2DC11C2F200001E
:100DD000C2F200010068096880F0010081F003019F
:100DE0000843B0FA80F040097047000040F2F0106C
:100DF000C2F2000044F25C410068C2F200010968DE
:100E000080F001000843B0FA80F04009704700000C
:100E100040F2F01040F2DC11C2F20000C2F2000118
:100E20000068096880F0010081F001010843B0FA10
:100E300080F040097047000040F2F01040F2DC11F1
:100E4000C2F20000C2F200010068096880F00100EF
:100E500081F002010843B0FA80F0400970470000B9
:100E600070470000B0B540F2E4110020C2F200016A
:100E700040F2F015086040F2E011C2F20005C2F243
:100E800000012860086040F2EC10C2F20000006827
:100E9000B5EE000A40F2DC549FED231A0028C8BFCB
:100EA000B0EE410AC8BF40F6980402F089FD204622
:100EB00004F0C4FA02F0ECFF4FF4FA7004F0BEFA4A
:100EC0009FED1A0A03F032FD40F6980004F0B6FADE
:100ED00040F2F414C2F20004A07958B1E07948B1AC
:100EE000207838B1607828B102F006FA0A2004F0C0
:100EF000A5FAF1E702F0CCFF40F2DC5004F09EFAD4
:100F00009FED0B0A02F05CFD40F6B83004F096FA53
:100F10009FED080A02F0C4FD4FF4486004F08EFA19
:100F200001202860B0BD00BFF628DC3E0000B442BE
:100F3000B81E053E9A99193F2DE9F04381B02DED79
:100F4000028B40F2F01840F2E41440F2E01540F257
:100F5000F41640F2FC17C2F200084FF00009C2F28A
:100F60000004C2F20005C2F20006C2F20007C8F88F
:100F70000090C4F80090C5F800900CE001212160B9
:100F8000FA782868002A01BF012901302860C4F8D6
:100F9000009003280BDA02F0AFF9B079F179084339
:100FA000ECD0307871780843E8D02168E8E719D1AF
:100FB0009FED1B8A0DE000BFB0EE480A02F000FD75
:100FC0004FF4FA7004F03AFA2868013028600428D7
:100FD00008DA02F091F9307871780843ECD028688B
:100FE0000428F6DB02F054FF40F2DC5004F026FA4D
:100FF0009FED0C0A03F09AFC40F2DC5004F01EFA5C
:101000009FED090A02F0DCFC40F2DC5004F016FA15
:101010000120C8F80000BDEC028B01B0BDE8F083F0
:10102000CDCCCC3D0000B4429A99993E2DE9F043D5
:1010300081B02DED028B40F2F01840F2E41440F242
:10104000E01640F2F41540F2FC17C2F200084FF02F
:101050000009C2F20004C2F20006C2F20005C2F2A8
:101060000007C8F80090C4F80090C6F800900CE0A3
:1010700001212160FA783068002A01BF012901307E
:101080003060C4F8009003280BDA02F035F9A87933
:10109000E9790843ECD0287869780843E8D02168DA
:1010A000E8E7052818D89FED2E8A0CE0B0EE480A34
:1010B00002F086FC4FF4FA7004F0C0F93068013099
:1010C0003060062808DA02F017F9287869780843B2
:1010D000ECD030680628F6DB02F0DAFE40F2DC5095
:1010E00004F0ACF99FED1F0A02F06AFC4FF4FA70AD
:1010F00004F0A4F99FED1C0A03F018FC40F69800D8
:1011000004F09CF928786978084302D002F0F4F8DA
:10111000F8E702F0BDFE40F2DC5004F08FF99FEDDD
:10112000130A02F083FC40F6980004F087F9B6EE4B
:10113000080A02F045FC41F2301004F07FF99FEDFF
:101140000A0A03F0F3FB40F6980004F077F9012057
:10115000C8F80000BDEC028B01B0BDE8F08300BF11
:10116000CDCCCC3DCDCC4C3D0000B4429A99993EBB
:1011700010B52DED028B40F2EC10C2F200000068B9
:1011800040F2F014C2F200040021022821600ED0C7
:10119000012811D0C0BB9FED1F8AB0EE480A02F0B3
:1011A0000FFC40F2DC5004F049F95F200FE002F040
:1011B000E9FC02F053FE27E09FED168AB0EE480AE4
:1011C00002F0FEFB40F2DC5004F038F90F2003F08F
:1011D00083F840F2DC5004F031F902F0D3FC02F065
:1011E0003DFE40F2DC5004F029F9412003F074F890
:1011F00040F2DC5004F022F9B0EE480A02F0AAFBFB
:1012000040F2DC5004F01AF901202060BDEC028BA2
:1012100010BD00BF9A99193E10B52DED028B40F21A
:10122000EC10C2F20000006840F2F014C2F20004B8
:101230000021022821600ED0012811D0C0BB9FEDF3
:101240001F8AB0EE480A02F0BBFB40F2DC5004F00B
:10125000F5F85F200FE002F095FC02F0FFFD27E0BB
:101260009FED168AB0EE480A02F0AAFB40F2DC506D
:1012700004F0E4F80F2003F02FF840F2DC5004F003
:10128000DDF802F07FFC02F0E9FD40F2DC5004F0F2
:10129000D5F8412003F020F840F2DC5004F0CEF8FD
:1012A000B0EE480A02F056FB40F2DC5004F0C6F8FB
:1012B00001202060BDEC028B10BD00BF9A99193E41
:1012C00010B52DED028B40F2EC10C2F20000006868
:1012D00040F2F014C2F200040021022821600ED076
:1012E000012811D0A0BB9FED1D8AB0EE480A02F084
:1012F00067FB40F2DC5004F0A1F87D200FE002F023
:1013000041FC02F0ABFD1FE09FED148AB0EE480AED
:1013100002F056FB40F2DC5004F090F8232002F07B
:10132000DBFF40F2DC5004F089F802F02BFC02F005
:1013300095FD412002F0D0FF40F2DC5004F07EF831
:10134000B0EE480A02F006FB40F2DC5004F076F8FA
:1013500001202060BDEC028B10BD00BF9A99193EA0
:1013600072B600BFFEE70000F0B540F2F410C2F222
:1013700000000278437890F802E082F0010183F0E7
:10138000010739438EF0010751EA070C15D10121FD
:10139000C17001799FED4C1A01294FF000012BD14A
:1013A0004479012C28D18479012C25D1C479012CD0
:1013B00004BFB0EE0C0AF0BD1EE0B9EE000A9FEDCE
:1013C000421A002A4FF0010108BFB0EE401AB8EEF1
:1013D000040A08BF0221002BB2FA82F431EE000A9F
:1013E0000CBFB0EE401A6109BEF1000F04D1BFEE90
:1013F000000A31EE001A0131BEEE000AC77831EE64
:10140000000A0479B6EE002A45798679002F04BFD8
:10141000B0EE401A013131EE020A002C04BFB0EEEA
:10142000401A0131B7EE000A1A4331EE000A42EACF
:101430000E02002D04BFB0EE401A0131B0EE040AD6
:101440003A4331EE000A002E04BFB0EE401A0131DB
:10145000C07942EA0403B1EE003A2B4331EE030AAD
:10146000002843EA060304BFB0EE401A01310343EB
:10147000B0EE0C0A27D0002A08BF012D1FD044EA85
:10148000050333431843BCFA8CF2B0FA80F05209DA
:101490004009024218BFF0BD00EE101AB8EEC00AB3
:1014A00081EE000AB6EE0C1A30EE030A20EE010AB5
:1014B00030EE020ABDEEC00AB8EEC00AF0BD012E41
:1014C000DDD10128DBD1F0BD00000000B0B504463D
:1014D00000F0E6F8054640F21000C2F20000007885
:1014E000611C18BF044400BF00F0DAF8401BA042A2
:1014F000FAD3B0BD2DE9F04F82B000F13E4707F1BD
:10150000FF77860546EA972741F60046C4F20206B1
:10151000082243F6004EB04208BF0722C4F2010E73
:10152000072F38BF3A46002600274FF000080092E8
:1015300009E000BF08F101080237B8F1100F06F109
:10154000040600F0A3800D68012202FA08F415EAEF
:101550000409EFD0D1F804B003220BF0030CACF176
:101560000105BA40012D6FEA020A0FD88268CD68E2
:1015700002EA0A02BD402A4382604268A243CBF3DA
:10158000001404FA08F42243426005E0BCF1030FA2
:1015900002D14FF0030C1EE0C2688C6802EA0A0216
:1015A000BC402243BCF1020FC26014D16FF00302B1
:1015B00002EA58020244D2F820C006F01C040F23AD
:1015C0000D69A3402CEA0303A5402B431362D1F815
:1015D00004B00BF0030C02680CFA07F302EA0A02EB
:1015E0001A431BF4403F0260A4D0002243F6440398
:1015F0000192C4F202031A684FF6084C42F480428A
:101600001A601A68CFF6FF7C02F480420192019AB8
:1016100028F00302724452F80C3006F00C050F2437
:10162000AC40A343009C04FA05F52B4342F80C3070
:10163000DEF808204B6842EA090543F60C4CDC0250
:1016400058BF22EA0905CEF80850C4F2010CDCF8B4
:1016500000209C0242EA090558BF22EA0905CCF89D
:101660000050DEF804209C0342EA090558BF22EA34
:101670000905CEF80450DEF80020DB0342EA090534
:1016800058BF22EA0905CEF8005053E702B0BDE882
:10169000F08F0000002A08BF090481617047000034
:1016A00044F25410C2F2000000687047002804BFE2
:1016B00001207047F0B581B0044690F83D0028B98C
:1016C000002084F83C00204600F024FA242084F80E
:1016D0003D002068016821F001010160016841F4CA
:1016E00000410160016821F40041016000F02CFC20
:1016F000636848F2A16CC0F2010C40F60011C0F220
:101700003D0163453CBF48F28041C0F21E01884262
:1017100002D2012001B0F0BD4DF68361C4F21B314D
:10172000A0FB01122168970CD1F804E04FF49676E3
:101730002EF03F0545EA92454D60774348F638164E
:101740000D6AC0F24106A7FB067625F03F07634508
:1017500038BF960C721C3A430A62CA6948F2A06606
:101760004CF6FF77C0F20106B34222EA07020AD81C
:1017700001385B00B0FBF3F001306FF31F30042839
:1017800098BF042019E0A768013857B119277B4397
:10179000B0FBF3F001306FF31F3068B100F580400B
:1017A00007E003EB4303B0FBF3F001306FF31F30AE
:1017B00010B100F5004000E001201043C861086846
:1017C000D4E9072320F0C00010431843086088685C
:1017D00048F2FF3204F10C0790438CCF18431043BA
:1017E000A6698860C86820F0FF0038433043C860AD
:1017F000086840F00100086000202021206484F87F
:101800003D10206384F83E0001B0F0BD2DE9F047A3
:1018100084B0984617460E460446FFF741FF94F8F9
:101820003D10202922D10546206800BF8169890723
:1018300017D5FFF735FF411B20681A29F6D38169B8
:101840008907F3D500202021206384F83D1084F817
:101850003E00206C04F13C0940F02000206402208E
:1018600052E1A14619F83C1F012903D1022004B01E
:10187000BDE8F087012289F800200368DDE90D1A30
:101880000C9ADB0703D1036843F00103036003688C
:1018900023F400630360222084F83D00402084F894
:1018A0003E000020206462626185608D31462085A3
:1018B0000020CFF6FF70E06220463A464346CDE96D
:1018C00000A501F04FFB18B1012004B0BDE8F0877E
:1018D000208DA0B102281FD0012829D121680A68D3
:1018E00022F480620A60002203924A6903928A69A4
:1018F0000392039A0A6842F400720A6020E0002012
:1019000003902068416903918169039103990168FB
:1019100041F400710160D8E021680A6822F4806215
:101920000A600A6842F400620A600022039202E040
:101930000021039121684A690392896903910399FF
:101940000AF1010680B203281DD802284ED00128D2
:1019500060D1216803E04869400640F1C98008462B
:1019600050F8142F520600F1A1800168C90600F159
:10197000B380FFF795FE2168BAF1000FEBD0401B52
:101980005045ECD9E7E7216804E000BF486940060C
:1019900040F1AE80084650F8142F52060DD401686D
:1019A000C90600F19980FFF77BFE2168BAF1000FAC
:1019B000ECD0401B5045EDD9E8E70869616A087032
:1019C000606A2268411C208D616201382085638D28
:1019D000013B638553695B0774D580B2032803D14B
:1019E000106820F480601060106961E0216802E0F6
:1019F000486940077CD54869400743D4002EFAD097
:101A0000FFF74EFE2168BAF1000FF1D0401B5045A0
:101A1000F1D9EDE7216802E04869400768D54869D7
:101A200040070BD4002EFAD0FFF73AFE2168BAF136
:101A3000000FF1D0401B5045F1D9EDE7086820F4C4
:101A4000806008600869616A0870606A2168013016
:101A50006062208D01382085608D0138608502E04C
:101A60004869400744D5486940070BD4002EFAD096
:101A7000FFF716FE2168BAF1000FF1D0401B504568
:101A8000F1D9EDE7086840F4007008600869616A00
:101A90000870606A2268411C6162218D01392185CC
:101AA000618D013961851169417002E00869616ADF
:101AB0000870606A218D01306062481E2085618D4A
:101AC0000139618501047FF43DAF202084F83D0099
:101AD000002084F83E0017E06FF010010160002044
:101AE0002021206384F83D1084F83E00206C09E03A
:101AF00000202021206384F83D1084F83E00206CF3
:101B000040F0200020640120002189F8001004B07A
:101B1000BDE8F0872DE9F04786B0006845F6004142
:101B2000C4F2000100268842CDE90466CDE90266D0
:101B300001962FD045F60001C4F2000188426ED113
:101B4000002543F630040095C4F20204206801A980
:101B500040F002002060206800F002000090009831
:101B60004FF4406001901220CDE90205032004905B
:101B7000042005900020C4F2020000F58060FFF709
:101B8000B9FC0095206940F480002061206900F4D0
:101B9000800042E043F630070096C4F2020738683E
:101BA000002440F0040038603868C4F2020400F0F9
:101BB0000400009000980096386801AD40F00100E4
:101BC000386038684FF0120800F00100009000986B
:101BD0004FF4007001904FF003094FF0040A04F530
:101BE00000602946CDE90286CDF81090CDF814A00A
:101BF000FFF780FC4FF48070CDE9010803A880E86E
:101C0000400620462946FFF775FC0096386940F4E7
:101C100000003861386900F400000090009806B0B8
:101C2000BDE8F08740F2100044F25411C2F2000007
:101C3000C2F2000100780A68104408607047000092
:101C400080B543F60040C4F20200016841F400711F
:101C50000160016841F480610160016841F48071B4
:101C60000160032000F0B0F80F2000F005F800F04C
:101C70002BF8002080BD0000B0B540F21002C2F287
:101C8000000240F20C011278C2F200014FF47A73A4
:101C90000968B3FBF2F20446B1FBF2F1084600F02A
:101CA00069FB0F2C4FF001050CD858B94FF0FF30ED
:101CB00021460022002500F05BF840F21400C2F239
:101CC000000004602846B0BD80B582B0002043F615
:101CD00040010190C4F202014A6842F480424A6025
:101CE0004A6802F480420192019A0090086800223A
:101CF00040F0805008600868012100F0805000909A
:101D000000986FF00B0000F033F86FF00A0001212B
:101D1000002200F02DF86FF009000121002200F0F0
:101D200027F86FF004000121002200F021F86FF085
:101D300003000121002200F01BF86FF001000F21C9
:101D4000002202B0BDE8804000F012B8002848BF71
:101D5000704700F01F01012202FA01F11C2202EA81
:101D6000D0004EF20012CEF2000281507047000007
:101D700010B54EF60C5CCEF2000CDCF80030C3F36C
:101D8000022E8EF00704042C28BF0424BEF10303A6
:101D90004FF0FF3E0EFA04F438BF0023A1439940F0
:101DA0000EFA03F39A43114300F00F0200F160436F
:101DB0000901043A03F564436244002848BF02F174
:101DC0000C03197010BD00004EF60C51CEF200014C
:101DD0000A684FF6FF031A4060F30A2242F080605F
:101DE00040F0FD7008607047002804BF0120704774
:101DF0002DE9F04143F60808C4F202080446D8F879
:101E0000F8030D4600F00700884207D288F8F8531F
:101E1000D8F8F80300F00700A84276D120688107BF
:101E200017D5410705D5D8F8001041F4E051C8F89E
:101E30000010010705D5D8F8001041F46041C8F83A
:101E40000010D8F80010A26821F0F0011143C8F882
:101E50000010C0073FD1D8F8F80300F00700A842EF
:101E600007D988F8F853D8F8F80300F00700A8421B
:101E70004BD12068410707D5D8F80010E26821F45B
:101E8000E0511143C8F80010000708D5D8F8000049
:101E9000216920F4604040EAC100C8F8000000F069
:101EA0007BF8D8F8001045F67052C1F30311C0F664
:101EB0000002515C40F20C0220FA01F140F21400E1
:101EC000C2F200000068C2F200021160FFF7D4FE07
:101ED0000020BDE8F0816068811E022907D258F811
:101EE000081C89015CBF0120BDE8F08110E00128D9
:101EF00007D158F8081C89035CBF0120BDE8F081B8
:101F000006E058F8081C890702D40120BDE8F081DA
:101F1000D8F8001021F003010843C8F80000FFF7CB
:101F2000BFFB064641F28837D8F80000616800F030
:101F30000C00B0EB810F8ED0FFF7B2FB801BB842D4
:101F4000F2D90320BDE8F08140F20C0043F608010D
:101F5000C2F20000C4F202010068096845F680522E
:101F6000C1F38221C0F60002515CC84070470000F6
:101F700040F20C0043F60801C2F20000C4F2020174
:101F80000068096845F68052C1F34231C0F600028C
:101F9000515CC8407047000010B543F60404C4F219
:101FA0000204606800F00C0008280AD0042819BF59
:101FB00042F20040C0F2F40047F64000C0F27D104B
:101FC00010BD206821682368490247F64001C0F22D
:101FD0007D1100F03F02C3F388105CBF42F2004164
:101FE000C0F2F401A1FB00010023FEF7E9F821682B
:101FF0000222C1F3014102EB4101B0FBF1F010BD3F
:10200000002804BF012070472DE9F04182B004464A
:10201000007843F60006C007C4F202060BD0B06891
:1020200000F00C00042878D13068800303D5606884
:10203000002800F05181207880071AD5B06810F090
:102040000C0F08D0B06800F00C00082840F07F802A
:10205000706840027BD43068800703D5E0680128AF
:1020600040F03A813068216920F0F80040EAC10070
:1020700030602078000713D42078400727D4A56962
:10208000002D00F02581B06800F00C00082840F019
:102090009180012D40F0F980012002B0BDE8F0816F
:1020A0006069002840F20000C4F2472072D001218C
:1020B000C0F8801EFFF7F4FA054600BF706F800776
:1020C000DAD4FFF7EDFA401B0228F7D9D9E0306CDB
:1020D0005FEAC0080AD400200190306C40F08050C4
:1020E0003064306C00F080500190019847F2000796
:1020F000C4F200073868C0053ED4386840F48070E8
:102100003860FFF7CDFA05463868C00534D4FFF7CC
:10211000C7FA401B0228F7D9B3E0B06800F00C0002
:10212000082803D1706840023FF57EAF6068B0F5C3
:10213000803F07D0B0F5A02F40F08D80306840F48C
:1021400080203060306840F4803030608DE0E0689E
:10215000002852D00020C4F2472001210160FFF77F
:102160009FFA0546306880073FF57CAFFFF798FA85
:10217000401B0228F6D984E0A068012805D0052874
:1021800050D1306F40F004003067306F40F00100F4
:10219000306751E00021C0F8801EFFF781FA054644
:1021A000706F80077FF568AFFFF77AFA401B02284F
:1021B000F6D966E00027C4F2472700203866FFF70B
:1021C0006FFA022D05460DD13068800140F18880FC
:1021D000FFF766FA401B02284FF00300F4D902B063
:1021E000BDE8F0813068800172D5FFF759FA401BD5
:1021F00002284FF00300F5D9F1E70020C4F2472090
:1022000000210160FFF74CFA054600BF30688007E7
:102210007FF52FAFFFF744FA401B02284FF0030071
:10222000F4D9DCE7316F002821F001013167316F0B
:1022300021F00401316774D0FFF732FA054641F20C
:10224000883700BF306F80077BD4FFF729FA401B27
:10225000B842F7D915E03168002821F480313160A7
:10226000316821F48021316074D0FFF719FA0546F6
:10227000306880033FF5DFAEFFF712FA401B642899
:10228000F6D9032002B0BDE8F0817068E16900F47E
:1022900080028A4220D1216A00F03F028A421BD18B
:1022A00047F6C071626A0140B1EB821F14D1A16A86
:1022B0004FF6FF73C903994300F44032A1F5803112
:1022C0008A4209D1E16A00F07060B0EB016F03D17E
:1022D000002002B0BDE8F081012002B0BDE8F0812D
:1022E00004F11C052FCD084340EA8210D9034FF6B4
:1022F000FF729143A1F5803140EA056008437060A8
:1023000001203866FFF7CCF9044600BF3068800131
:10231000DED4FFF7C5F9001B02284FF00300F5D902
:102320005DE7FFF7BDF9054641F28837306F80075A
:1023300007D5FFF7B5F9401BB8424FF00300F5D9B8
:102340004DE7B8F1000F3FF59AAE306C20F08050A9
:10235000306494E6FFF7A4F9054600BF30688003B7
:102360007FF569AEFFF79CF9401B64284FF003002E
:10237000F4D934E7411E0020B0EB116F1CBF0120DF
:1023800070474EF21002CEF2000251604EF6235119
:10239000CEF20001F0230B700721906011607047AE
:1023A000704700007047000090F83C20012A4FF071
:1023B000020252D010B580F83D200268D2F804E045
:1023C000D2F808C00C682EF07003234341F2FF746A
:1023D000C4F20004A24253600DDC40F2FF73C4F269
:1023E00000039A4215DCB2F1804F29D040F200433D
:1023F000C4F2000322E040F2FF33C4F201039A4228
:1024000012DC41F60003C4F200039A4218D0002304
:1024100012E040F60003C4F200039A4210D040F6E6
:102420000043C4F2000309E044F20003C4F20103D4
:102430009A4205D040F20043C4F201039A4204D10B
:1024400049682CF08003194391600121002280F833
:102450003D1080F83C20BDE8104010467047000059
:10246000002804BF0120704710B5044690F83D00D5
:1024700028B9002084F83C00204600F01FF8022014
:1024800084F83D002068211D01F0F8FD012084F84A
:10249000460084F83E0084F83F0084F8400084F849
:1024A000410084F8420084F8430084F8440084F832
:1024B000450084F83D00002010BD000080B582B0CA
:1024C000006800F14041800540EA9120042857D877
:1024D000DFE800F003111F3947000020019043F6A8
:1024E0004000C4F20200016841F00101016000688F
:1024F00000F0010042E00020019043F64000C4F2E9
:102500000200016841F002010160006800F0020071
:1025100034E00020019043F64000C4F2020001685C
:10252000002241F0040101600068052100F0040070
:10253000019001981E20FFF71BFC1E2002B0BDE891
:102540008040FFF703BC0020019043F64000C4F236
:102550000200016841F008010160006800F0080015
:102560000CE00020019043F64000C4F20200016834
:1025700041F010010160006800F010000190019826
:1025800002B080BD90F83D1001291CBF01207047AA
:10259000022180F83D10006841F2FF72C168C4F268
:1025A0000002904241F00101C1600DDC40F2FF7178
:1025B000C4F20001884215DCB0F1804F29D040F20E
:1025C0000041C4F2000122E040F2FF31C4F20101F7
:1025D000884212DC41F60001C4F20001884218D0A2
:1025E000002112E040F60001C4F20001884210D040
:1025F00040F60041C4F2000109E044F20001C4F2D7
:102600000101884205D040F20041C4F20101884234
:1026100006D1816801F00701062904BF0020704738
:10262000016841F0010101600020704790F83C20F2
:10263000012A4FF0020200F0C38080B580F83D20EF
:10264000D0F800C04FF67772DCF8083023EA0202B7
:10265000CCF808200B684F2B28DC1F2B44DD202BE7
:1026600045D0302B43D0402B40F0AC80D1F804E073
:10267000C968DCF82030DCF8202022F00102CCF818
:102680002020DCF8182022F0F00242EA011123F0A9
:102690000A0242EA0E02CCF81810CCF82020DCF82E
:1026A000081041F0470121F030017EE06F2B26DD5C
:1026B000B3F5005F47D0B3F5805F78D0702B40F062
:1026C0008180D1E901E3C968DCF8082043EA0E0300
:1026D00022F47F4243EA01211143CCF80810DCF8D0
:1026E000081041F0770160E00BB1102B6AD1DCF8E3
:1026F000081021F07001194341F0070155E0502BFB
:1027000034D0602B5ED1D1F804E0C968DCF8203009
:10271000DCF8202022F01002CCF82020DCF8182071
:1027200022F4704242EA013123F0A00242EA0E1282
:10273000CCF81810CCF82020DCF8081041F0670124
:1027400021F0100131E0D1E901E3C968DCF808208B
:1027500043EA0E0322F47F4243EA01211143CCF8FD
:102760000810DCF8081041F480411EE0D1F804E0C4
:10277000C968DCF82030DCF8202022F00102CCF817
:102780002020DCF8182022F0F00242EA011123F0A8
:102790000A0242EA0E02CCF81810CCF82020DCF82D
:1027A000081041F0570121F02001CCF80810002258
:1027B000012180F83D10002180F83C10BDE88040E8
:1027C000104670470122F3E77047000070B50446D9
:1027D0000068C5680669B10716D515F0020113D067
:1027E0006FF002010161012121778069800703D028
:1027F0002046FFF7E9FF05E0204600F0E9F8204613
:1028000000F022FA00202077700718D515F0040098
:1028100015D020686FF004010161022121778069E1
:1028200010F4407F03D02046FFF7CEFF05E020469E
:1028300000F0CEF8204600F007FA0020207730079D
:1028400017D515F0080014D020686FF00801016159
:1028500004212177C069800703D02046FFF7B4FF29
:1028600005E0204600F0B4F8204600F0EDF9002025
:102870002077F00618D515F0100015D020686FF0FD
:102880001001016108212177C06910F4407F03D055
:102890002046FFF799FF05E0204600F099F8204612
:1028A00000F0D2F900202077F00718BF15F00100E2
:1028B00002D1300609D412E020686FF001010161F5
:1028C000204600F047FA300609D515F0800006D002
:1028D00020686FF0800101612046FFF761FD7006FE
:1028E00009D515F0400006D020686FF04001016165
:1028F000204600F031FAB00658BF70BD15F0200038
:1029000008D021686FF0200220460A61BDE87040BF
:10291000FFF748BD70BD000080B586B0006840F686
:102920000042C4F2000200219042CDE90411CDE939
:10293000021101911BD040F20041C4F20001884213
:1029400025D0B0F1804F40D10020009043F63000F8
:10295000C4F20200016841F001010160006800F06A
:1029600001000090009820200190012021E043F612
:1029700030000091C4F20200016841F001010160E1
:10298000006800F001000090009801200FE0002096
:10299000009043F63000C4F20200016841F00101EA
:1029A0000160006800F00100009000984020019054
:1029B000022002210291002105900020CDE903119F
:1029C000C4F2020001A9FEF795FD06B080BD00002B
:1029D0007047000090F83C30012B04BF0220704784
:1029E0004FEAB202032A00F2FD802DE9F043DFE84E
:1029F00002F0023D7CBC036840F200461C6A1A6A81
:102A000024F0020422F001021A621A46D3F804C02C
:102A100052F818EF8F6843F48065C4F20106B5429E
:102A200044EA070405D1CF6824F00C0427F004071A
:102A30003C430F68B54206D1D1E905582CF44076E5
:102A40002E4346EA080C2EF073063743C3F804C041
:102A50009F614F6809695F631C629F6947F00807BF
:102A60009F619F6927F004079F61B0E0036840F20F
:102A700000481C6A1A6A24F0200422F010021A622C
:102A80001A46D3F804C052F818EF8F6843F48065F3
:102A9000C4F20108454544EA071407D1CF686FF036
:102AA000400624F0C00406EA07163443D1F800902B
:102AB000454506D1D1E905562CF440672E4347EA37
:102AC000860C2EF4E64747EA0927C3F804C09F6145
:102AD0004F6809699F631C629F6947F400679F61A3
:102AE0009F6927F480679F6170E0036840F20048A7
:102AF0001C6A1A6A24F4007422F480721A621A465C
:102B0000D3F804C052F81CEF8F6843F48065C4F218
:102B10000108454544EA072408D1CF6840F2FF4642
:102B20003F0224F4406427EA06063443D1F80090BB
:102B3000454506D1D1E905562CF440572E4347EAC6
:102B4000061C2EF0730747EA0907C3F804C0DF61CB
:102B50004F680969DF631C62DF6947F00807DF61BE
:102B6000DF6927F00407DF6131E0036840F20045C8
:102B7000D3F820C01A6A43F4806722F480521A62A4
:102B80001A465C6852F81CEFD1F800808E68C4F2D7
:102B90000105AF4204D14D6924F4804444EA851410
:102BA0002CF4005747EA06372EF4E64646EA082694
:102BB0005C60DE614E6809691E641F62DF6947F46C
:102BC0000067DF61DF6927F48067DF61090213684E
:102BD000194311600021BDE8F043002280F83C2039
:102BE000084670470121F8E7002804BF012070471C
:102BF00010B5044690F83D0028B9002084F83C0048
:102C0000204600F01FF8022084F83D002068211DB6
:102C100001F034FA012084F8460084F83E0084F87C
:102C20003F0084F8400084F8410084F8420084F8B2
:102C3000430084F8440084F8450084F83D000020F7
:102C400010BD0000704700007047000041B1082926
:102C500010D0042914BF00F1410200F13F020BE043
:102C600090F83E20012A1CBF01207047022280F804
:102C70003E2012E000F140021278012A1CBF012020
:102C800070470222082906D0042914BF80F8412089
:102C900080F83F2001E080F84020006801F01F012B
:102CA0000122036A02FA01F123EA01020262026AC6
:102CB000114341F2FF72C4F20002904201620BDC48
:102CC00040F2FF71C4F20001884213DCB0F1804F82
:102CD00035D040F2004115E040F2FF31C4F201016D
:102CE000884214DC41F60001C4F20001884226D07B
:102CF000002114E040F60001C4F2000188421ED019
:102D000040F60041C4F20001884218D01CE044F2B1
:102D10000001C4F20101884211D040F20041C4F226
:102D20000101884210D1416C40F2004340F48062BE
:102D3000C4F2010341F400419A42416404D1816824
:102D400001F00701062903D0016841F0010101608B
:102D5000002070477047000070470000002804BF43
:102D60000120704710B5044690F8410028B90020B2
:102D700084F84000204600F021F8242084F8410027
:102D80002068C16821F40051C160204601F00CFAAE
:102D90002068016921F490410161416921F02A0113
:102DA0004161C16841F40051C1600020202160648C
:102DB00084F8411084F84210606310BD80B586B07D
:102DC000006844F20042C4F2000200219042CDE9C2
:102DD0000411CDE90211019124D041F20001C4F2A5
:102DE0000101884248D1002043F630010090C4F22E
:102DF00002014A6942F010024A614A6902F0100277
:102E00000092009A0090086840F00100086008688D
:102E10004FF4C06100F00100009000980020C4F25F
:102E200002001DE043F630000091C4F20200026986
:102E300042F400320261026902F400320092009A08
:102E40000091016841F0080101600068602100F014
:102E50000800009000980020C4F2020000F54060D5
:102E60000191022102910021039103210491072184
:102E7000059101A9FEF73EFB06B080BD2DE9F043A8
:102E800081B0044690F8410020281CD189460029D1
:102E90004FF0010061D01646002A5ED00020606429
:102EA00021201D4684F84100FEF7FAFBA684E68443
:102EB000A1680646B1F5805F01D1206938B1C846E6
:102EC0004FF0000905E0022001B0BDE8F0834FF0AB
:102ED0000008E18C206829B36F1C0BE0B8F1000FEB
:102EE00019D018F8011B4160E18C0139E184E18CB3
:102EF000C1B100BF01680906F0D4002FFAD0FEF777
:102F0000CFFB01464FF0030025B3891BA94221D80E
:102F10002068C168EEE739F8021B4FF000086FF334
:102F20005F21E0E70168490613D46F1C03E000BF8E
:102F3000016849060DD4002FFAD0FEF7B1FB014617
:102F40004FF0030035B1891BA94203D82068C1683E
:102F5000EEE70020202184F8411001B0BDE8F083A5
:102F6000FEE700002DE9F04F83B007680446DDF866
:102F700034B00C9E3868994640F4806038603868F8
:102F8000904640F48070386078698A46C00714D152
:102F9000751C06E07869C00700F0C0807869C0073A
:102FA0000BD1002DFAD0FEF77BFB2768002EF1D065
:102FB000A0EB0B00B042F1D9ECE70AF0FE0AC7F82B
:102FC00010A0384650F8141F89071AD4751C08E061
:102FD0007869800740F1DD80384650F8141F890772
:102FE0000FD47969490500F19080002DF4D0FEF7E7
:102FF00057FB2768002EEBD0A0EB0B00B042EBD9BB
:10300000E6E700200290384650F8141F029141680C
:1030100002910299016809061AD4751C09E000BFE3
:103020007869000640F1A080384650F8141F090660
:103030000ED47969490563D4002DF5D0FEF730FB35
:103040002768002EECD0A0EB0B00B042ECD9E7E7EC
:10305000B9F1010F21D04FEA18203861384650F8F5
:10306000141F090619D4751C08E000BF7869000612
:103070007AD5384650F8141F09060ED479694905E7
:103080003ED4002DF5D0FEF70BFB2768002EEDD0C7
:10309000A0EB0B00B042ECD9E8E75FFA88F03861AA
:1030A000384650F8141F090619D4751C08E000BFF3
:1030B0007869000658D5384650F8141F09060ED412
:1030C000796949051CD4002DF5D0FEF7E9FA276887
:1030D000002EEDD0A0EB0B00B042ECD9E8E7386849
:1030E0004FF0011140F480703860204600223346D2
:1030F000CDF800B000F05EF838B3206800681BE03F
:103100006FF48061016004202FE0396841F40071A0
:1031100039606FF48061016004203BE000202021D1
:10312000206384F83D1084F83E00216C41F02001BA
:10313000216484F83C003868C00544BF4FF4007037
:103140002064032003B0BDE8F08F25684AF0010732
:103150000221C0F20101204632465B462F6103B0D6
:10316000BDE8F04F00F082B820200021202221632A
:1031700084F83D2084F83E10226C1043206484F8CB
:103180003C10206C042811D1386840F4007038607D
:103190000CE0202000212022216384F83D2084F8C7
:1031A0003E10226C1043206484F83C10012003B0D0
:1031B000BDE8F08F2DE9F04780460068154601F420
:1031C0007F071822B7F5803F08BF142280588CB2C1
:1031D0002040001BB0FA80F04009A84230D1DDF851
:1031E00020901E4603F1010A1EE000BFD8F800003F
:1031F0001821B7F5803F08BF142140582040001B1C
:10320000B0FA80F04009A8421DD0D8F8000018217B
:10321000B7F5803F08BF142140582040001BB0FA8A
:1032200080F04009A8420BD1BAF1000FEDD0FEF7B3
:1032300037FA002EDAD0A0EB0900B042E5D9D5E785
:103240000020BDE8F08700202021C8F8300088F871
:103250003D1088F83E00D8F8401041F02001C8F831
:10326000401088F83C000120BDE8F0872DE9F041CE
:10327000984603680446184650F8146F8FB206EA61
:103280000701B94202D10020BDE8F0811646551C65
:103290000AE000BF58693840B8421DD1184650F8BE
:1032A000141F3940B942EED0596949050BD4002D9D
:1032B000F4D0FEF7F5F92368002EEBD0A0EB080060
:1032C000B042EBD9E6E7196841F4007119606FF478
:1032D00080610160042000E0202000212022216381
:1032E00084F83D2084F83E10226C104320640120B5
:1032F00084F83C10BDE8F08180B52DED048BFEF71D
:1033000033F8B0EE408AB0EE0C0AB4EE408AF1EE2B
:1033100010FA21D19FED299A40F2B400C2F20000C8
:10332000B0EE490A01F0DCFE40F20C10C2F20000DF
:10333000B0EE490A01F0D4FE40F26410C2F200007F
:10334000B0EE490A01F0CCFE40F25C00C2F200008F
:10335000B0EE490A01F0C4FEB8EE0C0A9FED181A4F
:1033600038EE000A9FED152A20EE010A32EE409A4F
:1033700040F2B40030EE028AC2F20000B0EE490A18
:1033800001F0AEFE40F20C10C2F20000B0EE480AAE
:1033900001F0A6FE40F26410C2F20000B0EE490A4D
:1033A00001F09EFE40F25C00C2F20000B0EE480A5E
:1033B000BDEC048BBDE8804001F092BECDCC4C3E0C
:1033C000CDCC4C3D80B588B00B4802AF01900AA02F
:1033D00000F1040E9EE80E50806987E80E500790B9
:1033E00001A8002101F0F0FA40F2E811C2F2000158
:1033F000086008B080BD00BF885D0008713E00080D
:10340000000000000000000080000000000000003C
:103410000000000070B586B0002543F63000059529
:103420000095C4F20200016840F6000441F08001FA
:1034300001600168C4F2020401F08001009100996A
:1034400000950168002241F0010101600168C02679
:1034500001F00101009100990095016841F002011D
:103460000160016801F00201009100990095016876
:1034700041F004010160016801F00401009100992C
:103480000095016841F0080101600068C02100F06A
:103490000800009000982046FEF7FCF80120CDE9D6
:1034A000020501A9204601960495FEF723F806B00F
:1034B00070BD000080B540F2042045F60001C2F264
:1034C0000000C4F2000100234FF4804C42F210725D
:1034D00080E80E00C0E9033CC0E90533C0E90733CA
:1034E000FEF7E4F8002808BF80BDBDE88040FDF786
:1034F00037BF000080B540F2582045F60041C2F2C7
:103500000000C4F2000100234FF4804C42F210721C
:1035100080E80E00C0E9033CC0E90533C0E9073389
:10352000FEF7C4F8002808BF80BDBDE88040FDF765
:1035300017BF000010B58EB040F2AC200021C2F2DF
:1035400000004FF08042532344F61F640D91CDE9F3
:103550000B110991CDE90711CDE90511CDE9031151
:10356000CDE90111C0E90023C0E9021401618161C4
:10357000FEF776FF002818BFFDF7F2FE4FF48050EB
:103580000A9040F2AC20C2F200000AA9FFF74EF800
:10359000002818BFFDF7E4FE40F2AC20C2F20000A4
:1035A000FFF722FB002818BFFDF7DAFE40F2AC203F
:1035B0000024C2F2000008A9CDE90844FEF7F4FE99
:1035C000002818BFFDF7CCFE6020CDE9010440F2D1
:1035D000AC20C2F2000001A9002203940594FFF779
:1035E000F9F9002818BFFDF7BBFE40F2AC20C2F28B
:1035F0000000FFF791F90EB010BD000010B58EB0BD
:1036000040F2F42040F200420021C2F20000C4F275
:103610000002532344F61F640D91CDE90B1109916B
:10362000CDE90711CDE90511CDE90311CDE901116E
:10363000C0E90023C0E9021401618161FEF710FFB7
:10364000002818BFFDF78CFE4FF480500A9040F21E
:10365000F420C2F200000AA9FEF7E8FF002818BF14
:10366000FDF77EFE40F2F420C2F20000FFF7BCFA44
:10367000002818BFFDF774FE40F2F4200024C2F2C7
:10368000000008A9CDE90844FEF78EFE002818BF07
:10369000FDF766FE6020CDE9010440F2F420C2F29D
:1036A000000001A9002203940594FFF793F9002874
:1036B00018BFFDF755FE40F2F420C2F20000FFF7FC
:1036C0002BF90EB010BD000080B586B040F23C3042
:1036D00040F600020021C2F20000C4F200025323AF
:1036E0000591CDE90311CDE90011C0E90021C0E940
:1036F0000213016180218161FEF7B2FE002818BF2C
:10370000FDF72EFE4FF48050029040F23C30C2F2A2
:10371000000002A9FEF78AFF002818BFFDF720FE6F
:1037200040F23C30C2F200006946FEF73DFE002840
:1037300018BFFDF715FE06B080BD000010B58EB0B5
:1037400040F2843040F600420021C2F20000C4F290
:103750000002532344F61F640D91CDE90B1109912A
:10376000CDE90711CDE90511CDE90311CDE901112D
:10377000C0E90023C0E9021401618161FEF770FE17
:10378000002818BFFDF7ECFD4FF480500A9040F27E
:103790008430C2F200000AA9FEF748FF002818BFD3
:1037A000FDF7DEFD40F28430C2F20000FFF71CFAA4
:1037B000002818BFFDF7D4FD40F284300024C2F287
:1037C000000008A9CDE90844FEF7EEFD002818BF67
:1037D000FDF7C6FD6020CDE9010440F28430C2F25D
:1037E000000001A9002203940594FFF7F3F80028D4
:1037F00018BFFDF7B5FD40F28430C2F20000FFF7BC
:103800008BF80EB010BD000080B582B040F2CC3015
:1038100041F200020021C2F20000C4F20002532370
:1038200040F2E73CCDE90011C0E90023C0E9021CE9
:103830008161FEF715FE002818BFFDF791FD40F2EB
:10384000CC30C2F200006946FEF7AEFD002818BF7A
:10385000FDF786FD02B080BD80B540F2144041F214
:103860000001C2F20000C4F2010100234FF00C0C71
:103870004FF4E13280E80E00C0E90333C0E905C32C
:10388000C361FFF76BFA002808BF80BDBDE8804028
:10389000FDF766BD80B540F25C4044F20041C2F2E3
:1038A0000000C4F2000100234FF00C0C4FF4E13291
:1038B00080E80E00C0E90333C0E905C3C361FFF728
:1038C0004DFA002808BF80BDBDE88040FDF748BD27
:1038D000FEE7000080B52DED068B9FED1B8A9FED66
:1038E0001B1A20EE080A80EE019A9FED19AA40F2F9
:1038F000B400C2F20000B0EE4A0AF0EE490A01F04C
:103900005FFB40F20C10C2F20000B0EE480AF0EE8D
:10391000490A01F055FB40F26410C2F20000B0EE1B
:103920004A0AF0EE490A01F04BFB40F25C00C2F299
:103930000000B0EE480AF0EE490ABDEC068BBDE887
:10394000804001F03DBB00BFF5DB973E0000B44274
:10395000F5DB97BE80B52DED048B9FED189AB0EE88
:10396000408A40F2B400C2F20000B0EE490AF0EE24
:10397000480A01F025FB40F20C10C2F20000B0EE44
:10398000490AF0EE480A01F01BFB40F26410C2F253
:103990000000B0EE490AF0EE480A01F011FB40F2D7
:1039A0005C00C2F20000B0EE490AF0EE480ABDEC3D
:1039B000048BBDE8804001F003BB00BFCDCC4CBE02
:1039C00080B52DED048B9FED189AB0EE408A40F241
:1039D000B400C2F20000B0EE490AF0EE480A01F06D
:1039E000EFFA40F20C10C2F20000B0EE490AF0EE1D
:1039F000480A01F0E5FA40F26410C2F20000B0EEAD
:103A0000490AF0EE480A01F0DBFA40F25C00C2F22B
:103A10000000B0EE490AF0EE480ABDEC048BBDE8A8
:103A2000804001F0CDBA00BFCDCC4C3E80B52DED2D
:103A3000048B9FED199AB0EE408A40F2B400C2F2B6
:103A40000000B0EE490AF0EE480A01F0B9FA40F27F
:103A50000C10C2F20000B0EE490AF0EE480A01F084
:103A6000AFFA9FED0E9A40F26410C2F20000B0EE81
:103A7000490AF0EE480A01F0A3FA40F25C00C2F2F3
:103A80000000B0EE490AF0EE480ABDEC048BBDE838
:103A9000804001F095BA00BFCDCC4C3ECDCC4CBEA1
:103AA00080B52DED048B9FED199AB0EE408A40F25F
:103AB000B400C2F20000B0EE490AF0EE480A01F08C
:103AC0007FFA40F20C10C2F20000B0EE490AF0EEAC
:103AD000480A01F075FA9FED0E9A40F26410C2F2A6
:103AE0000000B0EE490AF0EE480A01F069FA40F22F
:103AF0005C00C2F20000B0EE490AF0EE480ABDECEC
:103B0000048BBDE8804001F05BBA00BFCDCC4CBE59
:103B1000CDCC4C3EFEE7000000000000000000009D
:103B2000EFF30980BFF36F8F154B1A681EF0100F6B
:103B300008BF20ED108A20E9F04F10602DE9090040
:103B40004FF0500080F31188BFF34F8FBFF36F8F9A
:103B500001F050FD4FF0000080F31188BDE809002E
:103B600019680868B0E8F04F1EF0100F08BFB0ECFD
:103B7000108A80F30988BFF36F8F704700BF00BFC2
:103B8000AC04002040F2AC20C2F2000000684FF408
:103B9000FA7141637047000040F2AC20C2F20000AD
:103BA000006840F6C411416370470000F0B585B06D
:103BB00040F258240020C2F20004ADF812004FF485
:103BC0007A7501260DF1120720469821DD22012386
:103BD000CDE900760295FDF719FE781CCDE90006C7
:103BE00020469A21DD2201230295FDF70FFE9DF864
:103BF000121040F2F4129DF8130001F00103C2F21A
:103C00000002137040F2FC1300F00107C2F200033F
:103C10001F70C1F340075770C0F340075F70C1F3D6
:103C200080079770C0F380079F70C1F3C007D770FB
:103C3000C0F3C007DF70C1F300171771C0F300179E
:103C40001F71C1F340175771C0F340175F71C1F383
:103C500080179771C0F38017C909C0099F71D1718E
:103C6000D87105B0F0BD0000F0B583B040F2042477
:103C700040F2BC17C2F200044FF47A750326C2F278
:103C8000000720469021D0220123CDE9007602953D
:103C9000FDF7BCFDF81CCDE9000620469021D1229D
:103CA00001230295FDF7B2FD03B0F0BD0000000056
:103CB000074B19680868B0E8F04F80F30988BFF334
:103CC0006F8F4FF0000080F31188704700BF00BF76
:103CD000AC0400202DE9F04F81B040F2D818C2F2B8
:103CE000000898F8000040F2BC1740F2C81A40F2F1
:103CF000A84B40F2C4160228C2F20007C2F2000A22
:103D0000C2F2000BC2F2000621D17879EF2801D16E
:103D1000022012E001244FF4C84500BFFFF7A4FFC2
:103D2000012001F08BFB7879CAF80040EF28CBF82E
:103D300000503460F2D198F8000041F20062012195
:103D4000C0F20D02CAF80010CBF8002031604CF22E
:103D500000490328C0F2090904D0012821D001B08C
:103D6000BDE8F08F7879EF2801D1032011E001241C
:103D70004FF4C845FFF778FF012001F05FFB787929
:103D8000CAF80040EF28CBF800503460F2D198F820
:103D900000000121CAF80010CBF800903160012822
:103DA000DDD17879EF2810D001244FF4C84500BF49
:103DB000FFF75AFF012001F041FB7879CAF8004073
:103DC000EF28CBF800503460F2D10120CAF800008F
:103DD000CBF80090306001B0BDE8F08F000000002B
:103DE00080B510EE100A40F2C8120021B5EE400A6C
:103DF000C2F2000220F00040F1EE10FAC8BF01212B
:103E00001160FCF739FB9FED0E0B53EC102BFCF708
:103E10001AFAFCF718FBC11700EB517140F2A842E7
:103E20000730C910C2F200020F28116038BF80BDF0
:103E300040F2C410C2F200000121016080BD00BF49
:103E4000000000000000F94040F2F420C2F200003F
:103E500000684FF4FA7141637047000040F2F420AB
:103E6000C2F20000006840F6C411416370470000D0
:103E7000012000F09BFDFBE7DDF800C0016042631C
:103E800080F8383080ED0F0A80F840C0704700009D
:103E900080B52DED028B9FED138A40F2B400C2F283
:103EA0000000B0EE480A01F01BF940F20C10C2F21B
:103EB0000000B0EE480A01F013F940F26410C2F2BB
:103EC0000000B0EE480A01F00BF940F25C00C2F2CB
:103ED0000000B0EE480ABDEC028BBDE8804001F066
:103EE000FFB800BF0000000080B5FDF79BFE01F0A9
:103EF0000DFD012808BF80BDBDE8804001F082BCF7
:103F0000B0B592B0002443F64000CDE90A44CDE9B3
:103F100008440594CDE90344CDE901440094C4F27A
:103F200002000168022541F080510160006800F044
:103F300080500090009847F200000094C4F2000006
:103F4000016841F480410160006800F48040009005
:103F50000098012006904FF4803007904FF48000C5
:103F60000D9019200E904FF4A870CDE90F05042094
:103F7000119006A80C95FEF743F810B172B600BF79
:103F8000FEE70F20CDE901054FF4A05004904FF457
:103F90008050059001A805210394FDF725FF10B17D
:103FA00072B600BFFEE712B0B0BD00004EF68850FA
:103FB000CEF20000016841F470010160704700001A
:103FC000F0B581B040F2C416C2F200063068012894
:103FD0004BD140F2C810C2F20000006840F6000465
:103FE0000138C4F20204B0FA80F042092046802170
:103FF000FDF750FB40F2CC15C2F2000528680128FD
:1040000024D090BB40F2A847C2F20007386828B31A
:10401000204640210122FDF73DFB40F2D01040F246
:104020000801C2F20000C2F20001026809683B68A0
:104030000132013B8A424FF0000102603B60A4BFA5
:10404000016001212868084428600EE020464021D4
:1040500000220024FDF71EFB2C6006E040F2D41184
:104060000020C2F200013060086040F23C30C2F231
:10407000000001B0BDE8F040FEF7A8BBB0B540F6C7
:10408000FF3E0568C4F2000E40F2004C7045C4F2D9
:10409000010C0FDCB0F1804F19D040F20043C4F2A4
:1040A0000003984213D040F60003C4F20003984284
:1040B0000DD011E040F60043C4F20003984206D050
:1040C000604504D00023C4F20103984204D14B6838
:1040D00025F0700243EA020541F6FF73C4F20003C3
:1040E00098420DDC70451FDCB0F1804F41D040F2AA
:1040F0000043C4F2000398423BD040F6000321E0A5
:1041000043F6FF73C4F20103984220DC42F200033D
:10411000C4F2000398422CD00023C4F20103984259
:1041200027D0604525D029E040F60043C4F20003C3
:1041300098421ED041F60003C4F20003984218D002
:1041400041F60043C4F20003984212D016E044F254
:104150000003C4F2010398420BD044F60003C4F2FA
:104160000103984205D044F20043C4F2010398428F
:1041700004D1CB6825F4407243EA02050A688C68D2
:104180004B69C46240F480648262644504BF09697B
:104190000163026825F0800142F0040219430260C5
:1041A000012242610160B0BD10B504460068D4E947
:1041B00002C22369016921F440511143016162691E
:1041C00043EA0C01E3691143C268194349F20C63E5
:1041D0009A431143C1604169A26921F4407141F2DF
:1041E0000043114340F48062C4F201039A424161EA
:1041F00002D1FDF7BDFE01E0FDF7A6FEE1696368AF
:104200001922B1F5004FA0FB020120D15A00DB0FAB
:10421000FBF7D6FF48F21F51C5F2EB11A0FB0123BB
:104220005A094FF69C73C0F6FF7303F1805302FBEB
:104230000300322303EBC000A0FB01014FF4F87030
:1042400000EA111000EB0210C1F342111CE09A00C9
:104250009B0FFBF7B5FF48F21F51C5F2EB11A0FB16
:1042600001235A094FF69C73C0F6FF7302FB03004B
:10427000322303EB0010A0FB0101F02000EA5110F3
:1042800000EB0210C1F3431108442168886010BD9F
:1042900040F2BC10C2F20000C178A1F16400C0B2CB
:1042A000782840F2D810C2F2000006D80122DB299B
:1042B000027007D902210170704701F12402D2B2C5
:1042C0002F2AF7D30B39C9B2582988BF7047032169
:1042D00001707047FEE700004FF4FA6148434BF667
:1042E000D711C0F2F201A0FB010140F28430C2F20A
:1042F0000000006801F5FA714163704770B514461B
:104300000546D0E903020E46511C2961C90001F09F
:10431000F9FC2969E86000EBC10040E9026470BD66
:1043200080B50C2001F08EFC0021C0E900118160F5
:1043300080BD00002DE9F04107461420984615463F
:104340000E4601F07FFC04460020C4E90300D7E9D3
:104350000101C4E900650131B9608900C4F8088031
:1043600001F0D0FCB968786000EB8101204641F88B
:10437000044CBDE8F0810000F0B581B0044600684F
:10438000A0B10D4681682846884720680169012947
:104390000CDB0026C76807EBC60041682846884743
:1043A00030B92068013601698E42F3DB01B0F0BDFF
:1043B00057F83600206001B0F0BD00000160704782
:1043C000FDF73EFCFFF79CFDFFF724F8FFF792F89E
:1043D000FFF760FAFFF76EF8FFF7ACF8FFF70EF99A
:1043E000FFF7ACF9FFF770F9FFF70EFAFFF734FAB1
:1043F00040F23C30C2F20000FEF7C4F840F2CC308C
:10440000C2F20000FEF7BEF840F2AC20C2F200009B
:104410000021FEF71BFC40F2F420C2F20000002154
:10442000FEF714FC40F28430C2F200000021FEF7D7
:104430000DFC40F6B830FDF749F800F007F8FEF73C
:10444000C1FF00F0BBFA00BFFEE70000F0B581B08D
:104450002DED028B82B0012040F214449FED3A8A88
:10446000009040F25C00C2F20004C2F2000002219F
:1044700022460023B0EE480A02250027FFF7FCFC85
:104480000A2000F0DBFF40F2B400C2F2000001217C
:1044900022460123B0EE480A0097FFF7EDFC0A2000
:1044A00000F0CCFF40F20C10C2F2000003212246C3
:1044B0000023B0EE480A00970326FFF7DDFC0A2030
:1044C00000F0BCFF40F26410C2F20000042122465A
:1044D0000123B0EE480A0097FFF7CEFC0A2000F057
:1044E000ADFF00F04BF84120FFF7F6FEFFF74AFB67
:1044F000FFF7AAFC4FF47A7000F0A0FF40F2A44747
:1045000044F62110C2F20007C0F600000FA14FF4DC
:10451000FA620023CDE9006701F08CF940F24857B8
:1045200044F69D70C2F20007C0F600000BA14FF4E4
:1045300016720023CDE9005701F07CF902B0BDEC02
:10454000028B01B0F0BD00BF2DB29D3D4D6F74696F
:104550006F6E50726F6365737300000053656E7306
:104560006F7250726F6365737300000040F2580001
:10457000C2F2000000680021FFF7FEBE2DE9F04FF7
:1045800081B0FFF7CDFE40F2580640F68143C2F2FB
:104590000006B8A2C0F6000300213060FFF7CAFE93
:1045A00040F238023168C2F2000240F6095310604E
:1045B0001446B2A2C0F6000308460121FFF7BAFE76
:1045C00040F23C0B3168C2F2000B45F6A35240F6B4
:1045D0006563CBF80000C0F60002C0F60003084691
:1045E0000221FFF7A7FE40F240093168C2F200093C
:1045F00045F6945241F27113C9F80000C0F600026A
:10460000C0F6000308460321FFF794FE40F24C0574
:104610003168C2F2000540F2C953286099A2C0F681
:10462000000308460421FFF785FE40F220023168AE
:10463000C2F2000240F62913106096A2C0F60003F1
:1046400008460521FFF776FE40F22C023168C2F2DF
:10465000000240F63973106091A2C0F600030846CC
:104660000621FFF767FE40F244023168C2F2000201
:1046700041F21923106090468EA2C0F6000308464E
:104680000721FFF757FE40F250023168C2F20002E4
:1046900040F29163106017468AA2C0F600030846F4
:1046A0000821FFF747FE40F224023168C2F20002FF
:1046B00040F67923106087A2C0F60003084609215E
:1046C000FFF738FE40F230023168C2F2000241F2D8
:1046D0002D03106082A2C0F6000308460A21FFF7EE
:1046E00029FE40F248023168C2F2000241F2C123C1
:1046F000106080A2C0F6000308460B21FFF71AFEE7
:1047000040F254023168C2F2000240F27573106048
:104710007CA2C0F6000308460C21FFF70BFE40F216
:1047200028023168C2F2000240F67D33106079A29F
:10473000C0F6000308460D21FFF7FCFD40F23403EC
:10474000226840F6B154C2F20003DBF80010C0F654
:104750000004186010462246FFF7D0FDDBF8000089
:10476000D9F8001040F6C552C0F60002FFF7C6FDAA
:10477000D9F8000029682246FFF7C0FD286840F2FA
:104780002005C2F2000529682246FFF7B7FD286818
:1047900040F22C05C2F2000529682246FFF7AEFD63
:1047A00040F6ED5A2868D9F80010C0F6000A5246C3
:1047B000FFF7A4FDDBF80000D8F8001040F6116206
:1047C000C0F60002FFF79AFDD8F8000039682246CB
:1047D000FFF794FD386840F22407C2F200073968F9
:1047E0002246FFF78BFD386840F23007C2F200071F
:1047F00039682246FFF782FD3868D8F80010524623
:10480000FFF77CFD40F24807C2F20007DBF800002A
:10481000396840F63962C0F60002FFF76FFD40F2DA
:104820005405C2F20005386829682246FFF766FD84
:10483000286840F22805C2F2000529682246FFF7E1
:104840005DFD286840F23405C2F200052968224661
:10485000FFF754FD286839685246FFF74FFD40F2D4
:104860003801C2F200013068096801B0BDE8F04FBC
:10487000FFF7A4BD426567696E0000004361727274
:10488000794100004261636B5F626567696E413127
:10489000000000004261636B5F656E64413100009F
:1048A00044656C69766572795F626567696E4132ED
:1048B0000000000044656C69766572795F656E641E
:1048C000413200004261636B5F626567696E41322D
:1048D000000000004261636B5F656E64413200005E
:1048E00044656C69766572795F626567696E4133AC
:1048F0000000000044656C69766572795F656E64DE
:10490000413300004261636B5F626567696E4133EA
:10491000000000004261636B5F656E64413300001C
:10492000FFF724FE322000F089FDF9E780B52DED78
:10493000068B9FED1B8A9FED1B1A20EE080A80EE66
:10494000019A40F2B400C2F20000B0EE480AF0EE64
:10495000490A00F035FB9FED14AA40F20C10C2F298
:104960000000B0EE4A0AF0EE490A00F029FB40F2DE
:104970006410C2F20000B0EE480AF0EE490A00F0FE
:104980001FFB40F25C00C2F20000B0EE4A0AF0EEFB
:10499000490ABDEC068BBDE8804000F011BB00BFAA
:1049A000F5DB973E0000B442F5DB97BE80B50128E9
:1049B00098BF012000F042FD002080BD80B500F0CE
:1049C0009FFD002080BD0000B0B584B043698E46D5
:1049D00093B1846984B10589D0E9001C026928B2C9
:1049E000843D18BFC51CCDE9005360467346029450
:1049F00000F050FF04B0B0BD0589D0E90013028A71
:104A000028B2843D18BFC51C03AC18467346CDE9D7
:104A1000005400F00FFF0399012818BF0021084639
:104A200004B0B0BD2DE9F04381B0044600F03EFC77
:104A300044F25810C2F20000016840F2AC46013165
:104A40000160C2F20006316844F2204740F2BC45E2
:104A5000C2F20007C2F2000549B13868002851D1FE
:104A60003068E16AC06A884298BF34604AE03460C6
:104A70000068012846D1284600F0C0FB05F114006B
:104A800000F0BCFB05F1280000F0B8FB05F13C008C
:104A900000F0B4FB05F1500000F0B0FB05F164003C
:104AA00000F0ACFB05F1780000F0A8FB44F27018B0
:104AB000C2F20008404600F0A1FB44F28419C2F2A1
:104AC0000009484600F09AFB44F20C40C2F2000094
:104AD00000F094FB44F24040C2F2000000F08EFB74
:104AE00044F22C40C2F2000000F088FB40F2B040DB
:104AF000C2F20000C0F8008040F2B840C2F20000EC
:104B0000C0F8009044F26410C2F20000016844F260
:104B1000681201310160E06AC2F2000201211368EB
:104B20008140194300EB8000116005EB8000211DDE
:104B300000F0A4FB00F0DEFB386878B13068E16A71
:104B4000C06A88420AD24EF60450CEF200004FF0FE
:104B500080510160BFF34F8FBFF36F8F01B0BDE88D
:104B6000F083000044F25C1540F2BC4A4EF6045853
:104B700044F2404744F25816C2F20005C2F2000A5D
:104B8000CEF200084FF08059C2F20007C2F20006D0
:104B900003E000BF204600F0C5FB2868C8B100F064
:104BA00085FBF868C468201D00F008FB30680138F8
:104BB000306028680138286000F09CFB94F85100B0
:104BC0000228EAD00128E5D070B9206B00F0AAFBDA
:104BD000E0E7DAF800000228DFD3C8F80090BFF35E
:104BE0004F8FBFF36F8FD8E74FF0500080F31188DD
:104BF000BFF36F8FBFF34F8FFEE700002DE9F04743
:104C0000DDE909878246386B089C00EB8200043896
:104C10009946002920F0070655D0087887F8340017
:104C2000087800284BD0487887F835004878002865
:104C300045D0887887F83600887800283FD0C87833
:104C400087F83700C878D0B3087987F83800087932
:104C5000A8B3487987F83900487980B3887987F80C
:104C60003A00887958B3C87987F83B00C87930B3DF
:104C7000087A87F83C00087A08B3487A87F83D003C
:104C8000487AE0B1887A87F83E00887AB8B1C87A65
:104C900087F83F00C87A90B1087B87F84000087B0E
:104CA00068B1487B87F84100487B40B1887B87F832
:104CB0004200887B00281CBFC87B87F84300002087
:104CC00087F8430002E0002087F834000025381DF3
:104CD000062C28BF0624FC62C7E9114500F09AFAA9
:104CE00007F1180000F096FA84F00700B86130462A
:104CF00051464A463F617F62FD6487F8505000F09C
:104D00003BF9B8F1000F386018BFC8F80070BDE873
:104D1000F087000008480068006880F308884FF0BA
:104D2000000080F3148862B661B6BFF34F8FBFF303
:104D30006F8F00DF00BF000008ED00E081B00020B1
:104D4000009040F21800C2F2000000684FF05001DD
:104D500081F31188BFF36F8FBFF34F8F013007D0FE
:104D6000FEE700BF009830B9009820B9009810B94C
:104D700000980028F6D001B0704700002DE9F041FE
:104D8000044600F02FFC40F2B441C2F20001086872
:104D900044F26C18C2F2000830B198F80000002804
:104DA00018BF4FF000402BE040F24C50C2F2000020
:104DB000C21D430700F5705318BF22F0070044F2EC
:104DC0002442C2F200020027C2E9000723F00702D2
:104DD000A2F108030B6042E902771A1A0B68C0E9D6
:104DE000003244F2F430C2F20000026044F2981043
:104DF000C2F200000260012088F800004FF000407D
:104E0000002C4FF0000500F0A780204040F0A48067
:104E100024F0070044F2981E00F110056007C2F26A
:104E2000000E08BF04F10805DEF800006A1E824289
:104E300041D244F22443C2F2000318684468AC42F1
:104E400023D202680AB306465468AC4213D21768EC
:104E50008FB17C68AC4211D23B687BB15C68AC42DC
:104E60000FD21E686EB17468AC420DD23268304603
:104E7000002AE9D109E01046334606E038461346D9
:104E800003E018463B4600E030460A68904212D0E4
:104E9000D3F800C00668621B112A1E603CD3441977
:104EA00063070AD04FF0500080F31188BFF36F8F73
:104EB000BFF34F8FFEE700254EE044F22443C2F2D9
:104EC00000036260456000BF1A68A2420AD21368FC
:104ED000A3420AD21A68A24204D213681546A3421A
:104EE000F2D303E01D46134600E015466E68626883
:104EF000AF19A74202D132442C466A60A6189E42DE
:104F000006D109688B4203D0D3E9003111446160B6
:104F1000A542236018BF2C6044F2F4324168DEF8E9
:104F20000030C2F2000214685B1AA342CEF80030CF
:104F300038BF136098F8002044F20043C2F2000327
:104F4000002A18BF41F000411F6800220CF108053B
:104F5000C0E90021781C186000F0ACFD680708D09B
:104F60004FF0500080F31188BFF36F8FBFF34F8F66
:104F7000FEE72846BDE8F081034644F63D5021F0A7
:104F80000101C0F600004FF0807C03E903106FF0D0
:104F90000201A3F1440043E909127047FEF764FEE1
:104FA000012000F04BFAFFF773F9012000F046FAF8
:104FB000FEF7FCFD012000F041FAEFE700000000E1
:104FC0002DE9F0412DED048BB0EE409A9FED420AA1
:104FD000044629EE000A10EE100AB0EE608AFBF7D4
:104FE0004BFA0546E06B8846FBF746FA9FED360B19
:104FF00053EC102BFBF727F906460F46284641468F
:1050000032463B46FBF791F9FBF7FEF90546608710
:1050100018EE100AFBF730FA32463B46FBF785F9EB
:105020009FED2B0B53EC102BFBF70DF9FBF70BFA55
:1050300094F83810B5F1FF3F01DDAAB205E0B1FAEE
:1050400081F16D424909AAB265872368264606F8B0
:10505000413FB17000217171010EB171010CF1710C
:10506000010A70724FF48070120AFD233172708150
:105070006B2156F80D0C7370F270317331460D22AE
:105080004FF47A733571FDF7F9FE012000F0D6F97F
:1050900016F8010C78B14FF60071C6F66631606BF8
:1050A000C4F84110314604224FF47A73FDF7E6FE4E
:1050B000012000F0C3F984ED099A84ED0A8ABDEC61
:1050C000048BBDE8F08100BF1F85EB51B81E09407D
:1050D000000000000000A940000070420000000035
:1050E000F0B581B0054600682C4604F8410F9FEDED
:1050F000321AA4F11D0080ED000A20EE010A10EE24
:10510000100AFBF7B9F9064654F8050C0F46FBF7F1
:10511000B3F99FED270B53EC102BFBF794F80246E5
:105120000B4630463946FBF700F9FBF76DF901B243
:1051300080EAE13714F8092CA7EBE13124F8070CD9
:1051400000284FEA1120B2FA82F3D8BF5A09E07062
:105150004FF48070F6232171A4F805006B2154F8F8
:105160000D0C6370A270E171214608224FF47A732E
:10517000FDF784FE022000F061F914F8010C90B1F3
:105180004FF60071C6F66631686BC5F841102146CE
:1051900004224FF47A73FDF771FE022001B0BDE8DE
:1051A000F04000F04BB901B0F0BD00BF00BF00BF40
:1051B0001F85EB51B81E094000007042D0E9013252
:1051C00001699A60D1F804C082688445536008BFC1
:1051D0004A60002202610868013808600868704768
:1051E00044F2A033C2F20003036044F29C10C2F206
:1051F0000000086080201060704700004FF0FF3111
:10520000024642F8081F00214260C0E90322016003
:1052100070470000002101617047000010B5D1F80F
:1052200000E01EF1010213D000F108046268136867
:10523000734511D853681C68744510D85A681468AF
:1052400074450ED854682368A4467345EED90AE025
:105250000269D2F804C006E09446224603E09C4668
:1052600001E094461A46C1F804C0CCF808108A60E0
:105270005160086101680131016010BDD0F800C0C3
:10528000436808619A684B608A609A6899605160C7
:105290000CF1010101607047DFF80C00016841F476
:1052A000700101607047000088ED00E04FF0500091
:1052B00080F31188BFF36F8FBFF34F8F40F2180058
:1052C000C2F2000001684A1C026001B170474EF64C
:1052D0000450CEF200000068000608BF70474FF08F
:1052E000500080F31188BFF36F8FBFF34F8F00BF63
:1052F000FEE7000040F21800C2F20000016839B178
:105300000139016018BF7047002080F31188704791
:105310004FF0500080F31188BFF36F8FBFF34F8FB2
:10532000FEE70000B0B5002808BFB0BD044644F257
:105330006C10C2F20000007854F8041C002818BF5A
:105340004FF0004008420CD0A4F108052A6892B141
:105350004FF0500080F31188BFF36F8FBFF34F8F72
:10536000FEE74FF0500080F31188BFF36F8FBFF35B
:105370004F8F00BFFEE721EA000044F8040C00F064
:1053800031F944F29810C2F2000054F8041C02688B
:105390000A44026044F22440C2F200000368AB42B7
:1053A0000AD21868A8420AD20368AB4204D218682D
:1053B0001A46A842F2D303E00246184600E01A4615
:1053C0005368D418AC4202D11944154651606B1889
:1053D00083420AD140F2B443C2F200031B689842F0
:1053E00003D0D0E9000319446960286044F2044006
:1053F000AA4218BF1560C2F20000016801310160C5
:10540000BDE8B04000F056BB4EF21000CEF20000F6
:1054100000210160816040F20C01C2F200010968C4
:1054200044F6D352C1F26202A1FB02124FF0FF31E7
:1054300001EB9211416007210160704770B50028AF
:1054400051D0044644F26010C2F20000016841B13C
:105450004FF0500080F31188BFF36F8FBFF34F8F71
:10546000FEE7016840F2AC450131016044F254406E
:10547000C2F20000C2F20005066828680430FFF797
:105480009DFE60B9286844F26812C06AC2F2000248
:105490000121136801FA00F023EA00001060286877
:1054A000A419446009D340F2B840C2F20000006879
:1054B00029680431FFF7B2FE10E040F2B040C2F2BA
:1054C0000000006829680431FFF7A8FE44F2F830B4
:1054D000C2F2000001688C4238BF046000F0EAFAB2
:1054E000002818BF70BD4EF60450CEF200004FF0F9
:1054F00080510160BFF34F8FBFF36F8F70BD00000D
:10550000B0B588B00020CDE9050006A805A904AA19
:10551000FFF766FE0598002842D0069C002C48D074
:105520005421049A0791079954294CD10799206373
:10553000022084F8510007A80025CDE9005044F668
:105540006530C0F6000025A100230294FFF756FB4A
:105550002046FFF767FA079844F29C31C2F2000137
:105560000860D8B14FF0500080F31188BFF36F8FFF
:10557000BFF34F8F44F2F830C2F200004FF0FF311A
:10558000016044F22040C2F200000121016044F2B7
:105590005440C2F20000056000F06EF808B0B0BDE3
:1055A0004FF0500080F31188BFF36F8FBFF34F8F20
:1055B000FEE74FF0500080F31188BFF36F8FBFF309
:1055C0004F8F00BFFEE74FF0500080F31188BFF30C
:1055D0006F8FBFF34F8F00BFFEE700BF49444C45BC
:1055E0000000000044F26010C2F2000001680131C6
:1055F0000160704744F26010C2F20000006830B1F0
:1056000044F25840C2F2000001210160704744F2A8
:105610005840C2F200000021016044F26810C2F25A
:1056200000000068B0FA80F0C0B2C0F11F0040F284
:10563000BC4100EB8000C2F2000151F820208AB189
:1056400001EB800151F8040F40680A1D9042086088
:1056500001D140680860C06840F2AC41C2F200016C
:10566000086070474FF0500080F31188BFF36F8FD0
:10567000BFF34F8FFEE70000B0B584B04EF2004C90
:10568000CEF2000C4CF27021C4F20F11DCF80029AC
:105690004B1C9A4209D14FF0500080F31188BFF3A0
:1056A0006F8FBFF34F8F00BFFEE7DCF800298A42FF
:1056B00009D14FF0500080F31188BFF36F8FBFF313
:1056C0004F8F00BFFEE79CF8001044F24C1202918D
:1056D000FF218CF800109CF80010C2F200028DF837
:1056E00007109DF8071001F05001117044F250119D
:1056F000C2F2000107220A609DF90720B2F1FF3FC4
:1057000069DC0322D31C0B609DF8070040008DF874
:1057100007009DF90700B0F1FF3F24DC931C0B60EC
:105720009DF8070040008DF807009DF90700B0F1D3
:10573000FF3F18DC531C0B609DF8070040008DF8FC
:1057400007009DF90700B0F1FF3F0CDC0A609DF8EF
:105750000700043A40008DF807009DF90700B0F1FA
:10576000FF3FCFDD131D032B35D14FF44070086090
:1057700002988CF80000DCF8200940F47000CCF8A6
:105780002009DCF8200940F07040CCF82009FFF730
:105790003BFE40F21804C2F2000400252560FFF72A
:1057A0007BFD4EF63470CEF20000016841F04041BE
:1057B0000160FFF7AFFAFFF71DFF039520684FF078
:1057C000500181F31188BFF36F8FBFF34F8F01300A
:1057D00011D000BFFEE74FF0500080F31188BFF3F7
:1057E0006F8FBFF34F8F00BFFEE7039830B9039868
:1057F00020B9039810B903980028F6D0002004B00F
:10580000B0BD000080B54FF0500080F31188BFF3A9
:105810006F8FBFF34F8F00F08DF830B14EF604500C
:10582000CEF200004FF080510160002080F311881B
:1058300080BD00002DE9F04383B0074690009846F4
:1058400015468946FFF79AFAF0B106465420FFF74D
:1058500095FAB0B10446DDE90A100022266384F807
:105860005120CDE90010384649462A464346029465
:10587000FFF7C4F92046FFF7D5F8012003B0BDE8D3
:10588000F0833046FFF74EFD4FF0FF3003B0BDE828
:10589000F083000070B586B00B9CCCB10C9E06B3B3
:1058A00054250495049D542D25D1049DDDF828C070
:1058B000022586F8515005AD3463CDE900C5029646
:1058C000FFF79CF93046FFF7ADF8059806B070BDBC
:1058D0004FF0500080F31188BFF36F8FBFF34F8FED
:1058E000FEE74FF0500080F31188BFF36F8FBFF3D6
:1058F0004F8F00BFFEE74FF0500080F31188BFF3D9
:105900006F8FBFF34F8F00BFFEE7000044F22040CF
:10591000C2F200000068002804BF0120704744F272
:105920006010C2F200000068B0FA80F04009400048
:10593000704700002DE9F04F81B044F26010C2F2D0
:105940000000006840B144F20840C2F20000016863
:10595000002401310160A9E044F25440C2F2000089
:1059600001684E1C06602ED340F2B040C2F2000027
:105970000168096849B14FF0500080F31188BFF306
:105980006F8FBFF34F8F00BFFEE740F2B842C2F205
:105990000002016813680360116044F2FC31C2F236
:1059A00000010A6801320A600168096821B10068D3
:1059B000C068C068406801E04FF0FF3044F2F83141
:1059C000C2F20001086044F2F831C2F20001086836
:1059D00040F2AC4A8642C2F2000A01D200244FE0F3
:1059E00040F2B04BC2F2000BDBF80000002400686C
:1059F000E0B344F268190127C2F2000920E000BFB9
:105A0000D8F82C00D9F8001007FA00F21143C9F8B1
:105A1000001040F2BC4100EB8000C2F2000101EB3B
:105A200080002946FFF72AFCD8F82C00DAF800108D
:105A3000C96ADBF800208842106828BF3C46C0B124
:105A4000DBF80000C068D0F80C80454655F8040F1C
:105A5000864210D32846FFF7B1FBD8F8280000286B
:105A6000CED008F11800FFF7A9FBC9E74FF0FF30CF
:105A700005E04FF0FF3044F2F831C2F20001086057
:105A8000DAF8000040F2BC41C06AC2F2000100EB4B
:105A9000800051F82000012844F25840C2F2000072
:105AA00088BF01240068002818BF0124204601B0E7
:105AB000BDE8F08F2DE9F04F81B044F26014C2F2DE
:105AC0000004206868B1FFF7F1FB2068013820600E
:105AD000206880B10024FFF70DFC204601B0BDE82E
