:020000040800F2
:10000000606C00209D0100086D3D0008B9310008BA
:10001000293B0008050E0008A54600080000000066
:10002000000000000000000000000000013F000888
:10003000610F000800000000713D000891400008B9
:10004000B7010008B7010008B7010008B7010008B0
:10005000B7010008B7010008B7010008B7010008A0
:10006000B7010008B7010008B7010008B701000890
:10007000B7010008B7010008B7010008B701000880
:10008000B7010008B7010008B7010008B701000870
:10009000B7010008B7010008B7010008B701000860
:1000A000B7010008B7010008B7010008B701000850
:1000B000B7010008B701000869410008B70100084E
:1000C000B7010008B7010008B7010008B701000830
:1000D000B7010008B7010008B7010008B701000820
:1000E000B7010008B7010008B7010008B701000810
:1000F000B7010008B7010008B7010008B701000800
:10010000B7010008B7010008B7010008B7010008EF
:10011000B7010008B7010008B7010008B7010008DF
:10012000B7010008B7010008B7010008B7010008CF
:10013000B7010008B7010008B7010008B7010008BF
:10014000B7010008B7010008B7010008B7010008AF
:10015000B7010008B7010008B7010008B70100089F
:10016000B7010008B7010008B7010008B70100088F
:10017000B7010008B7010008B7010008000000003F
:10018000B7010008B7010008DFF80CD000F004FA4E
:100190000048004791470008606C002006488047EF
:1001A00006480047FEE7FEE7FEE7FEE7FEE7FEE75C
:1001B000FEE7FEE7FEE7FEE755410008890100087B
:1001C0002DE9F05F0546002092469B46884606468C
:1001D000814640241BE0284641464746224600F01F
:1001E0006DF953465A46C01A914110D3114618462C
:1001F000224600F054F92D1A67EB01084F462246BB
:100200000120002100F04BF917EB00094E41201EA0
:10021000A4F10104DFDC484631462A464346BDE8E6
:10022000F09F40EA01039B0703D009E008C9121FB1
:1002300008C0042AFAD203E011F8013B00F8013BA0
:10024000521EF9D270472DE9FE4F81EA030404F0F3
:10025000004421F0004100944FF0000B23F00043D4
:1002600050EA01045ED052EA03045BD0C3F30A549F
:10027000C1F30A552C44A4F2F3340194A0FB0254B8
:10028000C1F3130141F48011C3F3130343F480134A
:1002900001FB024400FB034E840A970A44EA81549E
:1002A00047EA8357A4FB076802958D0A05FB07857B
:1002B0004FEA932C04FB0C542705029D4FEA065885
:1002C00047EA1637B5EB08056EEB070C870E920E62
:1002D00047EA811742EA8312A7FB0201B6EB0B0142
:1002E00064EB00042B0D43EA0C335E1844EB1C5006
:1002F000DA465146E7FB0201C5F313044FEA0B331C
:1003000043EA14534FEA0432019C43EA0603A4F182
:100310000C040294009CCDE900B400F0EEF803B0A8
:10032000BDE8F08F00200146F9E72DE9F04D81EAA4
:10033000030404F0004B21F0004514464FF0000A7E
:1003400023F0004150EA050220D054EA01021DD0FA
:10035000C5F30A570246C5F31303C1F31300C1F3F3
:100360000A5640F4801543F48013A7EB0608101BCF
:10037000D64608F2FD3873EB050002D308F10108F8
:1003800001E092185B41B8F1000F03DA002001464A
:10039000BDE8F08D00204FF48011064684460EE043
:1003A000171B73EB050705D3121B63EB050306430D
:1003B0004CEA010C49084FEA300092185B4150EAC0
:1003C0000107EDD152EA030012D082EA040083EA69
:1003D0000501084305D0101BAB4106D201220023C2
:1003E00006E000224FF0004302E06FF001025310DC
:1003F0001AEB06004CEB085110EB0A0041EB0B0125
:10040000BDE8F04D00F06AB870B5C1F30A5201F0D2
:1004100000450024C1F3130140F2FF3341F4801181
:100420009A4201DA002070BD40F233439A42A2F2B0
:10043000334203DC524200F041F800E090402C438C
:10044000F1D0404270BDC1F30A5210B5C1F313019F
:1004500040F2FF3341F480119A4201DA002010BDCE
:1004600040F233439A42A2F2334203DC524200F09C
:1004700025F810BD904010BD00F0004230F0004063
:100480000AD0C10D01F56071C0F3160042EA0151B6
:10049000C208400711437047002001467047202AD8
:1004A00004DB203A00FA02F1002070479140C2F1CB
:1004B000200320FA03F3194390407047202A04DBFD
:1004C000203A21FA02F00021704721FA02F3D040CD
:1004D000C2F12002914008431946704710B5141E1E
:1004E00073F1000408DA401C41F1000192185B41ED
:1004F0001A4301D120F0010010BD2DE9F04D9246C4
:100500009B4611B1B1FA81F202E0B0FA80F22032DA
:100510009046FFF7C4FF04460F4640EA0A0041EA4E
:100520000B0153465A46084313D0114653EA0100C3
:1005300019D0C8F140025046FFF7C0FF05460E46ED
:10054000504659464246FFF7AAFF084305D001200E
:1005500004E020463946BDE8F08D0020054346EA18
:10056000E0762C4337430A986305E40AA0EB0800C1
:100570000022FD0A44EA47540A3002D50020014611
:10058000E9E7010510196941DDE9084500196941EC
:10059000BDE8F04DA2E700001CB5094800900948ED
:1005A00001900546009C06E0E06840F0010394E8F5
:1005B000070098471034AC42F6D3FFF7E9FD00007E
:1005C00094610008B4610008B0B540F2EC10C2F2CA
:1005D0000000006840F2F015C2F200050021022878
:1005E00029600ED19FED2B0A03F0A0FA40F2DC50F7
:1005F00040F2DC5405F012F99FED220A03F00CFBE7
:1006000039E09FED200A03F03DFB40F2DC5005F09D
:1006100005F99FED1D0A03F089FA40F2DC5005F060
:10062000FDF89FED1A0A03F0F7FA4FF4FA7005F09F
:10063000F5F840F2FC14C2F2000400BFE07810B1FB
:1006400002F086FFFAE703F0F7FC4FF4FA7005F0CA
:10065000E5F89FED0F0A03F069FA40F2DC5005F06F
:10066000DDF800BFE07810B102F072FFFAE703F0A6
:10067000E3FC4FF4FA74204605F0D0F8012028601E
:10068000B0BD00BF9A99193F00003443CDCCCC3D9A
:100690000000B4420000B4C22DE9F04140F2EC1178
:1006A00040F2F01840F2E01440F2E415C2F200010A
:1006B0009FED530AC2F200080020C2F20004C2F209
:1006C00000050F68C8F800002060286003F02EFACB
:1006D00040F2DC5005F0A2F89FED4A0A03F09CFAC4
:1006E00040F2DC5005F09AF89FED470A03F004FB56
:1006F00040F2DC5005F092F840F2FC16C2F200061F
:10070000F078022F32D100BF20B102F021FFF07843
:100710000028FAD103F090FC4FF4FA7005F07EF84F
:100720009FED390A03F0E8FA40F2DC5005F076F864
:100730002068032812D0002702F00AFF3078002832
:1007400006BF012129602968F2782068002A01BFCC
:100750000129013020602F600328EDD103F06CFCEB
:100760004FF4FA70BDE8F04105F058B818B102F046
:10077000EFFEF078FAE703F05FFC4FF4FA7005F053
:100780004DF89FED1F0A03F0D1F940F2DC5005F05F
:1007900045F800BFF07810B102F0DAFEFAE703F096
:1007A0004BFC4FF4FA7005F039F89FED180A03F08E
:1007B000BDF940F2DC5005F031F82068022813D072
:1007C000002700BF02F0C4FE3078002806BF0121D8
:1007D00029602968F2782068002A01BF01290130C8
:1007E00020602F600228EDD103F026FC4FF4FA7050
:1007F00005F014F80120C8F80000BDE8F08100BF42
:100800000000B4C29A99193F9A99993E0000B442E7
:100810002DE9F04140F2EC1140F2F01840F2E416FC
:1008200040F2E017C2F200019FED610AC2F2000837
:100830000020C2F20006C2F200070C68C8F80000EF
:100840003060386003F072F940F2DC5004F0E6FFEB
:100850009FED580A03F0E0F940F2DC5004F0DEFFAF
:100860009FED550A03F00EFA40F2DC5004F0D6FF7B
:1008700040F2FC15C2F20005E878022C46D100BF18
:1008800020B102F065FEE8780028FAD103F0D4FB2D
:100890004FF4FA7004F0C2FF9FED480A03F046F9E6
:1008A00040F2DC5004F0BAFF3868062812D0002469
:1008B00002F04EFE2878002806BF01213160316821
:1008C000EA783868002A01BF0129013038603460B5
:1008D0000628EDD103F0B0FB4FF4FA7004F09EFF50
:1008E0009FED360A03F022F940F2DC5004F096FF47
:1008F0009FED330A03F090F94FF4FA7004F08EFF85
:10090000E87840B102F024FEFAE700BFF8B102F047
:100910001FFEE878FAE703F08FFB4FF4FA7004F05B
:100920007DFF9FED230A03F001F940F2DC5004F053
:1009300075FF9FED230A03F06FF94FF4FA7004F08E
:100940006DFF00BFE87838B302F002FEFAE703F06B
:1009500073FB4FF4FA7004F061FF9FED180A03F087
:10096000E5F840F2DC5004F059FF3868072813D04E
:10097000002400BF02F0ECFD2878002806BF01210A
:1009800031603168EA783868002A01BF01290130F6
:10099000386034600728EDD103F04EFB4FF4FA7055
:1009A00004F03CFF0120C8F80000BDE8F08100BF62
:1009B0000000B4C29A99193F9A99993E0000B44236
:1009C000CDCCCC3D10B52DED028B40F2EC14C2F233
:1009D0000004206840F2F012C2F200020021022856
:1009E000116046D001284ED0002849D19FED488A99
:1009F000B0EE480A03F080F940F2DC5004F00EFF3C
:100A00009FED440A03F008F940F2DC5004F006FFC1
:100A10005F2003F049FE40F2DC5004F0FFFE03F0DB
:100A200081FA40F2DC5004F0F9FE03F0EBFA03F037
:100A3000DBF99FED390A03F0A7FA40F2DC5004F02D
:100A4000EDFE412003F030FE40F2DC5004F0E6FE03
:100A5000B0EE480A03F016F940F2DC5004F0DEFE76
:100A60009FED2E0A03F062F840F2DC5004F0D6FE4F
:100A700047E044F25C402160C2F2000001210160C5
:100A8000BDEC028B10BD9FED228AB0EE480A03F048
:100A900033F940F2DC5004F0C1FE9FED1E0A03F072
:100AA000BBF840F2DC5004F0B9FE232003F0FCFD5B
:100AB00040F2DC5004F0B2FE03F034FA40F2DC50B5
:100AC00004F0ACFE03F09EFA03F08EF99FED120ADB
:100AD00003F05AFA40F2DC5004F0A0FE412003F08B
:100AE000E3FD40F2DC5004F099FEB0EE480A03F05A
:100AF000C9F840F2DC5004F091FE9FED080A03F0C3
:100B000015F8206801302060BDEC028B10BD00BFDD
:100B10009A99993E9A99193E0000C8C20000344340
:100B200010B52DED028B40F2EC14C2F200042068E7
:100B300040F2F012C2F2000200210228116016D029
:100B400001281ED0D0B99FED338AB0EE480A03F0D9
:100B5000D3F840F2DC5004F061FE9FED2F0A03F061
:100B60005BF840F2DC5004F059FE5F201CE044F2D8
:100B70005C402160C2F2000001210160BDEC028BEB
:100B800010BD9FED248AB0EE480A03F0B5F840F29C
:100B9000DC5004F043FE9FED200A03F03DF840F2E4
:100BA000DC5004F03BFE232003F07EFD40F2DC50DD
:100BB00004F034FE03F0B6F940F2DC5004F02EFEEF
:100BC00003F020FA03F010F99FED140A03F0DCF9AA
:100BD00040F2DC5004F022FE412003F065FD40F2BB
:100BE000DC5004F01BFEB0EE480A03F04BF840F274
:100BF000DC5004F013FE9FED0A0A02F097FF40F26A
:100C0000DC5004F00BFE206801302060BDEC028B4C
:100C100010BD00BF9A99993E9A99193E0000C8C22A
:100C20000000344310B52DED028B40F2EC14C2F2FB
:100C30000004206840F2F012C2F2000200210228F3
:100C4000116046D001284ED0002849D19FED488A36
:100C5000B0EE480A03F050F840F2DC5004F0DEFD3C
:100C60009FED440A02F0D8FF40F2DC5004F0D6FDBC
:100C70005F2003F019FD40F2DC5004F0CFFD03F0DB
:100C800051F940F2DC5004F0C9FD03F0BBF903F068
:100C9000ABF89FED390A03F077F940F2DC5004F02D
:100CA000BDFD412003F000FD40F2DC5004F0B6FD34
:100CB000B0EE480A02F0E6FF40F2DC5004F0AEFD70
:100CC0009FED2E0A02F032FF40F2DC5004F0A6FD48
:100CD00047E044F25C402160C2F200000121016063
:100CE000BDEC028B10BD9FED228AB0EE480A03F0E6
:100CF00003F840F2DC5004F091FD9FED1E0A02F073
:100D00008BFF40F2DC5004F089FD232003F0CCFC83
:100D100040F2DC5004F082FD03F004F940F2DC50B4
:100D200004F07CFD03F06EF903F05EF89FED120A0B
:100D300003F02AF940F2DC5004F070FD412003F08A
:100D4000B3FC40F2DC5004F069FDB0EE480A02F05A
:100D500099FF40F2DC5004F061FD9FED080A02F0BB
:100D6000E5FE206801302060BDEC028B10BD00BFA5
:100D70009A99993E9A99193E0000C8C200003443DE
:100D80002DE9F04140F2E41440F2E01640F2F4178D
:100D900040F2FC15C2F200044FF00008C2F2000657
:100DA000C2F20007C2F20005C4F80080C6F8008055
:100DB0000DE000BF01212160EA783068002A01BF00
:100DC000012901303060C4F8008004280BD002F003
:100DD000BFFBB879F9790843ECD0387879780843C3
:100DE000E8D02168E8E703F027F94FF4FA7004F03F
:100DF00015FD40F2F010C2F2000001210160BDE8D3
:100E0000F0810000FEE7000010B52DED028B40F2EE
:100E1000F0149FED230AC2F200040020206002F0CB
:100E2000C5FE40F2DC5004F0F9FC9FED1E8AB0EEE6
:100E3000480A02F061FF40F6B83004F0EFFC40F2DF
:100E4000D810C2F20000007840F2DC11C2F20001BA
:100E5000086003F0CDF802F0C7FF03F063F840F636
:100E6000C41004F0DBFC9FED100A03F08DF840F293
:100E7000DC5004F0D3FCB0EE480A02F003FF40F26D
:100E8000DC5004F0CBFC9FED090A02F04FFE4FF45A
:100E9000486004F0C3FC01202060BDEC028B10BD53
:100EA000CDCC4C3D9A99993E0000C8C20000344315
:100EB00040F2F010C2F2000000680138B0FA80F091
:100EC0004009704740F2F01040F2DC11C2F200001D
:100ED000C2F200010068096880F0010081F003019E
:100EE0000843B0FA80F040097047000040F2F0106B
:100EF000C2F2000044F25C410068C2F200010968DD
:100F000080F001000843B0FA80F04009704700000B
:100F100040F2F01040F2DC11C2F20000C2F2000117
:100F20000068096880F0010081F001010843B0FA0F
:100F300080F040097047000040F2F01040F2DC11F0
:100F4000C2F20000C2F200010068096880F00100EE
:100F500081F002010843B0FA80F0400970470000B8
:100F600070470000B0B540F2FC15C2F20005E87809
:100F700040F2F014C2F200040021216028B100BF49
:100F800002F0E6FAE8780028FAD103F055F84FF4B9
:100F9000FA7004F043FC9FED130A02F0C7FD40F223
:100FA000DC5004F03BFC9FED100A02F035FE4FF4DC
:100FB000FA7004F033FC00BFE87810B102F0C8FA10
:100FC000FAE703F039F84FF4FA7004F027FC9FEDCC
:100FD000070A02F091FE40F2DC5004F01FFC0120F1
:100FE0002060B0BD0000B4C2CDCCCC3D9A99193F71
:100FF0002DE9F04140F2F01840F2E01640F2E4171B
:1010000040F2FC15C2F200080024C2F20006C2F24F
:101010000007C2F20005C8F8004034603C6000BF21
:1010200002F096FA2878002806BF01213960396855
:10103000EA783068002A01BF0129013030603C6045
:101040000228EDD102F0F8FF4FF4FA7004F0E6FB4D
:101050009FED2B0A02F06AFD40F2DC5004F0DEFB4B
:101060003068042812D0002402F072FA2878002890
:1010700006BF012139603968EA783068002A01BF6B
:101080000129013030603C600428EDD102F0D4FF2A
:1010900040F2DC5004F0C2FB9FED1A0A02F046FD5C
:1010A00040F2DC5004F0BAFBE87810B102F050FADC
:1010B000FAE702F0C1FF4FF4FA7004F0AFFB9FEDC6
:1010C000120A02F019FE40F2DC5004F0A7FB00BF48
:1010D000E87810B102F03CFAFAE702F0ADFF4FF405
:1010E000FA7004F09BFB9FED060A02F01FFD40F230
:1010F000DC5004F093FB0120C8F80000BDE8F0814B
:101100000000B4C20000B4429A99993E2DE9F04320
:1011100081B02DED028B40F2F01840F2E41440F261
:10112000E01640F2F41540F2FC17C2F200084FF04E
:101130000009C2F20004C2F20006C2F20005C2F2C7
:101140000007C8F80090C4F80090C6F800900CE0C2
:1011500001212160FA783068002A01BF012901309D
:101160003060C4F8009003280BDA02F0F1F9A87996
:10117000E9790843ECD0287869780843E8D02168F9
:10118000E8E7052818D89FED2E8A0CE0B0EE480A53
:1011900002F042FD4FF4FA7004F040FB3068013079
:1011A0003060062808DA02F0D3F928786978084315
:1011B000ECD030680628F6DB02F03EFF40F2DC504F
:1011C00004F02CFB9FED1F0A02F026FD4FF4FA708D
:1011D00004F024FB9FED1C0A03F0A0FD40F69800EC
:1011E00004F01CFB28786978084302D002F0B0F9BB
:1011F000F8E702F021FF40F2DC5004F00FFB9FED16
:10120000130A02F03FFD40F6980004F007FBB6EE2B
:10121000080A02F001FD41F2301004F0FFFA9FEDE0
:101220000A0A03F07BFD40F6980004F0F7FA01206B
:10123000C8F80000BDEC028B01B0BDE8F08300BF30
:10124000CDCCCC3DCDCC4C3D0000B4429A99993EDA
:1012500080B52DED028B40F2EC10C2F20000006868
:1012600040F2F011C2F20001002202280A600ED002
:10127000012814D0D8BB9FED1F8AB0EE480A02F0B7
:10128000CBFC40F2DC5004F0C9FA7D2012E002F001
:10129000A1FDBDEC028BBDE8804002F0A9BE9FED30
:1012A000158AB0EE480A02F0B7FC40F2DC5004F0B8
:1012B000B5FAFB2003F0F8F940F2DC5004F0AEFA86
:1012C00002F088FD02F094FE412003F0EDF940F2B7
:1012D000DC5004F0A3FAB0EE480A02F067FC40F2DA
:1012E000DC50BDEC028BBDE8804004F097BABDEC49
:1012F000028B80BD9A99193E80B52DED028B40F28C
:10130000EC10C2F20000006840F2F011C2F20001DD
:10131000002202280A600ED0012814D0D8BB9FED0D
:101320001F8AB0EE480A02F077FC40F2DC5004F06D
:1013300075FA7D2012E002F04DFDBDEC028BBDE898
:10134000804002F055BE9FED158AB0EE480A02F0CB
:1013500063FC40F2DC5004F061FAFB2003F0A4F9D6
:1013600040F2DC5004F05AFA02F034FD02F040FE84
:10137000412003F099F940F2DC5004F04FFAB0EE4E
:10138000480A02F013FC40F2DC50BDEC028BBDE8D1
:10139000804004F043BABDEC028B80BD9A99193E9F
:1013A00010B52DED028B40F2EC10C2F20000006887
:1013B00040F2F014C2F200040021022821600ED095
:1013C000012811D0A0BB9FED1D8AB0EE480A02F0A3
:1013D00023FC40F2DC5004F021FA7D200FE002F003
:1013E000F9FC02F00FFE23E09FED148AB0EE480AEC
:1013F00002F012FC40F2DC5004F010FA232003F05B
:1014000053F940F2DC5004F009FA02F0E3FC02F078
:10141000F9FD412003F048F940F2DC5004F0FEF9F8
:10142000B0EE480A02F0C2FB40F2DC5004F0F6F9DC
:1014300001202060BDEC028B10BD00BF9A99193EBF
:1014400072B600BFFEE70000F0B540F2F410C2F241
:1014500000000278437890F802E082F0010183F006
:10146000010739438EF0010751EA070C15D101211C
:10147000C17001799FED4C1A01294FF000012BD169
:101480004479012C28D18479012C25D1C479012CEF
:1014900004BFB0EE0C0AF0BD1EE0B9EE000A9FEDED
:1014A000421A002A4FF0010108BFB0EE401AB8EE10
:1014B000040A08BF0221002BB2FA82F431EE000ABE
:1014C0000CBFB0EE401A6109BEF1000F04D1BFEEAF
:1014D000000A31EE001A0131BEEE000AC77831EE83
:1014E000000A0479B6EE002A45798679002F04BFF8
:1014F000B0EE401A013131EE020A002C04BFB0EE0A
:10150000401A0131B7EE000A1A4331EE000A42EAEE
:101510000E02002D04BFB0EE401A0131B0EE040AF5
:101520003A4331EE000A002E04BFB0EE401A0131FA
:10153000C07942EA0403B1EE003A2B4331EE030ACC
:10154000002843EA060304BFB0EE401A013103430A
:10155000B0EE0C0A27D0002A08BF012D1FD044EAA4
:10156000050333431843BCFA8CF2B0FA80F05209F9
:101570004009024218BFF0BD00EE101AB8EEC00AD2
:1015800081EE000AB6EE0C1A30EE030A20EE010AD4
:1015900030EE020ABDEEC00AB8EEC00AF0BD012E60
:1015A000DDD10128DBD1F0BD0000000090F834C08F
:1015B000BCF1010F04BF0220704770B54FF0010C61
:1015C00080F834C0D0F858E090F835C0BCF1010F75
:1015D00037D14FF0020C80F835C04FF0000CC0F846
:1015E00054C0D0F800C08468056CC06DDCF80060A1
:1015F000402C26F48026CCF80060CCF804300B4652
:1016000004BF13460A463F2101FA00F0CCF8083027
:10161000CCF80C20CEF80800DCF8000040F01600F2
:10162000CCF800002DB1DCF8000040F00800CCF848
:101630000000DCF8000040F00100CCF800000020C1
:1016400070BD002180F83410022070BDB0B5044692
:1016500000F0E6F8054640F21000C2F20000007803
:10166000611C18BF044400BF00F0DAF8401BA04220
:10167000FAD3B0BD2DE9F04F82B000F13E4707F13B
:10168000FF77860546EA972741F60046C4F2020630
:10169000082243F6004EB04208BF0722C4F2010EF2
:1016A000072F38BF3A46002600274FF00008009267
:1016B00009E000BF08F101080237B8F1100F06F188
:1016C000040600F0A3800D68012202FA08F415EA6E
:1016D0000409EFD0D1F804B003220BF0030CACF1F5
:1016E0000105BA40012D6FEA020A0FD88268CD6861
:1016F00002EA0A02BD402A4382604268A243CBF359
:10170000001404FA08F42243426005E0BCF1030F20
:1017100002D14FF0030C1EE0C2688C6802EA0A0294
:10172000BC402243BCF1020FC26014D16FF003022F
:1017300002EA58020244D2F820C006F01C040F232B
:101740000D69A3402CEA0303A5402B431362D1F893
:1017500004B00BF0030C02680CFA07F302EA0A0269
:101760001A431BF4403F0260A4D0002243F6440316
:101770000192C4F202031A684FF6084C42F4804208
:101780001A601A68CFF6FF7C02F480420192019A37
:1017900028F00302724452F80C3006F00C050F24B6
:1017A000AC40A343009C04FA05F52B4342F80C30EF
:1017B000DEF808204B6842EA090543F60C4CDC02CF
:1017C00058BF22EA0905CEF80850C4F2010CDCF833
:1017D00000209C0242EA090558BF22EA0905CCF81C
:1017E0000050DEF804209C0342EA090558BF22EAB3
:1017F0000905CEF80450DEF80020DB0342EA0905B3
:1018000058BF22EA0905CEF8005053E702B0BDE800
:10181000F08F0000002A08BF0904816170470000B2
:1018200044F25410C2F2000000687047002804BF60
:1018300001207047F0B581B0044690F83D0028B90A
:10184000002084F83C00204600F024FA242084F88C
:101850003D002068016821F001010160016841F448
:1018600000410160016821F40041016000F02CFC9E
:10187000636848F2A16CC0F2010C40F60011C0F29E
:101880003D0163453CBF48F28041C0F21E018842E1
:1018900002D2012001B0F0BD4DF68361C4F21B31CC
:1018A000A0FB01122168970CD1F804E04FF4967662
:1018B0002EF03F0545EA92454D60774348F63816CD
:1018C0000D6AC0F24106A7FB067625F03F07634587
:1018D00038BF960C721C3A430A62CA6948F2A06685
:1018E0004CF6FF77C0F20106B34222EA07020AD89B
:1018F00001385B00B0FBF3F001306FF31F300428B8
:1019000098BF042019E0A768013857B119277B4315
:10191000B0FBF3F001306FF31F3068B100F5804089
:1019200007E003EB4303B0FBF3F001306FF31F302C
:1019300010B100F5004000E001201043C8610868C4
:10194000D4E9072320F0C0001043184308608868DA
:1019500048F2FF3204F10C0790438CCF1843104338
:10196000A6698860C86820F0FF0038433043C8602B
:10197000086840F00100086000202021206484F8FD
:101980003D10206384F83E0001B0F0BD2DE9F04722
:1019900084B0984617460E460446FFF741FF94F878
:1019A0003D10202922D10546206800BF81698907A2
:1019B00017D5FFF735FF411B20681A29F6D3816937
:1019C0008907F3D500202021206384F83D1084F896
:1019D0003E00206C04F13C0940F02000206402200D
:1019E00052E1A14619F83C1F012903D1022004B09D
:1019F000BDE8F087012289F800200368DDE90D1AAF
:101A00000C9ADB0703D1036843F00103036003680A
:101A100023F400630360222084F83D00402084F812
:101A20003E000020206462626185608D3146208521
:101A30000020CFF6FF70E06220463A464346CDE9EB
:101A400000A501F0BBFB18B1012004B0BDE8F08790
:101A5000208DA0B102281FD0012829D121680A6851
:101A600022F480620A60002203924A6903928A6922
:101A70000392039A0A6842F400720A6020E0002090
:101A8000039020684169039181690391039901687A
:101A900041F400710160D8E021680A6822F4806294
:101AA0000A600A6842F400620A600022039202E0BF
:101AB0000021039121684A6903928969039103997E
:101AC0000AF1010680B203281DD802284ED0012851
:101AD00060D1216803E04869400640F1C9800846AA
:101AE00050F8142F520600F1A1800168C90600F1D8
:101AF000B380FFF795FE2168BAF1000FEBD0401BD1
:101B00005045ECD9E7E7216804E000BF486940068A
:101B100040F1AE80084650F8142F52060DD40168EB
:101B2000C90600F19980FFF77BFE2168BAF1000F2A
:101B3000ECD0401B5045EDD9E8E70869616A0870B0
:101B4000606A2268411C208D616201382085638DA6
:101B5000013B638553695B0774D580B2032803D1C9
:101B6000106820F480601060106961E0216802E074
:101B7000486940077CD54869400743D4002EFAD015
:101B8000FFF74EFE2168BAF1000FF1D0401B50451F
:101B9000F1D9EDE7216802E04869400768D5486956
:101BA00040070BD4002EFAD0FFF73AFE2168BAF1B5
:101BB000000FF1D0401B5045F1D9EDE7086820F443
:101BC000806008600869616A0870606A2168013095
:101BD0006062208D01382085608D0138608502E0CB
:101BE0004869400744D5486940070BD4002EFAD015
:101BF000FFF716FE2168BAF1000FF1D0401B5045E7
:101C0000F1D9EDE7086840F4007008600869616A7E
:101C10000870606A2268411C6162218D013921854A
:101C2000618D013961851169417002E00869616A5D
:101C30000870606A218D01306062481E2085618DC8
:101C40000139618501047FF43DAF202084F83D0017
:101C5000002084F83E0017E06FF0100101600020C2
:101C60002021206384F83D1084F83E00206C09E0B8
:101C700000202021206384F83D1084F83E00206C71
:101C800040F0200020640120002189F8001004B0F9
:101C9000BDE8F0872DE9F04786B0006845F60041C1
:101CA000C4F2000100268842CDE90466CDE902664F
:101CB00001962FD045F60001C4F2000188426ED192
:101CC000002543F630040095C4F20204206801A9FF
:101CD00040F002002060206800F0020000900098B0
:101CE0004FF4406001901220CDE9020503200490DA
:101CF000042005900020C4F2020000F58060FFF788
:101D0000B9FC0095206940F480002061206900F44E
:101D1000800042E043F630070096C4F202073868BC
:101D2000002440F0040038603868C4F2020400F077
:101D30000400009000980096386801AD40F0010062
:101D4000386038684FF0120800F0010000900098E9
:101D50004FF4007001904FF003094FF0040A04F5AE
:101D600000602946CDE90286CDF81090CDF814A088
:101D7000FFF780FC4FF48070CDE9010803A880E8EC
:101D8000400620462946FFF775FC0096386940F466
:101D900000003861386900F400000090009806B037
:101DA000BDE8F08740F2100044F25411C2F2000086
:101DB000C2F2000100780A68104408607047000011
:101DC00080B543F60040C4F20200016841F400719E
:101DD0000160016841F480610160016841F4807133
:101DE0000160032000F0B0F80F2000F005F800F0CB
:101DF0002BF8002080BD0000B0B540F21002C2F206
:101E0000000240F20C011278C2F200014FF47A7322
:101E10000968B3FBF2F20446B1FBF2F1084600F0A8
:101E200069FB0F2C4FF001050CD858B94FF0FF306B
:101E300021460022002500F05BF840F21400C2F2B7
:101E4000000004602846B0BD80B582B0002043F693
:101E500040010190C4F202014A6842F480424A60A3
:101E60004A6802F480420192019A009008680022B8
:101E700040F0805008600868012100F08050009018
:101E800000986FF00B0000F033F86FF00A000121AA
:101E9000002200F02DF86FF009000121002200F06F
:101EA00027F86FF004000121002200F021F86FF004
:101EB00003000121002200F01BF86FF001000F2148
:101EC000002202B0BDE8804000F012B8002848BFF0
:101ED000704700F01F01012202FA01F11C2202EA00
:101EE000D0004EF20012CEF2000281507047000086
:101EF00010B54EF60C5CCEF2000CDCF80030C3F3EB
:101F0000022E8EF00704042C28BF0424BEF1030324
:101F10004FF0FF3E0EFA04F438BF0023A14399406E
:101F20000EFA03F39A43114300F00F0200F16043ED
:101F30000901043A03F564436244002848BF02F1F2
:101F40000C03197010BD00004EF60C51CEF20001CA
:101F50000A684FF6FF031A4060F30A2242F08060DD
:101F600040F0FD7008607047002804BF01207047F2
:101F70002DE9F04143F60808C4F202080446D8F8F7
:101F8000F8030D4600F00700884207D288F8F8539E
:101F9000D8F8F80300F00700A84276D1206881073E
:101FA00017D5410705D5D8F8001041F4E051C8F81D
:101FB0000010010705D5D8F8001041F46041C8F8B9
:101FC0000010D8F80010A26821F0F0011143C8F801
:101FD0000010C0073FD1D8F8F80300F00700A8426E
:101FE00007D988F8F853D8F8F80300F00700A8429A
:101FF0004BD12068410707D5D8F80010E26821F4DA
:10200000E0511143C8F80010000708D5D8F80000C7
:10201000216920F4604040EAC100C8F8000000F0E7
:102020007BF8D8F8001046F25012C1F30311C0F645
:102030000002515C40F20C0220FA01F140F214005F
:10204000C2F200000068C2F200021160FFF7D4FE85
:102050000020BDE8F0816068811E022907D258F88F
:10206000081C89015CBF0120BDE8F08110E0012857
:1020700007D158F8081C89035CBF0120BDE8F08136
:1020800006E058F8081C890702D40120BDE8F08159
:10209000D8F8001021F003010843C8F80000FFF74A
:1020A000BFFB064641F28837D8F80000616800F0AF
:1020B0000C00B0EB810F8ED0FFF7B2FB801BB84253
:1020C000F2D90320BDE8F08140F20C0043F608018C
:1020D000C2F20000C4F202010068096846F2601210
:1020E000C1F38221C0F60002515CC8407047000075
:1020F00040F20C0043F60801C2F20000C4F20201F3
:102100000068096846F26012C1F34231C0F600026D
:10211000515CC8407047000010B543F60404C4F297
:102120000204606800F00C0008280AD0042819BFD7
:1021300042F20040C0F2F40047F64000C0F27D10C9
:1021400010BD206821682368490247F64001C0F2AB
:102150007D1100F03F02C3F388105CBF42F20041E2
:10216000C0F2F401A1FB00010023FEF729F8216869
:102170000222C1F3014102EB4101B0FBF1F010BDBD
:10218000002804BF012070472DE9F04182B00446C9
:10219000007843F60006C007C4F202060BD0B06810
:1021A00000F00C00042878D13068800303D5606803
:1021B000002800F05181207880071AD5B06810F00F
:1021C0000C0F08D0B06800F00C00082840F07F80A9
:1021D000706840027BD43068800703D5E06801282E
:1021E00040F03A813068216920F0F80040EAC100EF
:1021F00030602078000713D42078400727D4A569E1
:10220000002D00F02581B06800F00C00082840F097
:102210009180012D40F0F980012002B0BDE8F081ED
:102220006069002840F20000C4F2472072D001210A
:10223000C0F8801EFFF7F4FA054600BF706F8007F4
:10224000DAD4FFF7EDFA401B0228F7D9D9E0306C59
:102250005FEAC0080AD400200190306C40F0805042
:102260003064306C00F080500190019847F2000714
:10227000C4F200073868C0053ED4386840F4807066
:102280003860FFF7CDFA05463868C00534D4FFF74B
:10229000C7FA401B0228F7D9B3E0B06800F00C0081
:1022A000082803D1706840023FF57EAF6068B0F542
:1022B000803F07D0B0F5A02F40F08D80306840F40B
:1022C00080203060306840F4803030608DE0E0681D
:1022D000002852D00020C4F2472001210160FFF7FE
:1022E0009FFA0546306880073FF57CAFFFF798FA04
:1022F000401B0228F6D984E0A068012805D00528F3
:1023000050D1306F40F004003067306F40F0010072
:10231000306751E00021C0F8801EFFF781FA0546C2
:10232000706F80077FF568AFFFF77AFA401B0228CD
:10233000F6D966E00027C4F2472700203866FFF789
:102340006FFA022D05460DD13068800140F188807A
:10235000FFF766FA401B02284FF00300F4D902B0E1
:10236000BDE8F0813068800172D5FFF759FA401B53
:1023700002284FF00300F5D9F1E70020C4F247200E
:1023800000210160FFF74CFA054600BF3068800766
:102390007FF52FAFFFF744FA401B02284FF00300F0
:1023A000F4D9DCE7316F002821F001013167316F8A
:1023B00021F00401316774D0FFF732FA054641F28B
:1023C000883700BF306F80077BD4FFF729FA401BA6
:1023D000B842F7D915E03168002821F48031316026
:1023E000316821F48021316074D0FFF719FA054675
:1023F000306880033FF5DFAEFFF712FA401B642818
:10240000F6D9032002B0BDE8F0817068E16900F4FC
:1024100080028A4220D1216A00F03F028A421BD109
:1024200047F6C071626A0140B1EB821F14D1A16A04
:102430004FF6FF73C903994300F44032A1F5803190
:102440008A4209D1E16A00F07060B0EB016F03D1FC
:10245000002002B0BDE8F081012002B0BDE8F081AB
:1024600004F11C052FCD084340EA8210D9034FF632
:10247000FF729143A1F5803140EA05600843706026
:1024800001203866FFF7CCF9044600BF30688001B0
:10249000DED4FFF7C5F9001B02284FF00300F5D981
:1024A0005DE7FFF7BDF9054641F28837306F8007D9
:1024B00007D5FFF7B5F9401BB8424FF00300F5D937
:1024C0004DE7B8F1000F3FF59AAE306C20F0805028
:1024D000306494E6FFF7A4F9054600BF3068800336
:1024E0007FF569AEFFF79CF9401B64284FF00300AD
:1024F000F4D934E7411E0020B0EB116F1CBF01205E
:1025000070474EF21002CEF2000251604EF6235197
:10251000CEF20001F0230B7007219060116070472C
:10252000704700007047000090F83C20012A4FF0EF
:10253000020252D010B580F83D200268D2F804E0C3
:10254000D2F808C00C682EF07003234341F2FF74E8
:10255000C4F20004A24253600DDC40F2FF73C4F2E7
:1025600000039A4215DCB2F1804F29D040F20043BB
:10257000C4F2000322E040F2FF33C4F201039A42A6
:1025800012DC41F60003C4F200039A4218D0002383
:1025900012E040F60003C4F200039A4210D040F665
:1025A0000043C4F2000309E044F20003C4F2010353
:1025B0009A4205D040F20043C4F201039A4204D18A
:1025C00049682CF08003194391600121002280F8B2
:1025D0003D1080F83C20BDE81040104670470000D8
:1025E000002804BF0120704710B5044690F83D0054
:1025F00028B9002084F83C00204600F01FF8022093
:1026000084F83D002068211D01F00CFE012084F8B3
:10261000460084F83E0084F83F0084F8400084F8C7
:10262000410084F8420084F8430084F8440084F8B0
:10263000450084F83D00002010BD000080B582B048
:10264000006800F14041800540EA9120042857D8F5
:10265000DFE800F003111F3947000020019043F626
:102660004000C4F20200016841F00101016000680D
:1026700000F0010042E00020019043F64000C4F267
:102680000200016841F002010160006800F00200F0
:1026900034E00020019043F64000C4F202000168DB
:1026A000002241F0040101600068052100F00400EF
:1026B000019001981E20FFF71BFC1E2002B0BDE810
:1026C0008040FFF703BC0020019043F64000C4F2B5
:1026D0000200016841F008010160006800F0080094
:1026E0000CE00020019043F64000C4F202000168B3
:1026F00041F010010160006800F0100001900198A5
:1027000002B080BD90F83D1001291CBF0120704728
:10271000022180F83D10006841F2FF72C168C4F2E6
:102720000002904241F00101C1600DDC40F2FF71F6
:10273000C4F20001884215DCB0F1804F29D040F28C
:102740000041C4F2000122E040F2FF31C4F2010175
:10275000884212DC41F60001C4F20001884218D020
:10276000002112E040F60001C4F20001884210D0BE
:1027700040F60041C4F2000109E044F20001C4F255
:102780000101884205D040F20041C4F201018842B3
:1027900006D1816801F00701062904BF00207047B7
:1027A000016841F0010101600020704790F83C2071
:1027B000012A4FF0020200F0C38080B580F83D206E
:1027C000D0F800C04FF67772DCF8083023EA020236
:1027D000CCF808200B684F2B28DC1F2B44DD202B66
:1027E00045D0302B43D0402B40F0AC80D1F804E0F2
:1027F000C968DCF82030DCF8202022F00102CCF897
:102800002020DCF8182022F0F00242EA011123F027
:102810000A0242EA0E02CCF81810CCF82020DCF8AC
:10282000081041F0470121F030017EE06F2B26DDDA
:10283000B3F5005F47D0B3F5805F78D0702B40F0E0
:102840008180D1E901E3C968DCF8082043EA0E037E
:1028500022F47F4243EA01211143CCF80810DCF84E
:10286000081041F0770160E00BB1102B6AD1DCF861
:10287000081021F07001194341F0070155E0502B79
:1028800034D0602B5ED1D1F804E0C968DCF8203088
:10289000DCF8202022F01002CCF82020DCF81820F0
:1028A00022F4704242EA013123F0A00242EA0E1201
:1028B000CCF81810CCF82020DCF8081041F06701A3
:1028C00021F0100131E0D1E901E3C968DCF808200A
:1028D00043EA0E0322F47F4243EA01211143CCF87C
:1028E0000810DCF8081041F480411EE0D1F804E043
:1028F000C968DCF82030DCF8202022F00102CCF896
:102900002020DCF8182022F0F00242EA011123F026
:102910000A0242EA0E02CCF81810CCF82020DCF8AB
:10292000081041F0570121F02001CCF808100022D6
:10293000012180F83D10002180F83C10BDE8804066
:10294000104670470122F3E77047000070B5044657
:102950000068C5680669B10716D515F0020113D0E5
:102960006FF002010161012121778069800703D0A6
:102970002046FFF7E9FF05E0204600F0E9F8204691
:1029800000F022FA00202077700718D515F0040017
:1029900015D020686FF00401016102212177806960
:1029A00010F4407F03D02046FFF7CEFF05E020461D
:1029B00000F0CEF8204600F007FA0020207730071C
:1029C00017D515F0080014D020686FF008010161D8
:1029D00004212177C069800703D02046FFF7B4FFA8
:1029E00005E0204600F0B4F8204600F0EDF90020A4
:1029F0002077F00618D515F0100015D020686FF07C
:102A00001001016108212177C06910F4407F03D0D3
:102A10002046FFF799FF05E0204600F099F8204690
:102A200000F0D2F900202077F00718BF15F0010060
:102A300002D1300609D412E020686FF00101016173
:102A4000204600F047FA300609D515F0800006D080
:102A500020686FF0800101612046FFF761FD70067C
:102A600009D515F0400006D020686FF040010161E3
:102A7000204600F031FAB00658BF70BD15F02000B6
:102A800008D021686FF0200220460A61BDE870403E
:102A9000FFF748BD70BD000080B586B0006840F605
:102AA0000042C4F2000200219042CDE90411CDE9B8
:102AB000021101911BD040F20041C4F20001884292
:102AC00025D0B0F1804F40D10020009043F6300077
:102AD000C4F20200016841F001010160006800F0E9
:102AE00001000090009820200190012021E043F691
:102AF00030000091C4F20200016841F00101016060
:102B0000006800F001000090009801200FE0002014
:102B1000009043F63000C4F20200016841F0010168
:102B20000160006800F001000090009840200190D2
:102B3000022002210291002105900020CDE903111D
:102B4000C4F2020001A9FEF795FD06B080BD0000A9
:102B50007047000090F83C30012B04BF0220704702
:102B60004FEAB202032A00F2FD802DE9F043DFE8CC
:102B700002F0023D7CBC036840F200461C6A1A6AFF
:102B800024F0020422F001021A621A46D3F804C0AB
:102B900052F818EF8F6843F48065C4F20106B5421D
:102BA00044EA070405D1CF6824F00C0427F0040799
:102BB0003C430F68B54206D1D1E905582CF4407664
:102BC0002E4346EA080C2EF073063743C3F804C0C0
:102BD0009F614F6809695F631C629F6947F008073E
:102BE0009F619F6927F004079F61B0E0036840F28E
:102BF00000481C6A1A6A24F0200422F010021A62AB
:102C00001A46D3F804C052F818EF8F6843F4806571
:102C1000C4F20108454544EA071407D1CF686FF0B4
:102C2000400624F0C00406EA07163443D1F80090A9
:102C3000454506D1D1E905562CF440672E4347EAB5
:102C4000860C2EF4E64747EA0927C3F804C09F61C3
:102C50004F6809699F631C629F6947F400679F6121
:102C60009F6927F480679F6170E0036840F2004825
:102C70001C6A1A6A24F4007422F480721A621A46DA
:102C8000D3F804C052F81CEF8F6843F48065C4F297
:102C90000108454544EA072408D1CF6840F2FF46C1
:102CA0003F0224F4406427EA06063443D1F800903A
:102CB000454506D1D1E905562CF440572E4347EA45
:102CC000061C2EF0730747EA0907C3F804C0DF614A
:102CD0004F680969DF631C62DF6947F00807DF613D
:102CE000DF6927F00407DF6131E0036840F2004547
:102CF000D3F820C01A6A43F4806722F480521A6223
:102D00001A465C6852F81CEFD1F800808E68C4F255
:102D10000105AF4204D14D6924F4804444EA85148E
:102D20002CF4005747EA06372EF4E64646EA082612
:102D30005C60DE614E6809691E641F62DF6947F4EA
:102D40000067DF61DF6927F48067DF6109021368CC
:102D5000194311600021BDE8F043002280F83C20B7
:102D6000084670470121F8E7002804BF012070479A
:102D700010B5044690F83D0028B9002084F83C00C6
:102D8000204600F01FF8022084F83D002068211D35
:102D900001F048FA012084F8460084F83E0084F8E7
:102DA0003F0084F8400084F8410084F8420084F831
:102DB000430084F8440084F8450084F83D00002076
:102DC00010BD0000704700007047000041B10829A5
:102DD00010D0042914BF00F1410200F13F020BE0C2
:102DE00090F83E20012A1CBF01207047022280F883
:102DF0003E2012E000F140021278012A1CBF01209F
:102E000070470222082906D0042914BF80F8412007
:102E100080F83F2001E080F84020006801F01F01A9
:102E20000122036A02FA01F123EA01020262026A44
:102E3000114341F2FF72C4F20002904201620BDCC6
:102E400040F2FF71C4F20001884213DCB0F1804F00
:102E500035D040F2004115E040F2FF31C4F20101EB
:102E6000884214DC41F60001C4F20001884226D0F9
:102E7000002114E040F60001C4F2000188421ED097
:102E800040F60041C4F20001884218D01CE044F230
:102E90000001C4F20101884211D040F20041C4F2A5
:102EA0000101884210D1416C40F2004340F480623D
:102EB000C4F2010341F400419A42416404D18168A3
:102EC00001F00701062903D0016841F0010101600A
:102ED00000207047704700007047000070470000F6
:102EE000002804BF0120704710B5044690F8410047
:102EF00028B9002084F84000204600F021F8242062
:102F000084F841002068C16821F40051C160204666
:102F100001F038FB2068016921F4904101614169A9
:102F200021F02A014161C16841F40051C1600020D3
:102F30002021606484F8411084F84210606310BD61
:102F400080B586B0006844F20042C4F2000200215D
:102F50009042CDE90411CDE90211019124D041F252
:102F60000001C4F20101884248D1002043F630013B
:102F70000090C4F202014A6942F010024A614A69B3
:102F800002F010020092009A0090086840F00100E0
:102F9000086008684FF4C06100F0010000900098DC
:102FA0000020C4F202001DE043F630000091C4F29C
:102FB0000200026942F400320261026902F4003246
:102FC0000092009A0091016841F0080101600068D8
:102FD000602100F00800009000980020C4F2020078
:102FE00000F540600191022102910021039103212B
:102FF00004910721059101A9FEF73CFB06B080BDB5
:103000002DE9F04381B0044690F8410020281CD1FE
:10301000894600294FF0010061D01646002A5ED093
:103020000020606421201D4684F84100FEF7F8FB73
:10303000A684E684A1680646B1F5805F01D12069C7
:1030400038B1C8464FF0000905E0022001B0BDE8E4
:10305000F0834FF00008E18C206829B36F1C0BE06F
:10306000B8F1000F19D018F8011B4160E18C01394B
:10307000E184E18CC1B100BF01680906F0D4002FE2
:10308000FAD0FEF7CDFB01464FF0030025B3891BB4
:10309000A94221D82068C168EEE739F8021B4FF039
:1030A00000086FF35F21E0E70168490613D46F1C45
:1030B00003E000BF016849060DD4002FFAD0FEF7E7
:1030C000AFFB01464FF0030035B1891BA94203D87D
:1030D0002068C168EEE70020202184F8411001B08B
:1030E000BDE8F083B0B5044690F8410020281CBF2D
:1030F0000220B0BD00294FF0010056D0002A13462F
:1031000008BFB0BD4FF0000C21202162A384E384EE
:10311000C4F844C084F84100A06B44F2CD4E44F2A0
:103120007D552268C0F6000EC0F60005C0E90FE527
:1031300044F25135C0F600050432C0E9135CFEF7D5
:1031400035FA30B110206064202084F8410001205D
:10315000B0BD20686FF04001016000BF206850E8FA
:10316000050F216840F0800041E80502F2B12068B7
:1031700050E8050F216840F0800041E80502AAB13F
:10318000206850E8050F216840F0800041E8050202
:1031900062B1206850E8050F216840F0800041E8E6
:1031A0000502002A4FF00000D8D1B0BD0020B0BD0C
:1031B0007047000070470000FEE700002DE9F04F67
:1031C00083B007680446DDF834B00C9E3868994631
:1031D00040F4806038603868904640F48070386011
:1031E00078698A46C00714D1751C06E07869C00763
:1031F00000F0C0807869C0070BD1002DFAD0FEF72F
:103200000FFB2768002EF1D0A0EB0B00B042F1D9E4
:10321000ECE70AF0FE0AC7F810A0384650F8141F71
:1032200089071AD4751C08E07869800740F1DD80B1
:10323000384650F8141F89070FD47969490500F101
:103240009080002DF4D0FEF7EBFA2768002EEBD02B
:10325000A0EB0B00B042EBD9E6E700200290384625
:1032600050F8141F02914168029102990168090601
:103270001AD4751C09E000BF7869000640F1A080EF
:10328000384650F8141F09060ED47969490563D4ED
:10329000002DF5D0FEF7C4FA2768002EECD0A0EB85
:1032A0000B00B042ECD9E7E7B9F1010F21D04FEAAA
:1032B00018203861384650F8141F090619D4751CB7
:1032C00008E000BF786900067AD5384650F8141F28
:1032D00009060ED4796949053ED4002DF5D0FEF7D4
:1032E0009FFA2768002EEDD0A0EB0B00B042ECD97E
:1032F000E8E75FFA88F03861384650F8141F09068D
:1033000019D4751C08E000BF7869000658D5384606
:1033100050F8141F09060ED4796949051CD4002DF4
:10332000F5D0FEF77DFA2768002EEDD0A0EB0B005C
:10333000B042ECD9E8E738684FF0011140F48070F2
:103340003860204600223346CDF800B000F05EF829
:1033500038B3206800681BE06FF4806101600420CE
:103360002FE0396841F4007139606FF480610160C9
:1033700004203BE000202021206384F83D1084F8E5
:103380003E00216C41F02001216484F83C00386843
:10339000C00544BF4FF400702064032003B0BDE8B3
:1033A000F08F25684AF001070221C0F20101204692
:1033B00032465B462F6103B0BDE8F04F00F082B8A3
:1033C000202000212022216384F83D2084F83E1033
:1033D000226C1043206484F83C10206C042811D126
:1033E000386840F4007038600CE020200021202272
:1033F000216384F83D2084F83E10226C1043206441
:1034000084F83C10012003B0BDE8F08F2DE9F047AF
:1034100080460068154601F47F071822B7F5803F03
:1034200008BF142280588CB22040001BB0FA80F0F4
:103430004009A84230D1DDF820901E4603F1010A70
:103440001EE000BFD8F800001821B7F5803F08BF84
:10345000142140582040001BB0FA80F04009A842D7
:103460001DD0D8F800001821B7F5803F08BF1421FF
:1034700040582040001BB0FA80F04009A8420BD110
:10348000BAF1000FEDD0FEF7CBF9002EDAD0A0EBA9
:103490000900B042E5D9D5E70020BDE8F08700205B
:1034A0002021C8F8300088F83D1088F83E00D8F890
:1034B000401041F02001C8F8401088F83C0001207D
:1034C000BDE8F0872DE9F0419846036804461846A8
:1034D00050F8146F8FB206EA0701B94202D10020FA
:1034E000BDE8F0811646551C0AE000BF5869384017
:1034F000B8421DD1184650F8141F3940B942EED0D9
:10350000596949050BD4002DF4D0FEF789F92368D9
:10351000002EEBD0A0EB0800B042EBD9E6E719682B
:1035200041F4007119606FF480610160042000E0D3
:10353000202000212022216384F83D2084F83E10C1
:10354000226C10432064012084F83C10BDE8F08117
:1035500080B52DED048BFDF777FFB0EE408AB0EE1D
:103560000C0AB4EE408AF1EE10FA21D19FED299AAF
:1035700040F2B400C2F20000B0EE490A01F0A0FF30
:1035800040F20C10C2F20000B0EE490A01F098FFC0
:1035900040F26410C2F20000B0EE490A01F090FF60
:1035A00040F25C00C2F20000B0EE490A01F088FF70
:1035B000B8EE0C0A9FED181A38EE000A9FED152A96
:1035C00020EE010A32EE409A40F2B40030EE028A58
:1035D000C2F20000B0EE490A01F072FF40F20C1096
:1035E000C2F20000B0EE480A01F06AFF40F2641037
:1035F000C2F20000B0EE490A01F062FF40F25C0046
:10360000C2F20000B0EE480ABDEC048BBDE8804079
:1036100001F056BFCDCC4C3ECDCC4C3D80B588B0F2
:103620000B4802AF01900AA000F1040E9EE80E5074
:10363000806987E80E50079001A8002101F0BCFBCB
:1036400040F2E811C2F20001086008B080BD00BF7E
:103650006861000819400008000000000000000038
:1036600080000000000000000000000070B586B07F
:10367000002543F6300005950095C4F2020001686C
:1036800040F6000441F0800101600168C4F20204C8
:1036900001F080010091009900950168002241F03D
:1036A000010101600168C02601F00101009100994B
:1036B0000095016841F002010160016801F002011A
:1036C000009100990095016841F0040101600168D2
:1036D00001F00401009100990095016841F0080192
:1036E00001600068C02100F00800009000982046AA
:1036F000FEF790F80120CDE9020501A920460196C8
:103700000495FDF7B7FF06B070BD000080B540F22C
:10371000042045F60001C2F20000C4F200010023BB
:103720004FF4804C42F2107280E80E00C0E9033C76
:10373000C0E90533C0E90733FEF778F8002808BF71
:1037400080BDBDE88040FDF77BBE000080B540F243
:10375000582045F60041C2F20000C4F200010023E7
:103760004FF4804C42F2107280E80E00C0E9033C36
:10377000C0E90533C0E90733FEF758F8002808BF51
:1037800080BDBDE88040FDF75BBE000010B58EB087
:1037900040F2AC200021C2F200004FF080425323DF
:1037A00044F61F640D91CDE90B110991CDE9071184
:1037B000CDE90511CDE90311CDE90111C0E90023DF
:1037C000C0E9021401618161FEF70AFF002818BFF9
:1037D000FDF736FE4FF480500A9040F2AC20C2F262
:1037E00000000AA9FEF7E2FF002818BFFDF728FE37
:1037F00040F2AC20C2F20000FFF7B6FA002818BF72
:10380000FDF71EFE40F2AC200024C2F2000008A921
:10381000CDE90844FEF788FE002818BFFDF710FE2A
:103820006020CDE9010440F2AC20C2F2000001A901
:10383000002203940594FFF78DF9002818BFFDF7C7
:10384000FFFD40F2AC20C2F20000FFF725F90EB0F8
:1038500010BD000010B58EB040F2F42040F20042DE
:103860000021C2F20000C4F20002532344F61F6498
:103870000D91CDE90B110991CDE90711CDE90511A4
:10388000CDE90311CDE90111C0E90023C0E902141B
:1038900001618161FEF7A4FE002818BFFDF7D0FD8D
:1038A0004FF480500A9040F2F420C2F200000AA9BE
:1038B000FEF77CFF002818BFFDF7C2FD40F2F420A0
:1038C000C2F20000FFF750FA002818BFFDF7B8FD5C
:1038D00040F2F4200024C2F2000008A9CDE9084417
:1038E000FEF722FE002818BFFDF7AAFD6020CDE9F3
:1038F000010440F2F420C2F2000001A90022039466
:103900000594FFF727F9002818BFFDF799FD40F24D
:10391000F420C2F20000FFF7BFF80EB010BD0000A7
:1039200080B586B040F23C3040F600020021C2F281
:103930000000C4F2000253230591CDE90311CDE943
:103940000011C0E90021C0E90213016180218161F9
:10395000FEF746FE002818BFFDF772FD4FF48050B9
:10396000029040F23C30C2F2000002A9FEF71EFFB6
:10397000002818BFFDF764FD40F23C30C2F20000A1
:103980006946FEF7D1FD002818BFFDF759FD06B0C6
:1039900080BD000010B58EB040F2843040F6004289
:1039A0000021C2F20000C4F20002532344F61F6457
:1039B0000D91CDE90B110991CDE90711CDE9051163
:1039C000CDE90311CDE90111C0E90023C0E90214DA
:1039D00001618161FEF704FE002818BFFDF730FD8C
:1039E0004FF480500A9040F28430C2F200000AA9DD
:1039F000FEF7DCFE002818BFFDF722FD40F2843000
:103A0000C2F20000FFF7B0F9002818BFFDF718FD5B
:103A100040F284300024C2F2000008A9CDE9084435
:103A2000FEF782FD002818BFFDF70AFD6020CDE9F2
:103A3000010440F28430C2F2000001A90022039484
:103A40000594FFF787F8002818BFFDF7F9FC40F24E
:103A50008430C2F20000FFF71FF80EB010BD000066
:103A600080B582B040F2CC3041F200020021C2F2B7
:103A70000000C4F20002532340F2E73CCDE90011FC
:103A8000C0E90023C0E9021C8161FEF7A9FD0028FE
:103A900018BFFDF7D5FC40F2CC30C2F200006946F9
:103AA000FEF742FD002818BFFDF7CAFC02B080BD3A
:103AB00080B540F2144041F20001C2F20000C4F2AD
:103AC000010100234FF00C0C4FF4E13280E80E00AE
:103AD000C0E90333C0E905C3C361FFF701FA002859
:103AE00008BF80BDBDE88040FDF7AABC80B540F2AC
:103AF0005C4044F20041C2F20000C4F20001002325
:103B00004FF00C0C4FF4E13280E80E00C0E90333B3
:103B1000C0E905C3C361FFF7E3F9002808BF80BD12
:103B2000BDE88040FDF78CBCFEE7000080B52DEDC0
:103B3000068B9FED1B8A9FED1B1A20EE080A80EE74
:103B4000019A9FED19AA40F2B400C2F20000B0EE53
:103B50004A0AF0EE490A01F023FC40F20C10C2F2CE
:103B60000000B0EE480AF0EE490A01F019FC40F2FC
:103B70006410C2F20000B0EE4A0AF0EE490A01F009
:103B80000FFC40F25C00C2F20000B0EE480AF0EE1A
:103B9000490ABDEC068BBDE8804001F001BC00BFC6
:103BA000F5DB973E0000B442F5DB97BE80B52DED06
:103BB000048B9FED189AB0EE408A40F2B400C2F236
:103BC0000000B0EE490AF0EE480A01F0E9FB40F2CD
:103BD0000C10C2F20000B0EE490AF0EE480A01F003
:103BE000DFFB40F26410C2F20000B0EE490AF0EED2
:103BF000480A01F0D5FB40F25C00C2F20000B0EED2
:103C0000490AF0EE480ABDEC048BBDE8804001F0A3
:103C1000C7BB00BFCDCC4CBE80B52DED048B9FED56
:103C2000189AB0EE408A40F2B400C2F20000B0EE42
:103C3000490AF0EE480A01F0B3FB40F20C10C2F260
:103C40000000B0EE490AF0EE480A01F0A9FB40F28C
:103C50006410C2F20000B0EE490AF0EE480A01F02A
:103C60009FFB40F25C00C2F20000B0EE490AF0EEA9
:103C7000480ABDEC048BBDE8804001F091BB00BF59
:103C8000CDCC4C3E80B52DED048B9FED199AB0EE56
:103C9000408A40F2B400C2F20000B0EE490AF0EEF1
:103CA000480A01F07DFB40F20C10C2F20000B0EEB9
:103CB000490AF0EE480A01F073FB9FED0E9A40F2BC
:103CC0006410C2F20000B0EE490AF0EE480A01F0BA
:103CD00067FB40F25C00C2F20000B0EE490AF0EE71
:103CE000480ABDEC048BBDE8804001F059BB00BF21
:103CF000CDCC4C3ECDCC4CBE80B52DED048B9FED94
:103D0000199AB0EE408A40F2B400C2F20000B0EE60
:103D1000490AF0EE480A01F043FB40F20C10C2F2EF
:103D20000000B0EE490AF0EE480A01F039FB9FEDC1
:103D30000E9A40F26410C2F20000B0EE490AF0EEB2
:103D4000480A01F02DFB40F25C00C2F20000B0EE28
:103D5000490AF0EE480ABDEC048BBDE8804001F052
:103D60001FBB00BFCDCC4CBECDCC4C3EFEE700000F
:103D7000EFF30980BFF36F8F154B1A681EF0100F19
:103D800008BF20ED108A20E9F04F10602DE90900EE
:103D90004FF0500080F31188BFF34F8FBFF36F8F48
:103DA00001F018FE4FF0000080F31188BDE8090013
:103DB00019680868B0E8F04F1EF0100F08BFB0ECAB
:103DC000108A80F30988BFF36F8F704700BF00BF70
:103DD000AC04002040F2AC20C2F2000000684FF4B6
:103DE000FA7141637047000040F2AC20C2F200005B
:103DF000006840F6C411416370470000F0B585B01B
:103E000040F258240020C2F20004ADF812004FF432
:103E10007A7501260DF1120720469821DD22012333
:103E2000CDE900760295FDF7B1FD781CCDE90006DD
:103E300020469A21DD2201230295FDF7A7FD9DF87A
:103E4000121040F2F4129DF8130001F00103C2F2C7
:103E50000002137040F2FC1300F00107C2F20003ED
:103E60001F70C1F340075770C0F340075F70C1F384
:103E700080079770C0F380079F70C1F3C007D770A9
:103E8000C0F3C007DF70C1F300171771C0F300174C
:103E90001F71C1F340175771C0F340175F71C1F331
:103EA00080179771C0F38017C909C0099F71D1713C
:103EB000D87105B0F0BD0000F0B583B040F2042425
:103EC00040F2BC17C2F200044FF47A750326C2F226
:103ED000000720469021D0220123CDE900760295EB
:103EE000FDF754FDF81CCDE9000620469021D122B3
:103EF00001230295FDF74AFD03B0F0BD000000006C
:103F0000074B19680868B0E8F04F80F30988BFF3E1
:103F10006F8F4FF0000080F31188704700BF00BF23
:103F2000AC0400202DE9F04381B040F2BC16C2F28F
:103F30000006707940F2C81740F2A84840F2C41950
:103F4000EF28C2F20007C2F20008C2F200090DD049
:103F500001244FF4C84500BFFFF7AEFF70793C6005
:103F6000EF28C8F80050C9F80040F5D141F20061CF
:103F70000120C0F20D013860C8F80010C9F8000037
:103F800001B0BDE8F083000080B510EE100A40F2E9
:103F9000C8120021B5EE400AC2F2000220F0004033
:103FA000F1EE10FAC8BF01211160FCF765FA9FED30
:103FB0000E0B53EC102BFCF746F9FCF744FAC11733
:103FC00000EB517140F2A8420730C910C2F2000262
:103FD0000F28116038BF80BD40F2C410C2F200004B
:103FE0000121016080BD00BF000000000000F94019
:103FF00040F2F420C2F2000000684FF4FA7141630D
:104000007047000040F2F420C2F20000006840F661
:10401000C411416370470000012000F0BFFEFBE7C0
:10402000DDF800C00160426380F8383080ED0F0A8F
:1040300080F840C07047000080B52DED028B9FEDE9
:10404000138A40F2B400C2F20000B0EE480A01F058
:1040500037FA40F20C10C2F20000B0EE480A01F04C
:104060002FFA40F26410C2F20000B0EE480A01F0EC
:1040700027FA40F25C00C2F20000B0EE480ABDEC44
:10408000028BBDE8804001F01BBA00BF00000000B9
:1040900080B5FDF787FE01F029FE012808BF80BD2D
:1040A000BDE8804001F09EBDB0B592B0002443F65B
:1040B0004000CDE90A44CDE908440594CDE9034424
:1040C000CDE901440094C4F202000168022541F0E8
:1040D00080510160006800F080500090009847F225
:1040E00000000094C4F20000016841F480410160C6
:1040F000006800F4804000900098012006904FF482
:10410000803007904FF480000D9019200E904FF4EE
:10411000A870CDE90F050420119006A80C95FEF7B4
:104120002FF810B172B600BFFEE70F20CDE90105F0
:104130004FF4A05004904FF48050059001A8052141
:104140000394FDF711FF10B172B600BFFEE712B085
:10415000B0BD00004EF68850CEF20000016841F478
:104160007001016070470000F0B581B040F2C416E4
:10417000C2F20006306801284BD140F2C810C2F2EA
:104180000000006840F600040138C4F20204B0FAEE
:1041900080F0420920468021FDF73CFB40F2CC151F
:1041A000C2F200052868012824D090BB40F2A8473D
:1041B000C2F20007386828B3204640210122FDF7EB
:1041C00029FB40F2D01040F20801C2F20000C2F216
:1041D0000001026809683B680132013B8A424FF0E6
:1041E000000102603B60A4BF01600121286808440F
:1041F00028600EE02046402100220024FDF70AFB43
:104200002C6006E040F2D4110020C2F200013060C0
:10421000086040F23C30C2F2000001B0BDE8F0405E
:10422000FEF794BBB0B540F6FF3E0568C4F2000E41
:1042300040F2004C7045C4F2010C0FDCB0F1804F2D
:1042400019D040F20043C4F20003984213D040F664
:104250000003C4F2000398420DD011E040F6004381
:10426000C4F20003984206D0604504D00023C4F293
:104270000103984204D14B6825F0700243EA02051D
:1042800041F6FF73C4F2000398420DDC70451FDC59
:10429000B0F1804F41D040F20043C4F20003984295
:1042A0003BD040F6000321E043F6FF73C4F2010364
:1042B000984220DC42F20003C4F2000398422CD062
:1042C0000023C4F20103984227D0604525D029E09D
:1042D00040F60043C4F2000398421ED041F60003AA
:1042E000C4F20003984218D041F60043C4F2000320
:1042F000984212D016E044F20003C4F2010398423F
:104300000BD044F60003C4F20103984205D044F2F6
:104310000043C4F20103984204D1CB6825F44072F3
:1043200043EA02050A688C684B69C46240F4806401
:104330008262644504BF09690163026825F0800157
:1043400042F0040219430260012242610160B0BDE3
:10435000806B01684A6990F84130212B2DD112F011
:1043600080022AD00021C184016851E8031F02683D
:1043700021F0C00142E80313DBB1016851E8031FDB
:10438000026821F0C00142E8031393B1016851E8CB
:10439000031F026821F0C00142E803134BB101681A
:1043A00051E8031F026821F0C00142E80313002B0B
:1043B000DAD1202180F841100168496990F8422043
:1043C000222A40F07D8011F0400179D00021C18582
:1043D000016851E8031F026821F4907142E8031359
:1043E000BBB3016851E8031F026821F4907142E8F1
:1043F000031373B3016851E8031F026821F490713D
:1044000042E803132BB3016851E8031F026821F44B
:10441000907142E80313002BDAD11AE0016851E8E9
:10442000051F026821F0010142E80513DBB10168B4
:1044300051E8051F026821F0010142E8051393B11C
:10444000016851E8051F026821F0010142E80513E7
:104450004BB1016851E8051F026821F0010142E8F3
:104460000513002BDAD1016B012924D1016851E831
:10447000031F026821F0100142E80313DBB1016859
:1044800051E8031F026821F0100142E8031393B1C1
:10449000016851E8031F026821F0100142E803138C
:1044A0004BB1016851E8031F026821F0100142E896
:1044B0000313002BDAD1202180F842100021016380
:1044C000416C41F010014164FEF708BD0168806B4A
:1044D0000968C90548BFFEF76BBE0021C18400BF53
:1044E000016851E8051F026821F0800142E80513C8
:1044F00083B3016851E8051F026821F0800142E89A
:1045000005133BB3016851E8051F026821F08001E3
:1045100042E80513F3B1016851E8051F026821F074
:10452000800142E80513002BDAD113E0016851E85D
:10453000031F026841F0400142E80313002B08BF4B
:104540007047016851E8031F026841F0400142E8EA
:10455000031393B1016851E8031F026841F0400161
:1045600042E803134BB1016851E8031F026841F0B0
:10457000400142E80313002BD8D17047806BFEF74F
:1045800019BE000010B504460068D4E902C22369D0
:10459000016921F4405111430161626943EA0C0150
:1045A000E3691143C268194349F20C639A4311430A
:1045B000C1604169A26921F4407141F20043114395
:1045C00040F48062C4F201039A42416102D1FDF7D6
:1045D0008FFD01E0FDF778FDE16963681922B1F50F
:1045E000004FA0FB020120D15A00DB0FFBF7E8FDD2
:1045F00048F21F51C5F2EB11A0FB01235A094FF6F7
:104600009C73C0F6FF7303F1805302FB0300322357
:1046100003EBC000A0FB01014FF4F87000EA111099
:1046200000EB0210C1F342111CE09A009B0FFBF754
:10463000C7FD48F21F51C5F2EB11A0FB01235A0937
:104640004FF69C73C0F6FF7302FB0300322303EBAB
:104650000010A0FB0101F02000EA511000EB021055
:10466000C1F3431108442168886010BD40F2BC10BA
:10467000C2F20000C178C22904D90120DB2988BF19
:10468000022009E01A2901D2022005E0A1F12D0043
:104690001E2888BF7047032040F2D811C2F20001E3
:1046A00008707047FEE700004FF4FA6148434BF68C
:1046B000D711C0F2F201A0FB010140F28430C2F236
:1046C0000000006801F5FA714163704770B5144647
:1046D0000546D0E903020E46511C2961C90001F0CC
:1046E00001FD2969E86000EBC10040E9026470BD8A
:1046F00080B50C2001F096FC0021C0E9001181601A
:1047000080BD00002DE9F04107461420984615466B
:104710000E4601F087FC04460020C4E90300D7E9F7
:104720000101C4E900650131B9608900C4F808805D
:1047300001F0D8FCB968786000EB8101204641F8AF
:10474000044CBDE8F0810000F0B581B0044600687B
:10475000A0B10D4681682846884720680169012973
:104760000CDB0026C76807EBC6004168284688476F
:1047700030B92068013601698E42F3DB01B0F0BD2B
:1047800057F83600206001B0F0BD000001607047AE
:10479000FDF716FBFFF788FCFEF768FFFEF7D6FF74
:1047A000FFF786F9FFF7A2F9FEF7B0FFFEF7EEFF7D
:1047B000FFF750F8FFF7EEF8FFF7B2F8FFF750F900
:1047C00040F23C30C2F20000FDF79CFF40F2CC30DA
:1047D000C2F20000FDF796FF40F2AC20C2F20000EA
:1047E0000021FEF7F3FA40F2F420C2F200000021AB
:1047F000FEF7ECFA40F28430C2F200000021FEF72E
:10480000E5FA40F6B830FCF721FF00F007F8FEF7B4
:1048100005FF00F0CBFA00BFFEE70000F0B581B065
:104820002DED028B82B0012040F214449FED3C8AB2
:10483000009040F25C00C2F20004C2F200000221CB
:1048400022460023B0EE480A02250027FFF7E8FBC6
:104850000A2000F0E3FF40F2B400C2F200000121A0
:1048600022460123B0EE480A0097FFF7D9FB0A2041
:1048700000F0D4FF40F20C10C2F2000003212246E7
:104880000023B0EE480A00970326FFF7C9FB0A2071
:1048900000F0C4FF40F26410C2F20000042122467E
:1048A0000123B0EE480A0097FFF7BAFB0A2000F098
:1048B000B5FF00F04FF84120FFF7F6FEFFF78AFA48
:1048C000FFF796FB4FF47A7000F0A8FF40F2A44780
:1048D00044F6DD40C2F20007C0F6000011A14FF41B
:1048E00048720023CDE9006701F094F9044640F2D4
:1048F000485745F28D30C2F20007C0F600000DA106
:10490000C8220023CDE9005701F084F9012C08BF2B
:10491000012800D0FEE702B0BDEC028B01B0F0BD73
:104920002DB29D3D4D6F74696F6E50726F636573EC
:104930007300000053656E736F7250726F6365731E
:104940007300000040F25800C2F20000006800212D
:10495000FFF7FABE2DE9F04F81B0FFF7C9FE40F234
:10496000580540F68153C2F20005B1A2C0F600031B
:1049700000212860FFF7C6FE40F238022968C2F223
:10498000000240F6096310601446ABA2C0F60003B3
:1049900008460121FFF7B6FE40F23C062968C2F244
:1049A000000646F2831240F665733060C0F60002DE
:1049B000C0F6000308460221FFF7A4FE40F24009BA
:1049C0002968C2F2000946F2741241F25123C9F873
:1049D0000000C0F60002C0F6000308460321FFF7FE
:1049E00091FE40F24C0A2968C2F2000A40F2C95313
:1049F000CAF8000092A2C0F6000308460421FFF79F
:104A000081FE40F220022968C2F2000240F6C5137E
:104A1000106017468EA2C0F6000308460521FFF776
:104A200071FE40F22C022968C2F2000240F6F173D6
:104A300010608AA2C0F6000308460621FFF762FE56
:104A400040F244022968C2F2000241F2F9231060E8
:104A500087A2C0F6000308460721FFF753FE40F285
:104A600050022968C2F2000240F29963106084A2E9
:104A7000C0F6000308460821FFF744FE40F2240276
:104A80002968C2F2000240F62133106080A2C0F60D
:104A9000000308460921FFF735FE40F2300229687D
:104AA000C2F2000241F20D1310607CA2C0F60003B6
:104AB00008460A21FFF726FE40F248022968C2F2A2
:104AC000000241F2A133106079A2C0F6000308464B
:104AD0000B21FFF717FE40F2540B2968C2F2000BBE
:104AE00040F61103CBF8000075A2C0F6000308469B
:104AF0000C21FFF707FE40F228082968C2F20008DF
:104B000040F62543C8F8000071A2C0F6000308462D
:104B10000D21FFF7F7FD40F23403226840F6B1643F
:104B2000C2F200033168C0F6000418601046224645
:104B3000FFF7CCFD3068D9F8001040F6C562C0F62A
:104B40000002FFF7C3FDD9F80000DAF80010224692
:104B5000FFF7BCFDDAF8000039682246FFF7B6FD22
:104B6000386840F22C07C2F2000739682246FFF786
:104B7000ADFD3868D9F8001040F6ED62C0F60002CD
:104B8000FFF7A4FD40F24407C2F20007306839681D
:104B900040F61172C0F60002FFF798FD386840F247
:104BA0005007C2F2000739682246FFF78FFD3868C8
:104BB00040F22407C2F2000739682246FFF786FD5B
:104BC00040F23001C2F20001386809682246FFF75E
:104BD0007DFD306840F24806C2F20006316840F6BA
:104BE0003972C0F60002FFF771FD3068DBF8001083
:104BF0002246FFF76BFDDBF80000D8F800102246D4
:104C0000FFF764FD40F23401C2F20001D8F8000061
:104C100009682246FFF75AFD40F23801C2F200014E
:104C20002868096801B0BDE8F04FFFF7AFBD00BFCD
:104C3000426567696E00000043617272794100004D
:104C40004261636B5F626567696E4131000000001D
:104C50004261636B5F656E644131000044656C695D
:104C6000766572795F626567696E413200000000A7
:104C700044656C69766572795F656E6441320000E7
:104C80004261636B5F626567696E413200000000DC
:104C90004261636B5F656E644132000044656C691C
:104CA000766572795F626567696E41330000000066
:104CB00044656C69766572795F656E6441330000A6
:104CC0004261636B5F626567696E4133000000009B
:104CD0004261636B5F656E644133000084B00DF127
:104CE000060840F2E01440F25C4508F10106002796
:104CF000C2F20004C2F20005FFF724FE206841461C
:104D00008DF8060028461022377277603760FEF76C
:104D1000E9F90A2000F082FDEEE7000080B52DEDF4
:104D2000068B9FED1B8A9FED1B1A20EE080A80EE72
:104D3000019A40F2B400C2F20000B0EE480AF0EE70
:104D4000490A00F02DFB9FED14AA40F20C10C2F2AC
:104D50000000B0EE4A0AF0EE490A00F021FB40F2F2
:104D60006410C2F20000B0EE480AF0EE490A00F00A
:104D700017FB40F25C00C2F20000B0EE4A0AF0EE0F
:104D8000490ABDEC068BBDE8804000F009BB00BFBE
:104D9000F5DB973E0000B442F5DB97BE80B50128F5
:104DA00098BF012000F03AFD002080BD80B500F0E2
:104DB00097FD002080BD0000B0B584B043698E46E9
:104DC00093B1846984B10589D0E9001C026928B2D5
:104DD000843D18BFC51CCDE900536046734602945C
:104DE00000F048FF04B0B0BD0589D0E90013028A85
:104DF00028B2843D18BFC51C03AC18467346CDE9E4
:104E0000005400F007FF0399012818BF002108464D
:104E100004B0B0BD2DE9F04381B0044600F036FC8B
:104E200044F25810C2F20000016840F2AC46013171
:104E30000160C2F20006316844F2204740F2BC45EE
:104E4000C2F20007C2F2000549B13868002851D10A
:104E50003068E16AC06A884298BF34604AE03460D2
:104E60000068012846D1284600F0B8FB05F114007F
:104E700000F0B4FB05F1280000F0B0FB05F13C00A8
:104E800000F0ACFB05F1500000F0A8FB05F1640058
:104E900000F0A4FB05F1780000F0A0FB44F27018CC
:104EA000C2F20008404600F099FB44F28419C2F2B5
:104EB0000009484600F092FB44F20C40C2F20000A8
:104EC00000F08CFB44F24040C2F2000000F086FB90
:104ED00044F22C40C2F2000000F080FB40F2B040EF
:104EE000C2F20000C0F8008040F2B840C2F20000F8
:104EF000C0F8009044F26410C2F20000016844F26D
:104F0000681201310160E06AC2F2000201211368F7
:104F10008140194300EB8000116005EB8000211DEA
:104F200000F09CFB00F0D6FB386878B13068E16A8D
:104F3000C06A88420AD24EF60450CEF200004FF00A
:104F400080510160BFF34F8FBFF36F8F01B0BDE899
:104F5000F083000044F25C1540F2BC4A4EF604585F
:104F600044F2404744F25816C2F20005C2F2000A69
:104F7000CEF200084FF08059C2F20007C2F20006DC
:104F800003E000BF204600F0BDFB2868C8B100F078
:104F90007DFBF868C468201D00F000FB3068013814
:104FA000306028680138286000F094FB94F85100C4
:104FB0000228EAD00128E5D070B9206B00F0A2FBEE
:104FC000E0E7DAF800000228DFD3C8F80090BFF36A
:104FD0004F8FBFF36F8FD8E74FF0500080F31188E9
:104FE000BFF36F8FBFF34F8FFEE700002DE9F0474F
:104FF000DDE909878246386B089C00EB82000438A3
:105000009946002920F0070655D0087887F8340023
:10501000087800284BD0487887F835004878002871
:1050200045D0887887F83600887800283FD0C8783F
:1050300087F83700C878D0B3087987F8380008793E
:10504000A8B3487987F83900487980B3887987F818
:105050003A00887958B3C87987F83B00C87930B3EB
:10506000087A87F83C00087A08B3487A87F83D0048
:10507000487AE0B1887A87F83E00887AB8B1C87A71
:1050800087F83F00C87A90B1087B87F84000087B1A
:1050900068B1487B87F84100487B40B1887B87F83E
:1050A0004200887B00281CBFC87B87F84300002093
:1050B00087F8430002E0002087F834000025381DFF
:1050C000062C28BF0624FC62C7E9114500F092FABD
:1050D00007F1180000F08EFA84F00700B86130463E
:1050E00051464A463F617F62FD6487F8505000F0A8
:1050F0003BF9B8F1000F386018BFC8F80070BDE880
:10510000F087000008480068006880F308884FF0C6
:10511000000080F3148862B661B6BFF34F8FBFF30F
:105120006F8F00DF00BF000008ED00E081B00020BD
:10513000009040F21800C2F2000000684FF05001E9
:1051400081F31188BFF36F8FBFF34F8F013007D00A
:10515000FEE700BF009830B9009820B9009810B958
:1051600000980028F6D001B0704700002DE9F0410A
:10517000044600F027FC40F2B441C2F20001086886
:1051800044F26C18C2F2000830B198F80000002810
:1051900018BF4FF000402BE040F24C50C2F200002C
:1051A000C21D430700F5705318BF22F0070044F2F8
:1051B0002442C2F200020027C2E9000723F00702DE
:1051C000A2F108030B6042E902771A1A0B68C0E9E2
:1051D000003244F2F430C2F20000026044F298104F
:1051E000C2F200000260012088F800004FF0004089
:1051F000002C4FF0000500F0A780204040F0A48074
:1052000024F0070044F2981E00F110056007C2F276
:10521000000E08BF04F10805DEF800006A1E824295
:1052200041D244F22443C2F2000318684468AC42FD
:1052300023D202680AB306465468AC4213D21768F8
:105240008FB17C68AC4211D23B687BB15C68AC42E8
:105250000FD21E686EB17468AC420DD2326830460F
:10526000002AE9D109E01046334606E038461346E5
:1052700003E018463B4600E030460A68904212D0F0
:10528000D3F800C00668621B112A1E603CD3441983
:1052900063070AD04FF0500080F31188BFF36F8F7F
:1052A000BFF34F8FFEE700254EE044F22443C2F2E5
:1052B00000036260456000BF1A68A2420AD2136808
:1052C000A3420AD21A68A24204D213681546A34226
:1052D000F2D303E01D46134600E015466E6862688F
:1052E000AF19A74202D132442C466A60A6189E42EA
:1052F00006D109688B4203D0D3E9003111446160C3
:10530000A542236018BF2C6044F2F4324168DEF8F5
:105310000030C2F2000214685B1AA342CEF80030DB
:1053200038BF136098F8002044F20043C2F2000333
:10533000002A18BF41F000411F6800220CF1080547
:10534000C0E90021781C186000F0A4FD680708D0AF
:105350004FF0500080F31188BFF36F8FBFF34F8F72
:10536000FEE72846BDE8F081034645F22D1021F006
:105370000101C0F600004FF0807C03E903106FF0DC
:105380000201A3F1440043E909127047FEF794FDBE
:10539000FFF76CF9FEF732FD0A2000F03FFAF5E75F
:1053A0002DE9F0412DED048BB0EE409A9FED420ABD
:1053B000044629EE000A10EE100AB0EE608AFBF7F0
:1053C0005BF80546E06B8846FBF756F89FED360B19
:1053D00053EC102BFAF737FF06460F462846414696
:1053E00032463B46FAF7A1FFFBF70EF80546608709
:1053F00018EE100AFBF740F832463B46FAF795FFE5
:105400009FED2B0B53EC102BFAF71DFFFBF71BF84E
:1054100094F83810B5F1FF3F01DDAAB205E0B1FA0A
:1054200081F16D424909AAB265872368264606F8CC
:10543000413FB17000217171010EB171010CF17128
:10544000010A70724FF48070120AFD23317270816C
:105450006B2156F80D0C7370F270317331460D22CA
:105460004FF47A733571FDF7CBFD012000F0D6F9CA
:1054700016F8010C78B14FF60071C6F66631606B14
:10548000C4F84110314604224FF47A73FDF7B8FD99
:10549000012000F0C3F984ED099A84ED0A8ABDEC7D
:1054A000048BBDE8F08100BF1F85EB51B81E094099
:1054B000000000000000A940000070420000000051
:1054C000F0B581B0054600682C4604F8410F9FED09
:1054D000321AA4F11D0080ED000A20EE010A10EE40
:1054E000100AFAF7C9FF064654F8050C0F46FAF7FA
:1054F000C3FF9FED270B53EC102BFAF7A4FE0246D7
:105500000B4630463946FAF710FFFAF77DFF01B235
:1055100080EAE13714F8092CA7EBE13124F8070CF5
:1055200000284FEA1120B2FA82F3D8BF5A09E0707E
:105530004FF48070F6232171A4F805006B2154F814
:105540000D0C6370A270E171214608224FF47A734A
:10555000FDF756FD022000F061F914F8010C90B13E
:105560004FF60071C6F66631686BC5F841102146EA
:1055700004224FF47A73FDF743FD022001B0BDE829
:10558000F04000F04BB901B0F0BD00BF00BF00BF5C
:105590001F85EB51B81E094000007042D0E901326E
:1055A00001699A60D1F804C082688445536008BFDD
:1055B0004A60002202610868013808600868704784
:1055C00044F2A033C2F20003036044F29C10C2F222
:1055D0000000086080201060704700004FF0FF312D
:1055E000024642F8081F00214260C0E90322016020
:1055F00070470000002101617047000010B5D1F82C
:1056000000E01EF1010213D000F108046268136883
:10561000734511D853681C68744510D85A681468CB
:1056200074450ED854682368A4467345EED90AE041
:105630000269D2F804C006E09446224603E09C4684
:1056400001E094461A46C1F804C0CCF808108A60FC
:105650005160086101680131016010BDD0F800C0DF
:10566000436808619A684B608A609A6899605160E3
:105670000CF1010101607047DFF80C00016841F492
:10568000700101607047000088ED00E04FF05000AD
:1056900080F31188BFF36F8FBFF34F8F40F2180074
:1056A000C2F2000001684A1C026001B170474EF668
:1056B0000450CEF200000068000608BF70474FF0AB
:1056C000500080F31188BFF36F8FBFF34F8F00BF7F
:1056D000FEE7000040F21800C2F20000016839B194
:1056E0000139016018BF7047002080F311887047AE
:1056F0004FF0500080F31188BFF36F8FBFF34F8FCF
:10570000FEE70000B0B5002808BFB0BD044644F273
:105710006C10C2F20000007854F8041C002818BF76
:105720004FF0004008420CD0A4F108052A6892B15D
:105730004FF0500080F31188BFF36F8FBFF34F8F8E
:10574000FEE74FF0500080F31188BFF36F8FBFF377
:105750004F8F00BFFEE721EA000044F8040C00F080
:1057600031F944F29810C2F2000054F8041C0268A7
:105770000A44026044F22440C2F200000368AB42D3
:105780000AD21868A8420AD20368AB4204D2186849
:105790001A46A842F2D303E00246184600E01A4631
:1057A0005368D418AC4202D11944154651606B18A5
:1057B00083420AD140F2B443C2F200031B6898420C
:1057C00003D0D0E9000319446960286044F2044022
:1057D000AA4218BF1560C2F20000016801310160E1
:1057E000BDE8B04000F056BB4EF21000CEF2000013
:1057F00000210160816040F20C01C2F200010968E1
:1058000044F6D352C1F26202A1FB02124FF0FF3103
:1058100001EB9211416007210160704770B50028CB
:1058200051D0044644F26010C2F20000016841B158
:105830004FF0500080F31188BFF36F8FBFF34F8F8D
:10584000FEE7016840F2AC450131016044F254408A
:10585000C2F20000C2F20005066828680430FFF7B3
:105860009DFE60B9286844F26812C06AC2F2000264
:105870000121136801FA00F023EA00001060286893
:10588000A419446009D340F2B840C2F20000006895
:1058900029680431FFF7B2FE10E040F2B040C2F2D6
:1058A0000000006829680431FFF7A8FE44F2F830D0
:1058B000C2F2000001688C4238BF046000F0EAFACE
:1058C000002818BF70BD4EF60450CEF200004FF015
:1058D00080510160BFF34F8FBFF36F8F70BD000029
:1058E000B0B588B00020CDE9050006A805A904AA36
:1058F000FFF766FE0598002842D0069C002C48D091
:105900005421049A0791079954294CD1079920638F
:10591000022084F8510007A80025CDE9005044F684
:105920005570C0F6000025A100230294FFF75EFB2E
:105930002046FFF76FFA079844F29C31C2F200014B
:105940000860D8B14FF0500080F31188BFF36F8F1B
:10595000BFF34F8F44F2F830C2F200004FF0FF3136
:10596000016044F22040C2F200000121016044F2D3
:105970005440C2F20000056000F06EF808B0B0BDFF
:105980004FF0500080F31188BFF36F8FBFF34F8F3C
:10599000FEE74FF0500080F31188BFF36F8FBFF325
:1059A0004F8F00BFFEE74FF0500080F31188BFF328
:1059B0006F8FBFF34F8F00BFFEE700BF49444C45D8
:1059C0000000000044F26010C2F2000001680131E2
:1059D0000160704744F26010C2F20000006830B10C
:1059E00044F25840C2F2000001210160704744F2C5
:1059F0005840C2F200000021016044F26810C2F277
:105A000000000068B0FA80F0C0B2C0F11F0040F2A0
:105A1000BC4100EB8000C2F2000151F820208AB1A5
:105A200001EB800151F8040F40680A1D90420860A4
:105A300001D140680860C06840F2AC41C2F2000188
:105A4000086070474FF0500080F31188BFF36F8FEC
:105A5000BFF34F8FFEE70000B0B584B04EF2004CAC
:105A6000CEF2000C4CF27021C4F20F11DCF80029C8
:105A70004B1C9A4209D14FF0500080F31188BFF3BC
:105A80006F8FBFF34F8F00BFFEE7DCF800298A421B
:105A900009D14FF0500080F31188BFF36F8FBFF32F
:105AA0004F8F00BFFEE79CF8001044F24C120291A9
:105AB000FF218CF800109CF80010C2F200028DF853
:105AC00007109DF8071001F05001117044F25011B9
:105AD000C2F2000107220A609DF90720B2F1FF3FE0
