:020000040800F2
:10000000C807002055020008A1260008211E00088C
:100010009D2600084D040008252A00080000000065
:10002000000000000000000000000000B5270008EC
:100030005104000800000000112700080D280008E6
:100040006F0200086F0200086F0200086F020008CC
:100050006F0200086F0200086F0200086F020008BC
:100060006F0200086F0200086F0200086F020008AC
:100070006F0200086F0200086F0200086F0200089C
:100080006F0200086F0200086F0200086F0200088C
:100090006F0200086F0200086F0200086F0200087C
:1000A0006F0200086F0200086F0200086F0200086C
:1000B0006F0200086F0200086F0200086F0200085C
:1000C0006F0200086F0200086F0200086F0200084C
:1000D0006F0200086F0200086F0200086F0200083C
:1000E0006F0200086F0200086F0200086F0200082C
:1000F0006F0200086F0200086F0200086F0200081C
:100100006F0200086F0200086F0200086F0200080B
:100110006F0200086F0200086F0200086F020008FB
:100120006F0200086F0200086F0200086F020008EB
:100130006F0200086F0200086F0200086F020008DB
:100140006F0200086F0200086F0200086F020008CB
:100150006F0200086F0200086F0200086F020008BB
:100160006F0200086F0200086F0200086F020008AB
:100170006F0200086F0200086F0200080000000014
:100180006F0200086F02000800F002F800F052F859
:1001900014A696E8000CB244B344DA4501D100F04D
:1001A00049F8BAE80F000FA696E83000A5EB040561
:1001B00004EB0607AAEB0704A7F101074FEA1515A0
:1001C0004FEA3414A4F10104AC4201D300F032F838
:1001D00013F0010F18BFFB1A43F0010300F001F800
:1001E000DBE718474429000064290000103A24BFC7
:1001F00078C878C1FAD8520724BF30C830C144BF8C
:1002000004680C6070470000704700000023002461
:1002100000250026103A28BF78C1FBD8520728BF16
:1002200030C148BF0B6070471FB502F064FC1FBDB2
:1002300010B510BD00F0D5F81146FFF7F5FF02F03C
:100240003BFC00F0F3F803B4FFF7F2FF03BC00F04F
:10025000F7F800000948804709480047FEE7FEE735
:10026000FEE7FEE7FEE7FEE7FEE7FEE7FEE7FEE766
:1002700004480549054A064B70470000D528000888
:1002800089010008C8010020C8070020C803002019
:10029000C803002053EA020C00F069802DE9F04BFE
:1002A0004FF00006002B1FBFB3FA83F503FA05F4E5
:1002B00024FA05F65E4012BF1643B2FA82F502FA3E
:1002C00005F4C5F120051EBF22FA05FC44EA0C0422
:1002D000203556EA044C4FEA144418BF641C4FF012
:1002E00000084FF00009904271EB030C39D300294C
:1002F00019BFB1FA81F701FA07F6B0FA80F700FAF0
:1003000007F6C7F120071EBF20FA07FC46EA0C06D5
:100310002037B6FBF4FCA7EB0507103F07F01F0BD7
:10032000CBF120062CFA06F60CFA0BFB44BFB346C1
:100330000026202FA4BF5E464FF0000B5BEA060CA0
:1003400008BF4FF0010B19EB0B0948EB0608ABFB9C
:10035000027C06FB02CC0BFB03CCC01B71EB0C0137
:10036000C1E70B46024641464846BDE8F08B13B54F
:10037000084318BF4FF0FF300146AFF30080BDE8DF
:100380001C4070474FF0000200B513469446964655
:10039000203922BFA0E80C50A0E80C50B1F1200198
:1003A000BFF4F7AF090728BFA0E80C5048BF0CC046
:1003B0005DF804EB890028BF40F8042B08BF7047A4
:1003C00048BF20F8022B11F0804F18BF00F8012B16
:1003D0007047704770477047004870471000002012
:1003E00070477546FFF7F8FFAE460500694653466D
:1003F00020F00700854618B020B5FFF739FFBDE8AB
:1004000020404FF000064FF000074FF000084FF07B
:10041000000BAC46ACE8C009ACE8C009ACE8C009C8
:10042000ACE8C00921F007018D46704710B50446BD
:10043000AFF300802046BDE81040FFF704BF000086
:1004400001491820ABBEFEE726000200FFE7FEE7E9
:100450007047000072B6FFE7FEE7000080B584B089
:10046000039000F0F9F9029003980190019801308F
:1004700048B1FFE740F20400C2F2000001780198A1
:1004800008440190FFE7FFE700F0E6F90299401AFF
:100490000199884201D2FFE7F6E704B080BD000071
:1004A0008EB00D900C9100200A90099008900B904E
:1004B000FFE70B980F2800F2CC81FFE70B99012092
:1004C00088400A900C9800680A9908400990099899
:1004D0000A99884240F0B881FFE70C98406800F024
:1004E0000300012807D0FFE70C98406800F00300E4
:1004F00002282FD1FFE70D98806808900B984100E3
:10050000032000FA01F10898884308900C98C0680D
:100510000B99490000FA01F10898084308900898DF
:100520000D9988600D98406808900B99012000FA99
:1005300001F10898884308900C984068C0F30010B7
:100540000B9900FA01F108980843089008980D9952
:100550004860FFE70C98406800F00300032818D0BB
:10056000FFE70D98C06808900B984100032000FA3F
:1005700001F10898884308900C9880680B9949000D
:1005800000FA01F108980843089008980D99C8608E
:10059000FFE70C98406800F00300022826D1FFE72F
:1005A0000D980B996FF0030202EA51010844006AAA
:1005B00008900B9800F0070081000F2000FA01F16D
:1005C0000898884308900C9800690B9901F007017E
:1005D000890000FA01F108980843089008980D99DD
:1005E0000B9B02EA530211440862FFE70D98006872
:1005F00008900B984100032000FA01F10898884305
:1006000008900C98406800F003000B99490000FA2C
:1006100001F108980843089008980D9908600C9813
:1006200080798007002800F00E81FFE7FFE70020B7
:10063000079043F64400C4F20200016841F480418F
:100640000160006800F4804007900798FFE70B986E
:1006500020F0030043F60801C4F20101405808905D
:100660000B9800F0030081000F2000FA01F10898B8
:10067000884308900D980021C4F20201884203D1FA
:10068000FFE7002006905EE00D9840F20041C4F2C2
:100690000201884203D1FFE70120059050E00D9848
:1006A00040F60001C4F20201884203D1FFE70220B4
:1006B000049042E00D9840F60041C4F202018842E5
:1006C00003D1FFE70320039034E00D9841F20001CD
:1006D000C4F20201884203D1FFE70420029026E021
:1006E0000D9841F20041C4F20201884203D1FFE7B4
:1006F0000520019018E00D9841F60001C4F20201B6
:10070000884203D1FFE7062000900AE00D9941F6E8
:100710000042C4F202020820914208BF0720009064
:10072000FFE700980190FFE701980290FFE7029829
:100730000390FFE703980490FFE704980590FFE714
:1007400005980690FFE70698C0B20B9901F00301E7
:10075000890000FA01F108980843089008980B995D
:1007600021F0030143F60802C4F20102885043F667
:100770000840C4F20100006808900999089888436D
:1007800008900C988079C006002805D5FFE70999E4
:10079000089808430890FFE7089843F60841C4F218
:1007A0000101086043F60C40C4F2010000680890A3
:1007B00009990898884308900C9880798006002849
:1007C00005D5FFE70999089808430890FFE70898BE
:1007D00043F60C41C4F20101086043F60440C4F240
:1007E00001000068089009990898884308900C98BF
:1007F00080798007002805D5FFE709990898084304
:100800000890FFE7089843F60441C4F2010108602C
:1008100043F60040C4F20100006808900999089866
:10082000884308900C988079C00728B1FFE70999A0
:10083000089808430890FFE7089843F60041C4F27F
:1008400001010860FFE7FFE7FFE70B9801300B901D
:100850002FE60EB07047000040F2C010C2F2000058
:100860000068704780B58EB00C900C9820B9FFE7F7
:1008700001208DF8370043E10C9890F83D0040B915
:10088000FFE70C99002081F83C000C9800F05EFB1B
:10089000FFE70C99242081F83D000C980168086856
:1008A00020F0010008600C980168086840F40040DE
:1008B00008600C980168086820F40040086000F0A7
:1008C000D9FD0A900C98406848F2A061C0F201017D
:1008D00088420BD8FFE70A9948F28042C0F21E0214
:1008E0000020914238BF012009900AE00A9940F6A1
:1008F0000012C0F23D020020914238BF0120099051
:10090000FFE70998012804D1FFE701208DF837009F
:10091000F6E00A984DF68361C4F21B31A0FB01108A
:10092000800C0B900C980068406820F03F000B99F9
:1009300008430C99096848600C980068006A20F028
:100940003F0008900C98406848F2A061C0F2010195
:10095000884204D8FFE70B98013007900EE00B980F
:100960004FF49671484344F6D351C1F26201A0FBA3
:100970000101012000EB91100790FFE7089807990B
:1009800008430C99096808620C980068C0694CF625
:10099000FF71884306900C98406848F2A061C0F24D
:1009A000010188421FD8FFE70A9801380C9949686D
:1009B0004900B0FBF1F001306FF31F30032803D87A
:1009C000FFE7042005900BE00A9801380C9949686C
:1009D0004900B0FBF1F001306FF31F300590FFE7E5
:1009E000059804904CE00C98806868B9FFE70A9875
:1009F00001380C99496801EB4101B0FBF1F001307D
:100A00006FF31F3003900DE00A9801380C99496884
:100A100019225143B0FBF1F00130042161F31F3082
:100A20000390FFE70398000518B9FFE70120029043
:100A300023E00C98806868B9FFE70A9801380C99A0
:100A4000496801EB4101B0FBF1F001306FF31F3059
:100A500001900DE00A9801380C9949681922514318
:100A6000B0FBF1F00130042161F31F300190FFE78A
:100A7000019840F400400290FFE702980490FFE7DD
:100A80000698049908430C990968C8610C98006895
:100A9000006820F0C0000C9B1968DA691B6A1A43D1
:100AA000104308600C980068806848F2FF31884362
:100AB0000C9A1168D36812691A43104388600C9825
:100AC0000068C06820F0FF000C9B19685A699B6998
:100AD0001A431043C8600C980168086840F0010090
:100AE00008600C99002008640C9A202182F83D10BF
:100AF0000C9908630C9981F83E008DF83700FFE7E8
:100B00009DF837000EB080BD10B58CB084461098AB
:100B10000F98DDF838E0CDF828C0ADF82610ADF814
:100B20002420ADF82230ADF82000FFF795FE0790A5
:100B30000A9890F83D00202840F00082FFE70A98CC
:100B400007996A4611600221C0F21001012219239F
:100B500001F08CFA20B1FFE702208DF82F00F1E1BF
:100B6000FFE70A9890F83C00012804D1FFE7022033
:100B70008DF82F00E6E10A99012081F83C00FFE79B
:100B8000FFE70A9800680068C00738B9FFE70A98CD
:100B90000168086840F001000860FFE70A980168F2
:100BA000086820F4006008600A99222081F83D005E
:100BB0000A99402081F83E000A99002008640E98A6
:100BC0000A994862BDF820000A9948850A98408D24
:100BD0000A9908850A990020CFF6FF70C8620A9822
:100BE000BDF82610BDF82420BDF82230DDF840C045
:100BF000079CEE46CEF80440CEF800C001F044F960
:100C000020B1FFE701208DF82F009BE10A98008DAD
:100C1000A0B9FFE7FFE7002006900A980068406946
:100C200006900A980068806906900698FFE70A987F
:100C30000168086840F4007008604DE00A98008D73
:100C400001281AD1FFE70A980168086820F480603B
:100C50000860FFE7002005900A9800684069059049
:100C60000A980068806905900598FFE70A9801686E
:100C7000086840F4007008602DE00A98008D022892
:100C80001AD1FFE70A980168086820F480600860BC
:100C90000A980168086840F400600860FFE70020D7
:100CA00004900A980068406904900A980068806976
:100CB00004900498FFE70DE0FFE7002003900A98F6
:100CC0000068406903900A9800688069039003985F
:100CD000FFE7FFE7FFE7FFE7FFE70A98008D00283F
:100CE00000F01A81FFE70A98008D032800F2CC80FB
:100CF000FFE70A98008D01281ED1FFE70A98109996
:100D0000079A01F0E1FA20B1FFE701208DF82F00EA
:100D100018E10A98006800690A99496A08700A99F6
:100D2000486A013048620A99088D013808850A9995
:100D3000488D01384885A6E00A98008D02283CD1EC
:100D4000FFE70A98109B07996A4611600421C0F2D8
:100D50000101002201F08AF920B1FFE701208DF89E
:100D60002F00EFE00A980168086840F400700860FE
:100D70000A98006800690A99496A08700A99486ADD
:100D8000013048620A99088D013808850A99488D12
:100D9000013848850A98006800690A99496A08700C
:100DA0000A99486A013048620A99088D0138088515
:100DB0000A99488D0138488564E00A98109B079984
:100DC0006A4611600421C0F20101002201F04EF9CF
:100DD00020B1FFE701208DF82F00B3E00A980168E9
:100DE000086820F4806008600A98006800690A9921
:100DF000496A08700A99486A013048620A99088D60
:100E0000013808850A99488D013848850A98109B51
:100E100007996A4611600421C0F20101002201F025
:100E200025F920B1FFE701208DF82F008AE00A980C
:100E30000168086840F4007008600A98006800695A
:100E40000A99496A08700A99486A013048620A9901
:100E5000088D013808850A99488D013848850A9817
:100E6000006800690A99496A08700A99486A01305D
:100E700048620A99088D013808850A99488D013819
:100E80004885FFE7FFE746E00A981099079A01F0C6
:100E90001BFA20B1FFE701208DF82F0052E00A98DD
:100EA000006800690A99496A08700A99486A01301D
:100EB00048620A99088D013808850A99488D0138D9
:100EC00048850A980068406900F004010120B0EBF1
:100ED000910F1FD1FFE70A98008D032807D1FFE784
:100EE0000A980168086820F480600860FFE70A98A3
:100EF000006800690A99496A08700A99486A0130CD
:100F000048620A99088D013808850A99488D013888
:100F10004885FFE7FFE7E0E60A99202081F83D00D9
:100F20000A99002081F83E00FFE70A99002081F825
:100F30003C00FFE700208DF82F0003E002208DF831
:100F40002F00FFE79DF82F000CB010BD80B590B0CA
:100F50000F9000200E900D900C900B900A900F981F
:100F6000006845F60001C4F20001884235D1FFE770
:100F7000FFE70020099043F63000C4F20200016848
:100F800041F002010160006800F002000990099838
:100F9000FFE74FF440600A9012200B9000200C9065
:100FA00003200D9004200E9040F20040C4F2020095
:100FB0000AA9FFF775FAFFE70020089043F6400002
:100FC000C4F20200016841F480010160006800F48D
:100FD000800008900898FFE768E00F98006845F6E1
:100FE0000041C4F2000188425FD1FFE7FFE7002023
:100FF000079043F63000C4F20200016841F004019A
:101000000160006800F0040007900798FFE7FFE721
:101010000020069043F63000C4F20200016841F05F
:1010200001010160006800F0010006900698FFE7EA
:101030004FF400700A90122000900B900020019055
:101040000C90032002900D90042003900E9040F627
:101050000000C4F202000AA90491FFF721FADDF8AA
:1010600000C0019B029A039804994FF4807ECDF84A
:1010700028E0CDF82CC00C930D920E900020C4F205
:101080000200FFF70DFAFFE70020059043F640004D
:10109000C4F20200016841F400010160006800F43C
:1010A000000005900598FFE7FFE7FFE710B080BD5F
:1010B00040F20400C2F20000027840F2C011C2F215
:1010C00000010868104408607047000080B543F6CE
:1010D0000041C4F20201086840F40070086008682A
:1010E00040F480600860086840F480700860032065
:1010F00000F080F80F2000F005F800F03BF8002029
:1011000080BD000080B582B0009040F20000C2F2C5
:101110000000006840F20401C2F200010A784FF4B6
:101120007A71B1FBF2F1B0FBF1F000F09BFD20B160
:10113000FFE701208DF8070018E000980F280DD870
:10114000FFE700994FF0FF30002200F039F80098D7
:1011500040F20801C2F20001086003E001208DF8AE
:10116000070003E000208DF80700FFE79DF8070067
:1011700002B080BD82B0FFE70020019043F644003A
:10118000C4F20200016841F480410160006800F48B
:10119000804001900198FFE7FFE70020009043F6B0
:1011A0004000C4F20200016841F080510160006813
:1011B00000F0805000900098FFE702B070470000F8
:1011C00080B586B08DF8170004910392002002903C
:1011D00001F02AFC02909DF91700019002980499F1
:1011E000039A01F05FFA0146019801F025FC06B070
:1011F00080BD000080B582B00190019801F03EFCF6
:1012000002B080BD80B584B002900191029820B9EF
:10121000FFE701208DF80F0021E1019843F600411E
:10122000C4F20201096801F00701884212D9FFE700
:10123000019943F60040C4F202000170006800F01A
:1012400007000199884204D0FFE701208DF80F00C4
:1012500005E1FFE702980078800700282AD5FFE71C
:10126000029800784007002809D5FFE743F60801F7
:10127000C4F20201086840F4E0500860FFE70298F9
:1012800000780007002809D5FFE743F60801C4F2FB
:101290000201086840F460400860FFE743F6080177
:1012A000C4F20201086820F0F000029A926810432C
:1012B0000860FFE702980078C00700286ED0FFE7BB
:1012C00002984068012811D1FFE743F60000C4F2FC
:1012D0000200006800F400310020B0EB514F04D14F
:1012E000FFE701208DF80F00B9E02CE0029840687C
:1012F000022805D0FFE702984068032811D1FFE7D4
:1013000043F60000C4F20200006800F00071002003
:10131000B0EB516F04D1FFE701208DF80F009EE084
:1013200010E043F60000C4F20200006800F0020181
:101330000020B0EB510F04D1FFE701208DF80F0022
:101340008DE0FFE7FFE743F60801C4F202010868F9
:1013500020F00300029A526810430860FFF77CFAFD
:101360000090FFE743F60800C4F20200006800F0B6
:101370000C0002994968B0EB810F0ED0FFE7FFF730
:101380006BFA0099401A41F28931884204D3FFE791
:1013900003208DF80F0062E0E4E7FFE7019843F6D1
:1013A0000041C4F20201096801F00701884212D22B
:1013B000FFE7019943F60040C4F2020001700068A3
:1013C00000F007000199884204D0FFE701208DF862
:1013D0000F0044E0FFE702980078400700280CD592
:1013E000FFE743F60801C4F20201086820F4E05068
:1013F000029AD26810430860FFE70298007800075D
:1014000000280DD5FFE743F60801C4F20201086881
:1014100020F46040029A126940EAC2000860FFE7C7
:1014200000F04CF843F60801C4F202010968C9B2A1
:101430000A0942F61031C0F60001895CC84040F24A
:101440000001C2F20001086040F20800C2F2000090
:101450000068FFF757FE00208DF80F00FFE79DF8AA
:101460000F0004B080BD000040F20000C2F2000096
:101470000068704780B5FFF7F7FF43F60801C4F234
:1014800002010968C1F3822242F62031C0F6000150
:10149000895CC84080BD000080B5FFF7E5FF43F6DA
:1014A0000801C4F20201096889B24A0B42F62031F0
:1014B000C0F60001895CC84080BD000080B586B0E0
:1014C0000020059004900390029043F60800C4F2B7
:1014D0000200006800F00C000146019140B1FFE7F6
:1014E000019804280AD0FFE7019808280CD04FE0A3
:1014F00042F20040C0F2F40002904FE047F6400094
:10150000C0F27D10029049E043F60400C4F20200EC
:10151000016801F03F01059100684002002813D5E1
:10152000FFE743F60400C4F202000068C0F388102D
:1015300047F64001C0F27D11A0FB0101059A00238E
:10154000FEF7A8FE049012E043F60400C4F2020085
:101550000068C0F3881042F20041C0F2F401A0FB21
:101560000101059A0023FEF795FE0490FFE743F67C
:101570000400C4F20200006800F44031022000EBD5
:10158000D130039004980399B0FBF1F0029005E08C
:1015900042F20040C0F2F4000290FFE7029806B069
:1015A00080BD000080B586B00490049820B9FFE7A4
:1015B00001208DF8170050E304980078C007002838
:1015C00000F0A580FFE743F60800C4F202000068BF
:1015D00000F00C00042813D0FFE743F60800C4F223
:1015E0000200006800F00C0008281ED1FFE743F657
:1015F0000400C4F2020000684002002815D5FFE78D
:1016000043F60000C4F20200006800F4003100203C
:10161000B0EB514F08D0FFE70498406820B9FFE7CE
:1016200001208DF8170018E370E0FFE70498406888
:10163000B0F5803F09D1FFE743F60001C4F2020193
:10164000086840F48030086020E004984068B0F5F5
:10165000A02F0DD1FFE743F60001C4F20201086894
:1016600040F480200860086840F4803008600CE096
:1016700043F60001C4F20201086820F480300860DB
:10168000086820F480200860FFE7FFE7FFE7049880
:101690004068E8B1FFE7FFF7DFF80390FFE743F6A4
:1016A0000000C4F20200006800F400310020B0EB3A
:1016B000514F0CD1FFE7FFF7CFF80399401A652887
:1016C00004D3FFE703208DF81700C6E2E7E71CE02C
:1016D000FFF7C2F80390FFE743F60000C4F20200F0
:1016E000006800F400310020B0EB514F0CD0FFE750
:1016F000FFF7B2F80399401A652804D3FFE70320E7
:101700008DF81700A9E2E7E7FFE7FFE7FFE7049896
:1017100000788007002840F19680FFE743F6080034
:10172000C4F20200006810F00C0F13D0FFE743F67C
:101730000800C4F20200006800F00C0008282CD158
:10174000FFE743F60400C4F20200006840020028EC
:1017500023D4FFE743F60000C4F20200006800F063
:1017600002010020B0EB510F09D0FFE70498C068D8
:10177000012804D0FFE701208DF817006DE243F641
:101780000001C4F20201086820F0F800049A12690E
:1017900040EAC2000860FFE754E00498C06870B3F4
:1017A000FFE70021C4F2472101200860FFF754F849
:1017B0000390FFE743F60000C4F20200006800F067
:1017C00002010020B0EB510F0CD1FFE7FFF744F806
:1017D0000399401A032804D3FFE703208DF817006C
:1017E0003BE2E7E743F60001C4F20201086820F09B
:1017F000F800049A126940EAC200086021E0002162
:10180000C4F2472100200860FFF726F80390FFE7A5
:1018100043F60000C4F20200006800F0020100205C
:10182000B0EB510F0CD0FFE7FFF716F80399401A01
:10183000032804D3FFE703208DF817000DE2E7E744
:10184000FFE7FFE7FFE704980078000700284BD583
:10185000FFE70498406918B3FFE740F68061C4F2DF
:10186000472101200860FEF7F7FF0390FFE743F6EA
:101870007400C4F20200006800F002010020B0EB26
:10188000510F0CD1FFE7FEF7E7FF0399401A032839
:1018900004D3FFE703208DF81700DEE1E7E722E03D
:1018A00040F68061C4F2472100200860FEF7D4FFB3
:1018B0000390FFE743F67400C4F20200006800F0F2
:1018C00002010020B0EB510F0CD0FFE7FEF7C4FF80
:1018D0000399401A032804D3FFE703208DF817006B
:1018E000BBE1E7E7FFE7FFE704980078400700283F
:1018F00040F1CE80FFE700208DF8070043F640005E
:10190000C4F202000068C000002815D4FFE7FFE71A
:101910000020009043F64000C4F20200016841F04C
:1019200080510160006800F0805000900098FFE74F
:1019300001208DF80700FFE747F20000C4F2000025
:101940000068C005002822D4FFE747F20001C4F276
:101950000001086840F480700860FEF77DFF039086
:10196000FFE747F20000C4F200000068C00500284D
:101970000CD4FFE7FEF770FF0399401A032804D345
:10198000FFE703208DF8170067E1EAE7FFE7FFE7CD
:1019900004988068012809D1FFE743F67001C4F27A
:1019A0000201086840F0010008601FE004988068A8
:1019B00005280DD1FFE743F67001C4F20201086863
:1019C00040F004000860086840F0010008600CE086
:1019D00043F67001C4F20201086820F001000860BB
:1019E000086820F004000860FFE7FFE7FFE70498BD
:1019F0008068F8B1FFE7FEF72FFF0390FFE743F69B
:101A00007000C4F20200006800F002010020B0EB98
:101A1000510F0ED1FFE7FEF71FFF0399401A41F265
:101A20008931884204D3FFE703208DF8170014E1C1
:101A3000E5E71EE0FEF710FF0390FFE743F67000B6
:101A4000C4F20200006800F002010020B0EB510F68
:101A50000ED0FFE7FEF700FF0399401A41F28931EB
:101A6000884204D3FFE703208DF81700F5E0E5E78F
:101A7000FFE79DF80700012809D1FFE743F6400181
:101A8000C4F20201086820F080500860FFE7FFE719
:101A900004988069002800F0DC80FFE743F6080026
:101AA000C4F20200006800F00C00082800F08580F5
:101AB000FFE70498806902285CD1FFE76021C4F247
:101AC000472100200860FEF7C7FE0390FFE743F6BA
:101AD0000000C4F20200006800F000710020B0EBCA
:101AE000516F0CD0FFE7FEF7B7FE0399401A0328A9
:101AF00004D3FFE703208DF81700AEE0E7E7049971
:101B0000C869D1F820C04B6A8A6A40EA0C0040EAF2
:101B10008310D2034FF6FF739A43A2F5803210432D
:101B2000C96A40EA016043F60401C4F20201086098
:101B30006021C4F2472101200860FEF78DFE03906A
:101B4000FFE743F60000C4F20200006800F00071F5
:101B50000020B0EB516F0CD1FFE7FEF77DFE03993B
:101B6000401A032804D3FFE703208DF8170074E020
:101B7000E7E721E06021C4F2472100200860FEF77A
:101B80006BFE0390FFE743F60000C4F2020000681A
:101B900000F000710020B0EB516F0CD0FFE7FEF7B2
:101BA0005BFE0399401A032804D3FFE703208DF856
:101BB000170052E0E7E7FFE74AE004988069012850
:101BC00004D1FFE701208DF8170046E043F604003A
:101BD000C4F202000068029004988069012831D0A4
:101BE000FFE7029800F480000499C969884229D16E
:101BF000FFE7029800F03F000499096A884221D16A
:101C0000FFE7029847F6C07108400499496AB0EBB3
:101C1000811F17D1FFE7029800F440300499896AC8
:101C2000C9034FF6FF729143A1F58031884209D173
:101C3000FFE7029800F070600499C96AB0EB016F89
:101C400004D0FFE701208DF8170006E0FFE7FFE76B
:101C5000FFE700208DF81700FFE79DF8170006B09A
:101C600080BD000080B582B00190019800F0A4FD15
:101C700002B080BD80B582B00090009820B9FFE727
:101C800001208DF8070040E00098806908B1FFE767
:101C900000E0FFE7009890F8410040B9FFE70099A5
:101CA000002081F84000009800F034F8FFE7009928
:101CB000242081F8410000980168C86820F4005091
:101CC000C860009800F010FE00980168086920F4D0
:101CD0009040086100980168486920F02A00486136
:101CE00000980168C86840F40050C860009900205E
:101CF0004864009A202182F84110009A82F842102C
:101D0000009948638DF80700FFE79DF8070002B0CF
:101D100080BD000080B58AB009900020089007902F
:101D20000690059004900998006841F20001C4F201
:101D30000101884234D1FFE7FFE70020039043F61A
:101D40004400C4F20200016841F010010160006823
:101D500000F0100003900398FFE7FFE700200290D7
:101D600043F63000C4F20200016841F00101016055
:101D7000006800F0010002900298FFE74FF4C06095
:101D80000490022005900020069003200790072071
:101D900008900020C4F2020004A9FEF781FB3DE098
:101DA0000998006844F20041C4F20001884234D12D
:101DB000FFE7FFE70020019043F64000C4F2020075
:101DC000016841F400310160006800F400300190C6
:101DD0000198FFE7FFE70020009043F63000C4F2CF
:101DE0000200016841F008010160006800F008008D
:101DF00000900098FFE760200490022005900020EA
:101E00000690032007900720089040F60040C4F297
:101E1000020004A9FEF744FBFFE7FFE70AB080BD1C
:101E2000FFE7FEE782B0009000980068406900F488
:101E300080610120B0EB912F1ED1FFE7009801686F
:101E40006FF480604861009900200863009A2021A7
:101E500082F83D10009981F83E000099086C40F02E
:101E600004000864FFE70099002081F83C00FFE7C8
:101E700001208DF8070003E000208DF80700FFE740
:101E80009DF8070002B0704780B586B0DDF824C029
:101E9000DDF820C00490ADF80E10ADF80C20ADF8C0
:101EA0000A3004980168086840F48060086004986B
:101EB0000168086840F4807008600498089B0999DC
:101EC0006A4611604FF00111002200F0CFF880B196
:101ED000FFE7049800680068C005002805D5FFE703
:101EE00004994FF400700864FFE703208DF8170091
:101EF000B7E0BDF80E0000F0FE0004990968086123
:101F00000498089A099B0221C0F2010100F032F9FD
:101F100020B1FFE701208DF81700A2E0FFE70020C5
:101F200001900498006840690190049800688069F5
:101F300001900198FFE704980899099A00F032FA95
:101F400080B1FFE70498006C042807D1FFE70498EC
:101F50000168086840F400700860FFE701208DF810
:101F600017007EE0BDF80A00012806D1FFE79DF8C2
:101F70000C0004990968086121E09DF80D0004999E
:101F80000968086104980899099A00F00BFA80B171
:101F9000FFE70498006C042807D1FFE70498016864
:101FA000086840F400700860FFE701208DF8170012
:101FB00057E09DF80C00049909680861FFE7049850
:101FC0000899099A00F0EEF980B1FFE70498006CD7
:101FD000042807D1FFE704980168086840F40070FE
:101FE0000860FFE701208DF817003AE004980168C7
:101FF000086840F4807008600498089B09996A4654
:1020000011604FF00111002200F030F880B1FFE7BD
:10201000049800680068C005002805D5FFE704990A
:102020004FF400700864FFE703208DF8170018E0F4
:102030009DF80E0040F001000499096808610498B9
:10204000089A099B0221C0F2010100F093F820B127
:10205000FFE701208DF8170003E000208DF817003E
:10206000FFE79DF8170006B080BD000080B588B07E
:10207000DDF828C0069005918DF813200393FFE743
:102080009DF8160001280CD1FFE70698006840690A
:10209000BDF814100840401AB0FA80F040090290D0
:1020A0000BE0069800688069BDF814100840401ADB
:1020B000B0FA80F040090290FFE702989DF81310F3
:1020C00088424FD1FFE703980130002849D0FFE74D
:1020D000FEF7C2FB0A99401A0399884203D8FFE72A
:1020E0000398E8BBFFE79DF8160001280CD1FFE735
:1020F000069800684069BDF814100840401AB0FA0C
:1021000080F0400901900BE0069800688069BDF8F6
:1021100014100840401AB0FA80F040090190FFE71F
:1021200001989DF81310884219D1FFE70699002005
:102130000863069A202182F83D10069981F83E0036
:102140000699086C40F020000864FFE7069900201B
:1021500081F83C00FFE701208DF81F0006E0FFE753
:10216000FFE78DE700208DF81F00FFE79DF81F00B7
:1021700008B080BD80B588B00690059104920393A5
:10218000FFE79DF8160001280CD1FFE706980068CC
:102190004069BDF814100840401AB0FA80F04009B8
:1021A00002900BE0069800688069BDF814100840A2
:1021B000401AB0FA80F040090290FFE70298002828
:1021C0007AD1FFE706980068406900F48061012039
:1021D000B0EB912F24D1FFE706980168086840F41E
:1021E00000700860069801686FF480604861069985
:1021F00000200863069A202182F83D10069981F894
:102200003E000699086C40F004000864FFE7069958
:10221000002081F83C00FFE701208DF81F004FE00F
:1022200004980130002846D0FFE7FEF715FB03991C
:10223000401A0499884203D8FFE70498D0BBFFE70F
:102240009DF8160001280CD1FFE706980068406948
:10225000BDF814100840401AB0FA80F0400901900F
:102260000BE0069800688069BDF814100840401A19
:10227000B0FA80F040090190FFE70198C8B9FFE784
:10228000069900200863069A202182F83D100699DD
:1022900081F83E000699086C40F020000864FFE7D2
:1022A0000699002081F83C00FFE701208DF81F000F
:1022B00006E0FFE7FFE764E700208DF81F00FFE777
:1022C0009DF81F0008B080BD80B584B002900191D8
:1022D0000092FFE702980068406900F0400100208A
:1022E000B0EB911F56D1FFE702980068406900F0FB
:1022F00010010120B0EB111F1CD1FFE7029801680B
:102300006FF010004861029900200863029A2021B2
:1023100082F83D10029981F83E000299086C086429
:10232000FFE70299002081F83C00FFE701208DF8CB
:102330000F0033E0FEF790FA0099401A01998842A5
:1023400003D8FFE7019820BBFFE7029800684069C7
:1023500000F040010020B0EB911F19D1FFE7029976
:1023600000200863029A202182F83D10029981F82A
:102370003E000299086C40F020000864FFE70299D3
:10238000002081F83C00FFE701208DF80F0005E0F8
:10239000FFE79FE700208DF80F00FFE79DF80F0093
:1023A00004B080BD80B584B0029001910092FFE737
:1023B000029800684069C1B20020B0EBD11F3DD146
:1023C000FFE70298FFF72EFD20B1FFE701208DF80F
:1023D0000F0037E00198013078B3FFE7FEF73CFAD1
:1023E0000099401A0199884203D8FFE7019818BB69
:1023F000FFE7029800684069C1B20020B0EBD11F2E
:1024000019D1FFE7029900200863029A202182F87F
:102410003D10029981F83E000299086C40F02000BE
:102420000864FFE70299002081F83C00FFE70120E3
:102430008DF80F0006E0FFE7FFE7B9E700208DF811
:102440000F00FFE79DF80F0004B080BD80B586B097
:102450008DF817008DF8161004928DF80F309DF846
:1024600017109DF8162004989DF80FC06B464FF486
:102470007A7EC3F808E0C3F804C0186040F2880010
:10248000C2F200000123FEF73FFBB0FA80F04009E2
:1024900006B080BD80B586B08DF817008DF8161097
:1024A00004928DF80F309DF817109DF816200498AF
:1024B0009DF80FC06B464FF47A7EC3F808E0C3F86E
:1024C00004C0186040F2DC00C2F200000123FEF7F5
:1024D0001BFBB0FA80F0400906B080BD85B0FFE775
:1024E0000020049043F63000C4F20200016841F07D
:1024F00080010160006800F0800004900498FFE70C
:10250000FFE70020039043F63000C4F202000168A8
:1025100041F002010160006800F00200039003989E
:10252000FFE7FFE70020029043F63000C4F202000C
:10253000016841F004010160006800F004000290AD
:102540000298FFE7FFE70020019043F63000C4F255
:102550000200016841F001010160006800F0010023
:1025600001900198FFE7FFE70020009043F630005C
:10257000C4F20200016841F008010160006800F047
:10258000080000900098FFE705B0704780B582B062
:1025900040F28800C2F20000019045F60001C4F24A
:1025A0000001016048F2A061C0F201014160002118
:1025B0008160C1604FF48042026141618161C1610B
:1025C0000162FEF74FF918B1FFE7FDF743FFFFE7A0
:1025D00002B080BD80B582B040F2DC00C2F20000E3
:1025E000019045F60041C4F20001016048F2A0618B
:1025F000C0F20101416000218160C1604FF480425E
:10260000026141618161C1610162FEF72BF918B17C
:10261000FFE7FDF71FFFFFE702B080BD80B582B086
:1026200040F23010C2F20000019041F20001C4F209
:10263000010101604FF4E131416000218160C1601E
:1026400001610C2242618161C161FFF713FB18B186
:10265000FFE7FDF7FFFEFFE702B080BD80B582B067
:1026600040F27810C2F20000019044F20041C4F23E
:10267000000101604FF4E131416000218160C160DF
:1026800001610C2242618161C161FFF7F3FA18B167
:10269000FFE7FDF7DFFEFFE702B080BDFFE7FEE7E3
:1026A000FFE7FEE788B0079006910592079800F0D3
:1026B000070004900498C0F10700052803D3FFE742
:1026C0000420019004E00498C0F107000190FFE7A6
:1026D0000198039004980430062803D8FFE70020EF
:1026E000009003E0049803380090FFE70098029000
:1026F00006980399012202FA01F101390840029B70
:10270000984005999A40013A1140084308B0704733
:102710007047000080B586B000200390ADF8160029
:102720009820DD2100910DF1160202920123019300
:10273000FFF7B0FE0099019B0298421C9A20FFF718
:10274000A9FE03980490FFE70498072818DCFFE728
:102750009DF816000499C84000F0010040F276028E
:10276000C2F2000250549DF817000499C84000F0CE
:10277000010011440872FFE7049801300490E3E778
:1027800006B080BD80B584B040F27002C2F2000293
:10279000019290200390D02103230293FFF756FE6D
:1027A0000199029B0398CA1CD121FFF74FFE04B088
:1027B00080BD00007047000080B582B00090009896
:1027C0000138B0F1807F03D3FFE70120019019E0C9
:1027D000009801384EF21401CEF2000108604FF06B
:1027E000FF300F2100F028F94EF21801CEF200015F
:1027F000002008604EF21002CEF2000207211160A4
:102800000190FFE7019802B080BD000080B5FEF79F
:102810004FFC80BD80B594B008A83021FDF7B2FD13
:10282000002007900690059004900390FFE7002099
:10283000029043F64000C4F20200016841F080516A
:102840000160006800F0805002900298FFE7FFE707
:102850000020019047F20000C4F20000016841F43A
:1028600080410160006800F4804001900198FFE71A
:10287000012008904FF48030099002200E904FF410
:1028800080010F91192110914FF4A87111911290AC
:102890000420139008A8FEF785FE18B1FFE7FDF7A6
:1028A000D9FDFFE70F20039002200490002005903F
:1028B0004FF4A05006904FF48050079003A80521D4
:1028C000FEF7A0FC18B1FFE7FDF7C4FDFFE714B069
:1028D00080BD00004EF68851CEF20001086840F439
:1028E000700008607047000080B586B005900598BC
:1028F0000068006920F44050059A1168D2681043BE
:102900000861059988680B694A69C96918431043C9
:102910000843049005980068C06849F20C61884338
:102920000499084305990968C860059800684069DA
:1029300020F44070059A1168926910434861059827
:10294000006841F20001C4F20101884209D0FFE7AA
:102950000598006841F20041C4F20101884204D1A7
:10296000FFE7FEF799FD039003E0FEF783FD039078
:10297000FFE70598C069B0F5004F29D1FFE703983C
:102980001921A0FB0101059A1368029353685A00AC
:10299000DB0FFDF77FFC0299864648F21F53C5F214
:1029A000EB13AEFB0320420910014FF0640C02FB55
:1029B0001CEC322202EBCC02A2FB0332F82303EA26
:1029C000521300EB4300C2F342121044886026E029
:1029D00003981921A0FB0101059A1368019353681C
:1029E0009A009B0FFDF756FC0199844648F21F524E
:1029F000C5F2EB12ACFB02304309642003FB10CCA0
:102A0000322000EB0C10A0FB0202F02000EA521072
:102A100000EB0310C2F3431210448860FFE706B0D6
:102A200080BD0000FFE7FEE74EF60C50CEF200003E
:102A30000068C0F30220704782B08DF80700009153
:102A40009DF9070000280AD4FFE7009800019DF9CE
:102A500007104EF20042CEF2000288540BE00098BC
:102A600000019DF8071001F00F014EF61452CEF24E
:102A700000028854FFE702B07047000083B0029064
:102A8000029800F0070000904EF60C51CEF20001C3
:102A90000868019001984FF6FF02104001900198DC
:102AA000009A40EA02200022C0F2FA52104301903C
:102AB0000198086003B0704780B582B00020019093
:102AC000FEF704FBFFF7A6FEFFF708FDFFF782FD08
:102AD000FFF7A4FDFFF7C2FDFFF758FDFFE7FFF783
:102AE00051FE0A200090FDF7B9FCFFF713FE009895
:102AF000FDF7B4FCF3E7F1EE100A4FF6FF71C0F2F8
:102B0000C03120EA010040F04070E1EE100A704749
:102B1000000000000000000001020304060708098D
:102B20000000000001020304482B00080000002000
:102B300010000000EC010008582B000810000020D5
:102B4000B80700000C0200080024F4000100000097
:082B500010000000000000006D
:040000050800018965
:00000001FF
