:020000040800F2
:10000000A06C00209D010008D5480008213D000893
:1000100091460008D1140008995000080000000023
:10002000000000000000000000000000714A00080D
:100030000117000800000000E1480008AD4C00086E
:10004000B7010008B7010008B7010008B7010008B0
:10005000B7010008B7010008B7010008B7010008A0
:10006000B7010008B7010008B7010008B701000890
:10007000B7010008B7010008B7010008B701000880
:10008000B7010008B7010008B7010008B701000870
:10009000B7010008B7010008B7010008B701000860
:1000A000B7010008B7010008B7010008B701000850
:1000B000B7010008B7010008854D0008B701000826
:1000C000B7010008B7010008B7010008B701000830
:1000D000B7010008B7010008B7010008B701000820
:1000E000B7010008B7010008B7010008B701000810
:1000F000B7010008B7010008B7010008B701000800
:10010000B7010008B7010008B7010008B7010008EF
:10011000B7010008B7010008B7010008B7010008DF
:10012000B7010008B7010008B7010008B7010008CF
:10013000B7010008B7010008B7010008B7010008BF
:10014000B7010008B7010008B7010008B7010008AF
:10015000B7010008B7010008B7010008B70100089F
:10016000B7010008B7010008B7010008B70100088F
:10017000B7010008B7010008B7010008000000003F
:10018000B7010008B7010008DFF80CD000F004FA4E
:100190000048004785510008A06C002006488047B1
:1001A00006480047FEE7FEE7FEE7FEE7FEE7FEE75C
:1001B000FEE7FEE7FEE7FEE7714D00088901000853
:1001C0002DE9F05F0546002092469B46884606468C
:1001D000814640241BE0284641464746224600F01F
:1001E0006DF953465A46C01A914110D3114618462C
:1001F000224600F054F92D1A67EB01084F462246BB
:100200000120002100F04BF917EB00094E41201EA0
:10021000A4F10104DFDC484631462A464346BDE8E6
:10022000F09F40EA01039B0703D009E008C9121FB1
:1002300008C0042AFAD203E011F8013B00F8013BA0
:10024000521EF9D270472DE9FE4F81EA030404F0F3
:10025000004421F0004100944FF0000B23F00043D4
:1002600050EA01045ED052EA03045BD0C3F30A549F
:10027000C1F30A552C44A4F2F3340194A0FB0254B8
:10028000C1F3130141F48011C3F3130343F480134A
:1002900001FB024400FB034E840A970A44EA81549E
:1002A00047EA8357A4FB076802958D0A05FB07857B
:1002B0004FEA932C04FB0C542705029D4FEA065885
:1002C00047EA1637B5EB08056EEB070C870E920E62
:1002D00047EA811742EA8312A7FB0201B6EB0B0142
:1002E00064EB00042B0D43EA0C335E1844EB1C5006
:1002F000DA465146E7FB0201C5F313044FEA0B331C
:1003000043EA14534FEA0432019C43EA0603A4F182
:100310000C040294009CCDE900B400F0EEF803B0A8
:10032000BDE8F08F00200146F9E72DE9F04D81EAA4
:10033000030404F0004B21F0004514464FF0000A7E
:1003400023F0004150EA050220D054EA01021DD0FA
:10035000C5F30A570246C5F31303C1F31300C1F3F3
:100360000A5640F4801543F48013A7EB0608101BCF
:10037000D64608F2FD3873EB050002D308F10108F8
:1003800001E092185B41B8F1000F03DA002001464A
:10039000BDE8F08D00204FF48011064684460EE043
:1003A000171B73EB050705D3121B63EB050306430D
:1003B0004CEA010C49084FEA300092185B4150EAC0
:1003C0000107EDD152EA030012D082EA040083EA69
:1003D0000501084305D0101BAB4106D201220023C2
:1003E00006E000224FF0004302E06FF001025310DC
:1003F0001AEB06004CEB085110EB0A0041EB0B0125
:10040000BDE8F04D00F06AB870B5C1F30A5201F0D2
:1004100000450024C1F3130140F2FF3341F4801181
:100420009A4201DA002070BD40F233439A42A2F2B0
:10043000334203DC524200F041F800E090402C438C
:10044000F1D0404270BDC1F30A5210B5C1F313019F
:1004500040F2FF3341F480119A4201DA002010BDCE
:1004600040F233439A42A2F2334203DC524200F09C
:1004700025F810BD904010BD00F0004230F0004063
:100480000AD0C10D01F56071C0F3160042EA0151B6
:10049000C208400711437047002001467047202AD8
:1004A00004DB203A00FA02F1002070479140C2F1CB
:1004B000200320FA03F3194390407047202A04DBFD
:1004C000203A21FA02F00021704721FA02F3D040CD
:1004D000C2F12002914008431946704710B5141E1E
:1004E00073F1000408DA401C41F1000192185B41ED
:1004F0001A4301D120F0010010BD2DE9F04D9246C4
:100500009B4611B1B1FA81F202E0B0FA80F22032DA
:100510009046FFF7C4FF04460F4640EA0A0041EA4E
:100520000B0153465A46084313D0114653EA0100C3
:1005300019D0C8F140025046FFF7C0FF05460E46ED
:10054000504659464246FFF7AAFF084305D001200E
:1005500004E020463946BDE8F08D0020054346EA18
:10056000E0762C4337430A986305E40AA0EB0800C1
:100570000022FD0A44EA47540A3002D50020014611
:10058000E9E7010510196941DDE9084500196941EC
:10059000BDE8F04DA2E700001CB5094800900948ED
:1005A00001900546009C06E0E06840F0010394E8F5
:1005B000070098471034AC42F6D3FFF7E9FD00007E
:1005C000D06F0008F06F0008B0B540F22820C2F2EA
:1005D0000000006840F22C24C2F20004002102282E
:1005E000216016D19FED2D0A05F050FA40F69800D3
:1005F00005F0D4FF9FED260A04F0C2F84FF44860DE
:1006000005F0CCFF44F29840C2F2000001210160E5
:100610003BE09FED1F0A04F0E9F84FF4486005F055
:10062000BDFF9FED1C0A05F031FA40F6980005F079
:10063000B5FF9FED190A04F0A3F84FF4FA7005F026
:10064000ADFF40F23825C2F2000500BFE87810B1D6
:1006500003F032FDFAE704F0F3FA4FF4FA7005F014
:100660009DFF9FED0E0A04F015F840F6980005F086
:1006700095FF00BFE87810B103F01EFDFAE704F023
:10068000DFFA4FF4FA7005F089FF01202060B0BD59
:100690009A99193F00003443CDCCCC3D0000B442C0
:1006A0002DE9F04140F2282140F22C2840F21C258F
:1006B00040F22026C2F200019FED420AC2F2000879
:1006C0000020C2F20005C2F200060C68C8F8000063
:1006D0002860306004F01EF840F6980005F05EFFD8
:1006E0009FED390A05F0D2F940F6980005F056FF63
:1006F0002868022C2CD1032816D040F23827C2F2E9
:100700000007002403F0D8FC3878002806BF012138
:1007100031603168FA782868002A01BF0129013068
:10072000286034600328EDD19FED270A03F0B2FF63
:1007300040F6980005F032FF40F23824C2F200047F
:10074000E07830B303F0B8FC0A2005F027FFF7E7A4
:10075000042817D040F23827C2F20007002400BF57
:1007600003F0AAFC3878002806BF01213160316807
:10077000FA782868002A01BF012901302860346016
:100780000428EDD104F05CFA40F2DC5005F006FFDD
:1007900013E004F055FA4FF4FA7005F0FFFE9FEDF8
:1007A0000A0A05F073F940F6980005F0F7FE44F2E6
:1007B0009840C2F20000012101600120C8F8000049
:1007C000BDE8F0819A99993E0000B4422DE9F041CC
:1007D00004F012FA40F2282140F22C2840F22026A0
:1007E00040F21C27C2F200019FED5D0AC2F2000830
:1007F0000020C2F20006C2F200070C68C8F8000030
:100800003060386005F042F940F6980005F0C6FE09
:100810009FED540A03F0B4FF4FF4486005F0BEFEAC
:100820009FED510A03F0E2FF40F6980005F0B6FE96
:1008300040F23825C2F20005E878022C46D100BF0C
:1008400020B103F039FCE8780028FAD104F0F8F977
:1008500040F2DC5005F0A2FE9FED410A03F01AFFC2
:1008600040F2DC5005F09AFE3868052812D00024CA
:1008700003F022FC2878002806BF0121316031688E
:10088000EA783868002A01BF0129013038603460F5
:100890000528EDD104F0D4F940F2DC5005F07EFEDD
:1008A0009FED2F0A03F0F6FE40F2DC5005F076FED5
:1008B0009FED2E0A03F064FF4FF47A7005F06EFE90
:1008C000E87840B103F0F8FBFAE700BFC0B103F0ED
:1008D000F3FBE878FAE704F0B3F940F2DC5005F0F6
:1008E0005DFE9FED1F0A05F0D1F840F6980005F077
:1008F00055FE44F29840C2F200000121016029E057
:1009000004F09EF940F2DC5005F048FE9FED140A19
:1009100003F0C0FE40F2DC5005F040FE38680628C7
:1009200012D0002403F0C8FB2878002806BF01215C
:1009300031603168EA783868002A01BF0129013046
:10094000386034600628EDD104F07AF940F2DC50CA
:1009500005F024FE0120C8F80000BDE8F08100BFCA
:100960000000B442CDCC4C3F9A99993ECDCCCC3DC1
:10097000B0B540F21C210020C2F2000140F22C244C
:10098000086040F220219FED2F0AC2F20004C2F25B
:1009900000012060086005F079F840F6980005F045
:1009A000FDFD40F23825C2F2000500BFE87828B10D
:1009B00003F082FB0A2005F0F1FDF7E79FED220A24
:1009C00003F0DEFE4FF4FA7005F0E8FDE87818B1A8
:1009D00003F072FB0A20F7E704F032F94FF4FA70E3
:1009E00005F0DCFD40F22820C2F200000068022879
:1009F0000ED19FED140A03F04DFE40F6980000BFA3
:100A000005F0CCFDE87860B103F056FB0A20F7E76B
:100A10009FED0E0A03F0B4FE4FF4486005F0BEFDF2
:100A20000DE09FED080A05F031F840F6980005F05A
:100A3000B5FD40F21020C2F200000121016001204A
:100A40002060B0BD0000B442CDCCCC3DCDCCCC3E7E
:100A50002DE9F04140F2282140F22C2840F21C25DB
:100A600040F22026C2F200019FED4E0AC2F20008B9
:100A70000020C2F20005C2F200060C68C8F80000AF
:100A80002860306003F046FE40F6980005F086FDD1
:100A90009FED450A04F0FAFF40F6980005F07EFD50
:100AA0002868022C2CD1032816D040F23827C2F235
:100AB0000007002403F000FB3878002806BF01215E
:100AC00031603168FA782868002A01BF01290130B5
:100AD000286034600328EDD19FED330A03F0DAFD7E
:100AE00040F6980005F05AFD40F23825C2F20005A4
:100AF000E87870B303F0E0FA0A2005F04FFDF7E75D
:100B0000042817D040F23827C2F20007002400BFA3
:100B100003F0D2FA3878002806BF0121316031682D
:100B2000FA782868002A01BF012901302860346062
:100B30000428EDD104F084F840F2DC5005F02EFDDD
:100B40009FED1A0A03F08CFE40F6AC5005F026FD2E
:100B500022E09FED170A03F013FE4FF4FA7000BF76
:100B600005F01CFDE87818B103F0A6FA0A20F7E7B3
:100B700004F066F84FF4FA7005F010FD9FED0A0AD4
:100B800004F084FF40F6980005F008FD40F21020C4
:100B9000C2F20000012101600120C8F80000BDE898
:100BA000F08100BF9A99993E0000B4426666663FA4
:100BB000CDCCCC3D2DE9F04104F01EF840F22821C7
:100BC00040F22C2840F2202640F21C27C2F20001FD
:100BD0009FED670AC2F200080020C2F20006C2F2CE
:100BE00000070C68C8F800003060386004F04EFF61
:100BF00040F6980005F0D2FC9FED5E0A03F0C0FDC0
:100C00004FF4486005F0CAFC9FED5B0A03F0EEFD6F
:100C100040F6980005F0C2FC40F23825C2F200050B
:100C2000E878022C46D100BF20B103F045FAE878FD
:100C30000028FAD104F004F840F2DC5005F0AEFCD4
:100C40009FED4B0A03F026FD40F2DC5005F0A6FCB8
:100C50003868052812D0002403F02EFA28780028DE
:100C600006BF012131603168EA783868002A01BF87
:100C700001290130386034600528EDD103F0E0FF30
:100C800040F2DC5005F08AFC9FED390A03F002FDCA
:100C900040F2DC5005F082FC9FED380A03F070FD55
:100CA0004FF47A7005F07AFCE87840B103F004FA6A
:100CB0000A20F7E780B103F0FFF9E878FAE79FED43
:100CC0002F0A03F05DFD00BFE87880B303F0F4F96C
:100CD0000A2005F063FCF7E703F0B2FF40F2DC50B6
:100CE00005F05CFC9FED220A03F0D4FC40F2DC50DE
:100CF00005F054FC3868062812D0002403F0DCF913
:100D00002878002806BF012131603168EA78386808
:100D1000002A01BF01290130386034600628EDD176
:100D200003F08EFF40F2DC5005F038FC13E003F0D6
:100D300087FF40F2DC5005F031FC9FED0D0A04F016
:100D4000A5FE40F6980005F029FC40F21020C2F202
:100D50000000012101609FED0A0A03F081FD40F6C9
:100D6000AC5005F01BFC0120C8F80000BDE8F08184
:100D70000000B442CDCC4C3F9A99993ECDCCCC3DAD
:100D80006666663FB0B540F22825C2F200052868C5
:100D900040F22C24C2F2000400210228216036D047
:100DA00001283CD000287DD1B5EE000A03F058FDA3
:100DB00040F2DC5005F0F2FB9FED3D0A03F0E0FC51
:100DC00040F2DC5005F0EAFB552004F067F94FF4DF
:100DD000486005F0E3FB03F00FFF03F0BDFD03F0F7
:100DE00059FE40F6C41005F0D9FB9FED320A03F01E
:100DF000CFFE40F2DC5005F0D1FB412004F04EF96B
:100E000040F2DC5005F0CAFB9FED2D0A39E044F2B8
:100E100098402960C2F200000121016042E09FED8C
:100E2000230A03F01DFD40F6980005F0B7FB9FED87
:100E3000200A03F0A5FC40F2DC5005F0AFFB2D20AA
:100E400004F02CF94FF4486005F0A8FB03F0D4FE41
:100E500003F082FD03F01EFE40F6C41005F09EFB79
:100E60009FED140A03F094FE40F2DC5005F096FB6F
:100E7000412004F013F940F2DC5005F08FFB9FEDA8
:100E80000E0A03F0B3FC40F6980005F087FB9FEDD7
:100E90000B0A03F0FFFB40F6980005F07FFB286883
:100EA0000130286001202060B0BD00BFC3F5A83E1E
:100EB0009A99193E0000C8C2EC51B83E0000344374
:100EC000713D8A3EB0B52DED028B40F22825C2F26D
:100ED0000005286840F22C24C2F2000400210228F8
:100EE000216017D001281DD0002860D1B5EE008AFE
:100EF000B0EE480A03F0B4FC40F2DC5005F04EFBC3
:100F00009FED2E0A03F03CFC40F2DC5005F046FB5E
:100F100055201AE044F298402960C2F200000121F5
:100F2000016044E09FED248AB0EE480A03F098FC8B
:100F300040F6980005F032FB9FED200A03F020FCFC
:100F400040F2DC5005F02AFB2D2004F0A7F84FF406
:100F5000486005F023FB03F04FFE03F0FDFC03F0B7
:100F600099FD40F6C41005F019FB9FED150A03F03A
:100F70000FFE40F2DC5005F011FB412004F08EF82A
:100F800040F2DC5005F00AFBB0EE480A03F02EFCFC
:100F900040F6980005F002FB9FED0A0A03F07AFB89
:100FA00040F6980005F0FAFA286801302860012020
:100FB0002060BDEC028BB0BDC3F5A83E9A99193EE6
:100FC0000000C8C200003443B0B52DED028B40F2E2
:100FD0002825C2F20005286840F22C24C2F2000441
:100FE00000210228216017D001281DD0002860D1DF
:100FF000B5EE008AB0EE480A03F032FC40F2DC5055
:1010000005F0CCFA9FED2E0A03F0BAFB40F2DC505B
:1010100005F0C4FA55201AE044F298402960C2F263
:1010200000000121016044E09FED248AB0EE480AEF
:1010300003F016FC40F6980005F0B0FA9FED200A88
:1010400003F09EFB40F2DC5005F0A8FA2D2004F0DE
:1010500025F84FF4486005F0A1FA03F0CDFD03F048
:101060007BFC03F017FD40F6C41005F097FA9FEDE6
:10107000150A03F08DFD40F2DC5005F08FFA412097
:1010800004F00CF840F2DC5005F088FAB0EE480AA3
:1010900003F0ACFB40F6980005F080FA9FED0A0AD9
:1010A00003F0F8FA40F6980005F078FA2868013065
:1010B000286001202060BDEC028BB0BDC3F5A83EC6
:1010C0009A99193E0000C8C200003443B0B52DED16
:1010D000028B40F22825C2F20005286840F22C2439
:1010E000C2F200040021022821602AD0012831D058
:1010F000002868D19FED360A03F078FB4FF4FA70B0
:1011000005F04CFA552003F0C9FF4FF4486005F094
:1011100045FA03F071FD03F01FFC03F0BBFC40F641
:10112000C41005F03BFA9FED2B0A03F031FD40F2AD
:10113000DC5005F033FA412003F0B0FF40F2DC5000
:1011400034E003F0FFFB03F061FD40F2DC5005F0FA
:1011500025FA38E09FED1E8AB0EE480A03F080FBC6
:101160004FF4FA7005F01AFA2D2003F097FF4FF4B0
:10117000486005F013FA03F03FFD03F0EDFB03F0C8
:1011800089FC40F6C41005F009FA9FED120A03F03D
:10119000FFFC40F2DC5005F001FA412003F07EFF35
:1011A000B0EE480A03F022FB4FF4FA7005F0F6F9AE
:1011B0009FED090A03F0AEFA40F2DC5005F0EEF9BB
:1011C00028680130286001202060BDEC028BB0BD92
:1011D000CDCC4C3D0000C8C29A99193EB0B52DED5A
:1011E000048B40F22825C2F20005286840F22C2426
:1011F000C2F2000400210228216034D001283BD033
:1012000000287CD19FED408AB0EE480A03F0B8FA7E
:1012100040F2DC5005F0C2F99FED3C0A03F0E6FA1B
:101220004FF4FA7005F0BAF9552003F037FF4FF488
:10123000486005F0B3F903F0DFFC03F08DFB03F029
:1012400029FC40F6C41005F0A9F99FED310A03F01E
:101250009FFC40F2DC5005F0A1F9412003F01EFF95
:1012600040F2DC503EE003F06DFB03F0CFFC40F2B7
:10127000DC5005F093F942E09FED238AB0EE480A76
:1012800003F07EFA40F2DC5005F088F99FED1F9ADA
:10129000B0EE490A03F0E4FA4FF4FA7005F07EF973
:1012A0002D2003F0FBFE4FF4486005F077F903F0C2
:1012B000A3FC03F051FB03F0EDFB40F6C41005F076
:1012C0006DF99FED130A03F063FC40F2DC5005F06A
:1012D00065F9412003F0E2FEB0EE490A03F086FA18
:1012E0004FF4FA7005F05AF9B0EE480A03F012FA1A
:1012F00040F2DC5005F052F92868013028600120E6
:101300002060BDEC048BB0BD9A99193ECDCC4C3D0C
:101310000000C8C2B0B52DED048B40F22825C2F202
:101320000005286840F22C24C2F2000400210228A3
:10133000216034D001283BD000287CD19FED408A29
:10134000B0EE480A03F01CFA40F2DC5005F026F932
:101350009FED3C0A03F04AFA4FF4FA7005F01EF9CB
:10136000552003F09BFE4FF4486005F017F903F099
:1013700043FC03F0F1FA03F08DFB40F6C41005F0D6
:101380000DF99FED310A03F003FC40F2DC5005F04B
:1013900005F9412003F082FE40F2DC503EE003F00C
:1013A000D1FA03F033FC40F2DC5005F0F7F842E0EC
:1013B0009FED238AB0EE480A03F0E2F940F2DC50D8
:1013C00005F0ECF89FED1F9AB0EE490A03F048FAD9
:1013D0004FF4FA7005F0E2F82D2003F05FFE4FF4B1
:1013E000486005F0DBF803F007FC03F0B5FA03F002
:1013F00051FB40F6C41005F0D1F89FED130A03F03D
:10140000C7FB40F2DC5005F0C9F8412003F046FE6E
:10141000B0EE490A03F0EAF94FF4FA7005F0BEF8AD
:10142000B0EE480A03F076F940F2DC5005F0B6F869
:1014300028680130286001202060BDEC048BB0BD1D
:101440009A99193ECDCC4C3D0000C8C22DE9F0411F
:1014500040F2202440F21C2640F2302740F238258A
:10146000C2F200044FF00008C2F20006C2F2000708
:10147000C2F20005C4F80080C6F800800DE000BF8D
:1014800001212160EA783068002A01BF012901307A
:101490003060C4F8008004280BD002F00DFEB8794B
:1014A000F9790843ECD0387879780843E8D0216896
:1014B000E8E703F0C5FB4FF4FA7005F06FF840F26F
:1014C0002C20C2F2000001210160BDE8F081000083
:1014D000FEE7000010B52DED028B40F22C249FEDAD
:1014E000230AC2F200040020206003F013F940F246
:1014F000DC5005F053F89FED1E8AB0EE480A03F069
:10150000AFF940F6B83005F049F840F21420C2F2C5
:101510000000007840F21821C2F20001086003F0D8
:101520006BFB03F019FA03F0B5FA40F6C41005F0AE
:1015300035F89FED100A03F02BFB40F2DC5005F06C
:101540002DF8B0EE480A03F051F940F2DC5005F0F6
:1015500025F89FED090A03F09DF84FF4486005F067
:101560001DF801202060BDEC028B10BDCDCC4C3DA0
:101570009A99993E0000C8C20000344310B540F269
:101580002C24C2F200040020B5EE000A206003F013
:10159000F7F840F6980005F001F840F21420C2F286
:1015A0000000007840F21821C2F20001086003F048
:1015B00023FB03F0D1F903F06DFA40F6980004F034
:1015C000EDFF9FED050A03F0E3FA40F2DC5004F072
:1015D000E5FF0120206010BD0000C8C240F22C20B1
:1015E000C2F2000000680138B0FA80F0400970478C
:1015F00040F22C2040F21821C2F20000C2F2000199
:101600000068096880F0010081F003010843B0FA26
:1016100080F040097047000040F22C20C2F2000028
:1016200044F298410068C2F20001096880F00100AC
:101630000843B0FA80F040097047000040F22C20C7
:1016400040F21821C2F20000C2F2000100680968ED
:1016500080F0010081F001010843B0FA80F04009F8
:101660007047000040F22C2040F21821C2F2000026
:10167000C2F200010068096880F0010081F00201F7
:101680000843B0FA80F040097047000040F22C2077
:1016900044F29841C2F20000C2F2000100680968F9
:1016A00080F0010081F001010843B0FA80F04009A8
:1016B0007047000040F22C20C2F2000040F21021DE
:1016C0000068C2F20001096880F001000843B0FA26
:1016D00080F040097047000040F22C2040F21021B9
:1016E000C2F20000C2F200010068096880F0010047
:1016F00081F001010843B0FA80F040097047000012
:1017000070470000B0B540F220210020C2F2000175
:1017100040F22C25086040F21C21C2F20005C2F202
:1017200000012860086040F22820C2F20000006832
:10173000B5EE000A40F2DC549FED201A0028C8BF25
:10174000B0EE410AC8BF40F6980403F019F82046ED
:1017500004F024FF03F074FA4FF4FA7004F01EFF53
:101760009FED170A04F092F940F6980004F016FF76
:1017700040F23024C2F20004E07928B102F09CFC6F
:101780000A2004F00BFFF7E703F05AFA4FF4FA705F
:1017900004F004FF9FED0B0A02F0F2FF40F6980000
:1017A00004F0FCFE9FED080A03F05AF84FF448607D
:1017B00004F0F4FE01202860B0BD00BFF628DC3E36
:1017C0000000B442B81E053E9A99193F2DE9F04336
:1017D00081B02DED028B40F22C2840F2202440F203
:1017E0001C2540F2302640F23827C2F200084FF0A4
:1017F0000009C2F20004C2F20005C2F20006C2F201
:101800000007C8F80090C4F80090C5F800900CE0FC
:1018100001212160FA782868002A01BF01290130DE
:101820002860C4F8009003280BDA02F045FCB07978
:10183000F1790843ECD0307871780843E8D021681A
:10184000E8E719D19FED1B8A0DE000BFB0EE480A12
:1018500002F096FF4FF4FA7004F0A0FE2868013001
:101860002860042808DA02F027FC307871780843F1
:10187000ECD028680428F6DB03F0E2F940F2DC50F3
:1018800004F08CFE9FED0C0A04F000F940F2DC50ED
:1018900004F084FE9FED090A02F072FF40F2DC5072
:1018A00004F07CFE0120C8F80000BDEC028B01B002
:1018B000BDE8F083CDCCCC3D0000B4429A99993E6E
:1018C0002DE9F04381B02DED028B40F22C2840F23F
:1018D000202440F21C2640F2302540F23827C2F284
:1018E00000084FF00009C2F20004C2F20006C2F282
:1018F0000005C2F20007C8F80090C4F80090C6F8CE
:1019000000900CE001212160FA783068002A01BFC4
:10191000012901303060C4F8009003280BDA02F08E
:10192000CBFBA879E9790843ECD02878697808439B
:10193000E8D02168E8E7052818D89FED2E8A0CE04A
:10194000B0EE480A02F01CFF4FF4FA7004F026FED5
:10195000306801303060062808DA02F0ADFB2878E4
:1019600069780843ECD030680628F6DB03F068F9A4
:1019700040F2DC5004F012FE9FED1F0A02F000FF5F
:101980004FF4FA7004F00AFE9FED1C0A04F07EF892
:1019900040F6980004F002FE28786978084302D0E7
:1019A00002F08AFBF8E703F04BF940F2DC5004F058
:1019B000F5FD9FED130A02F019FF40F6980004F0C0
:1019C000EDFDB6EE080A02F0DBFE41F2301004F045
:1019D000E5FD9FED0A0A04F059F840F6980004F07E
:1019E000DDFD0120C8F80000BDEC028B01B0BDE8B0
:1019F000F08300BFCDCCCC3DCDCC4C3D0000B442FB
:101A00009A99993EB0B540F220210020C2F200011F
:101A100040F22C24086040F21C21C2F20004C2F201
:101A20000001B5EE000A2060086002F073FE40F687
:101A3000980004F0B3FD9FED170A02F02BFE40F66C
:101A4000980004F0ABFD40F23025C2F2000500BF63
:101A5000E87928B102F030FB0A2004F09FFDF7E797
:101A600003F0EEF840F2DC5004F098FD9FED0A0A16
:101A700002F086FE4FF4FA7004F090FD9FED070A25
:101A800004F004F840F6980004F088FD012020607E
:101A9000B0BD00BF00003443CDCCCC3D0000B4420B
:101AA0002DE9F04381B02DED028B40F22C2840F25D
:101AB000202740F21C259FED400AC2F200084FF09B
:101AC0000009C2F20007C2F20005C8F80090C7F88A
:101AD0000090C5F8009002F089FE40F6AC5004F08A
:101AE0005DFD9FED360A02F0D5FD40F6980004F04A
:101AF00055FD2868022822DC40F2302440F23826C6
:101B0000C2F20004C2F200060DE000BF01213960FC
:101B1000F2782868002A01BF012901302860C7F83F
:101B2000009003280BDA02F0C7FAA079E1790843A4
:101B3000ECD0207861780843E8D03968E8E70328DA
:101B40001CD89FED1F8A40F23024C2F200040CE042
:101B5000B0EE480A02F014FE4FF4FA7004F01EFDD5
:101B6000286801302860042808DA02F0A5FA2078F5
:101B700061780843ECD028680428F6DB03F060F8AD
:101B800040F2DC5004F00AFD9FED0E0A03F07EFFE8
:101B900040F2DC5004F002FD9FED0B0A02F0F0FD74
:101BA00040F2DC5004F0FAFC0120C8F80000BDEC63
:101BB000028B01B0BDE8F0836666663F00003443E7
:101BC000CDCCCC3D0000B4429A99993E2DE9F0432A
:101BD00081B02DED028B40F22C2840F2202740F2FC
:101BE0001C259FED550AC2F200084FF00009C2F211
:101BF0000007C2F20005C8F80090C7F80090C5F8C9
:101C0000009002F0F3FD40F6AC5004F0C7FC9FEDED
:101C10004B0A02F03FFD40F6980004F0BFFC286834
:101C2000022822DC40F2302440F23826C2F20004BE
:101C3000C2F200060DE000BF01213960F278286889
:101C4000002A01BF012901302860C7F8009003284D
:101C50000BDA02F031FAA079E1790843ECD0207870
:101C600061780843E8D03968E8E705281CD89FED7B
:101C7000348A40F23024C2F200040CE0B0EE480A8C
:101C800002F07EFD4FF4FA7004F088FC2868013001
:101C90002860062808DA02F00FFA207861780843F5
:101CA000ECD028680628F6DB02F0CAFF40F2DC50D0
:101CB00004F074FC9FED230A02F062FD4FF4FA7009
:101CC00004F06CFC9FED200A03F0E0FE40F6980063
:101CD00004F064FC40F23024C2F200042078617801
:101CE000084302D002F0E8F9F8E702F0A9FF40F259
:101CF000DC5004F053FC9FED150A02F077FD40F62E
:101D0000980004F04BFCB6EE080A02F039FD41F2EF
:101D1000301004F043FC9FED0C0A03F0B7FE40F6D0
:101D2000980004F03BFC0120C8F80000BDEC028BD9
:101D300001B0BDE8F08300BF6666663F0000344333
:101D4000CDCCCC3DCDCC4C3D0000B4429A99993ECF
:101D500010B52DED028B40F22820C2F20000006881
:101D600040F22C24C2F200040021022821600ED08F
:101D7000012811D0C0BB9FED1F8AB0EE480A02F0C7
:101D8000FFFC40F2DC5004F009FC5F200FE002F0A1
:101D9000D9FD02F03BFF27E09FED168AB0EE480A1E
:101DA00002F0EEFC40F2DC5004F0F8FB0F2003F0F0
:101DB00075F94FF4FA7004F0F1FB02F0C3FD02F084
:101DC00025FF40F2DC5004F0E9FB412003F066F906
:101DD00040F2DC5004F0E2FBB0EE480A02F09AFC5C
:101DE00040F2DC5004F0DAFB01202060BDEC028BF5
:101DF00010BD00BF9A99193E10B52DED028B40F22F
:101E00002820C2F20000006840F22C24C2F2000434
:101E10000021022821600ED0012811D0C0BB9FED07
:101E20001F8AB0EE480A02F0ABFC40F2DC5004F02E
:101E3000B5FB5F200FE002F085FD02F0E7FE27E032
:101E40009FED168AB0EE480A02F09AFC40F2DC5090
:101E500004F0A4FB0F2003F021F940F2DC5004F061
:101E60009DFB02F06FFD02F0D1FE40F2DC5004F069
:101E700095FB412003F012F940F2DC5004F08EFB98
:101E8000B0EE480A02F046FC40F2DC5004F086FB5B
:101E900001202060BDEC028B10BD00BF9A99193E55
:101EA00010B52DED028B40F22820C2F20000006830
:101EB00040F22C24C2F200040021022821600ED03E
:101EC000012811D0A0BB9FED1D8AB0EE480A02F098
:101ED00057FC40F2DC5004F061FB7D200FE002F083
:101EE00031FD02F093FE1FE09FED148AB0EE480A28
:101EF00002F046FC40F2DC5004F050FB232003F0DB
:101F0000CDF840F2DC5004F049FB02F01BFD02F07A
:101F10007DFE412003F0C2F840F2DC5004F03EFBAD
:101F2000B0EE480A02F0F6FB40F2DC5004F036FB5B
:101F300001202060BDEC028B10BD00BF9A99193EB4
:101F400010B52DED028B40F22820C2F2000000688F
:101F500040F22C24C2F200040021022821600ED09D
:101F6000012811D0A0BB9FED1D8AB0EE480A02F0F7
:101F700007FC40F2DC5004F011FB7D200FE002F082
:101F8000E1FC02F043FE1FE09FED148AB0EE480A28
:101F900002F0F6FB40F2DC5004F000FB232003F0DB
:101FA0007DF840F2DC5004F0F9FA02F0CBFC02F0CC
:101FB0002DFE412003F072F840F2DC5004F0EEFAFE
:101FC000B0EE480A02F0A6FB40F2DC5004F0E6FA5C
:101FD00001202060BDEC028B10BD00BF9A99193E14
:101FE00010B52DED028B40F22820C2F200000068EF
:101FF00040F22C24C2F200040021022821600ED0FD
:10200000012811D0A0BB9FED1D8AB0EE480A02F056
:10201000B7FB40F2DC5004F0C1FA7D200FE002F083
:1020200091FC02F0F3FD1FE09FED148AB0EE480A28
:1020300002F0A6FB40F2DC5004F0B0FA232003F0DB
:102040002DF840F2DC5004F0A9FA02F07BFC02F01B
:10205000DDFD412003F022F840F2DC5004F09EFA4E
:10206000B0EE480A02F056FB40F2DC5004F096FA5B
:1020700001202060BDEC028B10BD00BF9A99193E73
:1020800010B52DED028B40F22820C2F2000000684E
:1020900040F22C24C2F200040021022821600ED05C
:1020A000012811D0A0BB9FED1D8AB0EE480A02F0B6
:1020B00067FB40F2DC5004F071FA7D200FE002F083
:1020C00041FC02F0A3FD1FE09FED148AB0EE480A28
:1020D00002F056FB40F2DC5004F060FA232002F0DC
:1020E000DDFF40F2DC5004F059FA02F02BFC02F064
:1020F0008DFD412002F0D2FF40F2DC5004F04EFA98
:10210000B0EE480A02F006FB40F2DC5004F046FA5A
:1021100001202060BDEC028B10BD00BF9A99193ED2
:1021200072B600BFFEE70000F0B540F23020C2F208
:1021300000000278437890F802E082F0010183F019
:10214000010739438EF0010751EA070C15D101212F
:10215000C17001799FED4C1A01294FF000012BD17C
:102160004479012C28D18479012C25D1C479012C02
:1021700004BFB0EE0C0AF0BD1EE0B9EE000A9FED00
:10218000421A002A4FF0010108BFB0EE401AB8EE23
:10219000040A08BF0221002BB2FA82F431EE000AD1
:1021A0000CBFB0EE401A6109BEF1000F04D1BFEEC2
:1021B000000A31EE001A0131BEEE000AC77831EE96
:1021C000000A0479B6EE002A45798679002F04BF0B
:1021D000B0EE401A013131EE020A002C04BFB0EE1D
:1021E000401A0131B7EE000A1A4331EE000A42EA02
:1021F0000E02002D04BFB0EE401A0131B0EE040A09
:102200003A4331EE000A002E04BFB0EE401A01310D
:10221000C07942EA0403B1EE003A2B4331EE030ADF
:10222000002843EA060304BFB0EE401A013103431D
:10223000B0EE0C0A27D0002A08BF012D1FD044EAB7
:10224000050333431843BCFA8CF2B0FA80F052090C
:102250004009024218BFF0BD00EE101AB8EEC00AE5
:1022600081EE000AB6EE0C1A30EE030A20EE010AE7
:1022700030EE020ABDEEC00AB8EEC00AF0BD012E73
:10228000DDD10128DBD1F0BD00000000B0B504466F
:1022900000F0E6F8054640F21000C2F200000078B7
:1022A000611C18BF044400BF00F0DAF8401BA042D4
:1022B000FAD3B0BD2DE9F04F82B000F13E4707F1EF
:1022C000FF77860546EA972741F60046C4F20206E4
:1022D000082243F6004EB04208BF0722C4F2010EA6
:1022E000072F38BF3A46002600274FF0000800921B
:1022F00009E000BF08F101080237B8F1100F06F13C
:10230000040600F0A3800D68012202FA08F415EA21
:102310000409EFD0D1F804B003220BF0030CACF1A8
:102320000105BA40012D6FEA020A0FD88268CD6814
:1023300002EA0A02BD402A4382604268A243CBF30C
:10234000001404FA08F42243426005E0BCF1030FD4
:1023500002D14FF0030C1EE0C2688C6802EA0A0248
:10236000BC402243BCF1020FC26014D16FF00302E3
:1023700002EA58020244D2F820C006F01C040F23DF
:102380000D69A3402CEA0303A5402B431362D1F847
:1023900004B00BF0030C02680CFA07F302EA0A021D
:1023A0001A431BF4403F0260A4D0002243F64403CA
:1023B0000192C4F202031A684FF6084C42F48042BC
:1023C0001A601A68CFF6FF7C02F480420192019AEB
:1023D00028F00302724452F80C3006F00C050F246A
:1023E000AC40A343009C04FA05F52B4342F80C30A3
:1023F000DEF808204B6842EA090543F60C4CDC0283
:1024000058BF22EA0905CEF80850C4F2010CDCF8E6
:1024100000209C0242EA090558BF22EA0905CCF8CF
:102420000050DEF804209C0342EA090558BF22EA66
:102430000905CEF80450DEF80020DB0342EA090566
:1024400058BF22EA0905CEF8005053E702B0BDE8B4
:10245000F08F0000002A08BF090481617047000066
:1024600044F29010C2F2000000687047002804BFD8
:1024700001207047F0B581B0044690F83D0028B9BE
:10248000002084F83C00204600F024FA242084F840
:102490003D002068016821F001010160016841F4FC
:1024A00000410160016821F40041016000F02CFC52
:1024B000636848F2A16CC0F2010C40F60011C0F252
:1024C0003D0163453CBF48F28041C0F21E01884295
:1024D00002D2012001B0F0BD4DF68361C4F21B3180
:1024E000A0FB01122168970CD1F804E04FF4967616
:1024F0002EF03F0545EA92454D60774348F6381681
:102500000D6AC0F24106A7FB067625F03F0763453A
:1025100038BF960C721C3A430A62CA6948F2A06638
:102520004CF6FF77C0F20106B34222EA07020AD84E
:1025300001385B00B0FBF3F001306FF31F3004286B
:1025400098BF042019E0A768013857B119277B43C9
:10255000B0FBF3F001306FF31F3068B100F580403D
:1025600007E003EB4303B0FBF3F001306FF31F30E0
:1025700010B100F5004000E001201043C861086878
:10258000D4E9072320F0C00010431843086088688E
:1025900048F2FF3204F10C0790438CCF18431043EC
:1025A000A6698860C86820F0FF0038433043C860DF
:1025B000086840F00100086000202021206484F8B1
:1025C0003D10206384F83E0001B0F0BD2DE9F047D6
:1025D00084B0984617460E460446FFF741FF94F82C
:1025E0003D10202922D10546206800BF8169890756
:1025F00017D5FFF735FF411B20681A29F6D38169EB
:102600008907F3D500202021206384F83D1084F849
:102610003E00206C04F13C0940F0200020640220C0
:1026200052E1A14619F83C1F012903D1022004B050
:10263000BDE8F087012289F800200368DDE90D1A62
:102640000C9ADB0703D1036843F0010303600368BE
:1026500023F400630360222084F83D00402084F8C6
:102660003E000020206462626185608D31462085D5
:102670000020CFF6FF70E06220463A464346CDE99F
:1026800000A501F04FFB18B1012004B0BDE8F087B0
:10269000208DA0B102281FD0012829D121680A6805
:1026A00022F480620A60002203924A6903928A69D6
:1026B0000392039A0A6842F400720A6020E0002044
:1026C000039020684169039181690391039901682E
:1026D00041F400710160D8E021680A6822F4806248
:1026E0000A600A6842F400620A600022039202E073
:1026F0000021039121684A69039289690391039932
:102700000AF1010680B203281DD802284ED0012804
:1027100060D1216803E04869400640F1C98008465D
:1027200050F8142F520600F1A1800168C90600F18B
:10273000B380FFF795FE2168BAF1000FEBD0401B84
:102740005045ECD9E7E7216804E000BF486940063E
:1027500040F1AE80084650F8142F52060DD401689F
:10276000C90600F19980FFF77BFE2168BAF1000FDE
:10277000ECD0401B5045EDD9E8E70869616A087064
:10278000606A2268411C208D616201382085638D5A
:10279000013B638553695B0774D580B2032803D17D
:1027A000106820F480601060106961E0216802E028
:1027B000486940077CD54869400743D4002EFAD0C9
:1027C000FFF74EFE2168BAF1000FF1D0401B5045D3
:1027D000F1D9EDE7216802E04869400768D548690A
:1027E00040070BD4002EFAD0FFF73AFE2168BAF169
:1027F000000FF1D0401B5045F1D9EDE7086820F4F7
:10280000806008600869616A0870606A2168013048
:102810006062208D01382085608D0138608502E07E
:102820004869400744D5486940070BD4002EFAD0C8
:10283000FFF716FE2168BAF1000FF1D0401B50459A
:10284000F1D9EDE7086840F4007008600869616A32
:102850000870606A2268411C6162218D01392185FE
:10286000618D013961851169417002E00869616A11
:102870000870606A218D01306062481E2085618D7C
:102880000139618501047FF43DAF202084F83D00CB
:10289000002084F83E0017E06FF010010160002076
:1028A0002021206384F83D1084F83E00206C09E06C
:1028B00000202021206384F83D1084F83E00206C25
:1028C00040F0200020640120002189F8001004B0AD
:1028D000BDE8F0872DE9F04786B0006845F6004175
:1028E000C4F2000100268842CDE90466CDE9026603
:1028F00001962FD045F60001C4F2000188426ED146
:10290000002543F630040095C4F20204206801A9B2
:1029100040F002002060206800F002000090009863
:102920004FF4406001901220CDE90205032004908D
:10293000042005900020C4F2020000F58060FFF73B
:10294000B9FC0095206940F480002061206900F402
:10295000800042E043F630070096C4F20207386870
:10296000002440F0040038603868C4F2020400F02B
:102970000400009000980096386801AD40F0010016
:10298000386038684FF0120800F00100009000989D
:102990004FF4007001904FF003094FF0040A04F562
:1029A00000602946CDE90286CDF81090CDF814A03C
:1029B000FFF780FC4FF48070CDE9010803A880E8A0
:1029C000400620462946FFF775FC0096386940F41A
:1029D00000003861386900F400000090009806B0EB
:1029E000BDE8F08740F2100044F29011C2F20000FE
:1029F000C2F2000100780A681044086070470000C5
:102A000080B543F60040C4F20200016841F4007151
:102A10000160016841F480610160016841F48071E6
:102A20000160032000F0B0F80F2000F005F800F07E
:102A30002BF8002080BD0000B0B540F21002C2F2B9
:102A4000000240F20C011278C2F200014FF47A73D6
:102A50000968B3FBF2F20446B1FBF2F1084600F05C
:102A600069FB0F2C4FF001050CD858B94FF0FF301F
:102A700021460022002500F05BF840F21400C2F26B
:102A8000000004602846B0BD80B582B0002043F647
:102A900040010190C4F202014A6842F480424A6057
:102AA0004A6802F480420192019A0090086800226C
:102AB00040F0805008600868012100F080500090CC
:102AC00000986FF00B0000F033F86FF00A0001215E
:102AD000002200F02DF86FF009000121002200F023
:102AE00027F86FF004000121002200F021F86FF0B8
:102AF00003000121002200F01BF86FF001000F21FC
:102B0000002202B0BDE8804000F012B8002848BFA3
:102B1000704700F01F01012202FA01F11C2202EAB3
:102B2000D0004EF20012CEF2000281507047000039
:102B300010B54EF60C5CCEF2000CDCF80030C3F39E
:102B4000022E8EF00704042C28BF0424BEF10303D8
:102B50004FF0FF3E0EFA04F438BF0023A143994022
:102B60000EFA03F39A43114300F00F0200F16043A1
:102B70000901043A03F564436244002848BF02F1A6
:102B80000C03197010BD00004EF60C51CEF200017E
:102B90000A684FF6FF031A4060F30A2242F0806091
:102BA00040F0FD7008607047002804BF01207047A6
:102BB0002DE9F04143F60808C4F202080446D8F8AB
:102BC000F8030D4600F00700884207D288F8F85352
:102BD000D8F8F80300F00700A84276D120688107F2
:102BE00017D5410705D5D8F8001041F4E051C8F8D1
:102BF0000010010705D5D8F8001041F46041C8F86D
:102C00000010D8F80010A26821F0F0011143C8F8B4
:102C10000010C0073FD1D8F8F80300F00700A84221
:102C200007D988F8F853D8F8F80300F00700A8424D
:102C30004BD12068410707D5D8F80010E26821F48D
:102C4000E0511143C8F80010000708D5D8F800007B
:102C5000216920F4604040EAC100C8F8000000F09B
:102C60007BF8D8F8001046F6D062C1F30311C0F625
:102C70000002515C40F20C0220FA01F140F2140013
:102C8000C2F200000068C2F200021160FFF7D4FE39
:102C90000020BDE8F0816068811E022907D258F843
:102CA000081C89015CBF0120BDE8F08110E001280B
:102CB00007D158F8081C89035CBF0120BDE8F081EA
:102CC00006E058F8081C890702D40120BDE8F0810D
:102CD000D8F8001021F003010843C8F80000FFF7FE
:102CE000BFFB064641F28837D8F80000616800F063
:102CF0000C00B0EB810F8ED0FFF7B2FB801BB84207
:102D0000F2D90320BDE8F08140F20C0043F608013F
:102D1000C2F20000C4F202010068096846F6E062EF
:102D2000C1F38221C0F60002515CC8407047000028
:102D300040F20C0043F60801C2F20000C4F20201A6
:102D40000068096846F6E062C1F34231C0F600024D
:102D5000515CC8407047000010B543F60404C4F24B
:102D60000204606800F00C0008280AD0042819BF8B
:102D700042F20040C0F2F40047F64000C0F27D107D
:102D800010BD206821682368490247F64001C0F25F
:102D90007D1100F03F02C3F388105CBF42F2004196
:102DA000C0F2F401A1FB00010023FDF709FA21683C
:102DB0000222C1F3014102EB4101B0FBF1F010BD71
:102DC000002804BF012070472DE9F04182B004467D
:102DD000007843F60006C007C4F202060BD0B068C4
:102DE00000F00C00042878D13068800303D56068B7
:102DF000002800F05181207880071AD5B06810F0C3
:102E00000C0F08D0B06800F00C00082840F07F805C
:102E1000706840027BD43068800703D5E0680128E1
:102E200040F03A813068216920F0F80040EAC100A2
:102E300030602078000713D42078400727D4A56994
:102E4000002D00F02581B06800F00C00082840F04B
:102E50009180012D40F0F980012002B0BDE8F081A1
:102E60006069002840F20000C4F2472072D00121BE
:102E7000C0F8801EFFF7F4FA054600BF706F8007A8
:102E8000DAD4FFF7EDFA401B0228F7D9D9E0306C0D
:102E90005FEAC0080AD400200190306C40F08050F6
:102EA0003064306C00F080500190019847F20007C8
:102EB000C4F200073868C0053ED4386840F480701A
:102EC0003860FFF7CDFA05463868C00534D4FFF7FF
:102ED000C7FA401B0228F7D9B3E0B06800F00C0035
:102EE000082803D1706840023FF57EAF6068B0F5F6
:102EF000803F07D0B0F5A02F40F08D80306840F4BF
:102F000080203060306840F4803030608DE0E068D0
:102F1000002852D00020C4F2472001210160FFF7B1
:102F20009FFA0546306880073FF57CAFFFF798FAB7
:102F3000401B0228F6D984E0A068012805D00528A6
:102F400050D1306F40F004003067306F40F0010026
:102F5000306751E00021C0F8801EFFF781FA054676
:102F6000706F80077FF568AFFFF77AFA401B022881
:102F7000F6D966E00027C4F2472700203866FFF73D
:102F80006FFA022D05460DD13068800140F188802E
:102F9000FFF766FA401B02284FF00300F4D902B095
:102FA000BDE8F0813068800172D5FFF759FA401B07
:102FB00002284FF00300F5D9F1E70020C4F24720C2
:102FC00000210160FFF74CFA054600BF306880071A
:102FD0007FF52FAFFFF744FA401B02284FF00300A4
:102FE000F4D9DCE7316F002821F001013167316F3E
:102FF00021F00401316774D0FFF732FA054641F23F
:10300000883700BF306F80077BD4FFF729FA401B59
:10301000B842F7D915E03168002821F480313160D9
:10302000316821F48021316074D0FFF719FA054628
:10303000306880033FF5DFAEFFF712FA401B6428CB
:10304000F6D9032002B0BDE8F0817068E16900F4B0
:1030500080028A4220D1216A00F03F028A421BD1BD
:1030600047F6C071626A0140B1EB821F14D1A16AB8
:103070004FF6FF73C903994300F44032A1F5803144
:103080008A4209D1E16A00F07060B0EB016F03D1B0
:10309000002002B0BDE8F081012002B0BDE8F0815F
:1030A00004F11C052FCD084340EA8210D9034FF6E6
:1030B000FF729143A1F5803140EA056008437060DA
:1030C00001203866FFF7CCF9044600BF3068800164
:1030D000DED4FFF7C5F9001B02284FF00300F5D935
:1030E0005DE7FFF7BDF9054641F28837306F80078D
:1030F00007D5FFF7B5F9401BB8424FF00300F5D9EB
:103100004DE7B8F1000F3FF59AAE306C20F08050DB
:10311000306494E6FFF7A4F9054600BF30688003E9
:103120007FF569AEFFF79CF9401B64284FF0030060
:10313000F4D934E7411E0020B0EB116F1CBF012011
:1031400070474EF21002CEF2000251604EF623514B
:10315000CEF20001F0230B700721906011607047E0
:10316000704700007047000090F83C20012A4FF0A3
:10317000020252D010B580F83D200268D2F804E077
:10318000D2F808C00C682EF07003234341F2FF749C
:10319000C4F20004A24253600DDC40F2FF73C4F29B
:1031A00000039A4215DCB2F1804F29D040F200436F
:1031B000C4F2000322E040F2FF33C4F201039A425A
:1031C00012DC41F60003C4F200039A4218D0002337
:1031D00012E040F60003C4F200039A4210D040F619
:1031E0000043C4F2000309E044F20003C4F2010307
:1031F0009A4205D040F20043C4F201039A4204D13E
:1032000049682CF08003194391600121002280F865
:103210003D1080F83C20BDE810401046704700008B
:10322000002804BF0120704710B5044690F83D0007
:1032300028B9002084F83C00204600F01FF8022046
:1032400084F83D002068211D01F0FAFD012084F87A
:10325000460084F83E0084F83F0084F8400084F87B
:10326000410084F8420084F8430084F8440084F864
:10327000450084F83D00002010BD000080B582B0FC
:10328000006800F14041800540EA9120042857D8A9
:10329000DFE800F003111F3947000020019043F6DA
:1032A0004000C4F20200016841F0010101600068C1
:1032B00000F0010042E00020019043F64000C4F21B
:1032C0000200016841F002010160006800F00200A4
:1032D00034E00020019043F64000C4F2020001688F
:1032E000002241F0040101600068052100F00400A3
:1032F000019001981E20FFF71BFC1E2002B0BDE8C4
:103300008040FFF703BC0020019043F64000C4F268
:103310000200016841F008010160006800F0080047
:103320000CE00020019043F64000C4F20200016866
:1033300041F010010160006800F010000190019858
:1033400002B080BD90F83D1001291CBF01207047DC
:10335000022180F83D10006841F2FF72C168C4F29A
:103360000002904241F00101C1600DDC40F2FF71AA
:10337000C4F20001884215DCB0F1804F29D040F240
:103380000041C4F2000122E040F2FF31C4F2010129
:10339000884212DC41F60001C4F20001884218D0D4
:1033A000002112E040F60001C4F20001884210D072
:1033B00040F60041C4F2000109E044F20001C4F209
:1033C0000101884205D040F20041C4F20101884267
:1033D00006D1816801F00701062904BF002070476B
:1033E000016841F0010101600020704790F83C2025
:1033F000012A4FF0020200F0C38080B580F83D2022
:10340000D0F800C04FF67772DCF8083023EA0202E9
:10341000CCF808200B684F2B28DC1F2B44DD202B19
:1034200045D0302B43D0402B40F0AC80D1F804E0A5
:10343000C968DCF82030DCF8202022F00102CCF84A
:103440002020DCF8182022F0F00242EA011123F0DB
:103450000A0242EA0E02CCF81810CCF82020DCF860
:10346000081041F0470121F030017EE06F2B26DD8E
:10347000B3F5005F47D0B3F5805F78D0702B40F094
:103480008180D1E901E3C968DCF8082043EA0E0332
:1034900022F47F4243EA01211143CCF80810DCF802
:1034A000081041F0770160E00BB1102B6AD1DCF815
:1034B000081021F07001194341F0070155E0502B2D
:1034C00034D0602B5ED1D1F804E0C968DCF820303C
:1034D000DCF8202022F01002CCF82020DCF81820A4
:1034E00022F4704242EA013123F0A00242EA0E12B5
:1034F000CCF81810CCF82020DCF8081041F0670157
:1035000021F0100131E0D1E901E3C968DCF80820BD
:1035100043EA0E0322F47F4243EA01211143CCF82F
:103520000810DCF8081041F480411EE0D1F804E0F6
:10353000C968DCF82030DCF8202022F00102CCF849
:103540002020DCF8182022F0F00242EA011123F0DA
:103550000A0242EA0E02CCF81810CCF82020DCF85F
:10356000081041F0570121F02001CCF8081000228A
:10357000012180F83D10002180F83C10BDE880401A
:10358000104670470122F3E77047000070B504460B
:103590000068C5680669B10716D515F0020113D099
:1035A0006FF002010161012121778069800703D05A
:1035B0002046FFF7E9FF05E0204600F0E9F8204645
:1035C00000F022FA00202077700718D515F00400CB
:1035D00015D020686FF00401016102212177806914
:1035E00010F4407F03D02046FFF7CEFF05E02046D1
:1035F00000F0CEF8204600F007FA002020773007D0
:1036000017D515F0080014D020686FF0080101618B
:1036100004212177C069800703D02046FFF7B4FF5B
:1036200005E0204600F0B4F8204600F0EDF9002057
:103630002077F00618D515F0100015D020686FF02F
:103640001001016108212177C06910F4407F03D087
:103650002046FFF799FF05E0204600F099F8204644
:1036600000F0D2F900202077F00718BF15F0010014
:1036700002D1300609D412E020686FF00101016127
:10368000204600F047FA300609D515F0800006D034
:1036900020686FF0800101612046FFF761FD700630
:1036A00009D515F0400006D020686FF04001016197
:1036B000204600F031FAB00658BF70BD15F020006A
:1036C00008D021686FF0200220460A61BDE87040F2
:1036D000FFF748BD70BD000080B586B0006840F6B9
:1036E0000042C4F2000200219042CDE90411CDE96C
:1036F000021101911BD040F20041C4F20001884246
:1037000025D0B0F1804F40D10020009043F630002A
:10371000C4F20200016841F001010160006800F09C
:1037200001000090009820200190012021E043F644
:1037300030000091C4F20200016841F00101016013
:10374000006800F001000090009801200FE00020C8
:10375000009043F63000C4F20200016841F001011C
:103760000160006800F00100009000984020019086
:10377000022002210291002105900020CDE90311D1
:10378000C4F2020001A9FEF795FD06B080BD00005D
:103790007047000090F83C30012B04BF02207047B6
:1037A0004FEAB202032A00F2FD802DE9F043DFE880
:1037B00002F0023D7CBC036840F200461C6A1A6AB3
:1037C00024F0020422F001021A621A46D3F804C05F
:1037D00052F818EF8F6843F48065C4F20106B542D1
:1037E00044EA070405D1CF6824F00C0427F004074D
:1037F0003C430F68B54206D1D1E905582CF4407618
:103800002E4346EA080C2EF073063743C3F804C073
:103810009F614F6809695F631C629F6947F00807F1
:103820009F619F6927F004079F61B0E0036840F241
:1038300000481C6A1A6A24F0200422F010021A625E
:103840001A46D3F804C052F818EF8F6843F4806525
:10385000C4F20108454544EA071407D1CF686FF068
:10386000400624F0C00406EA07163443D1F800905D
:10387000454506D1D1E905562CF440672E4347EA69
:10388000860C2EF4E64747EA0927C3F804C09F6177
:103890004F6809699F631C629F6947F400679F61D5
:1038A0009F6927F480679F6170E0036840F20048D9
:1038B0001C6A1A6A24F4007422F480721A621A468E
:1038C000D3F804C052F81CEF8F6843F48065C4F24B
:1038D0000108454544EA072408D1CF6840F2FF4675
:1038E0003F0224F4406427EA06063443D1F80090EE
:1038F000454506D1D1E905562CF440572E4347EAF9
:10390000061C2EF0730747EA0907C3F804C0DF61FD
:103910004F680969DF631C62DF6947F00807DF61F0
:10392000DF6927F00407DF6131E0036840F20045FA
:10393000D3F820C01A6A43F4806722F480521A62D6
:103940001A465C6852F81CEFD1F800808E68C4F209
:103950000105AF4204D14D6924F4804444EA851442
:103960002CF4005747EA06372EF4E64646EA0826C6
:103970005C60DE614E6809691E641F62DF6947F49E
:103980000067DF61DF6927F48067DF610902136880
:10399000194311600021BDE8F043002280F83C206B
:1039A000084670470121F8E7002804BF012070474E
:1039B00010B5044690F83D0028B9002084F83C007A
:1039C000204600F01FF8022084F83D002068211DE9
:1039D00001F036FA012084F8460084F83E0084F8AD
:1039E0003F0084F8400084F8410084F8420084F8E5
:1039F000430084F8440084F8450084F83D0000202A
:103A000010BD0000704700007047000041B1082958
:103A100010D0042914BF00F1410200F13F020BE075
:103A200090F83E20012A1CBF01207047022280F836
:103A30003E2012E000F140021278012A1CBF012052
:103A400070470222082906D0042914BF80F84120BB
:103A500080F83F2001E080F84020006801F01F015D
:103A60000122036A02FA01F123EA01020262026AF8
:103A7000114341F2FF72C4F20002904201620BDC7A
:103A800040F2FF71C4F20001884213DCB0F1804FB4
:103A900035D040F2004115E040F2FF31C4F201019F
:103AA000884214DC41F60001C4F20001884226D0AD
:103AB000002114E040F60001C4F2000188421ED04B
:103AC00040F60041C4F20001884218D01CE044F2E4
:103AD0000001C4F20101884211D040F20041C4F259
:103AE0000101884210D1416C40F2004340F48062F1
:103AF000C4F2010341F400419A42416404D1816857
:103B000001F00701062903D0016841F001010160BD
:103B1000002070477047000070470000002804BF75
:103B20000120704710B5044690F8410028B90020E4
:103B300084F84000204600F021F8242084F8410059
:103B40002068C16821F40051C160204601F00EFADE
:103B50002068016921F490410161416921F02A0145
:103B60004161C16841F40051C160002020216064BE
:103B700084F8411084F84210606310BD80B586B0AF
:103B8000006844F20042C4F2000200219042CDE9F4
:103B90000411CDE90211019124D041F20001C4F2D7
:103BA0000101884248D1002043F630010090C4F260
:103BB00002014A6942F010024A614A6902F01002A9
:103BC0000092009A0090086840F0010008600868C0
:103BD0004FF4C06100F00100009000980020C4F292
:103BE00002001DE043F630000091C4F202000269B9
:103BF00042F400320261026902F400320092009A3B
:103C00000091016841F0080101600068602100F046
:103C10000800009000980020C4F2020000F5406007
:103C200001910221029100210391032104910721B6
:103C3000059101A9FEF73EFB06B080BD2DE9F043DA
:103C400081B0044690F8410020281CD18946002903
:103C50004FF0010061D01646002A5ED0002060645B
:103C600021201D4684F84100FEF7FAFBA684E68475
:103C7000A1680646B1F5805F01D1206938B1C84618
:103C80004FF0000905E0022001B0BDE8F0834FF0DD
:103C90000008E18C206829B36F1C0BE0B8F1000F1D
:103CA00019D018F8011B4160E18C0139E184E18CE5
:103CB000C1B100BF01680906F0D4002FFAD0FEF7A9
:103CC000CFFB01464FF0030025B3891BA94221D841
:103CD0002068C168EEE739F8021B4FF000086FF367
:103CE0005F21E0E70168490613D46F1C03E000BFC1
:103CF000016849060DD4002FFAD0FEF7B1FB01464A
:103D00004FF0030035B1891BA94203D82068C16870
:103D1000EEE70020202184F8411001B0BDE8F083D7
:103D2000FEE700002DE9F04F83B007680446DDF898
:103D300034B00C9E3868994640F48060386038682A
:103D4000904640F48070386078698A46C00714D184
:103D5000751C06E07869C00700F0C0807869C0076C
:103D60000BD1002DFAD0FEF77BFB2768002EF1D097
:103D7000A0EB0B00B042F1D9ECE70AF0FE0AC7F85D
:103D800010A0384650F8141F89071AD4751C08E093
:103D90007869800740F1DD80384650F8141F8907A4
:103DA0000FD47969490500F19080002DF4D0FEF719
:103DB00057FB2768002EEBD0A0EB0B00B042EBD9ED
:103DC000E6E700200290384650F8141F029141683F
:103DD00002910299016809061AD4751C09E000BF16
:103DE0007869000640F1A080384650F8141F090693
:103DF0000ED47969490563D4002DF5D0FEF730FB68
:103E00002768002EECD0A0EB0B00B042ECD9E7E71E
:103E1000B9F1010F21D04FEA18203861384650F827
:103E2000141F090619D4751C08E000BF7869000644
:103E30007AD5384650F8141F09060ED47969490519
:103E40003ED4002DF5D0FEF70BFB2768002EEDD0F9
:103E5000A0EB0B00B042ECD9E8E75FFA88F03861DC
:103E6000384650F8141F090619D4751C08E000BF25
:103E70007869000658D5384650F8141F09060ED444
:103E8000796949051CD4002DF5D0FEF7E9FA2768B9
:103E9000002EEDD0A0EB0B00B042ECD9E8E738687B
:103EA0004FF0011140F48070386020460022334604
:103EB000CDF800B000F05EF838B3206800681BE071
:103EC0006FF48061016004202FE0396841F40071D3
:103ED00039606FF48061016004203BE00020202104
:103EE000206384F83D1084F83E00216C41F02001ED
:103EF000216484F83C003868C00544BF4FF400706A
:103F00002064032003B0BDE8F08F25684AF0010764
:103F10000221C0F20101204632465B462F6103B008
:103F2000BDE8F04F00F082B820200021202221635C
:103F300084F83D2084F83E10226C1043206484F8FD
:103F40003C10206C042811D1386840F400703860AF
:103F50000CE0202000212022216384F83D2084F8F9
:103F60003E10226C1043206484F83C10012003B002
:103F7000BDE8F08F2DE9F04780460068154601F452
:103F80007F071822B7F5803F08BF142280588CB2F3
:103F90002040001BB0FA80F04009A84230D1DDF883
:103FA00020901E4603F1010A1EE000BFD8F8000071
:103FB0001821B7F5803F08BF142140582040001B4E
:103FC000B0FA80F04009A8421DD0D8F800001821AE
:103FD000B7F5803F08BF142140582040001BB0FABD
:103FE00080F04009A8420BD1BAF1000FEDD0FEF7E6
:103FF00037FA002EDAD0A0EB0900B042E5D9D5E7B8
:104000000020BDE8F08700202021C8F8300088F8A3
:104010003D1088F83E00D8F8401041F02001C8F863
:10402000401088F83C000120BDE8F0872DE9F04100
:10403000984603680446184650F8146F8FB206EA93
:104040000701B94202D10020BDE8F0811646551C97
:104050000AE000BF58693840B8421DD1184650F8F0
:10406000141F3940B942EED0596949050BD4002DCF
:10407000F4D0FEF7F5F92368002EEBD0A0EB080092
:10408000B042EBD9E6E7196841F4007119606FF4AA
:1040900080610160042000E02020002120222163B3
:1040A00084F83D2084F83E10226C104320640120E7
:1040B00084F83C10BDE8F08180B52DED048BFEF74F
:1040C00033F8B0EE408AB0EE0C0AB4EE408AF1EE5E
:1040D00010FA21D19FED299A40F2E800C2F20000C7
:1040E000B0EE490A02F0ACF840F24010C2F2000013
:1040F000B0EE490A02F0A4F840F29810C2F20000B3
:10410000B0EE490A02F09CF840F29000C2F20000C2
:10411000B0EE490A02F094F8B8EE0C0A9FED181AB6
:1041200038EE000A9FED152A20EE010A32EE409A81
:1041300040F2E80030EE028AC2F20000B0EE490A16
:1041400002F07EF840F24010C2F20000B0EE480AE1
:1041500002F076F840F29810C2F20000B0EE490A80
:1041600002F06EF840F29000C2F20000B0EE480A91
:10417000BDEC048BBDE8804002F062B89A99993E8C
:10418000CDCC4C3D80B588B00B4802AF01900AA061
:1041900000F1040E9EE80E50806987E80E500790EB
:1041A00001A8002101F0C0FC40F22421C2F200016C
:1041B000086008B080BD00BFE86E0008214C000810
:1041C000000000000000000080000000000000006F
:1041D0000000000070B586B0002543F6300005955C
:1041E0000095C4F20200016840F6000441F080012D
:1041F00001600168C4F2020401F08001009100999D
:1042000000950168002241F0010101600168C026AB
:1042100001F00101009100990095016841F002014F
:104220000160016801F002010091009900950168A8
:1042300041F004010160016801F00401009100995E
:104240000095016841F0080101600068C02100F09C
:104250000800009000982046FEF7FCF80120CDE908
:10426000020501A9204601960495FEF723F806B041
:1042700070BD000080B540F2402045F60001C2F25A
:104280000000C4F2000100234FF4804C42F210728F
:1042900080E80E00C0E9033CC0E90533C0E90733FC
:1042A000FEF7E4F8002808BF80BDBDE88040FDF7B8
:1042B00037BF000080B540F2942045F60041C2F2BD
:1042C0000000C4F2000100234FF4804C42F210724F
:1042D00080E80E00C0E9033CC0E90533C0E90733BC
:1042E000FEF7C4F8002808BF80BDBDE88040FDF798
:1042F00017BF000010B58EB040F2E8200021C2F2D6
:1043000000004FF08042532344F61F640D91CDE925
:104310000B110991CDE90711CDE90511CDE9031183
:10432000CDE90111C0E90023C0E9021401618161F6
:10433000FEF776FF002818BFFDF7F2FE4FF480501D
:104340000A9040F2E820C2F200000AA9FFF74EF8F6
:10435000002818BFFDF7E4FE40F2E820C2F200009A
:10436000FFF722FB002818BFFDF7DAFE40F2E82035
:104370000024C2F2000008A9CDE90844FEF7F4FECB
:10438000002818BFFDF7CCFE6020CDE9010440F203
:10439000E820C2F2000001A9002203940594FFF76F
:1043A000F9F9002818BFFDF7BBFE40F2E820C2F281
:1043B0000000FFF791F90EB010BD000010B58EB0EF
:1043C00040F2303040F200420021C2F20000C4F25C
:1043D0000002532344F61F640D91CDE90B1109919E
:1043E000CDE90711CDE90511CDE90311CDE90111A1
:1043F000C0E90023C0E9021401618161FEF710FFEA
:10440000002818BFFDF78CFE4FF480500A9040F250
:104410003030C2F200000AA9FEF7E8FF002818BFFA
:10442000FDF77EFE40F23030C2F20000FFF7BCFA2A
:10443000002818BFFDF774FE40F230300024C2F2AD
:10444000000008A9CDE90844FEF78EFE002818BF39
:10445000FDF766FE6020CDE9010440F23030C2F283
:10446000000001A9002203940594FFF793F90028A6
:1044700018BFFDF755FE40F23030C2F20000FFF7E2
:104480002BF90EB010BD000080B586B040F2783038
:1044900040F600020021C2F20000C4F200025323E1
:1044A0000591CDE90311CDE90011C0E90021C0E972
:1044B0000213016180218161FEF7B2FE002818BF5E
:1044C000FDF72EFE4FF48050029040F27830C2F299
:1044D000000002A9FEF78AFF002818BFFDF720FEA2
:1044E00040F27830C2F200006946FEF73DFE002837
:1044F00018BFFDF715FE06B080BD000010B58EB0E8
:1045000040F2C03040F600420021C2F20000C4F286
:104510000002532344F61F640D91CDE90B1109915C
:10452000CDE90711CDE90511CDE90311CDE901115F
:10453000C0E90023C0E9021401618161FEF770FE49
:10454000002818BFFDF7ECFD4FF480500A9040F2B0
:10455000C030C2F200000AA9FEF748FF002818BFC9
:10456000FDF7DEFD40F2C030C2F20000FFF71CFA9A
:10457000002818BFFDF7D4FD40F2C0300024C2F27D
:10458000000008A9CDE90844FEF7EEFD002818BF99
:10459000FDF7C6FD6020CDE9010440F2C030C2F253
:1045A000000001A9002203940594FFF7F3F8002806
:1045B00018BFFDF7B5FD40F2C030C2F20000FFF7B2
:1045C0008BF80EB010BD000080B582B040F20840FC
:1045D00041F200020021C2F20000C4F200025323A3
:1045E00040F2E73CCDE90011C0E90023C0E9021C1C
:1045F0008161FEF715FE002818BFFDF791FD40F21E
:104600000840C2F200006946FEF7AEFD002818BF60
:10461000FDF786FD02B080BD80B540F2504041F20A
:104620000001C2F20000C4F2010100234FF00C0CA3
:104630004FF4E13280E80E00C0E90333C0E905C35E
:10464000C361FFF76BFA002808BF80BDBDE880405A
:10465000FDF766BD80B540F2984044F20041C2F2D9
:104660000000C4F2000100234FF00C0C4FF4E132C3
:1046700080E80E00C0E90333C0E905C3C361FFF75A
:104680004DFA002808BF80BDBDE88040FDF748BD59
:10469000FEE7000080B52DED068B9FED1B8A9FED98
:1046A0001B1A20EE080A80EE019A9FED19AA40F22B
:1046B000E800C2F20000B0EE4A0AF0EE490A01F04A
:1046C0002FFD40F24010C2F20000B0EE480AF0EEBA
:1046D000490A01F025FD40F29810C2F20000B0EE48
:1046E0004A0AF0EE490A01F01BFD40F29000C2F2C6
:1046F0000000B0EE480AF0EE490ABDEC068BBDE8BA
:10470000804001F00DBD00BFF5DB973E0000B442D4
:10471000F5DB97BE80B52DED048B9FED189AB0EEBA
:10472000408A40F2E800C2F20000B0EE490AF0EE22
:10473000480A01F0F5FC40F24010C2F20000B0EE71
:10474000490AF0EE480A01F0EBFC40F29810C2F280
:104750000000B0EE490AF0EE480A01F0E1FC40F238
:104760009000C2F20000B0EE490AF0EE480ABDEC3B
:10477000048BBDE8804001F0D3BC00BF9A9999BE7C
:1047800080B52DED048B9FED189AB0EE408A40F273
:10479000E800C2F20000B0EE490AF0EE480A01F06B
:1047A000BFFC40F24010C2F20000B0EE490AF0EE49
:1047B000480A01F0B5FC40F29810C2F20000B0EED9
:1047C000490AF0EE480A01F0ABFC40F29000C2F258
:1047D0000000B0EE490AF0EE480ABDEC048BBDE8DB
:1047E000804001F09DBC00BF9A99993E80B52DEDA7
:1047F000048B9FED199AB0EE408A40F2E800C2F2B5
:104800000000B0EE490AF0EE480A01F089FC40F2DF
:104810004010C2F20000B0EE490AF0EE480A01F082
:104820007FFC9FED0E9A40F29810C2F20000B0EEAD
:10483000490AF0EE480A01F073FC40F29000C2F21F
:104840000000B0EE490AF0EE480ABDEC048BBDE86A
:10485000804001F065BC00BF9A99993E9A9999BE33
:1048600080B52DED048B9FED199AB0EE408A40F291
:10487000E800C2F20000B0EE490AF0EE480A01F08A
:104880004FFC40F24010C2F20000B0EE490AF0EED8
:10489000480A01F045FC9FED0E9A40F29810C2F2D2
:1048A0000000B0EE490AF0EE480A01F039FC40F28F
:1048B0009000C2F20000B0EE490AF0EE480ABDECEA
:1048C000048BBDE8804001F02BBC00BF9A9999BED3
:1048D0009A99993EFEE700000000000000000000E9
:1048E000EFF30980BFF36F8F154B1A681EF0100F9E
:1048F00008BF20ED108A20E9F04F10602DE9090073
:104900004FF0500080F31188BFF34F8FBFF36F8FCC
:1049100001F020FF4FF0000080F31188BDE809008E
:1049200019680868B0E8F04F1EF0100F08BFB0EC2F
:10493000108A80F30988BFF36F8F704700BF00BFF4
:10494000E804002040F2E820C2F2000000684FF4C2
:10495000FA7141637047000040F2E820C2F20000A3
:10496000006840F6C411416370470000F0B585B09F
:1049700040F294240020C2F20004ADF812004FF47B
:104980007A7501260DF1120720469821DD220123B8
:10499000CDE900760295FDF719FE781CCDE90006F9
:1049A00020469A21DD2201230295FDF70FFE9DF896
:1049B000121040F230229DF8130001F00103C2F200
:1049C0000002137040F2382300F00107C2F2000326
:1049D0001F70C1F340075770C0F340075F70C1F309
:1049E00080079770C0F380079F70C1F3C007D7702E
:1049F000C0F3C007DF70C1F300171771C0F30017D1
:104A00001F71C1F340175771C0F340175F71C1F3B5
:104A100080179771C0F38017C909C0099F71D171C0
:104A2000D87105B0F0BD0000F0B583B040F240246D
:104A300040F2F017C2F200044FF47A750326C2F276
:104A4000000720469021D0220123CDE9007602956F
:104A5000FDF7BCFDF81CCDE9000620469021D122CF
:104A600001230295FDF7B2FD03B0F0BD0000000088
:104A7000074B19680868B0E8F04F80F30988BFF366
:104A80006F8F4FF0000080F31188704700BF00BFA8
:104A9000E80400202DE9F04740F21428C2F2000893
:104AA00098F8000040F2F01740F2FC1640F2E4499A
:104AB00040F2F81A0228C2F20007C2F20006C2F25F
:104AC0000009C2F2000A1ED17879EF2801D1022034
:104AD00011E001244FF4C845FFF7A6FF012001F0C3
:104AE0005DFD78793460EF28C9F80050CAF80040BD
:104AF000F2D198F8000001214FF47A323160C9F800
:104B00000020CAF8001003281FD17879EF2801D1BE
:104B1000032012E001244FF4C84500BFFFF784FFD3
:104B2000012001F03BFD78793460EF28C9F800508E
:104B3000CAF80040F2D198F8000001214FF47A320F
:104B40003160C9F80020CAF80010012818BFBDE87C
:104B5000F0877879EF2810D001244FF4C84500BFC2
:104B6000FFF762FF012001F019FD78793460EF282A
:104B7000C9F80050CAF80040F2D101204FF47A3150
:104B80003060C9F80010CAF80000BDE8F0870000E6
:104B900080B510EE100A40F2FC120021B5EE400A7A
:104BA000C2F2000220F00040F1EE10FAC8BF01216D
:104BB0001160FBF761FC9FED0E0B53EC102BFBF724
:104BC00042FBFBF740FCC11700EB517140F2E4429D
:104BD0000730C910C2F200020F28116038BF80BD33
:104BE00040F2F810C2F200000121016080BD00BF58
:104BF000000000000000F94040F23030C2F2000036
:104C000000684FF4FA7141637047000040F23030A1
:104C1000C2F20000006840F6C41141637047000012
:104C2000012000F073FFFBE7DDF800C00160426384
:104C300080F8383080ED0F0A80F840C070470000DF
:104C400080B52DED028B9FED138A40F2E800C2F291
:104C50000000B0EE480A01F0F3FA40F24010C2F250
:104C60000000B0EE480A01F0EBFA40F29810C2F2F0
:104C70000000B0EE480A01F0E3FA40F29000C2F200
:104C80000000B0EE480ABDEC028BBDE8804001F0A8
:104C9000D7BA00BF0000000080B5FFF7D1FF40F297
:104CA000DC50BDE8804001F079BC000080B5FDF724
:104CB00099FE01F0DBFE012808BF80BDBDE8804001
:104CC00001F050BEB0B592B0002443F64000CDE9EB
:104CD0000A44CDE908440594CDE90344CDE90144F3
:104CE0000094C4F202000168022541F08051016085
:104CF000006800F080500090009847F20000009497
:104D0000C4F20000016841F480410160006800F4D1
:104D1000804000900098012006904FF4803007906A
:104D20004FF480000D9019200E904FF4A870CDE93B
:104D30000F050420119006A80C95FEF741F810B15C
:104D400072B600BFFEE70F20CDE901054FF4A05079
:104D500004904FF48050059001A805210394FDF7BD
:104D600023FF10B172B600BFFEE712B0B0BD000065
:104D70004EF68850CEF20000016841F470010160E7
:104D800070470000F0B581B040F2F816C2F200069C
:104D9000306801284BD140F2FC10C2F200000068DC
:104DA00040F600040138C4F20204B0FA80F042096F
:104DB00020468021FDF74EFB40F20025C2F200059F
:104DC0002868012824D090BB40F2E447C2F20007D3
:104DD000386828B3204640210122FDF73BFB40F212
:104DE000042040F20801C2F20000C2F20001026891
:104DF00009683B680132013B8A424FF000010260C2
:104E00003B60A4BF016001212868084428600EE0CF
:104E10002046402100220024FDF71CFB2C6006E008
:104E200040F208210020C2F200013060086040F228
:104E30007830C2F2000001B0BDE8F040FEF7A6BB3A
:104E4000B0B540F6FF3E0568C4F2000E40F2004CDB
:104E50007045C4F2010C0FDCB0F1804F19D040F264
:104E60000043C4F20003984213D040F60003C4F29A
:104E7000000398420DD011E040F60043C4F2000355
:104E8000984206D0604504D00023C4F20103984242
:104E900004D14B6825F0700243EA020541F6FF7326
:104EA000C4F2000398420DDC70451FDCB0F1804F66
:104EB00041D040F20043C4F2000398423BD040F698
:104EC000000321E043F6FF73C4F20103984220DCA3
:104ED00042F20003C4F2000398422CD00023C4F233
:104EE0000103984227D0604525D029E040F60043D1
:104EF000C4F2000398421ED041F60003C4F200033E
:104F0000984218D041F60043C4F20003984212D0F0
:104F100016E044F20003C4F2010398420BD044F6B9
:104F20000003C4F20103984205D044F20043C4F2E6
:104F30000103984204D1CB6825F4407243EA02058C
:104F40000A688C684B69C46240F48064826264457C
:104F500004BF09690163026825F0800142F0040280
:104F600019430260012242610160B0BD10B50446E0
:104F70000068D4E902C22369016921F44051114358
:104F80000161626943EA0C01E3691143C268194394
:104F900049F20C639A431143C1604169A26921F44B
:104FA000407141F20043114340F48062C4F20103B6
:104FB0009A42416102D1FDF7BBFE01E0FDF7A4FE7C
:104FC000E16963681922B1F5004FA0FB020120D10D
:104FD0005A00DB0FFBF7F4F848F21F51C5F2EB1152
:104FE000A0FB01235A094FF69C73C0F6FF7303F12F
:104FF000805302FB0300322303EBC000A0FB01013E
:105000004FF4F87000EA111000EB0210C1F34211E6
:105010001CE09A009B0FFBF7D3F848F21F51C5F232
:10502000EB11A0FB01235A094FF69C73C0F6FF73E6
:1050300002FB0300322303EB0010A0FB0101F02070
:1050400000EA511000EB0210C1F34311084421683B
:10505000886010BD40F2F010C2F20000C178A1F1EA
:105060006400C0B2782840F21420C2F2000006D8D2
:105070000122DB29027007D902210170704701F17A
:105080002402D2B22A2AF7D30639C9B25D2988BFD1
:105090007047032101707047FEE700004FF4FA618A
:1050A00048434BF6D711C0F2F201A0FB010140F2D8
:1050B000C030C2F20000006801F5FA714163704728
:1050C00070B514460546D0E903020E46511C29610D
:1050D000C90001F0C7FE2969E86000EBC10040E9A2
:1050E000026470BD80B50C2001F05CFE0021C0E9B7
:1050F0000011816080BD00002DE9F04107461420B9
:10510000984615460E4601F04DFE04460020C4E9BF
:105110000300D7E90101C4E900650131B9608900E4
:10512000C4F8088001F09EFEB968786000EB810148
:10513000204641F8044CBDE8F0810000F0B581B094
:1051400004460068A0B10D4681682846884720685B
:10515000016901290CDB0026C76807EBC60041681E
:105160002846884730B92068013601698E42F3DB52
:1051700001B0F0BD57F83600206001B0F0BD00006E
:1051800001607047FDF73CFCFFF79CFDFFF722F83C
:10519000FFF790F8FFF75EFAFFF76CF8FFF7AAF851
:1051A000FFF70CF9FFF7AAF9FFF76EF9FFF70CFA12
:1051B000FFF732FA40F27830C2F20000FEF7C2F890
:1051C00040F20840C2F20000FEF7BCF840F2E820CE
:1051D000C2F200000021FEF719FC40F23030C2F2AA
:1051E00000000021FEF712FC40F2C030C2F20000C5
:1051F0000021FEF70BFC40F6B830FDF747F800F051
:1052000007F8FEF7BFFF00F089FC00BFFEE70000D3
:10521000F0B581B02DED028B82B0012040F25044F8
:105220009FED3A8A009040F29000C2F20004C2F270
:105230000000022122460023B0EE480A0225002782
:10524000FFF7F2FC0A2001F0A9F940F2E800C2F2EF
:105250000000012122460123B0EE480A0097FFF723
:10526000E3FC0A2001F09AF940F24010C2F200007B
:10527000032122460023B0EE480A00970326FFF7D9
:10528000D3FC0A2001F08AF940F29810C2F2000023
:10529000042122460123B0EE480A0097FFF7C4FC20
:1052A0000A2001F07BF900F04BF84120FFF7F6FEF1
:1052B000FFF748FBFFF7A0FC4FF47A7001F06EF99E
:1052C00040F2E04745F68120C2F20007C0F6000038
:1052D0000FA14FF4FA620023CDE9006701F05AFBF9
:1052E00040F2845746F2FD00C2F20007C0F600000B
:1052F0000BA14FF416720023CDE9005701F04AFBD1
:1053000002B0BDEC028B01B0F0BD00BF2DB29D3DDF
:105310004D6F74696F6E50726F6365737300000038
:1053200053656E736F7250726F6365737300000024
:1053300040F28C00C2F2000000680021FFF7FEBEC0
:105340002DE9F04F81B0FFF7CDFE40F28C01C2F2A3
:10535000000146F6CA7241F24D4308600C46C0F6A1
:105360000002C0F600030021FFF7C6FE40F250081D
:105370002168C2F2000846F6BC7241F2D543C8F873
:105380000000C0F60002C0F6000308460121FFF746
:10539000B3FE40F254092168C2F2000946F61B72BE
:1053A00041F20573C9F80000C0F60002C0F6000320
:1053B00008460221FFF7A0FE40F25C062168C2F217
:1053C000000646F6FF6241F651533060C0F6000217
:1053D000C0F6000308460321FFF78EFE40F2740575
:1053E0002168C2F2000546F60E7240F2C9532860E9
:1053F000C0F60002C0F6000308460421FFF77CFE59
:1054000040F2200A2168C2F2000A46F6F46240F631
:105410008553CAF80000C0F60002C0F60003084633
:105420000521FFF769FE40F238072168C2F2000744
:1054300046F6737241F2CD733860C0F60002C0F6D2
:10544000000308460621FFF757FE40F26002C2F251
:1054500000022168106046F6577241F6F953C0F613
:105460000002C0F6000308460721FFF745FE40F2A0
:105470007802C2F200022168106046F6667240F2BD
:10548000A163C0F60002C0F6000308460821FFF73A
:1054900033FE40F22402C2F200022168106046F698
:1054A0004C7240F6C563C0F60002C0F60003084621
:1054B0000921FFF721FE40F23C02C2F200022168FE
:1054C000106046F6AB7241F6C103C0F60002C0F6AA
:1054D000000308460A21FFF70FFE40F26402C2F201
:1054E00000022168106046F68F7241F6A163C0F693
:1054F0000002C0F6000308460B21FFF7FDFD40F255
:105500007C0B2168C2F2000B46F69E7240F2CD730E
:10551000CBF80000C0F60002C0F6000308460C21DC
:10552000FFF7EAFD40F22802C2F200022168106093
:1055300046F6847240F6C973C0F60002C0F6000356
:1055400008460D21FFF7D8FD40F24002C2F20002EA
:105550002168106046F6C37241F27D53C0F6000226
:10556000C0F6000308460F21FFF7C6FD40F25802BF
:10557000C2F200022168106046F63B7241F6052334
:10558000C0F60002C0F6000308461021FFF7B4FD84
:1055900040F26802C2F200022168106046F62C72E6
:1055A00041F64173C0F60002C0F60003084611211F
:1055B000FFF7A2FD40F280022168C2F2000240F62D
:1055C000711310600FF21042C0F60003084612215A
:1055D000FFF792FD40F22C022168C2F2000241F274
:1055E000CD0310600FF20042C0F6000308461321FD
:1055F000FFF782FD40F244022168C2F2000241F648
:10560000A12310600FF2EC32C0F60003084614210B
:10561000FFF772FD40F26C022168C2F2000241F60F
:10562000E1731060F8A2C0F6000308461521FFF7E9
:1056300063FD40F284022168C2F2000240F6512369
:105640001060F5A2C0F6000308461621FFF754FDCE
:1056500040F230022168C2F2000241F2DD13106014
:10566000F1A2C0F6000308461721FFF745FD40F2FE
:1056700048022168C2F2000241F6CD331060EDA26B
:10568000C0F6000308461821FFF736FD40F270020D
:105690002168C2F2000242F281031060EAA2C0F661
:1056A000000308461921FFF727FD40F28802216810
:1056B000C2F2000240F6B5331060E7A2C0F6000364
:1056C00008461A21FFF718FD40F234022168C2F2A1
:1056D000000241F215331060E3A2C0F60003084651
:1056E0001B21FFF709FD40F24C022168C2F20002C3
:1056F00044F699431060DFA2C0F6000308460E216D
:10570000FFF7FAFC40F20C24D8F8002041F2DD58F3
:10571000C2F20004D9F80010C0F60008206010465C
:105720004246FFF7CDFCD9F80000316841F2F15252
:10573000C0F60002FFF7C4FC306829684246FFF754
:10574000BFFC2868DAF800104246FFF7B9FC41F2C6
:105750001965DAF800003968C0F600052A46FFF737
:10576000AFFC386831682A46FFF7AAFC40F26007B0
:10577000C2F20007D9F80000396841F23D62C0F674
:105780000002FFF79DFC40F27806C2F2000638687E
:1057900031684246FFF794FC40F2240AC2F2000A44
:1057A0003068DAF800104246FFF78AFC40F23C0607
:1057B000C2F20006DAF8000031682A46FFF780FCE2
:1057C000306839682A46FFF77BFC40F26407C2F272
:1057D0000007D9F80000396841F26562C0F600029E
:1057E000FFF76EFC3868DBF800104246FFF768FCF4
:1057F00040F22809C2F20009DBF80000D9F80010D5
:105800004246FFF75DFC40F24006C2F20006D9F8BE
:10581000000031682A46FFF753FC306839682A4691
:10582000FFF74EFC40F22000C2F2000041F28D650D
:1058300000682168C0F600052A46FFF741FCDAF847
:10584000000021682A46FFF73BFCD9F800002168D8
:105850002A46FFF735FC40F2580AC2F2000A41F22C
:10586000B5652068DAF80010C0F600052A46FFF793
:1058700027FC40F26809C2F20009DAF80000D9F802
:10588000001041F2F152C0F60002FFF719FC40F29D
:105890008006C2F20006D9F8000031684246FFF7E0
:1058A0000FFC40F22C07C2F200073068396842460C
:1058B000FFF706FC40F24406C2F200063868316881
:1058C0002A46FFF7FDFB3068D9F800102A46FFF79B
:1058D000F7FB40F26C06C2F20006DAF8000031680D
:1058E00041F23D62C0F60002FFF7EAFB40F2840499
:1058F000C2F20004306821684246FFF7E1FB40F243
:105900003009C2F200092068D9F800104246FFF7BA
:10591000D7FB40F24804C2F20004D9F80000216825
:105920002A46FFF7CDFB206831682A46FFF7C8FBFF
:1059300040F27006C2F20006DAF80000316841F267
:105940006562C0F60002FFF7BBFB40F28804C2F2BA
:105950000004306821684246FFF7B2FB40F2340B86
:10596000C2F2000B2068DBF800104246FFF7A8FBEC
:1059700040F24C04C2F20004DBF8000021682A4621
:10598000FFF79EFB206831682A46FFF799FB40F23B
:105990000C25C2F2000541F2D96438682968C0F6C6
:1059A00000042246FFF78CFBD9F800002968224644
:1059B000FFF786FBDBF8000029682246FFF780FB33
:1059C00040F28C00C2F200000068DAF8001001B06A
:1059D000BDE8F04FFFF7D4BB4261636B5F62656760
:1059E000696E4231000000004261636B5F656E6466
:1059F0004231000044656C69766572795F62656763
:105A0000696E42320000000044656C697665727907
:105A10005F656E64423200004261636B5F6265677E
:105A2000696E4232000000004261636B5F656E6424
:105A30004232000044656C69766572795F62656721
:105A4000696E42330000000044656C6976657279C6
:105A50005F656E64423300004261636B5F6265673D
:105A6000696E4233000000004261636B5F656E64E3
:105A70004233000053746F705F6D6F646500000007
:105A8000FFF756FC322000F089FDF9E780B52DEDD7
:105A9000068B9FED1B8A9FED1B1A20EE080A80EEF5
:105AA000019A40F2E800C2F20000B0EE480AF0EEBF
:105AB000490A00F035FB9FED14AA40F24010C2F2F3
:105AC0000000B0EE4A0AF0EE490A00F029FB40F26D
:105AD0009810C2F20000B0EE480AF0EE490A00F059
