:020000040800F2
:10000000D86C00209D010008FD590008BD4A000879
:10001000B9570008911D0008A96100080000000000
:10002000000000000000000000000000915B0008DC
:100030006920000800000000015A0008895D0008DE
:10004000B7010008B7010008B7010008B7010008B0
:10005000B7010008B7010008B7010008B7010008A0
:10006000B7010008B7010008B7010008B701000890
:10007000B7010008B7010008B7010008B701000880
:10008000B7010008B7010008B7010008B701000870
:10009000B7010008B7010008B7010008B701000860
:1000A000B7010008B7010008B7010008B701000850
:1000B000B7010008B7010008615E0008B701000839
:1000C000B7010008B7010008B7010008B701000830
:1000D000B7010008B7010008B7010008B701000820
:1000E000B7010008B7010008B7010008B701000810
:1000F000B7010008B7010008B7010008B701000800
:10010000B7010008B7010008B7010008B7010008EF
:10011000B7010008B7010008B7010008B7010008DF
:10012000B7010008B7010008B7010008B7010008CF
:10013000B7010008B7010008B7010008B7010008BF
:10014000B7010008B7010008B7010008B7010008AF
:10015000B7010008B7010008B7010008B70100089F
:10016000B7010008B7010008B7010008B70100088F
:10017000B7010008B7010008B7010008000000003F
:10018000B7010008B7010008DFF80CD000F004FA4E
:100190000048004795620008D86C00200648804758
:1001A00006480047FEE7FEE7FEE7FEE7FEE7FEE75C
:1001B000FEE7FEE7FEE7FEE74D5E00088901000866
:1001C0002DE9F05F0546002092469B46884606468C
:1001D000814640241BE0284641464746224600F01F
:1001E0006DF953465A46C01A914110D3114618462C
:1001F000224600F054F92D1A67EB01084F462246BB
:100200000120002100F04BF917EB00094E41201EA0
:10021000A4F10104DFDC484631462A464346BDE8E6
:10022000F09F40EA01039B0703D009E008C9121FB1
:1002300008C0042AFAD203E011F8013B00F8013BA0
:10024000521EF9D270472DE9FE4F81EA030404F0F3
:10025000004421F0004100944FF0000B23F00043D4
:1002600050EA01045ED052EA03045BD0C3F30A549F
:10027000C1F30A552C44A4F2F3340194A0FB0254B8
:10028000C1F3130141F48011C3F3130343F480134A
:1002900001FB024400FB034E840A970A44EA81549E
:1002A00047EA8357A4FB076802958D0A05FB07857B
:1002B0004FEA932C04FB0C542705029D4FEA065885
:1002C00047EA1637B5EB08056EEB070C870E920E62
:1002D00047EA811742EA8312A7FB0201B6EB0B0142
:1002E00064EB00042B0D43EA0C335E1844EB1C5006
:1002F000DA465146E7FB0201C5F313044FEA0B331C
:1003000043EA14534FEA0432019C43EA0603A4F182
:100310000C040294009CCDE900B400F0EEF803B0A8
:10032000BDE8F08F00200146F9E72DE9F04D81EAA4
:10033000030404F0004B21F0004514464FF0000A7E
:1003400023F0004150EA050220D054EA01021DD0FA
:10035000C5F30A570246C5F31303C1F31300C1F3F3
:100360000A5640F4801543F48013A7EB0608101BCF
:10037000D64608F2FD3873EB050002D308F10108F8
:1003800001E092185B41B8F1000F03DA002001464A
:10039000BDE8F08D00204FF48011064684460EE043
:1003A000171B73EB050705D3121B63EB050306430D
:1003B0004CEA010C49084FEA300092185B4150EAC0
:1003C0000107EDD152EA030012D082EA040083EA69
:1003D0000501084305D0101BAB4106D201220023C2
:1003E00006E000224FF0004302E06FF001025310DC
:1003F0001AEB06004CEB085110EB0A0041EB0B0125
:10040000BDE8F04D00F06AB870B5C1F30A5201F0D2
:1004100000450024C1F3130140F2FF3341F4801181
:100420009A4201DA002070BD40F233439A42A2F2B0
:10043000334203DC524200F041F800E090402C438C
:10044000F1D0404270BDC1F30A5210B5C1F313019F
:1004500040F2FF3341F480119A4201DA002010BDCE
:1004600040F233439A42A2F2334203DC524200F09C
:1004700025F810BD904010BD00F0004230F0004063
:100480000AD0C10D01F56071C0F3160042EA0151B6
:10049000C208400711437047002001467047202AD8
:1004A00004DB203A00FA02F1002070479140C2F1CB
:1004B000200320FA03F3194390407047202A04DBFD
:1004C000203A21FA02F00021704721FA02F3D040CD
:1004D000C2F12002914008431946704710B5141E1E
:1004E00073F1000408DA401C41F1000192185B41ED
:1004F0001A4301D120F0010010BD2DE9F04D9246C4
:100500009B4611B1B1FA81F202E0B0FA80F22032DA
:100510009046FFF7C4FF04460F4640EA0A0041EA4E
:100520000B0153465A46084313D0114653EA0100C3
:1005300019D0C8F140025046FFF7C0FF05460E46ED
:10054000504659464246FFF7AAFF084305D001200E
:1005500004E020463946BDE8F08D0020054346EA18
:10056000E0762C4337430A986305E40AA0EB0800C1
:100570000022FD0A44EA47540A3002D50020014611
:10058000E9E7010510196941DDE9084500196941EC
:10059000BDE8F04DA2E700001CB5094800900948ED
:1005A00001900546009C06E0E06840F0010394E8F5
:1005B000070098471034AC42F6D3FFF7E9FD00007E
:1005C000A0800008C0800008B0B540F25804C2F214
:1005D0000004A06800210228216115D19FED270A9F
:1005E00006F026FB40F6980007F076F89FED200A0B
:1005F00005F05AF94FF4486007F06EF80120E0600A
:1006000001202061B0BD00BF9FED190A05F082F9FD
:100610004FF4486007F060F89FED160A06F008FBFB
:1006200040F6980007F058F89FED130A05F03CF9E2
:100630004FF4FA7007F050F840F24705C2F2000597
:10064000E87820B104F0BEFCE8780028FAD105F083
:1006500065FB4FF4FA7007F03FF89FED080A05F0CC
:10066000ADF840F6980007F037F801202061B0BDE2
:100670009A99193F00003443CDCCCC3D0000B442E0
:10068000F0B581B040F25804C2F200049FED470A71
:100690000020A568C4E90400E06105F0CFF840F649
:1006A000980007F019F89FED420A06F0C1FA40F6EB
:1006B000980007F011F86069022D53D1032817D074
:1006C00040F24705C2F20005002600BF04F07AFCA4
:1006D0002878002806BF0121E161E169EA786069B4
:1006E000002A01BF012901306061E6610328EDD1D4
:1006F0009FED2F0A05F062F840F6980006F0ECFF37
:1007000040F23F0640F247070025C2F20006C2F25F
:100710000007656104F056FC3078F179084306BFA4
:100720000121E161E169FA786069002A01BF0129CC
:1007300001306061E5610128ECDB05F0EFFA4FF470
:10074000FA7006F0C9FF9FED1A0A06F071FA40F63A
:10075000980006F0C1FF0120E0600120206101B097
:10076000F0BD00BF042817D040F24705C2F20005D3
:10077000002600BF04F026FC2878002806BF0121CF
:10078000E161E169EA786069002A01BF012901306D
:100790006061E6610428EDD105F0C0FA40F2DC505A
:1007A00006F09AFF0120206101B0F0BD9A99993EB0
:1007B0000000B442F0B581B02DED028B05F08AFA4D
:1007C00040F25804C2F200049FED720A0020A568AE
:1007D000C4E90400A061E06106F02AFA40F698003E
:1007E00006F07AFFA069022D40F0828000281DDC0F
:1007F0009FED698A40F23F05C2F200050DE000BF9F
:10080000B0EE480A05F050F84FF4FA7006F064FFB5
:10081000A0690130A061012808DA04F0D3FB287830
:10082000E9790843ECD0A0690128F6DB4FF47A702F
:1008300006F052FF9FED570A04F0C0FF40F2DC5073
:1008400006F04AFF6069052816D040F24705C2F25B
:100850000005002604F0B6FB2878002806BF012119
:10086000E161E169EA786069002A01BF012901308C
:100870006061E6610528EDD105F050FA4FF4FA7099
:1008800006F02AFF9FED430A04F098FF4FF4E16061
:1008900006F022FF40F23F0640F247070025C2F271
:1008A0000006C2F20007656104F08CFB3078F17934
:1008B000084306BF0121E161E169FA786069002A15
:1008C00001BF012901306061E5610128ECDB05F021
:1008D00025FA4FF4FA7006F0FFFE9FED2E0A06F09F
:1008E000A7F940F2DC5006F0F7FE0120E0604BE093
:1008F00000281DDC9FED288A40F23F05C2F200056A
:100900000DE000BFB0EE480A04F0CEFF4FF4FA70DD
:1009100006F0E2FEA0690130A061012808DA04F0C7
:1009200051FB2878E9790843ECD0A0690128F6DB6F
:100930004FF4FA6006F0D0FE9FED160A04F03EFF79
:1009400040F2DC5006F0C8FE6069062816D040F27E
:100950004705C2F20005002604F034FB2878002881
:1009600006BF0121E161E169EA786069002A01BFFF
:10097000012901306061E6610628EDD105F0CEF96C
:1009800040F2DC5006F0A8FE01202061BDEC028B95
:1009900001B0F0BD0000B442B81E053EF0B581B014
:1009A00040F258049FED330AC2F200040025C4E966
:1009B0000455E56106F03CF940F2DC5006F08CFE8F
:1009C0006069012820DC40F23F0640F24707C2F28E
:1009D0000006C2F200070BE00121E161FA786069CC
:1009E000002A01BF012901306061E56102280BDAAC
:1009F00004F0E8FAB079F1790843EDD030787178F5
:100A00000843E9D0E169E9E705F088F94FF4FA70A5
:100A100006F062FEA068022828D19FED160A04F0B5
:100A2000CDFE40F6980006F057FE9FED130A04F045
:100A30003BFF4FF4FA7006F04FFE40F24705C2F25A
:100A40000005E87840B100BF04F0BCFA0A2006F0C7
:100A500043FEE8780028F7D19FED060A06F0E8F893
:100A600040F6980006F038FE012020620120206147
:100A700001B0F0BD0000B442CDCCCC3DF0B581B0AA
:100A80002DED028B40F25804C2F200049FED630A80
:100A90000020A568C4E90400E06104F0CFFE40F640
:100AA000980006F019FE9FED5E0A06F0C1F840F6C8
:100AB000980006F011FE6069022D59D1032817D065
:100AC00040F24705C2F20005002600BF04F07AFAA2
:100AD0002878002806BF0121E161E169EA786069B0
:100AE000002A01BF012901306061E6610328EDD1D0
:100AF00005F014F940F2DC5006F0EEFD9FED480AD7
:100B000004F05CFE40F2DC5006F0E6FD9FED458A05
:100B100040F23F050020C2F20005A0610DE000BFD9
:100B2000B0EE480A04F0C0FE4FF4FA7006F0D4FDAF
:100B3000A0690130A061022808DA04F043FA28789D
:100B400069780843ECD0A0690228F6DB05F0E6F8E6
:100B500040F2DC5006F0C0FD9FED310A06F068F867
:100B60004FF4FA6006F0B8FD012020624FE000BFAC
:100B700040F247050328C2F2000513D0002600BF4B
:100B800004F020FA2878002806BF0121E161E1691C
:100B9000EA786069002A01BF012901306061E661DD
:100BA0000328EDD105F0BAF84FF4FA7006F094FD81
:100BB0009FED1B0A04F002FE40F2DC5006F08CFDB3
:100BC00040F23F070026C2F20007666104F0FAF91E
:100BD0003878F979084306BF0121E161E169EA78D3
:100BE0006069002A01BF012901306061E6610128C6
:100BF000ECD105F093F84FF4FA7006F06DFD9FED1F
:100C0000080A06F015F840F2DC5006F065FD0120F8
:100C10002061BDEC028B01B0F0BD00BF9A99993EF6
:100C20000000B442B81E053EF0B581B02DED028B38
:100C300005F050F840F25804C2F200049FED820A19
:100C40000020A568C4E90400A061E06105F0F0FFA0
:100C500040F6980006F040FDA069022D76D10028EC
:100C60001CDC9FED7A8A40F23F05C2F200050CE0E1
:100C7000B0EE480A04F018FE4FF4FA7006F02CFDAE
:100C8000A0690130A061012808DA04F09BF92878F6
:100C9000E9790843ECD0A0690128F6DB40F2DC508A
:100CA00006F01AFD9FED680A04F088FD40F2DC5062
:100CB00006F012FD6069052816D040F24705C2F221
:100CC0000005002604F07EF92878002806BF0121DF
:100CD000E161E169EA786069002A01BF0129013018
:100CE0006061E6610528EDD105F018F840F2DC50AE
:100CF00006F0F2FC9FED540A04F060FD40F2DC5077
:100D000006F0EAFC9FED518A40F23F050020C2F256
:100D10000005A0610DE000BFB0EE480A04F0C4FD7C
:100D20004FF4FA7006F0D8FCA0690130A0610228E7
:100D300008DA04F047F9287869780843ECD0A0690C
:100D40000228F6DB01202062206168E040F23F05C6
:100D50000028C2F2000519DC9FED3C8A0DE000BFBF
:100D6000B0EE480A04F0A0FD4FF4FA7006F0B4FCAF
:100D7000A0690130A061012808DA04F023F928787D
:100D8000E9790843ECD0A0690128F6DB40F2DC5099
:100D900006F0A2FC9FED2C0A04F010FD40F2DC509E
:100DA00006F09AFC606940F247060528C2F2000688
:100DB00012D0002704F006F93078002806BF012180
:100DC000E161E169F2786069002A01BF012901301F
:100DD0006061E7610528EDD104F0A0FF4FF4967043
:100DE00006F07AFC9FED180A04F0E8FC40F2DC50B3
:100DF00006F072FC0027676104F0E4F82878E979CE
:100E0000084306BF0121E161E169F2786069002AC7
:100E100001BF012901306061E7610128ECD104F0D4
:100E20007DFF4FF4FA7006F057FC9FED070A05F0BE
:100E3000FFFE4FF4E16006F04FFC01202061BDECA5
:100E4000028B01B0F0BD00BF0000B442B81E053EE9
:100E5000B0B52DED028B40F25804C2F20004A16837
:100E60000020022920624DD19FED4A8AB0EE480A47
:100E700005F0DEFE40F6980006F02EFC9FED460AD7
:100E800004F012FD40F6B83006F026FCB0EE480A39
:100E900005F0CEFE40F6980006F01EFC9FED3F0ADE
:100EA00004F002FD4FF4FA7006F016FC40F247051C
:100EB000C2F20005E87838B104F084F80A2006F0A0
:100EC0000BFCE8780028F7D104F028FF4FF4FA7003
:100ED00006F002FC9FED2F0A05F0AAFE40F69800EE
:100EE00006F0FAFB9FED2E0A04F0DEFC40F6B83067
:100EF00006F0F2FB0120206201202061BDEC028B94
:100F0000B0BD00BF9FED238AE061B0EE480AC4E99E
:100F1000040005F08DFE40F6980006F0DDFB9FED25
:100F20001E0A04F0C1FC40F6B83006F0D5FBB0EE66
:100F3000480A04F043FC40F6980006F0CDFB9FED14
:100F4000170A04F0B1FC4FF4FA7006F0C5FB40F24A
:100F50004705C2F20005E87840B100BF04F032F85E
:100F60000A2006F0B9FBE8780028F7D104F0D6FE95
:100F70004FF4FA7006F0B0FB9FED060A05F058FE3C
:100F800040F6980006F0A8FB01202061BDEC028B22
:100F9000B0BD00BF0000B4429A99193FCDCCCC3D02
:100FA000CDCC4C3FF0B581B040F258049FED560ACD
:100FB000C2F2000400262661266204F0FFFB40F620
:100FC000980006F089FB40F23F07C2F2000738782C
:100FD00040B100BF03F0F6FF0A2006F07DFB387831
:100FE0000028F7D104F09AFE4FF4FA7006F074FB73
:100FF0009FED460A04F08EFC40F6980006F06CFB6C
:101000009FED430A04F050FC40F6980006F064FBA4
:101010009FED400A05F00CFE40F2DC5006F05CFB50
:101020009FED3D0A04F040FC4FF4FA7006F054FBCB
:1010300040F24705C2F20005666100BF03F0C2FF3F
:101040003878F979084306BF0121E161E169EA785E
:101050006069002A01BF012901306061E661012851
:10106000ECDB04F05BFE4FF4FA7006F035FBA06891
:10107000022844D19FED270A05F0DAFD40F69800DA
:1010800006F02AFB9FED250A04F00EFC4FF4FA70DF
:1010900006F022FBE87838B103F094FF0A2006F04E
:1010A0001BFBE8780028F7D19FED1B0A04F0FCFB3E
:1010B0004FF4FA7006F010FBE87838B103F082FFC5
:1010C0000A2006F009FBE8780028F7D104F026FE94
:1010D0004FF4FA7006F000FB9FED0E0A05F0A8FD34
:1010E00040F6980006F0F8FA9FED0D0A04F0DCFBDC
:1010F00040F6B83006F0F0FA0120C4E908000120FB
:10110000206101B0F0BD00BF000034439A99993EC0
:1011100085EBD13E0000B442CDCCCC3D8FC2F53D35
:10112000CDCC4C3F70B540F258049FED640AC2F23A
:1011300000040020C4E90400C4E9070004F03EFBF9
:1011400040F6980006F0C8FA9FED5D0A04F0ACFB8B
:101150004FF4FA7006F0C0FA40F24705C2F20005FB
:10116000E87838B103F02EFF0A2006F0B5FAE878E7
:101170000028F7D19FED520A04F096FB4FF4FA7065
:1011800006F0AAFAE87838B103F01CFF0A2006F04E
:10119000A3FAE8780028F7D19FED4A0A04F00EFB85
:1011A00040F2DC5006F098FA40F23F06C2F2000628
:1011B000307838B103F006FF0A2006F08DFA307857
:1011C0000028F7D19FED400A04F0A4FB40F2DC5068
:1011D00006F082FA9FED3D0A04F066FB4FF4FA60D8
:1011E00006F07AFA9FED3A0A05F022FD4FF4FA6014
:1011F00006F072FA9FED320A04F056FB4FF4FA70D3
:1012000006F06AFAE87838B103F0DCFE0A2006F04E
:1012100063FAE8780028F7D104F080FD4FF4FA7003
:1012200006F05AFAA068022845D19FED2A0A05F077
:10123000FFFC40F6980006F04FFA9FED210A04F0FB
:1012400033FB4FF4FA7006F047FAE87840B100BF7C
:1012500003F0B8FE0A2006F03FFAE8780028F7D13C
:101260009FED170A04F020FB4FF4FA7006F034FAF1
:10127000E87838B103F0A6FE0A2006F02DFAE878E7
:101280000028F7D104F04AFD4FF4FA7006F024FA72
:101290009FED100A05F0CCFC40F6980006F01CFA11
:1012A0009FED0D0A04F000FB40F6B83006F014FA8A
:1012B0000120C4E908000120206170BD0000344312
:1012C000CDCCCC3D0000B6429A99993EEC51B83E47
:1012D0000000B2420000B442CDCC4C3F10B52DED21
:1012E000028B40F25804C2F20004A06800210228D8
:1012F000216133D0012839D098BB9FED438AB0EEED
:10130000480A04F041FB40F2DC5006F0E5F99FED9D
:101310003F0A04F0C9FA40F2DC5006F0DDF9622021
:1013200004F044FF4FF4486006F0D6F904F0D2FC14
:1013300004F0A2FB04F03EFC40F6C41006F0CCF929
:1013400005F056FC40F2DC5006F0C6F9B0EE480A53
:1013500004F0E0FA412004F029FF3BE00120C4E959
:10136000021001202061BDEC028B10BD9FED238A8D
:10137000B0EE480A04F008FB40F6980006F0ACF91D
:101380009FED1F0A04F090FA40F2DC5006F0A4F939
:10139000202004F00BFF4FF4486006F09DF904F0A4
:1013A00099FC04F069FB04F005FC40F6C41006F05B
:1013B00093F905F01DFC40F2DC5006F08DF9412058
:1013C00004F0F4FE40F2DC5006F086F9B0EE480A74
:1013D00004F0A0FA40F6980006F07EF99FED090AA5
:1013E00004F0ECF940F6980006F076F9A0680130B8
:1013F000A06001202061BDEC028B10BD0AD7A33E86
:1014000085EBD13E00003443E17A943EE17AD43E4C
:1014100010B52DED028B40F25804C2F20004A06812
:1014200000210228216117D001281DD0B8B99FEDF5
:10143000328AB0EE480A04F0A7FA40F2DC5006F017
:101440004BF99FED300A04F02FFA40F2DC5006F021
:1014500043F95D201BE000BF0120C4E90210012018
:101460002061BDEC028B10BD9FED238AB0EE480ACF
:1014700004F08AFA40F6980006F02EF99FED1F0A54
:1014800004F012FA40F2DC5006F026F9232004F0B2
:101490008DFE4FF4486006F01FF904F01BFC04F0C9
:1014A000EBFA04F087FB40F6C41006F015F905F0DE
:1014B0009FFB40F2DC5006F00FF9412004F076FE6D
:1014C00040F2DC5006F008F9B0EE480A04F022FAC7
:1014D00040F6980006F000F99FED090A04F06EF955
:1014E00040F6980006F0F8F8A0680130A0600120EE
:1014F0002061BDEC028B10BD713D8A3EAE47E13DDF
:1015000000003443B81E053E10B52DED028B40F2AD
:101510005804C2F20004A06800210228216117D0FB
:1015200001281DD0B8B9B5EE008AB0EE480A04F023
:101530002BFA40F2DC5006F0CFF89FED2E0A04F0B3
:10154000B3F940F2DC5006F0C7F85F201BE000BFA3
:101550000120C4E9021001202061BDEC028B10BD06
:101560009FED238AB0EE480A04F00EFA40F6980088
:1015700006F0B2F89FED1F0A04F096F940F2DC5035
:1015800006F0AAF8232004F011FE4FF4486006F09C
:10159000A3F804F09FFB04F06FFA04F00BFB40F695
:1015A000C41006F099F805F023FB40F2DC5006F079
:1015B00093F8412004F0FAFD40F2DC5006F08CF87C
:1015C000B0EE480A04F0A6F940F6980006F084F858
:1015D0009FED090A04F0F2F840F6980006F07CF856
:1015E000A0680130A06001202061BDEC028B10BD1D
:1015F000C3F5A83EB81E053E0000344310B540F2C6
:101600005804C2F20004A0680021022821612DD0F4
:10161000012837D090BB9FED350A04F045F94FF40F
:10162000FA6006F059F8622004F0C0FD40F2DC5088
:1016300006F052F804F04EFB04F01EFA04F0BAFA79
:1016400040F6C41006F048F805F0D2FA40F2DC503B
:1016500006F042F89FED260A04F0F0F84FF4FA7015
:1016600006F03AF8412004F0A1FD35E004F0FAF963
:1016700004F03AFB40F2DC5006F02EF80120206125
:1016800010BD00BF9FED190A04F00EF94FF4FA6087
:1016900006F022F8202004F089FD40F2DC5006F02C
:1016A0001BF804F017FB04F0E7F904F083FA40F6A6
:1016B000C41006F011F805F09BFA40F2DC5006F079
:1016C0000BF8412004F072FD4FF4FA7006F004F8B4
:1016D0009FED070A04F0B2F84FF4FA6005F0FCFF42
:1016E000A0680130A0600120206110BD295CCF3EC0
:1016F0006666E63E10B540F25804C2F20004A068E7
:1017000000210228216131D001283BD0B0BB9FEDE0
:10171000370A04F0C9F840F2DC5005F0DDFF4FF461
:10172000FA7005F0D9FF622004F040FD4FF44860E4
:1017300005F0D2FF04F0CEFA04F09EF904F03AFA74
:1017400040F6C41005F0C8FF05F052FA40F2DC5034
:1017500005F0C2FF9FED260A04F070F84FF4FA700E
:1017600005F0BAFF412004F021FD35E004F07AF9DC
:1017700004F0BAFA40F2DC5005F0AEFF012020611F
:1017800010BD00BF9FED190A04F08EF840F2DC5046
:1017900005F0A2FF4FF4FA7005F09EFF202004F040
:1017A00005FD4FF4486005F097FF04F093FA04F04C
:1017B00063F904F0FFF940F6C41005F08DFF05F061
:1017C00017FA40F2DC5005F087FF412004F0EEFCF0
:1017D0009FED070A04F032F84FF4FA6005F07CFF41
:1017E000A0680130A0600120206110BD85EBD13ED2
:1017F0006666E63E10B540F25804C2F20004A068E6
:101800000021022821612DD0012837D090BB9FED07
:10181000350A04F049F84FF4FA6005F05DFF5F20E7
:1018200004F0C4FC4FF4486005F056FF04F052FA8F
:1018300004F022F904F0BEF940F6C41005F04CFFA4
:1018400005F0D6F940F2DC5005F046FF9FED260A80
:1018500003F0F4FF4FF4FA7005F03EFF412004F06E
:10186000A5FC35E004F0FEF804F03EFA40F2DC504E
:1018700005F032FF0120206110BD00BF9FED190A65
:1018800004F012F84FF4FA6005F026FF202004F06F
:101890008DFC4FF4486005F01FFF04F01BFA04F0C4
:1018A000EBF804F087F940F6C41005F015FF05F0D9
:1018B0009FF940F2DC5005F00FFF412004F076FC68
:1018C0004FF4FA7005F008FF9FED070A03F0B6FF2A
:1018D00040F2DC5005F000FFA0680130A06001205C
:1018E000206110BD295CCF3E6666E63E10B52DED49
:1018F000048B40F25804C2F20004A06800210228C0
:1019000021613DD0012849D0002841D19FED4F8A67
:10191000B0EE480A03F0FEFF40F6980005F0DCFE4A
:101920009FED4B9AB0EE490A03F0BEFF40F69800D7
:1019300005F0D2FE5F2004F039FC40F2DC5005F0E7
:10194000CBFE04F0C7F904F097F804F033F940F641
:10195000980005F0C1FE05F04BF940F2DC5005F0AF
:10196000BBFEB0EE490A03F069FF40F6980005F0AF
:10197000B3FE412004F01AFC4FF4FA7046E000BFB9
:1019800004F070F804F0B0F940F2DC5005F0A4FE69
:1019900001202061BDEC048B10BD00BF9FED288AA3
:1019A000B0EE480A03F0B6FF40F6980005F094FE4A
:1019B0009FED249AB0EE490A03F076FF40F69800B6
:1019C00005F08AFE202004F0F1FB40F2DC5005F027
:1019D00083FE04F07FF904F04FF804F0EBF840F6D2
:1019E000980005F079FE05F003F940F2DC5005F0AF
:1019F00073FE412004F0DAFB40F2DC5005F06CFE8F
:101A0000B0EE490A03F01AFF40F6980005F064FEB4
:101A1000B0EE480A03F0B8FF40F6980005F05CFE0F
:101A20009FED090A03F0CAFE40F6980005F054FE47
:101A3000A0680130A06001202061BDEC048B10BDC6
:101A40009A99993E295CCF3E0000344352B89E3E9D
:101A500085EBD13E10B52DED048B40F25804C2F257
:101A60000004A0680021022821613DD0012849D04E
:101A7000002841D19FED4F8AB0EE480A03F04AFF9B
:101A800040F6980005F028FE9FED489AB0EE490A0E
:101A900003F00AFF40F6980005F01EFE5D2004F0FA
:101AA00085FB40F2DC5005F017FE04F013F903F05B
:101AB000E3FF04F07FF840F6980005F00DFE05F016
:101AC00097F840F2DC5005F007FEB0EE490A03F04B
:101AD000B5FE40F6980005F0FFFD412004F066FBDE
:101AE0004FF4FA7046E000BF03F0BCFF04F0FCF8CE
:101AF0004FF4FA7005F0F0FD01202061BDEC048B7D
:101B000010BD00BF9FED288AB0EE480A03F002FF27
:101B100040F6980005F0E0FD9FED249AB0EE490AEA
:101B200003F0C2FE40F6980005F0D6FD232004F035
:101B30003DFB40F2DC5005F0CFFD04F0CBF803F0A4
:101B40009BFF04F037F840F6980005F0C5FD05F05E
:101B50004FF840F2DC5005F0BFFD412004F026FBB9
:101B60004FF4FA7005F0B8FDB0EE490A03F066FED6
:101B700040F6980005F0B0FDB0EE480A03F004FF0F
:101B800040F6980005F0A8FD9FED090A03F016FE47
:101B900040F6980005F0A0FDA0680130A06001208B
:101BA0002061BDEC048B10BD9A99993E85EBD13E26
:101BB0000000344352B89E3E10B52DED048B40F228
:101BC0005804C2F20004A0680021022821613DD01F
:101BD000012849D0002841D19FED4F8AB0EE480A34
:101BE00003F098FE40F6980005F076FD9FED489AC8
:101BF000B0EE490A03F058FE40F6980005F06CFD7F
:101C00005D2004F0D3FA40F2DC5005F065FD04F0ED
:101C100061F803F031FF03F0CDFF40F6980005F0C6
:101C20005BFD04F0E5FF40F2DC5005F055FDB0EE41
:101C3000490A03F003FE40F2DC5005F04DFD41205F
:101C400004F0B4FA4FF4FA7046E000BF03F00AFF64
:101C500004F04AF84FF4FA7005F03EFD01202061CF
:101C6000BDEC048B10BD00BF9FED288AB0EE480A82
:101C700003F050FE40F6980005F02EFD9FED249AEB
:101C8000B0EE490A03F010FE40F6980005F024FD7E
:101C9000232004F08BFA40F2DC5005F01DFD04F027
:101CA00019F803F0E9FE03F085FF40F6980005F00F
:101CB00013FD04F09DFF40F2DC5005F00DFD4120C6
:101CC00004F074FA40F2DC5005F006FDB0EE490A6B
:101CD00003F0B4FD40F6980005F0FEFCB0EE480AB3
:101CE00003F052FE40F6980005F0F6FC9FED090A5D
:101CF00003F064FD40F6980005F0EEFCA0680130AA
:101D0000A06001202061BDEC048B10BD9A99993E22
:101D100085EBD13E0000344352B89E3EB0B540F250
:101D20005804C2F200040020E061C4E904004FF44A
:101D30007A7005F0D1FC40F24705C2F20005E87860
:101D400040B100BF03F03EF90A2005F0C5FCE87879
:101D50000028F7D19FED0D0A03F0A6FD4FF4FA70AD
:101D600005F0BAFCE87838B103F02CF90A2005F048
:101D7000B3FCE8780028F7D103F0D0FF4FF4FA70F5
:101D800005F0AAFC01202061B0BD00BFCDCCCC3D48
:101D9000FEE7000010B52DED028B40F258049FEDD8
:101DA000200AC2F200040020206103F07DFD40F211
:101DB000DC5005F091FC9FED1B8AB0EE480A03F061
:101DC000E3FD40F6B83005F087FC40F23800C2F27F
:101DD00000000078606003F07DFF03F04DFE03F02B
:101DE000E9FE4FF4FA7005F077FC04F001FF4FF4C0
:101DF000FA6005F071FCB0EE480A03F08BFD40F28A
:101E0000DC5005F069FC9FED080A03F0D7FC4FF4A5
:101E1000486005F061FC01202061BDEC028B10BD23
:101E20003D0A573E9A99993E0000344310B540F25E
:101E300058049FED170AC2F2000400202061A06040
:101E400003F032FD4FF4FA6005F046FC40F2380032
:101E5000C2F200000078606003F03CFF03F00CFE6B
:101E600003F0A8FE40F6980005F036FC04F0C0FE32
:101E700040F2DC5005F030FCB5EE000A03F0DEFC69
:101E800040F2DC5005F028FC0120206110BD00BFAD
:101E900014AE473E10B52DED048B9FED298A40F21C
:101EA0005804C2F200040020B0EE480A2061A0608D
:101EB00003F0FAFC40F6980005F00EFC9FED219A25
:101EC000B0EE490A03F026FD40F6980005F004FC48
:101ED00040F23800C2F200000078606003F0FAFEC1
:101EE00003F0CAFD40F2DC5005F0F6FB03F062FEA1
:101EF00040F6C41005F0F0FB04F07AFE40F2DC502E
:101F000005F0EAFBB0EE490A03F03EFD40F698000A
:101F100005F0E2FBB0EE480A03F090FC40F69800B2
:101F200005F0DAFB9FED080A03F048FC40F6980044
:101F300005F0D2FB01202061BDEC048B10BD00BF79
:101F4000AE47613E52B89E3E0000344340F2580016
:101F5000C2F2000000690138B0FA80F04009704711
:101F600040F25800C2F200000169406881F00101AE
:101F700080F003000843B0FA80F040097047000089
:101F800040F25800C2F20000D0E9030181F00101E3
:101F90000843B0FA80F040097047000040F2580052
:101FA000C2F200000169406881F0010180F0010087
:101FB0000843B0FA80F040097047000040F2580032
:101FC000C2F200000169406881F0010180F0020066
:101FD0000843B0FA80F040097047000040F2580012
:101FE000C2F20000D0E9030181F0010180F001009C
:101FF0000843B0FA80F040097047000040F25800F2
:10200000C2F200000169006A81F001010843B0FAE0
:1020100080F040097047000040F25800C2F2000012
:102020000169006A81F0010180F001000843B0FA03
:1020300080F040097047000040F25800C2F20000F2
:102040000169406A81F001010843B0FA80F040095B
:102050007047000040F25800C2F20000406A0138A8
:10206000B0FA80F04009704770470000B0B540F208
:102070005805C2F200050020E861C5E90400A8681F
:10208000B5EE000A40F2DC549FED211A0028C8BFCB
:10209000B0EE410AC8BF40F6980403F005FC2046A4
:1020A00005F01AFB03F03AFE4FF4FA7005F014FB4A
:1020B0009FED180A04F0BCFD40F6980005F00CFBFB
:1020C00040F23F04C2F20004E07938B102F07AFF36
:1020D0000A2005F001FBE0790028F7D103F01EFE8D
:1020E0004FF4FA7005F0F8FA9FED0B0A03F0DCFBF1
:1020F00040F6980005F0F0FA9FED080A03F044FC62
:102100004FF4486005F0E8FA01202861B0BD00BF37
:10211000F628DC3E0000B442B81E053E9A99193FED
:10212000F0B581B040F2580440F23F0540F2470656
:10213000C2F200040027C2F20005C2F20006E76105
:10214000C4E904770CE000BF0121E161F278606925
:10215000002A01BF012901306061E76102280BDA22
:1021600002F030FFA879E9790843EDD02878697842
:102170000843E9D0E169E9E703F0D0FD4FF4FA70D4
:1021800005F0AAFA9FED190A03F0C4FB40F2DC50F7
:1021900005F0A2FA002767610CE000BF0121E161B0
:1021A000F2786069002A01BF012901306061E761AE
:1021B000022809DA02F006FFE8790028EED0287834
:1021C0000028EBD0E169EBE703F0A8FD4FF4FA70CB
:1021D00005F082FA9FED060A04F02AFD40F2DC5079
:1021E00005F07AFA0120206101B0F0BD9A99993E7C
:1021F0000000B442F0B581B02DED028B40F25804DE
:1022000040F23F0540F24706C2F200040027C2F246
:102210000005C2F20006E761C4E904770CE000BFE4
:102220000121E161F2786069002A01BF01290130D2
:102230006061E76102280BDA02F0C4FEA879E9794F
:102240000843EDD0287869780843E9D0E169E9E7E7
:1022500003F064FD4FF4FA7005F03EFA9FED390A81
:1022600003F058FB40F2DC5005F036FA00276761B6
:102270000CE000BF0121E161F2786069002A01BF32
:10228000012901306061E761032811DA02F09AFE4A
:10229000687920B9A87910B9E8790028EAD02878B7
:1022A00020B9687810B9A8780028E3D0E169E3E79D
:1022B00003F034FD4FF4FA7005F00EFA9FED228A18
:1022C0000020606106E000BF0A2005F005FA6069A1
:1022D000022811DA02F076FE287869780843F3D1F3
:1022E000B0EE480A03F0E0FA6069013060614FF433
:1022F0002F7005F0F1F9E7E703F010FD4FF47A7065
:1023000005F0EAF99FED118AB0EE480A04F090FC5E
:1023100040F6980005F0E0F99FED0D0A03F0C4FACD
:1023200040F6B83005F0D8F9B0EE480A04F080FC69
:1023300040F6980005F0D0F901202061BDEC028B39
:1023400001B0F0BD9A99993EB81E053E0000B44216
:10235000AE47613FF0B581B040F258049FED290AC5
:10236000C2F200040025E561C4E9045503F026FA31
:1023700040F6980005F0B0F9606900281ADD03F016
:10238000CDFC4FF4FA7005F0A7F99FED1F0A03F09A
:102390008BFA4FF4FA7005F09FF99FED1C0A04F0D8
:1023A00047FC40F2DC5005F097F90120206101B0B4
:1023B000F0BD00BF40F23F0640F24707C2F2000600
:1023C000C2F200070CE000BF0121E161FA78606908
:1023D000002A01BF012901306061E5610128CEDAE0
:1023E00002F0F0FD707920B9B07910B9F0790028C9
:1023F000EAD0307820B9707810B9B0780028E3D0EE
:10240000E169E3E700003443B81E053E0000B44232
:10241000F0B581B040F258049FED3C0AC2F20004CE
:102420000025E561C4E9045503F074FA40F6AC50A8
:1024300005F052F99FED360A03F0C0F940F6980016
:1024400005F04AF9606940F23F0640F2470700286C
:10245000C2F20006C2F200073ADD03F05FFC4FF45F
:10246000FA7005F039F99FED2B0A03F053FA40F6A4
:10247000980005F031F965610CE000BF0121E161D0
:10248000FA786069002A01BF012901306061E561C5
:10249000022829DA02F096FD707920B9B07910B9D6
:1024A000F0790028EAD0307820B9707810B9B07887
:1024B0000028E3D0E169E3E70121E161FA7860698E
:1024C000002A01BF012901306061E5610128C4DAF9
:1024D00002F078FDB079F1790843EDD03078717869
:1024E0000843E9D0E169E9E703F018FC4FF4FA701A
:1024F00005F0F2F89FED080A04F09AFB40F2DC5078
:1025000005F0EAF80120206101B0F0BD6666663F83
:10251000000034439A99993E0000B442F0B581B06E
:102520002DED028B40F258049FED520AC2F20004D6
:102530000026E661C4E9046603F0ECF940F6AC500D
:1025400005F0CAF89FED4C0A03F038F940F6980000
:1025500005F0C2F8606940F23F0540F247070028E5
:10256000C2F20005C2F2000734DD03F0D7FB4FF4DE
:10257000FA7005F0B1F89FED410A03F0CBF940F68F
:10258000980005F0A9F866610CE000BF0121E16147
:10259000FA786069002A01BF012901306061E661B3
:1025A000032823DA02F00EFDA879E9790843EDD07B
:1025B000287869780843E9D0E169E9E70121E16118
:1025C000FA786069002A01BF012901306061E66183
:1025D0000128CADA02F0F6FCA879E9790843EDD0BF
:1025E000287869780843E9D0E169E9E7C82005F06F
:1025F00073F89FED238A0020A0610CE0B0EE480A3A
:1026000003F052F94FF4FA7005F066F8A069013052
:10261000A061022808DA02F0D5FC2878697808431E
:10262000ECD0A0690228F6DB03F078FB4FF47A7057
:1026300005F052F89FED138AB0EE480A04F0F8FA5C
:102640004FF4FA6005F048F89FED0F0A03F02CF9FB
:1026500040F6B83005F040F8B0EE480A04F0E8FA69
:102660004FF4FA6005F038F801202061BDEC028BD0
:1026700001B0F0BD6666663F000034439A99993E0A
:10268000B81E053E0000B442AE47613FB0B540F20F
:1026900058049FED2B0AC2F200040020E061C4E957
:1026A000040003F08BF840F6980005F015F89FED54
:1026B000250A03F0F9F84FF4FA7005F00DF840F22E
:1026C0004705C2F20005E87840B100BF02F07AFC8D
:1026D0000A2005F001F8E8780028F7D103F01EFB86
:1026E0004FF4FA7004F0F8FF9FED150A04F0A0FA19
:1026F00040F6980004F0F0FF9FED120A03F0D4F8C2
:102700004FF4FA7004F0E8FFE87838B102F05AFCB0
:102710000A2004F0E1FFE8780028F7D103F0FEFA80
:102720004FF4FA7004F0D8FF9FED050A04F080FA28
:1027300040F6980004F0D0FF01202061B0BD00BF3A
:102740000000B442CDCCCC3DB0B52DED028B40F2B3
:1027500058049FED2D0AC2F200040020E061C4E994
:10276000040003F0A1F84FF4FA7004F0B5FF40F252
:102770004705C2F20005E87840B100BF02F022FC34
:102780000A2004F0A9FFE8780028F7D103F0C6FA80
:102790004FF4FA7004F0A0FF9FED1C8AB0EE480AD7
:1027A00003F0F2F840F6980004F096FFB0EE480A05
:1027B00003F07AF840F6980004F08EFF9FED140ABB
:1027C00002F0FCFF40F6980004F086FF9FED0E0A31
:1027D00003F06AF84FF4FA7004F07EFFE87838B13D
:1027E00002F0F0FB0A2004F077FFE8780028F7D128
:1027F00003F094FA4FF4FA7004F06EFF01202061A8
:10280000BDEC028BB0BD00BFCDCCCC3D9A99993EBA
:102810000000B442B0B540F258049FED340AC2F251
:1028200000040020E061C4E9040003F03DF84FF427
:10283000FA7004F051FF40F24705C2F20005E87853
:1028400040B100BF02F0BEFB0A2004F045FFE8786B
:102850000028F7D103F062FA4FF4FA7004F03CFF5D
:102860009FED220A03F020F84FF4FA7004F034FFD1
:10287000E87838B102F0A6FB0A2004F02DFFE878D2
:102880000028F7D103F04AFA4FF4FA7004F024FF5D
:102890009FED170A03F078F840F6B83004F01CFFFB
:1028A00040F23F05C2F20005287838B102F08AFBF9
:1028B0000A2004F011FF28780028F7D103F02EFA3F
:1028C0004FF4FA7004F008FF9FED080A02F0ECFFE5
:1028D0004FF4FA7004F000FF03F020FA4FF4FA709E
:1028E00004F0FAFE01202061B0BD00BFCDCCCC3D8C
:1028F0009A99193FB0B52DED028B40F25805C2F2FE
:102900000005A86800210228296111D0012817D0EC
:1029100000283ED19FED218AB0EE480A02F0C4FFA4
:1029200040F2DC5040F2DC5404F0D6FE5A2014E0B1
:1029300003F098F803F0D8F94FF4FA7426E000BFDA
:102940009FED168AB0EE480A02F0AEFF40F2DC506E
:1029500040F2DC5404F0C0FE1E2003F027FC4FF4CC
:10296000FA7004F0B9FE03F07DF803F0BDF94FF4FE
:10297000FA7004F0B1FE412003F018FC40F2DC5084
:1029800004F0AAFEB0EE480A02F058FF204604F018
:10299000A3FE01202861BDEC028BB0BD9A99193EBF
:1029A000B0B52DED028B40F25805C2F20005A868C3
:1029B00000210228296111D0012817D000283ED11A
:1029C0009FED218AB0EE480A02F06EFF40F2DC5023
:1029D00040F2DC5404F080FE5F2014E003F042F883
:1029E00003F082F94FF4FA7426E000BF9FED168AD7
:1029F000B0EE480A02F058FF40F2DC5040F2DC54DE
:102A000004F06AFE0F2003F0D1FB40F2DC5004F02A
:102A100063FE03F027F803F067F94FF4FA7004F04F
:102A20005BFE412003F0C2FB40F2DC5004F054FE98
:102A3000B0EE480A02F002FF204604F04DFE0120ED
:102A40002861BDEC028BB0BD9A99193EB0B52DED51
:102A5000028B40F25805C2F20005A8680021022846
:102A6000296111D0012817D000283ED19FED218A7D
:102A7000B0EE480A02F018FF40F2DC5040F2DC549D
:102A800004F02AFE7D2014E002F0ECFF03F02CF9A4
:102A90004FF4FA7426E000BF9FED168AB0EE480AA4
:102AA00002F002FF40F2DC5040F2DC5404F014FE6D
:102AB000232003F07BFB40F2DC5004F00DFE02F01B
:102AC000D1FF03F011F94FF4FA7004F005FE412034
:102AD00003F06CFB40F2DC5004F0FEFDB0EE480A5F
:102AE00002F0ACFE204604F0F7FD01202861BDECA9
:102AF000028BB0BD9A99193EB0B52DED028B40F214
:102B00005805C2F20005A86800210228296111D0E9
:102B1000012817D000283ED19FED218AB0EE480A47
:102B200002F0C2FE40F2DC5040F2DC5404F0D4FD6E
:102B3000782014E002F096FF03F0D6F84FF4FA7410
:102B400026E000BF9FED168AB0EE480A02F0ACFE08
:102B500040F2DC5040F2DC5404F0BEFD232003F0D0
:102B600025FB40F2DC5004F0B7FD02F07BFF03F0E0
:102B7000BBF84FF4FA7004F0AFFD412003F016FBF0
:102B800040F2DC5004F0A8FDB0EE480A02F056FE18
:102B9000204604F0A1FD01202861BDEC028BB0BDF0
:102BA000CDCCCC3DB0B52DED028B40F25805C2F234
:102BB0000005A8680021022829611DD0012823D022
:102BC00000284AD19FED278AB0EE480A02F06CFE39
:102BD00040F2DC5040F2DC5404F07EFD6E2003F045
:102BE000E5FA40F2DC5004F077FD02F03BFF03F021
:102BF0007BF84FF47A7020E002F034FF03F074F8B1
:102C00004FF47A7426E000BF9FED168AB0EE480AB2
:102C100002F04AFE40F2DC5040F2DC5404F05CFD6D
:102C2000232003F0C3FA40F2DC5004F055FD02F01B
:102C300019FF03F059F84FF4FA7004F04DFD4120EC
:102C400003F0B4FA4FF4FA7004F046FDB0EE480A0F
:102C500002F0F4FD204604F03FFD01202861BDECA8
:102C6000028BB0BD9A99193EB0B52DED028B40F2A2
:102C70005805C2F20005A86800210228296111D078
:102C8000012817D000283ED19FED218AB0EE480AD6
:102C900002F00AFE40F2DC5040F2DC5404F01CFD6D
:102CA0006E2014E002F0DEFE03F01EF84FF47A749A
:102CB00026E000BF9FED168AB0EE480A02F0F4FD50
:102CC00040F2DC5040F2DC5404F006FD232003F017
:102CD0006DFA40F2DC5004F0FFFC02F0C3FE03F09A
:102CE00003F84FF4FA7004F0F7FC412003F05EFAA9
:102CF00040F2DC5004F0F0FCB0EE480A02F09EFD19
:102D0000204604F0E9FC01202861BDEC028BB0BD37
:102D10009A99193E10B52DED028B40F25804C2F27B
:102D20000004A0680021022821610FD0012813D0DF
:102D3000D0BB9FED208AB0EE480A02F0B5FD40F20C
:102D4000DC5004F0C9FC7D2011E000BF02F08AFED7
:102D500002F0CAFF24E000BF9FED168AB0EE480AD9
:102D600002F0A2FD40F2DC5004F0B6FC232003F098
:102D70001DFA40F2DC5004F0AFFC02F073FE02F0EA
:102D8000B3FF4FF4FA7004F0A7FC412003F00EFAF1
:102D90004FF47A7004F0A0FCB0EE480A02F04EFD49
:102DA00040F2DC5004F098FC01202061BDEC028B65
:102DB00010BD00BF9A99193EB0B52DED028B40F2BF
:102DC0005805C2F20005A86800210228296111D027
:102DD000012817D000283ED19FED218AB0EE480A85
:102DE00002F062FD40F2DC5040F2DC5404F074FC6E
:102DF0007D2014E002F036FE02F076FF4FF47A7484
:102E000026E000BF9FED168AB0EE480A02F04CFDA6
:102E100040F2DC5040F2DC5404F05EFC1E2003F073
:102E2000C5F940F2DC5004F057FC02F01BFE02F042
:102E30005BFF4FF4FA7004F04FFC412003F0B6F949
:102E40004FF47A7004F048FCB0EE480A02F0F6FC49
:102E5000204604F041FC01202861BDEC028BB0BD8E
:102E6000EC51B83D10B52DED028B40F25804C2F282
:102E70000004A0680021022821610FD001281DD084
:102E8000B0B99FED258AB0EE480A02F00DFD40F280
:102E9000DC5004F021FC64201BE000BF02F0E2FDE6
:102EA00002F022FF4FF47A7004F016FC01206062F9
:102EB00001202061BDEC028B10BD00BF9FED168A82
:102EC000B0EE480A02F0F0FC40F2DC5004F004FCE2
:102ED000232003F06BF940F2DC5004F0FDFB02F01C
:102EE000C1FD02F001FF4FF4FA7004F0F5FB412040
:102EF00003F05CF94FF47A7004F0EEFBB0EE480A90
:102F000002F09CFC40F2DC5004F0E6FB0120206162
:102F1000BDEC028B10BD00BF9A99193E72B600BF7E
:102F2000FEE70000F0B540F23F00C2F20000027878
:102F3000437890F802E082F0010183F00107394301
:102F40008EF0010751EA070C14D10121C1700179FB
:102F50009FED491A01294FF000012AD14479012C33
:102F600027D18479012C24D1C479012C21D19FED62
:102F7000430AF0BDB9EE000A9FED3F1A002A4FF058
:102F8000010108BFB0EE401AB8EE040A08BF0221E2
:102F9000002BB2FA82F431EE000A0CBFB0EE401AF8
:102FA0006109BEF1000F04D1BFEE000A31EE001A34
:102FB0000131BEEE000AC77831EE000A0479457986
:102FC0008679002F04BFB0EE401A0131B6EE000A38
:102FD00031EE000A002C04BFB0EE401A0131B7EE0A
:102FE000000A1A4331EE000A42EA0E02002D04BF25
:102FF000B0EE401A0131B0EE040A3A4331EE000A55
:10300000002E04BFB0EE401A0131C079B1EE002AA3
:1030100042EA040331EE020A2B43002804BFB0EE5B
:10302000401A013133439FED150A034322D0002A91
:1030300008BF012D1AD044EA050333431843BCFAF4
:103040008CF2B0FA80F052094009024218BFF0BD7C
:1030500000EE101AB8EEC00A81EE000AB6EE0C1AA5
:1030600030EE020A20EE010AF0BD00BF012EE2D1CF
:103070000128E0D1F0BD00BF0000000033337340F1
:10308000B0B5044600F0E6F8054640F20800C2F28A
:1030900000000078611C18BF044400BF00F0DAF89B
:1030A000401BA042FAD3B0BD2DE9F04F82B000F131
:1030B0003E4707F1FF77860546EA972741F6004627
:1030C000C4F20206082243F6004EB04208BF0722AF
:1030D000C4F2010E072F38BF3A46002600274FF0F2
:1030E0000008009209E000BF08F101080237B8F1BA
:1030F000100F06F1040600F0A3800D68012202FA09
:1031000008F415EA0409EFD0D1F804B003220BF05B
:10311000030CACF10105BA40012D6FEA020A0FD889
:103120008268CD6802EA0A02BD402A438260426892
:10313000A243CBF3001404FA08F42243426005E0F2
:10314000BCF1030F02D14FF0030C1EE0C2688C6883
:1031500002EA0A02BC402243BCF1020FC26014D151
:103160006FF0030202EA58020244D2F820C006F0CF
:103170001C040F230D69A3402CEA0303A5402B4335
:103180001362D1F804B00BF0030C02680CFA07F3D9
:1031900002EA0A021A431BF4403F0260A4D0002254
:1031A00043F644030192C4F202031A684FF6084C36
:1031B00042F480421A601A68CFF6FF7C02F4804223
:1031C0000192019A28F00302724452F80C3006F082
:1031D0000C050F24AC40A343009C04FA05F52B43D7
:1031E00042F80C30DEF808204B6842EA090543F645
:1031F0000C4CDC0258BF22EA0905CEF80850C4F294
:10320000010CDCF800209C0242EA090558BF22EAC2
:103210000905CCF80050DEF804209C0342EA0905B9
:1032200058BF22EA0905CEF80450DEF80020DB037F
:1032300042EA090558BF22EA0905CEF8005053E7D3
:1032400002B0BDE8F08F0000002A08BF09048161C8
:103250007047000044F27C20C2F200000068704712
:10326000002804BF01207047F0B581B0044690F8F3
:103270003D0028B9002084F83C00204600F0CEF93B
:10328000242084F83D002068016821F001010160DC
:10329000016841F400410160016821F400410160CE
:1032A00000F0D4FB636848F2A16CC0F2010C40F658
:1032B0000011C0F23D0163453CBF48F28041C0F2BD
:1032C0001E01884202D2012001B0F0BD4DF683619B
:1032D000C4F21B31A0FB01122168970CD1F804E065
:1032E0004FF496762EF03F0545EA92454D607743C0
:1032F00048F638160D6AC0F24106A7FB067625F09F
:103300003F07634538BF960C721C3A430A62CA698C
:1033100048F2A0664CF6FF77C0F20106B34222EAFB
:1033200007020BD801385B00B0FBF3F001306FF3FC
:103330001F30042898BF04201BE000BFA768013895
:1033400057B119277B43B0FBF3F001306FF31F3007
:1033500070B100F5804007E003EB4303B0FBF3F0EE
:1033600001306FF31F3018B100F5004001E000BFDD
:1033700001201043C8610868D4E9072320F0C00089
:10338000104318430860886848F2FF3204F10C07C4
:1033900090438CCF18431043A6698860C86820F01A
:1033A000FF0038433043C860086840F001000860FF
:1033B00000202021206484F83D10206384F83E0022
:1033C00001B0F0BD2DE9F04784B0994616460F468E
:1033D0000446FFF73FFF94F83D10202927D105460A
:1033E000206800BF816989071CD5FFF733FF411BA7
:1033F00020681A29F6D381698907F3D50020202196
:10340000206384F83D1084F83E00206C04F13C0AEF
:1034100040F020002064022000218AF8001004B04F
:10342000BDE8F087A2461AF83C1F012904D102200A
:1034300004B0BDE8F08700BF01228AF800200368CD
:10344000DDE90D180C9ADB0703D1036843F0010393
:103450000360036823F400630360222084F83D00C6
:10346000402084F83E000020206462626185608D07
:10347000394620850020CFF6FF70E06220463246B4
:103480004B46CDE9008501F01BFB18B1012004B0CB
:10349000BDE8F087208DA8B102282BD0012835D1B6
:1034A00021680A6822F480620A60002203924A6955
:1034B00003928A690392039A0A6842F400720A60CE
:1034C0002CE000BF002003902068416903918169CE
:1034D00003910399016841F400710160202084F890
:1034E0003D00002084F83E0000218AF8001004B05E
:1034F000BDE8F08721680A6822F480620A600A68E1
:1035000042F400620A600022039202E0002103916B
:1035100021684A6903928969039103990427C0F2DB
:1035200001070CE010690870606A218D013060624B
:10353000481E2085618D013961850104CED080B29D
:1035400003280FD802284AD001282DD12046414611
:103550002A4601F091FC002898D12068616A006930
:10356000E1E700BF204641462A4601F085FC0028DD
:103570007FF48CAF2068616A00690870606A226815
:10358000411C208D616201382085638D013B63857C
:1035900053695B07D1D580B20328C3D1106820F4EA
:1035A00080601060BEE700BF2046394600224346D7
:1035B000009501F00FFB00287FF468AF2068616A76
:1035C000026822F48062026000690870606A218DDE
:1035D00001306062481E2085608D0138608520467C
:1035E000394600224346009501F0F4FA00287FF4A2
:1035F0004DAF2068616A026842F40072026000699F
:103600000870606A2268411C6162218D0139218540
:10361000618D013961851169417085E72DE9F047B8
:1036200086B0006845F60041C4F2000100268842D9
:10363000CDE90466CDE9026601962FD045F600017A
:10364000C4F2000188426ED1002543F63004009593
:10365000C4F20204206801A940F002002060206842
:1036600000F00200009000984FF44060019012209A
:10367000CDE9020503200490042005900020C4F247
:10368000020000F58060FFF70FFD0095206940F40F
:1036900080002061206900F4800042E043F630079A
:1036A0000096C4F202073868002440F00400386035
:1036B0003868C4F2020400F00400009000980096FC
:1036C000386801AD40F00100386038684FF01208EA
:1036D00000F00100009000984FF4007001904FF04E
:1036E00003094FF0040A04F500602946CDE902867B
:1036F000CDF81090CDF814A0FFF7D6FC4FF48070F1
:10370000CDE9010803A880E8400620462946FFF7D6
:10371000CBFC0096386940F400003861386900F449
:1037200000000090009806B0BDE8F08740F2080065
:1037300044F27C21C2F20000C2F2000100780A6863
:10374000104408607047000080B543F60040C4F2A2
:103750000200016841F400710160016841F4806178
:103760000160016841F480710160032000F0ACF851
:103770000F2000F005F800F027F8002080BD0000C1
:1037800070B540F20806C2F2000640F21401327829
:10379000C2F200014FF47A730968B3FBF2F20446F7
:1037A000B1FBF2F1084600F087FB0F2C4FF001054A
:1037B00008D838B94FF0FF3021460022002500F02C
:1037C00057F87460284670BD80B582B0002043F67B
:1037D00040010190C4F202014A6842F480424A600A
:1037E0004A6802F480420192019A0090086800221F
:1037F00040F0805008600868012100F0805000907F
:1038000000986FF00B0000F033F86FF00A00012110
:10381000002200F02DF86FF009000121002200F0D5
:1038200027F86FF004000121002200F021F86FF06A
:1038300003000121002200F01BF86FF001000F21AE
:10384000002202B0BDE8804000F012B8002848BF56
:10385000704700F01F01012202FA01F11C2202EA66
:10386000D0004EF20012CEF20002815070470000EC
:1038700010B54EF60C5CCEF2000CDCF80030C3F351
:10388000022E8EF00704042C28BF0424BEF103038B
:103890004FF0FF3E0EFA04F438BF0023A1439940D5
:1038A0000EFA03F39A43114300F00F0200F1604354
:1038B0000901043A03F564436244002848BF02F159
:1038C0000C03197010BD00004EF60C51CEF2000131
:1038D0000A684FF6FF031A4060F30A2242F0806044
:1038E00040F0FD7008607047002804BF0120704759
:1038F0002DE9F04143F60808C4F202080446D8F85E
:10390000F8030D4600F00700884207D288F8F85304
:10391000D8F8F80300F00700A84277D120688107A3
:1039200017D5410705D5D8F8001041F4E051C8F883
:103930000010010705D5D8F8001041F46041C8F81F
:103940000010D8F80010A26821F0F0011143C8F867
:103950000010C00740D1D8F8F80300F00700A842D3
:1039600007D988F8F853D8F8F80300F00700A84200
:103970004CD12068410707D5D8F80010E26821F43F
:10398000E0511143C8F80010000708D5D8F800002E
:10399000216920F4604040EAC100C8F8000000F04E
:1039A0007DF8D8F8001047F6F062C1F30311C0F6B5
:1039B0000002515C40F2140220FA01F140F20C00C6
:1039C000C2F200000068C2F200021160FFF7D8FEE8
:1039D0000020BDE8F08100BF6068811E022907D287
:1039E00058F8081C89015CBF0120BDE8F08111E096
:1039F000012807D158F8081C89035CBF0120BDE8E5
:103A0000F08107E058F8081C890703D40120BDE8BD
:103A1000F08100BFD8F8001021F003010843C8F876
:103A20000000FFF717FC064641F28837D8F800007F
:103A3000616800F00C00B0EB810F8CD0FFF70AFC3E
:103A4000801BB842F2D90320BDE8F08140F2140097
:103A500043F60801C2F20000C4F2020100680968DE
:103A600047F60072C1F38221C0F60002515CC840E3
:103A70007047000040F2140043F60801C2F2000053
:103A8000C4F202010068096847F60072C1F34231CE
:103A9000C0F60002515CC8407047000010B543F604
:103AA0000404C4F20204606800F00C0008280BD083
:103AB000042819BF42F20040C0F2F40047F640006B
:103AC000C0F27D1010BD00BF206821682368490244
:103AD00047F64001C0F27D1100F03F02C3F38810A9
:103AE0005CBF42F20041C0F2F401A1FB00010023DF
:103AF000FCF766FB21680222C1F3014102EB4101A0
:103B0000B0FBF1F010BD0000002804BF0120704799
:103B10002DE9F04182B00446007843F60006C00764
:103B2000C4F202060CD0B06800F00C00042840F08B
:103B300081803068800303D56068002800F06A81C6
:103B4000207880071BD5B06810F00C0F09D0B06842
:103B500000F00C00082840F087807068400200F1F7
:103B600083803068800703D5E068012840F05281E7
:103B70003068216920F0F80040EAC1003060207808
:103B8000000713D4207840072AD4A569002D00F03F
:103B90003C81B06800F00C00082840F0A180012DA5
:103BA00040F01081012002B0BDE8F081606900287A
:103BB00040F20000C4F2472000F07E800121C0F8EE
:103BC000801EFFF747FB0546706F8007DAD4FFF7CA
:103BD00041FB401B0228F7D9032002B0BDE8F08169
:103BE000306C5FEAC0080AD400200190306C40F0CD
:103BF00080503064306C00F080500190019847F2A2
:103C00000007C4F200073868C00547D4386840F49C
:103C100080703860FFF71EFB054600BF3868C0059E
:103C20003CD4FFF717FB401B0228F7D9032002B052
:103C3000BDE8F081B06800F00C00082803D170687E
:103C400040023FF576AF6068B0F5803F07D0B0F531
:103C5000A02F40F09B80306840F4802030603068B6
:103C600040F4803030609BE0E06800285CD00020A9
:103C7000C4F2472001210160FFF7ECFA054600BFBE
:103C8000306880073FF574AFFFF7E4FA401B022865
:103C9000F6D9032002B0BDE8F08100BFA06801287A
:103CA00005D0052854D1306F40F004003067306FE4
:103CB00040F00100306755E00021C0F8801EFFF79A
:103CC000C9FA0546706F80077FF55CAFFFF7C2FA4F
:103CD000401B0228F6D9032002B0BDE8F08100BFE6
:103CE0000027C4F2472700203866FFF7B3FA022DF9
:103CF00005460DD13068800140F19080FFF7AAFAA7
:103D0000401B02284FF00300F4D902B0BDE8F08157
:103D10003068800179D5FFF79DFA401B02284FF0EB
:103D20000300F5D9F1E700BF0020C4F247200021CD
:103D30000160FFF78FFA0546306880077FF51FAFF7
:103D4000FFF788FA401B02284FF00300F4D9DCE7A4
:103D5000316F002821F001013167316F21F004013A
:103D600031677DD0FFF776FA054641F2883700BF0C
:103D7000306F800700F18680FFF76CFA401BB84275
:103D8000F6D9032002B0BDE8F08100BF31680028F9
:103D900021F480313160316821F4802131607BD0A1
:103DA000FFF758FA054600BF306880033FF5C8AEFC
:103DB000FFF750FA401B6428F6D9032002B0BDE893
:103DC000F08100BF7068E16900F480028A4221D16D
:103DD000216A00F03F028A421CD147F6C071626A34
:103DE0000140B1EB821F15D1A16A4FF6FF73C903E1
:103DF000994300F44032A1F580318A420AD1E16A48
:103E000000F07060B0EB016F04D1002002B0BDE89B
:103E1000F08100BF012002B0BDE8F08104F11C0573
:103E20002FCD084340EA8210D9034FF6FF72914329
:103E3000A1F5803140EA05600843706001203866D2
:103E4000FFF708FA044600BF30688001DDD4FFF7B1
:103E500001FA001B02284FF00300F5D955E700BF17
:103E6000FFF7F8F9054641F2883700BF306F800749
:103E700008D5FFF7EFF9401BB8424FF00300F5D922
:103E800043E700BFB8F1000F3FF57FAE306C20F084
:103E90008050306479E600BFFFF7DCF9054600BFCB
:103EA000306880037FF54CAEFFF7D4F9401B6428DF
:103EB0004FF00300F4D928E7411E0020B0EB116F4A
:103EC0001CBF012070474EF21002CEF2000251607A
:103ED0004EF62351CEF20001F0230B7007219060C3
:103EE00011607047704700007047000090F83C2058
:103EF000012A4FF0020254D010B580F83D2002682C
:103F0000D2F804E0D2F808C00C682EF07003234306
:103F100041F2FF74C4F20004A24253600EDC40F28E
:103F2000FF73C4F200039A4216DCB2F1804F2BD02B
:103F300040F20043C4F2000324E000BF40F2FF332C
:103F4000C4F201039A4213DC41F60003C4F20003F9
:103F50009A4219D0002313E040F60003C4F2000394
:103F60009A4211D040F60043C4F200030AE000BFB9
:103F700044F20003C4F201039A4205D040F2004328
:103F8000C4F201039A4204D149682CF0800319431A
:103F900091600121002280F83D1080F83C20BDE8AE
:103FA0001040104670470000002804BF01207047F1
:103FB00010B5044690F83D0028B9002084F83C0074
:103FC000204600F01FF8022084F83D002068211DE3
:103FD00001F0AEFF012084F8460084F83E0084F82A
:103FE0003F0084F8400084F8410084F8420084F8DF
:103FF000430084F8440084F8450084F83D00002024
:1040000010BD000080B582B0006800F1404180051D
:1040100040EA9120042858D8DFE800F00412203A42
:10402000480000BF0020019043F64000C4F20200A7
:10403000016841F001010160006800F0010042E008
:104040000020019043F64000C4F20200016841F0F4
:1040500002010160006800F0020034E000200190DD
:1040600043F64000C4F202000168002241F004015E
:1040700001600068052100F00400019001981E20F5
:10408000FFF7F6FB1E2002B0BDE88040FFF7DEBB65
:104090000020019043F64000C4F20200016841F0A4
:1040A00008010160006800F008000CE000200190A9
:1040B00043F64000C4F20200016841F010010160C3
:1040C000006800F010000190019802B080BD00006F
:1040D00090F83D1001291CBF01207047022180F893
:1040E0003D10006841F2FF72C168C4F200029042C4
:1040F00041F00101C1600DDC40F2FF71C4F200012A
:10410000884215DCB0F1804F2AD040F20041C4F261
:10411000000123E040F2FF31C4F20101884213DCC8
:1041200041F60001C4F20001884219D0002113E0D9
:1041300040F60001C4F20001884211D040F600416F
:10414000C4F200010AE000BF44F20001C4F2010120
:10415000884205D040F20041C4F20101884206D1F4
:10416000816801F00701062904BF0020704701683B
:1041700041F00101016000207047000090F83C20F0
:10418000012A4FF0020200F0C58080B580F83D2082
:10419000D0F800C04FF67772DCF8083023EA02024C
:1041A000CCF808200B684F2B28DC1F2B44DD202B7C
:1041B00045D0302B43D0402B40F0AE80D1F804E006
:1041C000C968DCF82030DCF8202022F00102CCF8AD
:1041D0002020DCF8182022F0F00242EA011123F03E
:1041E0000A0242EA0E02CCF81810CCF82020DCF8C3
:1041F000081041F0470121F0300180E06F2B27DDEE
:10420000B3F5005F48D0B3F5805F7AD0702B40F0F3
:104210008380D1E901E3C968DCF8082043EA0E0392
:1042200022F47F4243EA01211143CCF80810DCF864
:10423000081041F0770162E00BB1102B6CD1DCF873
:10424000081021F07001194341F0070157E000BF49
:10425000502B35D0602B5FD1D1F804E0C968DCF871
:104260002030DCF8202022F01002CCF82020DCF8EE
:10427000182022F4704242EA013123F0A00242EAFF
:104280000E12CCF81810CCF82020DCF8081041F001
:10429000670121F0100132E0D1E901E3C968DCF8DF
:1042A000082043EA0E0322F47F4243EA012111432E
:1042B000CCF80810DCF8081041F480411FE000BF82
:1042C000D1F804E0C968DCF82030DCF8202022F0C6
:1042D0000102CCF82020DCF8182022F0F00242EA9B
:1042E000011123F00A0242EA0E02CCF81810CCF8B1
:1042F0002020DCF8081041F0570121F02001CCF813
:1043000008100022012180F83D10002180F83C10A7
:10431000BDE88040104670470122F3E77047000077
:1043200070B504460068C5680669B10716D515F072
:10433000020113D06FF00201016101212177806930
:10434000800703D02046FFF7E9FF05E0204600F094
:104350008FF8204600F0D0F900202077700719D59B
:1043600015F0040016D020686FF0040101610221ED
:104370002177806910F4407F04D02046FFF7CEFFFC
:1043800006E000BF204600F073F8204600F0B4F9C4
:1043900000202077300717D515F0080014D02068CA
:1043A0006FF00801016104212177C069800703D003
:1043B0002046FFF7B3FF05E0204600F059F82046FD
:1043C00000F09AF900202077F00619D515F01000BA
:1043D00016D020686FF01001016108212177C069B3
:1043E00010F4407F04D02046FFF798FF06E000BF9E
:1043F000204600F03DF8204600F07EF900202077AE
:10440000F00718BF15F0010002D1300609D412E000
:1044100020686FF001010161204600F0FFF93006CD
:1044200009D515F0800006D020686FF08001016189
:104430002046FFF757FD700609D515F0400006D05D
:1044400020686FF040010161204600F0E9F9B006F4
:1044500058BF70BD15F0200008D021686FF0200211
:1044600020460A61BDE87040FFF73EBD70BD000008
:104470007047000090F83C30012B04BF02207047C9
:104480004FEAB202032A00F201812DE9F043DFE88E
:1044900002F0033F7FBF00BF036840F200461C6A82
:1044A0001A6A24F0020422F001021A621A46D3F8B2
:1044B00004C052F818EF8F6843F48065C4F2010617
:1044C000B54244EA070405D1CF6824F00C0427F074
:1044D00004073C430F68B54206D1D1E905582CF4D6
:1044E00040762E4346EA080C2EF073063743C3F895
:1044F00004C09F614F6809695F631C629F6947F050
:1045000008079F619F6927F004079F61B2E000BF21
:10451000036840F200481C6A1A6A24F0200422F062
:1045200010021A621A46D3F804C052F818EF8F68C6
:1045300043F48065C4F20108454544EA071407D1F5
:10454000CF686FF0400624F0C00406EA0716344333
:10455000D1F80090454506D1D1E905562CF44067C5
:104560002E4347EA860C2EF4E64747EA0927C3F8AC
:1045700004C09F614F6809699F631C629F6947F48B
:1045800000679F619F6927F480679F6171E000BFAA
:10459000036840F200481C6A1A6A24F4007422F48A
:1045A00080721A621A46D3F804C052F81CEF8F6862
:1045B00043F48065C4F20108454544EA072408D164
:1045C000CF6840F2FF463F0224F4406427EA060623
:1045D0003443D1F80090454506D1D1E905562CF475
:1045E00040572E4347EA061C2EF0730747EA090797
:1045F000C3F804C0DF614F680969DF631C62DF69CB
:1046000047F00807DF61DF6927F00407DF6131E069
:10461000036840F20045D3F820C01A6A43F480676B
:1046200022F480521A621A465C6852F81CEFD1F8E4
:1046300000808E68C4F20105AF4204D14D6924F4B4
:10464000804444EA85142CF4005747EA06372EF4D8
:10465000E64646EA08265C60DE614E6809691E642B
:104660001F62DF6947F40067DF61DF6927F4806755
:10467000DF6109021368194311600021BDE8F043AE
:10468000002280F83C200846704700BF012100222C
:1046900080F83C2008467047002804BF012070477E
:1046A00010B5044690F83D0028B9002084F83C007D
:1046B000204600F01FF8022084F83D002068211DEC
:1046C00001F036FC012084F8460084F83E0084F8AE
:1046D0003F0084F8400084F8410084F8420084F8E8
:1046E000430084F8440084F8450084F83D0000202D
:1046F00010BD0000704700007047000041B108295C
:1047000010D0042914BF00F1410200F13F020BE078
:1047100090F83E20012A1CBF01207047022280F839
:104720003E2013E000F140021278012A1CBF012054
:1047300070470222082907D0042914BF80F84120BD
:1047400080F83F2002E000BF80F84020006801F0C0
:104750001F010122036A02FA01F123EA0102026247
:10476000026A114341F2FF72C4F2000290420162F8
:1047700010DC40F2FF71C4F2000188421CDCB0F191
:10478000804F3FD040F20041C4F20001884239D04E
:104790003DE000BF40F2FF31C4F20101884219DC64
:1047A00041F60001C4F2000188422BD00021C4F27E
:1047B000010188421AD02AE040F60001C4F200014B
:1047C00088421FD040F60041C4F20001884219D04F
:1047D0001DE000BF44F20001C4F20101884211D083
:1047E00040F20041C4F20101884210D1416C40F214
:1047F000004340F48062C4F2010341F400419A4254
:10480000416404D1816801F00701062903D00168E1
:1048100041F0010101600020704700007047000076
:1048200070470000002804BF0120704710B50446FF
:1048300090F8410028B9002084F84000204600F09C
:1048400021F8242084F841002068C16821F4005137
:10485000C160204601F00EFC2068016921F49041FE
:104860000161416921F02A014161C16841F40051AF
:10487000C16000202021606484F8411084F8421057
:10488000606310BD80B586B0006844F20042C4F297
:10489000000200219042CDE90411CDE902110191FD
:1048A00024D041F20001C4F20101884248D1002025
:1048B00043F630010090C4F202014A6942F010024E
:1048C0004A614A6902F010020092009A009008685A
:1048D00040F00100086008684FF4C06100F001007A
:1048E000009000980020C4F202001DE043F6300062
:1048F0000091C4F20200026942F4003202610269CE
:1049000002F400320092009A0091016841F008011F
:1049100001600068602100F008000090009800200D
:10492000C4F2020000F540600191022102910021D1
:104930000391032104910721059101A9FEF7B4FB1E
:1049400006B080BD2DE9F041044690F841002028D2
:104950001CBF0220BDE8F0810D4600294FF0010088
:1049600000F0AA801646002A08BFBDE8F0810020AA
:1049700060642120984684F84100FEF76BFCA68411
:10498000E684A1680646B1F5805F02D1206900285F
:1049900062D02F460025E08C002861D018F101007C
:1049A00018D0B8F1000F37D1216808E017F8010BD3
:1049B0004860E08C0138E084E08C002851D0086821
:1049C000000673D5002FF1D135F8020B00276FF3E5
:1049D0005F20EDE7216802E00868000609D4086856
:1049E000000606D4086800065CBF08685FEA00603D
:1049F000F2D51FB117F8010B05E000BF35F8020B27
:104A000000276FF35F204860E08C0138E084E08C81
:104A10000028E4D125E000BF216800BF0868000637
:104A200008D4FEF717FC801B404541D82168C868B0
:104A3000F4E700BF17B117F8010B04E035F8020BDB
:104A400000276FF35F204860E08C0138E084E08C41
:104A50000028E3D105E000BF0027E08C00289DD1AD
:104A60002168086840061FD4B8F1000F1ED018F165
:104A700001000FD10868400616D40868400613D418
:104A80000868400610D4086840064FF00000F1D5D1
:104A90000FE000BFFEF7DEFB801B404508D8206812
:104AA000C16800684006F5D5002002E0FEF7D2FBA1
:104AB0000320202184F84110BDE8F081FEE70000CA
:104AC0002DE9F04782B0044600689A460B9D0A9E85
:104AD0000368914643F48062026002680F4642F424
:104AE0008071016020464FF001110022334600958D
:104AF00000F070F850B120680068C00544BF4FF462
:104B000000702064032002B0BDE8F08740F2020884
:104B10002068C0F2010807F0FE0707612046414601
:104B200032462B4600F03CF920B1012002B0BDE82E
:104B3000F08700BF0020019020682A46416901915A
:104B40008069314601900198204600F0DDF9B0B946
:104B50002068BAF1010F09D04FEA192101612046FE
:104B600031462A4600F0D0F948B920685FFA89F149
:104B70000161204631462A4600F0C6F960B1206C3A
:104B80000428D2D12068016841F40071016001203D
:104B900002B0BDE8F08700BF2068002201683346FC
:104BA00041F48071016020464FF00111009500F042
:104BB00011F800289FD147F0010C27682046414694
:104BC00032462B46C7F810C002B0BDE8F04700F0EF
:104BD000E7B800002DE9F041054600681E4614467E
:104BE00001F47F0201338FB242D0DDF81880B2F5B4
:104BF000803F40F0878040693840C01BB0FA80F0A9
:104C00004009A04240F0C8804EB924E040693840D5
:104C1000C01BB0FA80F04009A04240F0BD80FEF712
:104C200019FBA0EB08012868B142EFD9416939406E
:104C3000C91BB1FA81F14909A142E7D19BE000BF4C
:104C400040693840C01BB0FA80F04009A0424FF0E4
:104C5000000040F0A280FEF7FDFA28684169394063
:104C6000C91BB1FA81F14909A142E9D183E000BF32
:104C7000B2F5803F24D100BF41693940C91BB1FA68
:104C800081F14909A14240F0878041693940C91B3F
:104C9000B1FA81F14909A14240F07E804169394071
:104CA000C91BB1FA81F14909A14275D14169394065
:104CB000C91BB1FA81F14909A142DDD06CE000BF06
:104CC00081693940C91BB1FA81F14909A14263D117
:104CD00081693940C91BB1FA81F14909A1425BD10F
:104CE00081693940C91BB1FA81F14909A14253D107
:104CF00081693940C91BB1FA81F14909A142DFD06C
:104D00004AE000BF80693840C01BB0FA80F040091B
:104D1000A04241D146B923E080693840C01BB0FAB7
:104D200080F04009A04237D1FEF794FAA0EB0801C9
:104D30002868B142F0D981693940C91BB1FA81F1C3
:104D40004909A142E8D116E080693840C01BB0FA99
:104D500080F04009A0424FF0000018BFBDE8F0818C
:104D6000FEF778FA286881693940C91BB1FA81F1E8
:104D70004909A142E8D100202021286385F83D108F
:104D800085F83E00296C41F02001296485F83C003B
:104D90000120BDE8F08100BF0020BDE8F0810000E7
:104DA000F0B581B0044600681D4643698FB203EA3E
:104DB0000701B94202D1002001B0F0BD4169164699
:104DC00001323FD049053FD4CEB100BFFEF742FAD1
:104DD000411B2068B14203D941693940B94215D11C
:104DE00041693940B942E6D041694905EED52BE029
:104DF00041693940B942DED04169490524D4FEF702
:104E000029FA206841693940B942F1D0202023E0D5
:104E100041693940B942CED04169490514D441694C
:104E20003940B942C7D0416949050DD4416939407B
:104E3000B942C0D04169490506D441693940B942F7
:104E4000B9D041694905E3D5016841F400710160B9
:104E50006FF480614161042000212022216384F8E5
:104E60003D2084F83E10226C1043206484F83C10EE
:104E7000012001B0F0BD000070B504460068154681
:104E800050F8143F5A063DD40E4629B926E000BF1B
:104E900050F8141F490635D40168C90621D4FEF71D
:104EA000D9F9411B2068B142F2D941694906EFD4D2
:104EB00000202021206384F83D1084F83E00206CFF
:104EC00040F0200018E000BFFEF7C4F9206850F859
:104ED000141F4906ECD50168490613D40168C906B8
:104EE000F2D56FF01001016000202021206384F8CA
:104EF0003D1084F83E00206C2064002084F83C00C3
:104F0000012070BD002070BD70B50368044653F8E1
:104F1000140F000611D40E46481C29D086BB00BFD2
:104F20001868400527D4FEF795F9236853F8140F45
:104F3000000637D518680006F2D5002070BD00BF06
:104F400018680006F9D41868400514D418680006DB
:104F5000F3D4186840050ED418680006EDD418681C
:104F6000400508D4186800064FF0000048BF70BD27
:104F700018684005E4D56FF480601860042012E0E2
:104F8000154603E053F8140F0006D6D41868400500
:104F9000F1D4FEF75FF9401B2368B042F2D958699B
:104FA0000006EFD4202000212022216384F83D2038
:104FB00084F83E10226C10432064012084F83C10D9
:104FC00070BD000080B52DED048B40F24700C2F2A9
:104FD000000001789FED3E8A012953D141780129D3
:104FE00050D1817801294DD1C17801294AD1017967
:104FF000012947D14179012944D18179012941D140
:10500000C079B0EE489A01283ED1FDF78BFF9FEDA5
:10501000311AB0EE408AB4EE410AF1EE10FA21D115
:105020009FED2D9A40F24420C2F20000B0EE490AF2
:1050300002F0AAF940F29C20C2F20000B0EE490A48
:1050400002F0A2F940F2F420C2F20000B0EE490AE8
:1050500002F09AF940F2EC10C2F20000B0EE490AF8
:1050600002F092F99FED1D0A9FED1D1A38EE000A1D
:105070009FED1C2A20EE010A30EE029A32EE408AA1
:1050800002E000BFB0EE489A40F24420C2F20000B5
:10509000B0EE480A02F078F940F29C20C2F200001B
:1050A000B0EE490A02F070F940F2F420C2F20000BA
:1050B000B0EE480A02F068F940F2EC10C2F20000CB
:1050C000B0EE490ABDEC048BBDE8804002F05CB94B
:1050D0003333B33E333373409A99993E333373C0BD
:1050E000CDCC4C3DCDCCCC3E80B588B00B4802AF8A
:1050F00001900AA000F1040E9EE80E50806987E836
:105100000E50079001A8002101F0E0FD40F24C3163
:10511000C2F20001086008B080BD00BF087F00082F
:10512000FD5C00080000000000000000800000009E
:10513000000000000000000070B586B0002543F6B6
:10514000300005950095C4F20200016840F60004A5
:1051500041F0800101600168C4F2020401F08001A5
:105160000091009900950168002241F00101016061
:105170000168C02601F001010091009900950168C5
:1051800041F002010160016801F002010091009903
:105190000095016841F004010160016801F004011B
:1051A000009100990095016841F0080101600068D4
:1051B000C02100F00800009000982046FEF744F857
:1051C0000120CDE9020501A9204601960495FDF7CD
:1051D0006BFF06B070BD000080B540F2503045F660
:1051E0000001C2F20000C4F2000100234FF4804C21
:1051F00042F2107280E80E00C0E9033CC0E90533BA
:10520000C0E90733FEF72CF8002808BF80BDBDE8D1
:105210008040FDF783BE000080B540F2A43045F623
:105220000041C2F20000C4F2000100234FF4804CA0
:1052300042F2107280E80E00C0E9033CC0E9053379
:10524000C0E90733FEF70CF8002808BF80BDBDE8B1
:105250008040FDF763BE000010B594B040F2F83016
:105260000021C2F200004FF08042532344F61F6435
:105270000D91CDE90B110991CDE90711CDE905118A
:10528000CDE90311CDE90111C0E90023C0E9021401
:1052900001618161FEF788FE002818BFFDF73EFE20
:1052A0004FF480500A9040F2F830C2F200000AA990
:1052B000FEF764FF002818BFFDF730FE40F2F8301B
:1052C000C2F20000FFF7E8F9002818BFFDF726FE3C
:1052D00040F2F8300024C2F2000008A9CDE90844E9
:1052E000FEF704FE002818BFFDF718FE6020CDE988
:1052F00001040394059440F2F834C2F2000401A9B9
:1053000020460022FFF7B6F8002818BFFDF706FE7A
:10531000206840F60042C4F20002002190420F9142
:105320001CD040F20041C4F20001884226D0B0F106
:10533000804F41D100200E9043F63000C4F20200AD
:10534000016841F001010160006800F001000E9069
:105350000E9820200F90012022E000BF43F630007D
:105360000E91C4F20200016841F001010160006881
:1053700000F001000E900E9801200FE000200E902A
:1053800043F63000C4F20200016841F001010160FF
:10539000006800F001000E900E9840200F9002204F
:1053A00002211091002113900020CDE91111C4F2C7
:1053B00002000FA9FDF778FE14B010BDB0B594B08F
:1053C00040F2004540F24040C4F200050021C2F224
:1053D0000000532244F61F630D91CDE90B11099192
:1053E000CDE90711CDE90511CDE90311CDE9011191
:1053F000C0E90052C0E9021301618161FEF7D4FDEA
:10540000002818BFFDF78AFD4FF480500A9040F243
:105410004040C2F200000AA9FEF7B0FE002818BF03
:10542000FDF77CFD40F24040C2F20000FFF734F986
:10543000002818BFFDF772FD40F240400024C2F280
:10544000000008A9CDE90844FEF750FD002818BF68
:10545000FDF764FD6020CDE901040394059440F25A
:105460004044C2F2000401A920460022FFF702F8DE
:10547000002818BFFDF752FD206840F60042C4F234
:105480000002002190420F9118D0A84226D0B0F11E
:10549000804F40D100200E9043F63000C4F202004D
:1054A000016841F001010160006800F001000E9008
:1054B0000E9820200F90012022E000BF43F630001C
:1054C0000E91C4F20200016841F001010160006820
:1054D00000F001000E900E9801200FE000200E90C9
:1054E00043F63000C4F20200016841F0010101609E
:1054F000006800F001000E900E9840200F900220EE
:10550000022110910021CDE91111139005F5FE3013
:105510000FA9FDF7C9FD14B0B0BD000080B586B07D
:1055200040F2884040F600020021C2F20000C4F2BE
:10553000000253230591CDE90311CDE90011C0E923
:105540000021C0E90213016180218161FEF72CFD79
:10555000002818BFFDF7E2FC4FF48050029040F2A3
:105560008840C2F2000002A9FEF708FE002818BF1A
:10557000FDF7D4FC40F28840C2F200006946FEF715
:10558000B5FC002818BFFDF7C9FC06B080BD0000BF
:10559000B0B594B040F6004540F2D040C4F20005EA
:1055A0000021C2F20000532244F61F630D91CDE9A1
:1055B0000B110991CDE90711CDE90511CDE90311D1
:1055C000CDE90111C0E90052C0E902130161816116
:1055D000FEF7EAFC002818BFFDF7A0FC4FF480504E
:1055E0000A9040F2D040C2F200000AA9FEF7C6FDC0
:1055F000002818BFFDF792FC40F2D040C2F2000034
:10560000FFF74AF8002818BFFDF788FC40F2D040A9
:105610000024C2F2000008A9CDE90844FEF766FCA8
:10562000002818BFFDF77AFC6020CDE9010403943F
:10563000059440F2D044C2F2000401A920460022A1
:10564000FEF718FF002818BFFDF768FC206800214E
:10565000A8420F911CD040F20041C4F200018842E0
:1056600026D0B0F1804F40D100200E9043F630009C
:10567000C4F20200016841F001010160006800F01D
:1056800001000E900E9820200F90012022E000BF14
:1056900043F630000E91C4F20200016841F00101AE
:1056A0000160006800F001000E900E9801200FE0EC
:1056B00000200E9043F63000C4F20200016841F071
:1056C00001010160006800F001000E900E9840207A
:1056D0000F900220022110910021CDE911111390A9
:1056E00005F5FA300FA9FDF7DFFC14B0B0BD0000DE
:1056F00080B582B040F2185041F200020021C2F29F
:105700000000C4F20002532340F2E73CCDE900114F
:10571000C0E90023C0E9021C8161FEF745FC0028B6
:1057200018BFFDF7FBFB40F21850C2F200006946BB
:10573000FEF7DCFB002818BFFDF7F0FB02B080BDD0
:1057400080B540F2605041F20001C2F20000C4F2A4
:10575000010100234FF00C0C4FF4E13280E80E0001
:10576000C0E90333C0E905C3C361FFF75BF8002854
:1057700008BF80BDBDE88040FDF7D0BB80B540F2DA
:10578000A85044F20041C2F20000C4F2000100231C
:105790004FF00C0C4FF4E13280E80E00C0E9033307
:1057A000C0E905C3C361FFF73DF8002808BF80BD0D
:1057B000BDE88040FDF7B2BBFEE7000080B52DEDEF
:1057C000068B9FED1B8A9FED1B1A20EE080A80EEC8
:1057D000019A9FED19AA40F24420C2F20000B0EEF7
:1057E0004A0AF0EE490A01F03FFD40F29C20C2F265
:1057F0000000B0EE480AF0EE490A01F035FD40F233
:10580000F420C2F20000B0EE4A0AF0EE490A01F0BC
:105810002BFD40F2EC10C2F20000B0EE480AF0EEB0
:10582000490ABDEC068BBDE8804001F01DBD00BFFC
:10583000F5DB973E0000B442F5DB97BE80B52DED59
:10584000048B9FED189AB0EE408A40F24420C2F2D9
:105850000000B0EE490AF0EE480A01F005FD40F202
:105860009C20C2F20000B0EE490AF0EE480A01F0B6
:10587000FBFC40F2F420C2F20000B0EE490AF0EE68
:10588000480A01F0F1FC40F2EC10C2F20000B0EE68
:10589000490AF0EE480ABDEC048BBDE8804001F0F7
:1058A000E3BC00BF3333B3BE80B52DED048B9FED59
:1058B000189AB0EE408A40F24420C2F20000B0EEE6
:1058C000490AF0EE480A01F0CFFC40F29C20C2F2F7
:1058D0000000B0EE490AF0EE480A01F0C5FC40F2C3
:1058E000F420C2F20000B0EE490AF0EE480A01F0DE
:1058F000BBFC40F2EC10C2F20000B0EE490AF0EE40
:10590000480ABDEC048BBDE8804001F0ADBC00BF8F
:105910003333B33E80B52DED048B9FED199AB0EE75
:10592000408A40F24420C2F20000B0EE490AF0EE94
:10593000480A01F099FC40F29C20C2F20000B0EE4F
:10594000490AF0EE480A01F08FFC9FED0E9A40F2F2
:10595000F420C2F20000B0EE490AF0EE480A01F06D
:1059600083FC40F2EC10C2F20000B0EE490AF0EE07
:10597000480ABDEC048BBDE8804001F075BC00BF57
:105980003333B33E3333B3BE80B52DED048B9FED7F
:10599000199AB0EE408A40F24420C2F20000B0EE04
:1059A000490AF0EE480A01F05FFC40F29C20C2F286
:1059B0000000B0EE490AF0EE480A01F055FC9FEDF8
:1059C0000E9A40F2F420C2F20000B0EE490AF0EE66
:1059D000480A01F049FC40F2EC10C2F20000B0EEBF
:1059E000490AF0EE480ABDEC048BBDE8804001F0A6
:1059F0003BBC00BF3333B3BE3333B33EFEE70000DE
:105A0000EFF30980BFF36F8F154B1A681EF0100F6C
:105A100008BF20ED108A20E9F04F10602DE9090041
:105A20004FF0500080F31188BFF34F8FBFF36F8F9B
:105A300001F010FF4FF0000080F31188BDE809006D
:105A400019680868B0E8F04F1EF0100F08BFB0ECFE
:105A5000108A80F30988BFF36F8F704700BF00BFC3
:105A6000D400002040F2F830C2F2000000684FF489
:105A7000FA7141637047000040F2F830C2F2000052
:105A8000006840F6C411416370470000F0B585B06E
:105A900040F2A4340020C2F20004ADF812004FF42A
:105AA0007A7501260DF1120720469821DD22012387
:105AB000CDE900760295FDF785FC781CCDE900065E
:105AC00020469A21DD2201230295FDF77BFC9DF8FB
:105AD00012109DF8130040F2380201F00103C2F2E7
