:020000040800F2
:10000000D06C00209D0100082D57000845480008CD
:10001000E9540008ED1B00081D5F00080000000007
:10002000000000000000000000000000C1580008AF
:10003000C51E00080000000031570008155B0008CD
:10004000B7010008B7010008B7010008B7010008B0
:10005000B7010008B7010008B7010008B7010008A0
:10006000B7010008B7010008B7010008B701000890
:10007000B7010008B7010008B7010008B701000880
:10008000B7010008B7010008B7010008B701000870
:10009000B7010008B7010008B7010008B701000860
:1000A000B7010008B7010008B7010008B701000850
:1000B000B7010008B7010008ED5B0008B7010008B0
:1000C000B7010008B7010008B7010008B701000830
:1000D000B7010008B7010008B7010008B701000820
:1000E000B7010008B7010008B7010008B701000810
:1000F000B7010008B7010008B7010008B701000800
:10010000B7010008B7010008B7010008B7010008EF
:10011000B7010008B7010008B7010008B7010008DF
:10012000B7010008B7010008B7010008B7010008CF
:10013000B7010008B7010008B7010008B7010008BF
:10014000B7010008B7010008B7010008B7010008AF
:10015000B7010008B7010008B7010008B70100089F
:10016000B7010008B7010008B7010008B70100088F
:10017000B7010008B7010008B7010008000000003F
:10018000B7010008B7010008DFF80CD000F004FA4E
:100190000048004709600008D06C002006488047EE
:1001A00006480047FEE7FEE7FEE7FEE7FEE7FEE75C
:1001B000FEE7FEE7FEE7FEE7D95B000889010008DD
:1001C0002DE9F05F0546002092469B46884606468C
:1001D000814640241BE0284641464746224600F01F
:1001E0006DF953465A46C01A914110D3114618462C
:1001F000224600F054F92D1A67EB01084F462246BB
:100200000120002100F04BF917EB00094E41201EA0
:10021000A4F10104DFDC484631462A464346BDE8E6
:10022000F09F40EA01039B0703D009E008C9121FB1
:1002300008C0042AFAD203E011F8013B00F8013BA0
:10024000521EF9D270472DE9FE4F81EA030404F0F3
:10025000004421F0004100944FF0000B23F00043D4
:1002600050EA01045ED052EA03045BD0C3F30A549F
:10027000C1F30A552C44A4F2F3340194A0FB0254B8
:10028000C1F3130141F48011C3F3130343F480134A
:1002900001FB024400FB034E840A970A44EA81549E
:1002A00047EA8357A4FB076802958D0A05FB07857B
:1002B0004FEA932C04FB0C542705029D4FEA065885
:1002C00047EA1637B5EB08056EEB070C870E920E62
:1002D00047EA811742EA8312A7FB0201B6EB0B0142
:1002E00064EB00042B0D43EA0C335E1844EB1C5006
:1002F000DA465146E7FB0201C5F313044FEA0B331C
:1003000043EA14534FEA0432019C43EA0603A4F182
:100310000C040294009CCDE900B400F0EEF803B0A8
:10032000BDE8F08F00200146F9E72DE9F04D81EAA4
:10033000030404F0004B21F0004514464FF0000A7E
:1003400023F0004150EA050220D054EA01021DD0FA
:10035000C5F30A570246C5F31303C1F31300C1F3F3
:100360000A5640F4801543F48013A7EB0608101BCF
:10037000D64608F2FD3873EB050002D308F10108F8
:1003800001E092185B41B8F1000F03DA002001464A
:10039000BDE8F08D00204FF48011064684460EE043
:1003A000171B73EB050705D3121B63EB050306430D
:1003B0004CEA010C49084FEA300092185B4150EAC0
:1003C0000107EDD152EA030012D082EA040083EA69
:1003D0000501084305D0101BAB4106D201220023C2
:1003E00006E000224FF0004302E06FF001025310DC
:1003F0001AEB06004CEB085110EB0A0041EB0B0125
:10040000BDE8F04D00F06AB870B5C1F30A5201F0D2
:1004100000450024C1F3130140F2FF3341F4801181
:100420009A4201DA002070BD40F233439A42A2F2B0
:10043000334203DC524200F041F800E090402C438C
:10044000F1D0404270BDC1F30A5210B5C1F313019F
:1004500040F2FF3341F480119A4201DA002010BDCE
:1004600040F233439A42A2F2334203DC524200F09C
:1004700025F810BD904010BD00F0004230F0004063
:100480000AD0C10D01F56071C0F3160042EA0151B6
:10049000C208400711437047002001467047202AD8
:1004A00004DB203A00FA02F1002070479140C2F1CB
:1004B000200320FA03F3194390407047202A04DBFD
:1004C000203A21FA02F00021704721FA02F3D040CD
:1004D000C2F12002914008431946704710B5141E1E
:1004E00073F1000408DA401C41F1000192185B41ED
:1004F0001A4301D120F0010010BD2DE9F04D9246C4
:100500009B4611B1B1FA81F202E0B0FA80F22032DA
:100510009046FFF7C4FF04460F4640EA0A0041EA4E
:100520000B0153465A46084313D0114653EA0100C3
:1005300019D0C8F140025046FFF7C0FF05460E46ED
:10054000504659464246FFF7AAFF084305D001200E
:1005500004E020463946BDE8F08D0020054346EA18
:10056000E0762C4337430A986305E40AA0EB0800C1
:100570000022FD0A44EA47540A3002D50020014611
:10058000E9E7010510196941DDE9084500196941EC
:10059000BDE8F04DA2E700001CB5094800900948ED
:1005A00001900546009C06E0E06840F0010394E8F5
:1005B000070098471034AC42F6D3FFF7E9FD00007E
:1005C000C87D0008E87D0008B0B540F25404C2F2CE
:1005D0000004A06800210228216115D19FED2E0A98
:1005E00006F0BAF940F6980006F00AFF9FED270AD8
:1005F00004F0F2FF4FF4486006F002FF0120E060D3
:1006000001202061B0BD00BF9FED200A05F01AF85F
:100610004FF4486006F0F4FE9FED1D0A06F09CF9C9
:1006200040F6980006F0ECFE9FED1A0A04F0D4FFA5
:100630004FF4FA7006F0E4FE40F24B05C2F20005FA
:10064000E87820B104F082FBE8780028FAD105F0C0
:100650002BFA4FF4FA7006F0D3FE9FED0F0A04F068
:1006600045FF40F6980006F0CBFEE87828B100BFC1
:1006700004F06CFBE8780028FAD105F015FA4FF485
:10068000FA7006F0BDFE01202061B0BD9A99193FB5
:1006900000003443CDCCCC3D0000B44270B540F2F4
:1006A0005404C2F200049FED3F0A0020A568C4E98B
:1006B0000400A06104F05AFF40F6980006F0A0FE86
:1006C0009FED390A06F048F940F6980006F098FECA
:1006D0006069022D42D1032816D040F24B05C2F2C8
:1006E0000005002604F032FB2878002806BF01210F
:1006F000A161A169EA786069002A02BF012901307D
:10070000C4E905060328EDD19FED270A04F0EEFEAB
:1007100040F6980006F074FE40F24B05C2F2000568
:10072000E87838B104F012FB0A2006F069FEE87898
:100730000028F7D105F0B8F94FF4FA7006F060FE22
:100740009FED190A06F008F940F6980006F058FEE9
:100750000120E0600120206170BD00BF042817D097
:1007600040F24B05C2F20005002600BF04F0EEFA8D
:100770002878002806BF0121A161A169EA78606993
:10078000002A02BF01290130C4E905060428EDD181
:1007900005F08AF940F2DC5006F032FE01202061BB
:1007A00070BD00BF9A99993E0000B44270B505F043
:1007B00057F940F25404C2F200049FED590A002098
:1007C000A668C4E90400A06106F0C6F840F69800E7
:1007D00006F016FE9FED530A04F0FEFE4FF448604B
:1007E00006F00EFE9FED500A04F02CFF40F6980034
:1007F00006F006FE40F24B05C2F20005E878022E34
:100800005AD100BF20B104F0A1FAE8780028FAD14B
:1008100005F04AF940F2DC5006F0F2FD9FED400A87
:1008200004F064FE40F2DC5006F0EAFD6069052841
:1008300012D0002604F08AFA2878002806BF012189
:10084000A161A169EA786069002A02BF012901302B
:10085000C4E905060528EDD105F026F940F2DC5083
:1008600006F0CEFD9FED2E0A04F040FE40F2DC5073
:1008700006F0C6FD9FED2D0A04F0AEFE4FF47A702F
:1008800006F0BEFDE87820B104F060FAE8780028B0
:10089000FAD105F009F940F2DC5006F0B1FD9FED08
:1008A000200A06F059F840F6980006F0A9FD01204C
:1008B000E0600120206170BD20B104F047FAE878C3
:1008C000FAE700BF05F0F0F840F2DC5006F098FDC2
:1008D0009FED130A04F00AFE40F2DC5006F090FD92
:1008E0006069062812D0002604F030FA2878002823
:1008F00006BF0121A161A169EA786069002A02BFEF
:1009000001290130C4E905060628EDD105F0CCF82F
:1009100040F2DC5006F074FD0120206170BD00BF84
:100920000000B442CDCC4C3F9A99993ECDCCCC3D01
:10093000B0B540F254049FED320AC2F20004002028
:10094000C4E90400A06106F007F840F6980006F03C
:1009500057FD40F24B05C2F20005E87840B100BFF8
:1009600004F0F4F90A2006F04BFDE8780028F7D1EE
:100970009FED240A04F030FE4FF4FA7006F040FDBB
:10098000E87838B104F0E2F90A2006F039FDE87899
:100990000028F7D105F088F84FF4FA7006F030FD22
:1009A000A068022820D19FED160A04F09FFD40F6B2
:1009B000980006F025FDE87840B100BF04F0C6F9C4
:1009C0000A2006F01DFDE8780028F7D19FED0C0AFB
:1009D00005F0C2FF40F6980006F012FD0120E0612C
:1009E00001202061B0BD00BF9FED070A04F0F4FDB7
:1009F0004FF4486006F004FD01202061B0BD00BF47
:100A00000000B442CDCCCC3DCDCCCC3E70B540F254
:100A10005404C2F200049FED4C0A0020A568C4E90A
:100A20000400A06104F0A2FD40F6980006F0E8FC86
:100A30009FED460A05F090FF40F6980006F0E0FCB6
:100A40006069022D54D1032816D040F24B05C2F242
:100A50000005002604F07AF92878002806BF012155
:100A6000A161A169EA786069002A02BF0129013009
:100A7000C4E905060328EDD19FED340A04F036FDE4
:100A800040F6980006F0BCFC40F24B05C2F20005AF
:100A9000E87838B104F05AF90A2006F0B1FCE87899
:100AA0000028F7D19FED2B0A04F096FD4FF4FA7061
:100AB00006F0A6FCE87838B104F048F90A2006F000
:100AC0009FFCE8780028F7D104F0EEFF4FF4FA70AD
:100AD00006F096FC9FED1D0A05F03EFF40F69800DB
:100AE00006F08EFC0120E0610120206170BD00BF96
:100AF000042817D040F24B05C2F20005002600BFC3
:100B000004F024F92878002806BF0121A161A16919
:100B1000EA786069002A02BF01290130C4E90506AC
:100B20000428EDD104F0C0FF40F2DC5006F068FC70
:100B30009FED070A04F0C0FD40F6AC5006F060FCE3
:100B40000120206170BD00BF9A99993E0000B44217
:100B50006666663FCDCCCC3D70B504F081FF40F2B7
:100B60005404C2F200049FED650A0020A668C4E99F
:100B70000400A06105F0F0FE40F6980006F040FC8D
:100B80009FED5F0A04F028FD4FF4486006F038FC42
:100B90009FED5C0A04F056FD40F6980006F030FC2C
:100BA00040F24B05C2F20005E878022E6AD100BF80
:100BB00020B104F0CBF8E8780028FAD104F074FFF3
:100BC00040F2DC5006F01CFC9FED4C0A04F08EFC59
:100BD00040F2DC5006F014FC6069052812D00026B3
:100BE00004F0B4F82878002806BF0121A161A169AA
:100BF000EA786069002A02BF01290130C4E90506CC
:100C00000528EDD104F050FF40F2DC5006F0F8FB6F
:100C10009FED3A0A04F06AFC40F2DC5006F0F0FB6B
:100C20009FED390A04F0D8FC4FF47A7006F0E8FB27
:100C3000E87838B104F08AF80A2006F0E1FBE87899
:100C40000028F7D19FED300A04F0C6FCE87838B1EF
:100C500004F07CF80A2006F0D3FBE8780028F7D1EE
:100C600004F022FF40F2DC5006F0CAFB9FED230A9D
:100C700005F072FE40F6980006F0C2FB01202062EB
:100C800030E000BF20B104F061F8E878FAE700BF77
:100C900004F00AFF40F2DC5006F0B2FB9FED170AA9
:100CA00004F024FC40F2DC5006F0AAFB6069062840
:100CB00012D0002604F04AF82878002806BF012147
:100CC000A161A169EA786069002A02BF01290130A7
:100CD000C4E905060628EDD104F0E6FE40F2DC503A
:100CE00006F08EFB9FED090A04F0E6FC40F6AC50DE
:100CF00006F086FB0120206170BD00BF0000B442F9
:100D0000CDCC4C3F9A99993ECDCCCC3D6666663FA2
:100D1000B0B52DED028B40F25404C2F20004A0687D
:100D200002284DD19FED4A8AB0EE480A05F014FE24
:100D300040F6980006F064FB9FED460A04F04CFC78
:100D400040F6B83006F05CFBB0EE480A05F004FE51
:100D500040F6980006F054FB9FED3F0A04F03CFC7F
:100D60004FF4FA7006F04CFB40F24B05C2F200055E
:100D7000E87838B103F0EAFF0A2006F041FBE87892
:100D80000028F7D104F090FE4FF4FA7006F038FB1B
:100D90009FED2F0A05F0E0FD40F6980006F030FBCD
:100DA0009FED2E0A04F018FC40F6B83006F028FB40
:100DB0000120E06101202061BDEC028BB0BD00BFCD
:100DC0009FED238A0020B0EE480AC4E90400A06128
:100DD00005F0C2FD40F6980006F012FB9FED1D0ADB
:100DE00004F0FAFB40F6B83006F00AFBB0EE480A11
:100DF00004F07CFB40F6980006F002FB9FED160A1B
:100E000004F0EAFB4FF4FA7006F0FAFA40F24B05F0
:100E1000C2F20005E87838B103F098FF0A2006F026
:100E2000EFFAE8780028F7D104F03EFE4FF4FA70AC
:100E300006F0E6FA9FED060A05F08EFD40F69800F2
:100E400006F0DEFA01202061BDEC028BB0BD00BFD0
:100E50000000B4429A99193FCDCCCC3DCDCC4C3F4B
:100E6000B0B540F254049FED500AC2F200040020D5
:100E7000206104F03BFB40F6980006F0C1FA40F216
:100E80004305C2F20005287840B100BF03F05EFFC1
:100E90000A2006F0B5FA28780028F7D104F004FEFD
:100EA0004FF4FA7006F0ACFA9FED400A04F0CAFB6A
:100EB00040F6980006F0A4FA9FED3D0A04F08CFB82
:100EC00040F6980006F09CFA9FED3A0A05F044FDC2
:100ED00040F6980006F094FA9FED370A04F07CFB88
:100EE0004FF4FA7006F08CFA40F24B05C2F200059E
:100EF000E87838B103F02AFF0A2006F081FAE87892
:100F00000028F7D104F0D0FD4FF4FA7006F078FA1B
:100F1000A068022844D19FED270A05F01DFD40F688
:100F2000980006F06DFA9FED240A04F055FB4FF48B
:100F3000FA7006F065FAE87840B100BF03F006FFEA
:100F40000A2006F05DFAE8780028F7D19FED1A0A2A
:100F500004F042FB4FF4FA7006F052FAE87838B128
:100F600003F0F4FE0A2006F04BFAE8780028F7D1E7
:100F700004F09AFD4FF4FA7006F042FA9FED0D0A64
:100F800005F0EAFC40F6980006F03AFA9FED0B0AED
:100F900004F022FB40F6B83006F032FA012020625D
:100FA00001202061B0BD00BF000034439A99993EF2
:100FB000A470BD3E0000B442CDCCCC3DCDCC4C3F66
:100FC00070B540F254049FED670AC2F2000400209D
:100FD000C4E90400A06104F089FA40F6980006F024
:100FE0000FFA9FED610A04F0F7FA4FF4FA7006F079
:100FF00007FA40F24B05C2F20005E87840B100BFA5
:1010000003F0A4FE0A2006F0FBF9E8780028F7D1E7
:101010009FED550A04F0E0FA4FF4FA7006F0F0F98B
:10102000E87838B103F092FE0A2006F0E9F9E87892
:101030000028F7D19FED4D0A04F058FA40F69800C9
:1010400006F0DEF940F24306C2F20006307838B10D
:1010500003F07CFE0A2006F0D3F930780028F7D19F
:1010600004F022FD4FF4FA7006F0CAF99FED400A31
:1010700004F0E8FA40F6980006F0C2F99FED3D0A48
:1010800004F0AAFA40F6980006F0BAF99FED370A84
:1010900005F062FC40F6980006F0B2F99FED320AC6
:1010A00004F09AFA4FF4FA7006F0AAF9E87838B129
:1010B00003F04CFE0A2006F0A3F9E8780028F7D1E7
:1010C00004F0F2FC4FF4FA7006F09AF9A0680228D6
:1010D00044D19FED260A05F03FFC40F6980006F04B
:1010E0008FF99FED210A04F077FA4FF4FA7006F0B9
:1010F00087F9E87840B100BF03F028FE0A2006F027
:101100007FF9E8780028F7D19FED170A04F064FA18
:101110004FF4FA7006F074F9E87838B103F016FE6F
:101120000A2006F06DF9E8780028F7D104F0BCFC3D
:101130004FF4FA7006F064F99FED0C0A05F00CFC10
:1011400040F6980006F05CF99FED0B0A04F044FAB3
:1011500040F6B83006F054F90120206201202061E9
:1011600070BD00BF00003443CDCCCC3D0000B44284
:101170009A99993ECDCCCC3ECDCC4C3F10B540F2A7
:101180005404C2F20004A06800210228216135D075
:10119000012839D0A8BBB5EE000A04F08DFA40F260
:1011A000DC5006F02DF99FED3C0A04F015FA40F2F0
:1011B000DC5006F025F9552004F0B2FE4FF44860EB
:1011C00006F01EF904F04CFC04F0EEFA04F08AFB81
:1011D00040F6C41006F014F99FED300A04F00CFC40
:1011E00040F2DC5006F00CF9412004F099FE40F288
:1011F000DC5006F005F99FED2C0A37E00120C4E928
:1012000002100120206110BD9FED220A04F054FA63
:1012100040F6980006F0F4F89FED1F0A04F0DCF9A0
:1012200040F2DC5006F0ECF82D2004F079FE4FF48B
:10123000486006F0E5F804F013FC04F0B5FA04F099
:1012400051FB40F6C41006F0DBF89FED140A04F0E1
:10125000D3FB40F2DC5006F0D3F8412004F060FEEE
:1012600040F2DC5006F0CCF89FED0D0A04F0EAF9EC
:1012700040F6980006F0C4F89FED0A0A04F036F92B
:1012800040F6980006F0BCF8A0680130A06001208C
:10129000206110BDC3F5A83E9A99193E0000C8C24E
:1012A000EC51B83E00003443713D8A3E10B52DED3F
:1012B000028B40F25404C2F20004A068002102280C
:1012C000216117D001281DD0B8B9B5EE008AB0EE63
:1012D000480A04F0F1F940F2DC5006F091F89FED75
:1012E0002F0A04F079F940F2DC5006F089F8552015
:1012F0001BE000BF0120C4E9021001202061BDEC09
:10130000028B10BD9FED248AB0EE480A04F0D4F998
:1013100040F6980006F074F89FED200A04F05CF99E
:1013200040F2DC5006F06CF82D2004F0F9FD4FF48B
:10133000486006F065F804F093FB04F035FA04F019
:10134000D1FA40F6C41006F05BF89FED150A04F0E0
:1013500053FB40F2DC5006F053F8412004F0E0FD6E
:1013600040F2DC5006F04CF8B0EE480A04F06AF99E
:1013700040F6980006F044F89FED0A0A04F0B6F82B
:1013800040F6980006F03CF8A0680130A06001200B
:101390002061BDEC028B10BDC3F5A83E9A99193EA1
:1013A0000000C8C20000344310B52DED028B40F29E
:1013B0005404C2F20004A06800210228216117D061
:1013C00001281DD0B8B9B5EE008AB0EE480A04F085
:1013D00073F940F2DC5006F013F89FED2F0A04F089
:1013E000FBF840F2DC5006F00BF855201BE000BF84
:1013F0000120C4E9021001202061BDEC028B10BD68
:101400009FED248AB0EE480A04F056F940F69800A1
:1014100005F0F6FF9FED200A04F0DEF840F2DC5004
:1014200005F0EEFF2D2004F07BFD4FF4486005F041
:10143000E7FF04F015FB04F0B7F904F053FA40F6A7
:10144000C41005F0DDFF9FED150A04F0D5FA40F257
:10145000DC5005F0D5FF412004F062FD40F2DC5085
:1014600005F0CEFFB0EE480A04F0ECF840F6980024
:1014700005F0C6FF9FED0A0A04F038F840F6980020
:1014800005F0BEFFA0680130A06001202061BDEC26
:10149000028B10BDC3F5A83E9A99193E0000C8C240
:1014A0000000344310B52DED028B40F25404C2F21B
:1014B0000004A06800210228216129D0012835D02C
:1014C00070BB9FED390A04F0BDF84FF4FA7005F0D7
:1014D00097FF552004F024FD4FF4486005F090FF7D
:1014E00004F0BEFA04F060F904F0FCF940F6C41010
:1014F00005F086FF9FED2D0A04F07EFA40F2DC50E5
:1015000005F07EFF412004F00BFD40F2DC5039E095
:1015100004F040F904F0AEFA40F2DC5005F070FF40
:1015200001202061BDEC028B10BD00BF9FED1E8A23
:10153000B0EE480A04F0C0F84FF4FA7005F060FF0E
:101540002D2004F0EDFC4FF4486005F059FF04F045
:1015500087FA04F029F904F0C5F940F6C41005F043
:101560004FFF9FED120A04F047FA40F2DC5005F0FD
:1015700047FF412004F0D4FCB0EE480A04F062F8C2
:101580004FF4FA7005F03CFF9FED090A03F0EEFFFF
:1015900040F2DC5005F034FFA0680130A06001206B
:1015A0002061BDEC028B10BDCDCC4C3D0000C8C20B
:1015B0009A99193E10B52DED048B40F25404C2F2F5
:1015C0000004A06800210228216133D001283FD007
:1015D000C0BB9FED438AB0EE480A03F0FDFF40F226
:1015E000DC5005F00DFF9FED3F0A04F02BF84FF49F
:1015F000FA7005F005FF552004F092FC4FF44860A6
:1016000005F0FEFE04F02CFA04F0CEF804F06AF9BE
:1016100040F6C41005F0F4FE9FED330A04F0ECF937
:1016200040F2DC5005F0ECFE412004F079FC40F281
:10163000DC5043E004F0AEF804F01CFA40F2DC5059
:1016400005F0DEFE01202061BDEC048B10BD00BF63
:101650009FED238AB0EE480A03F0BEFF40F2DC5053
:1016600005F0CEFE9FED1F9AB0EE490A04F024F873
:101670004FF4FA7005F0C4FE2D2004F051FC4FF435
:10168000486005F0BDFE04F0EBF904F08DF804F0BD
:1016900029F940F6C41005F0B3FE9FED130A04F0DB
:1016A000ABF940F2DC5005F0ABFE412004F038FC11
:1016B000B0EE490A03F0C6FF4FF4FA7005F0A0FE41
:1016C000B0EE480A03F052FF40F2DC5005F098FEFD
:1016D000A0680130A06001202061BDEC048B10BD2A
:1016E0009A99193ECDCC4C3D0000C8C210B52DEDE5
:1016F000048B40F25404C2F20004A06800210228C6
:10170000216133D001283FD0C0BB9FED438AB0EEAA
:10171000480A03F061FF40F2DC5005F071FE9FEDD6
:101720003F0A03F08FFF4FF4FA7005F069FE552071
:1017300004F0F6FB4FF4486005F062FE04F090F907
:1017400004F032F804F0CEF840F6C41005F058FE6C
:101750009FED330A04F050F940F2DC5005F050FEE2
:10176000412004F0DDFB40F2DC5043E004F012F8CD
:1017700004F080F940F2DC5005F042FE01202061C7
:10178000BDEC048B10BD00BF9FED238AB0EE480A6C
:1017900003F022FF40F2DC5005F032FE9FED1F9A6D
:1017A000B0EE490A03F088FF4FF4FA7005F028FE06
:1017B0002D2004F0B5FB4FF4486005F021FE04F045
:1017C0004FF903F0F1FF04F08DF840F6C41005F076
:1017D00017FE9FED130A04F00FF940F2DC5005F0FC
:1017E0000FFE412004F09CFBB0EE490A03F02AFFF3
:1017F0004FF4FA7005F004FEB0EE480A03F0B6FEAE
:1018000040F2DC5005F0FCFDA0680130A060012032
:101810002061BDEC048B10BD9A99193ECDCC4C3D96
:101820000000C8C210B52DED048B40F25404C2F282
:101830000004A06800210228216119D0012825D0C8
:10184000F0B99FED3F8AB0EE480A03F0FBFE40F688
:10185000980005F0D5FD9FED379AB0EE490A03F0E8
:10186000BBFE40F6980005F0CBFD552023E000BFFD
:1018700003F090FF04F0FEF840F2DC5005F0C0FDEC
:1018800001202061BDEC048B10BD00BFB5EE008AC5
:10189000B0EE480A03F0D6FE40F6980005F0B0FD21
:1018A0009FED249AB0EE490A03F096FE40F69800A8
:1018B00005F0A6FD2D2004F033FB40F2DC5005F0CE
:1018C0009FFD04F0CDF803F06FFF04F00BF840F635
:1018D000980005F095FD9FED180A04F08DF840F290
:1018E000DC5005F08DFD412004F01AFB40F2DC5085
:1018F00005F086FDB0EE490A03F038FE40F6980088
:1019000005F07EFDB0EE480A03F0D6FE40F69800E2
:1019100005F076FD9FED090A03F0E8FD40F698001A
:1019200005F06EFDA0680130A06001202061BDECD3
:10193000048B10BD6666E63E0000C8C2000034435A
:101940003333B33E10B52DED048B40F25404C2F294
:101950000004A06800210228216119D0012825D0A7
:10196000F0B99FED3F8AB0EE480A03F06BFE40F6F7
:10197000980005F045FD9FED379AB0EE490A03F057
:101980002BFE40F6980005F03BFD552023E000BFFC
:1019900003F000FF04F06EF840F2DC5005F030FD7B
:1019A00001202061BDEC048B10BD00BFB5EE008AA4
:1019B000B0EE480A03F046FE40F6980005F020FD20
:1019C0009FED249AB0EE490A03F006FE40F6980017
:1019D00005F016FD2D2004F0A3FA40F2DC5005F0CE
:1019E0000FFD04F03DF803F0DFFE03F07BFF40F64F
:1019F000980005F005FD9FED180A03F0FDFF40F289
:101A0000DC5005F0FDFC412004F08AFA40F2DC5085
:101A100005F0F6FCB0EE490A03F0A8FD40F6980088
:101A200005F0EEFCB0EE480A03F046FE40F69800E2
:101A300005F0E6FC9FED090A03F058FD40F698001A
:101A400005F0DEFCA0680130A06001202061BDEC43
:101A5000048B10BD6666E63E0000C8C20000344339
:101A60003333B33E10B52DED048B40F25404C2F273
:101A70000004A06800210228216119D0012825D086
:101A8000F0B99FED3F8AB0EE480A03F0DBFD40F667
:101A9000980005F0B5FC9FED379AB0EE490A03F0C7
:101AA0009BFD40F6980005F0ABFC552023E000BFFD
:101AB00003F070FE03F0DEFF40F2DC5005F0A0FC06
:101AC00001202061BDEC048B10BD00BFB5EE008A83
:101AD000B0EE480A03F0B6FD40F6980005F090FC21
:101AE0009FED249AB0EE490A03F076FD40F6980087
:101AF00005F086FC2D2004F013FA40F2DC5005F0CE
:101B00007FFC03F0ADFF03F04FFE03F0EBFE40F669
:101B1000980005F075FC9FED180A03F06DFF40F288
:101B2000DC5005F06DFC412004F0FAF940F2DC5085
:101B300005F066FCB0EE490A03F018FD40F6980087
:101B400005F05EFCB0EE480A03F0B6FD40F69800E2
:101B500005F056FC9FED090A03F0C8FC40F698001A
:101B600005F04EFCA0680130A06001202061BDECB2
:101B7000048B10BD6666E63E0000C8C20000344318
:101B80003333B33EF0B581B040F2540440F2430623
:101B900040F24B07C2F200040025C2F20006C2F276
:101BA0000007C4E905550BE00121A161FA786069DD
:101BB000002A02BF01290130C4E9050504280BD021
:101BC00003F0C4F8B079F1790843EDD0307871783A
:101BD0000843E9D0A169E9E703F066FF4FF4FA7022
:101BE00005F00EFC0120206101B0F0BDFEE7000011
:101BF00010B52DED028B40F254049FED210AC2F284
:101C000000040020206103F0B1FC40F2DC5005F03C
:101C1000F7FB9FED1C8AB0EE480A03F04DFD40F63D
:101C2000B83005F0EDFB40F23C00C2F20000007855
:101C3000606003F015FF03F0B7FD03F053FE40F6BC
:101C4000C41005F0DDFB9FED100A03F0D5FE40F255
:101C5000DC5005F0D5FBB0EE480A03F0F3FC40F28F
:101C6000DC5005F0CDFB9FED090A03F03FFC4FF47B
:101C7000486005F0C5FB01202061BDEC028B10BD62
:101C8000CDCC4C3D9A99993E0000C8C20000344327
:101C900010B540F25404C2F200040020B5EE000A70
:101CA0002061A06003F098FC40F6980005F0A8FBC6
:101CB00040F23C00C2F200000078606003F0D0FE09
:101CC00003F072FD03F00EFE40F6980005F098FB5D
:101CD0009FED050A03F090FE40F2DC5005F090FB0A
:101CE0000120206110BD00BF0000C8C210B52DED5D
:101CF000048B40F25404B5EE008AC2F200040020C6
:101D0000B0EE480A2061A06003F066FC40F698003F
:101D100005F076FB9FED219AB0EE490A03F092FCA4
:101D200040F6980005F06CFB40F23C00C2F2000067
:101D30000078606003F094FE03F036FD40F2DC5062
:101D400005F05EFB03F0CEFD40F6C41005F058FB35
:101D50009FED130A03F050FE40F2DC5005F050FBFB
:101D6000B0EE490A03F0A8FC40F6980005F048FBE5
:101D7000B0EE480A03F0FAFB40F6980005F040FB8D
:101D80009FED080A03F0B2FB40F6980005F038FB1F
:101D900001202061BDEC048B10BD00BF9A99993ED3
:101DA0000000C8C20000344340F25400C2F20000F8
:101DB00000690138B0FA80F04009704740F25400E1
:101DC000C2F200000169406881F0010180F0030067
:101DD0000843B0FA80F040097047000040F2540018
:101DE000C2F20000D0E9030181F001010843B0FA1A
:101DF00080F040097047000040F25400C2F2000039
:101E00000169406881F0010180F001000843B0FAE7
:101E100080F040097047000040F25400C2F2000018
:101E20000169406881F0010180F002000843B0FAC6
:101E300080F040097047000040F25400C2F20000F8
:101E4000D0E9030181F0010180F001000843B0FAFC
:101E500080F040097047000040F25400C2F20000D8
:101E60000169C06981F001010843B0FA80F04009BE
:101E70007047000040F25400C2F200000169C069DE
:101E800081F0010180F001000843B0FA80F04009C0
:101E90007047000040F25400C2F200000169006A7D
:101EA00081F001010843B0FA80F04009704700005A
:101EB00040F25400C2F20000006A0138B0FA80F02B
:101EC0004009704770470000B0B540F25405C2F2B7
:101ED00000050020C5E90400A861A868B5EE000A65
:101EE00040F2DC549FED211A0028C8BFB0EE410A31
:101EF000C8BF40F6980403F06FFB204605F080FA57
:101F000003F0D2FD4FF4FA7005F07AFA9FED180A4B
:101F100004F022FD40F6980005F072FA40F2430406
:101F2000C2F20004E07938B102F010FF0A2005F097
:101F300067FAE0790028F7D103F0B6FD4FF4FA70A4
:101F400005F05EFA9FED0B0A03F046FB40F69800A1
:101F500005F056FA9FED080A03F0AEFB4FF4486017
:101F600005F04EFA01202861B0BD00BFF628DC3E26
:101F70000000B442B81E053E9A99193FF0B581B0F1
:101F80002DED028B40F2540440F2430540F24B0722
:101F9000C2F200040026C2F20005C2F20007C4E942
:101FA0000466A6610CE000BF0121A161FA786069B6
:101FB000002A02BF01290130C4E9050603280BDA13
:101FC00002F0C4FEA879E9790843EDD02878697851
:101FD0000843E9D0A169E9E718D19FED1A8A0CE01E
:101FE000B0EE480A03F0F8FA4FF4FA7005F008FA78
:101FF000606901306061042808DA02F0A7FE2878E1
:1020000069780843ECD060690428F6DB03F04CFDE6
:1020100040F2DC5005F0F4F99FED0B0A04F09CFC53
:1020200040F2DC5005F0ECF99FED080A03F0D4FA19
:1020300040F2DC5005F0E4F901202061BDEC028B98
:1020400001B0F0BDCDCCCC3D0000B4429A99993E90
:10205000F0B581B02DED028B40F2540440F24305FF
:1020600040F24B07C2F200040026C2F20005C2F2A1
:102070000007C4E90466A6610CE000BF0121A1616C
:10208000FA786069002A02BF01290130C4E9050617
:1020900003280BDA02F05AFEA879E9790843EDD05B
:1020A000287869780843E9D0A169E9E7052819D8B3
:1020B0009FED2E8A0DE000BFB0EE480A03F08CFAC7
:1020C0004FF4FA7005F09CF96069013060610628F0
:1020D00008DA02F03BFE287869780843ECD06069A2
:1020E0000628F6DB03F0E0FC40F2DC5005F088F94E
:1020F0009FED1F0A03F070FA4FF4FA7005F080F9B3
:102100009FED1C0A04F028FC40F6980005F078F9D1
:1021100028786978084305D002F018FE2878697895
:102120000843F9D103F0C0FC40F2DC5005F068F937
:102130009FED110A03F086FA40F6980005F060F969
:10214000B6EE080A03F048FA41F2301005F058F9EB
:102150009FED080A04F000FC40F6980005F050F9E5
:1021600001202061BDEC028B01B0F0BDCDCCCC3D97
:10217000CDCC4C3D0000B4429A99993EB0B540F2A6
:102180005404C2F200040020B5EE000AC4E90400C1
:10219000A06103F0EBF940F6980005F031F99FEDEE
:1021A000180A03F0A3F940F6980005F029F940F267
:1021B0004305C2F20005E87940B100BF02F0C6FD58
:1021C0000A2005F01DF9E8790028F7D103F06CFC2E
:1021D00040F2DC5005F014F99FED0A0A03F0FCF917
:1021E0004FF4FA7005F00CF99FED070A04F0B4FB08
:1021F00040F6980005F004F901202061B0BD00BF51
:1022000000003443CDCCCC3D0000B442F0B581B0E9
:102210002DED028B40F254049FED3A0AC2F2000405
:102220000025C4E90455A56103F00CFA40F6AC5052
:1022300005F0E6F89FED340A03F058F940F69800EF
:1022400005F0DEF86069022820DC40F2430640F227
:102250004B07C2F20006C2F200070BE00121A161A8
:10226000FA786069002A02BF01290130C4E9050536
:1022700003280BDA02F06AFDB079F1790843EDD05A
:10228000307871780843E9D0A169E9E703281DD8BF
:102290009FED1E8A40F24305C2F200050DE000BF2B
:1022A000B0EE480A03F098F94FF4FA7005F0A8F878
:1022B000606901306061042808DA02F047FD28787F
:1022C00069780843ECD060690428F6DB03F0ECFB86
:1022D00040F2DC5005F094F89FED0D0A04F03CFB51
:1022E00040F2DC5005F08CF89FED0A0A03F074F917
:1022F00040F2DC5005F084F801202061BDEC028B37
:1023000001B0F0BD6666663F00003443CDCCCC3DE5
:102310000000B4429A99993EF0B581B02DED028B40
:1023200040F254049FED500AC2F200040025C4E9B3
:102330000455A56103F086F940F6AC5005F060F84D
:102340009FED4A0A03F0D2F840F6980005F058F8DD
:102350006069022820DC40F2430640F24B07C2F2DB
:102360000006C2F200070BE00121A161FA78606962
:10237000002A02BF01290130C4E9050503280BDA50
:1023800002F0E4FCB079F1790843EDD0307871784F
:102390000843E9D0A169E9E705281DD89FED348AF3
:1023A00040F24305C2F200050DE000BFB0EE480A5E
:1023B00003F012F94FF4FA7005F022F86069013069
:1023C0006061062808DA02F0C1FC287869780843C1
:1023D000ECD060690628F6DB03F066FB40F2DC50C7
:1023E00005F00EF89FED230A03F0F6F84FF4FA70AB
:1023F00005F006F89FED200A04F0AEFA40F69800CA
:1024000004F0FEFF40F24305C2F200052878697827
:10241000084305D002F09AFC287869780843F9D17E
:1024200003F042FB40F2DC5004F0EAFF9FED130A98
:1024300003F008F940F6980004F0E2FFB6EE080A4F
:1024400003F0CAF841F2301004F0DAFF9FED0A0AF7
:1024500004F082FA40F6980004F0D2FF01202061D7
:10246000BDEC028B01B0F0BD6666663F00003443F0
:10247000CDCCCC3DCDCC4C3D0000B4429A99993E98
:10248000B0B540F254049FED2B0AC2F200040020C4
:10249000C4E90400A06103F029F840F6980004F0B4
:1024A000AFFF9FED250A03F097F84FF4FA7004F0A0
:1024B000A7FF40F24B05C2F20005E87840B100BF2B
:1024C00002F044FC0A2004F09BFFE8780028F7D1D2
:1024D00003F0EAFA4FF4FA7004F092FF9FED150A48
:1024E00004F03AFA40F6980004F08AFF9FED120AD1
:1024F00003F072F84FF4FA7004F082FFE87838B114
:1025000002F024FC0A2004F07BFFE8780028F7D1D1
:1025100003F0CAFA4FF4FA7004F072FF9FED050A57
:1025200004F01AFA40F6980004F06AFF01202061D6
:10253000B0BD00BF0000B442CDCCCC3DB0B52DED58
:10254000028B40F254049FED2D0AC2F200040020D9
:10255000C4E90400A06103F03FF84FF4FA7004F0FE
:102560004FFF40F24B05C2F20005E87840B100BFD2
:1025700002F0ECFB0A2004F043FFE8780028F7D1D2
:1025800003F092FA4FF4FA7004F03AFF9FED1C8AC0
:10259000B0EE480A03F090F840F6980004F030FFDF
:1025A000B0EE480A03F018F840F6980004F028FF4F
:1025B0009FED140A02F09AFF40F6980004F020FF05
:1025C0009FED0E0A03F008F84FF4FA7004F018FFBC
:1025D000E87838B102F0BAFB0A2004F011FFE8787D
:1025E0000028F7D103F060FA4FF4FA7004F008FF06
:1025F00001202061BDEC028BB0BD00BFCDCCCC3D35
:102600009A99993E0000B442B0B540F254049FED4F
:10261000340AC2F200040020C4E90400A06102F000
:10262000DBFF4FF4FA7004F0EBFE40F24B05C2F210
:102630000005E87840B100BF02F088FB0A2004F0F2
:10264000DFFEE8780028F7D103F02EFA4FF4FA7095
:1026500004F0D6FE9FED220A02F0BEFF4FF4FA709E
:1026600004F0CEFEE87838B102F070FB0A2004F0E6
:10267000C7FEE8780028F7D103F016FA4FF4FA7095
:1026800004F0BEFE9FED170A03F016F840F6B830CE
:1026900004F0B6FE40F24305C2F20005287838B1D6
:1026A00002F054FB0A2004F0ABFE28780028F7D192
:1026B00003F0FAF94FF4FA7004F0A2FE9FED080A55
:1026C00002F08AFF4FF4FA7004F09AFE03F0ECF97E
:1026D0004FF4FA7004F094FE01202061B0BD00BFF9
:1026E000CDCCCC3D9A99193F10B52DED028B40F21F
:1026F0005404C2F20004A0680021022821610FD016
:10270000012817D080B99FED228AB0EE480A02F066
:1027100063FF40F2DC5004F073FE5F2015E000BF61
:1027200003F038F803F0A6F901202061BDEC028B1C
:1027300010BD00BF9FED168AB0EE480A02F04CFFB4
:1027400040F2DC5004F05CFE0F2003F0E9FB4FF494
:10275000FA7004F055FE03F01DF803F08BF940F217
:10276000DC5004F04DFE412003F0DAFB40F2DC5077
:1027700004F046FEB0EE480A02F0F8FE40F2DC50EB
:1027800004F03EFE01202061BDEC028B10BD00BFB5
:102790009A99193E10B52DED028B40F25404C2F205
:1027A0000004A0680021022821610FD0012817D061
:1027B00080B99FED228AB0EE480A02F00DFF40F288
:1027C000DC5004F01DFE5F2015E000BF02F0E2FFC8
:1027D00003F050F901202061BDEC028B10BD00BF59
:1027E0009FED168AB0EE480A02F0F6FE40F2DC5089
:1027F00004F006FE0F2003F093FB40F2DC5004F0DF
:10280000FFFD02F0C7FF03F035F940F2DC5004F0A1
:10281000F7FD412003F084FB40F2DC5004F0F0FDB2
:10282000B0EE480A02F0A2FE40F2DC5004F0E8FDEF
:1028300001202061BDEC028B10BD00BF9A99193EAA
:1028400010B52DED028B40F25404C2F20004A068D2
:102850000021022821610FD0012813D0B0BB9FEDC9
:102860001E8AB0EE480A02F0B7FE40F2DC5004F0D7
:10287000C7FD7D2011E000BF02F08CFF03F0FAF8E5
:1028800020E000BF9FED148AB0EE480A02F0A4FEDB
:1028900040F2DC5004F0B4FD232003F041FB40F291
:1028A000DC5004F0ADFD02F075FF03F0E3F84120C9
:1028B00003F036FB40F2DC5004F0A2FDB0EE480A13
:1028C00002F054FE40F2DC5004F09AFD0120206139
:1028D000BDEC028B10BD00BF9A99193E10B52DEDCD
:1028E000028B40F25404C2F20004A06800210228C6
:1028F00021610FD0012813D0B0BB9FED1E8AB0EE2E
:10290000480A02F069FE40F2DC5004F079FD7D20B7
:1029100011E000BF02F03EFF03F0ACF820E000BF82
:102920009FED148AB0EE480A02F056FE40F2DC50E9
:1029300004F066FD232003F0F3FA40F2DC5004F0CB
:102940005FFD02F027FF03F095F8412003F0E8FA5D
:1029500040F2DC5004F054FDB0EE480A02F006FEEE
:1029600040F2DC5004F04CFD01202061BDEC028BF4
:1029700010BD00BF9A99193E10B52DED028B40F2A3
:102980005404C2F20004A0680021022821610FD083
:10299000012813D0B0BB9FED1E8AB0EE480A02F0AA
:1029A0001BFE40F2DC5004F02BFD7D2011E000BF47
:1029B00002F0F0FE03F05EF820E000BF9FED148A05
:1029C000B0EE480A02F008FE40F2DC5004F018FDB8
:1029D000232003F0A5FA40F2DC5004F011FD02F0D0
:1029E000D9FE03F047F8412003F09AFA40F2DC5098
:1029F00004F006FDB0EE480A02F0B8FD40F2DC50EB
:102A000004F0FEFC01202061BDEC028B10BD00BF74
:102A10009A99193E10B52DED028B40F25404C2F282
:102A20000004A0680021022821610FD0012813D0E2
:102A3000B0BB9FED1E8AB0EE480A02F0CDFD40F219
:102A4000DC5004F0DDFC7D2011E000BF02F0A2FEAE
:102A500003F010F820E000BF9FED148AB0EE480AA2
:102A600002F0BAFD40F2DC5004F0CAFC232003F06F
:102A700057FA40F2DC5004F0C3FC02F08BFE02F087
:102A8000F9FF412003F04CFA40F2DC5004F0B8FCAE
:102A9000B0EE480A02F06AFD40F2DC5004F0B0FCEF
:102AA00001202061BDEC028B10BD00BF9A99193E38
:102AB00010B52DED028B40F25404C2F20004A06860
:102AC0000021022821610FD0012813D0B0BB9FED57
:102AD0001E8AB0EE480A02F07FFD40F2DC5004F09E
:102AE0008FFC7D2011E000BF02F054FE02F0C2FF17
:102AF00020E000BF9FED148AB0EE480A02F06CFDA2
:102B000040F2DC5004F07CFC232003F009FA40F290
:102B1000DC5004F075FC02F03DFE02F0ABFF4120FA
:102B200003F0FEF940F2DC5004F06AFCB0EE480A13
:102B300002F01CFD40F2DC5004F062FC0120206138
:102B4000BDEC028B10BD00BF9A99193E10B52DED5A
:102B5000028B40F25404C2F20004A0680021022853
:102B600021610FD0012813D0B0BB9FED1E8AB0EEBB
:102B7000480A02F031FD40F2DC5004F041FC7D20B7
:102B800011E000BF02F006FE02F074FF20E000BF7B
:102B90009FED148AB0EE480A02F01EFD40F2DC50B0
:102BA00004F02EFC232003F0BBF940F2DC5004F0CB
:102BB00027FC02F0EFFD02F05DFF412003F0B0F9C9
:102BC00040F2DC5004F01CFCB0EE480A02F0CEFCEF
:102BD00040F2DC5004F014FC01202061BDEC028BBB
:102BE00010BD00BF9A99193E10B52DED028B40F231
:102BF0005404C2F20004A0680021022821610FD011
:102C000001281DD0B0B99FED238AB0EE480A02F02A
:102C1000E3FC40F2DC5004F0F3FB7D201BE000BF3E
:102C200002F0B8FD02F026FF40F2DC5004F0E8FBB1
:102C30000120206201202061BDEC028B10BD00BF8D
:102C40009FED148AB0EE480A02F0C6FC40F2DC5058
:102C500004F0D6FB232003F063F940F2DC5004F0CB
:102C6000CFFB02F097FD02F005FF412003F058F979
:102C700040F2DC5004F0C4FBB0EE480A02F076FCEF
:102C800040F2DC5004F0BCFB01202061BDEC028B63
:102C900010BD00BF9A99193E72B600BFFEE7000052
:102CA000F0B540F24300C2F200000278437890F899
:102CB00002E082F0010183F0010739438EF0010741
:102CC00051EA070C16D10121C17001799FED4D1A0F
:102CD00001294FF000012CD14479012C29D18479AC
:102CE000012C26D1C479012C04BFB0EE0C0AF0BD32
:102CF0001FE000BFB9EE000A9FED421A002A4FF014
:102D0000010108BFB0EE401AB8EE040A08BF022164
:102D1000002BB2FA82F431EE000A0CBFB0EE401A7A
:102D20006109BEF1000F04D1BFEE000A31EE001AB6
:102D30000131BEEE000AC77831EE000A0479B6EE22
:102D4000002A45798679002F04BFB0EE401A013180
:102D500031EE020A002C04BFB0EE401A0131B7EE8A
:102D6000000A1A4331EE000A42EA0E02002D04BFA7
:102D7000B0EE401A0131B0EE040A3A4331EE000AD7
:102D8000002E04BFB0EE401A0131C07942EA0403BC
:102D9000B1EE003A2B4331EE030A002843EA060362
:102DA00004BFB0EE401A01310343B0EE0C0A27D045
:102DB000002A08BF012D1FD044EA050333431843FE
:102DC000BCFA8CF2B0FA80F052094009024218BFF6
:102DD000F0BD00EE101AB8EEC00A81EE000AB6EEA1
:102DE0000C1A30EE030A20EE010A30EE020ABDEEA4
:102DF000C00AB8EEC00AF0BD012EDDD10128DBD13A
:102E0000F0BD00BF00000000B0B5044600F0E6F8D9
:102E1000054640F20800C2F200000078611C18BFAD
:102E2000044400BF00F0DAF8401BA042FAD3B0BD62
:102E30002DE9F04F82B000F13E4707F1FF7786059C
:102E400046EA972741F60046C4F20206082243F6F6
:102E5000004EB04208BF0722C4F2010E072F38BF50
:102E60003A46002600274FF00008009209E000BF14
:102E700008F101080237B8F1100F06F1040600F05E
:102E8000A3800D68012202FA08F415EA0409EFD0C4
:102E9000D1F804B003220BF0030CACF10105BA40E9
:102EA000012D6FEA020A0FD88268CD6802EA0A0291
:102EB000BD402A4382604268A243CBF3001404FA67
:102EC00008F42243426005E0BCF1030F02D14FF049
:102ED000030C1EE0C2688C6802EA0A02BC4022436E
:102EE000BCF1020FC26014D16FF0030202EA580273
:102EF0000244D2F820C006F01C040F230D69A34041
:102F00002CEA0303A5402B431362D1F804B00BF065
:102F1000030C02680CFA07F302EA0A021A431BF4D4
:102F2000403F0260A4D0002243F644030192C4F261
:102F300002031A684FF6084C42F480421A601A687D
:102F4000CFF6FF7C02F480420192019A28F003023E
:102F5000724452F80C3006F00C050F24AC40A34329
:102F6000009C04FA05F52B4342F80C30DEF80820EB
:102F70004B6842EA090543F60C4CDC0258BF22EAD2
:102F80000905CEF80850C4F2010CDCF800209C02C0
:102F900042EA090558BF22EA0905CCF80050DEF8DC
:102FA00004209C0342EA090558BF22EA0905CEF82D
:102FB0000450DEF80020DB0342EA090558BF22EA8C
:102FC0000905CEF8005053E702B0BDE8F08F0000CD
:102FD000002A08BF090481617047000044F278208C
:102FE000C2F2000000687047002804BF012070474B
:102FF000F0B581B0044690F83D0028B9002084F86F
:103000003C00204600F0CEF9242084F83D002068E2
:10301000016821F001010160016841F40041016093
:10302000016821F40041016000F0D4FB636848F2BC
:10303000A16CC0F2010C40F60011C0F23D016345E5
:103040003CBF48F28041C0F21E01884202D20120FA
:1030500001B0F0BD4DF68361C4F21B31A0FB01123B
:103060002168970CD1F804E04FF496762EF03F05D6
:1030700045EA92454D60774348F638160D6AC0F22E
:103080004106A7FB067625F03F07634538BF960C3F
:10309000721C3A430A62CA6948F2A0664CF6FF778E
:1030A000C0F20106B34222EA07020BD801385B00E6
:1030B000B0FBF3F001306FF31F30042898BF0420F9
:1030C0001BE000BFA768013857B119277B43B0FB4D
:1030D000F3F001306FF31F3070B100F5804007E06E
:1030E00003EB4303B0FBF3F001306FF31F3018B173
:1030F00000F5004001E000BF01201043C8610868EE
:10310000D4E9072320F0C000104318430860886802
:1031100048F2FF3204F10C0790438CCF1843104360
:10312000A6698860C86820F0FF0038433043C86053
:10313000086840F00100086000202021206484F825
:103140003D10206384F83E0001B0F0BD2DE9F0474A
:1031500084B0994616460F460446FFF73FFF94F8A1
:103160003D10202927D10546206800BF81698907C5
:103170001CD5FFF733FF411B20681A29F6D381695C
:103180008907F3D500202021206384F83D1084F8BE
:103190003E00206C04F13C0A40F020002064022034
:1031A00000218AF8001004B0BDE8F087A2461AF8A2
:1031B0003C1F012904D1022004B0BDE8F08700BF04
:1031C00001228AF800200368DDE90D180C9ADB075C
:1031D00003D1036843F001030360036823F4006331
:1031E0000360222084F83D00402084F83E00002047
:1031F000206462626185608D394620850020CFF6AB
:10320000FF70E062204632464B46CDE9008501F072
:103210001BFB18B1012004B0BDE8F087208DA8B1D8
:1032200002282BD0012835D121680A6822F4806257
:103230000A60002203924A6903928A690392039A00
:103240000A6842F400720A602CE000BF002003907C
:10325000206841690391816903910399016841F4F0
:1032600000710160202084F83D00002084F83E00B9
:1032700000218AF8001004B0BDE8F08721680A68D0
:1032800022F480620A600A6842F400620A60002246
:10329000039202E00021039121684A69039289693F
:1032A000039103990427C0F201070CE0106908702C
:1032B000606A218D01306062481E2085618D013970
:1032C00061850104CED080B203280FD802284AD0ED
:1032D00001282DD1204641462A4601F091FC0028C4
:1032E00098D12068616A0069E1E700BF2046414645
:1032F0002A4601F085FC00287FF48CAF2068616AC3
:1033000000690870606A2268411C208D6162013882
:103310002085638D013B638553695B07D1D580B2FE
:103320000328C3D1106820F480601060BEE700BF9E
:103330002046394600224346009501F00FFB002845
:103340007FF468AF2068616A026822F480620260DC
:1033500000690870606A218D01306062481E208516
:10336000608D01386085204639460022434600952D
:1033700001F0F4FA00287FF44DAF2068616A02681A
:1033800042F40072026000690870606A2268411CA1
:103390006162218D01392185618D01396185116954
:1033A000417085E72DE9F04786B0006845F6004199
:1033B000C4F2000100268842CDE90466CDE9026628
:1033C00001962FD045F60001C4F2000188426ED16B
:1033D000002543F630040095C4F20204206801A9D8
:1033E00040F002002060206800F002000090009889
:1033F0004FF4406001901220CDE9020503200490B3
:10340000042005900020C4F2020000F58060FFF760
:103410000FFD0095206940F480002061206900F4D0
:10342000800042E043F630070096C4F20207386895
:10343000002440F0040038603868C4F2020400F050
:103440000400009000980096386801AD40F001003B
:10345000386038684FF0120800F0010000900098C2
:103460004FF4007001904FF003094FF0040A04F587
:1034700000602946CDE90286CDF81090CDF814A061
:10348000FFF7D6FC4FF48070CDE9010803A880E86F
:10349000400620462946FFF7CBFC0096386940F4E9
:1034A00000003861386900F400000090009806B010
:1034B000BDE8F08740F2080044F27821C2F2000033
:1034C000C2F2000100780A681044086070470000EA
:1034D00080B543F60040C4F20200016841F4007177
:1034E0000160016841F480610160016841F480710C
:1034F0000160032000F0ACF80F2000F005F800F0A8
:1035000027F8002080BD000070B540F20806C2F226
:10351000000640F214013278C2F200014FF47A73CF
:103520000968B3FBF2F20446B1FBF2F1084600F081
:1035300087FB0F2C4FF0010508D838B94FF0FF304A
:1035400021460022002500F057F87460284670BD1F
:1035500080B582B0002043F640010190C4F2020120
:103560004A6842F480424A604A6802F4804201920A
:10357000019A00900868002240F0805008600868B6
:10358000012100F08050009000986FF00B0000F0D7
:1035900033F86FF00A000121002200F02DF86FF0DF
:1035A00009000121002200F027F86FF0040001213A
:1035B000002200F021F86FF003000121002200F04A
:1035C0001BF86FF001000F21002202B0BDE880401F
:1035D00000F012B8002848BF704700F01F01012218
:1035E00002FA01F11C2202EAD0004EF20012CEF2E1
:1035F000000281507047000010B54EF60C5CCEF210
:10360000000CDCF80030C3F3022E8EF00704042C0B
:1036100028BF0424BEF103034FF0FF3E0EFA04F46A
:1036200038BF0023A14399400EFA03F39A43114394
:1036300000F00F0200F160430901043A03F564430E
:103640006244002848BF02F10C03197010BD00004D
:103650004EF60C51CEF200010A684FF6FF031A40F5
:1036600060F30A2242F0806040F0FD70086070470D
:10367000002804BF012070472DE9F04143F60808F7
:10368000C4F202080446D8F8F8030D4600F007001B
:10369000884207D288F8F853D8F8F80300F00700FA
:1036A000A84277D12068810717D5410705D5D8F8FA
:1036B000001041F4E051C8F80010010705D5D8F812
:1036C000001041F46041C8F80010D8F80010A2685A
:1036D00021F0F0011143C8F80010C00740D1D8F81C
:1036E000F80300F00700A84207D988F8F853D8F883
:1036F000F80300F00700A8424CD12068410707D525
:10370000D8F80010E26821F4E0511143C8F8001025
:10371000000708D5D8F80000216920F4604040EA8D
:10372000C100C8F8000000F07DF8D8F8001047F696
:103730001842C1F30311C0F60002515C40F21402BA
:1037400020FA01F140F20C00C2F200000068C2F25F
:1037500000021160FFF7D8FE0020BDE8F08100BF35
:103760006068811E022907D258F8081C89015CBFD5
:103770000120BDE8F08111E0012807D158F8081CAC
:1037800089035CBF0120BDE8F08107E058F8081C00
:10379000890703D40120BDE8F08100BFD8F80010EC
:1037A00021F003010843C8F80000FFF717FC0646A4
:1037B00041F28837D8F80000616800F00C00B0EBE7
:1037C000810F8CD0FFF70AFC801BB842F2D903208E
:1037D000BDE8F08140F2140043F60801C2F2000097
:1037E000C4F202010068096847F62842C1F3822149
:1037F000C0F60002515CC8407047000040F214005F
:1038000043F60801C2F20000C4F202010068096830
:1038100047F62842C1F34231C0F60002515CC8406D
:103820007047000010B543F60404C4F20204606857
:1038300000F00C0008280BD0042819BF42F2004009
:10384000C0F2F40047F64000C0F27D1010BD00BF8A
:10385000206821682368490247F64001C0F27D11C3
:1038600000F03F02C3F388105CBF42F20041C0F297
:10387000F401A1FB00010023FCF7A2FC2168022255
:10388000C1F3014102EB4101B0FBF1F010BD0000BA
:10389000002804BF012070472DE9F04182B00446A2
:1038A000007843F60006C007C4F202060CD0B068E8
:1038B00000F00C00042840F081803068800303D5BC
:1038C0006068002800F06A81207880071BD5B06806
:1038D00010F00C0F09D0B06800F00C00082840F080
:1038E00087807068400200F183803068800703D5CC
:1038F000E068012840F052813068216920F0F8002A
:1039000040EAC10030602078000713D420784007D7
:103910002AD4A569002D00F03C81B06800F00C00AD
:10392000082840F0A180012D40F01081012002B054
:10393000BDE8F0816069002840F20000C4F2472031
:1039400000F07E800121C0F8801EFFF747FB05468E
:10395000706F8007DAD4FFF741FB401B0228F7D9CC
:10396000032002B0BDE8F081306C5FEAC0080AD4E1
:1039700000200190306C40F080503064306C00F0DA
:1039800080500190019847F20007C4F200073868A0
:10399000C00547D4386840F480703860FFF71EFBDC
:1039A000054600BF3868C0053CD4FFF717FB401B35
:1039B0000228F7D9032002B0BDE8F081B06800F01A
:1039C0000C00082803D1706840023FF576AF6068AC
:1039D000B0F5803F07D0B0F5A02F40F09B80306855
:1039E00040F480203060306840F4803030609BE0EC
:1039F000E06800285CD00020C4F24720012101606B
:103A0000FFF7ECFA054600BF306880073FF574AF5A
:103A1000FFF7E4FA401B0228F6D9032002B0BDE804
:103A2000F08100BFA068012805D0052854D1306F6F
:103A300040F004003067306F40F00100306755E01F
:103A40000021C0F8801EFFF7C9FA0546706F800795
:103A50007FF55CAFFFF7C2FA401B0228F6D90320BE
:103A600002B0BDE8F08100BF0027C4F24727002064
:103A70003866FFF7B3FA022D05460DD13068800194
:103A800040F19080FFF7AAFA401B02284FF0030094
:103A9000F4D902B0BDE8F0813068800179D5FFF734
:103AA0009DFA401B02284FF00300F5D9F1E700BF53
:103AB0000020C4F2472000210160FFF78FFA05467D
:103AC000306880077FF51FAFFFF788FA401B022898
:103AD0004FF00300F4D9DCE7316F002821F0010139
:103AE0003167316F21F0040131677DD0FFF776FA3D
:103AF000054641F2883700BF306F800700F18680AD
:103B0000FFF76CFA401BB842F6D9032002B0BDE8BB
:103B1000F08100BF3168002821F4803131603168C4
:103B200021F4802131607BD0FFF758FA054600BFB1
:103B3000306880033FF5C8AEFFF750FA401B642899
:103B4000F6D9032002B0BDE8F08100BF7068E169DA
:103B500000F480028A4221D1216A00F03F028A42A9
:103B60001CD147F6C071626A0140B1EB821F15D1CA
:103B7000A16A4FF6FF73C903994300F44032A1F5DF
:103B800080318A420AD1E16A00F07060B0EB016FC7
:103B900004D1002002B0BDE8F08100BF012002B0D6
:103BA000BDE8F08104F11C052FCD084340EA8210E6
:103BB000D9034FF6FF729143A1F5803140EA0560C9
:103BC0000843706001203866FFF708FA044600BF1A
:103BD00030688001DDD4FFF701FA001B02284FF0A6
:103BE0000300F5D955E700BFFFF7F8F9054641F2A4
:103BF000883700BF306F800708D5FFF7EFF9401B0B
:103C0000B8424FF00300F5D943E700BFB8F1000F09
:103C10003FF57FAE306C20F08050306479E600BF15
:103C2000FFF7DCF9054600BF306880037FF54CAE36
:103C3000FFF7D4F9401B64284FF00300F4D928E7BC
:103C4000411E0020B0EB116F1CBF012070474EF2E7
:103C50001002CEF2000251604EF62351CEF2000166
:103C6000F0230B70072190601160704770470000CF
:103C70007047000090F83C20012A4FF0020254D017
:103C800010B580F83D200268D2F804E0D2F808C0F0
:103C90000C682EF07003234341F2FF74C4F2000459
:103CA000A24253600EDC40F2FF73C4F200039A425A
:103CB00016DCB2F1804F2BD040F20043C4F2000377
:103CC00024E000BF40F2FF33C4F201039A4213DC48
:103CD00041F60003C4F200039A4219D0002313E016
:103CE00040F60003C4F200039A4211D040F60043AC
:103CF000C4F200030AE000BF44F20003C4F201036F
:103D00009A4205D040F20043C4F201039A4204D122
:103D100049682CF08003194391600121002280F84A
:103D20003D1080F83C20BDE8104010467047000070
:103D3000002804BF0120704710B5044690F83D00EC
:103D400028B9002084F83C00204600F01FF802202B
:103D500084F83D002068211D01F0A4FF012084F8B3
:103D6000460084F83E0084F83F0084F8400084F860
:103D7000410084F8420084F8430084F8440084F849
:103D8000450084F83D00002010BD000080B582B0E1
:103D9000006800F14041800540EA9120042858D88D
:103DA000DFE800F00412203A480000BF0020019034
:103DB00043F64000C4F20200016841F001010160D5
:103DC000006800F0010042E00020019043F640004E
:103DD000C4F20200016841F002010160006800F0D5
:103DE000020034E00020019043F64000C4F20200DB
:103DF0000168002241F0040101600068052100F023
:103E00000400019001981E20FFF7F6FB1E2002B06F
:103E1000BDE88040FFF7DEBB0020019043F6400084
:103E2000C4F20200016841F008010160006800F07E
:103E300008000CE00020019043F64000C4F20200AC
:103E4000016841F010010160006800F0100001906D
:103E5000019802B080BD000090F83D1001291CBF00
:103E600001207047022180F83D10006841F2FF7286
:103E7000C168C4F20002904241F00101C1600DDC52
:103E800040F2FF71C4F20001884215DCB0F1804FAE
:103E90002AD040F20041C4F2000123E040F2FF3199
:103EA000C4F20101884213DC41F60001C4F20001B2
:103EB000884219D0002113E040F60001C4F200014D
:103EC000884211D040F60041C4F200010AE000BF70
:103ED00044F20001C4F20101884205D040F20041E1
:103EE000C4F20101884206D1816801F00701062968
:103EF00004BF00207047016841F00101016000200B
:103F00007047000090F83C20012A4FF0020200F0B8
:103F1000C58080B580F83D20D0F800C04FF677729C
:103F2000DCF8083023EA0202CCF808200B684F2B9B
:103F300028DC1F2B44DD202B45D0302B43D0402BD9
:103F400040F0AE80D1F804E0C968DCF82030DCF83D
:103F5000202022F00102CCF82020DCF8182022F0EA
:103F6000F00242EA011123F00A0242EA0E02CCF802
:103F70001810CCF82020DCF8081041F0470121F09F
:103F8000300180E06F2B27DDB3F5005F48D0B3F53B
:103F9000805F7AD0702B40F08380D1E901E3C9685B
:103FA000DCF8082043EA0E0322F47F4243EA0121B1
:103FB0001143CCF80810DCF8081041F0770162E0FA
:103FC0000BB1102B6CD1DCF8081021F070011943F3
:103FD00041F0070157E000BF502B35D0602B5FD177
:103FE000D1F804E0C968DCF82030DCF8202022F0A9
:103FF0001002CCF82020DCF8182022F4704242EAAB
:10400000013123F0A00242EA0E12CCF81810CCF8CD
:104010002020DCF8081041F0670121F0100132E0A7
:10402000D1E901E3C968DCF8082043EA0E0322F471
:104030007F4243EA01211143CCF80810DCF8081054
:1040400041F480411FE000BFD1F804E0C968DCF80A
:104050002030DCF8202022F00102CCF82020DCF80F
:10406000182022F0F00242EA011123F00A0242EA8B
:104070000E02CCF81810CCF82020DCF8081041F023
:10408000570121F02001CCF808100022012180F80E
:104090003D10002180F83C10BDE88040104670477C
:1040A0000122F3E77047000070B504460068C56858
:1040B0000669B10716D515F0020113D06FF00201A1
:1040C0000161012121778069800703D02046FFF735
:1040D000E9FF05E0204600F08FF8204600F0D0F917
:1040E00000202077700719D515F0040016D020683D
:1040F0006FF00401016102212177806910F4407F93
:1041000004D02046FFF7CEFF06E000BF204600F0B7
:1041100073F8204600F0B4F900202077300717D557
:1041200015F0080014D020686FF008010161042127
:104130002177C069800703D02046FFF7B3FF05E071
:10414000204600F059F8204600F09AF90020207728
:10415000F00619D515F0100016D020686FF0100188
:10416000016108212177C06910F4407F04D0204606
:10417000FFF798FF06E000BF204600F03DF820461C
:1041800000F07EF900202077F00718BF15F001003D
:1041900002D1300609D412E020686FF001010161FC
:1041A000204600F0FFF9300609D515F0800006D052
:1041B00020686FF0800101612046FFF757FD70060F
:1041C00009D515F0400006D020686FF0400101616C
:1041D000204600F0E9F9B00658BF70BD15F0200088
:1041E00008D021686FF0200220460A61BDE87040C7
:1041F000FFF73EBD70BD00007047000090F83C30F6
:10420000012B04BF022070474FEAB202032A00F2DA
:1042100001812DE9F043DFE802F0033F7FBF00BFDB
:10422000036840F200461C6A1A6A24F0020422F075
:1042300001021A621A46D3F804C052F818EF8F68C8
:1042400043F48065C4F20106B54244EA070405D18F
:10425000CF6824F00C0427F004073C430F68B542F4
:1042600006D1D1E905582CF440762E4346EA080CD5
:104270002EF073063743C3F804C09F614F68096985
:104280005F631C629F6947F008079F619F6927F081
:1042900004079F61B2E000BF036840F200481C6A57
:1042A0001A6A24F0200422F010021A621A46D3F887
:1042B00004C052F818EF8F6843F48065C4F2010817
:1042C000454544EA071407D1CF686FF0400624F053
:1042D000C00406EA07163443D1F80090454506D1DC
:1042E000D1E905562CF440672E4347EA860C2EF49C
:1042F000E64747EA0927C3F804C09F614F68096988
:104300009F631C629F6947F400679F619F6927F460
:1043100080679F6171E000BF036840F200481C6A3B
:104320001A6A24F4007422F480721A621A46D3F8CE
:1043300004C052F81CEF8F6843F48065C4F2010892
:10434000454544EA072408D1CF6840F2FF463F02C2
:1043500024F4406427EA06063443D1F8009045452A
:1043600006D1D1E905562CF440572E4347EA061CE6
:104370002EF0730747EA0907C3F804C0DF614F68EE
:104380000969DF631C62DF6947F00807DF61DF69E5
:1043900027F00407DF6131E0036840F20045D3F8FD
:1043A00020C01A6A43F4806722F480521A621A46C7
:1043B0005C6852F81CEFD1F800808E68C4F20105E9
:1043C000AF4204D14D6924F4804444EA85142CF4AE
:1043D000005747EA06372EF4E64646EA08265C60B0
:1043E000DE614E6809691E641F62DF6947F4006779
:1043F000DF61DF6927F48067DF6109021368194311
:1044000011600021BDE8F043002280F83C200846FE
:10441000704700BF0121002280F83C200846704709
:10442000002804BF0120704710B5044690F83D00F5
:1044300028B9002084F83C00204600F01FF8022034
:1044400084F83D002068211D01F02CFC012084F837
:10445000460084F83E0084F83F0084F8400084F869
:10446000410084F8420084F8430084F8440084F852
:10447000450084F83D00002010BD0000704700009A
:104480007047000041B1082910D0042914BF00F181
:10449000410200F13F020BE090F83E20012A1CBFD0
:1044A00001207047022280F83E2013E000F1400214
:1044B0001278012A1CBF012070470222082907D068
:1044C000042914BF80F8412080F83F2002E000BF9B
:1044D00080F84020006801F01F010122036A02FAFF
:1044E00001F123EA01020262026A114341F2FF7202
:1044F000C4F200029042016210DC40F2FF71C4F28B
:10450000000188421CDCB0F1804F3FD040F20041F6
:10451000C4F20001884239D03DE000BF40F2FF31D3
:10452000C4F20101884219DC41F60001C4F2000125
:1045300088422BD00021C4F2010188421AD02AE01F
:1045400040F60001C4F2000188421FD040F600414D
:10455000C4F20001884219D01DE000BF44F20001FE
:10456000C4F20101884211D040F20041C4F20101BD
:10457000884210D1416C40F2004340F48062C4F2A2
:10458000010341F400419A42416404D1816801F081
:104590000701062903D0016841F0010101600020F4
:1045A000704700007047000070470000002804BFFB
:1045B0000120704710B5044690F8410028B900204A
:1045C00084F84000204600F021F8242084F84100BF
:1045D0002068C16821F40051C160204601F004FC4C
:1045E0002068016921F490410161416921F02A01AB
:1045F0004161C16841F40051C16000202021606424
:1046000084F8411084F84210606310BD80B586B014
:10461000006844F20042C4F2000200219042CDE959
:104620000411CDE90211019124D041F20001C4F23C
:104630000101884248D1002043F630010090C4F2C5
:1046400002014A6942F010024A614A6902F010020E
:104650000092009A0090086840F001000860086825
:104660004FF4C06100F00100009000980020C4F2F7
:1046700002001DE043F630000091C4F2020002691E
:1046800042F400320261026902F400320092009AA0
:104690000091016841F0080101600068602100F0AC
:1046A0000800009000980020C4F2020000F540606D
:1046B000019102210291002103910321049107211C
:1046C000059101A9FEF7B4FB06B080BD2DE9F041CC
:1046D000044690F8410020281CBF0220BDE8F0816C
:1046E0000D4600294FF0010000F0AA801646002A6E
:1046F00008BFBDE8F081002060642120984684F85E
:104700004100FEF76BFCA684E684A1680646B1F57D
:10471000805F02D12069002862D02F460025E08CFE
:10472000002861D018F1010018D0B8F1000F37D17E
:10473000216808E017F8010B4860E08C0138E0843C
:10474000E08C002851D00868000673D5002FF1D105
:1047500035F8020B00276FF35F20EDE7216802E0D8
:104760000868000609D40868000606D40868000630
:104770005CBF08685FEA0060F2D51FB117F8010B53
:1047800005E000BF35F8020B00276FF35F2048609B
:10479000E08C0138E084E08C0028E4D125E000BF03
:1047A000216800BF0868000608D4FEF717FC801BCC
:1047B000404541D82168C868F4E700BF17B117F831
:1047C000010B04E035F8020B00276FF35F2048600F
:1047D000E08C0138E084E08C0028E3D105E000BFE4
:1047E0000027E08C00289DD12168086840061FD46E
:1047F000B8F1000F1ED018F101000FD10868400673
:1048000016D40868400613D40868400610D4086817
:1048100040064FF00000F1D50FE000BFFEF7DEFBD1
:10482000801B404508D82068C16800684006F5D55F
:10483000002002E0FEF7D2FB0320202184F8411083
:10484000BDE8F081FEE700002DE9F04782B00446A4
:1048500000689A460B9D0A9E0368914643F4806265
:10486000026002680F4642F48071016020464FF0FA
:10487000011100223346009500F070F850B1206815
:104880000068C00544BF4FF400702064032002B0EC
:10489000BDE8F08740F202082068C0F2010807F086
:1048A000FE0707612046414632462B4600F03CF9A0
:1048B00020B1012002B0BDE8F08700BF00200190C8
:1048C00020682A464169019180693146019001982A
:1048D000204600F0DDF9B0B92068BAF1010F09D027
:1048E0004FEA19210161204631462A4600F0D0F9ED
:1048F00048B920685FFA89F10161204631462A46AD
:1049000000F0C6F960B1206C0428D2D1206801689B
:1049100041F400710160012002B0BDE8F08700BFE2
:10492000206800220168334641F48071016020460E
:104930004FF00111009500F011F800289FD147F0C9
:10494000010C27682046414632462B46C7F810C066
:1049500002B0BDE8F04700F0E7B800002DE9F041F3
:10496000054600681E46144601F47F0201338FB2EB
:1049700042D0DDF81880B2F5803F40F08780406972
:104980003840C01BB0FA80F04009A04240F0C88017
:104990004EB924E040693840C01BB0FA80F04009AD
:1049A000A04240F0BD80FEF719FBA0EB080128688B
:1049B000B142EFD941693940C91BB1FA81F14909C6
:1049C000A142E7D19BE000BF40693840C01BB0FA6C
:1049D00080F04009A0424FF0000040F0A280FEF7B6
:1049E000FDFA286841693940C91BB1FA81F14909CA
:1049F000A142E9D183E000BFB2F5803F24D100BFDE
:104A000041693940C91BB1FA81F14909A14240F01D
:104A1000878041693940C91BB1FA81F14909A14236
:104A200040F07E8041693940C91BB1FA81F14909E2
:104A3000A14275D141693940C91BB1FA81F14909D7
:104A4000A142DDD06CE000BF81693940C91BB1FAD9
:104A500081F14909A14263D181693940C91BB1FA89
:104A600081F14909A1425BD181693940C91BB1FA81
:104A700081F14909A14253D181693940C91BB1FA79
:104A800081F14909A142DFD04AE000BF8069384086
:104A9000C01BB0FA80F04009A04241D146B923E0E2
:104AA00080693840C01BB0FA80F04009A04237D17D
:104AB000FEF794FAA0EB08012868B142F0D98169A9
:104AC0003940C91BB1FA81F14909A142E8D116E088
:104AD00080693840C01BB0FA80F04009A0424FF016
:104AE000000018BFBDE8F081FEF778FA28688169F8
:104AF0003940C91BB1FA81F14909A142E8D100202E
:104B00002021286385F83D1085F83E00296C41F08E
:104B10002001296485F83C000120BDE8F08100BF38
:104B20000020BDE8F0810000F0B581B004460068C7
:104B30001D4643698FB203EA0701B94202D1002042
:104B400001B0F0BD4169164601323FD049053FD45E
:104B5000CEB100BFFEF742FA411B2068B14203D933
:104B600041693940B94215D141693940B942E6D06D
:104B700041694905EED52BE041693940B942DED0A3
:104B80004169490524D4FEF729FA20684169394072
:104B9000B942F1D0202023E041693940B942CED05A
:104BA0004169490514D441693940B942C7D04169C6
:104BB00049050DD441693940B942C0D04169490520
:104BC00006D441693940B942B9D041694905E3D5B4
:104BD000016841F4007101606FF48061416104205B
:104BE00000212022216384F83D2084F83E10226CAD
:104BF0001043206484F83C10012001B0F0BD000097
:104C000070B504460068154650F8143F5A063DD466
:104C10000E4629B926E000BF50F8141F490635D4C6
:104C20000168C90621D4FEF7D9F9411B2068B142B9
:104C3000F2D941694906EFD400202021206384F88D
:104C40003D1084F83E00206C40F0200018E000BFCA
:104C5000FEF7C4F9206850F8141F4906ECD5016826
:104C6000490613D40168C906F2D56FF0100101603E
:104C700000202021206384F83D1084F83E00206C41
:104C80002064002084F83C00012070BD002070BD2D
:104C900070B50368044653F8140F000611D40E468D
:104CA000481C29D086BB00BF1868400527D4FEF7F2
:104CB00095F9236853F8140F000637D518680006D5
:104CC000F2D5002070BD00BF18680006F9D418683E
:104CD000400514D418680006F3D4186840050ED4B3
:104CE00018680006EDD41868400508D41868000656
:104CF0004FF0000048BF70BD18684005E4D56FF460
:104D000080601860042012E0154603E053F8140F89
:104D10000006D6D418684005F1D4FEF75FF9401BB1
:104D20002368B042F2D958690006EFD42020002150
:104D30002022216384F83D2084F83E10226C104329
:104D40002064012084F83C1070BD000080B52DED7A
:104D5000048BFDF7A5FFB0EE408AB0EE0C0AB4EE6E
:104D6000408AF1EE10FA21D19FED299A40F23C20C1
:104D7000C2F20000B0EE490A02F09AF940F2942023
:104D8000C2F20000B0EE490A02F092F940F2EC20C3
:104D9000C2F20000B0EE490A02F08AF940F2E410D3
:104DA000C2F20000B0EE490A02F082F9B8EE0C0A35
:104DB0009FED181A38EE000A9FED152A20EE010A21
:104DC00032EE409A40F23C2030EE028AC2F20000FD
:104DD000B0EE490A02F06CF940F29420C2F20000F1
:104DE000B0EE480A02F064F940F2EC20C2F2000092
:104DF000B0EE490A02F05CF940F2E410C2F20000A1
:104E0000B0EE480ABDEC048BBDE8804002F050B91A
:104E10009A99993ECDCC4C3D80B588B00B4802AFF5
:104E200001900AA000F1040E9EE80E50806987E808
:104E30000E50079001A8002101F0DCFD40F2443142
:104E4000C2F20001086008B080BD00BF307C0008DD
:104E5000895A0008000000000000000080000000E7
:104E6000000000000000000070B586B0002543F689
:104E7000300005950095C4F20200016840F6000478
:104E800041F0800101600168C4F2020401F0800178
:104E90000091009900950168002241F00101016034
:104EA0000168C02601F00101009100990095016898
:104EB00041F002010160016801F0020100910099D6
:104EC0000095016841F004010160016801F00401EE
:104ED000009100990095016841F0080101600068A7
:104EE000C02100F00800009000982046FEF770F8FE
:104EF0000120CDE9020501A9204601960495FDF7A0
:104F000097FF06B070BD000080B540F2483045F60E
:104F10000001C2F20000C4F2000100234FF4804CF3
:104F200042F2107280E80E00C0E9033CC0E905338C
:104F3000C0E90733FEF758F8002808BF80BDBDE878
:104F40008040FDF7A9BE000080B540F29C3045F6D8
:104F50000041C2F20000C4F2000100234FF4804C73
:104F600042F2107280E80E00C0E9033CC0E905334C
:104F7000C0E90733FEF738F8002808BF80BDBDE858
:104F80008040FDF789BE000010B594B040F2F030CB
:104F90000021C2F200004FF08042532344F61F6408
:104FA0000D91CDE90B110991CDE90711CDE905115D
:104FB000CDE90311CDE90111C0E90023C0E90214D4
:104FC00001618161FEF7B4FE002818BFFDF764FEA1
:104FD0004FF480500A9040F2F030C2F200000AA96B
:104FE000FEF790FF002818BFFDF756FE40F2F030A4
:104FF000C2F20000FFF714FA002818BFFDF74CFEBC
:1050000040F2F0300024C2F2000008A9CDE90844C3
:10501000FEF730FE002818BFFDF73EFE6020CDE908
:1050200001040394059440F2F034C2F2000401A993
:1050300020460022FFF7E2F8002818BFFDF72CFEFB
:10504000206840F60042C4F20002002190420F9115
:105050001CD040F20041C4F20001884226D0B0F1D9
:10506000804F41D100200E9043F63000C4F2020080
:10507000016841F001010160006800F001000E903C
:105080000E9820200F90012022E000BF43F6300050
:105090000E91C4F20200016841F001010160006854
:1050A00000F001000E900E9801200FE000200E90FD
:1050B00043F63000C4F20200016841F001010160D2
:1050C000006800F001000E900E9840200F90022022
:1050D00002211091002113900020CDE91111C4F29A
:1050E00002000FA9FDF7A4FE14B010BDB0B594B036
:1050F00040F2004540F23840C4F200050021C2F2FF
:105100000000532244F61F630D91CDE90B11099164
:10511000CDE90711CDE90511CDE90311CDE9011163
:10512000C0E90052C0E9021301618161FEF700FE8F
:10513000002818BFFDF7B0FD4FF480500A9040F2F0
:105140003840C2F200000AA9FEF7DCFE002818BFB2
:10515000FDF7A2FD40F23840C2F20000FFF760F90F
:10516000002818BFFDF798FD40F238400024C2F235
:10517000000008A9CDE90844FEF77CFD002818BF0F
:10518000FDF78AFD6020CDE901040394059440F207
:105190003844C2F2000401A920460022FFF72EF88D
:1051A000002818BFFDF778FD206840F60042C4F2E1
:1051B0000002002190420F9118D0A84226D0B0F1F1
:1051C000804F40D100200E9043F63000C4F2020020
:1051D000016841F001010160006800F001000E90DB
:1051E0000E9820200F90012022E000BF43F63000EF
:1051F0000E91C4F20200016841F0010101600068F3
:1052000000F001000E900E9801200FE000200E909B
:1052100043F63000C4F20200016841F00101016070
:10522000006800F001000E900E9840200F900220C0
:10523000022110910021CDE91111139005F5FE30E6
:105240000FA9FDF7F5FD14B0B0BD000080B586B024
:1052500040F2804040F600020021C2F20000C4F299
:10526000000253230591CDE90311CDE90011C0E9F6
:105270000021C0E90213016180218161FEF758FD20
:10528000002818BFFDF708FD4FF48050029040F24F
:105290008040C2F2000002A9FEF734FE002818BFC9
:1052A000FDF7FAFC40F28040C2F200006946FEF7CA
:1052B000E1FC002818BFFDF7EFFC06B080BD000040
:1052C000B0B594B040F6004540F2C840C4F20005C5
:1052D0000021C2F20000532244F61F630D91CDE974
:1052E0000B110991CDE90711CDE90511CDE90311A4
:1052F000CDE90111C0E90052C0E9021301618161E9
:10530000FEF716FD002818BFFDF7C6FC4FF48050CD
:105310000A9040F2C840C2F200000AA9FEF7F2FD6E
:10532000002818BFFDF7B8FC40F2C840C2F20000E8
:10533000FFF776F8002818BFFDF7AEFC40F2C84032
:105340000024C2F2000008A9CDE90844FEF792FC4F
:10535000002818BFFDF7A0FC6020CDE901040394EC
:10536000059440F2C844C2F2000401A9204600227C
:10537000FEF744FF002818BFFDF78EFC20680021CF
:10538000A8420F911CD040F20041C4F200018842B3
:1053900026D0B0F1804F40D100200E9043F630006F
:1053A000C4F20200016841F001010160006800F0F0
:1053B00001000E900E9820200F90012022E000BFE7
:1053C00043F630000E91C4F20200016841F0010181
:1053D0000160006800F001000E900E9801200FE0BF
:1053E00000200E9043F63000C4F20200016841F044
:1053F00001010160006800F001000E900E9840204D
:105400000F900220022110910021CDE9111113907B
:1054100005F5FA300FA9FDF70BFD14B0B0BD000083
:1054200080B582B040F2105041F200020021C2F279
:105430000000C4F20002532340F2E73CCDE9001122
:10544000C0E90023C0E9021C8161FEF771FC00285D
:1054500018BFFDF721FC40F21050C2F2000069466F
:10546000FEF708FC002818BFFDF716FC02B080BD4F
:1054700080B540F2585041F20001C2F20000C4F27F
:10548000010100234FF00C0C4FF4E13280E80E00D4
:10549000C0E90333C0E905C3C361FFF787F80028FB
:1054A00008BF80BDBDE88040FDF7F6BB80B540F287
:1054B000A05044F20041C2F20000C4F200010023F7
:1054C0004FF00C0C4FF4E13280E80E00C0E90333DA
:1054D000C0E905C3C361FFF769F8002808BF80BDB4
:1054E000BDE88040FDF7D8BBFEE7000080B52DED9C
:1054F000068B9FED1B8A9FED1B1A20EE080A80EE9B
:10550000019A9FED19AA40F23C20C2F20000B0EED1
:105510004A0AF0EE490A01F03BFD40F29420C2F243
:105520000000B0EE480AF0EE490A01F031FD40F209
:10553000EC20C2F20000B0EE4A0AF0EE490A01F097
:1055400027FD40F2E410C2F20000B0EE480AF0EE8F
:10555000490ABDEC068BBDE8804001F019BD00BFD3
:10556000F5DB973E0000B442F5DB97BE80B52DED2C
:10557000048B9FED189AB0EE408A40F23C20C2F2B4
:105580000000B0EE490AF0EE480A01F001FD40F2D9
:105590009420C2F20000B0EE490AF0EE480A01F091
:1055A000F7FC40F2EC20C2F20000B0EE490AF0EE47
:1055B000480A01F0EDFC40F2E410C2F20000B0EE47
:1055C000490AF0EE480ABDEC048BBDE8804001F0CA
:1055D000DFBC00BF9A9999BE80B52DED048B9FED7D
:1055E000189AB0EE408A40F23C20C2F20000B0EEC1
:1055F000490AF0EE480A01F0CBFC40F29420C2F2D6
:105600000000B0EE490AF0EE480A01F0C1FC40F299
:10561000EC20C2F20000B0EE490AF0EE480A01F0B8
:10562000B7FC40F2E410C2F20000B0EE490AF0EE1E
:10563000480ABDEC048BBDE8804001F0A9BC00BF66
:105640009A99993E80B52DED048B9FED199AB0EE95
:10565000408A40F23C20C2F20000B0EE490AF0EE6F
:10566000480A01F095FC40F29420C2F20000B0EE2E
:10567000490AF0EE480A01F08BFC9FED0E9A40F2C9
:10568000EC20C2F20000B0EE490AF0EE480A01F048
:105690007FFC40F2E410C2F20000B0EE490AF0EEE6
:1056A000480ABDEC048BBDE8804001F071BC00BF2E
:1056B0009A99993E9A9999BE80B52DED048B9FEDEC
:1056C000199AB0EE408A40F23C20C2F20000B0EEDF
:1056D000490AF0EE480A01F05BFC40F29420C2F265
:1056E0000000B0EE490AF0EE480A01F051FC9FEDCF
:1056F0000E9A40F2EC20C2F20000B0EE490AF0EE41
:10570000480A01F045FC40F2E410C2F20000B0EE9D
:10571000490AF0EE480ABDEC048BBDE8804001F078
:1057200037BC00BF9A9999BE9A99993EFEE700004E
:10573000EFF30980BFF36F8F154B1A681EF0100F3F
:1057400008BF20ED108A20E9F04F10602DE9090014
:105750004FF0500080F31188BFF34F8FBFF36F8F6E
:1057600001F00CFF4FF0000080F31188BDE8090044
:1057700019680868B0E8F04F1EF0100F08BFB0ECD1
:10578000108A80F30988BFF36F8F704700BF00BF96
:10579000D000002040F2F030C2F2000000684FF468
:1057A000FA7141637047000040F2F030C2F200002D
:1057B000006840F6C411416370470000F0B585B041
:1057C00040F29C340020C2F20004ADF812004FF405
:1057D0007A7501260DF1120720469821DD2201235A
:1057E000CDE900760295FDF7B1FC781CCDE9000605
:1057F00020469A21DD2201230295FDF7A7FC9DF8A2
:1058000012109DF8130040F23C0201F00103C2F2B5
:105810000002D37100F00103D373C1F3400313728C
:10582000C0F340031374C1F380035372C0F38003C9
:105830005374C1F3C0039372C0F3C0039374C1F3F4
:105840000013D372C0F30013D374C1F34013137366
:10585000C0F340131375C1F380135373C0F3801367
:10586000C909C00953759173907505B0F0BD00006A
:10587000F0B583B040F23C07C2F2000740F2483472
:105880000326781CC2F200044FF47A75CDE90006B5
:1058900020469021D02201230295FDF757FC381DA8
:1058A000CDE9000620469021D12201230295FDF783
:1058B0004DFC03B0F0BD000000000000000000003F
:1058C000074B19680868B0E8F04F80F30988BFF308
:1058D0006F8F4FF0000080F31188704700BF00BF4A
:1058E000D00000202DE9F04740F23C08C2F2000849
:1058F00098F8000040F23D0740F2340640F2E859C3
:1059000040F2300A0228C2F20007C2F20006C2F2D8
:105910000009C2F2000A23D17879EF2802D10220CF
:1059200016E000BF01244FF4C84500BFFFF7A0FFF9
:10593000012001F065FD01203460C9F80050CAF86B
:10594000004001F05DFD7879EF28EFD198F8000074
:1059500001214FF47A323160C9F80020CAF80010F2
:10596000032823D17879EF2802D1032016E000BF65
:1059700001244FF4C84500BFFFF77AFF012001F072
:105980003FFD01203460C9F80050CAF8004001F022
:1059900037FD7879EF28EFD198F8000001214FF416
:1059A0007A323160C9F80020CAF80010012818BF07
:1059B000BDE8F0877879EF2812D001244FF4C8456C
:1059C000FFF756FF012001F01BFD01203460C9F8EC
:1059D0000050CAF8004001F013FD7879EF28EFD1AC
:1059E00001204FF47A313060C9F80010CAF8000085
:1059F000BDE8F0870000000080B510EE100A40F20C
:105A000034020021B5EE400AC2F2000220F000404C
:105A1000F1EE10FAC8BF01211160FAF72DFD9FEDDC
:105A20000E0B53EC102BFAF70EFCFAF70CFDC11716
:105A300000EB517140F2E8520730C910C2F2000287
:105A40000F28116038BF80BD40F23000C2F2000064
:105A50000121016080BD00BF000000000000F9408E
:105A600040F23840C2F2000000684FF4FA7141631E
:105A70007047000040F23840C2F20000006840F673
:105A8000C411416370470000012000F0A5FFFBE74F
:105A9000DDF800C00160426380F8383080ED0F0A05
:105AA00080F840C07047000080B52DED028B9FED5F
:105AB000138A40F23C20C2F20000B0EE480A01F026
:105AC000F7FA40F29420C2F20000B0EE480A01F06A
:105AD000EFFA40F2EC20C2F20000B0EE480A01F00A
