:020000040800F2
:10000000A008002055020008A5240008011A0008D5
:10001000A124000801040008AD2800080000000029
:10002000000000000000000000000000B1250008F2
:100030000504000800000000A9240008B5250008F8
:100040006F0200086F0200086F0200086F020008CC
:100050006F0200086F0200086F0200086F020008BC
:100060006F0200086F0200086F0200086F020008AC
:100070006F0200086F0200086F0200086F0200089C
:100080006F0200086F0200086F0200086F0200088C
:100090006F0200086F0200086F0200086F0200087C
:1000A0006F0200086F0200086F0200086F0200086C
:1000B0006F0200086F0200086F0200086F0200085C
:1000C0006F0200086F0200086F0200086F0200084C
:1000D0006F0200086F0200086F0200086F0200083C
:1000E0006F0200086F0200086F0200086F0200082C
:1000F0006F0200086F0200086F0200086F0200081C
:100100006F0200086F0200086F0200086F0200080B
:100110006F0200086F0200086F0200086F020008FB
:100120006F0200086F0200086F0200086F020008EB
:100130006F0200086F0200086F0200086F020008DB
:100140006F0200086F0200086F0200086F020008CB
:100150006F0200086F0200086F0200086F020008BB
:100160006F0200086F0200086F0200086F020008AB
:100170006F0200086F0200086F0200080000000014
:100180006F0200086F02000800F002F800F052F859
:1001900014A696E8000CB244B344DA4501D100F04D
:1001A00049F8BAE80F000FA696E83000A5EB040561
:1001B00004EB0607AAEB0704A7F101074FEA1515A0
:1001C0004FEA3414A4F10104AC4201D300F032F838
:1001D00013F0010F18BFFB1A43F0010300F001F800
:1001E000DBE718476827000088270000103A24BF83
:1001F00078C878C1FAD8520724BF30C830C144BF8C
:1002000004680C6070470000704700000023002461
:1002100000250026103A28BF78C1FBD8520728BF16
:1002200030C148BF0B6070471FB502F076FB1FBDA1
:1002300010B510BD00F0AFF81146FFF7F5FF02F062
:1002400037FB00F0CDF803B4FFF7F2FF03BC00F07A
:10025000D1F800000948804709480047FEE7FEE75B
:10026000FEE7FEE7FEE7FEE7FEE7FEE7FEE7FEE766
:1002700004480549054A064B7047000065260008FA
:1002800089010008A0020020A0080020A00400208E
:10029000A004002053EA020C00F069802DE9F04B25
:1002A0004FF00006002B1FBFB3FA83F503FA05F4E5
:1002B00024FA05F65E4012BF1643B2FA82F502FA3E
:1002C00005F4C5F120051EBF22FA05FC44EA0C0422
:1002D000203556EA044C4FEA144418BF641C4FF012
:1002E00000084FF00009904271EB030C39D300294C
:1002F00019BFB1FA81F701FA07F6B0FA80F700FAF0
:1003000007F6C7F120071EBF20FA07FC46EA0C06D5
:100310002037B6FBF4FCA7EB0507103F07F01F0BD7
:10032000CBF120062CFA06F60CFA0BFB44BFB346C1
:100330000026202FA4BF5E464FF0000B5BEA060CA0
:1003400008BF4FF0010B19EB0B0948EB0608ABFB9C
:10035000027C06FB02CC0BFB03CCC01B71EB0C0137
:10036000C1E70B46024641464846BDE8F08B13B54F
:10037000084318BF4FF0FF300146AFF30080BDE8DF
:100380001C40704770477047704700000048704736
:100390001000002070477546FFF7F8FFAE460500D5
:1003A0006946534620F00700854618B020B5FFF790
:1003B0005FFFBDE820404FF000064FF000074FF010
:1003C00000084FF0000BAC46ACE8C009ACE8C0092F
:1003D000ACE8C009ACE8C00921F007018D467047C0
:1003E00010B50446AFF300802046BDE81040FFF78B
:1003F0002ABF000001491820ABBEFEE7260002001C
:10040000FEE700007047000072B600BFFEE7000084
:10041000B0B5044600F0E0F8054640F20000C2F234
:1004200000000078611C18BF044400BF00F0D4F83D
:10043000401BA042FAD3B0BD2DE9F04F82B000F1CD
:100440003E4707F1FF77860546EA972741F60046C3
:10045000C4F20206082243F6004EB04208BF07224B
:10046000C4F2010E072F38BF3A46002600274FF08E
:100470000008009209E000BF08F101080237B8F156
:10048000100F06F1040600F0A3800D68012202FAA5
:1004900008F415EA0409EFD0D1F804B003220BF0F8
:1004A000030CACF10105BA40012D6FEA020A0FD826
:1004B0008268CD6802EA0A02BD402A43826042682F
:1004C000A243CBF3001404FA08F42243426005E08F
:1004D000BCF1030F02D14FF0030C1EE0C2688C6820
:1004E00002EA0A02BC402243BCF1020FC26014D1EE
:1004F0006FF0030202EA58020244D2F820C006F06C
:100500001C040F230D69A3402CEA0303A5402B43D1
:100510001362D1F804B00BF0030C02680CFA07F375
:1005200002EA0A021A431BF4403F0260A4D00022F0
:1005300043F644030192C4F202031A684FF6084CD2
:1005400042F480421A601A68CFF6FF7C02F48042BF
:100550000192019A28F00302724452F80C3006F01E
:100560000C050F24AC40A343009C04FA05F52B4373
:1005700042F80C30DEF808204B6842EA090543F6E1
:100580000C4CDC0258BF22EA0905CEF80850C4F230
:10059000010CDCF800209C0242EA090558BF22EA5F
:1005A0000905CCF80050DEF804209C0342EA090556
:1005B00058BF22EA0905CEF80450DEF80020DB031C
:1005C00042EA090558BF22EA0905CEF8005053E770
:1005D00002B0BDE8F08F000040F29820C2F20000A7
:1005E00000687047002804BF01207047F0B581B053
:1005F000044690F83D0028B9002084F83C002046CD
:1006000000F0CEF9242084F83D002068016821F034
:1006100001010160016841F400410160016821F4B9
:100620000041016000F09CFB636848F2A16CC0F2DD
:10063000010C40F60011C0F23D0163453CBF48F299
:100640008041C0F21E01884202D2012001B0F0BDFB
:100650004DF68361C4F21B31A0FB01122168970C97
:10066000D1F804E04FF496762EF03F0545EA924526
:100670004D60774348F638160D6AC0F24106A7FB75
:10068000067625F03F07634538BF960C721C3A4347
:100690000A62CA6948F2A0664CF6FF77C0F201060A
:1006A000B34222EA07020BD801385B00B0FBF3F03B
:1006B00001306FF31F30042898BF04201BE000BFF7
:1006C000A768013857B119277B43B0FBF3F001301D
:1006D0006FF31F3070B100F5804007E003EB430378
:1006E000B0FBF3F001306FF31F3018B100F500409C
:1006F00001E000BF01201043C8610868D4E9072366
:1007000020F0C000104318430860886848F2FF32A8
:1007100004F10C0790438CCF18431043A6698860FE
:10072000C86820F0FF0038433043C860086840F0D4
:100730000100086000202021206484F83D1020631F
:1007400084F83E0001B0F0BD2DE9F04784B0994631
:1007500016460F460446FFF73FFF94F83D10202948
:1007600027D10546206800BF816989071CD5FFF79E
:1007700033FF411B20681A29F6D381698907F3D515
:1007800000202021206384F83D1084F83E00206C76
:1007900004F13C0A40F020002064022000218AF885
:1007A000001004B0BDE8F087A2461AF83C1F0129EA
:1007B00004D1022004B0BDE8F08700BF01228AF80E
:1007C00000200368DDE90D180C9ADB0703D10368EC
:1007D00043F001030360036823F4006303602220F5
:1007E00084F83D00402084F83E00002020646262CE
:1007F0006185608D394620850020CFF6FF70E0626C
:10080000204632464B46CDE9008501F0FBF818B191
:10081000012004B0BDE8F087208DA8B102282BD0BC
:10082000012835D121680A6822F480620A6000221A
:1008300003924A6903928A690392039A0A6842F40E
:1008400000720A602CE000BF00200390206841691C
:100850000391816903910399016841F4007101607A
:10086000202084F83D00002084F83E0000218AF812
:10087000001004B0BDE8F08721680A6822F48062A5
:100880000A600A6842F400620A600022039202E0F1
:100890000021039121684A690392896903910399B0
:1008A0000427C0F201070CE010690870606A218D0E
:1008B00001306062481E2085618D01396185010427
:1008C000CED080B203280FD802284AD001282DD1DB
:1008D000204641462A4601F071FA002898D1206846
:1008E000616A0069E1E700BF204641462A4601F0FF
:1008F00065FA00287FF48CAF2068616A006908708F
:10090000606A2268411C208D616201382085638DF8
:10091000013B638553695B07D1D580B20328C3D1FE
:10092000106820F480601060BEE700BF20463946A2
:1009300000224346009501F0EFF800287FF468AFED
:100940002068616A026822F48062026000690870AF
:10095000606A218D01306062481E2085608D0138FB
:1009600060852046394600224346009501F0D4F8C0
:1009700000287FF44DAF2068616A026842F400727B
:10098000026000690870606A2268411C6162218D02
:1009900001392185618D013961851169417085E7D2
:1009A0002DE9F04786B0006845F60041C4F2000129
:1009B00000268842CDE90466CDE9026601962FD073
:1009C00045F60001C4F2000188426ED1002543F6CD
:1009D00030040095C4F20204206801A940F002002E
:1009E0002060206800F00200009000984FF4406002
:1009F00001901220CDE90205032004900420059007
:100A00000020C4F2020000F58060FFF715FD00959C
:100A1000206940F480002061206900F4800042E0F9
:100A200043F630070096C4F202073868002440F00D
:100A3000040038603868C4F2020400F0040000903A
:100A400000980096386801AD40F0010038603868C1
:100A50004FF0120800F00100009000984FF4007071
:100A600001904FF003094FF0040A04F50060294695
:100A7000CDE90286CDF81090CDF814A0FFF7DCFC8C
:100A80004FF48070CDE9010803A880E840062046B5
:100A90002946FFF7D1FC0096386940F40000386120
:100AA000386900F400000090009806B0BDE8F087B7
:100AB00040F2000040F29821C2F20000C2F20001B0
:100AC00000780A68104408607047000080B543F65B
:100AD0000040C4F20200016841F400710160016845
:100AE00041F480610160016841F48071016003207C
:100AF00000F074F80F2000F005F800F027F800204F
:100B000080BD000070B540F20006C2F2000640F25F
:100B100008013278C2F200014FF47A730968B3FB1E
:100B2000F2F20446B1FBF2F1084600F04FFB0F2C45
:100B30004FF0010508D838B94FF0FF3021460022A8
:100B4000002500F01FF87460284670BD82B00020B8
:100B500043F640010190C4F202014A6842F4804227
:100B60004A604A6802F480420192019A0090086843
:100B700040F080500860086800F0805000900098B5
:100B800002B0704710B54EF60C5CCEF2000CDCF8EB
:100B90000030C3F3022E8EF00704042C28BF042477
:100BA000BEF103034FF0FF3E0EFA04F438BF0023FA
:100BB000A14399400EFA03F39A43114300F00F0248
:100BC00000F160430901043A03F5644362440028DC
:100BD00048BF02F10C03197010BD00004EF60C5115
:100BE000CEF200010A684FF6FF031A4060F30A22B2
:100BF00042F0806040F0FD7008607047002804BF3C
:100C0000012070472DE9F04143F60808C4F20208BC
:100C10000446D8F8F8030D4600F00700884207D2D2
:100C200088F8F853D8F8F80300F00700A84277D105
:100C30002068810717D5410705D5D8F8001041F481
:100C4000E051C8F80010010705D5D8F8001041F4AC
:100C50006041C8F80010D8F80010A26821F0F00137
:100C60001143C8F80010C00740D1D8F8F80300F0CD
:100C70000700A84207D988F8F853D8F8F80300F01D
:100C80000700A8424CD12068410707D5D8F80010CA
:100C9000E26821F4E0511143C8F80010000708D5BC
:100CA000D8F80000216920F4604040EAC100C8F88B
:100CB000000000F07DF8D8F8001042F63412C1F3BD
:100CC0000311C0F60002515C40F2080220FA01F163
:100CD00040F20400C2F200000068C2F2000211609B
:100CE000FFF710FF0020BDE8F08100BF6068811EA3
:100CF000022907D258F8081C89015CBF0120BDE811
:100D0000F08111E0012807D158F8081C89035CBF65
:100D10000120BDE8F08107E058F8081C890703D4DA
:100D20000120BDE8F08100BFD8F8001021F00301D8
:100D30000843C8F80000FFF74FFC064641F2883729
:100D4000D8F80000616800F00C00B0EB810F8CD087
:100D5000FFF742FC801BB842F2D90320BDE8F081C6
:100D600040F2080043F60801C2F20000C4F202019A
:100D70000068096842F64412C1F38221C0F60002FD
:100D8000515CC8407047000040F2080043F608017B
:100D9000C2F20000C4F202010068096842F644127F
:100DA000C1F34231C0F60002515CC84070470000F8
:100DB00010B543F60404C4F20204606800F00C00AD
:100DC00008280BD0042819BF42F20040C0F2F400FA
:100DD00047F64000C0F27D1010BD00BF20682168BA
:100DE0002368490247F64001C0F27D1100F03F023E
:100DF000C3F388105CBF42F20041C0F2F401A1FBD2
:100E000000010023FFF746FA21680222C1F30141E5
:100E100002EB4101B0FBF1F010BD0000002804BF5F
:100E2000012070472DE9F04182B00446007843F676
:100E30000006C007C4F202060CD0B06800F00C0037
:100E4000042840F081803068800303D56068002862
:100E500000F06A81207880071BD5B06810F00C0F75
:100E600009D0B06800F00C00082840F08780706856
:100E7000400200F183803068800703D5E0680128D4
:100E800040F052813068216920F0F80040EAC1004A
:100E900030602078000713D4207840072AD4A56951
:100EA000002D00F03C81B06800F00C00082840F0F4
:100EB000A180012D40F01081012002B0BDE8F08139
:100EC0006069002840F20000C4F2472000F07E80F4
:100ED0000121C0F8801EFFF77FFB0546706F800779
:100EE000DAD4FFF779FB401B0228F7D9032002B0C0
:100EF000BDE8F081306C5FEAC0080AD400200190A0
:100F0000306C40F080503064306C00F080500190C4
:100F1000019847F20007C4F200073868C00547D4BB
:100F2000386840F480703860FFF756FB054600BF14
:100F30003868C0053CD4FFF74FFB401B0228F7D9A7
:100F4000032002B0BDE8F081B06800F00C00082872
:100F500003D1706840023FF576AF6068B0F5803F1E
:100F600007D0B0F5A02F40F09B80306840F480207F
:100F70003060306840F4803030609BE0E0680028EA
:100F80005CD00020C4F2472001210160FFF724FB60
:100F9000054600BF306880073FF574AFFFF71CFBC4
:100FA000401B0228F6D9032002B0BDE8F08100BF43
:100FB000A068012805D0052854D1306F40F0040006
:100FC0003067306F40F00100306755E00021C0F815
:100FD000801EFFF701FB0546706F80077FF55CAF51
:100FE000FFF7FAFA401B0228F6D9032002B0BDE849
:100FF000F08100BF0027C4F2472700203866FFF7C2
:10100000EBFA022D05460DD13068800140F1908049
:10101000FFF7E2FA401B02284FF00300F4D902B0B8
:10102000BDE8F0813068800179D5FFF7D5FA401B23
:1010300002284FF00300F5D9F1E700BF0020C4F209
:10104000472000210160FFF7C7FA05463068800796
:101050007FF51FAFFFF7C0FA401B02284FF00300D7
:10106000F4D9DCE7316F002821F001013167316FDD
:1010700021F0040131677DD0FFF7AEFA054641F259
:10108000883700BF306F800700F18680FFF7A4FA31
:10109000401BB842F6D9032002B0BDE8F08100BF82
:1010A0003168002821F480313160316821F48021D9
:1010B00031607BD0FFF790FA054600BF30688003AF
:1010C0003FF5C8AEFFF788FA401B6428F6D9032025
:1010D00002B0BDE8F08100BF7068E16900F48002F1
:1010E0008A4221D1216A00F03F028A421CD147F690
:1010F000C071626A0140B1EB821F15D1A16A4FF63F
:10110000FF73C903994300F44032A1F580318A424C
:101110000AD1E16A00F07060B0EB016F04D10020E9
:1011200002B0BDE8F08100BF012002B0BDE8F0814F
:1011300004F11C052FCD084340EA8210D9034FF675
:10114000FF729143A1F5803140EA05600843706069
:1011500001203866FFF740FA044600BF306880017E
:10116000DDD4FFF739FA001B02284FF00300F5D950
:1011700055E700BFFFF730FA054641F2883700BF58
:10118000306F800708D5FFF727FA401BB8424FF0B1
:101190000300F5D943E700BFB8F1000F3FF57FAE7C
:1011A000306C20F08050306479E600BFFFF714FA0D
:1011B000054600BF306880037FF54CAEFFF70CFAA0
:1011C000401B64284FF00300F4D928E7411E00209B
:1011D000B0EB116F1CBF012070474EF21002CEF22F
:1011E000000251604EF62351CEF20001F0230B7045
:1011F000072190601160704790F83C20012A4FF061
:10120000020254D010B580F83D200268D2F804E004
:10121000D2F808C00C682EF07003234341F2FF742B
:10122000C4F20004A24253600EDC40F2FF73C4F229
:1012300000039A4216DCB2F1804F2BD040F20043FB
:10124000C4F2000324E000BF40F2FF33C4F2010304
:101250009A4213DC41F60003C4F200039A4219D00B
:10126000002313E040F60003C4F200039A4211D0B9
:1012700040F60043C4F200030AE000BF44F200035A
:10128000C4F201039A4205D040F20043C4F20103C4
:101290009A4204D149682CF08003194391600121DE
:1012A000002280F83D1080F83C20BDE81040104638
:1012B00070470000002804BF0120704710B50446A5
:1012C00090F83D0028B9002084F83C00204600F04A
:1012D0001FF8022084F83D002068211D01F0CCF9A0
:1012E000012084F8460084F83E0084F83F0084F82A
:1012F000400084F8410084F8420084F8430084F8F8
:10130000440084F8450084F83D00002010BD000032
:1013100083B0006840F60041C4F20001884219D051
:1013200040F20041C4F20001884225D0B0F1804F64
:101330001FD10020029043F64000C4F20200016871
:1013400041F001010160006800F001000290029884
:1013500003B070470020009043F64000C4F2020042
:10136000016841F008010160006800F00800009089
:10137000009803B0704700BF0020019043F6400082
:10138000C4F20200016841F002010160006800F04F
:1013900002000190019803B07047000090F83C20D3
:1013A000012A4FF0020200F0C58080B580F83D2090
:1013B000D0F800C04FF67772DCF8083023EA02025A
:1013C000CCF808200B684F2B28DC1F2B44DD202B8A
:1013D00045D0302B43D0402B40F0AE80D1F804E014
:1013E000C968DCF82030DCF8202022F00102CCF8BB
:1013F0002020DCF8182022F0F00242EA011123F04C
:101400000A0242EA0E02CCF81810CCF82020DCF8D0
:10141000081041F0470121F0300180E06F2B27DDFB
:10142000B3F5005F48D0B3F5805F7AD0702B40F001
:101430008380D1E901E3C968DCF8082043EA0E03A0
:1014400022F47F4243EA01211143CCF80810DCF872
:10145000081041F0770162E00BB1102B6CD1DCF881
:10146000081021F07001194341F0070157E000BF57
:10147000502B35D0602B5FD1D1F804E0C968DCF87F
:101480002030DCF8202022F01002CCF82020DCF8FC
:10149000182022F4704242EA013123F0A00242EA0D
:1014A0000E12CCF81810CCF82020DCF8081041F00F
:1014B000670121F0100132E0D1E901E3C968DCF8ED
:1014C000082043EA0E0322F47F4243EA012111433C
:1014D000CCF80810DCF8081041F480411FE000BF90
:1014E000D1F804E0C968DCF82030DCF8202022F0D4
:1014F0000102CCF82020DCF8182022F0F00242EAA9
:10150000011123F00A0242EA0E02CCF81810CCF8BE
:101510002020DCF8081041F0570121F02001CCF820
:1015200008100022012180F83D10002180F83C10B5
:10153000BDE88040104670470122F3E790F83C3048
:10154000012B04BF022070474FEAB202032A00F2C7
:1015500001812DE9F043DFE802F0033F7FBF00BFC8
:10156000036840F200461C6A1A6A24F0020422F062
:1015700001021A621A46D3F804C052F818EF8F68B5
:1015800043F48065C4F20106B54244EA070405D17C
:10159000CF6824F00C0427F004073C430F68B542E1
:1015A00006D1D1E905582CF440762E4346EA080CC2
:1015B0002EF073063743C3F804C09F614F68096972
:1015C0005F631C629F6947F008079F619F6927F06E
:1015D00004079F61B2E000BF036840F200481C6A44
:1015E0001A6A24F0200422F010021A621A46D3F874
:1015F00004C052F818EF8F6843F48065C4F2010804
:10160000454544EA071407D1CF686FF0400624F03F
:10161000C00406EA07163443D1F80090454506D1C8
:10162000D1E905562CF440672E4347EA860C2EF488
:10163000E64747EA0927C3F804C09F614F68096974
:101640009F631C629F6947F400679F619F6927F44D
:1016500080679F6171E000BF036840F200481C6A28
:101660001A6A24F4007422F480721A621A46D3F8BB
:1016700004C052F81CEF8F6843F48065C4F201087F
:10168000454544EA072408D1CF6840F2FF463F02AF
:1016900024F4406427EA06063443D1F80090454517
:1016A00006D1D1E905562CF440572E4347EA061CD3
:1016B0002EF0730747EA0907C3F804C0DF614F68DB
:1016C0000969DF631C62DF6947F00807DF61DF69D2
:1016D00027F00407DF6131E0036840F20045D3F8EA
:1016E00020C01A6A43F4806722F480521A621A46B4
:1016F0005C6852F81CEFD1F800808E68C4F20105D6
:10170000AF4204D14D6924F4804444EA85142CF49A
:10171000005747EA06372EF4E64646EA08265C609C
:10172000DE614E6809691E641F62DF6947F4006765
:10173000DF61DF6927F48067DF61090213681943FD
:1017400011600021BDE8F043002280F83C200846EB
:10175000704700BF0121002280F83C2008467047F6
:10176000002804BF0120704710B5044690F83D00E2
:1017700028B9002084F83C00204600F01FF8022021
:1017800084F83D002068211D00F076FF012084F8D8
:10179000460084F83E0084F83F0084F8400084F856
:1017A000410084F8420084F8430084F8440084F83F
:1017B000450084F83D00002010BD00007047000087
:1017C00041B1082910D0042914BF00F1410200F1F1
:1017D0003F020BE090F83E20012A1CBF0120704719
:1017E000022280F83E2013E000F140021278012A24
:1017F0001CBF012070470222082907D0042914BF0A
:1018000080F8412080F83F2002E000BF80F84020AF
:10181000006801F01F010122036A02FA01F123EAC4
:1018200001020262026A114341F2FF72C4F2000235
:101830009042016210DC40F2FF71C4F20001884264
:101840001CDCB0F1804F3FD040F20041C4F20001F7
:10185000884239D03DE000BF40F2FF31C4F20101BF
:10186000884219DC41F60001C4F2000188422BD005
:101870000021C4F2010188421AD02AE040F600019A
:10188000C4F2000188421FD040F60041C4F20001BA
:10189000884219D01DE000BF44F20001C4F20101EA
:1018A000884211D040F20041C4F20101884210D1B7
:1018B000416C40F2004340F48062C4F2010341F401
:1018C00000419A42416404D1816801F00701062970
:1018D00003D0016841F00101016000207047000061
:1018E000002804BF0120704710B5044690F841005D
:1018F00028B9002084F84000204600F021F8242078
:1019000084F841002068C16821F40051C16020467C
:1019100000F054FF2068016921F4904101614169A0
:1019200021F02A014161C16841F40051C1600020E9
:101930002021606484F8411084F84210606310BD77
:1019400080B586B0006844F20042C4F20002002173
:101950009042CDE90411CDE90211019124D041F268
:101960000001C4F20101884248D1002043F6300151
:101970000090C4F202014A6942F010024A614A69C9
:1019800002F010020092009A0090086840F00100F6
:10199000086008684FF4C06100F0010000900098F2
:1019A0000020C4F202001DE043F630000091C4F2B2
:1019B0000200026942F400320261026902F400325C
:1019C0000092009A0091016841F0080101600068EE
:1019D000602100F00800009000980020C4F202008E
:1019E00000F5406001910221029100210391032141
:1019F00004910721059101A9FEF71EFD06B080BDE7
:101A0000FEE700002DE9F04782B0044600689A46E0
:101A10000B9D0A9E0368914643F48062026002684F
:101A20000F4642F48071016020464FF00111002200
:101A30003346009500F070F850B120680068C0058A
:101A400044BF4FF400702064032002B0BDE8F0876B
:101A500040F202082068C0F2010807F0FE070761A3
:101A60002046414632462B4600F03CF920B1012089
:101A700002B0BDE8F08700BF0020019020682A4630
:101A8000416901918069314601900198204600F03A
:101A9000DDF9B0B92068BAF1010F09D04FEA192178
:101AA0000161204631462A4600F0D0F948B9206845
:101AB0005FFA89F10161204631462A4600F0C6F9F5
:101AC00060B1206C0428D2D12068016841F4007113
:101AD0000160012002B0BDE8F08700BF206800224D
:101AE0000168334641F48071016020464FF00111D6
:101AF000009500F011F800289FD147F0010C2768ED
:101B00002046414632462B46C7F810C002B0BDE819
:101B1000F04700F0E7B800002DE9F0410546006805
:101B20001E46144601F47F0201338FB242D0DDF825
:101B30001880B2F5803F40F0878040693840C01B74
:101B4000B0FA80F04009A04240F0C8804EB924E0CD
:101B500040693840C01BB0FA80F04009A04240F014
:101B6000BD80FEF739FDA0EB08012868B142EFD92E
:101B700041693940C91BB1FA81F14909A142E7D154
:101B80009BE000BF40693840C01BB0FA80F04009BC
:101B9000A0424FF0000040F0A280FEF71DFD286833
:101BA00041693940C91BB1FA81F14909A142E9D122
:101BB00083E000BFB2F5803F24D100BF41693940C6
:101BC000C91BB1FA81F14909A14240F087804169FE
:101BD0003940C91BB1FA81F14909A14240F07E8028
:101BE00041693940C91BB1FA81F14909A14275D156
:101BF00041693940C91BB1FA81F14909A142DDD0DF
:101C00006CE000BF81693940C91BB1FA81F1490913
:101C1000A14263D181693940C91BB1FA81F14909F7
:101C2000A1425BD181693940C91BB1FA81F14909EF
:101C3000A14253D181693940C91BB1FA81F14909E7
:101C4000A142DFD04AE000BF80693840C01BB0FA33
:101C500080F04009A04241D146B923E08069384074
:101C6000C01BB0FA80F04009A04237D1FEF7B4FCA7
:101C7000A0EB08012868B142F0D981693940C91B3D
:101C8000B1FA81F14909A142E8D116E080693840F2
:101C9000C01BB0FA80F04009A0424FF0000018BF0E
:101CA000BDE8F081FEF798FC286881693940C91BBE
:101CB000B1FA81F14909A142E8D10020202128632D
:101CC00085F83D1085F83E00296C41F0200129641B
:101CD00085F83C000120BDE8F08100BF0020BDE890
:101CE000F0810000F0B581B0044600681D464369EC
:101CF0008FB203EA0701B94202D1002001B0F0BD62
:101D00004169164601323FD049053FD4CEB100BFEC
:101D1000FEF762FC411B2068B14203D9416939409A
:101D2000B94215D141693940B942E6D04169490506
:101D3000EED52BE041693940B942DED04169490511
:101D400024D4FEF749FC206841693940B942F1D0FA
:101D5000202023E041693940B942CED0416949058C
:101D600014D441693940B942C7D0416949050DD4FD
:101D700041693940B942C0D04169490506D4416939
:101D80003940B942B9D041694905E3D5016841F408
:101D9000007101606FF48061416104200021202204
:101DA000216384F83D2084F83E10226C10432064A7
:101DB00084F83C10012001B0F0BD000070B504466D
:101DC0000068154650F8143F5A063DD40E4629B90E
:101DD00026E000BF50F8141F490635D40168C90633
:101DE00021D4FEF7F9FB411B2068B142F2D94169C9
:101DF0004906EFD400202021206384F83D1084F8A8
:101E00003E00206C40F0200018E000BFFEF7E4FB2D
:101E1000206850F8141F4906ECD50168490613D410
:101E20000168C906F2D56FF0100101600020202181
:101E3000206384F83D1084F83E00206C206400206C
:101E400084F83C00012070BD002070BD70B50368AF
:101E5000044653F8140F000611D40E46481C29D02E
:101E600086BB00BF1868400527D4FEF7B5FB236882
:101E700053F8140F000637D518680006F2D5002075
:101E800070BD00BF18680006F9D41868400514D466
:101E900018680006F3D4186840050ED418680006C8
:101EA000EDD41868400508D4186800064FF000000B
:101EB00048BF70BD18684005E4D56FF480601860B5
:101EC000042012E0154603E053F8140F0006D6D4A0
:101ED00018684005F1D4FEF77FFB401B2368B04231
:101EE000F2D958690006EFD4202000212022216376
:101EF00084F83D2084F83E10226C104320640120B9
:101F000084F83C1070BD000081B0002143F6300021
:101F10000091C4F20200026842F08002026002688E
:101F200002F080020092009A0091026842F00102E1
:101F30000260026802F001020092009A00910268B9
:101F400042F002020260026802F002020092009A6D
:101F50000091026842F004020260026802F004028A
:101F60000092009A0091016841F008010160006848
:101F700000F008000090009801B0704780B540F272
:101F8000880045F60001C2F20000C4F2000148F2E8
:101F9000A06200234FF4804CC0F2010280E80E00E2
:101FA000C0E9033CC0E90533C0E90733FEF71AFB7B
:101FB000002808BF80BDBDE88040FEF725BA0000BC
:101FC00080B540F2DC0045F60041C2F20000C4F2E8
:101FD000000148F2A06200234FF4804CC0F20102DD
:101FE00080E80E00C0E9033CC0E90533C0E90733CF
:101FF000FEF7F8FA002808BF80BDBDE88040FEF774
:1020000003BA000010B594B040F230100021C2F2C3
:1020100000004FF08042532344F61F640D91CDE938
:102020000B110991CDE90711CDE90511CDE9031196
:10203000CDE90111C0E90023C0E902140161816109
:10204000FFF738F9002818BFFEF7DEF94FF480508B
:102050000A9040F23010C2F200000AA9FFF79EF980
:10206000002818BFFEF7D0F940F23010C2F200008D
:10207000FFF776FB002818BFFEF7C6F940F23010D4
:102080000024C2F2000008A9CDE90844FFF7B4F823
:10209000002818BFFEF7B8F96020CDE901040394C9
:1020A000059440F23014C2F2000401A92046002237
:1020B000FFF744FA002818BFFEF7A6F9206840F69B
:1020C0000042C4F20002002190420F911CD040F265
:1020D0000041C4F20001884226D0B0F1804F41D1C6
:1020E00000200E9043F63000C4F20200016841F077
:1020F00001010160006800F001000E900E982020A0
:102100000F90012022E000BF43F630000E91C4F290
:102110000200016841F001010160006800F0010067
:102120000E900E9801200FE000200E9043F6300034
:10213000C4F20200016841F001010160006800F092
:1021400001000E900E9840200F9002200221109165
:10215000002113900020CDE91111C4F202000FA953
:10216000FEF76AF914B010BDB0B594B040F2004566
:1021700040F27810C4F200050021C2F200005322A0
:1021800044F61F630D91CDE90B110991CDE90711BB
:10219000CDE90511CDE90311CDE90111C0E90052E6
:1021A000C0E9021301618161FFF784F8002818BFBC
:1021B000FEF72AF94FF480500A9040F27810C2F2EC
:1021C00000000AA9FFF7EAF8002818BFFEF71CF97B
:1021D00040F27810C2F20000FFF7C2FA002818BFE0
:1021E000FEF712F940F278100024C2F2000008A9AC
:1021F000CDE90844FFF700F8002818BFFEF704F9FE
:102200006020CDE901040394059440F27814C2F2F1
:10221000000401A920460022FFF790F9002818BF0A
:10222000FEF7F2F8206840F60042C4F200020021F6
:1022300090420F9118D0A84226D0B0F1804F40D1E3
:1022400000200E9043F63000C4F20200016841F015
:1022500001010160006800F001000E900E9820203E
:102260000F90012022E000BF43F630000E91C4F22F
:102270000200016841F001010160006800F0010006
:102280000E900E9801200FE000200E9043F63000D3
:10229000C4F20200016841F001010160006800F031
:1022A00001000E900E9840200F9002200221109104
:1022B0000021CDE91111139005F5FE300FA9FEF7AD
:1022C000BBF814B0B0BD0000B0B594B040F6004506
:1022D00040F2C010C4F200050021C2F200005322F7
:1022E00044F61F630D91CDE90B110991CDE907115A
:1022F000CDE90511CDE90311CDE90111C0E9005285
:10230000C0E9021301618161FEF7D4FF002818BF04
:10231000FEF77AF84FF480500A9040F2C010C2F2F3
:1023200000000AA9FFF73AF8002818BFFEF76CF87A
:1023300040F2C010C2F20000FFF712FA002818BFE6
:10234000FEF762F840F2C0100024C2F2000008A9B3
:10235000CDE90844FEF750FF002818BFFEF754F8F7
:102360006020CDE901040394059440F2C014C2F248
:10237000000401A920460022FFF7E0F8002818BF5A
:10238000FEF742F820680021A8420F911CD040F2CD
:102390000041C4F20001884226D0B0F1804F40D104
:1023A00000200E9043F63000C4F20200016841F0B4
:1023B00001010160006800F001000E900E982020DD
:1023C0000F90012022E000BF43F630000E91C4F2CE
:1023D0000200016841F001010160006800F00100A5
:1023E0000E900E9801200FE000200E9043F6300072
:1023F000C4F20200016841F001010160006800F0D0
:1024000001000E900E9840200F90022002211091A2
:102410000021CDE91111139005F5FA300FA9FEF74F
:102420000BF814B0B0BD000080B540F2082041F2B6
:102430000001C2F20000C4F2010100234FF00C0CB5
:102440004FF4E13280E80E00C0E90333C0E905C370
:10245000C361FFF745FA002808BF80BDBDE8804092
:10246000FDF7D2BF80B540F2502044F20041C2F2E5
:102470000000C4F2000100234FF00C0C4FF4E132D5
:1024800080E80E00C0E90333C0E905C3C361FFF76C
:1024900027FA002808BF80BDBDE88040FDF7B4BF23
:1024A000FEE70000FEE7000070470000F0B585B0D1
:1024B00040F2DC040020C2F20004ADF812004FF438
:1024C0007A7501260DF1120720469821DD2201239D
:1024D000CDE900760295FEF737F90520FDF798FF64
:1024E000781CCDE9000620469A21DD2201230295C1
:1024F000FEF72AF99DF812109DF8130040F27002C1
:1025000001F00103C2F20002D37100F00103D373A2
:10251000C1F340031372C0F340031374C1F380038B
:102520005372C0F380035374C1F3C0039372C0F3BA
:10253000C0039374C1F30013D372C0F30013D374B8
:10254000C1F340131373C0F340131375C1F3801329
:102550005373C0F38013C909C00953759173907503
:1025600005B0F0BDF0B583B040F27007C2F20007CD
:1025700040F288040326781CC2F200044FF47A75F6
:10258000CDE9000620469021D02201230295FEF7D6
:10259000DBF80520FDF73CFF381DCDE9000620469D
:1025A0009021D12201230295FEF7CEF803B0F0BDB1
:1025B00070470000FEF77CBAB0B592B0002443F635
:1025C0004000CDE90A44CDE908440594CDE903442F
:1025D000CDE901440094C4F202000168022541F0F3
:1025E00080510160006800F080500090009847F230
:1025F00000000094C4F20000016841F480410160D1
:10260000006800F4804000900098012006904FF48C
:10261000803007904FF480000D9019200E904FF4F9
:10262000A870CDE90F050420119006A80C95FEF7BF
:10263000F5FB18B172B600BFFEE700BF0F20CDE971
:1026400001054FF4A05004904FF48050059001A86C
:1026500005210394FEF7D2FA10B172B6FEE700BF6F
:1026600012B0B0BD4EF68850CEF20000016841F4C1
:102670007001016070470000B0B540F6FF3E05688C
:10268000C4F2000E40F2004C7045C4F2010C27DC8D
:10269000B0F1804F31D040F20043C4F200039842C1
:1026A0002BD040F60003C4F20003984225D041F637
:1026B000FF73C4F2000398422ADC70453CDCB0F1A1
:1026C000804F5FD040F20043C4F20003984259D0DB
:1026D00040F60003C4F20003984253D057E000BF15
:1026E00040F60043C4F20003984206D0604504D08F
:1026F0000023C4F201039842D9D14B6825F070023F
:1027000043EA020541F6FF73C4F200039842D4DDA8
:1027100043F6FF73C4F20103984221DC42F2000346
:10272000C4F2000398422DD00023C4F20103984262
:1027300028D0604526D02AE040F60043C4F20003CA
:1027400098421FD041F60003C4F20003984219D00A
:1027500041F60043C4F20003984213D017E000BFD3
:1027600044F20003C4F2010398420BD044F6000384
:10277000C4F20103984205D044F20043C4F20103BD
:10278000984204D1CB6825F4407243EA02050A68F6
:102790008C684B69C46240F480648262644504BF03
:1027A00009690163026825F0800142F004021943BF
:1027B0000260012242610160B0BD000010B5044614
:1027C0000068D4E902C22369016921F44051114330
:1027D0000161626943EA0C01E3691143C26819436C
:1027E00049F20C639A431143C1604169A26921F423
:1027F000407141F20043114340F48062C4F201038E
:102800009A42416102D1FEF7BFFA01E0FEF7A8FA51
:10281000E16963681922B1F5004FA0FB020123D1E1
:102820005A00DB0FFDF736FD48F21F51C5F2EB11E0
:10283000A0FB01235A094FF69C73C0F6FF7303F106
:10284000805302FB0300322303EBC000A0FB010115
:102850004FF4F87000EA111000EB0210C1F34211BE
:1028600008442168886010BD9A009B0FFDF712FD97
:1028700048F21F51C5F2EB11A0FB01235A094FF694
:102880009C73C0F6FF7302FB0300322303EB0010BE
:10289000A0FB0101F02000EA511000EB0210C1F38F
:1028A000431108442168886010BD0000FEE7000065
:1028B000FEF70CF9FFF780FEFFF726FBFFF780FB22
:1028C000FFF7B2FDFFF7CEFDFFF758FBFFF79AFBCE
:1028D000FFF74AFCFFF7F8FC40F23010C2F20000AC
:1028E0000021FEF76DFF40F27810C2F200000021D7
:1028F000FEF766FF40F2C010C2F200000021FEF7B2
:102900005FFF00BFFFF72EFE0A20FDF781FDFFF7F6
:10291000CDFD0A20FDF77CFDF4E7F1EE100A4FF63D
:10292000FF71C0F2C03120EA010040F04070E1EEDA
:10293000100A7047000000000000000001020304BC
:1029400006070809000000000102030470290008BE
:102950000000002010000000EC01000880290008A1
:1029600010000020900800000C0200080000000089
:1029700001000000100000000024F400000000002E
:040000050800018965
:00000001FF
