:020000040800F2
:10000000D86C00209D010008255A0008E94A000824
:10001000E1570008151E0008D56100080000000027
:10002000000000000000000000000000C15B0008AC
:10003000F120000800000000315A0008B55D0008FA
:10004000B7010008B7010008B7010008B7010008B0
:10005000B7010008B7010008B7010008B7010008A0
:10006000B7010008B7010008B7010008B701000890
:10007000B7010008B7010008B7010008B701000880
:10008000B7010008B7010008B7010008B701000870
:10009000B7010008B7010008B7010008B701000860
:1000A000B7010008B7010008B7010008B701000850
:1000B000B7010008B70100088D5E0008B70100080D
:1000C000B7010008B7010008B7010008B701000830
:1000D000B7010008B7010008B7010008B701000820
:1000E000B7010008B7010008B7010008B701000810
:1000F000B7010008B7010008B7010008B701000800
:10010000B7010008B7010008B7010008B7010008EF
:10011000B7010008B7010008B7010008B7010008DF
:10012000B7010008B7010008B7010008B7010008CF
:10013000B7010008B7010008B7010008B7010008BF
:10014000B7010008B7010008B7010008B7010008AF
:10015000B7010008B7010008B7010008B70100089F
:10016000B7010008B7010008B7010008B70100088F
:10017000B7010008B7010008B7010008000000003F
:10018000B7010008B7010008DFF80CD000F004FA4E
:1001900000480047C1620008D86C0020064880472C
:1001A00006480047FEE7FEE7FEE7FEE7FEE7FEE75C
:1001B000FEE7FEE7FEE7FEE7795E0008890100083A
:1001C0002DE9F05F0546002092469B46884606468C
:1001D000814640241BE0284641464746224600F01F
:1001E0006DF953465A46C01A914110D3114618462C
:1001F000224600F054F92D1A67EB01084F462246BB
:100200000120002100F04BF917EB00094E41201EA0
:10021000A4F10104DFDC484631462A464346BDE8E6
:10022000F09F40EA01039B0703D009E008C9121FB1
:1002300008C0042AFAD203E011F8013B00F8013BA0
:10024000521EF9D270472DE9FE4F81EA030404F0F3
:10025000004421F0004100944FF0000B23F00043D4
:1002600050EA01045ED052EA03045BD0C3F30A549F
:10027000C1F30A552C44A4F2F3340194A0FB0254B8
:10028000C1F3130141F48011C3F3130343F480134A
:1002900001FB024400FB034E840A970A44EA81549E
:1002A00047EA8357A4FB076802958D0A05FB07857B
:1002B0004FEA932C04FB0C542705029D4FEA065885
:1002C00047EA1637B5EB08056EEB070C870E920E62
:1002D00047EA811742EA8312A7FB0201B6EB0B0142
:1002E00064EB00042B0D43EA0C335E1844EB1C5006
:1002F000DA465146E7FB0201C5F313044FEA0B331C
:1003000043EA14534FEA0432019C43EA0603A4F182
:100310000C040294009CCDE900B400F0EEF803B0A8
:10032000BDE8F08F00200146F9E72DE9F04D81EAA4
:10033000030404F0004B21F0004514464FF0000A7E
:1003400023F0004150EA050220D054EA01021DD0FA
:10035000C5F30A570246C5F31303C1F31300C1F3F3
:100360000A5640F4801543F48013A7EB0608101BCF
:10037000D64608F2FD3873EB050002D308F10108F8
:1003800001E092185B41B8F1000F03DA002001464A
:10039000BDE8F08D00204FF48011064684460EE043
:1003A000171B73EB050705D3121B63EB050306430D
:1003B0004CEA010C49084FEA300092185B4150EAC0
:1003C0000107EDD152EA030012D082EA040083EA69
:1003D0000501084305D0101BAB4106D201220023C2
:1003E00006E000224FF0004302E06FF001025310DC
:1003F0001AEB06004CEB085110EB0A0041EB0B0125
:10040000BDE8F04D00F06AB870B5C1F30A5201F0D2
:1004100000450024C1F3130140F2FF3341F4801181
:100420009A4201DA002070BD40F233439A42A2F2B0
:10043000334203DC524200F041F800E090402C438C
:10044000F1D0404270BDC1F30A5210B5C1F313019F
:1004500040F2FF3341F480119A4201DA002010BDCE
:1004600040F233439A42A2F2334203DC524200F09C
:1004700025F810BD904010BD00F0004230F0004063
:100480000AD0C10D01F56071C0F3160042EA0151B6
:10049000C208400711437047002001467047202AD8
:1004A00004DB203A00FA02F1002070479140C2F1CB
:1004B000200320FA03F3194390407047202A04DBFD
:1004C000203A21FA02F00021704721FA02F3D040CD
:1004D000C2F12002914008431946704710B5141E1E
:1004E00073F1000408DA401C41F1000192185B41ED
:1004F0001A4301D120F0010010BD2DE9F04D9246C4
:100500009B4611B1B1FA81F202E0B0FA80F22032DA
:100510009046FFF7C4FF04460F4640EA0A0041EA4E
:100520000B0153465A46084313D0114653EA0100C3
:1005300019D0C8F140025046FFF7C0FF05460E46ED
:10054000504659464246FFF7AAFF084305D001200E
:1005500004E020463946BDE8F08D0020054346EA18
:10056000E0762C4337430A986305E40AA0EB0800C1
:100570000022FD0A44EA47540A3002D50020014611
:10058000E9E7010510196941DDE9084500196941EC
:10059000BDE8F04DA2E700001CB5094800900948ED
:1005A00001900546009C06E0E06840F0010394E8F5
:1005B000070098471034AC42F6D3FFF7E9FD00007E
:1005C000C8800008E8800008F0B581B040F2580407
:1005D000C2F20004A0680025022825612AD19FEDFF
:1005E000330A06F03BFB40F2DC5007F089F840F29A
:1005F0003F0640F24707C2F20006C2F200076561FB
:1006000004F0F6FC3078F179084306BF0121E1617E
:10061000E169FA786069002A01BF0129013060614F
:10062000E5610128ECD10120E0600120206101B0EA
:10063000F0BD00BF9FED1A0A05F080F94FF4486045
:1006400007F05EF89FED170A06F008FB40F69800E9
:1006500007F056F89FED140A05F03AF94FF4FA70D6
:1006600007F04EF840F24705C2F20005E87820B1E5
:1006700004F0BEFCE8780028FAD105F065FB4FF4E1
:10068000FA7007F03DF89FED090A05F0ABF840F667
:10069000980007F035F80120206101B0F0BD00BFDF
:1006A0009A99193F00003443CDCCCC3D0000B442B0
:1006B000F0B581B040F25804C2F200049FED470A41
:1006C0000020A568C4E90400E06105F0CBF840F61D
:1006D000980007F015F89FED420A06F0BFFA40F6C1
:1006E000980007F00DF86069022D53D1032817D048
:1006F00040F24705C2F20005002600BF04F078FC76
:100700002878002806BF0121E161E169EA78606983
:10071000002A01BF012901306061E6610328EDD1A3
:100720009FED2F0A05F05EF840F6980006F0E8FF0E
:1007300040F23F0640F247070025C2F20006C2F22F
:100740000007656104F054FC3078F179084306BF76
:100750000121E161E169FA786069002A01BF01299C
:1007600001306061E5610128ECDB05F0EDFA4FF442
:10077000FA7006F0C5FF9FED1A0A06F06FFA40F610
:10078000980006F0BDFF0120E0600120206101B06B
:10079000F0BD00BF042817D040F24705C2F20005A3
:1007A000002600BF04F024FC2878002806BF0121A1
:1007B000E161E169EA786069002A01BF012901303D
:1007C0006061E6610428EDD105F0BEFA40F2DC502C
:1007D00006F096FF0120206101B0F0BD9A99993E84
:1007E0000000B442F0B581B02DED028B05F088FA1F
:1007F00040F25804C2F200049FED720A0020A5687E
:10080000C4E90400A061E06106F028FA40F698000F
:1008100006F076FFA069022D40F0828000281DDCE2
:100820009FED698A40F23F05C2F200050DE000BF6E
:10083000B0EE480A05F04CF84FF4FA7006F060FF8D
:10084000A0690130A061012808DA04F0D1FB287802
:10085000E9790843ECD0A0690128F6DB4FF47A70FF
:1008600006F04EFF9FED570A04F0BCFF40F2DC504B
:1008700006F046FF6069052816D040F24705C2F22F
:100880000005002604F0B4FB2878002806BF0121EB
:10089000E161E169EA786069002A01BF012901305C
:1008A0006061E6610528EDD105F04EFA4FF4FA706B
:1008B00006F026FF9FED430A04F094FF4FF4E16039
:1008C00006F01EFF40F23F0640F247070025C2F245
:1008D0000006C2F20007656104F08AFB3078F17906
:1008E000084306BF0121E161E169FA786069002AE5
:1008F00001BF012901306061E5610128ECDB05F0F1
:1009000023FA4FF4FA7006F0FBFE9FED2E0A06F074
:10091000A5F940F2DC5006F0F3FE0120E0604BE068
:1009200000281DDC9FED288A40F23F05C2F2000539
:100930000DE000BFB0EE480A04F0CAFF4FF4FA70B1
:1009400006F0DEFEA0690130A061012808DA04F09B
:100950004FFB2878E9790843ECD0A0690128F6DB41
:100960004FF4FA6006F0CCFE9FED160A04F03AFF51
:1009700040F2DC5006F0C4FE6069062816D040F252
:100980004705C2F20005002604F032FB2878002853
:1009900006BF0121E161E169EA786069002A01BFCF
:1009A000012901306061E6610628EDD105F0CCF93E
:1009B00040F2DC5006F0A4FE01202061BDEC028B69
:1009C00001B0F0BD0000B442B81E053EF0B581B0E4
:1009D00040F258049FED370AC2F200040025C4E932
:1009E0000455E56106F03AF940F2DC5006F088FE65
:1009F000606900281BDC40F23F0640F24707C2F264
:100A00000006C2F2000700BF04F0F2FA3078F17974
:100A1000084306BF0121E161E169FA786069002AB3
:100A200001BF012901306061E5610128ECDB05F0BF
:100A30008BF94FF4FA7006F063FEA068022834D1F7
:100A40009FED1C0A04F0CEFE4FF4E16006F058FE64
:100A500040F23F0640F247070025C2F20006C2F20C
:100A60000007656104F0C4FA3078F179084306BFE5
:100A70000121E161E169FA786069002A01BF012979
:100A800001306061E5610128ECDB05F05DF94FF4B0
:100A9000FA7006F035FE9FED070A06F0DFF84FF416
:100AA000E16006F02DFE012020620120206101B0EE
:100AB000F0BD00BF0000B442F0B581B02DED028B57
:100AC00040F25804C2F200049FED630A0020A568BA
:100AD000C4E90400E06104F0C5FE40F6980006F0A9
:100AE0000FFE9FED5E0A06F0B9F840F6980006F09A
:100AF00007FE6069022D59D1032817D040F247053F
:100B0000C2F20005002600BF04F072FA287800281F
:100B100006BF0121E161E169EA786069002A01BF4D
:100B2000012901306061E6610328EDD105F00CF97F
:100B300040F2DC5006F0E4FD9FED480A04F052FE5E
:100B400040F2DC5006F0DCFD9FED458A40F23F05A7
:100B50000020C2F20005A0610DE000BFB0EE480A1F
:100B600004F0B6FE4FF4FA7006F0CAFDA069013039
:100B7000A061022808DA04F03BFA28786978084373
:100B8000ECD0A0690228F6DB05F0DEF840F2DC507C
:100B900006F0B6FD9FED310A06F060F84FF4FA60FA
:100BA00006F0AEFD012020624FE000BF40F2470595
:100BB0000328C2F2000513D0002600BF04F018FA83
:100BC0002878002806BF0121E161E169EA786069BF
:100BD000002A01BF012901306061E6610328EDD1DF
:100BE00005F0B2F84FF4FA7006F08AFD9FED1B0A8B
:100BF00004F0F8FD40F2DC5006F082FD40F23F07C1
:100C00000026C2F20007666104F0F2F93878F9793B
:100C1000084306BF0121E161E169EA786069002AC1
:100C200001BF012901306061E6610128ECD105F0C6
:100C30008BF84FF4FA7006F063FD9FED080A06F09A
:100C40000DF840F2DC5006F05BFD01202061BDECA8
:100C5000028B01B0F0BD00BF9A99993E0000B442EA
:100C6000B81E053EF0B581B02DED028B05F048F8B9
:100C700040F25804C2F200049FED820A0020A568E9
:100C8000C4E90400A061E06105F0E8FF40F69800C7
:100C900006F036FDA069022D76D100281CDC9FED00
:100CA0007A8A40F23F05C2F200050CE0B0EE480A35
:100CB00004F00EFE4FF4FA7006F022FDA069013038
:100CC000A061012808DA04F093F92878E97908434B
:100CD000ECD0A0690128F6DB40F2DC5006F010FDF4
:100CE0009FED680A04F07EFD40F2DC5006F008FD3E
:100CF0006069052816D040F24705C2F200050026BB
:100D000004F076F92878002806BF0121E161E16945
:100D1000EA786069002A01BF012901306061E6615B
:100D20000528EDD105F010F840F2DC5006F0E8FCA3
:100D30009FED540A04F056FD40F2DC5006F0E0FC52
:100D40009FED518A40F23F050020C2F20005A061EC
:100D50000DE000BFB0EE480A04F0BAFD4FF4FA709F
:100D600006F0CEFCA0690130A061022808DA04F088
:100D70003FF9287869780843ECD0A0690228F6DBAF
:100D800001202062206168E040F23F050028C2F2A5
:100D9000000519DC9FED3C8A0DE000BFB0EE480A6B
:100DA00004F096FD4FF4FA7006F0AAFCA069013039
:100DB000A061012808DA04F01BF92878E9790843D2
:100DC000ECD0A0690128F6DB40F2DC5006F098FC7C
:100DD0009FED2C0A04F006FD40F2DC5006F090FC7A
:100DE000606940F247060528C2F2000612D00027CB
:100DF00004F0FEF83078002806BF0121E161E169C6
:100E0000F2786069002A01BF012901306061E76161
:100E10000528EDD104F098FF4FF4967006F070FCB1
:100E20009FED180A04F0DEFC40F2DC5006F068FC8E
:100E30000027676104F0DCF82878E979084306BFE9
:100E40000121E161E169F2786069002A01BF0129AD
:100E500001306061E7610128ECD104F075FF4FF4C7
:100E6000FA7006F04DFC9FED070A05F0F7FE4FF40F
:100E7000E16006F045FC01202061BDEC028B01B071
:100E8000F0BD00BF0000B442B81E053EF0B581B011
:100E90002DED028B40F25804C2F20004A16800203C
:100EA000022920624AD19FED578AB0EE480A05F028
:100EB000D5FE40F6980006F023FC9FED530A04F09F
:100EC00007FD40F6B83006F01BFCB0EE480A05F00E
:100ED000C5FE40F6980006F013FC9FED4C0A04F0A6
:100EE000F7FC4FF4FA7006F00BFC40F24705C2F233
:100EF0000005E87840B100BF04F07AF80A2006F057
:100F0000FFFBE8780028F7D104F01EFF4FF4FA70D9
:100F100006F0F6FB9FED3B0A05F0A0FE40F69800B8
:100F200006F0EEFB9FED3A0A04F0D2FC40F6B83032
:100F300006F0E6FB0120C4E908005CE09FED310A01
:100F4000E061C4E9040005F089FE40F2DC5006F0DF
:100F5000D7FB606940F23F0540F247060028C2F225
:100F60000005C2F2000614DC002700BF04F040F8C0
:100F70002878E979084306BF0121E161E169F27847
:100F80006069002A01BF012901306061E761012821
:100F9000ECDB04F0D9FE4FF4FA7006F0B1FB9FEDE4
:100FA000190A04F01FFC40F2DC5006F0A9FB0027F0
:100FB000676100BF04F01CF82878E979084306BF90
:100FC0000121E161E169F2786069002A01BF01292C
:100FD00001306061E7610128ECDB04F0B5FE4FF4FD
:100FE000FA7006F08DFB9FED070A05F037FE40F220
:100FF000DC5006F085FB01202061BDEC028B01B0C6
:10100000F0BD00BF0000B4429A99193FCDCCCC3D51
:10101000CDCC4C3FF0B581B040F258049FED4E0A64
:10102000C2F2000400262661266204F0DBFB40F6D3
:10103000980006F065FB40F23F07C2F200073878DF
:1010400040B100BF03F0D4FF0A2006F059FB387806
:101050000028F7D104F078FE4FF4FA7006F050FB48
:101060009FED3E0A04F034FC40F6980006F048FB81
:101070009FED3B0A05F0F2FD40F2DC5006F040FB2C
:1010800040F24705C2F20005666100BF03F0B0FF01
:101090003878F979084306BF0121E161E169EA780E
:1010A0006069002A01BF012901306061E661012801
:1010B000ECDB04F049FE4FF4FA7006F021FBA06867
:1010C000022844D19FED260A05F0C8FD40F698009D
:1010D00006F016FB9FED230A04F0FAFB4FF4FA70BA
:1010E00006F00EFBE87838B103F082FF0A2006F024
:1010F00007FBE8780028F7D19FED1B0A04F0E8FB16
:101100004FF4FA7006F0FCFAE87838B103F070FF9B
:101110000A2006F0F5FAE8780028F7D104F014FE6A
:101120004FF4FA7006F0ECFA9FED0D0A05F096FD0B
:1011300040F6980006F0E4FA9FED0C0A04F0C8FBB4
:1011400040F6B83006F0DCFA0120C4E908000120BE
:10115000206101B0F0BD00BF0000344385EBD13EFB
:101160000000B4428FC2F53DCDCCCC3DCDCC4C3F40
:10117000F0B581B040F258049FED620AC2F200045B
:101180000027C4E90477C4E9077704F02BFB40F695
:10119000980006F0B5FA606940F23F0640F2470554
:1011A0000128C2F20006C2F2000512DC03F020FFA3
:1011B0003078F179084306BF0121E161E169EA78FD
:1011C0006069002A01BF012901306061E7610228DE
:1011D000ECDB04F0B9FD4FF4FA7006F091FA9FEDE4
:1011E0004A0A04F0FFFA40F2A46006F089FA307867
:1011F00040B100BF03F0FCFE0A2006F081FA30780F
:101200000028F7D19FED410A04F098FB40F2DC5032
:1012100006F076FA9FED3E0A04F05AFB4FF4FA60AE
:1012200006F06EFA9FED3B0A05F018FD4FF4FA60E8
:1012300006F066FA0027676103F0DAFE3078F1798C
:10124000084306BF0121E161E169EA786069002A8B
:1012500001BF012901306061E7610128ECDB04F086
:1012600073FD4FF4FA7006F04BFAA068022844D1DF
:101270009FED290A05F0F2FC40F6980006F040FACE
:101280009FED260A04F024FB4FF4FA7006F038FABA
:10129000E87838B103F0ACFE0A2006F031FAE878BD
:1012A0000028F7D19FED1D0A04F012FB4FF4FA70ED
:1012B00006F026FAE87838B103F09AFE0A2006F024
:1012C0001FFAE8780028F7D104F03EFD4FF4FA70D9
:1012D00006F016FA9FED100A05F0C0FC40F69800E3
:1012E00006F00EFA9FED0E0A04F0F2FA40F6B8305E
:1012F00006F006FA0120C4E908000120206101B0CF
:10130000F0BD00BF000034430000B6429A99993EF8
:10131000EC51B83E0000B2420000B442CDCCCC3D0E
:10132000CDCC4C3F10B52DED028B40F25804C2F2EB
:101330000004A06800210228216117D001281DD0D7
:10134000B8B99FED328AB0EE480A04F031FB40F2A2
:10135000DC5006F0D5F99FED2E0A04F0B9FA40F200
:10136000DC5006F0CDF962201BE000BF0120C4E98B
:10137000021001202061BDEC028B10BD9FED238A7D
:10138000B0EE480A04F014FB40F6980006F0B8F9F5
:101390009FED1F0A04F09CFA40F2DC5006F0B0F911
:1013A000202004F019FF4FF4486006F0A9F904F07A
:1013B000A7FC04F079FB04F015FC40F6C41006F01D
:1013C0009FF905F02BFC40F2DC5006F099F9B0EEE5
:1013D000480A04F0B3FA4FF4FA7006F091F941208C
:1013E00004F0FAFE4FF47A7006F08AF99FED090ACC
:1013F00004F0F8F940F6980006F082F9A068013090
:10140000A06001202061BDEC028B10BD0AD7A33E75
:1014100085EBD13E0000344310B52DED028B40F238
:101420005804C2F20004A06800210228216139D0CA
:1014300001283FD0C8BB9FED468AB0EE480A04F0B1
:10144000B7FA40F2DC5006F05BF99FED3F0A04F07A
:101450003FFA40F2DC5006F053F9622004F0BCFE83
:101460004FF4486006F04CF904F04AFC04F01CFB11
:1014700004F0B8FB40F6C41006F042F905F0CEFBCC
:1014800040F2DC5006F03CF9B0EE480A04F056FA9F
:101490004FF4FA7006F034F9412004F09DFE40F656
:1014A00098003DE00120C4E9021001202061BDEC5C
:1014B000028B10BD9FED238AB0EE480A04F078FA43
:1014C00040F6980006F01CF99FED1F0A04F000FAA0
:1014D00040F2DC5006F014F9232004F07DFE4FF4B6
:1014E000486006F00DF904F00BFC04F0DDFA04F09E
:1014F00079FB40F6C41006F003F905F08FFB40F2CB
:10150000DC5006F0FDF8B0EE480A04F017FA4FF48C
:10151000FA7006F0F5F8412004F05EFE4FF47A70A0
:1015200006F0EEF89FED090A04F05CF940F6980029
:1015300006F0E6F8A0680130A06001202061BDEC53
:10154000028B10BD52B89E3EB81E053E00003443CB
:10155000E17A943E10B52DED028B40F25804C2F2B0
:101560000004A06800210228216117D001281DD0A5
:10157000B8B99FED358AB0EE480A04F019FA40F286
:10158000DC5006F0BDF89FED2E0A04F0A1F940F200
:10159000DC5006F0B5F862201BE000BF0120C4E972
:1015A000021001202061BDEC028B10BD9FED238A4B
:1015B000B0EE480A04F0FCF940F6980006F0A0F8F6
:1015C0009FED1F0A04F084F940F2DC5006F098F811
:1015D000232004F001FE4FF4486006F091F804F077
:1015E0008FFB04F061FA04F0FDFA40F6C41006F037
:1015F00087F805F013FB40F2DC5006F081F8B0EEFE
:10160000480A04F09BF94FF4FA7006F079F841208B
:1016100004F0E2FD4FF47A7006F072F89FED090ACB
:1016200004F0E0F840F6980006F06AF8A06801308F
:10163000A06001202061BDEC028B10BD52B89E3E1F
:10164000B81E053E00003443E17A943E10B540F2E6
:101650005804C2F20004A0680021022821612FD0A2
:10166000012839D0A0BB9FED360A04F031F94FF4C0
:10167000FA6006F045F8622004F0AEFD40F2DC505E
:1016800006F03EF804F03CFB04F00EFA04F0AAFA6F
:1016900040F6C41006F034F805F0C0FA40F2DC5011
:1016A00006F02EF89FED270A04F0DCF84FF4FA70EC
:1016B00006F026F8412004F08FFD4FF4FA6037E081
:1016C00004F0E8F904F026FB40F2DC5006F018F8CC
:1016D0000120206110BD00BF9FED190A04F0F8F849
:1016E0004FF4FA6006F00CF81D2004F075FD40F28E
:1016F000DC5006F005F804F003FB04F0D5F904F023
:1017000071FA40F6C41005F0FBFF05F087FA40F2CD
:10171000DC5005F0F5FF9FED0B0A04F0A3F84FF441
:10172000FA7005F0EDFF412004F056FD4FF496608D
:1017300005F0E6FFA0680130A0600120206110BD27
:10174000295CCF3E6666E63E10B540F25804C2F210
:101750000004A06800210228216133D001283DD077
:10176000C0BB9FED3A0A04F0B3F840F2DC5005F03C
:10177000C7FF4FF4FA7005F0C3FF622004F02CFDA0
:101780004FF4486005F0BCFF04F0BAFA04F08CF99D
:1017900004F028FA40F6C41005F0B2FF05F03EFA56
:1017A00040F2DC5005F0ACFF9FED290A04F05AF836
:1017B0004FF4FA7005F0A4FF412004F00DFD4FF442
:1017C000FA603BE004F066F904F0A4FA40F2DC5061
:1017D00005F096FF0120206110BD00BF9FED1B0AA0
:1017E00004F076F840F2DC5005F08AFF4FF4FA700E
:1017F00005F086FF1D2004F0EFFC4FF4486005F073
:101800007FFF04F07DFA04F04FF904F0EBF940F6A5
:10181000C41005F075FF05F001FA40F2DC5005F048
:101820006FFF9FED0B0A04F01DF84FF4FA7005F0FE
:1018300067FF412004F0D0FC4FF4966005F060FF94
:10184000A0680130A0600120206110BD295CCF3E5E
:101850006666E63E10B540F25804C2F20004A06885
:101860000021022821612FD0012839D0A0BB9FED93
:10187000360A04F02DF84FF4FA6005F041FF6220BB
:1018800004F0AAFC4FF4486005F03AFF04F038FA7F
:1018900004F00AF904F0A6F940F6C41005F030FF90
:1018A00005F0BCF940F2DC5005F02AFF9FED270A55
:1018B00003F0D8FF4FF4FA7005F022FF412004F046
:1018C0008BFC40F2DC5037E004F0E4F804F022FA3C
:1018D00040F2DC5005F014FF0120206110BD00BF74
:1018E0009FED190A03F0F4FF4FF4FA6005F008FFCA
:1018F0001D2004F071FC4FF4486005F001FF04F076
:10190000FFF904F0D1F804F06DF940F6C41005F0C9
:10191000F7FE05F083F940F2DC5005F0F1FE9FED93
:101920000B0A03F09FFF4FF4FA7005F0E9FE412027
:1019300004F052FC4FF4966005F0E2FEA06801301E
:10194000A0600120206110BD295CCF3E6666E63EA6
:1019500010B52DED048B40F25804C2F20004A068CB
:1019600000210228216145D0012851D0002849D109
:101970009FED508AB0EE480A03F0E0FF40F2A46009
:1019800005F0BEFE9FED4C9AB0EE490A03F0A0FFB1
:1019900040F2A46005F0B4FE692004F01DFC40F2A2
:1019A000DC5005F0ADFE04F0ABF904F07DF804F076
:1019B00019F940F6980005F0A3FE05F02FF940F262
:1019C000DC5005F09DFEB0EE490A03F04BFF40F6F7
:1019D000980005F095FEB0EE480A03F0E9FF4FF4D9
:1019E000FA7005F08DFE412004F0F6FB4FF47A709A
:1019F0004EE000BF04F04EF804F08CF940F2DC50E9
:101A000005F07EFE01202061BDEC048B10BD00BFFF
:101A10009FED288AB0EE480A03F090FF40F6980048
:101A200005F06EFE9FED249AB0EE490A03F050FFD8
:101A300040F6980005F064FE1E2004F0CDFB40F255
:101A4000DC5005F05DFE04F05BF904F02DF804F0C5
:101A5000C9F840F6980005F053FE05F0DFF840F2B3
:101A6000DC5005F04DFEB0EE490A03F0FBFE4FF4EA
:101A7000FA7005F045FE412004F0AEFB4FF496608D
:101A800005F03EFEB0EE480A03F092FF40F2DC5053
:101A900005F036FE9FED090A03F0A4FE40F698001B
:101AA00005F02EFEA0680130A06001202061BDEC91
:101AB000048B10BDF6289C3E295CCF3E00003443C9
:101AC00010B52DED048B40F25804C2F20004A0685A
:101AD00000210228216145D0012851D0002849D198
:101AE0009FED508AB0EE480A03F028FF40F69800B8
:101AF00005F006FE9FED4C9AB0EE490A03F0E8FEB1
:101B000040F6980005F0FCFD692004F065FB40F20A
:101B1000DC5005F0F5FD04F0F3F803F0C5FF04F028
:101B200061F840F6980005F0EBFD05F077F84FF40A
:101B3000FA7005F0E5FDB0EE490A03F093FE40F6B9
:101B4000980005F0DDFD412004F046FB4FF4FA70EB
:101B500005F0D6FDB0EE480A03F02AFF40F69800E3
:101B60004EE000BF03F096FF04F0D4F84FF4FA7093
:101B700005F0C6FD01202061BDEC048B10BD00BF47
:101B80009FED288AB0EE480A03F0D8FE40F6980090
:101B900005F0B6FD9FED249AB0EE490A03F098FED9
:101BA00040F6980005F0ACFD1E2004F015FB40F255
:101BB000DC5005F0A5FD04F0A3F803F075FF04F078
:101BC00011F840F6980005F09BFD05F027F84FF45A
:101BD000FA7005F095FDB0EE490A03F043FE40F2BD
:101BE000A46005F08DFDB0EE480A03F0E1FE4FF46D
:101BF000FA7005F085FD412004F0EEFA4FF47A709A
:101C000005F07EFD9FED090A03F0ECFD40F698001B
:101C100005F076FDA0680130A06001202061BDECD8
:101C2000048B10BDF6289C3E295CCF3E0000344357
:101C300010B52DED048B40F25804C2F20004A068E8
:101C400000210228216145D0012851D0002849D126
:101C50009FED508AB0EE480A03F070FE40F69800FF
:101C600005F04EFD9FED4C9AB0EE490A03F030FEB0
:101C700040F6980005F044FD692004F0ADFA40F20A
:101C8000DC5005F03DFD04F03BF803F00DFF03F0E0
:101C9000A9FF40F6980005F033FD04F0BFFF4FF4B4
:101CA000FA7005F02DFDB0EE490A03F0DBFD40F2BD
:101CB000DC5005F025FD412004F08EFA4FF4FA7057
:101CC00005F01EFDB0EE480A03F072FE40F69800E3
:101CD0004EE000BF03F0DEFE04F01CF84FF4FA7093
:101CE00005F00EFD01202061BDEC048B10BD00BF8E
:101CF0009FED288AB0EE480A03F020FE40F2A4606F
:101D000005F0FEFC9FED249AB0EE490A03F0E0FDD9
:101D100040F2A46005F0F4FC1E2004F05DFA40F2ED
:101D2000DC5005F0EDFC03F0EBFF03F0BDFE03F02B
:101D300059FF40F6980005F0E3FC04F06FFF4FF404
:101D4000FA7005F0DDFCB0EE490A03F08BFD40F2BD
:101D5000A46005F0D5FCB0EE480A03F029FE4FF46C
:101D6000FA7005F0CDFC412004F036FA4FF47A7099
:101D700005F0C6FC9FED090A03F034FD40F698001B
:101D800005F0BEFCA0680130A06001202061BDEC20
:101D9000048B10BDF6289C3E295CCF3E00003443E6
:101DA000B0B540F25804C2F200040020E061C4E97A
:101DB00004004FF47A7005F0A3FC40F24705C2F22C
:101DC0000005E87840B100BF03F012F90A2005F0E1
:101DD00097FCE8780028F7D19FED0D0A03F078FD15
:101DE0004FF4FA7005F08CFCE87838B103F000F994
:101DF0000A2005F085FCE8780028F7D103F0A4FF5D
:101E00004FF4FA7005F07CFC01202061B0BD00BFEA
:101E1000CDCCCC3DFEE7000010B52DED028B40F29D
:101E200058049FED200AC2F200040020206103F054
:101E30004FFD40F2DC5005F063FC9FED1B8AB0EED5
:101E4000480A03F0B5FD40F6B83005F059FC40F201
:101E50003800C2F200000078606003F051FF03F028
:101E600023FE03F0BFFE4FF4FA7005F049FC04F0C6
:101E7000D5FE4FF4FA6005F043FCB0EE480A03F0DB
:101E80005DFD40F2DC5005F03BFC9FED080A03F0DD
:101E9000A9FC4FF4486005F033FC01202061BDEC43
:101EA000028B10BD3D0A573E9A99993E000034437B
:101EB00010B540F258049FED170AC2F2000400204A
:101EC0002061A06003F004FD4FF4FA6005F018FCF7
:101ED00040F23800C2F200000078606003F010FFAA
:101EE00003F0E2FD03F07EFE40F6980005F008FCEA
:101EF00004F094FE40F2DC5005F002FC9FED060A6F
:101F000003F0B0FC40F2DC5005F0FAFB0120206148
:101F100010BD00BF14AE473E8FC2753E10B52DED0B
:101F2000048B9FED298A40F25804C2F2000400207D
:101F3000B0EE480A2061A06003F0CAFC40F69800A9
:101F400005F0DEFB9FED219AB0EE490A03F0F6FCA6
:101F500040F6980005F0D4FB40F23800C2F20000D1
:101F60000078606003F0CCFE03F09EFD40F2DC5090
:101F700005F0C6FB03F036FE40F6C41005F0C0FBCA
:101F800004F04CFE40F2DC5005F0BAFBB0EE490A1A
:101F900003F00EFD40F6980005F0B2FBB0EE480AE3
:101FA00003F060FC40F6980005F0AAFB9FED080ADC
:101FB00003F018FC40F6980005F0A2FB0120206118
:101FC000BDEC048B10BD00BFAE47613E52B89E3ED3
:101FD0000000344340F25800C2F2000000690138AA
:101FE000B0FA80F04009704740F25800C2F2000099
:101FF0000169406881F0010180F003000843B0FAF4
:1020000080F040097047000040F25800C2F2000022
:10201000D0E9030181F001010843B0FA80F04009E2
:102020007047000040F25800C2F2000001694068A9
:1020300081F0010180F001000843B0FA80F040090E
:102040007047000040F25800C2F200000169406889
:1020500081F0010180F002000843B0FA80F04009ED
:102060007047000040F25800C2F20000D0E90301BE
:1020700081F0010180F001000843B0FA80F04009CE
:102080007047000040F25800C2F200000169006A87
:1020900081F001010843B0FA80F040097047000068
:1020A00040F25800C2F200000169006A81F00101AB
:1020B00080F001000843B0FA80F04009704700004A
:1020C00040F25800C2F200000169406A81F001014B
:1020D0000843B0FA80F040097047000040F2580011
:1020E000C2F20000406A0138B0FA80F0400970473F
:1020F00070470000B0B540F25805C2F2000500205C
:10210000E861C5E90400A868B5EE000A40F2DC54B5
:102110009FED211A0028C8BFB0EE410AC8BF40F6A3
:10212000980403F0D5FB204605F0EAFA03F00CFE14
:102130004FF4FA7005F0E4FA9FED180A04F08EFDF2
:1021400040F6980005F0DCFA40F23F04C2F20004C9
:10215000E07938B102F04CFF0A2005F0D1FAE079BD
:102160000028F7D103F0F0FD4FF4FA7005F0C8FA3B
:102170009FED0B0A03F0ACFB40F6980005F0C0FAA7
:102180009FED080A03F014FC4FF4486005F0B8FA1C
:1021900001202861B0BD00BFF628DC3E0000B4423B
:1021A000B81E053E9A99193FF0B581B040F2580427
:1021B00040F23F0540F24706C2F200040027C2F297
:1021C0000005C2F20006E761C4E904770CE000BF35
:1021D0000121E161F2786069002A01BF0129013023
:1021E0006061E76102280BDA02F002FFA879E97961
:1021F0000843EDD0287869780843E9D0E169E9E738
:1022000003F0A2FD4FF4FA7005F07AFA9FED190A77
:1022100003F094FB40F2DC5005F072FA002767618E
:102220000CE000BF0121E161F2786069002A01BF82
:10223000012901306061E761022809DA02F0D8FE65
:10224000E8790028EED028780028EBD0E169EBE7A8
:1022500003F07AFD4FF4FA7005F052FA9FED060A8A
:1022600004F0FCFC40F2DC5005F04AFA0120206149
:1022700001B0F0BD9A99993E0000B442F0B581B02A
:102280002DED028B40F2580440F23F0540F2470624
:10229000C2F200040027C2F20005C2F20006E761A4
:1022A000C4E904770CE000BF0121E161F2786069C4
:1022B000002A01BF012901306061E76102280BDAC1
:1022C00002F096FEA879E9790843EDD0287869787C
:1022D0000843E9D0E169E9E703F036FD4FF4FA700D
:1022E00005F00EFA9FED390A03F028FB40F2DC50AE
:1022F00005F006FA002767610CE000BF0121E161EB
:10230000F2786069002A01BF012901306061E7614C
:10231000032811DA02F06CFE687920B9A87910B9A7
:10232000E8790028EAD0287820B9687810B9A87828
:102330000028E3D0E169E3E703F006FD4FF4FA700B
:1023400005F0DEF99FED228A0020606106E000BF03
:102350000A2005F0D5F96069022811DA02F048FE7A
:10236000287869780843F3D1B0EE480A03F0B0FA50
:102370006069013060614FF42F7005F0C1F9E7E743
:1023800003F0E2FC4FF47A7005F0BAF99FED118A80
:10239000B0EE480A04F062FC40F6980005F0B0F98F
:1023A0009FED0D0A03F094FA40F6B83005F0A8F955
:1023B000B0EE480A04F052FC40F6980005F0A0F98F
:1023C00001202061BDEC028B01B0F0BD9A99993ECD
:1023D000B81E053E0000B442AE47613FF0B581B083
:1023E00040F258049FED1F0AC2F200040025E56187
:1023F000C4E9045503F0F6F940F6980005F080F9B9
:10240000606900281BDC40F23F0640F24707C2F239
:102410000006C2F2000700BF02F0EAFD7078F17911
:10242000084306BF0121E161E169FA786069002A89
:1024300001BF012901306061E5610128ECDB03F097
:1024400083FC4FF4FA7005F05BF99FED070A04F086
:1024500005FC40F2DC5005F053F90120206101B089
:10246000F0BD00BF000034430000B442F0B581B0BD
:1024700040F258049FED3C0AC2F200040025E561D9
:10248000C4E9045503F05AFA40F6AC5005F038F9A7
:102490009FED360A03F0A6F940F6980005F030F9F2
:1024A000606940F23F0640F247070028C2F200068A
:1024B000C2F200073ADD03F047FC4FF4FA7005F072
:1024C0001FF99FED2B0A03F039FA40F6980005F04A
:1024D00017F965610CE000BF0121E161FA786069DC
:1024E000002A01BF012901306061E561022829DA73
:1024F00002F07EFD707920B9B07910B9F07900282A
:10250000EAD0307820B9707810B9B0780028E3D0DC
:10251000E169E3E70121E161FA786069002A01BF1E
:10252000012901306061E5610128C4DA02F060FD33
:10253000B079F1790843EDD0307871780843E9D06B
:10254000E169E9E703F000FC4FF4FA7005F0D8F810
:102550009FED080A04F082FB40F2DC5005F0D0F851
:102560000120206101B0F0BD6666663F0000344383
:102570009A99993E0000B442F0B581B02DED028BDE
:1025800040F258049FED520AC2F200040026E661B0
:10259000C4E9046603F0D2F940F6AC5005F0B0F897
:1025A0009FED4C0A03F01EF940F6980005F0A8F8DC
:1025B000606940F23F0540F247070028C2F200057B
:1025C000C2F2000734DD03F0BFFB4FF4FA7005F0F0
:1025D00097F89FED410A03F0B1F940F6980005F035
:1025E0008FF866610CE000BF0121E161FA78606953
:1025F000002A01BF012901306061E661032823DA66
:1026000002F0F6FCA879E9790843EDD028786978DA
:102610000843E9D0E169E9E70121E161FA786069FD
:10262000002A01BF012901306061E6610128CADA90
:1026300002F0DEFCA879E9790843EDD028786978C2
:102640000843E9D0E169E9E7C82005F059F89FEDB2
:10265000238A0020A0610CE0B0EE480A03F038F9AC
:102660004FF4FA7005F04CF8A0690130A06102281F
:1026700008DA02F0BDFC287869780843ECD0A0693C
:102680000228F6DB03F060FB4FF47A7005F038F8AF
:102690009FED138AB0EE480A04F0E0FA4FF4FA60B6
:1026A00005F02EF89FED0F0A03F012F940F6B8304E
:1026B00005F026F8B0EE480A04F0D0FA4FF4FA60BC
:1026C00005F01EF801202061BDEC028B01B0F0BDC9
:1026D0006666663F000034439A99993EB81E053EEF
:1026E0000000B442AE47613FF0B581B040F25804FB
:1026F0009FED300AC2F200040025E561C4E90455EB
:1027000003F070F840F2DC5004F0FAFF606940F228
:102710003F0640F247070028C2F20006C2F2000757
:1027200013DC00BF02F064FC3078F179084306BF87
:102730000121E161E169FA786069002A01BF01299C
:1027400001306061E5610128ECDB03F0FDFA4FF434
:10275000FA7004F0D5FF9FED170A04F07FFA40F2FB
:10276000DC5004F0CDFF656102F042FC3078F17975
:10277000084306BF0121E161E169FA786069002A36
:1027800001BF012901306061E5610128ECDB03F044
:10279000DBFA4FF4FA7004F0B3FF9FED060A04F081
:1027A0005DFA40F2DC5004F0ABFF0120206101B083
:1027B000F0BD00BF0000B442F0B581B040F2580453
:1027C0009FED290AC2F200040025E561C4E9045521
:1027D00003F07EF84FF4FA7004F092FF40F24706DF
:1027E000C2F20006F07838B102F002FC0A2004F0D0
:1027F00087FFF0780028F7D103F0A6FAC82004F08C
:102800007FFF9FED1A0A03F063F84FF4966004F01F
:1028100077FF9FED170A02F0E5FF40F2DC5004F06D
:102820006FFF40F23F07C2F20007656102F0E0FB74
:102830003878F979084306BF0121E161E169F2784E
:102840006069002A01BF012901306061E56101284A
:10285000ECD103F079FA4FF4FA7004F051FF012043
:10286000206101B0F0BD00BFCDCCCC3D295C8F3ED6
:102870000000B442F0B581B040F2580440F23F0588
:1028800040F24706C2F200040027C2F20005C2F27D
:102890000006E761C4E9047702F0AAFBA879E979A8
:1028A000084306BF0121E161E169F2786069002A0D
:1028B00001BF012901306061E7610228ECDB03F010
:1028C00043FA4FF4FA7004F01BFF9FED140A03F073
:1028D0006FF840F6B83004F013FF0027676100BFBF
:1028E00002F086FB2878E979084306BF0121E161FF
:1028F000E169F2786069002A01BF01290130606155
:10290000E7610128ECDB03F01FFA4FF4FA7004F0E2
:10291000F7FE0120206101B0F0BD00BF9A99193F78
:10292000B0B52DED028B40F25805C2F20005A86843
:1029300000210228296111D0012817D000283ED19A
:102940009FED218AB0EE480A02F0C2FF40F2DC504F
:1029500040F2DC5404F0D4FE5A2014E003F09AF85C
:1029600003F0D8F94FF4FA7426E000BF9FED168A01
:10297000B0EE480A02F0ACFF40F2DC5040F2DC540A
:1029800004F0BEFE1E2003F027FC4FF4FA7004F0A2
:10299000B7FE03F07FF803F0BDF94FF4FA7004F0CE
:1029A000AFFE412003F018FC40F2DC5004F0A8FE1A
:1029B000B0EE480A02F056FF204604F0A1FE0120C6
:1029C0002861BDEC028BB0BD9A99193EB0B52DEDD2
:1029D000028B40F25805C2F20005A86800210228C7
:1029E000296111D0012817D000283ED19FED218AFE
:1029F000B0EE480A02F06CFF40F2DC5040F2DC54CA
:102A000004F07EFE5F2014E003F044F803F082F946
:102A10004FF4FA7426E000BF9FED168AB0EE480A24
:102A200002F056FF40F2DC5040F2DC5404F068FE45
:102A30000F2003F0D1FB40F2DC5004F061FE03F004
:102A400029F803F067F94FF4FA7004F059FE4120B9
:102A500003F0C2FB40F2DC5004F052FEB0EE480A34
:102A600002F000FF204604F04BFE01202861BDEC7F
:102A7000028BB0BD9A99193EB0B52DED028B40F294
:102A80005805C2F20005A86800210228296111D06A
:102A9000012817D000283ED19FED218AB0EE480AC8
:102AA00002F016FF40F2DC5040F2DC5404F028FE45
:102AB0007D2014E002F0EEFF03F02CF94FF4FA74DD
:102AC00026E000BF9FED168AB0EE480A02F000FF34
:102AD00040F2DC5040F2DC5404F012FE232003F0FC
:102AE0007BFB40F2DC5004F00BFE02F0D3FF03F05E
:102AF00011F94FF4FA7004F003FE412003F06CFB6F
:102B000040F2DC5004F0FCFDB0EE480A02F0AAFEF0
:102B1000204604F0F5FD01202861BDEC028BB0BD1C
:102B20009A99193EB0B52DED028B40F25805C2F2CC
:102B30000005A86800210228296111D0012817D0BA
:102B400000283ED19FED218AB0EE480A02F0C0FE77
:102B500040F2DC5040F2DC5404F0D2FD782014E066
:102B600002F098FF03F0D6F84FF4FA7426E000BFA5
:102B70009FED168AB0EE480A02F0AAFE40F2DC5041
:102B800040F2DC5404F0BCFD232003F025FB40F2AE
:102B9000DC5004F0B5FD02F07DFF03F0BBF84FF40C
:102BA000FA7004F0ADFD412003F016FB40F2DC505A
:102BB00004F0A6FDB0EE480A02F054FE204604F0F0
:102BC0009FFD01202861BDEC028BB0BDCDCCCC3D7A
:102BD000B0B52DED028B40F25805C2F20005A86891
:102BE0000021022829611DD0012823D000284AD1C4
:102BF0009FED278AB0EE480A02F06AFE40F2DC50F0
:102C000040F2DC5404F07CFD6E2003F0E5FA40F263
:102C1000DC5004F075FD02F03DFF03F07BF84FF44B
:102C20007A7020E002F036FF03F074F84FF47A7403
:102C300026E000BF9FED168AB0EE480A02F048FE7B
:102C400040F2DC5040F2DC5404F05AFD232003F043
:102C5000C3FA40F2DC5004F053FD02F01BFF03F016
:102C600059F84FF4FA7004F04BFD412003F0B4FA28
:102C70004FF4FA7004F044FDB0EE480A02F0F2FDA1
:102C8000204604F03DFD01202861BDEC028BB0BD63
:102C90009A99193EB0B52DED028B40F25805C2F25B
:102CA0000005A86800210228296111D0012817D049
:102CB00000283ED19FED218AB0EE480A02F008FEBE
:102CC00040F2DC5040F2DC5404F01AFD6E2014E0B7
:102CD00002F0E0FE03F01EF84FF47A7426E000BF25
:102CE0009FED168AB0EE480A02F0F2FD40F2DC5089
:102CF00040F2DC5404F004FD232003F06DFA40F2AE
:102D0000DC5004F0FDFC02F0C5FE03F003F84FF4C4
:102D1000FA7004F0F5FC412003F05EFA40F2DC505A
:102D200004F0EEFCB0EE480A02F09CFD204604F0F0
:102D3000E7FC01202861BDEC028BB0BD9A99193ED9
:102D400010B52DED028B40F25804C2F20004A068C9
:102D50000021022821610FD0012813D0D0BB9FEDA4
:102D6000208AB0EE480A02F0B3FD40F2DC5004F0D5
:102D7000C7FC7D2011E000BF02F08CFE02F0CAFF0C
:102D800024E000BF9FED168AB0EE480A02F0A0FDD5
:102D900040F2DC5004F0B4FC232003F01DFA40F2B2
:102DA000DC5004F0ADFC02F075FE02F0B3FF4FF40E
:102DB000FA7004F0A5FC412003F00EFA4FF47A708B
:102DC00004F09EFCB0EE480A02F04CFD40F2DC50EC
:102DD00004F096FC01202061BDEC028B10BD00BF09
:102DE0009A99193EB0B52DED028B40F25805C2F20A
:102DF0000005A86800210228296111D0012817D0F8
:102E000000283ED19FED218AB0EE480A02F060FD15
:102E100040F2DC5040F2DC5404F072FC7D2014E0FF
:102E200002F038FE02F076FF4FF47A7426E000BF1D
:102E30009FED168AB0EE480A02F04AFD40F2DC50DF
:102E400040F2DC5404F05CFC1E2003F0C5F940F2B3
:102E5000DC5004F055FC02F01DFE02F05BFF4FF465
:102E6000FA7004F04DFC412003F0B6F94FF47A708B
:102E700004F046FCB0EE480A02F0F4FC204604F0F0
:102E80003FFC01202861BDEC028BB0BDEC51B83D88
:102E900010B52DED028B40F25804C2F20004A06878
:102EA0000021022821610FD001281DD0B0B99FED6B
:102EB000258AB0EE480A02F00BFD40F2DC5004F027
:102EC0001FFC64201BE000BF02F0E4FD02F022FFC3
:102ED0004FF47A7004F014FC01206062012020613C
:102EE000BDEC028B10BD00BF9FED168AB0EE480A04
:102EF00002F0EEFC40F2DC5004F002FC232003F070
:102F00006BF940F2DC5004F0FBFB02F0C3FD02F071
:102F100001FF4FF4FA7004F0F3FB412003F05CF979
:102F20004FF47A7004F0ECFBB0EE480A02F09AFC21
:102F300040F2DC5004F0E4FB01202061BDEC028B88
:102F400010BD00BF9A99193E72B600BFFEE700009F
:102F5000F0B540F23F00C2F200000278437890F8EA
:102F600002E082F0010183F0010739438EF001078E
:102F700051EA070C14D10121C17001799FED491A62
:102F800001294FF000012AD14479012C27D18479FD
:102F9000012C24D1C479012C21D19FED430AF0BD2D
:102FA000B9EE000A9FED3F1A002A4FF0010108BF59
:102FB000B0EE401AB8EE040A08BF0221002BB2FAA4
:102FC00082F431EE000A0CBFB0EE401A6109BEF186
:102FD000000F04D1BFEE000A31EE001A0131BEEE3F
:102FE000000AC77831EE000A047945798679002F06
:102FF00004BFB0EE401A0131B6EE000A31EE000A0D
:10300000002C04BFB0EE401A0131B7EE000A1A439B
:1030100031EE000A42EA0E02002D04BFB0EE401A63
:103020000131B0EE040A3A4331EE000A002E04BF2B
:10303000B0EE401A0131C079B1EE002A42EA040331
:1030400031EE020A2B43002804BFB0EE401A0131D2
:1030500033439FED150A034322D0002A08BF012DF8
:103060001AD044EA050333431843BCFA8CF2B0FA91
:1030700080F052094009024218BFF0BD00EE101A5C
:10308000B8EEC00A81EE000AB6EE0C1A30EE020A63
:1030900020EE010AF0BD00BF012EE2D10128E0D1EF
:1030A000F0BD00BF0000000033337340B0B50446EC
:1030B00000F0E6F8054640F20800C2F20000007891
:1030C000611C18BF044400BF00F0DAF8401BA042A6
:1030D000FAD3B0BD2DE9F04F82B000F13E4707F1C1
:1030E000FF77860546EA972741F60046C4F20206B6
:1030F000082243F6004EB04208BF0722C4F2010E78
:10310000072F38BF3A46002600274FF000080092EC
:1031100009E000BF08F101080237B8F1100F06F10D
:10312000040600F0A3800D68012202FA08F415EAF3
:103130000409EFD0D1F804B003220BF0030CACF17A
:103140000105BA40012D6FEA020A0FD88268CD68E6
:1031500002EA0A02BD402A4382604268A243CBF3DE
:10316000001404FA08F42243426005E0BCF1030FA6
:1031700002D14FF0030C1EE0C2688C6802EA0A021A
:10318000BC402243BCF1020FC26014D16FF00302B5
:1031900002EA58020244D2F820C006F01C040F23B1
:1031A0000D69A3402CEA0303A5402B431362D1F819
:1031B00004B00BF0030C02680CFA07F302EA0A02EF
:1031C0001A431BF4403F0260A4D0002243F644039C
:1031D0000192C4F202031A684FF6084C42F480428E
:1031E0001A601A68CFF6FF7C02F480420192019ABD
:1031F00028F00302724452F80C3006F00C050F243C
:10320000AC40A343009C04FA05F52B4342F80C3074
:10321000DEF808204B6842EA090543F60C4CDC0254
:1032200058BF22EA0905CEF80850C4F2010CDCF8B8
:1032300000209C0242EA090558BF22EA0905CCF8A1
:103240000050DEF804209C0342EA090558BF22EA38
:103250000905CEF80450DEF80020DB0342EA090538
:1032600058BF22EA0905CEF8005053E702B0BDE886
:10327000F08F0000002A08BF090481617047000038
:1032800044F27C20C2F2000000687047002804BFAE
:1032900001207047F0B581B0044690F83D0028B990
:1032A000002084F83C00204600F0CEF9242084F869
:1032B0003D002068016821F001010160016841F4CE
:1032C00000410160016821F40041016000F0D4FB7D
:1032D000636848F2A16CC0F2010C40F60011C0F224
:1032E0003D0163453CBF48F28041C0F21E01884267
:1032F00002D2012001B0F0BD4DF68361C4F21B3152
:10330000A0FB01122168970CD1F804E04FF49676E7
:103310002EF03F0545EA92454D60774348F6381652
:103320000D6AC0F24106A7FB067625F03F0763450C
:1033300038BF960C721C3A430A62CA6948F2A0660A
:103340004CF6FF77C0F20106B34222EA07020BD81F
:1033500001385B00B0FBF3F001306FF31F3004283D
:1033600098BF04201BE000BFA768013857B1192798
:103370007B43B0FBF3F001306FF31F3070B100F509
:10338000804007E003EB4303B0FBF3F001306FF341
:103390001F3018B100F5004001E000BF01201043CC
:1033A000C8610868D4E9072320F0C000104318431F
:1033B0000860886848F2FF3204F10C0790438CCF14
:1033C00018431043A6698860C86820F0FF0038439E
:1033D0003043C860086840F00100086000202021E8
:1033E000206484F83D10206384F83E0001B0F0BDF5
:1033F0002DE9F04784B0994616460F460446FFF77C
:103400003FFF94F83D10202927D10546206800BFD2
:10341000816989071CD5FFF733FF411B20681A29F2
:10342000F6D381698907F3D500202021206384F831
:103430003D1084F83E00206C04F13C0A40F020006E
:103440002064022000218AF8001004B0BDE8F08753
:10345000A2461AF83C1F012904D1022004B0BDE89D
:10346000F08700BF01228AF800200368DDE90D180B
:103470000C9ADB0703D1036843F001030360036880
:1034800023F400630360222084F83D00402084F888
:103490003E000020206462626185608D394620858F
:1034A0000020CFF6FF70E062204632464B46CDE961
:1034B000008501F01BFB18B1012004B0BDE8F087C6
:1034C000208DA8B102282BD0012835D121680A68A7
:1034D00022F480620A60002203924A6903928A6998
:1034E0000392039A0A6842F400720A602CE000BF5B
:1034F0000020039020684169039181690391039939
:10350000016841F400710160202084F83D00002032
:1035100084F83E0000218AF8001004B0BDE8F0876E
:1035200021680A6822F480620A600A6842F4006234
:103530000A600022039202E00021039121684A6997
:1035400003928969039103990427C0F201070CE0F3
:1035500010690870606A218D01306062481E208504
:10356000618D013961850104CED080B203280FD866
:1035700002284AD001282DD1204641462A4601F092
:1035800091FC002898D12068616A0069E1E700BFDA
:10359000204641462A4601F085FC00287FF48CAF86
:1035A0002068616A00690870606A2268411C208D89
:1035B000616201382085638D013B638553695B0738
:1035C000D1D580B20328C3D1106820F48060106088
:1035D000BEE700BF2046394600224346009501F071
:1035E0000FFB00287FF468AF2068616A026822F44C
:1035F0008062026000690870606A218D013060623B
:10360000481E2085608D013860852046394600229D
:103610004346009501F0F4FA00287FF44DAF20688E
:10362000616A026842F40072026000690870606AB0
:103630002268411C6162218D01392185618D01392A
:1036400061851169417085E72DE9F04786B0006812
:1036500045F60041C4F2000100268842CDE9046627
:10366000CDE9026601962FD045F60001C4F20001B3
:1036700088426ED1002543F630040095C4F202045E
:10368000206801A940F002002060206800F00200DC
:10369000009000984FF4406001901220CDE902059F
:1036A00003200490042005900020C4F2020000F5DD
:1036B0008060FFF70FFD0095206940F480002061D5
:1036C000206900F4800042E043F630070096C4F21F
:1036D00002073868002440F0040038603868C4F2FB
:1036E000020400F00400009000980096386801ADD4
:1036F00040F00100386038684FF0120800F0010017
:10370000009000984FF4007001904FF003094FF0C3
:10371000040A04F500602946CDE90286CDF8109030
:10372000CDF814A0FFF7D6FC4FF48070CDE9010866
:1037300003A880E8400620462946FFF7CBFC009608
:10374000386940F400003861386900F400000090E6
:10375000009806B0BDE8F08740F2080044F27C21F2
:10376000C2F20000C2F2000100780A68104408604A
:103770007047000080B543F60040C4F202000168C3
:1037800041F400710160016841F4806101600168E9
:1037900041F480710160032000F0ACF80F2000F0CC
:1037A00005F800F027F8002080BD000070B540F259
:1037B0000806C2F2000640F214013278C2F200019B
:1037C0004FF47A730968B3FBF2F20446B1FBF2F1ED
:1037D000084600F087FB0F2C4FF0010508D838B9D8
:1037E0004FF0FF3021460022002500F057F87460AA
:1037F000284670BD80B582B0002043F6400101909C
:10380000C4F202014A6842F480424A604A6802F403
:1038100080420192019A00900868002240F0805096
:1038200008600868012100F08050009000986FF057
:103830000B0000F033F86FF00A000121002200F0C5
:103840002DF86FF009000121002200F027F86FF039
:1038500004000121002200F021F86FF00300012193
:10386000002200F01BF86FF001000F21002202B0CF
:10387000BDE8804000F012B8002848BF704700F053
:103880001F01012202FA01F11C2202EAD0004EF2CD
:103890000012CEF2000281507047000010B54EF6C3
:1038A0000C5CCEF2000CDCF80030C3F3022E8EF07C
:1038B0000704042C28BF0424BEF103034FF0FF3E8D
:1038C0000EFA04F438BF0023A14399400EFA03F323
:1038D0009A43114300F00F0200F160430901043ADA
:1038E00003F564436244002848BF02F10C031970D9
:1038F00010BD00004EF60C51CEF200010A684FF6E2
:10390000FF031A4060F30A2242F0806040F0FD702D
:1039100008607047002804BF012070472DE9F0417E
:1039200043F60808C4F202080446D8F8F8030D4626
:1039300000F00700884207D288F8F853D8F8F80357
:1039400000F00700A84277D12068810717D541070A
:1039500005D5D8F8001041F4E051C8F8001001076F
:1039600005D5D8F8001041F46041C8F80010D8F827
:103970000010A26821F0F0011143C8F80010C00740
:1039800040D1D8F8F80300F00700A84207D988F81A
:10399000F853D8F8F80300F00700A8424CD120688B
:1039A000410707D5D8F80010E26821F4E05111432F
:1039B000C8F80010000708D5D8F80000216920F4E5
:1039C000604040EAC100C8F8000000F07DF8D8F877
:1039D000001047F61872C1F30311C0F60002515CE3
:1039E00040F2140220FA01F140F20C00C2F2000091
:1039F0000068C2F200021160FFF7D8FE0020BDE8A7
:103A0000F08100BF6068811E022907D258F8081CA7
:103A100089015CBF0120BDE8F08111E0012807D1D8
:103A200058F8081C89035CBF0120BDE8F08107E05D
:103A300058F8081C890703D40120BDE8F08100BFB5
:103A4000D8F8001021F003010843C8F80000FFF780
:103A500017FC064641F28837D8F80000616800F08C
:103A60000C00B0EB810F8CD0FFF70AFC801BB84232
:103A7000F2D90320BDE8F08140F2140043F60801BA
:103A8000C2F20000C4F202010068096847F6287219
:103A9000C1F38221C0F60002515CC84070470000AB
:103AA00040F2140043F60801C2F20000C4F2020121
:103AB0000068096847F62872C1F34231C0F6000277
:103AC000515CC8407047000010B543F60404C4F2CE
:103AD0000204606800F00C0008280BD0042819BF0D
:103AE00042F20040C0F2F40047F64000C0F27D1000
:103AF00010BD00BF206821682368490247F64001D5
:103B0000C0F27D1100F03F02C3F388105CBF42F2A7
:103B10000041C0F2F401A1FB00010023FCF750FBBF
:103B200021680222C1F3014102EB4101B0FBF1F037
:103B300010BD0000002804BF012070472DE9F041AE
:103B400082B00446007843F60006C007C4F20206BD
:103B50000CD0B06800F00C00042840F08180306880
:103B6000800303D56068002800F06A812078800710
:103B70001BD5B06810F00C0F09D0B06800F00C0035
:103B8000082840F087807068400200F18380306828
:103B9000800703D5E068012840F052813068216930
:103BA00020F0F80040EAC10030602078000713D40C
:103BB000207840072AD4A569002D00F03C81B06828
:103BC00000F00C00082840F0A180012D40F0108189
:103BD000012002B0BDE8F0816069002840F20000D9
:103BE000C4F2472000F07E800121C0F8801EFFF75C
:103BF00047FB0546706F8007DAD4FFF741FB401B97
:103C00000228F7D9032002B0BDE8F081306C5FEAEA
:103C1000C0080AD400200190306C40F0805030641D
:103C2000306C00F080500190019847F20007C4F218
:103C300000073868C00547D4386840F480703860A1
:103C4000FFF71EFB054600BF3868C0053CD4FFF7F0
:103C500017FB401B0228F7D9032002B0BDE8F08112
:103C6000B06800F00C00082803D1706840023FF5EE
:103C700076AF6068B0F5803F07D0B0F5A02F40F078
:103C80009B80306840F480203060306840F48030A1
:103C900030609BE0E06800285CD00020C4F2472040
:103CA00001210160FFF7ECFA054600BF306880078C
:103CB0003FF574AFFFF7E4FA401B0228F6D9032062
:103CC00002B0BDE8F08100BFA068012805D005283A
:103CD00054D1306F40F004003067306F40F0010085
:103CE000306755E00021C0F8801EFFF7C9FA05468D
:103CF000706F80077FF55CAFFFF7C2FA401B0228A8
:103D0000F6D9032002B0BDE8F08100BF0027C4F25D
:103D1000472700203866FFF7B3FA022D05460DD17C
:103D20003068800140F19080FFF7AAFA401B02281A
:103D30004FF00300F4D902B0BDE8F0813068800193
:103D400079D5FFF79DFA401B02284FF00300F5D903
:103D5000F1E700BF0020C4F2472000210160FFF717
:103D60008FFA0546306880077FF51FAFFFF788FAA6
:103D7000401B02284FF00300F4D9DCE7316F002824
:103D800021F001013167316F21F0040131677DD0ED
:103D9000FFF776FA054641F2883700BF306F80079B
:103DA00000F18680FFF76CFA401BB842F6D9032079
:103DB00002B0BDE8F08100BF3168002821F48031F5
:103DC0003160316821F4802131607BD0FFF758FAEF
:103DD000054600BF306880033FF5C8AEFFF750FAD4
:103DE000401B6428F6D9032002B0BDE8F08100BF73
:103DF0007068E16900F480028A4221D1216A00F0F2
:103E00003F028A421CD147F6C071626A0140B1EBA1
:103E1000821F15D1A16A4FF6FF73C903994300F4BD
:103E20004032A1F580318A420AD1E16A00F0706027
:103E3000B0EB016F04D1002002B0BDE8F08100BFFB
:103E4000012002B0BDE8F08104F11C052FCD08432C
:103E500040EA8210D9034FF6FF729143A1F58031F9
:103E600040EA05600843706001203866FFF708FAF1
:103E7000044600BF30688001DDD4FFF701FA001B63
:103E800002284FF00300F5D955E700BFFFF7F8F916
:103E9000054641F2883700BF306F800708D5FFF72D
:103EA000EFF9401BB8424FF00300F5D943E700BFDC
:103EB000B8F1000F3FF57FAE306C20F080503064D9
:103EC00079E600BFFFF7DCF9054600BF30688003E4
:103ED0007FF54CAEFFF7D4F9401B64284FF0030088
:103EE000F4D928E7411E0020B0EB116F1CBF012060
:103EF00070474EF21002CEF2000251604EF623518E
:103F0000CEF20001F0230B70072190601160704722
:103F1000704700007047000090F83C20012A4FF0E5
:103F2000020254D010B580F83D200268D2F804E0B7
:103F3000D2F808C00C682EF07003234341F2FF74DE
:103F4000C4F20004A24253600EDC40F2FF73C4F2DC
:103F500000039A4216DCB2F1804F2BD040F20043AE
:103F6000C4F2000324E000BF40F2FF33C4F20103B7
:103F70009A4213DC41F60003C4F200039A4219D0BE
:103F8000002313E040F60003C4F200039A4211D06C
:103F900040F60043C4F200030AE000BF44F200030D
:103FA000C4F201039A4205D040F20043C4F2010377
:103FB0009A4204D149682CF0800319439160012191
:103FC000002280F83D1080F83C20BDE810401046EB
:103FD00070470000002804BF0120704710B5044658
:103FE00090F83D0028B9002084F83C00204600F0FD
:103FF0001FF8022084F83D002068211D01F0AEFF6B
:10400000012084F8460084F83E0084F83F0084F8DC
:10401000400084F8410084F8420084F8430084F8AA
:10402000440084F8450084F83D00002010BD0000E5
:1040300080B582B0006800F14041800540EA9120DF
:10404000042858D8DFE800F00412203A480000BFE6
:104050000020019043F64000C4F20200016841F0E4
:1040600001010160006800F0010042E000200190C1
:1040700043F64000C4F20200016841F00201016011
:10408000006800F0020034E00020019043F6400098
:10409000C4F202000168002241F0040101600068DE
:1040A000052100F00400019001981E20FFF7F6FBA7
:1040B0001E2002B0BDE88040FFF7DEBB002001906B
:1040C00043F64000C4F20200016841F008010160BB
:1040D000006800F008000CE00020019043F640006A
:1040E000C4F20200016841F010010160006800F0B4
:1040F00010000190019802B080BD000090F83D10C2
:1041000001291CBF01207047022180F83D10006882
:1041100041F2FF72C168C4F20002904241F0010115
:10412000C1600DDC40F2FF71C4F20001884215DC71
:10413000B0F1804F2AD040F20041C4F2000123E0E8
:1041400040F2FF31C4F20101884213DC41F6000164
:10415000C4F20001884219D0002113E040F60001AA
:10416000C4F20001884211D040F60041C4F20001BF
:104170000AE000BF44F20001C4F20101884205D008
:1041800040F20041C4F20101884206D1816801F089
:104190000701062904BF00207047016841F00101B2
:1041A000016000207047000090F83C20012A4FF089
:1041B000020200F0C58080B580F83D20D0F800C034
:1041C0004FF67772DCF8083023EA0202CCF80820B8
:1041D0000B684F2B28DC1F2B44DD202B45D0302BC8
:1041E00043D0402B40F0AE80D1F804E0C968DCF841
:1041F0002030DCF8202022F00102CCF82020DCF86E
:10420000182022F0F00242EA011123F00A0242EAE9
:104210000E02CCF81810CCF82020DCF8081041F081
:10422000470121F0300180E06F2B27DDB3F5005FFF
:1042300048D0B3F5805F7AD0702B40F08380D1E90D
:1042400001E3C968DCF8082043EA0E0322F47F4248
:1042500043EA01211143CCF80810DCF8081041F0C2
:10426000770162E00BB1102B6CD1DCF8081021F063
:104270007001194341F0070157E000BF502B35D0C2
:10428000602B5FD1D1F804E0C968DCF82030DCF89D
:10429000202022F01002CCF82020DCF8182022F494
:1042A000704242EA013123F0A00242EA0E12CCF839
:1042B0001810CCF82020DCF8081041F0670121F03C
:1042C000100132E0D1E901E3C968DCF8082043EAD3
:1042D0000E0322F47F4243EA01211143CCF8081077
:1042E000DCF8081041F480411FE000BFD1F804E081
:1042F000C968DCF82030DCF8202022F00102CCF87C
:104300002020DCF8182022F0F00242EA011123F00C
:104310000A0242EA0E02CCF81810CCF82020DCF891
:10432000081041F0570121F02001CCF808100022BC
:10433000012180F83D10002180F83C10BDE880404C
:10434000104670470122F3E77047000070B504463D
:104350000068C5680669B10716D515F0020113D0CB
:104360006FF002010161012121778069800703D08C
:104370002046FFF7E9FF05E0204600F08FF82046D1
:1043800000F0D0F900202077700719D515F004004F
:1043900016D020686FF00401016102212177806945
:1043A00010F4407F04D02046FFF7CEFF06E000BFA8
:1043B000204600F073F8204600F0B4F90020207782
:1043C000300717D515F0080014D020686FF00801E9
:1043D000016104212177C069800703D02046FFF7DF
:1043E000B3FF05E0204600F059F8204600F09AF9A6
:1043F00000202077F00619D515F0100016D020689F
:104400006FF01001016108212177C06910F4407F2D
:1044100004D02046FFF798FF06E000BF204600F0DA
:104420003DF8204600F07EF900202077F00718BF05
:1044300015F0010002D1300609D412E020686FF0B7
:1044400001010161204600F0FFF9300609D515F0A1
:10445000800006D020686FF0800101612046FFF7E0
:1044600057FD700609D515F0400006D020686FF0A2
:1044700040010161204600F0E9F9B00658BF70BD67
:1044800015F0200008D021686FF0200220460A6154
:10449000BDE87040FFF73EBD70BD000070470000F2
:1044A00090F83C30012B04BF022070474FEAB20263
:1044B000032A00F201812DE9F043DFE802F0033F17
:1044C0007FBF00BF036840F200461C6A1A6A24F0EE
:1044D000020422F001021A621A46D3F804C052F80C
:1044E00018EF8F6843F48065C4F20106B54244EAD0
:1044F000070405D1CF6824F00C0427F004073C43DF
:104500000F68B54206D1D1E905582CF440762E4308
:1045100046EA080C2EF073063743C3F804C09F61C7
:104520004F6809695F631C629F6947F008079F61D4
:104530009F6927F004079F61B2E000BF036840F263
:1045400000481C6A1A6A24F0200422F010021A6241
:104550001A46D3F804C052F818EF8F6843F4806508
:10456000C4F20108454544EA071407D1CF686FF04B
:10457000400624F0C00406EA07163443D1F8009040
:10458000454506D1D1E905562CF440672E4347EA4C
:10459000860C2EF4E64747EA0927C3F804C09F615A
:1045A0004F6809699F631C629F6947F400679F61B8
:1045B0009F6927F480679F6171E000BF036840F244
:1045C00000481C6A1A6A24F4007422F480721A6289
:1045D0001A46D3F804C052F81CEF8F6843F4806584
:1045E000C4F20108454544EA072408D1CF6840F2E7
:1045F000FF463F0224F4406427EA06063443D1F81C
:104600000090454506D1D1E905562CF440572E437C
:1046100047EA061C2EF0730747EA0907C3F804C0EF
:10462000DF614F680969DF631C62DF6947F00807D3
:10463000DF61DF6927F00407DF6131E0036840F2E2
:104640000045D3F820C01A6A43F4806722F48052F0
:104650001A621A465C6852F81CEFD1F800808E6826
:10466000C4F20105AF4204D14D6924F4804444EA08
:1046700085142CF4005747EA06372EF4E64646EA3E
:1046800008265C60DE614E6809691E641F62DF698E
:1046900047F40067DF61DF6927F48067DF610902A3
:1046A0001368194311600021BDE8F043002280F82F
:1046B0003C200846704700BF0121002280F83C20C2
:1046C00008467047002804BF0120704710B5044613
:1046D00090F83D0028B9002084F83C00204600F006
:1046E0001FF8022084F83D002068211D01F036FCEF
:1046F000012084F8460084F83E0084F83F0084F8E6
:10470000400084F8410084F8420084F8430084F8B3
:10471000440084F8450084F83D00002010BD0000EE
:10472000704700007047000041B1082910D00429EB
:1047300014BF00F1410200F13F020BE090F83E206F
:10474000012A1CBF01207047022280F83E2013E09E
:1047500000F140021278012A1CBF0120704702229A
:10476000082907D0042914BF80F8412080F83F2091
:1047700002E000BF80F84020006801F01F01012224
:10478000036A02FA01F123EA01020262026A11439A
:1047900041F2FF72C4F200029042016210DC40F26A
:1047A000FF71C4F2000188421CDCB0F1804F3FD0A1
:1047B00040F20041C4F20001884239D03DE000BF20
:1047C00040F2FF31C4F20101884219DC41F60001D8
:1047D000C4F2000188422BD00021C4F201018842BA
:1047E0001AD02AE040F60001C4F2000188421FD02E
:1047F00040F60041C4F20001884219D01DE000BF1C
:1048000044F20001C4F20101884211D040F200419B
:10481000C4F20101884210D1416C40F2004340F4DF
:104820008062C4F2010341F400419A42416404D120
:10483000816801F00701062903D0016841F00101F8
:1048400001600020704700007047000070470000C2
:10485000002804BF0120704710B5044690F84100BD
:1048600028B9002084F84000204600F021F82420D8
:1048700084F841002068C16821F40051C1602046DD
:1048800001F00EFC2068016921F490410161416949
:1048900021F02A014161C16841F40051C16000204A
:1048A0002021606484F8411084F84210606310BDD8
:1048B00080B586B0006844F20042C4F200020021D4
:1048C0009042CDE90411CDE90211019124D041F2C9
:1048D0000001C4F20101884248D1002043F63001B2
:1048E0000090C4F202014A6942F010024A614A692A
:1048F00002F010020092009A0090086840F0010057
:10490000086008684FF4C06100F001000090009852
:104910000020C4F202001DE043F630000091C4F212
:104920000200026942F400320261026902F40032BC
:104930000092009A0091016841F00801016000684E
:10494000602100F00800009000980020C4F20200EE
:1049500000F54060019102210291002103910321A1
:1049600004910721059101A9FEF7B4FB06B080BDB3
:104970002DE9F041044690F8410020281CBF022098
:10498000BDE8F0810D4600294FF0010000F0AA803B
:104990001646002A08BFBDE8F0810020606421208F
:1049A000984684F84100FEF76BFCA684E684A16873
:1049B0000646B1F5805F02D12069002862D02F46FB
:1049C0000025E08C002861D018F1010018D0B8F162
:1049D000000F37D1216808E017F8010B4860E08C20
:1049E0000138E084E08C002851D00868000673D5B7
:1049F000002FF1D135F8020B00276FF35F20EDE7B0
:104A0000216802E00868000609D40868000606D498
:104A1000086800065CBF08685FEA0060F2D51FB155
:104A200017F8010B05E000BF35F8020B00276FF304
:104A30005F204860E08C0138E084E08C0028E4D1FD
:104A400025E000BF216800BF0868000608D4FEF713
:104A500017FC801B404541D82168C868F4E700BFB7
:104A600017B117F8010B04E035F8020B00276FF3BC
:104A70005F204860E08C0138E084E08C0028E3D1BE
:104A800005E000BF0027E08C00289DD12168086860
:104A900040061FD4B8F1000F1ED018F101000FD14D
:104AA0000868400616D40868400613D40868400613
:104AB00010D4086840064FF00000F1D50FE000BFA9
:104AC000FEF7DEFB801B404508D82068C1680068FF
:104AD0004006F5D5002002E0FEF7D2FB032020219E
:104AE00084F84110BDE8F081FEE700002DE9F047B1
:104AF00082B0044600689A460B9D0A9E0368914660
:104B000043F48062026002680F4642F480710160E3
:104B100020464FF0011100223346009500F070F856
:104B200050B120680068C00544BF4FF40070206495
:104B3000032002B0BDE8F08740F202082068C0F20E
:104B4000010807F0FE0707612046414632462B4622
:104B500000F03CF920B1012002B0BDE8F08700BFB1
:104B60000020019020682A46416901918069314600
:104B700001900198204600F0DDF9B0B92068BAF143
:104B8000010F09D04FEA19210161204631462A461A
:104B900000F0D0F948B920685FFA89F10161204638
:104BA00031462A4600F0C6F960B1206C0428D2D103
:104BB0002068016841F400710160012002B0BDE885
:104BC000F08700BF206800220168334641F48071FD
:104BD000016020464FF00111009500F011F8002807
:104BE0009FD147F0010C27682046414632462B46AC
:104BF000C7F810C002B0BDE8F04700F0E7B8000009
:104C00002DE9F041054600681E46144601F47F0276
:104C100001338FB242D0DDF81880B2F5803F40F00A
:104C2000878040693840C01BB0FA80F04009A0423C
:104C300040F0C8804EB924E040693840C01BB0FA4B
:104C400080F04009A04240F0BD80FEF719FBA0EBC8
:104C500008012868B142EFD941693940C91BB1FA4E
:104C600081F14909A142E7D19BE000BF406938408A
:104C7000C01BB0FA80F04009A0424FF0000040F0A5
:104C8000A280FEF7FDFA286841693940C91BB1FAD4
:104C900081F14909A142E9D183E000BFB2F5803F2B
:104CA00024D100BF41693940C91BB1FA81F14909DA
:104CB000A14240F0878041693940C91BB1FA81F1B6
:104CC0004909A14240F07E8041693940C91BB1FACF
:104CD00081F14909A14275D141693940C91BB1FA35
:104CE00081F14909A142DDD06CE000BF8169394002
:104CF000C91BB1FA81F14909A14263D181693940E7
:104D0000C91BB1FA81F14909A1425BD181693940DE
:104D1000C91BB1FA81F14909A14253D181693940D6
:104D2000C91BB1FA81F14909A142DFD04AE000BFB5
:104D300080693840C01BB0FA80F04009A04241D1E0
:104D400046B923E080693840C01BB0FA80F04009C2
:104D5000A04237D1FEF794FAA0EB08012868B142CF
:104D6000F0D981693940C91BB1FA81F14909A142E1
:104D7000E8D116E080693840C01BB0FA80F04009E5
:104D8000A0424FF0000018BFBDE8F081FEF778FAAE
:104D9000286881693940C91BB1FA81F14909A142EA
:104DA000E8D100202021286385F83D1085F83E00D9
:104DB000296C41F02001296485F83C000120BDE800
:104DC000F08100BF0020BDE8F0810000F0B581B0A7
:104DD000044600681D4643698FB203EA0701B942E1
:104DE00002D1002001B0F0BD4169164601323FD02A
:104DF00049053FD4CEB100BFFEF742FA411B2068FF
:104E0000B14203D941693940B94215D141693940AC
:104E1000B942E6D041694905EED52BE041693940F8
:104E2000B942DED04169490524D4FEF729FA206849
:104E300041693940B942F1D0202023E0416939402D
:104E4000B942CED04169490514D441693940B942CB
:104E5000C7D0416949050DD441693940B942C0D034
:104E60004169490506D441693940B942B9D041691F
:104E70004905E3D5016841F4007101606FF4806178
:104E80004161042000212022216384F83D2084F820
:104E90003E10226C1043206484F83C10012001B0C5
:104EA000F0BD000070B504460068154650F8143F88
:104EB0005A063DD40E4629B926E000BF50F8141F0B
:104EC000490635D40168C90621D4FEF7D9F9411B3A
:104ED0002068B142F2D941694906EFD4002020216F
:104EE000206384F83D1084F83E00206C40F02000E0
:104EF00018E000BFFEF7C4F9206850F8141F4906F7
:104F0000ECD50168490613D40168C906F2D56FF0E3
:104F10001001016000202021206384F83D1084F8F6
:104F20003E00206C2064002084F83C00012070BD0D
:104F3000002070BD70B50368044653F8140F0006D6
:104F400011D40E46481C29D086BB00BF1868400506
:104F500027D4FEF795F9236853F8140F000637D5C8
:104F600018680006F2D5002070BD00BF1868000662
:104F7000F9D41868400514D418680006F3D41868EA
:104F800040050ED418680006EDD41868400508D412
:104F9000186800064FF0000048BF70BD1868400553
:104FA000E4D56FF480601860042012E0154603E039
:104FB00053F8140F0006D6D418684005F1D4FEF754
:104FC0005FF9401B2368B042F2D958690006EFD45C
:104FD000202000212022216384F83D2084F83E1007
:104FE000226C10432064012084F83C1070BD000046
:104FF00080B52DED048B40F24700C2F2000001782D
:105000009FED3E8A012953D14178012950D1817801
:1050100001294DD1C17801294AD10179012947D10E
:105020004179012944D18179012941D1C079B0EE7A
:10503000489A01283ED1FDF78BFF9FED311AB0EE63
:10504000408AB4EE410AF1EE10FA21D19FED2D9A7B
:1050500040F24420C2F20000B0EE490A02F0A8F982
:1050600040F29C20C2F20000B0EE490A02F0A0F922
:1050700040F2F420C2F20000B0EE490A02F098F9C2
:1050800040F2EC10C2F20000B0EE490A02F090F9D2
:105090009FED1D0A9FED1D1A38EE000A9FED192A9B
:1050A00020EE010A30EE029A32EE408A02E000BFA2
:1050B000B0EE489A40F24420C2F20000B0EE480A36
:1050C00002F076F940F29C20C2F20000B0EE490AEC
:1050D00002F06EF940F2F420C2F20000B0EE480A8D
:1050E00002F066F940F2EC10C2F20000B0EE490A9C
:1050F000BDEC048BBDE8804002F05AB93333B33EB7
:1051000033337340CDCCCC3E333373C0CDCC4C3D28
:1051100080B588B00B4802AF01900AA000F1040EE0
:105120009EE80E50806987E80E50079001A8002184
:1051300001F0E2FD40F24C31C2F20001086008B01B
:1051400080BD00BF307F0008295D0008000000001E
:1051500000000000800000000000000000000000CF
:1051600070B586B0002543F6300005950095C4F271
:105170000200016840F6000441F08001016001680E
:10518000C4F2020401F080010091009900950168C9
:10519000002241F0010101600168C02601F0010117
:1051A000009100990095016841F0020101600168D9
:1051B00001F00201009100990095016841F004019D
:1051C0000160016801F004010091009900950168F7
:1051D00041F0080101600068C02100F00800009063
:1051E00000982046FEF746F80120CDE9020501A906
:1051F000204601960495FDF76DFF06B070BD0000D6
:1052000080B540F2503045F60001C2F20000C4F211
:10521000000100234FF4804C42F2107280E80E002F
:10522000C0E9033CC0E90533C0E90733FEF72EF8B7
:10523000002808BF80BDBDE88040FDF785BE0000A6
:1052400080B540F2A43045F60041C2F20000C4F23D
:10525000000100234FF4804C42F2107280E80E00EF
:10526000C0E9033CC0E90533C0E90733FEF70EF897
:10527000002808BF80BDBDE88040FDF765BE000086
:1052800010B594B040F2F8300021C2F200004FF0A7
:105290008042532344F61F640D91CDE90B1109910F
:1052A000CDE90711CDE90511CDE90311CDE90111D2
:1052B000C0E90023C0E9021401618161FEF78AFEA2
:1052C000002818BFFDF740FE4FF480500A9040F2CE
:1052D000F830C2F200000AA9FEF766FF002818BFE6
:1052E000FDF732FE40F2F830C2F20000FFF7EAF9B3
:1052F000002818BFFDF728FE40F2F8300024C2F263
:10530000000008A9CDE90844FEF706FE002818BFF2
:10531000FDF71AFE6020CDE901040394059440F2E4
:10532000F834C2F2000401A920460022FFF7B8F8C1
:10533000002818BFFDF708FE206840F60042C4F2BE
:105340000002002190420F911CD040F20041C4F2B3
:105350000001884226D0B0F1804F41D100200E904C
:1053600043F63000C4F20200016841F0010101601F
:10537000006800F001000E900E9820200F90012090
:1053800022E000BF43F630000E91C4F20200016833
:1053900041F001010160006800F001000E900E98DC
:1053A00001200FE000200E9043F63000C4F202000E
:1053B000016841F001010160006800F001000E90F9
:1053C0000E9840200F90022002211091002113908E
:1053D0000020CDE91111C4F202000FA9FDF77AFEF9
:1053E00014B010BDB0B594B040F2004540F240405A
:1053F000C4F200050021C2F20000532244F61F63EC
:105400000D91CDE90B110991CDE90711CDE90511F8
:10541000CDE90311CDE90111C0E90052C0E9021341
:1054200001618161FEF7D6FD002818BFFDF78CFDF4
:105430004FF480500A9040F24040C2F200000AA9A6
:10544000FEF7B2FE002818BFFDF77EFD40F2404097
:10545000C2F20000FFF736F9002818BFFDF774FD0F
:1054600040F240400024C2F2000008A9CDE90844FF
:10547000FEF752FD002818BFFDF766FD6020CDE95C
:1054800001040394059440F24044C2F2000401A9CF
:1054900020460022FFF704F8002818BFFDF754FD4E
:1054A000206840F60042C4F20002002190420F91B1
:1054B00018D0A84226D0B0F1804F40D100200E90E5
:1054C00043F63000C4F20200016841F001010160BE
:1054D000006800F001000E900E9820200F9001202F
:1054E00022E000BF43F630000E91C4F202000168D2
:1054F00041F001010160006800F001000E900E987B
:1055000001200FE000200E9043F63000C4F20200AC
:10551000016841F001010160006800F001000E9097
:105520000E9840200F900220022110910021CDE919
:105530001111139005F5FE300FA9FDF7CBFD14B046
:10554000B0BD000080B586B040F2884040F6000251
:105550000021C2F20000C4F2000253230591CDE9FC
:105560000311CDE90011C0E90021C0E90213016176
:1055700080218161FEF72EFD002818BFFDF7E4FCB5
:105580004FF48050029040F28840C2F2000002A91D
:10559000FEF70AFE002818BFFDF7D6FC40F288404F
:1055A000C2F200006946FEF7B7FC002818BFFDF7FD
:1055B000CBFC06B080BD0000B0B594B040F600450D
:1055C00040F2D040C4F200050021C2F20000532294
:1055D00044F61F630D91CDE90B110991CDE9071137
:1055E000CDE90511CDE90311CDE90111C0E9005262
:1055F000C0E9021301618161FEF7ECFC002818BFCD
:10560000FDF7A2FC4FF480500A9040F2D040C2F265
:1056100000000AA9FEF7C8FD002818BFFDF794FC9A
:1056200040F2D040C2F20000FFF74CF8002818BF4B
:10563000FDF78AFC40F2D0400024C2F2000008A925
:10564000CDE90844FEF768FC002818BFFDF77CFC94
:105650006020CDE901040394059440F2D044C2F2E5
:10566000000401A920460022FEF71AFF002818BFF7
:10567000FDF76AFC20680021A8420F911CD040F27F
:105680000041C4F20001884226D0B0F1804F40D1E1
:1056900000200E9043F63000C4F20200016841F091
:1056A00001010160006800F001000E900E982020BA
:1056B0000F90012022E000BF43F630000E91C4F2AB
:1056C0000200016841F001010160006800F0010082
:1056D0000E900E9801200FE000200E9043F630004F
:1056E000C4F20200016841F001010160006800F0AD
:1056F00001000E900E9840200F9002200221109180
:105700000021CDE91111139005F5FA300FA9FDF72D
:10571000E1FC14B0B0BD000080B582B040F218507A
:1057200041F200020021C2F20000C4F20002532341
:1057300040F2E73CCDE90011C0E90023C0E9021CBA
:105740008161FEF747FC002818BFFDF7FDFB40F222
:105750001850C2F200006946FEF7DEFB002818BFB1
:10576000FDF7F2FB02B080BD80B540F2605041F21F
:105770000001C2F20000C4F2010100234FF00C0C42
:105780004FF4E13280E80E00C0E90333C0E905C3FD
:10579000C361FFF75DF8002808BF80BDBDE8804009
:1057A000FDF7D2BB80B540F2A85044F20041C2F2EE
:1057B0000000C4F2000100234FF00C0C4FF4E13262
:1057C00080E80E00C0E90333C0E905C3C361FFF7F9
:1057D0003FF8002808BF80BDBDE88040FDF7B4BB9E
:1057E000FEE7000080B52DED068B9FED1B8A9FED37
:1057F0001B1A20EE080A80EE019A9FED19AA40F2CA
:105800004420C2F20000B0EE4A0AF0EE490A01F06C
:105810003FFD40F29C20C2F20000B0EE480AF0EEDC
:10582000490A01F035FD40F2F420C2F20000B0EE6A
:105830004A0AF0EE490A01F02BFD40F2EC10C2F2E8
:105840000000B0EE480AF0EE490ABDEC068BBDE858
:10585000804001F01DBD00BFF5DB973E0000B44263
:10586000F5DB97BE80B52DED048B9FED189AB0EE59
:10587000408A40F24420C2F20000B0EE490AF0EE45
:10588000480A01F005FD40F29C20C2F20000B0EE93
:10589000490AF0EE480A01F0FBFC40F2F420C2F2A3
:1058A0000000B0EE490AF0EE480A01F0F1FC40F2C7
:1058B000EC10C2F20000B0EE490AF0EE480ABDEC6E
:1058C000048BBDE8804001F0E3BC00BF3333B3BEBE
:1058D00080B52DED048B9FED189AB0EE408A40F212
:1058E0004420C2F20000B0EE490AF0EE480A01F08E
:1058F000CFFC40F29C20C2F20000B0EE490AF0EE6C
:10590000480A01F0C5FC40F2F420C2F20000B0EEFB
:10591000490AF0EE480A01F0BBFC40F2EC10C2F27A
:105920000000B0EE490AF0EE480ABDEC048BBDE879
:10593000804001F0ADBC00BF3333B33E80B52DEDE8
:10594000048B9FED199AB0EE408A40F24420C2F2D7
:105950000000B0EE490AF0EE480A01F099FC40F26E
:105960009C20C2F20000B0EE490AF0EE480A01F0B5
:105970008FFC9FED0E9A40F2F420C2F20000B0EED0
:10598000490AF0EE480A01F083FC40F2EC10C2F242
:105990000000B0EE490AF0EE480ABDEC048BBDE809
:1059A000804001F075BC00BF3333B33E3333B3BE28
:1059B00080B52DED048B9FED199AB0EE408A40F230
:1059C0004420C2F20000B0EE490AF0EE480A01F0AD
:1059D0005FFC40F29C20C2F20000B0EE490AF0EEFB
:1059E000480A01F055FC9FED0E9A40F2F420C2F2F5
:1059F0000000B0EE490AF0EE480A01F049FC40F21E
:105A0000EC10C2F20000B0EE490AF0EE480ABDEC1C
:105A1000048BBDE8804001F03BBC00BF3333B3BE14
:105A20003333B33EFEE7000000000000000000003A
:105A3000EFF30980BFF36F8F154B1A681EF0100F3C
:105A400008BF20ED108A20E9F04F10602DE9090011
:105A50004FF0500080F31188BFF34F8FBFF36F8F6B
:105A600001F00CFF4FF0000080F31188BDE8090041
:105A700019680868B0E8F04F1EF0100F08BFB0ECCE
:105A8000108A80F30988BFF36F8F704700BF00BF93
:105A9000D400002040F2F830C2F2000000684FF459
:105AA000FA7141637047000040F2F830C2F2000022
:105AB000006840F6C411416370470000F0B585B03E
:105AC00040F2A4340020C2F20004ADF812004FF4FA
:105AD0007A7501260DF1120720469821DD22012357
