:020000040800F2
:10000000900A00205502000831220008A91B0008B0
:100010002D220008010400082D2600080000000021
:100020000000000000000000000000004D22000859
:100030000504000800000000352200087D220008A9
:100040006F0200086F0200086F0200086F020008CC
:100050006F0200086F0200086F0200086F020008BC
:100060006F0200086F0200086F0200086F020008AC
:100070006F0200086F0200086F0200086F0200089C
:100080006F0200086F0200086F0200086F0200088C
:100090006F0200086F0200086F0200086F0200087C
:1000A0006F0200086F0200086F0200086F0200086C
:1000B0006F0200086F020008412300086F02000869
:1000C0006F0200086F0200086F0200086F0200084C
:1000D0006F0200086F0200086F0200086F0200083C
:1000E0006F0200086F0200086F0200086F0200082C
:1000F0006F0200086F0200086F0200086F0200081C
:100100006F0200086F0200086F0200086F0200080B
:100110006F0200086F0200086F0200086F020008FB
:100120006F0200086F0200086F0200086F020008EB
:100130006F0200086F0200086F0200086F020008DB
:100140006F0200086F0200086F0200086F020008CB
:100150006F0200086F0200086F0200086F020008BB
:100160006F0200086F0200086F0200086F020008AB
:100170006F0200086F0200086F0200080000000014
:100180006F0200086F02000800F002F800F052F859
:1001900014A696E8000CB244B344DA4501D100F04D
:1001A00049F8BAE80F000FA696E83000A5EB040561
:1001B00004EB0607AAEB0704A7F101074FEA1515A0
:1001C0004FEA3414A4F10104AC4201D300F032F838
:1001D00013F0010F18BFFB1A43F0010300F001F800
:1001E000DBE71847A42C0000C42C0000103A24BF01
:1001F00078C878C1FAD8520724BF30C830C144BF8C
:1002000004680C6070470000704700000023002461
:1002100000250026103A28BF78C1FBD8520728BF16
:1002200030C148BF0B6070471FB502F014FE1FBD00
:1002300010B510BD00F0AFF81146FFF7F5FF02F062
:1002400009FA00F0CDF803B4FFF7F2FF03BC00F0A9
:10025000D1F800000948804709480047FEE7FEE75B
:10026000FEE7FEE7FEE7FEE7FEE7FEE7FEE7FEE766
:1002700004480549054A064B704700002D23000835
:100280008901000890040020900A002090060020B8
:100290009006002053EA020C00F069802DE9F04B33
:1002A0004FF00006002B1FBFB3FA83F503FA05F4E5
:1002B00024FA05F65E4012BF1643B2FA82F502FA3E
:1002C00005F4C5F120051EBF22FA05FC44EA0C0422
:1002D000203556EA044C4FEA144418BF641C4FF012
:1002E00000084FF00009904271EB030C39D300294C
:1002F00019BFB1FA81F701FA07F6B0FA80F700FAF0
:1003000007F6C7F120071EBF20FA07FC46EA0C06D5
:100310002037B6FBF4FCA7EB0507103F07F01F0BD7
:10032000CBF120062CFA06F60CFA0BFB44BFB346C1
:100330000026202FA4BF5E464FF0000B5BEA060CA0
:1003400008BF4FF0010B19EB0B0948EB0608ABFB9C
:10035000027C06FB02CC0BFB03CCC01B71EB0C0137
:10036000C1E70B46024641464846BDE8F08B13B54F
:10037000084318BF4FF0FF300146AFF30080BDE8DF
:100380001C40704770477047704700000048704736
:100390001000002070477546FFF7F8FFAE460500D5
:1003A0006946534620F00700854618B020B5FFF790
:1003B0005FFFBDE820404FF000064FF000074FF010
:1003C00000084FF0000BAC46ACE8C009ACE8C0092F
:1003D000ACE8C009ACE8C00921F007018D467047C0
:1003E00010B50446AFF300802046BDE81040FFF78B
:1003F0002ABF000001491820ABBEFEE7260002001C
:10040000FEE700007047000072B600BFFEE7000084
:10041000B0B5044600F0E6F8054640F20000C2F22E
:1004200000000078611C18BF044400BF00F0DAF837
:10043000401BA042FAD3B0BD2DE9F04F82B000F1CD
:100440003E4707F1FF77860546EA972741F60046C3
:10045000C4F20206082243F6004EB04208BF07224B
:10046000C4F2010E072F38BF3A46002600274FF08E
:100470000008009209E000BF08F101080237B8F156
:10048000100F06F1040600F0A3800D68012202FAA5
:1004900008F415EA0409EFD0D1F804B003220BF0F8
:1004A000030CACF10105BA40012D6FEA020A0FD826
:1004B0008268CD6802EA0A02BD402A43826042682F
:1004C000A243CBF3001404FA08F42243426005E08F
:1004D000BCF1030F02D14FF0030C1EE0C2688C6820
:1004E00002EA0A02BC402243BCF1020FC26014D1EE
:1004F0006FF0030202EA58020244D2F820C006F06C
:100500001C040F230D69A3402CEA0303A5402B43D1
:100510001362D1F804B00BF0030C02680CFA07F375
:1005200002EA0A021A431BF4403F0260A4D00022F0
:1005300043F644030192C4F202031A684FF6084CD2
:1005400042F480421A601A68CFF6FF7C02F48042BF
:100550000192019A28F00302724452F80C3006F01E
:100560000C050F24AC40A343009C04FA05F52B4373
:1005700042F80C30DEF808204B6842EA090543F6E1
:100580000C4CDC0258BF22EA0905CEF80850C4F230
:10059000010CDCF800209C0242EA090558BF22EA5F
:1005A0000905CCF80050DEF804209C0342EA090556
:1005B00058BF22EA0905CEF80450DEF80020DB031C
:1005C00042EA090558BF22EA0905CEF8005053E770
:1005D00002B0BDE8F08F0000002A08BF0904816165
:1005E0007047000040F28840C2F200000068704787
:1005F000002804BF01207047F0B581B0044690F890
:100600003D0028B9002084F83C00204600F0A2F804
:10061000242084F83D002068016821F00101016078
:10062000016841F400410160016821F4004101606A
:1006300000F082FA636848F2A16CC0F2010C40F647
:100640000011C0F23D0163453CBF48F28041C0F259
:100650001E01884202D2012001B0F0BD4DF6836137
:10066000C4F21B31A0FB01122168970CD1F804E001
:100670004FF496762EF03F0545EA92454D6077435C
:1006800048F638160D6AC0F24106A7FB067625F03B
:100690003F07634538BF960C721C3A430A62CA6929
:1006A00048F2A0664CF6FF77C0F20106B34222EA98
:1006B00007020BD801385B00B0FBF3F001306FF399
:1006C0001F30042898BF04201BE000BFA768013832
:1006D00057B119277B43B0FBF3F001306FF31F30A4
:1006E00070B100F5804007E003EB4303B0FBF3F08B
:1006F00001306FF31F3018B100F5004001E000BF7A
:1007000001201043C8610868D4E9072320F0C00025
:10071000104318430860886848F2FF3204F10C0760
:1007200090438CCF18431043A6698860C86820F0B6
:10073000FF0038433043C860086840F0010008609B
:1007400000202021206484F83D10206384F83E00BE
:1007500001B0F0BD2DE9F04786B0006845F60041D4
:10076000C4F2000100268842CDE90466CDE90266A4
:1007700001962FD045F60001C4F2000188426ED1E7
:10078000002543F630040095C4F20204206801A954
:1007900040F002002060206800F002000090009805
:1007A0004FF4406001901220CDE90205032004902F
:1007B000042005900020C4F2020000F58060FFF7DD
:1007C0003BFE0095206940F480002061206900F420
:1007D000800042E043F630070096C4F20207386812
:1007E000002440F0040038603868C4F2020400F0CD
:1007F0000400009000980096386801AD40F00100B8
:10080000386038684FF0120800F00100009000983E
:100810004FF4007001904FF003094FF0040A04F503
:1008200000602946CDE90286CDF81090CDF814A0DD
:10083000FFF702FE4FF48070CDE9010803A880E8BD
:10084000400620462946FFF7F7FD0096386940F438
:1008500000003861386900F400000090009806B08C
:10086000BDE8F08740F2000040F28841C2F200008B
:10087000C2F2000100780A68104408607047000066
:1008800080B543F60040C4F20200016841F40071F3
:100890000160016841F480610160016841F4807188
:1008A0000160032000F086F80F2000F005F800F04A
:1008B00027F8002080BD000070B540F20006C2F2AB
:1008C000000640F20C013278C2F200014FF47A7354
:1008D0000968B3FBF2F20446B1FBF2F1084600F0FE
:1008E00061FB0F2C4FF0010508D838B94FF0FF30ED
:1008F00021460022002500F031F87460284670BDC2
:1009000082B0002043F640010190C4F202014A681F
:1009100042F480424A604A6802F480420192019A9D
:100920000090086840F080500860086800F080502F
:100930000090009802B07047002848BF704700F050
:100940001F01012202FA01F11C2202EAD0004EF23C
:100950000012CEF2000281507047000010B54EF632
:100960000C5CCEF2000CDCF80030C3F3022E8EF0EB
:100970000704042C28BF0424BEF103034FF0FF3EFC
:100980000EFA04F438BF0023A14399400EFA03F392
:100990009A43114300F00F0200F160430901043A49
:1009A00003F564436244002848BF02F10C03197048
:1009B00010BD00004EF60C51CEF200010A684FF651
:1009C000FF031A4060F30A2242F0806040F0FD709D
:1009D00008607047002804BF012070472DE9F041EE
:1009E00043F60808C4F202080446D8F8F8030D4696
:1009F00000F00700884207D288F8F853D8F8F803C7
:100A000000F00700A84277D12068810717D5410779
:100A100005D5D8F8001041F4E051C8F800100107DE
:100A200005D5D8F8001041F46041C8F80010D8F896
:100A30000010A26821F0F0011143C8F80010C007AF
:100A400040D1D8F8F80300F00700A84207D988F889
:100A5000F853D8F8F80300F00700A8424CD12068FA
:100A6000410707D5D8F80010E26821F4E05111439E
:100A7000C8F80010000708D5D8F80000216920F454
:100A8000604040EAC100C8F8000000F07DF8D8F8E6
:100A9000001042F67062C1F30311C0F60002515C0F
:100AA00040F20C0220FA01F140F20400C2F2000010
:100AB0000068C2F200021160FFF7FEFE0020BDE8F0
:100AC000F08100BF6068811E022907D258F8081C17
:100AD00089015CBF0120BDE8F08111E0012807D148
:100AE00058F8081C89035CBF0120BDE8F08107E0CD
:100AF00058F8081C890703D40120BDE8F08100BF25
:100B0000D8F8001021F003010843C8F80000FFF7EF
:100B100069FD064641F28837D8F80000616800F0A8
:100B20000C00B0EB810F8CD0FFF75CFD801BB8424E
:100B3000F2D90320BDE8F08140F20C0043F6080131
:100B4000C2F20000C4F202010068096842F6806245
:100B5000C1F38221C0F60002515CC840704700001A
:100B600040F20C0043F60801C2F20000C4F2020198
:100B70000068096842F68062C1F34231C0F60002A3
:100B8000515CC8407047000010B543F60404C4F23D
:100B90000204606800F00C0008280BD0042819BF7C
:100BA00042F20040C0F2F40047F64000C0F27D106F
:100BB00010BD00BF206821682368490247F6400144
:100BC000C0F27D1100F03F02C3F388105CBF42F217
:100BD0000041C0F2F401A1FB00010023FFF75AFB22
:100BE00021680222C1F3014102EB4101B0FBF1F0A7
:100BF00010BD0000002804BF012070472DE9F0411E
:100C000082B00446007843F60006C007C4F202062C
:100C10000CD0B06800F00C00042840F081803068EF
:100C2000800303D56068002800F06A81207880077F
:100C30001BD5B06810F00C0F09D0B06800F00C00A4
:100C4000082840F087807068400200F18380306897
:100C5000800703D5E068012840F05281306821699F
:100C600020F0F80040EAC10030602078000713D47B
:100C7000207840072AD4A569002D00F03C81B06897
:100C800000F00C00082840F0A180012D40F01081F8
:100C9000012002B0BDE8F0816069002840F2000048
:100CA000C4F2472000F07E800121C0F8801EFFF7CB
:100CB00099FC0546706F8007DAD4FFF793FC401B60
:100CC0000228F7D9032002B0BDE8F081306C5FEA5A
:100CD000C0080AD400200190306C40F0805030648D
:100CE000306C00F080500190019847F20007C4F288
:100CF00000073868C00547D4386840F48070386011
:100D0000FFF770FC054600BF3868C0053CD4FFF70C
:100D100069FC401B0228F7D9032002B0BDE8F0812E
:100D2000B06800F00C00082803D1706840023FF55D
:100D300076AF6068B0F5803F07D0B0F5A02F40F0E7
:100D40009B80306840F480203060306840F4803010
:100D500030609BE0E06800285CD00020C4F24720AF
:100D600001210160FFF73EFC054600BF30688007A7
:100D70003FF574AFFFF736FC401B0228F6D903207D
:100D800002B0BDE8F08100BFA068012805D00528A9
:100D900054D1306F40F004003067306F40F00100F4
:100DA000306755E00021C0F8801EFFF71BFC0546A8
:100DB000706F80077FF55CAFFFF714FC401B0228C3
:100DC000F6D9032002B0BDE8F08100BF0027C4F2CD
:100DD000472700203866FFF705FC022D05460DD198
:100DE0003068800140F19080FFF7FCFB401B022837
:100DF0004FF00300F4D902B0BDE8F0813068800103
:100E000079D5FFF7EFFB401B02284FF00300F5D91F
:100E1000F1E700BF0020C4F2472000210160FFF786
:100E2000E1FB0546306880077FF51FAFFFF7DAFB6F
:100E3000401B02284FF00300F4D9DCE7316F002893
:100E400021F001013167316F21F0040131677DD05C
:100E5000FFF7C8FB054641F2883700BF306F8007B7
:100E600000F18680FFF7BEFB401BB842F6D9032095
:100E700002B0BDE8F08100BF3168002821F4803164
:100E80003160316821F4802131607BD0FFF7AAFB0B
:100E9000054600BF306880033FF5C8AEFFF7A2FBF0
:100EA000401B6428F6D9032002B0BDE8F08100BFE2
:100EB0007068E16900F480028A4221D1216A00F061
:100EC0003F028A421CD147F6C071626A0140B1EB11
:100ED000821F15D1A16A4FF6FF73C903994300F42D
:100EE0004032A1F580318A420AD1E16A00F0706097
:100EF000B0EB016F04D1002002B0BDE8F08100BF6B
:100F0000012002B0BDE8F08104F11C052FCD08439B
:100F100040EA8210D9034FF6FF729143A1F5803168
:100F200040EA05600843706001203866FFF75AFB0D
:100F3000044600BF30688001DDD4FFF753FB001B7F
:100F400002284FF00300F5D955E700BFFFF74AFB31
:100F5000054641F2883700BF306F800708D5FFF79C
:100F600041FB401BB8424FF00300F5D943E700BFF7
:100F7000B8F1000F3FF57FAE306C20F08050306448
:100F800079E600BFFFF72EFB054600BF30688003FF
:100F90007FF54CAEFFF726FB401B64284FF00300A3
:100FA000F4D928E7411E0020B0EB116F1CBF0120CF
:100FB00070474EF21002CEF2000251604EF62351FD
:100FC000CEF20001F0230B70072190601160704792
:100FD000704700007047000090F83C20012A4FF055
:100FE000020254D010B580F83D200268D2F804E027
:100FF000D2F808C00C682EF07003234341F2FF744E
:10100000C4F20004A24253600EDC40F2FF73C4F24B
:1010100000039A4216DCB2F1804F2BD040F200431D
:10102000C4F2000324E000BF40F2FF33C4F2010326
:101030009A4213DC41F60003C4F200039A4219D02D
:10104000002313E040F60003C4F200039A4211D0DB
:1010500040F60043C4F200030AE000BF44F200037C
:10106000C4F201039A4205D040F20043C4F20103E6
:101070009A4204D149682CF0800319439160012100
:10108000002280F83D1080F83C20BDE8104010465A
:1010900070470000002804BF0120704710B50446C7
:1010A00090F83D0028B9002084F83C00204600F06C
:1010B0001FF8022084F83D002068211D01F09CF9F2
:1010C000012084F8460084F83E0084F83F0084F84C
:1010D000400084F8410084F8420084F8430084F81A
:1010E000440084F8450084F83D00002010BD000055
:1010F00080B582B0006800F14041800540EA91204F
:10110000042858D8DFE800F00412203A480000BF55
:101110000020019043F64000C4F20200016841F053
:1011200001010160006800F0010042E00020019030
:1011300043F64000C4F20200016841F00201016080
:10114000006800F0020034E00020019043F6400007
:10115000C4F202000168002241F00401016000684D
:10116000002100F00400019001981E20FFF7F6FB1B
:101170001E2002B0BDE88040FFF7DEBB00200190DA
:1011800043F64000C4F20200016841F0080101602A
:10119000006800F008000CE00020019043F64000D9
:1011A000C4F20200016841F010010160006800F023
:1011B00010000190019802B080BD000090F83D1031
:1011C00001291CBF01207047022180F83D100068F2
:1011D00041F2FF72C168C4F20002904241F0010185
:1011E000C1600DDC40F2FF71C4F20001884215DCE1
:1011F000B0F1804F2AD040F20041C4F2000123E058
:1012000040F2FF31C4F20101884213DC41F60001D3
:10121000C4F20001884219D0002113E040F6000119
:10122000C4F20001884211D040F60041C4F200012E
:101230000AE000BF44F20001C4F20101884205D077
:1012400040F20041C4F20101884206D1816801F0F8
:101250000701062904BF00207047016841F0010121
:10126000016000207047000090F83C20012A4FF0F8
:10127000020200F0C58080B580F83D20D0F800C0A3
:101280004FF67772DCF8083023EA0202CCF8082027
:101290000B684F2B28DC1F2B44DD202B45D0302B37
:1012A00043D0402B40F0AE80D1F804E0C968DCF8B0
:1012B0002030DCF8202022F00102CCF82020DCF8DD
:1012C000182022F0F00242EA011123F00A0242EA59
:1012D0000E02CCF81810CCF82020DCF8081041F0F1
:1012E000470121F0300180E06F2B27DDB3F5005F6F
:1012F00048D0B3F5805F7AD0702B40F08380D1E97D
:1013000001E3C968DCF8082043EA0E0322F47F42B7
:1013100043EA01211143CCF80810DCF8081041F031
:10132000770162E00BB1102B6CD1DCF8081021F0D2
:101330007001194341F0070157E000BF502B35D031
:10134000602B5FD1D1F804E0C968DCF82030DCF80C
:10135000202022F01002CCF82020DCF8182022F403
:10136000704242EA013123F0A00242EA0E12CCF8A8
:101370001810CCF82020DCF8081041F0670121F0AB
:10138000100132E0D1E901E3C968DCF8082043EA42
:101390000E0322F47F4243EA01211143CCF80810E6
:1013A000DCF8081041F480411FE000BFD1F804E0F0
:1013B000C968DCF82030DCF8202022F00102CCF8EB
:1013C0002020DCF8182022F0F00242EA011123F07C
:1013D0000A0242EA0E02CCF81810CCF82020DCF801
:1013E000081041F0570121F02001CCF8081000222C
:1013F000012180F83D10002180F83C10BDE88040BC
:10140000104670470122F3E77047000070B50446AC
:101410000068C5680669B10716D515F0020113D03A
:101420006FF002010161012121778069800703D0FB
:101430002046FFF7E9FF05E0204600F08FF8204640
:1014400000F0D0F900202077700719D515F00400BE
:1014500016D020686FF004010161022121778069B4
:1014600010F4407F04D02046FFF7CEFF06E000BF17
:10147000204600F073F8204600F0B4F900202077F1
:10148000300717D515F0080014D020686FF0080158
:10149000016104212177C069800703D02046FFF74E
:1014A000B3FF05E0204600F059F8204600F09AF915
:1014B00000202077F00619D515F0100016D020680E
:1014C0006FF01001016108212177C06910F4407F9D
:1014D00004D02046FFF798FF06E000BF204600F04A
:1014E0003DF8204600F07EF900202077F00718BF75
:1014F00015F0010002D1300609D412E020686FF027
:1015000001010161204600F0FFF9300609D515F010
:10151000800006D020686FF0800101612046FFF74F
:1015200057FD700609D515F0400006D020686FF011
:1015300040010161204600F0E9F9B00658BF70BDD6
:1015400015F0200008D021686FF0200220460A61C3
:10155000BDE87040FFF73EBD70BD00007047000061
:1015600090F83C30012B04BF022070474FEAB202D2
:10157000032A00F201812DE9F043DFE802F0033F86
:101580007FBF00BF036840F200461C6A1A6A24F05D
:10159000020422F001021A621A46D3F804C052F87B
:1015A00018EF8F6843F48065C4F20106B54244EA3F
:1015B000070405D1CF6824F00C0427F004073C434E
:1015C0000F68B54206D1D1E905582CF440762E4378
:1015D00046EA080C2EF073063743C3F804C09F6137
:1015E0004F6809695F631C629F6947F008079F6144
:1015F0009F6927F004079F61B2E000BF036840F2D3
:1016000000481C6A1A6A24F0200422F010021A62B0
:101610001A46D3F804C052F818EF8F6843F4806577
:10162000C4F20108454544EA071407D1CF686FF0BA
:10163000400624F0C00406EA07163443D1F80090AF
:10164000454506D1D1E905562CF440672E4347EABB
:10165000860C2EF4E64747EA0927C3F804C09F61C9
:101660004F6809699F631C629F6947F400679F6127
:101670009F6927F480679F6171E000BF036840F2B3
:1016800000481C6A1A6A24F4007422F480721A62F8
:101690001A46D3F804C052F81CEF8F6843F48065F3
:1016A000C4F20108454544EA072408D1CF6840F256
:1016B000FF463F0224F4406427EA06063443D1F88B
:1016C0000090454506D1D1E905562CF440572E43EC
:1016D00047EA061C2EF0730747EA0907C3F804C05F
:1016E000DF614F680969DF631C62DF6947F0080743
:1016F000DF61DF6927F00407DF6131E0036840F252
:101700000045D3F820C01A6A43F4806722F480525F
:101710001A621A465C6852F81CEFD1F800808E6895
:10172000C4F20105AF4204D14D6924F4804444EA77
:1017300085142CF4005747EA06372EF4E64646EAAD
:1017400008265C60DE614E6809691E641F62DF69FD
:1017500047F40067DF61DF6927F48067DF61090212
:101760001368194311600021BDE8F043002280F89E
:101770003C200846704700BF0121002280F83C2031
:1017800008467047002804BF0120704710B5044682
:1017900090F83D0028B9002084F83C00204600F075
:1017A0001FF8022084F83D002068211D00F024FE6F
:1017B000012084F8460084F83E0084F83F0084F855
:1017C000400084F8410084F8420084F8430084F823
:1017D000440084F8450084F83D00002010BD00005E
:1017E000704700007047000041B1082910D004295B
:1017F00014BF00F1410200F13F020BE090F83E20DF
:10180000012A1CBF01207047022280F83E2013E00D
:1018100000F140021278012A1CBF01207047022209
:10182000082907D0042914BF80F8412080F83F2000
:1018300002E000BF80F84020006801F01F01012293
:10184000036A02FA01F123EA01020262026A114309
:1018500041F2FF72C4F200029042016210DC40F2D9
:10186000FF71C4F2000188421CDCB0F1804F3FD010
:1018700040F20041C4F20001884239D03DE000BF8F
:1018800040F2FF31C4F20101884219DC41F6000147
:10189000C4F2000188422BD00021C4F20101884229
:1018A0001AD02AE040F60001C4F2000188421FD09D
:1018B00040F60041C4F20001884219D01DE000BF8B
:1018C00044F20001C4F20101884211D040F200410B
:1018D000C4F20101884210D1416C40F2004340F44F
:1018E0008062C4F2010341F400419A42416404D190
:1018F000816801F00701062903D0016841F0010168
:101900000160002070470000704700007047000031
:10191000002804BF0120704710B5044690F841002C
:1019200028B9002084F84000204600F021F8242047
:1019300084F841002068C16821F40051C16020464C
:1019400000F0FCFD2068016921F4904101614169CA
:1019500021F02A014161C16841F40051C1600020B9
:101960002021606484F8411084F84210606310BD47
:1019700080B586B0006844F20042C4F20002002143
:101980009042CDE90411CDE90211019124D041F238
:101990000001C4F20101884248D1002043F6300121
:1019A0000090C4F202014A6942F010024A614A6999
:1019B00002F010020092009A0090086840F00100C6
:1019C000086008684FF4C06100F0010000900098C2
:1019D0000020C4F202001DE043F630000091C4F282
:1019E0000200026942F400320261026902F400322C
:1019F0000092009A0091016841F0080101600068BE
:101A0000602100F00800009000980020C4F202005D
:101A100000F5406001910221029100210391032110
:101A200004910721059101A9FEF706FD06B080BDCE
:101A30002DE9F041044690F8410020281CBF022007
:101A4000BDE8F0810D4600294FF0010000F0AA80AA
:101A50001646002A08BFBDE8F081002060642120FE
:101A6000984684F84100FEF7BDFDA684E684A1688F
:101A70000646B1F5805F02D12069002862D02F466A
:101A80000025E08C002861D018F1010018D0B8F1D1
:101A9000000F37D1216808E017F8010B4860E08C8F
:101AA0000138E084E08C002851D00868000673D526
:101AB000002FF1D135F8020B00276FF35F20EDE71F
:101AC000216802E00868000609D40868000606D408
:101AD000086800065CBF08685FEA0060F2D51FB1C5
:101AE00017F8010B05E000BF35F8020B00276FF374
:101AF0005F204860E08C0138E084E08C0028E4D16D
:101B000025E000BF216800BF0868000608D4FEF782
:101B100069FD801B404541D82168C868F4E700BFD3
:101B200017B117F8010B04E035F8020B00276FF32B
:101B30005F204860E08C0138E084E08C0028E3D12D
:101B400005E000BF0027E08C00289DD121680868CF
:101B500040061FD4B8F1000F1ED018F101000FD1BC
:101B60000868400616D40868400613D40868400682
:101B700010D4086840064FF00000F1D50FE000BF18
:101B8000FEF730FD801B404508D82068C16800681A
:101B90004006F5D5002002E0FEF724FD03202021B9
:101BA00084F84110BDE8F081FEE7000070B586B012
:101BB000002543F6300005950095C4F20200016847
:101BC00040F6000441F0800101600168C4F20204A3
:101BD00001F080010091009900950168002241F018
:101BE000010101600168C02601F001010091009926
:101BF0000095016841F002010160016801F00201F5
:101C0000009100990095016841F0040101600168AC
:101C100001F00401009100990095016841F008016C
:101C200001600068C02100F0080000900098204684
:101C3000FEF7D2FC0120CDE9020501A9204601965C
:101C40000495FEF7F9FB06B070BD000080B540F2C8
:101C5000E41045F60001C2F20000C4F200010023C6
:101C60004FF4804C42F2107280E80E00C0E9033C51
:101C7000C0E90533C0E90733FEF7BAFC002808BF06
:101C800080BDBDE88040FEF7BFBB000080B540F2DC
:101C9000382045F60041C2F20000C4F200010023E2
:101CA0004FF4804C42F2107280E80E00C0E9033C11
:101CB000C0E90533C0E90733FEF79AFC002808BFE6
:101CC00080BDBDE88040FEF79FBB000010B594B01A
:101CD00040F28C200021C2F200004FF080425323DA
:101CE00044F61F640D91CDE90B110991CDE907115F
:101CF000CDE90511CDE90311CDE90111C0E90023BA
:101D0000C0E9021401618161FFF7C4F9002818BF1E
:101D1000FEF77AFB4FF480500A9040F28C20C2F21A
:101D200000000AA9FFF7A0FA002818BFFEF76CFB15
:101D300040F28C20C2F20000FFF724FD002818BFFB
:101D4000FEF762FB40F28C200024C2F2000008A9DA
:101D5000CDE90844FFF740F9002818BFFEF754FB0F
:101D60006020CDE901040394059440F28C24C2F272
:101D7000000401A920460022FFF7F2FB002818BF4B
:101D8000FEF742FB206840F60042C4F20002002148
:101D900090420F911CD040F20041C4F200018842F1
:101DA00026D0B0F1804F41D100200E9043F6300094
:101DB000C4F20200016841F001010160006800F016
:101DC00001000E900E9820200F90012022E000BF0D
:101DD00043F630000E91C4F20200016841F00101A7
:101DE0000160006800F001000E900E9801200FE0E5
:101DF00000200E9043F63000C4F20200016841F06A
:101E000001010160006800F001000E900E98402072
:101E10000F90022002211091002113900020CDE9A3
:101E20001111C4F202000FA9FEF706FB14B010BD99
:101E3000B0B594B040F2004540F2D420C4F20005A1
:101E40000021C2F20000532244F61F630D91CDE938
:101E50000B110991CDE90711CDE90511CDE9031168
:101E6000CDE90111C0E90052C0E9021301618161AD
:101E7000FFF710F9002818BFFEF7C6FA4FF480509C
:101E80000A9040F2D420C2F200000AA9FFF7ECF950
:101E9000002818BFFEF7B8FA40F2D420C2F20000C2
:101EA000FFF770FC002818BFFEF7AEFA40F2D4200E
:101EB0000024C2F2000008A9CDE90844FFF78CF81D
:101EC000002818BFFEF7A0FA6020CDE901040394B2
:101ED000059440F2D424C2F2000401A92046002255
:101EE000FFF73EFB002818BFFEF78EFA206840F689
:101EF0000042C4F20002002190420F9118D0A84283
:101F000026D0B0F1804F40D100200E9043F6300033
:101F1000C4F20200016841F001010160006800F0B4
:101F200001000E900E9820200F90012022E000BFAB
:101F300043F630000E91C4F20200016841F0010145
:101F40000160006800F001000E900E9801200FE083
:101F500000200E9043F63000C4F20200016841F008
:101F600001010160006800F001000E900E98402011
:101F70000F900220022110910021CDE91111139040
:101F800005F5FE300FA9FEF757FA14B0B0BD0000FA
:101F900080B586B040F21C3040F600020021C2F24B
:101FA0000000C4F2000253230591CDE90311CDE9ED
:101FB0000011C0E90021C0E90213016180218161A3
:101FC000FFF768F8002818BFFEF71EFA4FF480509C
:101FD000029040F21C30C2F2000002A9FFF744F95F
:101FE000002818BFFEF710FA40F21C30C2F20000C1
:101FF0006946FEF7F1FF002818BFFEF705FA06B0A4
:1020000080BD0000B0B594B040F6004540F26430A9
:10201000C4F200050021C2F20000532244F61F63FF
:102020000D91CDE90B110991CDE90711CDE905110C
:10203000CDE90311CDE90111C0E90052C0E9021355
:1020400001618161FFF726F8002818BFFEF7DCF96F
:102050004FF480500A9040F26430C2F200000AA9A6
:10206000FFF702F9002818BFFEF7CEF940F26430FE
:10207000C2F20000FFF786FB002818BFFEF7C4F984
:1020800040F264300024C2F2000008A9CDE90844FF
:10209000FEF7A2FF002818BFFEF7B6F96020CDE9D1
:1020A00001040394059440F26434C2F2000401A9CF
:1020B00020460022FFF754FA002818BFFEF7A4F9C3
:1020C00020680021A8420F911CD040F20041C4F2C8
:1020D0000001884226D0B0F1804F40D100200E9000
:1020E00043F63000C4F20200016841F001010160D2
:1020F000006800F001000E900E9820200F90012043
:1021000022E000BF43F630000E91C4F202000168E5
:1021100041F001010160006800F001000E900E988E
:1021200001200FE000200E9043F63000C4F20200C0
:10213000016841F001010160006800F001000E90AB
:102140000E9840200F900220022110910021CDE92D
:102150001111139005F5FA300FA9FEF76DF914B0BF
:10216000B0BD000080B582B040F2AC3041F2000258
:102170000021C2F20000C4F20002532346F2A71C61
:10218000CDE90011C0E90023C0E9021C8161FEF71E
:1021900081FF002818BFFEF737F940F2AC30C2F2D9
:1021A00000006946FEF718FF002818BFFEF72CF95B
:1021B00002B080BD80B540F2F43041F20001C2F2BD
:1021C0000000C4F2010100234FF00C0C4FF4E13287
:1021D00080E80E00C0E90333C0E905C3C361FFF71F
:1021E00097FB002808BF80BDBDE88040FEF70CB912
:1021F00080B540F23C4044F20041C2F20000C4F21B
:10220000000100234FF00C0C4FF4E13280E80E0087
:10221000C0E90333C0E905C3C361FFF779FB0028B8
:1022200008BF80BDBDE88040FEF7EEB8FEE70000C5
:10223000FEE700007047000040F28C20C2F2000070
:1022400000684FF4FA714163704700007047000066
:1022500040F2D420C2F2000000684FF4FA714163EA
:1022600070470000DDF800C00160426380F838303C
:1022700080ED0F0A80F840C070470000FEF7F2BA08
:10228000B0B592B0002443F64000CDE90A44CDE950
:1022900008440594CDE90344CDE901440094C4F217
:1022A00002000168022541F080510160006800F0E1
:1022B00080500090009847F200000094C4F20000A3
:1022C000016841F480410160006800F480400090A2
:1022D0000098012006904FF4803007904FF4800062
:1022E0000D9019200E904FF4A870CDE90F05042031
:1022F000119006A80C95FEF77DFC18B172B600BFD0
:10230000FEE700BF0F20CDE901054FF4A050049077
:102310004FF48050059001A805210394FEF75AFB65
:1023200010B172B6FEE700BF12B0B0BD4EF68850D5
:10233000CEF20000016841F47001016070470000B6
:1023400070B540F27005C2F20005A86801282FD1CF
:10235000E86840F600040138C4F20204B0FA80F0E4
:10236000420920468021FEF737F92868012827D046
:10237000F0B940F28446C2F20006306880B32046CD
:1023800040210122FEF728F940F20800C2F20000C5
:102390006968006832680131013A81424FF00000FB
:1023A00069603260A4BF6860012029680844286021
:1023B00040F21C30C2F20000BDE87040FFF726B8C2
:1023C0002046402100220024FEF706F92C6040F24E
:1023D0001C30C2F20000BDE87040FFF717B800BF24
:1023E0000020A860286140F21C30C2F20000BDE865
:1023F0007040FFF70BB80000B0B540F6FF3E05682F
:10240000C4F2000E40F2004C7045C4F2010C27DC0F
:10241000B0F1804F31D040F20043C4F20003984243
:102420002BD040F60003C4F20003984225D041F6B9
:10243000FF73C4F2000398422ADC70453CDCB0F123
:10244000804F5FD040F20043C4F20003984259D05D
:1024500040F60003C4F20003984253D057E000BF97
:1024600040F60043C4F20003984206D0604504D011
:102470000023C4F201039842D9D14B6825F07002C1
:1024800043EA020541F6FF73C4F200039842D4DD2B
:1024900043F6FF73C4F20103984221DC42F20003C9
:1024A000C4F2000398422DD00023C4F201039842E5
:1024B00028D0604526D02AE040F60043C4F200034D
:1024C00098421FD041F60003C4F20003984219D08D
:1024D00041F60043C4F20003984213D017E000BF56
:1024E00044F20003C4F2010398420BD044F6000307
:1024F000C4F20103984205D044F20043C4F2010340
:10250000984204D1CB6825F4407243EA02050A6878
:102510008C684B69C46240F480648262644504BF85
:1025200009690163026825F0800142F00402194341
:102530000260012242610160B0BD000010B5044696
:102540000068D4E902C22369016921F440511143B2
:102550000161626943EA0C01E3691143C2681943EE
:1025600049F20C639A431143C1604169A26921F4A5
:10257000407141F20043114340F48062C4F2010310
:102580009A42416102D1FEF7EBFA01E0FEF7D4FA7C
:10259000E16963681922B1F5004FA0FB020123D164
:1025A0005A00DB0FFDF776FE48F21F51C5F2EB1122
:1025B000A0FB01235A094FF69C73C0F6FF7303F189
:1025C000805302FB0300322303EBC000A0FB010198
:1025D0004FF4F87000EA111000EB0210C1F3421141
:1025E00008442168886010BD9A009B0FFDF752FED9
:1025F00048F21F51C5F2EB11A0FB01235A094FF617
:102600009C73C0F6FF7302FB0300322303EB001040
:10261000A0FB0101F02000EA511000EB0210C1F311
:10262000431108442168886010BD0000FEE70000E7
:102630004FF4FA6148434BF6D711C0F2F201A0FB08
:10264000010140F26430C2F20000006801F5FA7145
:102650004163704782B0FEF713F9FFF711FEFFF7F1
:10266000A5FAFFF713FBFFF7A5FDFFF7C1FDFFF785
:10267000EDFAFFF72BFBFFF7DBFBFFF7C3FCFFF7E0
:1026800087FCFFF76FFD40F21C30C2F20000FEF73E
:1026900095FD40F28C20C2F2000000210024FFF7DB
:1026A000A3F840F2D420C2F200000021FFF79CF80A
:1026B00040F26430C2F200000021FFF795F840F2CA
:1026C000840840F2F4379FED2C8AC2F20008C2F26F
:1026D0000007404602213A460023B0EE480A009423
:1026E000FFF7C0FD40F2DC09C2F2000948460121B3
:1026F0003A460123B0EE480A00940125FFF7B2FDE7
:1027000040F23416C2F20006304603213A46002356
:10271000B0EE480A0094FFF7A5FD40F28C14C2F217
:102720000004204604213A460123B0EE480A0095F1
:10273000FFF798FD4620FFF77BFFFFF77DFDFFF7D2
:1027400087FD9FED0E8A4046B0EE480A00F01CF867
:102750009FED0B9A4846B0EE490A00F015F8304656
:10276000B0EE490A00F010F82046B0EE480A00F03A
:102770000BF800BFFEE700BF2DB29D3DCDCCCC3D98
:10278000CDCCCCBD00000000F0B581B0054600689E
:102790002C4604F8410F9FED321AA4F11D0080ED84
:1027A000000A20EE010A10EE100A00F0E3FA0646D5
:1027B00054F8050C0F4600F0DDFA9FED270B53ECA3
:1027C000102B00F0D9F902460B463046394600F08E
:1027D00049F800F0A1F901B280EAE13714F8092CB8
:1027E000A7EBE13124F8070C00284FEA1120B2FAD8
:1027F00082F3D8BF5A09E0704FF48070F62321713C
:10280000A4F805006B2154F80D0C6370A270E171FF
:10281000214608224FF47A73FFF70AF90120FDF7E9
:10282000F7FD14F8010C98B14FF60071C6F6663149
:10283000686BC5F84110214604224FF47A73FFF704
:10284000F7F8012001B0BDE8F040FDF7E1BD00BFA1
:1028500001B0F0BD00BF00BF1F85EB51B81E09409D
:10286000000070422DE9C04130B4DFF8A4C23CEA58
:10287000111418BF3CEA131400F0ED801CEA111487
:1028800081EA030544EAD57418BF1CEA131500F069
:10289000C880A4EB050404F17F7404F500344FF004
:1028A000004545EAC12145EAC32341EA505143EAC4
:1028B00052534FEAC0204FEAC222994208BF9042C9
:1028C00000F09D804FEA13650FF24416765D4FEAE3
:1028D000134506FB05F7C7F1807706FB07F74FEABC
:1028E000D737A7FB03687642A7FB06CEC8F580382A
:1028F00038BFA8F1010807FB08E6A6FB028C4FF0E1
:10290000000EE6FB03CEDCF1000CCEF1004E38BF2A
:10291000AEF1010EA6FB0C584FF00007E6FB0E8748
:10292000A1FB08C6A0FB07CE16EB0E064FF0000574
:1029300045F10005E1FB076515F1E04E7EBFA4F50A
:1029400080345FEA46066D4116F1800745F10005C7
:102950004FEA172747EA05674FEA15254FEA06664B
:10296000A6F1DE46B6F1805F20D9384605EBC4718A
:1029700024F0010C01EB0C11BCF1FE6F02D8F0BC8D
:10298000BDE8008124425CBF01F5801E9EEAC47F41
:1029900002D4F0BCBDE80081244200F13980A1F1ED
:1029A000C041F0BCBDE8004100F0DEB94FEAD020E4
:1029B00040EA41504FEAD1214FEAD22242EA435243
:1029C0004FEAD323A7FB028607FB036605FB0266DB
:1029D0001EEA0E0F58BFA6EB0056B6EB00564FEAA4
:1029E000520E4EEAC37E18EB0E0E56EB530EBCD5BC
:1029F00018EB02085E417F1C55F10005B5E74FF466
:102A000080154FF000074FF000064FF00008ACE7CC
:102A100001F1C04101F000414FF00000F0BCBDE801
:102A200000810CEA131511EA0C1F00D00CE013EA28
:102A30000C1F00F026804FF0000081EA030101F036
:102A40000041F0BCBDE80081F0BCBDE8004181EA76
:102A5000030100F089B9F0BCBDE8004170B500F099
:102A600035F900BF097EFC3E00F007B84FF00000CA
:102A700081EA030101F00041704781EA030100F09F
:102A800073B9F0BCBDE8004122494FF00000704727
:102A9000FFFDFBF9F7F5F4F2F0EEEDEBE9E8E6E423
:102AA000E3E1E0DEDDDBDAD8D7D5D4D3D1D0CFCDAA
:102AB000CCCBCAC8C7C6C5C4C2C1C0BFBEBDBCBBE3
:102AC000BAB9B8B7B6B5B4B3B2B1B0AFAEADACABDE
:102AD000AAA9A8A8A7A6A5A4A3A3A2A1A09F9F9EB8
:102AE0009D9C9C9B9A99999897979695959493936A
:102AF000929191908F8F8E8E8D8C8C8B8B8A898901
:102B00008888878786858584848383828281818083
:102B10000000FF070000F87F4FEA41034FEA5353DC
:102B2000A3F58063D3F11E03C8BFD3F1210C0CDDE4
:102B30004FF0004242EAC12242EA505232FA03FC0C
:102B40008CEAE17CACEBE1707047102BC4BF002035
:102B5000704703F5787CBCF1FF3F04D06FF0004272
:102B600082EA2100704770B500F0B0F849922480E5
:102B700000207047F2E7000070B5DFF848C11CEA9A
:102B8000111E1EBF1CEA13159EEA0C0F95EA0C0FCE
:102B900000F06F8081EA03044EEAD47EAE4421EA5D
:102BA0004C1123EA4C1341F4801143F48013AEF12D
:102BB0007F7EA1FB024CA0FB0365361955EB0C058B
:102BC000A1FB034C4CF10003A0FB021C16EB0C060E
:102BD000654153F10003094218BF46F0010613F4A2
:102BE000007F0BD14FEA03314FEA053041EA15511E
:102BF00040EA165034036FF003020AE04FEAC321A3
:102C00004FEAC52041EA555140EA5650F4026FF0B0
:102C1000020202EB2E4201EB025585EACE710AD088
:102C20005FEA440C18BF24F0004450F1000041F169
:102C3000000120EAD47040F2FE7C624500D270BDF3
:102C4000A84214BF4FF080444FF04044002E08BF0C
:102C50000024BEF1806FA8BFA1F1C041BDE8704063
:102C600080F2828001F1C04101F000414FF000008C
:102C700070470CEA13159EEA0C0F18BF95EA0C0F6B
:102C800006D081EA030E4FF000000EF0004170BD47
:102C900000F01CF88900013E00F007B800F009B808
:102CA0004FEA430C5FEA5C5C08D081EA030100F064
:102CB0005BB84FEA410C5FEA5C5CF6D102494FF029
:102CC000000070470000FF070000F87F0EF1020EC1
:102CD0002EF0030E5EF8046B364205D4012A43EB56
:102CE000030515F5001F12D8012841EB010C1CF556
:102CF000001F0CD80ED14FEAD17C0CEB4C0C0CF120
:102D0000020C15F5001F08BF4CEBD37C04E04FF01C
:102D1000080C01E04FEAD37C0CEB4C0526FA05F6D3
:102D200006F00706B6F1040C06D20EEB860CBDE8E1
:102D300070404CF0010C6047DFE80CF0090B020218
:102D40004FF00041A1F500214FF0000070BD194681
:102D50001046012851EB010418BFD4F5001484BFBC
:102D6000002001F0004170BD0808A0F500114FEAF5
:102D70003101704743004FEAD30C4FEA3C0C43400B
:102D80001FBF40070CF1605113F0FE4F70471CF05D
:102D9000006F03D10CF00041002070470CF000439D
:102DA00043EA507040EACC0010B500F00EF800BFC6
:102DB000000000924FEA0001FFF7D6BF4FF000413C
:102DC000A1F500214FF0000070470EF1020E2EF029
:102DD000030E5EF8044B244204D44FEA4102B2F1E0
:102DE0007F4F11D84FEA4003B3F17F4F0CD80ED17B
:102DF0004FEAD07C0CEB4C0C0CF1020CB2F17F4F83
:102E000008BF4CEBD17C04E04FF0080C01E04FEA26
:102E1000D17C0CEB4C0324FA03F404F00704B4F166
:102E2000040C06D20EEB840CBDE810404CF0010CF3
:102E30006047DFE80CF0070802024FF00040A0F501
:102E4000800010BD0846420018BFD2F1807288BFD2
:102E500000F0004010BDF1EE100A4FF6FF71C0F215
:102E6000C03120EA010040F04070E1EE100A7047E6
:102E7000000000000000000001020304060708092A
:102E80000000000001020304A82E0008000000203A
:102E900010000000EC010008B82E0008100000200F
:102EA000800A00000C020008010000001000000071
:082EB000190000000024F400E9
:040000050800018965
:00000001FF
