:020000040800F2
:100000006807002055020008DD180008B512000836
:10001000D918000801040008511B00080000000066
:100020000000000000000000000000009919000816
:100030000504000800000000E11800089D190008F0
:100040006F0200086F0200086F0200086F020008CC
:100050006F0200086F0200086F0200086F020008BC
:100060006F0200086F0200086F0200086F020008AC
:100070006F0200086F0200086F0200086F0200089C
:100080006F0200086F0200086F0200086F0200088C
:100090006F0200086F0200086F0200086F0200087C
:1000A0006F0200086F0200086F0200086F0200086C
:1000B0006F0200086F0200086F0200086F0200085C
:1000C0006F0200086F0200086F0200086F0200084C
:1000D0006F0200086F0200086F0200086F0200083C
:1000E0006F0200086F0200086F0200086F0200082C
:1000F0006F0200086F0200086F0200086F0200081C
:100100006F0200086F0200086F0200086F0200080B
:100110006F0200086F0200086F0200086F020008FB
:100120006F0200086F0200086F0200086F020008EB
:100130006F0200086F0200086F0200086F020008DB
:100140006F0200086F0200086F0200086F020008CB
:100150006F0200086F0200086F0200086F020008BB
:100160006F0200086F0200086F0200086F020008AB
:100170006F0200086F0200086F0200080000000014
:100180006F0200086F02000800F002F800F052F859
:1001900014A696E8000CB244B344DA4501D100F04D
:1001A00049F8BAE80F000FA696E83000A5EB040561
:1001B00004EB0607AAEB0704A7F101074FEA1515A0
:1001C0004FEA3414A4F10104AC4201D300F032F838
:1001D00013F0010F18BFFB1A43F0010300F001F800
:1001E000DBE71847C8190000E8190000103A24BFDF
:1001F00078C878C1FAD8520724BF30C830C144BF8C
:1002000004680C6070470000704700000023002461
:1002100000250026103A28BF78C1FBD8520728BF16
:1002200030C148BF0B6070471FB501F0A5FC1FBD72
:1002300010B510BD00F0AFF81146FFF7F5FF01F063
:1002400089FC00F0CDF803B4FFF7F2FF03BC00F027
:10025000D1F800000948804709480047FEE7FEE75B
:10026000FEE7FEE7FEE7FEE7FEE7FEE7FEE7FEE766
:1002700004480549054A064B704700004D1A00081E
:100280008901000868010020680700206803002039
:100290006803002053EA020C00F069802DE9F04B5E
:1002A0004FF00006002B1FBFB3FA83F503FA05F4E5
:1002B00024FA05F65E4012BF1643B2FA82F502FA3E
:1002C00005F4C5F120051EBF22FA05FC44EA0C0422
:1002D000203556EA044C4FEA144418BF641C4FF012
:1002E00000084FF00009904271EB030C39D300294C
:1002F00019BFB1FA81F701FA07F6B0FA80F700FAF0
:1003000007F6C7F120071EBF20FA07FC46EA0C06D5
:100310002037B6FBF4FCA7EB0507103F07F01F0BD7
:10032000CBF120062CFA06F60CFA0BFB44BFB346C1
:100330000026202FA4BF5E464FF0000B5BEA060CA0
:1003400008BF4FF0010B19EB0B0948EB0608ABFB9C
:10035000027C06FB02CC0BFB03CCC01B71EB0C0137
:10036000C1E70B46024641464846BDE8F08B13B54F
:10037000084318BF4FF0FF300146AFF30080BDE8DF
:100380001C40704770477047704700000048704736
:100390001000002070477546FFF7F8FFAE460500D5
:1003A0006946534620F00700854618B020B5FFF790
:1003B0005FFFBDE820404FF000064FF000074FF010
:1003C00000084FF0000BAC46ACE8C009ACE8C0092F
:1003D000ACE8C009ACE8C00921F007018D467047C0
:1003E00010B50446AFF300802046BDE81040FFF78B
:1003F0002ABF000001491820ABBEFEE7260002001C
:10040000FEE700007047000072B600BFFEE7000084
:10041000B0B5044600F0E0F8054640F20000C2F234
:1004200000000078611C18BF044400BF00F0D4F83D
:10043000401BA042FAD3B0BD2DE9F04F82B000F1CD
:100440003E4707F1FF77860546EA972741F60046C3
:10045000C4F20206082243F6004EB04208BF07224B
:10046000C4F2010E072F38BF3A46002600274FF08E
:100470000008009209E000BF08F101080237B8F156
:10048000100F06F1040600F0A3800D68012202FAA5
:1004900008F415EA0409EFD0D1F804B003220BF0F8
:1004A000030CACF10105BA40012D6FEA020A0FD826
:1004B0008268CD6802EA0A02BD402A43826042682F
:1004C000A243CBF3001404FA08F42243426005E08F
:1004D000BCF1030F02D14FF0030C1EE0C2688C6820
:1004E00002EA0A02BC402243BCF1020FC26014D1EE
:1004F0006FF0030202EA58020244D2F820C006F06C
:100500001C040F230D69A3402CEA0303A5402B43D1
:100510001362D1F804B00BF0030C02680CFA07F375
:1005200002EA0A021A431BF4403F0260A4D00022F0
:1005300043F644030192C4F202031A684FF6084CD2
:1005400042F480421A601A68CFF6FF7C02F48042BF
:100550000192019A28F00302724452F80C3006F01E
:100560000C050F24AC40A343009C04FA05F52B4373
:1005700042F80C30DEF808204B6842EA090543F6E1
:100580000C4CDC0258BF22EA0905CEF80850C4F230
:10059000010CDCF800209C0242EA090558BF22EA5F
:1005A0000905CCF80050DEF804209C0342EA090556
:1005B00058BF22EA0905CEF80450DEF80020DB031C
:1005C00042EA090558BF22EA0905CEF8005053E770
:1005D00002B0BDE8F08F000040F26410C2F20000EB
:1005E00000687047002804BF01207047F0B581B053
:1005F000044690F83D0028B9002084F83C002046CD
:1006000000F0CEF9242084F83D002068016821F034
:1006100001010160016841F400410160016821F4B9
:100620000041016000F06AFB636848F2A16CC0F20F
:10063000010C40F60011C0F23D0163453CBF48F299
:100640008041C0F21E01884202D2012001B0F0BDFB
:100650004DF68361C4F21B31A0FB01122168970C97
:10066000D1F804E04FF496762EF03F0545EA924526
:100670004D60774348F638160D6AC0F24106A7FB75
:10068000067625F03F07634538BF960C721C3A4347
:100690000A62CA6948F2A0664CF6FF77C0F201060A
:1006A000B34222EA07020BD801385B00B0FBF3F03B
:1006B00001306FF31F30042898BF04201BE000BFF7
:1006C000A768013857B119277B43B0FBF3F001301D
:1006D0006FF31F3070B100F5804007E003EB430378
:1006E000B0FBF3F001306FF31F3018B100F500409C
:1006F00001E000BF01201043C8610868D4E9072366
:1007000020F0C000104318430860886848F2FF32A8
:1007100004F10C0790438CCF18431043A6698860FE
:10072000C86820F0FF0038433043C860086840F0D4
:100730000100086000202021206484F83D1020631F
:1007400084F83E0001B0F0BD2DE9F04784B0994631
:1007500016460F460446FFF73FFF94F83D10202948
:1007600027D10546206800BF816989071CD5FFF79E
:1007700033FF411B20681A29F6D381698907F3D515
:1007800000202021206384F83D1084F83E00206C76
:1007900004F13C0A40F020002064022000218AF885
:1007A000001004B0BDE8F087A2461AF83C1F0129EA
:1007B00004D1022004B0BDE8F08700BF01228AF80E
:1007C00000200368DDE90D180C9ADB0703D10368EC
:1007D00043F001030360036823F4006303602220F5
:1007E00084F83D00402084F83E00002020646262CE
:1007F0006185608D394620850020CFF6FF70E0626C
:10080000204632464B46CDE9008500F055FD18B133
:10081000012004B0BDE8F087208DA8B102282BD0BC
:10082000012835D121680A6822F480620A6000221A
:1008300003924A6903928A690392039A0A6842F40E
:1008400000720A602CE000BF00200390206841691C
:100850000391816903910399016841F4007101607A
:10086000202084F83D00002084F83E0000218AF812
:10087000001004B0BDE8F08721680A6822F48062A5
:100880000A600A6842F400620A600022039202E0F1
:100890000021039121684A690392896903910399B0
:1008A0000427C0F201070CE010690870606A218D0E
:1008B00001306062481E2085618D01396185010427
:1008C000CED080B203280FD802284AD001282DD1DB
:1008D000204641462A4600F0CBFE002898D12068E9
:1008E000616A0069E1E700BF204641462A4600F000
:1008F000BFFE00287FF48CAF2068616A0069087031
:10090000606A2268411C208D616201382085638DF8
:10091000013B638553695B07D1D580B20328C3D1FE
:10092000106820F480601060BEE700BF20463946A2
:1009300000224346009500F049FD00287FF468AF8F
:100940002068616A026822F48062026000690870AF
:10095000606A218D01306062481E2085608D0138FB
:1009600060852046394600224346009500F02EFD62
:1009700000287FF44DAF2068616A026842F400727B
:10098000026000690870606A2268411C6162218D02
:1009900001392185618D013961851169417085E7D2
:1009A0002DE9F04786B0006845F60047C4F200071D
:1009B000B84203D006B0BDE8F08700BF002643F67A
:1009C00030050196C4F20205286801AC40F004002D
:1009D000286028684FF0120800F004000190019888
:1009E000019628684FF0030940F00100286028684C
:1009F0004FF0040A00F00100019001984FF40070DC
:100A0000019007F5D6302146CDE90286CDF8109049
:100A1000CDF814A0FFF710FD4FF48070CDE9010868
:100A200003A880E8400607F5D2302146FFF704FD11
:100A30000096286940F400002861286900F400004D
:100A40000090009806B0BDE8F087000040F200007A
:100A500040F26411C2F20000C2F2000100780A689C
:100A6000104408607047000080B543F60040C4F2AF
:100A70000200016841F400710160016841F4806185
:100A80000160016841F480710160032000F074F896
:100A90000F2000F005F800F027F8002080BD0000CE
:100AA00070B540F20006C2F2000640F2080132784A
:100AB000C2F200014FF47A730968B3FBF2F2044604
:100AC000B1FBF2F1084600F04FFB0F2C4FF001058F
:100AD00008D838B94FF0FF3021460022002500F039
:100AE0001FF87460284670BD82B0002043F64001B4
:100AF0000190C4F202014A6842F480424A604A68A6
:100B000002F480420192019A0090086840F08050FF
:100B10000860086800F080500090009802B07047AC
:100B200010B54EF60C5CCEF2000CDCF80030C3F3CE
:100B3000022E8EF00704042C28BF0424BEF1030308
:100B40004FF0FF3E0EFA04F438BF0023A143994052
:100B50000EFA03F39A43114300F00F0200F16043D1
:100B60000901043A03F564436244002848BF02F1D6
:100B70000C03197010BD00004EF60C51CEF20001AE
:100B80000A684FF6FF031A4060F30A2242F08060C1
:100B900040F0FD7008607047002804BF01207047D6
:100BA0002DE9F04143F60808C4F202080446D8F8DB
:100BB000F8030D4600F00700884207D288F8F85382
:100BC000D8F8F80300F00700A84277D12068810721
:100BD00017D5410705D5D8F8001041F4E051C8F801
:100BE0000010010705D5D8F8001041F46041C8F89D
:100BF0000010D8F80010A26821F0F0011143C8F8E5
:100C00000010C00740D1D8F8F80300F00700A84250
:100C100007D988F8F853D8F8F80300F00700A8427D
:100C20004CD12068410707D5D8F80010E26821F4BC
:100C3000E0511143C8F80010000708D5D8F80000AB
:100C4000216920F4604040EAC100C8F8000000F0CB
:100C50007DF8D8F8001041F69232C1F30311C0F6C6
:100C60000002515C40F2080220FA01F140F2040057
:100C7000C2F200000068C2F200021160FFF710FF2C
:100C80000020BDE8F08100BF6068811E022907D204
:100C900058F8081C89015CBF0120BDE8F08111E013
:100CA000012807D158F8081C89035CBF0120BDE862
:100CB000F08107E058F8081C890703D40120BDE83B
:100CC000F08100BFD8F8001021F003010843C8F8F4
:100CD0000000FFF781FC064641F28837D8F8000093
:100CE000616800F00C00B0EB810F8CD0FFF774FC52
:100CF000801BB842F2D90320BDE8F08140F2080021
:100D000043F60801C2F20000C4F20201006809685B
:100D100041F6A232C1F38221C0F60002515CC84004
:100D20007047000040F2080043F60801C2F20000DC
:100D3000C4F202010068096841F6A232C1F34231EF
:100D4000C0F60002515CC8407047000010B543F681
:100D50000404C4F20204606800F00C0008280BD000
:100D6000042819BF42F20040C0F2F40047F64000E8
:100D7000C0F27D1010BD00BF2068216823684902C1
:100D800047F64001C0F27D1100F03F02C3F3881026
:100D90005CBF42F20041C0F2F401A1FB000100235C
:100DA000FFF778FA21680222C1F3014102EB410109
:100DB000B0FBF1F010BD0000002804BF0120704717
:100DC0002DE9F04182B00446007843F60006C007E2
:100DD000C4F202060CD0B06800F00C00042840F009
:100DE00081803068800303D56068002800F06A8144
:100DF000207880071BD5B06810F00C0F09D0B068C0
:100E000000F00C00082840F087807068400200F174
:100E100083803068800703D5E068012840F0528164
:100E20003068216920F0F80040EAC1003060207885
:100E3000000713D4207840072AD4A569002D00F0BC
:100E40003C81B06800F00C00082840F0A180012D22
:100E500040F01081012002B0BDE8F08160690028F7
:100E600040F20000C4F2472000F07E800121C0F86B
:100E7000801EFFF7B1FB0546706F8007DAD4FFF7DD
:100E8000ABFB401B0228F7D9032002B0BDE8F0817C
:100E9000306C5FEAC0080AD400200190306C40F04A
:100EA00080503064306C00F080500190019847F21F
:100EB0000007C4F200073868C00547D4386840F41A
:100EC00080703860FFF788FB054600BF3868C005B2
:100ED0003CD4FFF781FB401B0228F7D9032002B066
:100EE000BDE8F081B06800F00C00082803D17068FC
:100EF00040023FF576AF6068B0F5803F07D0B0F5AF
:100F0000A02F40F09B80306840F480203060306833
:100F100040F4803030609BE0E06800285CD0002026
:100F2000C4F2472001210160FFF756FB054600BFD0
:100F3000306880073FF574AFFFF74EFB401B022877
:100F4000F6D9032002B0BDE8F08100BFA0680128F7
:100F500005D0052854D1306F40F004003067306F61
:100F600040F00100306755E00021C0F8801EFFF717
:100F700033FB0546706F80077FF55CAFFFF72CFBF6
:100F8000401B0228F6D9032002B0BDE8F08100BF63
:100F90000027C4F2472700203866FFF71DFB022D0B
:100FA00005460DD13068800140F19080FFF714FBB9
:100FB000401B02284FF00300F4D902B0BDE8F081D5
:100FC0003068800179D5FFF707FB401B02284FF0FE
:100FD0000300F5D9F1E700BF0020C4F2472000214B
:100FE0000160FFF7F9FA0546306880077FF51FAF0B
:100FF000FFF7F2FA401B02284FF00300F4D9DCE7B8
:10100000316F002821F001013167316F21F00401B7
:1010100031677DD0FFF7E0FA054641F2883700BF1F
:10102000306F800700F18680FFF7D6FA401BB84288
:10103000F6D9032002B0BDE8F08100BF3168002876
:1010400021F480313160316821F4802131607BD01E
:10105000FFF7C2FA054600BF306880033FF5C8AE0F
:10106000FFF7BAFA401B6428F6D9032002B0BDE8A6
:10107000F08100BF7068E16900F480028A4221D1EA
:10108000216A00F03F028A421CD147F6C071626AB1
:101090000140B1EB821F15D1A16A4FF6FF73C9035E
:1010A000994300F44032A1F580318A420AD1E16AC5
:1010B00000F07060B0EB016F04D1002002B0BDE819
:1010C000F08100BF012002B0BDE8F08104F11C05F1
:1010D0002FCD084340EA8210D9034FF6FF729143A7
:1010E000A1F5803140EA0560084370600120386650
:1010F000FFF772FA044600BF30688001DDD4FFF7C5
:101100006BFA001B02284FF00300F5D955E700BF2A
:10111000FFF762FA054641F2883700BF306F80075B
:1011200008D5FFF759FA401BB8424FF00300F5D934
:1011300043E700BFB8F1000F3FF57FAE306C20F001
:101140008050306479E600BFFFF746FA054600BFDD
:10115000306880037FF54CAEFFF73EFA401B6428F1
:101160004FF00300F4D928E7411E0020B0EB116FC7
:101170001CBF012070474EF21002CEF200025160F7
:101180004EF62351CEF20001F0230B700721906040
:1011900011607047002804BF0120704710B5044655
:1011A00090F8410028B9002084F84000204600F063
:1011B00021F8242084F841002068C16821F40051FE
:1011C000C160204600F04CFC2068016921F4904188
:1011D0000161416921F02A014161C16841F4005176
:1011E000C16000202021606484F8411084F842101E
:1011F000606310BD80B586B0006844F20042C4F25E
:10120000000200219042CDE90411CDE902110191C3
:1012100024D041F20001C4F20101884248D10020EB
:1012200043F630010090C4F202014A6942F0100214
:101230004A614A6902F010020092009A0090086820
:1012400040F00100086008684FF4C06100F0010040
:10125000009000980020C4F202001DE043F6300028
:101260000091C4F20200026942F400320261026994
:1012700002F400320092009A0091016841F00801E6
:1012800001600068602100F00800009000980020D4
:10129000C4F2020000F54060019102210291002198
:1012A0000391032104910721059101A9FFF7C4F8D7
:1012B00006B080BDFEE700002DE9F04782B004468D
:1012C00000689A460B9D0A9E0368914643F480622B
:1012D000026002680F4642F48071016020464FF0C0
:1012E000011100223346009500F070F850B12068DB
:1012F0000068C00544BF4FF400702064032002B0B2
:10130000BDE8F08740F202082068C0F2010807F04B
:10131000FE0707612046414632462B4600F03CF965
:1013200020B1012002B0BDE8F08700BF002001908D
:1013300020682A46416901918069314601900198EF
:10134000204600F0DDF9B0B92068BAF1010F09D0EC
:101350004FEA19210161204631462A4600F0D0F9B2
:1013600048B920685FFA89F10161204631462A4672
:1013700000F0C6F960B1206C0428D2D12068016861
:1013800041F400710160012002B0BDE8F08700BFA8
:10139000206800220168334641F4807101602046D4
:1013A0004FF00111009500F011F800289FD147F08F
:1013B000010C27682046414632462B46C7F810C02C
:1013C00002B0BDE8F04700F0E7B800002DE9F041B9
:1013D000054600681E46144601F47F0201338FB2B1
:1013E00042D0DDF81880B2F5803F40F08780406938
:1013F0003840C01BB0FA80F04009A04240F0C880DD
:101400004EB924E040693840C01BB0FA80F0400972
:10141000A04240F0BD80FFF7DFF8A0EB080128688C
:10142000B142EFD941693940C91BB1FA81F149098B
:10143000A142E7D19BE000BF40693840C01BB0FA31
:1014400080F04009A0424FF0000040F0A280FFF77A
:10145000C3F8286841693940C91BB1FA81F14909CB
:10146000A142E9D183E000BFB2F5803F24D100BFA3
:1014700041693940C91BB1FA81F14909A14240F0E3
:10148000878041693940C91BB1FA81F14909A142FC
:1014900040F07E8041693940C91BB1FA81F14909A8
:1014A000A14275D141693940C91BB1FA81F149099D
:1014B000A142DDD06CE000BF81693940C91BB1FA9F
:1014C00081F14909A14263D181693940C91BB1FA4F
:1014D00081F14909A1425BD181693940C91BB1FA47
:1014E00081F14909A14253D181693940C91BB1FA3F
:1014F00081F14909A142DFD04AE000BF806938404C
:10150000C01BB0FA80F04009A04241D146B923E0A7
:1015100080693840C01BB0FA80F04009A04237D142
:10152000FFF75AF8A0EB08012868B142F0D98169A9
:101530003940C91BB1FA81F14909A142E8D116E04D
:1015400080693840C01BB0FA80F04009A0424FF0DB
:10155000000018BFBDE8F081FFF73EF828688169F8
:101560003940C91BB1FA81F14909A142E8D10020F3
:101570002021286385F83D1085F83E00296C41F054
:101580002001296485F83C000120BDE8F08100BFFE
:101590000020BDE8F0810000F0B581B0044600688D
:1015A0001D4643698FB203EA0701B94202D1002008
:1015B00001B0F0BD4169164601323FD049053FD424
:1015C000CEB100BFFFF708F8411B2068B14203D934
:1015D00041693940B94215D141693940B942E6D033
:1015E00041694905EED52BE041693940B942DED069
:1015F0004169490524D4FEF7EFFF2068416939406D
:10160000B942F1D0202023E041693940B942CED01F
:101610004169490514D441693940B942C7D041698B
:1016200049050DD441693940B942C0D041694905E5
:1016300006D441693940B942B9D041694905E3D579
:10164000016841F4007101606FF480614161042020
:1016500000212022216384F83D2084F83E10226C72
:101660001043206484F83C10012001B0F0BD00005C
:1016700070B504460068154650F8143F5A063DD42C
:101680000E4629B926E000BF50F8141F490635D48C
:101690000168C90621D4FEF79FFF411B2068B142B3
:1016A000F2D941694906EFD400202021206384F853
:1016B0003D1084F83E00206C40F0200018E000BF90
:1016C000FEF78AFF206850F8141F4906ECD5016820
:1016D000490613D40168C906F2D56FF01001016004
:1016E00000202021206384F83D1084F83E00206C07
:1016F0002064002084F83C00012070BD002070BDF3
:1017000070B50368044653F8140F000611D40E4652
:10171000481C29D086BB00BF1868400527D4FEF7B7
:101720005BFF236853F8140F000637D518680006CE
:10173000F2D5002070BD00BF18680006F9D4186803
:10174000400514D418680006F3D4186840050ED478
:1017500018680006EDD41868400508D4186800061B
:101760004FF0000048BF70BD18684005E4D56FF425
:1017700080601860042012E0154603E053F8140F4F
:101780000006D6D418684005F1D4FEF725FF401BAB
:101790002368B042F2D958690006EFD42020002116
:1017A0002022216384F83D2084F83E10226C1043EF
:1017B0002064012084F83C1070BD000081B000203E
:1017C00043F630010090C4F202010A6842F0800240
:1017D0000A600A6802F080020092009A00900A688B
:1017E00042F004020A600A6802F004020092009AC1
:1017F00000900A6842F001020A600A6802F00102E1
:101800000092009A0090086840F00800086008689C
:1018100000F008000090009801B0704780B540F2D9
:10182000800045F60041C2F20000C4F2000148F217
:10183000A06200234FF4804CC0F2010280E80E0049
:10184000C0E9033CC0E90533C0E90733FEF7CAFE2F
:10185000002808BF80BDBDE88040FEF7D5BD000070
:1018600080B540F2D40041F20001C2F20000C4F29F
:10187000010100234FF00C0C4FF4E13280E80E0020
:10188000C0E90333C0E905C3C361FFF783FC002847
:1018900008BF80BDBDE88040FEF7B6BD80B540F210
:1018A0001C1044F20041C2F20000C4F20001002307
:1018B0004FF00C0C4FF4E13280E80E00C0E9033326
:1018C000C0E905C3C361FFF765FC002808BF80BD00
:1018D000BDE88040FEF798BDFEE70000FEE700008F
:1018E00070470000F0B585B040F280040020C2F2DD
:1018F0000004ADF812004FF47A7501260DF11207BD
:1019000020469821DD220123CDE900760295FEF7DD
:101910001BFF781CCDE9000620469A21DD22012319
:101920000295FEF711FF9DF812109DF8130040F28A
:10193000700201F00103C2F20002137000F0010313
:101940001372C1F340035370C0F340035372C1F3E9
:1019500080039370C0F380039372C1F3C003D3700C
:10196000C0F3C003D372C1F300131371C0F30013AB
:101970001373C1F340135371C0F340135373C1F396
:1019800080139371C0F38013C909C0099373D17197
:10199000D07305B0F0BD000070470000FFF756B8E7
:1019A000B0B592B0002443F64000CDE90A44CDE939
:1019B00008440594CDE90344CDE901440094C4F200
:1019C00002000168022541F080510160006800F0CA
:1019D00080500090009847F200000094C4F200008C
:1019E000016841F480410160006800F4804000908B
:1019F0000098012006904FF4803007904FF480004B
:101A00000D9019200E904FF4A870CDE90F05042019
:101A1000119006A80C95FFF7CFF918B172B600BF68
:101A2000FEE700BF0F20CDE901054FF4A050049060
:101A30004FF48050059001A805210394FFF7ACF8FE
:101A400010B172B6FEE700BF12B0B0BD4EF68850BE
:101A5000CEF20000016841F470010160704700009F
:101A600010B504460068D4E902C22369016921F473
:101A7000405111430161626943EA0C01E36911437A
:101A8000C268194349F20C639A431143C16041692A
:101A9000A26921F4407141F20043114340F4806295
:101AA000C4F201039A42416102D1FFF73BF901E020
:101AB000FFF724F9E16963681922B1F5004FA0FB33
:101AC000020123D15A00DB0FFEF7E4FB48F21F515D
:101AD000C5F2EB11A0FB01235A094FF69C73C0F627
:101AE000FF7303F1805302FB0300322303EBC000BA
:101AF000A0FB01014FF4F87000EA111000EB021096
:101B0000C1F3421108442168886010BD9A009B0F00
:101B1000FEF7C0FB48F21F51C5F2EB11A0FB0123F9
:101B20005A094FF69C73C0F6FF7302FB0300322381
:101B300003EB0010A0FB0101F02000EA511000EBC4
:101B40000210C1F3431108442168886010BD0000F1
:101B5000FEE70000FEF788FFFFF722FFFFF72EFEEB
:101B6000FFF75CFEFFF77CFEFFF798FEFFF7BAFE7B
:101B70000A20FEF74DFCF9E7F1EE100A4FF6FF716F
:101B8000C0F2C03120EA010040F04070E1EE100ADE
:101B90007047000000000000000001020304060777
:101BA000080900000000010203040000D01B000827
:101BB0000000002010000000EC010008E01B0008FD
:101BC00010000020580700000C0200080000000070
:101BD00001000000100000000024F40000000000DC
:040000050800018965
:00000001FF
