:020000040800F2
:10000000D86C00209D010008815800084149000873
:100010003D560008B91C00087D6000080000000083
:10002000000000000000000000000000215A00084D
:10003000911F00080000000091580008755C00083E
:10004000B7010008B7010008B7010008B7010008B0
:10005000B7010008B7010008B7010008B7010008A0
:10006000B7010008B7010008B7010008B701000890
:10007000B7010008B7010008B7010008B701000880
:10008000B7010008B7010008B7010008B701000870
:10009000B7010008B7010008B7010008B701000860
:1000A000B7010008B7010008B7010008B701000850
:1000B000B7010008B70100084D5D0008B70100084E
:1000C000B7010008B7010008B7010008B701000830
:1000D000B7010008B7010008B7010008B701000820
:1000E000B7010008B7010008B7010008B701000810
:1000F000B7010008B7010008B7010008B701000800
:10010000B7010008B7010008B7010008B7010008EF
:10011000B7010008B7010008B7010008B7010008DF
:10012000B7010008B7010008B7010008B7010008CF
:10013000B7010008B7010008B7010008B7010008BF
:10014000B7010008B7010008B7010008B7010008AF
:10015000B7010008B7010008B7010008B70100089F
:10016000B7010008B7010008B7010008B70100088F
:10017000B7010008B7010008B7010008000000003F
:10018000B7010008B7010008DFF80CD000F004FA4E
:100190000048004769610008D86C00200648804785
:1001A00006480047FEE7FEE7FEE7FEE7FEE7FEE75C
:1001B000FEE7FEE7FEE7FEE7395D0008890100087B
:1001C0002DE9F05F0546002092469B46884606468C
:1001D000814640241BE0284641464746224600F01F
:1001E0006DF953465A46C01A914110D3114618462C
:1001F000224600F054F92D1A67EB01084F462246BB
:100200000120002100F04BF917EB00094E41201EA0
:10021000A4F10104DFDC484631462A464346BDE8E6
:10022000F09F40EA01039B0703D009E008C9121FB1
:1002300008C0042AFAD203E011F8013B00F8013BA0
:10024000521EF9D270472DE9FE4F81EA030404F0F3
:10025000004421F0004100944FF0000B23F00043D4
:1002600050EA01045ED052EA03045BD0C3F30A549F
:10027000C1F30A552C44A4F2F3340194A0FB0254B8
:10028000C1F3130141F48011C3F3130343F480134A
:1002900001FB024400FB034E840A970A44EA81549E
:1002A00047EA8357A4FB076802958D0A05FB07857B
:1002B0004FEA932C04FB0C542705029D4FEA065885
:1002C00047EA1637B5EB08056EEB070C870E920E62
:1002D00047EA811742EA8312A7FB0201B6EB0B0142
:1002E00064EB00042B0D43EA0C335E1844EB1C5006
:1002F000DA465146E7FB0201C5F313044FEA0B331C
:1003000043EA14534FEA0432019C43EA0603A4F182
:100310000C040294009CCDE900B400F0EEF803B0A8
:10032000BDE8F08F00200146F9E72DE9F04D81EAA4
:10033000030404F0004B21F0004514464FF0000A7E
:1003400023F0004150EA050220D054EA01021DD0FA
:10035000C5F30A570246C5F31303C1F31300C1F3F3
:100360000A5640F4801543F48013A7EB0608101BCF
:10037000D64608F2FD3873EB050002D308F10108F8
:1003800001E092185B41B8F1000F03DA002001464A
:10039000BDE8F08D00204FF48011064684460EE043
:1003A000171B73EB050705D3121B63EB050306430D
:1003B0004CEA010C49084FEA300092185B4150EAC0
:1003C0000107EDD152EA030012D082EA040083EA69
:1003D0000501084305D0101BAB4106D201220023C2
:1003E00006E000224FF0004302E06FF001025310DC
:1003F0001AEB06004CEB085110EB0A0041EB0B0125
:10040000BDE8F04D00F06AB870B5C1F30A5201F0D2
:1004100000450024C1F3130140F2FF3341F4801181
:100420009A4201DA002070BD40F233439A42A2F2B0
:10043000334203DC524200F041F800E090402C438C
:10044000F1D0404270BDC1F30A5210B5C1F313019F
:1004500040F2FF3341F480119A4201DA002010BDCE
:1004600040F233439A42A2F2334203DC524200F09C
:1004700025F810BD904010BD00F0004230F0004063
:100480000AD0C10D01F56071C0F3160042EA0151B6
:10049000C208400711437047002001467047202AD8
:1004A00004DB203A00FA02F1002070479140C2F1CB
:1004B000200320FA03F3194390407047202A04DBFD
:1004C000203A21FA02F00021704721FA02F3D040CD
:1004D000C2F12002914008431946704710B5141E1E
:1004E00073F1000408DA401C41F1000192185B41ED
:1004F0001A4301D120F0010010BD2DE9F04D9246C4
:100500009B4611B1B1FA81F202E0B0FA80F22032DA
:100510009046FFF7C4FF04460F4640EA0A0041EA4E
:100520000B0153465A46084313D0114653EA0100C3
:1005300019D0C8F140025046FFF7C0FF05460E46ED
:10054000504659464246FFF7AAFF084305D001200E
:1005500004E020463946BDE8F08D0020054346EA18
:10056000E0762C4337430A986305E40AA0EB0800C1
:100570000022FD0A44EA47540A3002D50020014611
:10058000E9E7010510196941DDE9084500196941EC
:10059000BDE8F04DA2E700001CB5094800900948ED
:1005A00001900546009C06E0E06840F0010394E8F5
:1005B000070098471034AC42F6D3FFF7E9FD00007E
:1005C000307F0008507F0008B0B540F25404C2F2FA
:1005D0000004A06800210228216115D19FED2E0A98
:1005E00006F070FA40F6980006F0BEFF9FED270A6D
:1005F00005F09CF84FF4486006F0B6FF0120E0607B
:1006000001202061B0BD00BF9FED200A05F0C4F8B5
:100610004FF4486006F0A8FF9FED1D0A06F052FA5D
:1006200040F6980006F0A0FF9FED1A0A05F07EF84C
:100630004FF4FA7006F098FF40F24B05C2F2000545
:10064000E87820B104F000FCE8780028FAD105F041
:10065000DBFA4FF4FA7006F087FF9FED0F0A04F003
:10066000EFFF40F6980006F07FFFE87828B100BF62
:1006700004F0EAFBE8780028FAD105F0C5FA4FF457
:10068000FA7006F071FF01202061B0BD9A99193F00
:1006900000003443CDCCCC3D0000B44270B540F2F4
:1006A0005404C2F200049FED3F0A0020A568C4E98B
:1006B0000400E06105F004F840F6980006F054FFED
:1006C0009FED390A06F0FEF940F6980006F04CFF5F
:1006D0006069022D42D1032816D040F24B05C2F2C8
:1006E0000005002604F0B0FB2878002806BF012191
:1006F000E161E169EA786069002A01BF01290130FE
:100700006061E6610328EDD19FED270A04F098FFB0
:1007100040F6980006F028FF40F24B05C2F20005B3
:10072000E87838B104F090FB0A2006F01DFFE87865
:100730000028F7D105F068FA4FF4FA7006F014FFBC
:100740009FED190A06F0BEF940F6980006F00CFF7E
:100750000120E0600120206170BD00BF042817D097
:1007600040F24B05C2F20005002600BF04F06CFB0E
:100770002878002806BF0121E161E169EA78606913
:10078000002A01BF012901306061E6610428EDD132
:1007900005F03AFA40F2DC5006F0E6FE0120206156
:1007A00070BD00BF9A99993E0000B44270B52DED1E
:1007B000028B05F005FA40F25404C2F200049FEDEA
:1007C0006F0A0020A568C4E90400A061E06106F09A
:1007D00079F940F6980006F0C7FEA069022D7BD19A
:1007E00001281DDC9FED668A40F24305C2F2000538
:1007F0000DE000BFB0EE480A04F098FF4FF4FA7025
:1008000006F0B2FEA0690130A061022808DA04F007
:100810001BFB287869780843ECD0A0690228F6DB36
:1008200040F2DC5006F0A0FE9FED540A04F008FFF1
:1008300040F2DC5006F098FE6069052816D040F2C0
:100840004B05C2F20005002604F0FEFA28780028C5
:1008500006BF0121E161E169EA786069002A01BF10
:10086000012901306061E6610528EDD105F0CCF980
:1008700040F2DC5006F078FE9FED400A04F0E0FE06
:1008800040F2DC5006F070FE9FED3E0A04F04EFF91
:100890004FF47A7006F068FE40F24B05C2F2000594
:1008A000E87820B104F0D0FAE8780028FAD105F011
:1008B000ABF940F2DC5006F057FE9FED300A06F02F
:1008C00001F940F6980006F04FFE0120E06001209B
:1008D0002061BDEC028B70BD01281DDC9FED288AD4
:1008E00040F24305C2F200050DE000BFB0EE480A39
:1008F00004F01CFF4FF4FA7006F036FEA0690130D8
:10090000A061022808DA04F09FFA28786978084381
:10091000ECD0A0690228F6DB4FF4FA6006F024FE62
:100920009FED160A04F08CFE40F2DC5006F01CFE2F
:100930006069062816D040F24B05C2F20005002679
:1009400004F082FA2878002806BF0121E161E169FC
:10095000EA786069002A01BF012901306061E6611F
:100960000628EDD105F050F940F2DC5006F0FCFD10
:1009700001202061BDEC028B70BD00BF0000B442BD
:10098000B81E053ECDCCCC3DB0B540F254049FED31
:10099000360AC2F200040020C4E90400E06106F057
:1009A00091F840F6980006F0DFFD40F24B05C2F2E8
:1009B0000005E87840B100BF04F046FA0A2006F0CE
:1009C000D3FDE8780028F7D19FED280A04F0AEFEA9
:1009D0004FF4FA7006F0C8FDE87838B104F034FA44
:1009E0000A2006F0C1FDE8780028F7D105F00CF9DF
:1009F0004FF4FA7006F0B8FDA068022828D19FEDE8
:100A00001A0A04F01DFE40F6980006F0ADFD9FEDB9
:100A1000170A04F08BFE4FF4FA7006F0A5FDE87893
:100A200040B100BF04F010FA0A2006F09DFDE878FE
:100A30000028F7D19FED0C0A06F044F840F6980024
:100A400006F092FD0120206201202061B0BD00BFB0
:100A50009FED070A04F06AFE4FF4486006F084FD3B
:100A600001202061B0BD00BF0000B442CDCCCC3D20
:100A7000CDCCCC3E70B540F25404C2F200049FEDE0
:100A80004C0A0020A568C4E90400E06104F018FEE7
:100A900040F6980006F068FD9FED460A06F012F851
:100AA00040F6980006F060FD6069022D54D10328DD
:100AB00016D040F24B05C2F20005002604F0C4F93E
:100AC0002878002806BF0121E161E169EA786069C0
:100AD000002A01BF012901306061E6610328EDD1E0
:100AE0009FED340A04F0ACFD40F6980006F03CFDA2
:100AF00040F24B05C2F20005E87838B104F0A4F9E1
:100B00000A2006F031FDE8780028F7D19FED2B0A86
:100B100004F00CFE4FF4FA7006F026FDE87838B1C8
:100B200004F092F90A2006F01FFDE8780028F7D1BA
:100B300005F06AF84FF4FA7006F016FD9FED1D0AF5
:100B400005F0C0FF40F6980006F00EFD012020627F
:100B50000120206170BD00BF042817D040F24B0572
:100B6000C2F20005002600BF04F06EF928780028C4
:100B700006BF0121E161E169EA786069002A01BFED
:100B8000012901306061E6610428EDD105F03CF8EF
:100B900040F2DC5006F0E8FC9FED070A04F036FE58
:100BA00040F6AC5006F0E0FC0120206170BD00BFB3
:100BB0009A99993E0000B4426666663FCDCCCC3D22
:100BC00070B52DED028B04F0FBFF40F25404C2F22D
:100BD00000049FED7A0A0020A568C4E90400A06122
:100BE000E06105F06FFF40F6980006F0BDFCA069DB
:100BF000022D40F0858001281CDC9FED718A40F2B7
:100C00004305C2F200050CE0B0EE480A04F08EFD88
:100C10004FF4FA7006F0A8FCA0690130A061022828
:100C200008DA04F011F9287869780843ECD0A06953
:100C30000228F6DB40F2DC5006F096FC9FED5F0ADE
:100C400004F0FEFC40F2DC5006F08EFC60690528E2
:100C500016D040F24B05C2F20005002604F0F4F86D
:100C60002878002806BF0121E161E169EA7860691E
:100C7000002A01BF012901306061E6610528EDD13C
:100C800004F0C2FF40F2DC5006F06EFC9FED4B0A10
:100C900004F0D6FC40F2DC5006F066FC9FED488A7A
:100CA00040F243050020C2F20005A0610DE000BF44
:100CB000B0EE480A04F03AFD4FF4FA7006F054FC26
:100CC000A0690130A061012808DA04F0BDF8287895
:100CD00069780843ECD0A0690128F6DB04F094FFA2
:100CE00040F2DC5006F040FC9FED340A05F0EAFECD
:100CF0004FF4FA6006F038FC0120206220614BE0DE
:100D000001281DDC9FED2E8A40F24305C2F200054A
:100D10000DE000BFB0EE480A04F008FD4FF4FA7091
:100D200006F022FCA0690130A061022808DA04F074
:100D30008BF8287869780843ECD0A0690228F6DBA4
:100D40004FF4FA6006F010FC9FED1C0A04F078FCEA
:100D500040F2DC5006F008FC6069062816D040F22C
:100D60004B05C2F20005002604F06EF82878002832
:100D700006BF0121E161E169EA786069002A01BFEB
:100D8000012901306061E6610628EDD104F03CFFE5
:100D900040F2DC5006F0E8FB4FF47A7006F0E4FB1A
:100DA0009FED080A04F032FD40F6B83006F0DCFB97
:100DB00001202061BDEC028B70BD00BF0000B44279
:100DC000B81E053E6666663FB0B52DED028B40F25B
:100DD0005404C2F20004A1680020022920624DD10F
:100DE0009FED4A8AB0EE480A05F06CFE40F6980086
:100DF00006F0BAFB9FED460A04F098FC40F6B830C6
:100E000006F0B2FBB0EE480A05F05CFE40F6980032
:100E100006F0AAFB9FED3F0A04F088FC4FF4FA703D
:100E200006F0A2FB40F24B05C2F20005E87838B1AB
:100E300004F00AF80A2006F097FBE8780028F7D1BA
:100E400004F0E2FE4FF4FA7006F08EFB9FED2F0ADD
:100E500005F038FE40F6980006F086FB9FED2E0A5E
:100E600004F064FC40F6B83006F07EFB01202062FE
:100E700001202061BDEC028BB0BD00BF9FED238A35
:100E8000E061B0EE480AC4E9040005F01BFE40F63C
:100E9000980006F069FB9FED1E0A04F047FC40F63F
:100EA000B83006F061FBB0EE480A04F0C9FB40F62A
:100EB000980006F059FB9FED170A04F037FC4FF439
:100EC000FA7006F051FB40F24B05C2F20005E878DB
:100ED00040B100BF03F0B8FF0A2006F045FBE878F8
:100EE0000028F7D104F090FE4FF4FA7006F03CFBB6
:100EF0009FED060A05F0E6FD40F6980006F034FB8B
:100F000001202061BDEC028BB0BD00BF0000B442E7
:100F10009A99193FCDCCCC3DCDCC4C3FB0B540F2E9
:100F200054049FED500AC2F20004002020612062A8
:100F300004F086FB40F6980006F016FB40F24305ED
:100F4000C2F20005287838B103F07EFF0A2006F0CF
:100F50000BFB28780028F7D104F056FE4FF4FA7006
:100F600006F002FB9FED400A04F016FC40F69800E4
:100F700006F0FAFA9FED3D0A04F0D8FB40F698001F
:100F800006F0F2FA9FED3A0A05F09CFD40F6980053
:100F900006F0EAFA9FED370A04F0C8FB4FF4FA7046
:100FA00006F0E2FA40F24B05C2F20005E87838B1EB
:100FB00003F04AFF0A2006F0D7FAE8780028F7D1B4
:100FC00004F022FE4FF4FA7006F0CEFAA068022870
:100FD00044D19FED270A05F075FD40F6980006F014
:100FE000C3FA9FED240A04F0A1FB4FF4FA7006F057
:100FF000BBFAE87840B100BF03F026FF0A2006F0F4
:10100000B3FAE8780028F7D19FED1A0A04F08EFBB6
:101010004FF4FA7006F0A8FAE87838B103F014FF3C
:101020000A2006F0A1FAE8780028F7D104F0ECFDD8
:101030004FF4FA7006F098FA9FED0D0A05F042FDA4
:1010400040F6980006F090FA9FED0B0A04F06EFB54
:1010500040F6B83006F088FA012060620120206175
:10106000B0BD00BF000034439A99993EA470BD3EC4
:101070000000B442CDCCCC3DCDCC4C3F70B540F25D
:1010800054049FED670AC2F200040020C4E9040082
:10109000C4E9070004F0D4FA40F6980006F064FAB8
:1010A0009FED600A04F042FB4FF4FA7006F05CFA20
:1010B00040F24B05C2F20005E87838B103F0C4FEF7
:1010C0000A2006F051FAE8780028F7D19FED550A7A
:1010D00004F02CFB4FF4FA7006F046FAE87838B1C9
:1010E00003F0B2FE0A2006F03FFAE8780028F7D1B4
:1010F0009FED4D0A04F0A4FA40F6980006F034FA89
:1011000040F24306C2F20006307838B103F09CFE8C
:101110000A2006F029FA30780028F7D104F074FD8F
:101120004FF4FA7006F020FA9FED400A04F034FB09
:1011300040F6980006F018FA9FED3D0A04F0F6FA22
:1011400040F6980006F010FA9FED370A05F0BAFC59
:1011500040F6980006F008FA9FED320A04F0E6FA2D
:101160004FF4FA7006F000FAE87838B103F06CFE3C
:101170000A2006F0F9F9E8780028F7D104F044FDD8
:101180004FF4FA7006F0F0F9A068022844D19FED00
:10119000260A05F097FC40F6980006F0E5F99FED69
:1011A000210A04F0C3FA4FF4FA7006F0DDF9E8788A
:1011B00040B100BF03F048FE0A2006F0D5F9E878F8
:1011C0000028F7D19FED170A04F0B0FA4FF4FA7037
:1011D00006F0CAF9E87838B103F036FE0A2006F0C6
:1011E000C3F9E8780028F7D104F00EFD4FF4FA7047
:1011F00006F0BAF99FED0C0A05F064FC40F6980081
:1012000006F0B2F99FED0B0A04F090FA40F6B83000
:1012100006F0AAF9012060620120206170BD00BFC4
:1012200000003443CDCCCC3D0000B4429A99993EA5
:10123000CDCCCC3ECDCC4C3F10B540F25404C2F2E4
:101240000004A06800210228216135D0012839D08E
:10125000A8BBB5EE000A04F0D9FA40F2DC5006F063
:1012600083F99FED3C0A04F061FA40F2DC5006F08D
:101270007BF9552004F004FF4FF4486006F074F940
:1012800004F09EFC04F040FB04F0DCFB40F6C410CC
:1012900006F06AF99FED300A04F05EFC40F2DC5083
:1012A00006F062F9412004F0EBFE40F2DC5006F05B
:1012B0005BF99FED2C0A37E00120C4E90210012000
:1012C000206110BD9FED220A04F0A0FA40F69800BC
:1012D00006F04AF99FED1F0A04F028FA40F2DC50AC
:1012E00006F042F92D2004F0CBFE4FF4486006F0E2
:1012F0003BF904F065FC04F007FB04F0A3FB40F6A7
:10130000C41006F031F99FED140A04F025FC40F2F8
:10131000DC5006F029F9412004F0B2FE40F2DC5026
:1013200006F022F99FED0D0A04F036FA40F6980017
:1013300006F01AF99FED0A0A04F082F940F69800C7
:1013400006F012F9A0680130A0600120206110BDF4
:10135000C3F5A83E9A99193E0000C8C2EC51B83EA8
:1013600000003443713D8A3E10B52DED028B40F2F2
:101370005404C2F20004A06800210228216117D0A1
:1013800001281DD0B8B9B5EE008AB0EE480A04F0C5
:101390003DFA40F2DC5006F0E7F89FED2F0A04F02A
:1013A000C5F940F2DC5006F0DFF855201BE000BF25
:1013B0000120C4E9021001202061BDEC028B10BDA8
:1013C0009FED248AB0EE480A04F020FA40F6980017
:1013D00006F0CAF89FED200A04F0A8F940F2DC50AC
:1013E00006F0C2F82D2004F04BFE4FF4486006F0E2
:1013F000BBF804F0E5FB04F087FA04F023FB40F6A9
:10140000C41006F0B1F89FED150A04F0A5FB40F2F8
:10141000DC5006F0A9F8412004F032FE40F2DC5026
:1014200006F0A2F8B0EE480A04F0B6F940F69800CB
:1014300006F09AF89FED0A0A04F002F940F69800C7
:1014400006F092F8A0680130A06001202061BDEC98
:10145000028B10BDC3F5A83E9A99193E0000C8C280
:101460000000344310B52DED028B40F25404C2F25B
:101470000004A06800210228216117D001281DD096
:10148000B8B9B5EE008AB0EE480A04F0BFF940F2F0
:10149000DC5006F069F89FED2F0A04F047F940F29E
:1014A000DC5006F061F855201BE000BF0120C4E9C4
:1014B000021001202061BDEC028B10BD9FED248A3B
:1014C000B0EE480A04F0A2F940F6980006F04CF895
:1014D0009FED200A04F02AF940F2DC5006F044F8AF
:1014E0002D2004F0CDFD4FF4486006F03DF804F0E7
:1014F00067FB04F009FA04F0A5FA40F6C41006F000
:1015000033F89FED150A04F027FB40F2DC5006F09B
:101510002BF8412004F0B4FD40F2DC5006F024F832
:10152000B0EE480A04F038F940F6980006F01CF8CE
:101530009FED0A0A04F084F840F6980006F014F8CB
:10154000A0680130A06001202061BDEC028B10BDBD
:10155000C3F5A83E9A99193E0000C8C20000344362
:1015600010B52DED028B40F25404C2F20004A068C5
:1015700000210228216129D0012835D070BB9FEDC0
:10158000390A04F009F94FF4FA7005F0EDFF55201F
:1015900004F076FD4FF4486005F0E6FF04F010FB20
:1015A00004F0B2F904F04EFA40F6C41005F0DCFF86
:1015B0009FED2D0A04F0D0FA40F2DC5005F0D4FF84
:1015C000412004F05DFD40F2DC5039E004F092F976
:1015D00004F000FB40F2DC5005F0C6FF0120206162
:1015E000BDEC028B10BD00BF9FED1E8AB0EE480A15
:1015F00004F00CF94FF4FA7005F0B6FF2D2004F05A
:101600003FFD4FF4486005F0AFFF04F0D9FA04F055
:101610007BF904F017FA40F6C41005F0A5FF9FED22
:10162000120A04F099FA40F2DC5005F09DFF4120C7
:1016300004F026FDB0EE480A04F0AEF84FF4FA705C
:1016400005F092FF9FED090A04F03AF840F2DC50F1
:1016500005F08AFFA0680130A06001202061BDEC88
:10166000028B10BDCDCC4C3D0000C8C29A99193EEA
:1016700010B52DED048B40F25404C2F20004A068B2
:1016800000210228216133D001283FD0C0BB9FED4B
:10169000438AB0EE480A04F049F840F2DC5005F005
:1016A00063FF9FED3F0A04F077F84FF4FA7005F0FE
:1016B0005BFF552004F0E4FC4FF4486005F054FF54
:1016C00004F07EFA04F020F904F0BCF940F6C410EE
:1016D00005F04AFF9FED330A04F03EFA40F2DC5079
:1016E00005F042FF412004F0CBFC40F2DC5043E027
:1016F00004F000F904F06EFA40F2DC5005F034FF1B
:1017000001202061BDEC048B10BD00BF9FED238A3A
:10171000B0EE480A04F00AF840F2DC5005F024FF6D
:101720009FED1F9AB0EE490A04F070F84FF4FA707A
:1017300005F01AFF2D2004F0A3FC4FF4486005F0DB
:1017400013FF04F03DFA04F0DFF804F07BF940F6F3
:10175000C41005F009FF9FED130A04F0FDF940F2F3
:10176000DC5005F001FF412004F08AFCB0EE490A8C
:1017700004F012F84FF4FA7005F0F6FEB0EE480AE5
:1017800003F09EFF40F2DC5005F0EEFEA068013051
:10179000A06001202061BDEC048B10BD9A99193E18
:1017A000CDCC4C3D0000C8C210B52DED048B40F2ED
:1017B0005404C2F20004A0680021022821613BD039
:1017C000012847D000283FD19FED468AB0EE480A55
:1017D00003F0ACFF40F2DC5005F0C6FE9FED429AEC
:1017E000B0EE490A03F0D8FF4FF4FA7005F0BCFEE2
:1017F000552004F045FC4FF4486005F0B5FE04F0B8
:10180000DFF904F081F804F01DF940F6C41005F08A
:10181000ABFE9FED360A04F09FF940F2DC5005F074
:10182000A3FE412004F02CFCB0EE490A03F0EEFFC9
:1018300040F2DC5044E000BF04F05CF804F0CAF968
:1018400040F2DC5005F090FE01202061BDEC048BDD
:1018500010BD00BF9FED238AB0EE480A03F066FF7B
:1018600040F2DC5005F080FE9FED1F9AB0EE490A71
:1018700003F0CCFF4FF4FA7005F076FE2D2004F053
:10188000FFFB4FF4486005F06FFE04F099F904F097
:101890003BF804F0D7F840F6C41005F065FE9FED64
:1018A000130A04F059F940F2DC5005F05DFE4120C6
:1018B00004F0E6FBB0EE490A03F06EFF4FF4FA7055
:1018C00005F052FEB0EE480A03F0FAFE40F2DC509A
:1018D00005F04AFEA0680130A06001202061BDEC47
:1018E000048B10BD9A99193ECDCC4C3D0000C8C266
:1018F00010B52DED048B40F25404C2F20004A06830
:1019000000210228216119D0012825D0F0B99FEDCE
:101910003F8AB0EE480A03F03FFF40F6980005F01A
:1019200023FE9FED379AB0EE490A03F0FFFE40F622
:10193000980005F019FE552023E000BF03F0DAFF00
:1019400004F048F940F2DC5005F00EFE0120206161
:10195000BDEC048B10BD00BFB5EE008AB0EE480AA6
:1019600003F01AFF40F6980005F0FEFD9FED249A63
:10197000B0EE490A03F0DAFE40F6980005F0F4FDF7
:101980002D2004F07DFB40F2DC5005F0EDFD04F06D
:1019900017F903F0B9FF04F055F840F6980005F088
:1019A000E3FD9FED180A04F0D7F840F2DC5005F093
:1019B000DBFD412004F064FB40F2DC5005F0D4FD77
:1019C000B0EE490A03F07CFE40F6980005F0CCFD2D
:1019D000B0EE480A03F01AFF40F6980005F0C4FD87
:1019E0009FED090A03F02CFE40F6980005F0BCFDBF
:1019F000A0680130A06001202061BDEC048B10BD07
:101A00006666E63E0000C8C2000034433333B33E8E
:101A100010B52DED048B40F25404C2F20004A0680E
:101A200000210228216119D0012825D0F0B99FEDAD
:101A30003F8AB0EE480A03F0AFFE40F6980005F08A
:101A400093FD9FED379AB0EE490A03F06FFE40F622
:101A5000980005F089FD552023E000BF03F04AFF00
:101A600004F0B8F840F2DC5005F07EFD0120206162
:101A7000BDEC048B10BD00BFB5EE008AB0EE480A85
:101A800003F08AFE40F6980005F06EFD9FED249A63
:101A9000B0EE490A03F04AFE40F6980005F064FDF6
:101AA0002D2004F0EDFA40F2DC5005F05DFD04F06D
:101AB00087F803F029FF03F0C5FF40F6980005F012
:101AC00053FD9FED180A04F047F840F2DC5005F092
:101AD0004BFD412004F0D4FA40F2DC5005F044FD07
:101AE000B0EE490A03F0ECFD40F6980005F03CFD2D
:101AF000B0EE480A03F08AFE40F6980005F034FD87
:101B00009FED090A03F09CFD40F6980005F02CFDBE
:101B1000A0680130A06001202061BDEC048B10BDE5
:101B20006666E63E0000C8C2000034433333B33E6D
:101B300010B52DED048B40F25404C2F20004A068ED
:101B400000210228216119D0012825D0F0B99FED8C
:101B50003F8AB0EE480A03F01FFE40F6980005F0F9
:101B600003FD9FED379AB0EE490A03F0DFFD40F622
:101B7000980005F0F9FC552023E000BF03F0BAFE01
:101B800004F028F840F2DC5005F0EEFC0120206162
:101B9000BDEC048B10BD00BFB5EE008AB0EE480A64
:101BA00003F0FAFD40F6980005F0DEFC9FED249A64
:101BB000B0EE490A03F0BAFD40F6980005F0D4FCF7
:101BC0002D2004F05DFA40F2DC5005F0CDFC03F06E
:101BD000F7FF03F099FE03F035FF40F6980005F09B
:101BE000C3FC9FED180A03F0B7FF40F2DC5005F08C
:101BF000BBFC412004F044FA40F2DC5005F0B4FC98
:101C0000B0EE490A03F05CFD40F6980005F0ACFC2C
:101C1000B0EE480A03F0FAFD40F6980005F0A4FC87
:101C20009FED090A03F00CFD40F6980005F09CFCBE
:101C3000A0680130A06001202061BDEC048B10BDC4
:101C40006666E63E0000C8C2000034433333B33E4C
:101C5000F0B581B040F2540440F2430640F24B0725
:101C6000C2F200040025C2F20006C2F20007E561DC
:101C700065610BE00121E161FA786069002A01BF2A
:101C8000012901306061E56104280BD003F0DCF824
:101C9000B079F1790843EDD0307871780843E9D014
:101CA000E169E9E703F0B0FF4FF4FA7005F05CFC7E
:101CB0000120206101B0F0BDFEE7000010B52DED60
:101CC000028B40F254049FED210AC2F2000400206E
:101CD000206103F0F5FC40F2DC5005F045FC9FED7F
:101CE0001C8AB0EE480A03F091FD40F6B83005F0CA
:101CF0003BFC40F23C00C2F200000078606003F060
:101D00005FFF03F001FE03F09DFE40F6C41005F0F6
:101D10002BFC9FED100A03F01FFF40F2DC5005F092
:101D200023FCB0EE480A03F037FD40F2DC5005F02A
:101D30001BFC9FED090A03F083FC4FF4486005F09B
:101D400013FC01202061BDEC028B10BDCDCC4C3DBD
:101D50009A99993E0000C8C20000344310B540F281
:101D60005404C2F200040020B5EE000A2061A06015
:101D700003F0DCFC40F6980005F0F6FB40F23C0076
:101D8000C2F200000078606003F01AFF03F0BCFDAF
:101D900003F058FE40F6980005F0E6FB9FED050ABB
:101DA00003F0DAFE40F2DC5005F0DEFB012020619A
:101DB00010BD00BF0000C8C210B52DED048B40F26D
:101DC0005404B5EE008AC2F200040020B0EE480AC6
:101DD0002061A06003F0AAFC40F6980005F0C4FB67
:101DE0009FED219AB0EE490A03F0D6FC40F6980028
:101DF00005F0BAFB40F23C00C2F2000000786060DF
:101E000003F0DEFE03F080FD40F2DC5005F0ACFB99
:101E100003F018FE40F6C41005F0A6FB9FED130A70
:101E200003F09AFE40F2DC5005F09EFBB0EE490A4A
:101E300003F0ECFC40F6980005F096FBB0EE480A83
:101E400003F03EFC40F6980005F08EFB9FED080A7B
:101E500003F0F6FB40F6980005F086FB01202061B8
:101E6000BDEC048B10BD00BF9A99993E0000C8C21A
:101E70000000344340F25400C2F20000006901380F
:101E8000B0FA80F04009704740F25400C2F20000FE
:101E90000169406881F0010180F003000843B0FA55
:101EA00080F040097047000040F25400C2F2000088
:101EB000D0E9030181F001010843B0FA80F0400944
:101EC0007047000040F25400C2F20000016940680F
:101ED00081F0010180F001000843B0FA80F0400970
:101EE0007047000040F25400C2F2000001694068EF
:101EF00081F0010180F002000843B0FA80F040094F
:101F00007047000040F25400C2F20000D0E9030123
:101F100081F0010180F001000843B0FA80F040092F
:101F20007047000040F25400C2F200000169006AEC
:101F300081F001010843B0FA80F0400970470000C9
:101F400040F25400C2F200000169006A81F0010110
:101F500080F001000843B0FA80F0400970470000AB
:101F600040F25400C2F200000169406A81F00101B0
:101F70000843B0FA80F040097047000040F2540076
:101F8000C2F20000406A0138B0FA80F040097047A0
:101F900070470000B0B540F25405C2F200050020C1
:101FA000E861C5E90400A868B5EE000A40F2DC5417
:101FB0009FED211A0028C8BFB0EE410AC8BF40F605
:101FC000980403F0B3FB204605F0CEFA03F01CFEA4
:101FD0004FF4FA7005F0C8FA9FED180A04F072FD8C
:101FE00040F6980005F0C0FA40F24304C2F2000443
:101FF000E07938B102F028FF0A2005F0B5FAE0795F
:102000000028F7D103F000FE4FF4FA7005F0ACFAA7
:102010009FED0B0A03F08AFB40F6980005F0A4FA46
:102020009FED080A03F0F2FB4FF4486005F09CFABC
:1020300001202861B0BD00BFF628DC3E0000B4429C
:10204000B81E053E9A99193FF0B581B02DED028B6F
:1020500040F2540440F2430540F24B07C2F2000440
:102060000026C2F20005C2F20007E661C4E9046678
:102070000CE000BF0121E161FA786069002A01BF2C
:10208000012901306061E66103280BDA02F0DCFE11
:10209000A879E9790843EDD0287869780843E9D030
:1020A000E169E9E718D19FED1A8A0CE0B0EE480A21
:1020B00003F03CFB4FF4FA7005F056FA606901300A
:1020C0006061042808DA02F0BFFE287869780843C6
:1020D000ECD060690428F6DB03F096FD40F2DC509A
:1020E00005F042FA9FED0B0A04F0ECFC40F2DC50E4
:1020F00005F03AFA9FED080A03F018FB40F2DC50B5
:1021000005F032FA01202061BDEC028B01B0F0BD78
:10211000CDCCCC3D0000B4429A99993EF0B581B047
:102120002DED028B40F2540440F2430540F24B0780
:10213000C2F200040026C2F20005C2F20007E66106
:10214000C4E904660CE000BF0121E161FA7860692E
:10215000002A01BF012901306061E66103280BDA22
:1021600002F072FEA879E9790843EDD02878697801
:102170000843E9D0E169E9E7042819D89FED368AD8
:102180000DE000BFB0EE480A03F0D0FA4FF4FA7049
:1021900005F0EAF9606901306061052808DA02F0AB
:1021A00053FE287869780843ECD060690528F6DB8F
:1021B0009FED2A0A03F0BAFA4FF4FA7005F0D4F949
:1021C0009FED270A03F0E8FA40F6980005F0CCF9F5
:1021D000287800216161C8B19FED228A02F034FEA7
:1021E000287878B9697869B9B0EE480A03F09EFAA0
:1021F0004FF4FA7005F0B8F96069411C2878616104
:1022000010B903E0616908B10229E7DB03F0FCFCC7
:102210004FF47A7005F0A8F99FED138AB0EE480AE2
:1022200004F050FC40F6980005F09EF99FED0F0A6F
:1022300003F07CFA40F6B83005F096F9B0EE480AA3
:1022400004F040FC40F6980005F08EF90120206172
:10225000BDEC028B01B0F0BDCDCCCC3D1B2FDD3CE5
:102260009A99993EB81E053E0000B442AE47613FC0
:10227000B0B540F25404C2F200040020B5EE000AEA
:10228000E061C4E9040003F01BFA40F6980005F091
:102290006BF99FED180A03F0D3F940F6980005F0AA
:1022A00063F940F24305C2F20005E87940B100BF8E
:1022B00002F0CAFD0A2005F057F9E8790028F7D1A5
:1022C00003F0A2FC40F2DC5005F04EF99FED0A0A43
:1022D00003F02CFA4FF4FA7005F046F99FED070A67
:1022E00004F0F0FB40F6980005F03EF90120206173
:1022F000B0BD00BF00003443CDCCCC3D0000B442A3
:10230000F0B581B02DED028B40F254049FED3A0AF6
:10231000C2F200040025E561C4E9045503F03CFA6B
:1023200040F6AC5005F020F99FED340A03F088F92F
:1023300040F6980005F018F96069022820DC40F2A8
:10234000430640F24B07C2F20006C2F200070BE060
:102350000121E161FA786069002A01BF0129013099
:102360006061E56103280BDA02F06EFDB079F17966
:102370000843EDD0307871780843E9D0E169E9E7A6
:1023800003281DD89FED1E8A40F24305C2F20005C6
:102390000DE000BFB0EE480A03F0C8F94FF4FA7040
:1023A00005F0E2F8606901306061042808DA02F0A3
:1023B0004BFD287869780843ECD060690428F6DB87
:1023C00003F022FC40F2DC5005F0CEF89FED0D0A40
:1023D00004F078FB40F2DC5005F0C6F89FED0A0AE5
:1023E00003F0A4F940F2DC5005F0BEF801202061B2
:1023F000BDEC028B01B0F0BD6666663F0000344361
:10240000CDCCCC3D0000B4429A99993EF0B581B054
:102410002DED028B40F254049FED550AC2F20004E8
:102420000025E561C4E9045503F0B6F940F6AC5067
:1024300005F09AF89FED4F0A03F002F940F6980074
:1024400005F092F86069022820DC40F2430640F271
:102450004B07C2F20006C2F200070BE00121E16166
:10246000FA786069002A01BF012901306061E561E5
:1024700003280BDA02F0E8FCB079F1790843EDD0DB
:10248000307871780843E9D0E169E9E704281DD87C
:102490009FED398A40F24305C2F200050DE000BF0E
:1024A000B0EE480A03F042F94FF4FA7005F05CF818
:1024B000606901306061052808DA02F0C5FC2878FF
:1024C00069780843ECD060690528F6DB40F2DC50FF
:1024D00005F04AF89FED290A03F05EF940F69800EE
:1024E00005F042F89FED248A40F243050020C2F235
:1024F0000005A0610DE000BFB0EE480A03F016F938
:102500004FF4FA7005F030F8A0690130A06102289C
:1025100008DA02F099FC287869780843ECD0A069C1
:102520000228F6DB03F070FB4FF47A7005F01CF81C
:102530009FED138AB0EE480A04F0C4FA4FF4FA6033
:1025400005F012F89FED0F0A03F0F0F840F6B830EE
:1025500005F00AF8B0EE480A04F0B4FA4FF4FA6055
:1025600005F002F801202061BDEC028B01B0F0BD46
:102570006666663F00003443B81E053E9A99993E50
:102580000000B442AE47613FB0B540F254049FED45
:102590002B0AC2F200040020E061C4E9040003F049
:1025A0004FF840F6980004F0DFFF9FED250A03F096
:1025B000BDF84FF4FA7004F0D7FF40F24B05C2F2B9
:1025C0000005E87840B100BF02F03EFC0A2004F0AC
:1025D000CBFFE8780028F7D103F016FB4FF4FA7030
:1025E00004F0C2FF9FED150A04F06CFA40F6980063
:1025F00004F0BAFF9FED120A03F098F84FF4FA7056
:1026000004F0B2FFE87838B102F01EFC0A2004F0B2
:10261000ABFFE8780028F7D103F0F6FA4FF4FA7030
:1026200004F0A2FF9FED050A04F04CFA40F6980072
:1026300004F09AFF01202061B0BD00BF0000B44249
:10264000CDCCCC3DB0B52DED028B40F254049FEDC6
:102650002D0AC2F200040020E061C4E9040003F086
:1026600065F84FF4FA7004F07FFF40F24B05C2F2B8
:102670000005E87840B100BF02F0E6FB0A2004F054
:1026800073FFE8780028F7D103F0BEFA4FF4FA7030
:1026900004F06AFF9FED1C8AB0EE480A03F0B6F81A
:1026A00040F6980004F060FFB0EE480A03F03EF8F0
:1026B00040F6980004F058FF9FED140A02F0C0FFA6
:1026C00040F6980004F050FF9FED0E0A03F02EF83C
:1026D0004FF4FA7004F048FFE87838B102F0B4FB28
:1026E0000A2004F041FFE8780028F7D103F08CFAC3
:1026F0004FF4FA7004F038FF01202061BDEC028B2A
:10270000B0BD00BFCDCCCC3D9A99993E0000B442FB
:10271000B0B540F254049FED340AC2F20004002028
:10272000E061C4E9040003F001F84FF4FA7004F02A
:102730001BFF40F24B05C2F20005E87840B100BF34
:1027400002F082FB0A2004F00FFFE8780028F7D19E
:1027500003F05AFA4FF4FA7004F006FF9FED220AD4
:1027600002F0E4FF4FF4FA7004F0FEFEE87838B1AE
:1027700002F06AFB0A2004F0F7FEE8780028F7D19F
:1027800003F042FA4FF4FA7004F0EEFE9FED170AE0
:1027900003F03CF840F6B83004F0E6FE40F24305A2
:1027A000C2F20005287838B102F04EFB0A2004F08E
:1027B000DBFE28780028F7D103F026FA4FF4FA70F0
:1027C00004F0D2FE9FED080A02F0B0FF4FF4FA7059
:1027D00004F0CAFE03F018FA4FF4FA7004F0C4FED5
:1027E00001202061B0BD00BFCDCCCC3D9A99193FEE
:1027F00010B52DED028B40F25404C2F20004A06823
:102800000021022821610FD0012817D080B99FED47
:10281000228AB0EE480A02F089FF40F2DC5004F050
:10282000A3FE5F2015E000BF03F064F803F0D2F9C7
:1028300001202061BDEC028B10BD00BF9FED168A08
:10284000B0EE480A02F072FF40F2DC5004F08CFE59
:102850000F2003F015FC4FF4FA7004F085FE03F02E
:1028600049F803F0B7F940F2DC5004F07DFE412056
:1028700003F006FC40F2DC5004F076FEB0EE480AAD
:1028800002F01EFF40F2DC5004F06EFE01202061D9
:10289000BDEC028B10BD00BF9A99193E10B52DED0D
:1028A000028B40F25404C2F20004A0680021022806
:1028B00021610FD0012817D080B99FED228AB0EE98
:1028C000480A02F033FF40F2DC5004F04DFE5F2076
:1028D00015E000BF03F00EF803F07CF90120206141
:1028E000BDEC028B10BD00BF9FED168AB0EE480A0A
:1028F00002F01CFF40F2DC5004F036FE0F2003F023
:10290000BFFB40F2DC5004F02FFE02F0F3FF03F0B7
:1029100061F940F2DC5004F027FE412003F0B0FBE7
:1029200040F2DC5004F020FEB0EE480A02F0C8FE8F
:1029300040F2DC5004F018FE01202061BDEC028B57
:1029400010BD00BF9A99193E10B52DED028B40F2D3
:102950005404C2F20004A0680021022821610FD0B3
:10296000012813D0B0BB9FED1E8AB0EE480A02F0DA
:10297000DDFE40F2DC5004F0F7FD7D2011E000BFE9
:1029800002F0B8FF03F026F920E000BF9FED148AA3
:10299000B0EE480A02F0CAFE40F2DC5004F0E4FD5A
:1029A000232003F06DFB40F2DC5004F0DDFD02F06B
:1029B000A1FF03F00FF9412003F062FB40F2DC506D
:1029C00004F0D2FDB0EE480A02F07AFE40F2DC508C
:1029D00004F0CAFD01202061BDEC028B10BD00BFD8
:1029E0009A99193E10B52DED028B40F25404C2F2B3
:1029F0000004A0680021022821610FD0012813D013
:102A0000B0BB9FED1E8AB0EE480A02F08FFE40F286
:102A1000DC5004F0A9FD7D2011E000BF02F06AFF48
:102A200003F0D8F820E000BF9FED148AB0EE480A0A
:102A300002F07CFE40F2DC5004F096FD232003F00F
:102A40001FFB40F2DC5004F08FFD02F053FF03F057
:102A5000C1F8412003F014FB40F2DC5004F084FD87
:102A6000B0EE480A02F02CFE40F2DC5004F07CFD8F
:102A700001202061BDEC028B10BD00BF9A99193E68
:102A800010B52DED028B40F25404C2F20004A06890
:102A90000021022821610FD0012813D0B0BB9FED87
:102AA0001E8AB0EE480A02F041FE40F2DC5004F00B
:102AB0005BFD7D2011E000BF02F01CFF03F08AF8EF
:102AC00020E000BF9FED148AB0EE480A02F02EFE0F
:102AD00040F2DC5004F048FD232003F0D1FA40F22C
:102AE000DC5004F041FD02F005FF03F073F84120D3
:102AF00003F0C6FA40F2DC5004F036FDB0EE480AAE
:102B000002F0DEFD40F2DC5004F02EFD01202061D9
:102B1000BDEC028B10BD00BF9A99193E10B52DED8A
:102B2000028B40F25404C2F20004A0680021022883
:102B300021610FD0012813D0B0BB9FED1E8AB0EEEB
:102B4000480A02F0F3FD40F2DC5004F00DFD7D2058
:102B500011E000BF02F0CEFE03F03CF820E000BF21
:102B60009FED148AB0EE480A02F0E0FD40F2DC501E
:102B700004F0FAFC232003F083FA40F2DC5004F066
:102B8000F3FC02F0B7FE03F025F8412003F078FAD9
:102B900040F2DC5004F0E8FCB0EE480A02F090FD90
:102BA00040F2DC5004F0E0FC01202061BDEC028B1F
:102BB00010BD00BF9A99193E10B52DED028B40F261
:102BC0005404C2F20004A0680021022821610FD041
:102BD000012813D0B0BB9FED1E8AB0EE480A02F068
:102BE000A5FD40F2DC5004F0BFFC7D2011E000BFE9
:102BF00002F080FE02F0EEFF20E000BF9FED148A9D
:102C0000B0EE480A02F092FD40F2DC5004F0ACFC59
:102C1000232003F035FA40F2DC5004F0A5FC02F06A
:102C200069FE02F0D7FF412003F02AFA40F2DC509F
:102C300004F09AFCB0EE480A02F042FD40F2DC508B
:102C400004F092FC01202061BDEC028B10BD00BF9E
:102C50009A99193E10B52DED028B40F25404C2F240
:102C60000004A0680021022821610FD0012813D0A0
:102C7000B0BB9FED1E8AB0EE480A02F057FD40F24D
:102C8000DC5004F071FC7D2011E000BF02F032FE48
:102C900002F0A0FF20E000BF9FED148AB0EE480ACA
:102CA00002F044FD40F2DC5004F05EFC232003F00F
:102CB000E7F940F2DC5004F057FC02F01BFE02F092
:102CC00089FF412003F0DCF940F2DC5004F04CFCB9
:102CD000B0EE480A02F0F4FC40F2DC5004F044FC90
:102CE00001202061BDEC028B10BD00BF9A99193EF6
:102CF00010B52DED028B40F25404C2F20004A0681E
:102D00000021022821610FD001281DD0B0B99FED0C
:102D1000238AB0EE480A02F009FD40F2DC5004F0CC
:102D200023FC7D201BE000BF02F0E4FD02F052FF17
:102D300040F2DC5004F018FC0120606201202061A8
:102D4000BDEC028B10BD00BF9FED148AB0EE480AA7
:102D500002F0ECFC40F2DC5004F006FC232003F00F
:102D60008FF940F2DC5004F0FFFB02F0C3FD02F0EB
:102D700031FF412003F084F940F2DC5004F0F4FB11
:102D8000B0EE480A02F09CFC40F2DC5004F0ECFB90
:102D900001202061BDEC028B10BD00BF9A99193E45
:102DA00072B600BFFEE70000F0B540F24300C2F289
:102DB00000000278437890F802E082F0010183F08D
:102DC000010739438EF0010751EA070C14D10121A4
:102DD000C17001799FED491A01294FF000012AD1F4
:102DE0004479012C27D18479012C24D1C479012C78
:102DF00021D19FED430AF0BDB9EE000A9FED3F1AC5
:102E0000002A4FF0010108BFB0EE401AB8EE040AE4
:102E100008BF0221002BB2FA82F431EE000A0CBF87
:102E2000B0EE401A6109BEF1000F04D1BFEE000AF6
:102E300031EE001A0131BEEE000AC77831EE000A09
:102E4000047945798679002F04BFB0EE401A01312C
:102E5000B6EE000A31EE000A002C04BFB0EE401AB4
:102E60000131B7EE000A1A4331EE000A42EA0E02BF
:102E7000002D04BFB0EE401A0131B0EE040A3A430F
:102E800031EE000A002E04BFB0EE401A0131C079C5
:102E9000B1EE002A42EA040331EE020A2B43002875
:102EA00004BFB0EE401A013133439FED150A0343CE
:102EB00022D0002A08BF012D1AD044EA050333436B
:102EC0001843BCFA8CF2B0FA80F052094009024271
:102ED00018BFF0BD00EE101AB8EEC00A81EE000A6D
:102EE000B6EE0C1A30EE020A20EE010AF0BD00BF69
:102EF000012EE2D10128E0D1F0BD00BF00000000AA
:102F000033337340B0B5044600F0E6F8054640F2AE
:102F10000800C2F200000078611C18BF044400BF22
:102F200000F0DAF8401BA042FAD3B0BD2DE9F04F13
:102F300082B000F13E4707F1FF77860546EA972702
:102F400041F60046C4F20206082243F6004EB042A3
:102F500008BF0722C4F2010E072F38BF3A460026E9
:102F600000274FF00008009209E000BF08F10108B7
:102F70000237B8F1100F06F1040600F0A3800D68C7
:102F8000012202FA08F415EA0409EFD0D1F804B0DE
:102F900003220BF0030CACF10105BA40012D6FEADE
:102FA000020A0FD88268CD6802EA0A02BD402A43AD
:102FB00082604268A243CBF3001404FA08F422436F
:102FC000426005E0BCF1030F02D14FF0030C1EE09C
:102FD000C2688C6802EA0A02BC402243BCF1020FBC
:102FE000C26014D16FF0030202EA58020244D2F820
:102FF00020C006F01C040F230D69A3402CEA030334
:10300000A5402B431362D1F804B00BF0030C026807
:103010000CFA07F302EA0A021A431BF4403F02606B
:10302000A4D0002243F644030192C4F202031A68BA
:103030004FF6084C42F480421A601A68CFF6FF7CC3
:1030400002F480420192019A28F00302724452F87D
:103050000C3006F00C050F24AC40A343009C04FA8E
:1030600005F52B4342F80C30DEF808204B6842EAA5
:10307000090543F60C4CDC0258BF22EA0905CEF8DC
:103080000850C4F2010CDCF800209C0242EA090559
:1030900058BF22EA0905CCF80050DEF804209C0352
:1030A00042EA090558BF22EA0905CEF80450DEF8C5
:1030B0000020DB0342EA090558BF22EA0905CEF8E1
:1030C000005053E702B0BDE8F08F0000002A08BFAF
:1030D000090481617047000044F27C20C2F20000C4
:1030E00000687047002804BF01207047F0B581B028
:1030F000044690F83D0028B9002084F83C002046A2
:1031000000F0CEF9242084F83D002068016821F009
:1031100001010160016841F400410160016821F48E
:103120000041016000F0D4FB636848F2A16CC0F27A
:10313000010C40F60011C0F23D0163453CBF48F26E
:103140008041C0F21E01884202D2012001B0F0BDD0
:103150004DF68361C4F21B31A0FB01122168970C6C
:10316000D1F804E04FF496762EF03F0545EA9245FB
:103170004D60774348F638160D6AC0F24106A7FB4A
:10318000067625F03F07634538BF960C721C3A431C
:103190000A62CA6948F2A0664CF6FF77C0F20106DF
:1031A000B34222EA07020BD801385B00B0FBF3F010
:1031B00001306FF31F30042898BF04201BE000BFCC
:1031C000A768013857B119277B43B0FBF3F00130F2
:1031D0006FF31F3070B100F5804007E003EB43034D
:1031E000B0FBF3F001306FF31F3018B100F5004071
:1031F00001E000BF01201043C8610868D4E907233B
:1032000020F0C000104318430860886848F2FF327D
:1032100004F10C0790438CCF18431043A6698860D3
:10322000C86820F0FF0038433043C860086840F0A9
:103230000100086000202021206484F83D102063F4
:1032400084F83E0001B0F0BD2DE9F04784B0994606
:1032500016460F460446FFF73FFF94F83D1020291D
:1032600027D10546206800BF816989071CD5FFF773
:1032700033FF411B20681A29F6D381698907F3D5EA
:1032800000202021206384F83D1084F83E00206C4B
:1032900004F13C0A40F020002064022000218AF85A
:1032A000001004B0BDE8F087A2461AF83C1F0129BF
:1032B00004D1022004B0BDE8F08700BF01228AF8E3
:1032C00000200368DDE90D180C9ADB0703D10368C1
:1032D00043F001030360036823F4006303602220CA
:1032E00084F83D00402084F83E00002020646262A3
:1032F0006185608D394620850020CFF6FF70E06241
:10330000204632464B46CDE9008501F01BFB18B143
:10331000012004B0BDE8F087208DA8B102282BD091
:10332000012835D121680A6822F480620A600022EF
:1033300003924A6903928A690392039A0A6842F4E3
:1033400000720A602CE000BF0020039020684169F1
:103350000391816903910399016841F4007101604F
:10336000202084F83D00002084F83E0000218AF8E7
:10337000001004B0BDE8F08721680A6822F480627A
:103380000A600A6842F400620A600022039202E0C6
:103390000021039121684A69039289690391039985
:1033A0000427C0F201070CE010690870606A218DE3
:1033B00001306062481E2085618D013961850104FC
:1033C000CED080B203280FD802284AD001282DD1B0
:1033D000204641462A4601F091FC002898D12068F9
:1033E000616A0069E1E700BF204641462A4601F0D4
:1033F00085FC00287FF48CAF2068616A0069087042
:10340000606A2268411C208D616201382085638DCD
:10341000013B638553695B07D1D580B20328C3D1D3
:10342000106820F480601060BEE700BF2046394677
:1034300000224346009501F00FFB00287FF468AF9F
:103440002068616A026822F4806202600069087084
:10345000606A218D01306062481E2085608D0138D0
:1034600060852046394600224346009501F0F4FA73
:1034700000287FF44DAF2068616A026842F4007250
:10348000026000690870606A2268411C6162218DD7
:1034900001392185618D013961851169417085E7A7
:1034A0002DE9F04786B0006845F60041C4F20001FE
:1034B00000268842CDE90466CDE9026601962FD048
:1034C00045F60001C4F2000188426ED1002543F6A2
:1034D00030040095C4F20204206801A940F0020003
:1034E0002060206800F00200009000984FF44060D7
:1034F00001901220CDE902050320049004200590DC
:103500000020C4F2020000F58060FFF70FFD009577
:10351000206940F480002061206900F4800042E0CE
:1035200043F630070096C4F202073868002440F0E2
:10353000040038603868C4F2020400F0040000900F
:1035400000980096386801AD40F001003860386896
:103550004FF0120800F00100009000984FF4007046
:1035600001904FF003094FF0040A04F5006029466A
:10357000CDE90286CDF81090CDF814A0FFF7D6FC67
:103580004FF48070CDE9010803A880E8400620468A
:103590002946FFF7CBFC0096386940F400003861FB
:1035A000386900F400000090009806B0BDE8F0878C
:1035B00040F2080044F27C21C2F20000C2F2000195
:1035C00000780A68104408607047000080B543F630
:1035D0000040C4F20200016841F40071016001681A
:1035E00041F480610160016841F480710160032051
:1035F00000F0ACF80F2000F005F800F027F80020EC
:1036000080BD000070B540F20806C2F2000640F22C
:1036100014013278C2F200014FF47A730968B3FBE7
:10362000F2F20446B1FBF2F1084600F087FB0F2CE2
:103630004FF0010508D838B94FF0FF30214600227D
:10364000002500F057F87460284670BD80B582B040
:10365000002043F640010190C4F202014A6842F49E
:1036600080424A604A6802F480420192019A0090C6
:103670000868002240F0805008600868012100F0CE
:103680008050009000986FF00B0000F033F86FF05E
:103690000A000121002200F02DF86FF0090001213D
:1036A000002200F027F86FF004000121002200F052
:1036B00021F86FF003000121002200F01BF86FF0E9
:1036C00001000F21002202B0BDE8804000F012B8D6
:1036D000002848BF704700F01F01012202FA01F1E3
:1036E0001C2202EAD0004EF20012CEF200028150FB
:1036F0007047000010B54EF60C5CCEF2000CDCF802
:103700000030C3F3022E8EF00704042C28BF0424DB
:10371000BEF103034FF0FF3E0EFA04F438BF00235E
:10372000A14399400EFA03F39A43114300F00F02AC
:1037300000F160430901043A03F564436244002840
:1037400048BF02F10C03197010BD00004EF60C5179
:10375000CEF200010A684FF6FF031A4060F30A2216
:1037600042F0806040F0FD7008607047002804BFA0
:10377000012070472DE9F04143F60808C4F2020821
:103780000446D8F8F8030D4600F00700884207D237
:1037900088F8F853D8F8F80300F00700A84277D16A
:1037A0002068810717D5410705D5D8F8001041F4E6
:1037B000E051C8F80010010705D5D8F8001041F411
:1037C0006041C8F80010D8F80010A26821F0F0019C
:1037D0001143C8F80010C00740D1D8F8F80300F032
:1037E0000700A84207D988F8F853D8F8F80300F082
:1037F0000700A8424CD12068410707D5D8F800102F
:10380000E26821F4E0511143C8F80010000708D520
:10381000D8F80000216920F4604040EAC100C8F8EF
:10382000000000F07DF8D8F8001047F68052C1F390
:103830000311C0F60002515C40F2140220FA01F1BB
:1038400040F20C00C2F200000068C2F200021160F7
:10385000FFF7D8FE0020BDE8F08100BF6068811E40
:10386000022907D258F8081C89015CBF0120BDE875
:10387000F08111E0012807D158F8081C89035CBFCA
:103880000120BDE8F08107E058F8081C890703D43F
:103890000120BDE8F08100BFD8F8001021F003013D
:1038A0000843C8F80000FFF717FC064641F28837C6
:1038B000D8F80000616800F00C00B0EB810F8CD0EC
:1038C000FFF70AFC801BB842F2D90320BDE8F08163
:1038D00040F2140043F60801C2F20000C4F20201F3
:1038E0000068096847F69052C1F38221C0F60002D1
:1038F000515CC8407047000040F2140043F60801D4
:10390000C2F20000C4F202010068096847F6905252
:10391000C1F34231C0F60002515CC840704700005C
:1039200010B543F60404C4F20204606800F00C0011
:1039300008280BD0042819BF42F20040C0F2F4005E
:1039400047F64000C0F27D1010BD00BF206821681E
:103950002368490247F64001C0F27D1100F03F02A2
:10396000C3F388105CBF42F20041C0F2F401A1FB36
:1039700000010023FCF724FC21680222C1F301416D
:1039800002EB4101B0FBF1F010BD0000002804BFC4
:10399000012070472DE9F04182B00446007843F6DB
:1039A0000006C007C4F202060CD0B06800F00C009C
:1039B000042840F081803068800303D560680028C7
:1039C00000F06A81207880071BD5B06810F00C0FDA
:1039D00009D0B06800F00C00082840F087807068BB
:1039E000400200F183803068800703D5E068012839
:1039F00040F052813068216920F0F80040EAC100AF
:103A000030602078000713D4207840072AD4A569B5
:103A1000002D00F03C81B06800F00C00082840F058
:103A2000A180012D40F01081012002B0BDE8F0819D
:103A30006069002840F20000C4F2472000F07E8058
:103A40000121C0F8801EFFF747FB0546706F800715
:103A5000DAD4FFF741FB401B0228F7D9032002B05C
:103A6000BDE8F081306C5FEAC0080AD40020019004
:103A7000306C40F080503064306C00F08050019029
:103A8000019847F20007C4F200073868C00547D420
:103A9000386840F480703860FFF71EFB054600BFB1
:103AA0003868C0053CD4FFF717FB401B0228F7D944
:103AB000032002B0BDE8F081B06800F00C000828D7
:103AC00003D1706840023FF576AF6068B0F5803F83
:103AD00007D0B0F5A02F40F09B80306840F48020E4
:103AE0003060306840F4803030609BE0E06800284F
:103AF0005CD00020C4F2472001210160FFF7ECFAFE
:103B0000054600BF306880073FF574AFFFF7E4FA61
:103B1000401B0228F6D9032002B0BDE8F08100BFA7
:103B2000A068012805D0052854D1306F40F004006A
:103B30003067306F40F00100306755E00021C0F879
:103B4000801EFFF7C9FA0546706F80077FF55CAFEE
:103B5000FFF7C2FA401B0228F6D9032002B0BDE8E5
:103B6000F08100BF0027C4F2472700203866FFF726
:103B7000B3FA022D05460DD13068800140F19080E6
:103B8000FFF7AAFA401B02284FF00300F4D902B055
:103B9000BDE8F0813068800179D5FFF79DFA401BC0
:103BA00002284FF00300F5D9F1E700BF0020C4F26E
:103BB000472000210160FFF78FFA05463068800733
:103BC0007FF51FAFFFF788FA401B02284FF0030074
:103BD000F4D9DCE7316F002821F001013167316F42
:103BE00021F0040131677DD0FFF776FA054641F2F6
:103BF000883700BF306F800700F18680FFF76CFACE
:103C0000401BB842F6D9032002B0BDE8F08100BFE6
:103C10003168002821F480313160316821F480213D
:103C200031607BD0FFF758FA054600BF306880034B
:103C30003FF5C8AEFFF750FA401B6428F6D90320C1
:103C400002B0BDE8F08100BF7068E16900F4800255
:103C50008A4221D1216A00F03F028A421CD147F6F4
:103C6000C071626A0140B1EB821F15D1A16A4FF6A3
:103C7000FF73C903994300F44032A1F580318A42B1
:103C80000AD1E16A00F07060B0EB016F04D100204E
:103C900002B0BDE8F08100BF012002B0BDE8F081B4
:103CA00004F11C052FCD084340EA8210D9034FF6DA
:103CB000FF729143A1F5803140EA056008437060CE
:103CC00001203866FFF708FA044600BF306880011B
:103CD000DDD4FFF701FA001B02284FF00300F5D9ED
:103CE00055E700BFFFF7F8F9054641F2883700BFF6
:103CF000306F800708D5FFF7EFF9401BB8424FF04F
:103D00000300F5D943E700BFB8F1000F3FF57FAEE0
:103D1000306C20F08050306479E600BFFFF7DCF9AA
:103D2000054600BF306880037FF54CAEFFF7D4F93D
:103D3000401B64284FF00300F4D928E7411E0020FF
:103D4000B0EB116F1CBF012070474EF21002CEF293
:103D5000000251604EF62351CEF20001F0230B70A9
:103D600007219060116070477047000070470000A5
:103D700090F83C20012A4FF0020254D010B580F890
:103D80003D200268D2F804E0D2F808C00C682EF09A
:103D90007003234341F2FF74C4F20004A242536053
:103DA0000EDC40F2FF73C4F200039A4216DCB2F15B
:103DB000804F2BD040F20043C4F2000324E000BF48
:103DC00040F2FF33C4F201039A4213DC41F60003D0
:103DD000C4F200039A4219D0002313E040F6000316
:103DE000C4F200039A4211D040F60043C4F200032B
:103DF0000AE000BF44F20003C4F201039A4205D076
:103E000040F20043C4F201039A4204D149682CF005
:103E10008003194391600121002280F83D1080F851
:103E20003C20BDE81040104670470000002804BF49
:103E30000120704710B5044690F83D0028B90020D5
:103E400084F83C00204600F01FF8022084F83D0072
:103E50002068211D01F0D6FF012084F8460084F877
:103E60003E0084F83F0084F8400084F8410084F864
:103E7000420084F8430084F8440084F8450084F844
:103E80003D00002010BD000080B582B0006800F148
:103E90004041800540EA9120042858D8DFE800F02E
:103EA0000412203A480000BF0020019043F6400071
:103EB000C4F20200016841F001010160006800F0F5
:103EC000010042E00020019043F64000C4F20200ED
:103ED000016841F002010160006800F0020034E076
:103EE0000020019043F64000C4F202000168002265
:103EF00041F0040101600068052100F00400019018
:103F000001981E20FFF7F6FB1E2002B0BDE880409E
:103F1000FFF7DEBB0020019043F64000C4F2020030
:103F2000016841F008010160006800F008000CE041
:103F30000020019043F64000C4F20200016841F005
:103F400010010160006800F010000190019802B0BB
:103F500080BD000090F83D1001291CBF0120704772
:103F6000022180F83D10006841F2FF72C168C4F27E
:103F70000002904241F00101C1600DDC40F2FF718E
:103F8000C4F20001884215DCB0F1804F2AD040F223
:103F90000041C4F2000123E040F2FF31C4F201010C
:103FA000884213DC41F60001C4F20001884219D0B6
:103FB000002113E040F60001C4F20001884211D054
:103FC00040F60041C4F200010AE000BF44F20001E3
:103FD000C4F20101884205D040F20041C4F201015F
:103FE000884206D1816801F00701062904BF00203C
:103FF0007047016841F00101016000207047000036
:1040000090F83C20012A4FF0020200F0C58080B5F4
:1040100080F83D20D0F800C04FF67772DCF8083009
:1040200023EA0202CCF808200B684F2B28DC1F2B58
:1040300044DD202B45D0302B43D0402B40F0AE80C8
:10404000D1F804E0C968DCF82030DCF8202022F048
:104050000102CCF82020DCF8182022F0F00242EA1D
:10406000011123F00A0242EA0E02CCF81810CCF833
:104070002020DCF8081041F0470121F0300180E0F9
:104080006F2B27DDB3F5005F48D0B3F5805F7AD0A2
:10409000702B40F08380D1E901E3C968DCF8082087
:1040A00043EA0E0322F47F4243EA01211143CCF894
:1040B0000810DCF8081041F0770162E00BB1102B1A
:1040C0006CD1DCF8081021F07001194341F00701B0
:1040D00057E000BF502B35D0602B5FD1D1F804E002
:1040E000C968DCF82030DCF8202022F01002CCF87F
:1040F0002020DCF8182022F4704242EA013123F03B
:10410000A00242EA0E12CCF81810CCF82020DCF8FD
:10411000081041F0670121F0100132E0D1E901E31C
:10412000C968DCF8082043EA0E0322F47F4243EA20
:1041300001211143CCF80810DCF8081041F480414B
:104140001FE000BFD1F804E0C968DCF82030DCF8DB
:10415000202022F00102CCF82020DCF8182022F0E8
:10416000F00242EA011123F00A0242EA0E02CCF800
:104170001810CCF82020DCF8081041F0570121F08D
:104180002001CCF808100022012180F83D10002108
:1041900080F83C10BDE88040104670470122F3E7EC
:1041A0007047000070B504460068C5680669B1072D
:1041B00016D515F0020113D06FF002010161012143
:1041C00021778069800703D02046FFF7E9FF05E0EB
:1041D000204600F08FF8204600F0D0F9002020772C
:1041E000700719D515F0040016D020686FF004018F
:1041F000016102212177806910F4407F04D02046BC
:10420000FFF7CEFF06E000BF204600F073F820461F
:1042100000F0B4F900202077300717D515F008001A
:1042200014D020686FF00801016104212177C06972
:10423000800703D02046FFF7B3FF05E0204600F0DB
:1042400059F8204600F09AF900202077F00619D599
:1042500015F0100016D020686FF0100101610821E0
:104260002177C06910F4407F04D02046FFF798FF03
:1042700006E000BF204600F03DF8204600F07EF941
:1042800000202077F00718BF15F0010002D130069A
:1042900009D412E020686FF001010161204600F0AE
:1042A000FFF9300609D515F0800006D020686FF0C0
:1042B000800101612046FFF757FD700609D515F012
:1042C000400006D020686FF040010161204600F0F8
:1042D000E9F9B00658BF70BD15F0200008D021687C
:1042E0006FF0200220460A61BDE87040FFF73EBD36
:1042F00070BD00007047000090F83C30012B04BFF7
:10430000022070474FEAB202032A00F201812DE930
:10431000F043DFE802F0033F7FBF00BF036840F2D5
:1043200000461C6A1A6A24F0020422F001021A6292
:104330001A46D3F804C052F818EF8F6843F480652A
:10434000C4F20106B54244EA070405D1CF6824F05F
:104350000C0427F004073C430F68B54206D1D1E9AD
:1043600005582CF440762E4346EA080C2EF07306CE
:104370003743C3F804C09F614F6809695F631C62DB
:104380009F6947F008079F619F6927F004079F61B5
:10439000B2E000BF036840F200481C6A1A6A24F0C9
:1043A000200422F010021A621A46D3F804C052F810
:1043B00018EF8F6843F48065C4F20108454544EA6C
:1043C000071407D1CF686FF0400624F0C00406EA56
:1043D00007163443D1F80090454506D1D1E905567A
:1043E0002CF440672E4347EA860C2EF4E64747EA52
:1043F0000927C3F804C09F614F6809699F631C6265
:104400009F6947F400679F619F6927F480679F61F8
:1044100071E000BF036840F200481C6A1A6A24F485
:10442000007422F480721A621A46D3F804C052F85B
:104430001CEF8F6843F48065C4F20108454544EAE7
:10444000072408D1CF6840F2FF463F0224F44064BD
:1044500027EA06063443D1F80090454506D1D1E954
:1044600005562CF440572E4347EA061C2EF07307DE
:1044700047EA0907C3F804C0DF614F680969DF63D1
:104480001C62DF6947F00807DF61DF6927F0040776
:10449000DF6131E0036840F20045D3F820C01A6ABA
:1044A00043F4806722F480521A621A465C6852F81C
:1044B0001CEFD1F800808E68C4F20105AF4204D130
:1044C0004D6924F4804444EA85142CF4005747EAEB
:1044D00006372EF4E64646EA08265C60DE614E6842
:1044E00009691E641F62DF6947F40067DF61DF69E5
:1044F00027F48067DF610902136819431160002106
:10450000BDE8F043002280F83C200846704700BF19
:104510000121002280F83C2008467047002804BF93
:104520000120704710B5044690F83D0028B90020DE
:1045300084F83C00204600F01FF8022084F83D007B
:104540002068211D01F05EFC012084F8460084F8FB
:104550003E0084F83F0084F8400084F8410084F86D
:10456000420084F8430084F8440084F8450084F84D
:104570003D00002010BD00007047000070470000A3
:1045800041B1082910D0042914BF00F1410200F103
:104590003F020BE090F83E20012A1CBF012070472B
:1045A000022280F83E2013E000F140021278012A36
:1045B0001CBF012070470222082907D0042914BF1C
:1045C00080F8412080F83F2002E000BF80F84020C2
:1045D000006801F01F010122036A02FA01F123EAD7
:1045E00001020262026A114341F2FF72C4F2000248
:1045F0009042016210DC40F2FF71C4F20001884277
:104600001CDCB0F1804F3FD040F20041C4F2000109
:10461000884239D03DE000BF40F2FF31C4F20101D1
:10462000884219DC41F60001C4F2000188422BD017
:104630000021C4F2010188421AD02AE040F60001AC
:10464000C4F2000188421FD040F60041C4F20001CC
:10465000884219D01DE000BF44F20001C4F20101FC
:10466000884211D040F20041C4F20101884210D1C9
:10467000416C40F2004340F48062C4F2010341F413
:1046800000419A42416404D1816801F00701062982
:1046900003D0016841F00101016000207047000073
:1046A0007047000070470000002804BF01207047D9
:1046B00010B5044690F8410028B9002084F8400065
:1046C000204600F021F8242084F841002068C168C9
:1046D00021F40051C160204601F036FC20680169D8
:1046E00021F490410161416921F02A014161C168D1
:1046F00041F40051C16000202021606484F8411021
:1047000084F84210606310BD80B586B0006844F242
:104710000042C4F2000200219042CDE90411CDE92B
:104720000211019124D041F20001C4F2010188423A
:1047300048D1002043F630010090C4F202014A69DA
:1047400042F010024A614A6902F010020092009A97
:104750000090086840F00100086008684FF4C061EC
:1047600000F00100009000980020C4F202001DE05B
:1047700043F630000091C4F20200026942F40032B4
:104780000261026902F400320092009A009101680D
:1047900041F0080101600068602100F0080000900D
:1047A00000980020C4F2020000F54060019102214F
:1047B000029100210391032104910721059101A990
:1047C000FEF7B4FB06B080BD2DE9F041044690F839
:1047D000410020281CBF0220BDE8F0810D460029C1
:1047E0004FF0010000F0AA801646002A08BFBDE87D
:1047F000F081002060642120984684F84100FEF793
:104800006BFCA684E684A1680646B1F5805F02D100
:104810002069002862D02F460025E08C002861D056
:1048200018F1010018D0B8F1000F37D1216808E065
:1048300017F8010B4860E08C0138E084E08C002818
:1048400051D00868000673D5002FF1D135F8020B5E
:1048500000276FF35F20EDE7216802E0086800069B
:1048600009D40868000606D4086800065CBF08681A
:104870005FEA0060F2D51FB117F8010B05E000BF39
:1048800035F8020B00276FF35F204860E08C013899
:10489000E084E08C0028E4D125E000BF216800BF5F
:1048A0000868000608D4FEF717FC801B404541D875
:1048B0002168C868F4E700BF17B117F8010B04E0DE
:1048C00035F8020B00276FF35F204860E08C013859
:1048D000E084E08C0028E3D105E000BF0027E08CF5
:1048E00000289DD12168086840061FD4B8F1000F48
:1048F0001ED018F101000FD10868400616D40868D0
:10490000400613D40868400610D4086840064FF0EB
:104910000000F1D50FE000BFFEF7DEFB801B404535
:1049200008D82068C16800684006F5D5002002E07C
:10493000FEF7D2FB0320202184F84110BDE8F0816E
:10494000FEE700002DE9F04782B0044600689A4671
:104950000B9D0A9E0368914643F4806202600268E0
:104960000F4642F48071016020464FF00111002291
:104970003346009500F070F850B120680068C0051B
:1049800044BF4FF400702064032002B0BDE8F087FC
:1049900040F202082068C0F2010807F0FE07076134
:1049A0002046414632462B4600F03CF920B101201A
:1049B00002B0BDE8F08700BF0020019020682A46C1
:1049C000416901918069314601900198204600F0CB
:1049D000DDF9B0B92068BAF1010F09D04FEA192109
:1049E0000161204631462A4600F0D0F948B92068D6
:1049F0005FFA89F10161204631462A4600F0C6F986
:104A000060B1206C0428D2D12068016841F40071A3
:104A10000160012002B0BDE8F08700BF20680022DD
:104A20000168334641F48071016020464FF0011166
:104A3000009500F011F800289FD147F0010C27687D
:104A40002046414632462B46C7F810C002B0BDE8AA
:104A5000F04700F0E7B800002DE9F0410546006896
:104A60001E46144601F47F0201338FB242D0DDF8B6
:104A70001880B2F5803F40F0878040693840C01B05
:104A8000B0FA80F04009A04240F0C8804EB924E05E
:104A900040693840C01BB0FA80F04009A04240F0A5
:104AA000BD80FEF719FBA0EB08012868B142EFD9E1
:104AB00041693940C91BB1FA81F14909A142E7D1E5
:104AC0009BE000BF40693840C01BB0FA80F040094D
:104AD000A0424FF0000040F0A280FEF7FDFA2868E7
:104AE00041693940C91BB1FA81F14909A142E9D1B3
:104AF00083E000BFB2F5803F24D100BF4169394057
:104B0000C91BB1FA81F14909A14240F0878041698E
:104B10003940C91BB1FA81F14909A14240F07E80B8
:104B200041693940C91BB1FA81F14909A14275D1E6
:104B300041693940C91BB1FA81F14909A142DDD06F
:104B40006CE000BF81693940C91BB1FA81F14909A4
:104B5000A14263D181693940C91BB1FA81F1490988
:104B6000A1425BD181693940C91BB1FA81F1490980
:104B7000A14253D181693940C91BB1FA81F1490978
:104B8000A142DFD04AE000BF80693840C01BB0FAC4
:104B900080F04009A04241D146B923E08069384005
:104BA000C01BB0FA80F04009A04237D1FEF794FA5A
:104BB000A0EB08012868B142F0D981693940C91BCE
:104BC000B1FA81F14909A142E8D116E08069384083
:104BD000C01BB0FA80F04009A0424FF0000018BF9F
:104BE000BDE8F081FEF778FA286881693940C91B71
:104BF000B1FA81F14909A142E8D1002020212863BE
:104C000085F83D1085F83E00296C41F020012964AB
:104C100085F83C000120BDE8F08100BF0020BDE820
:104C2000F0810000F0B581B0044600681D4643697C
:104C30008FB203EA0701B94202D1002001B0F0BDF2
:104C40004169164601323FD049053FD4CEB100BF7D
:104C5000FEF742FA411B2068B14203D9416939404D
:104C6000B94215D141693940B942E6D04169490597
:104C7000EED52BE041693940B942DED041694905A2
:104C800024D4FEF729FA206841693940B942F1D0AD
:104C9000202023E041693940B942CED0416949051D
:104CA00014D441693940B942C7D0416949050DD48E
:104CB00041693940B942C0D04169490506D44169CA
:104CC0003940B942B9D041694905E3D5016841F499
:104CD000007101606FF48061416104200021202295
:104CE000216384F83D2084F83E10226C1043206438
:104CF00084F83C10012001B0F0BD000070B50446FE
:104D00000068154650F8143F5A063DD40E4629B99E
:104D100026E000BF50F8141F490635D40168C906C3
:104D200021D4FEF7D9F9411B2068B142F2D941697B
:104D30004906EFD400202021206384F83D1084F838
:104D40003E00206C40F0200018E000BFFEF7C4F9E0
:104D5000206850F8141F4906ECD50168490613D4A1
:104D60000168C906F2D56FF0100101600020202112
:104D7000206384F83D1084F83E00206C20640020FD
:104D800084F83C00012070BD002070BD70B5036840
:104D9000044653F8140F000611D40E46481C29D0BF
:104DA00086BB00BF1868400527D4FEF795F9236835
:104DB00053F8140F000637D518680006F2D5002006
:104DC00070BD00BF18680006F9D41868400514D4F7
:104DD00018680006F3D4186840050ED41868000659
:104DE000EDD41868400508D4186800064FF000009C
:104DF00048BF70BD18684005E4D56FF48060186046
:104E0000042012E0154603E053F8140F0006D6D430
:104E100018684005F1D4FEF75FF9401B2368B042E3
:104E2000F2D958690006EFD4202000212022216306
:104E300084F83D2084F83E10226C10432064012049
:104E400084F83C1070BD000080B52DED048B40F25D
:104E50004B00C2F2000001789FED3E8A012953D138
:104E60004178012950D1817801294DD1C17801299A
:104E70004AD10179012947D14179012944D1817968
:104E8000012941D1C079B0EE489A01283ED1FDF701
:104E90008BFF9FED311AB0EE408AB4EE410AF1EE7D
:104EA00010FA21D19FED2D9A40F24020C2F200006D
:104EB000B0EE490A02F0B0F940F29820C2F20000C8
:104EC000B0EE490A02F0A8F940F2F020C2F2000068
:104ED000B0EE490A02F0A0F940F2E810C2F2000078
:104EE000B0EE490A02F098F99FED1D0A9FED1D1AD8
:104EF00038EE000A9FED1C2A20EE010A30EE029ADD
:104F000032EE408A02E000BFB0EE489A40F2402004
:104F1000C2F20000B0EE480A02F07EF940F298209A
:104F2000C2F20000B0EE490A02F076F940F2F02039
:104F3000C2F20000B0EE480A02F06EF940F2E8104A
:104F4000C2F20000B0EE490ABDEC048BBDE880401F
:104F500002F062B93333B33E333373409A99993ECA
:104F6000333373C0CDCC4C3DCDCCCC3E80B588B076
:104F70000B4802AF01900AA000F1040E9EE80E500B
:104F8000806987E80E50079001A8002101F0E8FD34
:104F900040F24831C2F20001086008B080BD00BF95
:104FA000987D0008E95B0008000000000000000098
:104FB00080000000000000000000000070B586B016
:104FC000002543F6300005950095C4F20200016803
:104FD00040F6000441F0800101600168C4F202045F
:104FE00001F080010091009900950168002241F0D4
:104FF000010101600168C02601F0010100910099E2
:105000000095016841F002010160016801F00201B0
:10501000009100990095016841F004010160016868
:1050200001F00401009100990095016841F0080128
:1050300001600068C02100F0080000900098204640
:10504000FEF744F80120CDE9020501A920460196AA
:105050000495FDF76BFF06B070BD000080B540F20F
:105060004C3045F60001C2F20000C4F200010023FA
:105070004FF4804C42F2107280E80E00C0E9033C0D
:10508000C0E90533C0E90733FEF72CF8002808BF54
:1050900080BDBDE88040FDF783BE000080B540F2D2
:1050A000A03045F60041C2F20000C4F20001002326
:1050B0004FF4804C42F2107280E80E00C0E9033CCD
:1050C000C0E90533C0E90733FEF70CF8002808BF34
:1050D00080BDBDE88040FDF763BE000010B594B010
:1050E00040F2F4300021C2F200004FF0804253231E
:1050F00044F61F640D91CDE90B110991CDE907111B
:10510000CDE90511CDE90311CDE90111C0E9002375
:10511000C0E9021401618161FEF788FE002818BF12
:10512000FDF73EFE4FF480500A9040F2F430C2F298
:1051300000000AA9FEF764FF002818BFFDF730FE43
:1051400040F2F430C2F20000FFF7E8F9002818BF7F
:10515000FDF726FE40F2F4300024C2F2000008A958
:10516000CDE90844FEF704FE002818BFFDF718FE3D
:105170006020CDE901040394059440F2F434C2F2B6
:10518000000401A920460022FFF7B6F8002818BF46
:10519000FDF706FE206840F60042C4F2000200213E
:1051A00090420F911CD040F20041C4F200018842AD
:1051B00026D0B0F1804F41D100200E9043F6300050
:1051C000C4F20200016841F001010160006800F0D2
:1051D00001000E900E9820200F90012022E000BFC9
:1051E00043F630000E91C4F20200016841F0010163
:1051F0000160006800F001000E900E9801200FE0A1
:1052000000200E9043F63000C4F20200016841F025
:1052100001010160006800F001000E900E9840202E
:105220000F90022002211091002113900020CDE95F
:105230001111C4F202000FA9FDF778FE14B010BDE1
:10524000B0B594B040F2004540F23C40C4F20005D5
:105250000021C2F20000532244F61F630D91CDE9F4
:105260000B110991CDE90711CDE90511CDE9031124
:10527000CDE90111C0E90052C0E902130161816169
:10528000FEF7D4FD002818BFFDF78AFD4FF48050CB
:105290000A9040F23C40C2F200000AA9FEF7B0FEBC
:1052A000002818BFFDF77CFD40F23C40C2F2000030
:1052B000FFF734F9002818BFFDF772FD40F23C40BB
:1052C0000024C2F2000008A9CDE90844FEF750FD11
:1052D000002818BFFDF764FD6020CDE901040394A8
:1052E000059440F23C44C2F2000401A92046002289
:1052F000FFF702F8002818BFFDF752FD206840F6BE
:105300000042C4F20002002190420F9118D0A8423E
:1053100026D0B0F1804F40D100200E9043F63000EF
:10532000C4F20200016841F001010160006800F070
:1053300001000E900E9820200F90012022E000BF67
:1053400043F630000E91C4F20200016841F0010101
:105350000160006800F001000E900E9801200FE03F
:1053600000200E9043F63000C4F20200016841F0C4
:1053700001010160006800F001000E900E984020CD
:105380000F900220022110910021CDE911111390FC
:1053900005F5FE300FA9FDF7C9FD14B0B0BD000042
:1053A00080B586B040F2844040F600020021C2F28F
:1053B0000000C4F2000253230591CDE90311CDE9A9
:1053C0000011C0E90021C0E902130161802181615F
:1053D000FEF72CFD002818BFFDF7E2FC4FF48050CB
:1053E000029040F28440C2F2000002A9FEF708FEDB
:1053F000002818BFFDF7D4FC40F28440C2F2000040
:105400006946FEF7B5FC002818BFFDF7C9FC06B0D9
:1054100080BD0000B0B594B040F6004540F2CC40ED
:10542000C4F200050021C2F20000532244F61F63BB
:105430000D91CDE90B110991CDE90711CDE90511C8
:10544000CDE90311CDE90111C0E90052C0E9021311
:1054500001618161FEF7EAFC002818BFFDF7A0FC9E
:105460004FF480500A9040F2CC40C2F200000AA9EA
:10547000FEF7C6FD002818BFFDF792FC40F2CC40B5
:10548000C2F20000FFF74AF8002818BFFDF788FCB9
:1054900040F2CC400024C2F2000008A9CDE9084443
:1054A000FEF766FC002818BFFDF77AFC6020CDE906
:1054B00001040394059440F2CC44C2F2000401A913
:1054C00020460022FEF718FF002818BFFDF768FCF1
:1054D00020680021A8420F911CD040F20041C4F284
:1054E0000001884226D0B0F1804F40D100200E90BC
:1054F00043F63000C4F20200016841F0010101608E
:10550000006800F001000E900E9820200F900120FE
:1055100022E000BF43F630000E91C4F202000168A1
:1055200041F001010160006800F001000E900E984A
:1055300001200FE000200E9043F63000C4F202007C
:10554000016841F001010160006800F001000E9067
:105550000E9840200F900220022110910021CDE9E9
:105560001111139005F5FA300FA9FDF7DFFC14B007
:10557000B0BD000080B582B040F2145041F200028C
:105580000021C2F20000C4F20002532340F2E73CC3
:10559000CDE90011C0E90023C0E9021C8161FEF7DA
:1055A00045FC002818BFFDF7FBFB40F21450C2F287
:1055B00000006946FEF7DCFB002818BFFDF7F0FB92
:1055C00002B080BD80B540F25C5041F20001C2F2F1
:1055D0000000C4F2010100234FF00C0C4FF4E13243
:1055E00080E80E00C0E90333C0E905C3C361FFF7DB
:1055F0005BF8002808BF80BDBDE88040FDF7D0BB48
:1056000080B540F2A45044F20041C2F20000C4F25E
:10561000000100234FF00C0C4FF4E13280E80E0043
:10562000C0E90333C0E905C3C361FFF73DF80028B3
:1056300008BF80BDBDE88040FDF7B2BBFEE70000BB
:1056400080B52DED068B9FED1B8A9FED1B1A20EE7A
:10565000080A80EE019A9FED19AA40F24020C2F29A
:105660000000B0EE4A0AF0EE490A01F045FD40F2B2
:105670009820C2F20000B0EE480AF0EE490A01F0AC
:105680003BFD40F2F020C2F20000B0EE4A0AF0EE1C
:10569000490A01F031FD40F2E810C2F20000B0EE1C
:1056A000480AF0EE490ABDEC068BBDE8804001F0E7
:1056B00023BD00BFF5DB973E0000B442F5DB97BE8B
:1056C00080B52DED048B9FED189AB0EE408A40F224
:1056D0004020C2F20000B0EE490AF0EE480A01F0A4
:1056E0000BFD40F29820C2F20000B0EE490AF0EE45
:1056F000480A01F001FD40F2F020C2F20000B0EED5
:10570000490AF0EE480A01F0F7FC40F2E810C2F254
:105710000000B0EE490AF0EE480ABDEC048BBDE88B
:10572000804001F0E9BC00BF3333B3BE80B52DED3E
:10573000048B9FED189AB0EE408A40F24020C2F2EE
:105740000000B0EE490AF0EE480A01F0D5FC40F244
:105750009820C2F20000B0EE490AF0EE480A01F0CB
:10576000CBFC40F2F020C2F20000B0EE490AF0EEAD
:10577000480A01F0C1FC40F2E810C2F20000B0EEAD
:10578000490AF0EE480ABDEC048BBDE8804001F008
:10579000B3BC00BF3333B33E80B52DED048B9FED1A
:1057A000199AB0EE408A40F24020C2F20000B0EEFA
:1057B000490AF0EE480A01F09FFC40F29820C2F23C
:1057C0000000B0EE490AF0EE480A01F095FC9FEDAA
:1057D0000E9A40F2F020C2F20000B0EE490AF0EE5C
:1057E000480A01F089FC40F2E810C2F20000B0EE75
:1057F000490AF0EE480ABDEC048BBDE8804001F098
:105800007BBC00BF3333B33E3333B3BE80B52DED25
:10581000048B9FED199AB0EE408A40F24020C2F20C
:105820000000B0EE490AF0EE480A01F065FC40F2D3
:105830009820C2F20000B0EE490AF0EE480A01F0EA
:105840005BFC9FED0E9A40F2F020C2F20000B0EE39
:10585000490AF0EE480A01F04FFC40F2E810C2F2AB
:105860000000B0EE490AF0EE480ABDEC048BBDE83A
:10587000804001F041BC00BF3333B3BE3333B33E8D
:10588000FEE7000000000000000000000000000033
:10589000EFF30980BFF36F8F154B1A681EF0100FDE
:1058A00008BF20ED108A20E9F04F10602DE90900B3
:1058B0004FF0500080F31188BFF34F8FBFF36F8F0D
:1058C00001F010FF4FF0000080F31188BDE80900DF
:1058D00019680868B0E8F04F1EF0100F08BFB0EC70
:1058E000108A80F30988BFF36F8F704700BF00BF35
:1058F000D000002040F2F430C2F2000000684FF403
:10590000FA7141637047000040F2F430C2F20000C7
:10591000006840F6C411416370470000F0B585B0DF
:1059200040F2A0340020C2F20004ADF812004FF49F
:105930007A7501260DF1120720469821DD220123F8
:10594000CDE900760295FDF77FFC781CCDE90006D5
:1059500020469A21DD2201230295FDF775FC9DF872
:1059600012109DF8130040F23C0201F00103C2F254
:105970000002D37100F00103D373C1F3400313722B
:10598000C0F340031374C1F380035372C0F3800368
:105990005374C1F3C0039372C0F3C0039374C1F393
:1059A0000013D372C0F30013D374C1F34013137305
:1059B000C0F340131375C1F380135373C0F3801306
:1059C000C909C00953759173907505B0F0BD000009
:1059D000F0B583B040F23C07C2F2000740F24C340D
:1059E0000326781CC2F200044FF47A75CDE9000654
:1059F00020469021D02201230295FDF725FC381D79
:105A0000CDE9000620469021D12201230295FDF721
:105A10001BFC03B0F0BD000000000000000000000F
:105A2000074B19680868B0E8F04F80F30988BFF3A6
:105A30006F8F4FF0000080F31188704700BF00BFE8
:105A4000D00000202DE9F04740F23C08C2F20008E7
:105A500098F8000040F23D0740F2340640F2EC595D
:105A600040F2300A0228C2F20007C2F20006C2F277
:105A70000009C2F2000A23D17879EF2802D102206E
:105A800016E000BF01244FF4C84500BFFFF7A0FF98
:105A9000012001F069FD01203460C9F80050CAF806
:105AA000004001F061FD7879EF28EFD198F800000F
:105AB00001214FF47A323160C9F80020CAF8001091
:105AC000032823D17879EF2802D1032016E000BF04
:105AD00001244FF4C84500BFFFF77AFF012001F011
