:020000040800F2
:10000000D86C00209D0100084958000809490008E3
:1000100005560008851C0008556000080000000017
:10002000000000000000000000000000E15900088E
:10003000811F00080000000051580008355C0008CE
:10004000B7010008B7010008B7010008B7010008B0
:10005000B7010008B7010008B7010008B7010008A0
:10006000B7010008B7010008B7010008B701000890
:10007000B7010008B7010008B7010008B701000880
:10008000B7010008B7010008B7010008B701000870
:10009000B7010008B7010008B7010008B701000860
:1000A000B7010008B7010008B7010008B701000850
:1000B000B7010008B70100080D5D0008B70100088E
:1000C000B7010008B7010008B7010008B701000830
:1000D000B7010008B7010008B7010008B701000820
:1000E000B7010008B7010008B7010008B701000810
:1000F000B7010008B7010008B7010008B701000800
:10010000B7010008B7010008B7010008B7010008EF
:10011000B7010008B7010008B7010008B7010008DF
:10012000B7010008B7010008B7010008B7010008CF
:10013000B7010008B7010008B7010008B7010008BF
:10014000B7010008B7010008B7010008B7010008AF
:10015000B7010008B7010008B7010008B70100089F
:10016000B7010008B7010008B7010008B70100088F
:10017000B7010008B7010008B7010008000000003F
:10018000B7010008B7010008DFF80CD000F004FA4E
:100190000048004741610008D86C002006488047AD
:1001A00006480047FEE7FEE7FEE7FEE7FEE7FEE75C
:1001B000FEE7FEE7FEE7FEE7F95C000889010008BC
:1001C0002DE9F05F0546002092469B46884606468C
:1001D000814640241BE0284641464746224600F01F
:1001E0006DF953465A46C01A914110D3114618462C
:1001F000224600F054F92D1A67EB01084F462246BB
:100200000120002100F04BF917EB00094E41201EA0
:10021000A4F10104DFDC484631462A464346BDE8E6
:10022000F09F40EA01039B0703D009E008C9121FB1
:1002300008C0042AFAD203E011F8013B00F8013BA0
:10024000521EF9D270472DE9FE4F81EA030404F0F3
:10025000004421F0004100944FF0000B23F00043D4
:1002600050EA01045ED052EA03045BD0C3F30A549F
:10027000C1F30A552C44A4F2F3340194A0FB0254B8
:10028000C1F3130141F48011C3F3130343F480134A
:1002900001FB024400FB034E840A970A44EA81549E
:1002A00047EA8357A4FB076802958D0A05FB07857B
:1002B0004FEA932C04FB0C542705029D4FEA065885
:1002C00047EA1637B5EB08056EEB070C870E920E62
:1002D00047EA811742EA8312A7FB0201B6EB0B0142
:1002E00064EB00042B0D43EA0C335E1844EB1C5006
:1002F000DA465146E7FB0201C5F313044FEA0B331C
:1003000043EA14534FEA0432019C43EA0603A4F182
:100310000C040294009CCDE900B400F0EEF803B0A8
:10032000BDE8F08F00200146F9E72DE9F04D81EAA4
:10033000030404F0004B21F0004514464FF0000A7E
:1003400023F0004150EA050220D054EA01021DD0FA
:10035000C5F30A570246C5F31303C1F31300C1F3F3
:100360000A5640F4801543F48013A7EB0608101BCF
:10037000D64608F2FD3873EB050002D308F10108F8
:1003800001E092185B41B8F1000F03DA002001464A
:10039000BDE8F08D00204FF48011064684460EE043
:1003A000171B73EB050705D3121B63EB050306430D
:1003B0004CEA010C49084FEA300092185B4150EAC0
:1003C0000107EDD152EA030012D082EA040083EA69
:1003D0000501084305D0101BAB4106D201220023C2
:1003E00006E000224FF0004302E06FF001025310DC
:1003F0001AEB06004CEB085110EB0A0041EB0B0125
:10040000BDE8F04D00F06AB870B5C1F30A5201F0D2
:1004100000450024C1F3130140F2FF3341F4801181
:100420009A4201DA002070BD40F233439A42A2F2B0
:10043000334203DC524200F041F800E090402C438C
:10044000F1D0404270BDC1F30A5210B5C1F313019F
:1004500040F2FF3341F480119A4201DA002010BDCE
:1004600040F233439A42A2F2334203DC524200F09C
:1004700025F810BD904010BD00F0004230F0004063
:100480000AD0C10D01F56071C0F3160042EA0151B6
:10049000C208400711437047002001467047202AD8
:1004A00004DB203A00FA02F1002070479140C2F1CB
:1004B000200320FA03F3194390407047202A04DBFD
:1004C000203A21FA02F00021704721FA02F3D040CD
:1004D000C2F12002914008431946704710B5141E1E
:1004E00073F1000408DA401C41F1000192185B41ED
:1004F0001A4301D120F0010010BD2DE9F04D9246C4
:100500009B4611B1B1FA81F202E0B0FA80F22032DA
:100510009046FFF7C4FF04460F4640EA0A0041EA4E
:100520000B0153465A46084313D0114653EA0100C3
:1005300019D0C8F140025046FFF7C0FF05460E46ED
:10054000504659464246FFF7AAFF084305D001200E
:1005500004E020463946BDE8F08D0020054346EA18
:10056000E0762C4337430A986305E40AA0EB0800C1
:100570000022FD0A44EA47540A3002D50020014611
:10058000E9E7010510196941DDE9084500196941EC
:10059000BDE8F04DA2E700001CB5094800900948ED
:1005A00001900546009C06E0E06840F0010394E8F5
:1005B000070098471034AC42F6D3FFF7E9FD00007E
:1005C000087F0008287F0008B0B540F25804C2F246
:1005D0000004A06800210228216115D19FED270A9F
:1005E00006F05CFA40F6980006F0AAFF9FED200A9C
:1005F00005F080F84FF4486006F0A2FF0120E060AB
:1006000001202061B0BD00BF9FED190A05F0A8F8D8
:100610004FF4486006F094FF9FED160A06F03EFA8C
:1006200040F6980006F08CFF9FED130A05F062F883
:100630004FF4FA7006F084FF40F24705C2F200055D
:10064000E87820B104F0E4FBE8780028FAD105F05E
:10065000BBFA4FF4FA7006F073FF9FED080A04F03E
:10066000D3FF40F6980006F06BFF01202061B0BD7B
:100670009A99193F00003443CDCCCC3D0000B442E0
:1006800070B540F25804C2F200049FED3F0A00200A
:10069000A568C4E90400E06104F0F6FF40F69800A4
:1006A00006F04EFF9FED390A06F0F8F940F6980083
:1006B00006F046FF6069022D42D1032816D040F2B1
:1006C0004705C2F20005002604F0A2FB28780028A6
:1006D00006BF0121E161E169EA786069002A01BF92
:1006E000012901306061E6610328EDD19FED270A01
:1006F00004F08AFF40F6980006F022FF40F247051A
:10070000C2F20005E87838B104F082FB0A2006F056
:1007100017FFE8780028F7D105F056FA4FF4FA7081
:1007200006F00EFF9FED190A06F0B8F940F69800A2
:1007300006F006FF0120E0600120206170BD00BFCF
:10074000042817D040F24705C2F20005002600BF7A
:1007500004F05EFB2878002806BF0121E161E16911
:10076000EA786069002A01BF012901306061E66111
:100770000428EDD105F028FA40F2DC5006F0E0FE46
:100780000120206170BD00BF9A99993E0000B442DB
:1007900070B52DED028B05F0F3F940F25804C2F26A
:1007A00000049FED6F0A0020A568C4E90400A06161
:1007B000E06106F073F940F6980006F0C1FEA0690A
:1007C000022D7BD101281DDC9FED668A40F23F059A
:1007D000C2F200050DE000BFB0EE480A04F08AFF47
:1007E0004FF4FA7006F0ACFEA0690130A061022857
:1007F00008DA04F00DFB287869780843ECD0A0698A
:100800000228F6DB40F2DC5006F09AFE9FED540A17
:1008100004F0FAFE40F2DC5006F092FE6069052812
:1008200016D040F24705C2F20005002604F0F0FAA7
:100830002878002806BF0121E161E169EA78606952
:10084000002A01BF012901306061E6610528EDD170
:1008500005F0BAF940F2DC5006F072FE9FED400A56
:1008600004F0D2FE40F2DC5006F06AFE9FED3E0A34
:1008700004F040FF4FF47A7006F062FE40F2470544
:10088000C2F20005E87820B104F0C2FAE878002846
:10089000FAD105F099F940F2DC5006F051FE9FEDD7
:1008A000300A06F0FBF840F2DC5006F049FE012069
:1008B000E06001202061BDEC028B70BD01281DDCD1
:1008C0009FED288A40F23F05C2F200050DE000BF0F
:1008D000B0EE480A04F00EFF4FF4FA7006F030FE56
:1008E000A0690130A061022808DA04F091FA2878A2
:1008F00069780843ECD0A0690228F6DB4FF4FA606F
:1009000006F01EFE9FED160A04F07EFE40F2DC505B
:1009100006F016FE6069062816D040F24705C2F2BE
:100920000005002604F074FA2878002806BF01218B
:10093000E161E169EA786069002A01BF01290130BB
:100940006061E6610628EDD105F03EF940F2DC5029
:1009500006F0F6FD01202061BDEC028B70BD00BFEA
:100960000000B442B81E053ECDCCCC3DF0B581B000
:1009700040F258049FED330AC2F200040025C4E996
:100980000455E56106F08AF840F2DC5006F0D8FD27
:100990006069012820DC40F23F0640F24707C2F2BE
:1009A0000006C2F200070BE00121E161FA786069FC
:1009B000002A01BF012901306061E56102280BDADC
:1009C00004F026FAB079F1790843EDD030787178E7
:1009D0000843E9D0E169E9E705F0F6F84FF4FA7069
:1009E00006F0AEFDA068022828D19FED160A04F09B
:1009F0000BFE40F6980006F0A3FD9FED130A04F0ED
:100A000079FE4FF4FA7006F09BFD40F24705C2F202
:100A10000005E87840B100BF04F0FAF90A2006F0BA
:100A20008FFDE8780028F7D19FED060A06F036F82A
:100A300040F6980006F084FD01202062012020612C
:100A400001B0F0BD0000B442CDCCCC3D70B52DED71
:100A5000028B40F25804C2F200049FED4F0A0020BE
:100A6000A568C4E90400E06104F00EFE40F69800B9
:100A700006F066FD9FED490A06F010F840F6980072
:100A800006F05EFD6069022D58D1032816D040F2B1
:100A90004705C2F20005002604F0BAF928780028BC
:100AA00006BF0121E161E169EA786069002A01BFBE
:100AB000012901306061E6610328EDD105F084F879
:100AC00040F2DC5006F03CFD9FED340A04F09CFD42
:100AD00040F2DC5006F034FD9FED328A40F23F05D3
:100AE0000020C2F20005A0610DE000BFB0EE480A90
:100AF00004F000FE4FF4FA7006F022FDA069013008
:100B0000A061022808DA04F083F92878697808439C
:100B1000ECD0A0690228F6DB05F056F840F2DC5074
:100B200006F00EFD9FED1D0A05F0B8FF4FF4FA60C8
:100B300006F006FD01202062206123E0042817D082
:100B400040F24705C2F20005002600BF04F060F93C
:100B50002878002806BF0121E161E169EA7860692F
:100B6000002A01BF012901306061E6610428EDD14E
:100B700005F02AF840F2DC5006F0E2FC9FED080A8E
:100B800004F028FE40F6B83006F0DAFC01202061BF
:100B9000BDEC028B70BD00BF9A99993E0000B44233
:100BA0006666663FB81E053E70B52DED028B04F0FB
:100BB000E7FF40F25804C2F200049FED780A0020DB
:100BC000A568C4E90400A061E06105F067FF40F694
:100BD000980006F0B5FCA069022D40F08580012840
:100BE0001CDC9FED6F8A40F23F05C2F200050CE06D
:100BF000B0EE480A04F07EFD4FF4FA7006F0A0FC57
:100C0000A0690130A061022808DA04F001F928780F
:100C100069780843ECD0A0690228F6DB40F2DC508A
:100C200006F08EFC9FED5D0A04F0EEFC40F2DC5015
:100C300006F086FC6069052816D040F24705C2F22E
:100C40000005002604F0E4F82878002806BF0121FA
:100C5000E161E169EA786069002A01BF0129013098
:100C60006061E6610528EDD104F0AEFF40F2DC5092
:100C700006F066FC9FED490A04F0C6FC40F2DC5029
:100C800006F05EFC9FED468A40F23F050020C2F26E
:100C90000005A0610DE000BFB0EE480A04F02AFD97
:100CA0004FF4FA7006F04CFCA0690130A0610228F4
:100CB00008DA04F0ADF8287869780843ECD0A06928
:100CC0000228F6DB04F080FF40F2DC5006F038FC2E
:100CD0009FED320A05F0E2FE4FF4FA6006F030FCB8
:100CE0000120206220614FE001281DDC9FED2C8A4D
:100CF00040F23F05C2F200050DE000BFB0EE480A29
:100D000004F0F8FC4FF4FA7006F01AFCA069013008
:100D1000A061022808DA04F07BF828786978084393
:100D2000ECD0A0690228F6DB4FF4FA6006F008FC6C
:100D30009FED1A0A04F068FC40F2DC5006F000FC5B
:100D40006069062816D040F24705C2F20005002669
:100D500004F05EF82878002806BF0121E161E1690E
:100D6000EA786069002A01BF012901306061E6610B
:100D70000628EDD104F028FF4FF47A7006F0E0FB6E
:100D80009FED080A04F026FD40F6B83006F0D8FBC7
:100D900001202061BDEC028B70BD00BF0000B44299
:100DA000B81E053E6666663FB0B52DED028B40F27B
:100DB0005804C2F20004A1680020022920624DD12B
:100DC0009FED4A8AB0EE480A05F068FE40F69800AA
:100DD00006F0B6FB9FED460A04F08CFC40F6B830F6
:100DE00006F0AEFBB0EE480A05F058FE40F698005B
:100DF00006F0A6FB9FED3F0A04F07CFC4FF4FA706E
:100E000006F09EFB40F24705C2F20005E87838B1D3
:100E100003F0FEFF0A2006F093FBE8780028F7D1E4
:100E200004F0D2FE4FF4FA7006F08AFB9FED2F0A11
:100E300005F034FE40F6980006F082FB9FED2E0A86
:100E400004F058FC40F6B83006F07AFB012020622E
:100E500001202061BDEC028BB0BD00BF9FED238A55
:100E6000E061B0EE480AC4E9040005F017FE40F660
:100E7000980006F065FB9FED1E0A04F03BFC40F66F
:100E8000B83006F05DFBB0EE480A04F0BDFB40F65A
:100E9000980006F055FB9FED170A04F02BFC4FF469
:100EA000FA7006F04DFB40F24705C2F20005E87803
:100EB00040B100BF03F0ACFF0A2006F041FBE87828
:100EC0000028F7D104F080FE4FF4FA7006F038FBEA
:100ED0009FED060A05F0E2FD40F6980006F030FBB3
:100EE00001202061BDEC028BB0BD00BF0000B44208
:100EF0009A99193FCDCCCC3DCDCC4C3FB0B540F20A
:100F000058049FED500AC2F20004002020612062C4
:100F100004F07AFB40F6980006F012FB40F23F0521
:100F2000C2F20005287838B103F072FF0A2006F0FB
:100F300007FB28780028F7D104F046FE4FF4FA703A
:100F400006F0FEFA9FED400A04F00AFC40F6980015
:100F500006F0F6FA9FED3D0A04F0CCFB40F698004F
:100F600006F0EEFA9FED3A0A05F098FD40F2DC50EB
:100F700006F0E6FA9FED370A04F0BCFB4FF4FA7076
:100F800006F0DEFA40F24705C2F20005E87838B113
:100F900003F03EFF0A2006F0D3FAE8780028F7D1E4
:100FA00004F012FE4FF4FA7006F0CAFAA0680228A4
:100FB00044D19FED270A05F071FD40F6980006F038
:100FC000BFFA9FED240A04F095FB4FF4FA7006F087
:100FD000B7FAE87840B100BF03F01AFF0A2006F024
:100FE000AFFAE8780028F7D19FED1B0A04F082FBE6
:100FF0004FF4FA7006F0A4FAE87838B103F008FF6D
:101000000A2006F09DFAE8780028F7D104F0DCFD0C
:101010004FF4FA7006F094FA9FED0D0A05F03EFDCC
:1010200040F6980006F08CFA9FED0C0A04F062FB83
:1010300040F6B83006F084FA012060620120206199
:10104000B0BD00BF000034439A99993EA470BD3EE4
:101050000000B4428FC2F53DCDCCCC3DCDCC4C3F51
:1010600070B540F258049FED640AC2F200040020FB
:10107000C4E90400C4E9070004F0C6FA40F6980089
:1010800006F05EFA9FED5D0A04F034FB4FF4FA704F
:1010900006F056FA40F24705C2F20005E87838B18A
:1010A00003F0B6FE0A2006F04BFAE8780028F7D1E4
:1010B0009FED520A04F01EFB4FF4FA7006F040FA5E
:1010C000E87838B103F0A4FE0A2006F039FAE8788F
:1010D0000028F7D19FED4A0A04F096FA40F2DC505E
:1010E00006F02EFA40F23F06C2F20006307838B120
:1010F00003F08EFE0A2006F023FA30780028F7D19C
:101100009FED400A04F02CFB40F2DC5006F018FA88
:101110009FED3D0A04F0EEFA4FF4FA6006F010FA83
:101120009FED3A0A05F0BAFC4FF4FA6006F008FAAF
:101130009FED320A04F0DEFA4FF4FA7006F000FA7E
:10114000E87838B103F064FE0A2006F0F9F9E8788F
:101150000028F7D104F038FD4FF4FA7006F0F0F9EA
:10116000A068022844D19FED2A0A05F097FC40F6BA
:10117000980006F0E5F99FED210A04F0BBFA4FF460
:10118000FA7006F0DDF9E87840B100BF03F040FEE8
:101190000A2006F0D5F9E8780028F7D19FED170A64
:1011A00004F0A8FA4FF4FA7006F0CAF9E87838B1FA
:1011B00003F02EFE0A2006F0C3F9E8780028F7D1E4
:1011C00004F002FD4FF4FA7006F0BAF99FED100A30
:1011D00005F064FC40F6980006F0B2F99FED0D0AA8
:1011E00004F088FA40F6B83006F0AAF901206062EF
:1011F0000120206170BD00BF00003443CDCCCC3D48
:101200000000B6429A99993EEC51B83E0000B242B5
:101210000000B442CDCC4C3F10B52DED028B40F216
:101220005804C2F20004A06800210228216117D0EE
:1012300001281DD0B8B99FED338AB0EE480A04F0FA
:10124000C9FA40F2DC5006F07BF99FED2F0A04F05A
:1012500051FA40F2DC5006F073F95D201BE000BF4C
:101260000120C4E9021001202061BDEC028B10BDF9
:101270009FED248AB0EE480A04F0ACFA40F69800DC
:1012800006F05EF99FED200A04F034FA40F2DC50DB
:1012900006F056F9232004F0DFFE4FF4486006F014
:1012A0004FF904F06DFC04F00FFB04F0ABFB40F6CB
:1012B000C41006F045F99FED150A04F02DFC40F22C
:1012C000DC5006F03DF9412004F0C6FE40F2DC504F
:1012D00006F036F9B0EE480A04F042FA40F69800FB
:1012E00006F02EF99FED0A0A04F08EF940F69800F8
:1012F00006F026F9A0680130A06001202061BDEC55
:10130000028B10BD9A99993E85EBD13E0000DCC25C
:101310000000344310B52DED028B40F25804C2F2A8
:101320000004A06800210228216117D001281DD0E7
:10133000B8B99FED338AB0EE480A04F04BFA40F298
:10134000DC5006F0FDF89FED320A04F0D3F940F2CC
:10135000DC5006F0F5F85D201BE000BF0120C4E979
:10136000021001202061BDEC028B10BD9FED248A8C
:10137000B0EE480A04F02EFA40F6980006F0E0F8C5
:101380009FED200A04F0B6F940F2DC5006F0D8F8E0
:10139000232004F061FE4FF4486006F0D1F804F019
:1013A000EFFB04F091FA04F02DFB40F6C41006F0B8
:1013B000C7F89FED150A04F0AFFB40F2DC5006F0D1
:1013C000BFF8412004F048FE40F2DC5006F0B8F8C7
:1013D000B0EE480A04F0C4F940F6980006F0B0F800
:1013E0009FED0A0A04F010F940F6980006F0A8F8FC
:1013F000A0680130A06001202061BDEC028B10BD0F
:10140000713D8A3EAE47E13D0000DCC2000034433E
:10141000B81E053E10B52DED028B40F25804C2F205
:101420000004A06800210228216117D001281DD0E6
:10143000B8B9B5EE008AB0EE480A04F0CBF940F234
:10144000DC5006F07DF89FED2F0A04F053F940F2CE
:10145000DC5006F075F855201BE000BF0120C4E900
:10146000021001202061BDEC028B10BD9FED248A8B
:10147000B0EE480A04F0AEF940F6980006F060F8C5
:101480009FED200A04F036F940F2DC5006F058F8DF
:101490002D2004F0E1FD4FF4486006F051F804F00F
:1014A0006FFB04F011FA04F0ADFA40F6C41006F038
:1014B00047F89FED150A04F02FFB40F2DC5006F0D0
:1014C0003FF8412004F0C8FD40F2DC5006F038F847
:1014D000B0EE480A04F044F940F6980006F030F8FF
:1014E0009FED0A0A04F090F840F6980006F028F8FC
:1014F000A0680130A06001202061BDEC028B10BD0E
:10150000C3F5A83E9A99193E0000DCC2000034439E
:1015100010B52DED028B40F25804C2F20004A06811
:1015200000210228216133D001283FD0C0BB9FEDAC
:101530003C8AB0EE480A04F0DDF840F2DC5005F0D9
:10154000FFFF5D2004F088FD40F2DC5005F0F8FF5D
:1015500004F016FB04F0B8F904F054FA40F6C41095
:1015600005F0EEFF9FED2F0A04F0D6FA40F2DC50B2
:1015700005F0E6FF412004F06FFD40F2DC5005F07D
:10158000DFFFB0EE480A04F07FF840F2DC503DE0A7
:1015900004F090F904F0FEFA40F2DC5005F0D0FFC0
:1015A00001202061BDEC028B10BD00BF9FED1C8AA5
:1015B000B0EE480A04F09EF840F2DC5005F0C0FF9F
:1015C0002D2004F049FD40F2DC5005F0B9FF04F095
:1015D000D7FA04F079F904F015FA40F6C41005F0D2
:1015E000AFFF9FED100A04F097FA40F2DC5005F0CF
:1015F000A7FF412004F030FD4FF4FA7005F0A0FF82
:10160000B0EE480A04F040F84FF4FA6005F098FF95
:10161000A0680130A06001202061BDEC028B10BDEC
:10162000EC51B83E0000DCC210B52DED048B40F249
:101630005804C2F20004A06800210228216133D0BE
:1016400001283FD0C0BB9FED438AB0EE480A04F0AA
:1016500051F840F2DC5005F073FF9FED3F0A04F0B3
:101660007FF84FF4FA7005F06BFF552004F0F4FC9E
:101670004FF4486005F064FF04F082FA04F024F9A6
:1016800004F0C0F940F6C41005F05AFF9FED330A8C
:1016900004F042FA40F2DC5005F052FF412004F021
:1016A000DBFC40F2DC5043E004F004F904F072FA91
:1016B00040F2DC5005F044FF01202061BDEC048BBA
:1016C00010BD00BF9FED238AB0EE480A04F012F867
:1016D00040F2DC5005F034FF9FED1F9AB0EE490A4E
:1016E00004F078F84FF4FA7005F02AFF2D2004F08A
:1016F000B3FC4FF4486005F023FF04F041FA04F016
:10170000E3F804F07FF940F6C41005F019FF9FEDEF
:10171000130A04F001FA40F2DC5005F011FF4120F9
:1017200004F09AFCB0EE490A04F01AF84FF4FA708B
:1017300005F006FFB0EE480A03F0A6FF40F2DC50C9
:1017400005F0FEFEA0680130A06001202061BDEC24
:10175000048B10BD9A99193ECDCC4C3D0000DCC2E3
:1017600010B52DED048B40F25804C2F20004A068BD
:101770000021022821613BD0012847D000283FD119
:101780009FED468AB0EE480A03F0B4FF40F2DC5009
:1017900005F0D6FE9FED429AB0EE490A03F0E0FF55
:1017A0004FF4FA7005F0CCFE552004F055FC4FF4D0
:1017B000486005F0C5FE04F0E3F904F085F804F094
:1017C00021F940F6C41005F0BBFE9FED360A04F087
:1017D000A3F940F2DC5005F0B3FE412004F03CFCDC
:1017E000B0EE490A03F0F6FF40F2DC5044E000BFDF
:1017F00004F060F804F0CEF940F2DC5005F0A0FEF1
:1018000001202061BDEC048B10BD00BF9FED238A39
:10181000B0EE480A03F06EFF40F2DC5005F090FE97
:101820009FED1F9AB0EE490A03F0D4FF4FF4FA700F
:1018300005F086FE2D2004F00FFC4FF4486005F003
:101840007FFE04F09DF904F03FF804F0DBF840F669
:10185000C41005F075FE9FED130A04F05DF940F227
:10186000DC5005F06DFE412004F0F6FBB0EE490AB5
:1018700003F076FF4FF4FA7005F062FEB0EE480A0E
:1018800003F002FF40F2DC5005F05AFEA068013080
:10189000A06001202061BDEC048B10BD9A99193E17
:1018A000CDCC4C3D0000DCC210B52DED048B40F2D8
:1018B0005804C2F20004A06800210228216119D056
:1018C000012825D0F0B99FED408AB0EE480A03F018
:1018D00047FF40F6980005F033FE9FED389AB0EED2
:1018E000490A03F007FF40F6980005F029FE5D2045
:1018F00023E000BF03F0DEFF04F04CF940F2DC50BF
:1019000005F01EFE01202061BDEC048B10BD00BF60
:101910009FED298AB0EE480A03F022FF40F69800B6
:1019200005F00EFE9FED259AB0EE490A03F0E2FEA7
:1019300040F6980005F004FE232004F08DFB40F2F1
:10194000DC5005F0FDFD04F01BF903F0BDFF04F0D1
:1019500059F840F6980005F0F3FD9FED190A04F0E0
:10196000DBF840F2DC5005F0EBFD412004F074FBA5
:1019700040F2DC5005F0E4FDB0EE490A03F084FECD
:1019800040F6980005F0DCFDB0EE480A03F022FFB7
:1019900040F6980005F0D4FD9FED0A0A03F034FEEE
:1019A00040F6980005F0CCFDA0680130A060012051
:1019B0002061BDEC048B10BD9A99993E85EBD13E18
:1019C0000000DCC20000344352B89E3E10B52DED3D
:1019D000048B40F25804C2F20004A06800210228DF
:1019E000216119D0012825D0F0B99FED3C8AB0EED5
:1019F000480A03F0B5FE40F6980005F0A1FD9FED02
:101A0000389AB0EE490A03F075FE40F6980005F0EA
:101A100097FD5D2023E000BF03F04CFF04F0BAF80F
:101A200040F2DC5005F08CFD01202061BDEC048B00
:101A300010BD00BF9FED298AB0EE480A03F090FE6A
:101A400040F6980005F07CFD9FED259AB0EE490A1E
:101A500003F050FE40F6980005F072FD232004F0DC
:101A6000FBFA40F2DC5005F06BFD04F089F803F05E
:101A70002BFF03F0C7FF40F6980005F061FD9FEDD6
:101A8000190A04F049F840F2DC5005F059FD4120F4
:101A900004F0E2FA40F2DC5005F052FDB0EE490AE3
:101AA00003F0F2FD40F6980005F04AFDB0EE480A5A
:101AB00003F090FE40F6980005F042FD9FED0A0A03
:101AC00003F0A2FD40F6980005F03AFDA068013051
:101AD000A06001202061BDEC048B10BD52B89E3E79
:101AE000A470BD3E0000DCC20000344310B52DEDF3
:101AF000048B40F25804C2F20004A06800210228BE
:101B0000216119D0012825D0F0B99FED3C8AB0EEB3
:101B1000480A03F025FE40F6980005F011FD9FED00
:101B20003B9AB0EE490A03F0E5FD40F6980005F057
:101B300007FD5D2023E000BF03F0BCFE04F02AF89F
:101B400040F2DC5005F0FCFC01202061BDEC048B70
:101B500010BD00BF9FED298AB0EE480A03F000FED9
:101B600040F6980005F0ECFC9FED259AB0EE490A8E
:101B700003F0C0FD40F6980005F0E2FC262004F0DA
:101B80006BFA40F2DC5005F0DBFC03F0F9FF03F0E8
:101B90009BFE03F037FF40F6980005F0D1FC9FED67
:101BA000190A03F0B9FF40F2DC5005F0C9FC4120EE
:101BB00004F052FA40F2DC5005F0C2FCB0EE490AE3
:101BC00003F062FD40F6980005F0BAFCB0EE480A5A
:101BD00003F000FE40F6980005F0B2FC9FED0A0A03
:101BE00003F012FD40F6980005F0AAFCA068013051
:101BF000A06001202061BDEC048B10BD52B89E3E58
:101C0000A470BD3E0000DCC200003443B81EC53ED7
:101C1000B0B540F25804C2F200040020E061C4E90B
:101C200004004FF47A7005F08BFC40F24705C2F2D5
:101C30000005E87840B100BF03F0EAF80A2005F09B
:101C40007FFCE8780028F7D19FED0D0A03F052FDE4
:101C50004FF4FA7005F074FCE87838B103F0D8F866
:101C60000A2005F06DFCE8780028F7D103F0ACFFFE
:101C70004FF4FA7005F064FC01202061B0BD00BF94
:101C8000CDCCCC3DFEE7000010B52DED028B40F22F
:101C900058049FED210AC2F200040020206103F0E5
:101CA00029FD40F2DC5005F04BFC9FED1C8AB0EEA4
:101CB000480A03F08FFD40F6B83005F041FC40F2D1
:101CC0003800C2F200000078606003F059FF03F0B2
:101CD000FBFD03F097FE40F6C41005F031FC9FEDCC
:101CE000100A03F019FF4FF4FA6005F029FCB0EE7A
:101CF000480A03F035FD40F2DC5005F021FC9FED71
:101D0000090A03F081FC4FF4486005F019FC01203A
:101D10002061BDEC028B10BDCDCC4C3E9A99993E12
:101D20000000DCC20000344310B52DED028B9FEDA6
:101D30001B8A40F25804C2F200040020B0EE480AA8
:101D40002061A06003F0D6FC40F6980005F0F8FB97
:101D500040F23800C2F200000078606003F010FF2B
:101D600003F0B2FD03F04EFE40F6980005F0E8FBEC
:101D70009FED0B0A03F0D0FE40F2DC5005F0E0FBD3
:101D8000B0EE480A03F080FC40F2DC5005F0D8FBCE
:101D900001202061BDEC028B10BD00BFCDCC4C3EBC
:101DA0000000DCC210B52DED048B9FED2A8A40F2B5
:101DB0005804C2F200040020B0EE480A2061A0607E
:101DC00003F098FC40F6980005F0BAFB9FED229ACC
:101DD000B0EE490A03F0C4FC40F6980005F0B0FBF1
:101DE00040F23800C2F200000078606003F0C8FEE4
:101DF00003F06AFD40F2DC5005F0A2FB03F002FEA6
:101E000040F6C41005F09CFB9FED140A03F084FE1D
:101E100040F2DC5005F094FBB0EE490A03F0DAFC26
:101E200040F6980005F08CFBB0EE480A03F02CFC5D
:101E300040F6980005F084FB9FED090A03F0E4FBEF
:101E400040F6980005F07CFB01202061BDEC048B7E
:101E500010BD00BFAE47613E9A99993E0000DCC2BA
:101E60000000344340F25800C2F20000006901381B
:101E7000B0FA80F04009704740F25800C2F200000A
:101E80000169406881F0010180F003000843B0FA65
:101E900080F040097047000040F25800C2F2000094
:101EA000D0E9030181F001010843B0FA80F0400954
:101EB0007047000040F25800C2F20000016940681B
:101EC00081F0010180F001000843B0FA80F0400980
:101ED0007047000040F25800C2F2000001694068FB
:101EE00081F0010180F002000843B0FA80F040095F
:101EF0007047000040F25800C2F20000D0E9030130
:101F000081F0010180F001000843B0FA80F040093F
:101F10007047000040F25800C2F200000169006AF8
:101F200081F001010843B0FA80F0400970470000D9
:101F300040F25800C2F200000169006A81F001011C
:101F400080F001000843B0FA80F0400970470000BB
:101F500040F25800C2F200000169406A81F00101BC
:101F60000843B0FA80F040097047000040F2580082
:101F7000C2F20000406A0138B0FA80F040097047B0
:101F800070470000B0B540F25805C2F200050020CD
:101F9000E861C5E90400A868B5EE000A40F2DC5427
:101FA0009FED211A0028C8BFB0EE410AC8BF40F615
:101FB000980403F09FFB204605F0C2FA03F004FEEC
:101FC0004FF4FA7005F0BCFA9FED180A04F066FDB4
:101FD00040F6980005F0B4FA40F23F04C2F2000463
:101FE000E07938B102F014FF0A2005F0A9FAE0798F
:101FF0000028F7D103F0E8FD4FF4FA7005F0A0FADD
:102000009FED0B0A03F076FB40F6980005F098FA76
:102010009FED080A03F0DEFB4FF4486005F090FAEC
:1020200001202861B0BD00BFF628DC3E0000B442AC
:10203000B81E053E9A99193FF0B581B040F2580498
:1020400040F23F0540F24706C2F200040027C2F208
:102050000005C2F20006E761C4E904770CE000BFA6
:102060000121E161F2786069002A01BF0129013094
:102070006061E76102280BDA02F0CAFEA879E9790B
:102080000843EDD0287869780843E9D0E169E9E7A9
:1020900003F09AFD4FF4FA7005F052FA9FED1A0A18
:1020A00003F05EFB40F2DC5005F04AFA002767615E
:1020B0000CE000BF0121E161F2786069002A01BFF4
:1020C000012901306061E76102280BDA02F0A0FE0D
:1020D000A879E9790843EDD0287869780843E9D0F0
:1020E000E169E9E703F070FD4FF4FA7005F028FAB2
:1020F0009FED060A04F0D2FC40F2DC5005F020FA15
:102100000120206101B0F0BD9A99993E0000B442CF
:10211000F0B581B02DED028B40F2580440F23F053E
:1021200040F24706C2F200040027C2F20005C2F2E4
:102130000006E761C4E904770CE000BF0121E1611A
:10214000F2786069002A01BF012901306061E7610E
:1021500002280BDA02F05CFEA879E9790843EDD099
:10216000287869780843E9D0E169E9E703F02CFDB4
:102170004FF4FA7005F0E4F99FED350A03F0F0FA38
:1021800040F2DC5005F0DCF9002767610CE000BF8D
:102190000121E161F2786069002A01BF0129013063
:1021A0006061E76103280BDA02F032FEA879E97971
:1021B0000843EDD0287869780843E9D0E169E9E778
:1021C0004FF4FA7005F0BCF9287800216161C8B1BC
:1021D0009FED208A02F01CFE287878B9697869B9E9
:1021E000B0EE480A03F086FA4FF4FA7005F0A8F949
:1021F0006069411C2878616110B903E0616908B128
:102200000229E7DB03F0E0FC4FF47A7005F098F95F
:102210009FED118AB0EE480A04F040FC40F69800A9
:1022200005F08EF99FED0D0A03F064FA40F6B83020
:1022300005F086F9B0EE480A04F030FC40F698004C
:1022400005F07EF901202061BDEC028B01B0F0BDEC
:102250009A99993EB81E053E0000B442AE47613FD0
:10226000B0B540F258049FED1B0AC2F200040020F2
:10227000E061C4E9040003F0C7F940F6980005F0F6
:102280005FF940F23F05C2F20005E87940B100BFB6
:1022900002F0BEFD0A2005F053F9E8790028F7D1D5
:1022A00003F092FC40F2DC5005F04AF99FED0A0A77
:1022B00003F020FA4FF4FA7005F042F99FED070A97
:1022C00004F0ECFB40F2DC5005F03AF9012020610B
:1022D000B0BD00BF00003443B81E053E0000B4424C
:1022E000F0B581B040F258049FED390AC2F2000403
:1022F0000025E561C4E9045503F032FA40F6AC501C
:1023000005F01EF99FED330A03F07EF940F69800C0
:1023100005F016F9606940F23F0640F247070128D0
:10232000C2F20006C2F2000734DD03F04DFC4FF4A8
:10233000FA7005F005F99FED280A03F011FA40F64E
:10234000980005F0FDF865610CE000BF0121E16136
:10235000FA786069002A01BF012901306061E561F6
:10236000022823DA02F054FDB079F1790843EDD068
:10237000307871780843E9D0E169E9E70121E1614A
:10238000FA786069002A01BF012901306061E561C6
:102390000228CADA02F03CFDB079F1790843EDD0A9
:1023A000307871780843E9D0E169E9E703F00CFC83
:1023B0004FF4FA7005F0C4F89FED080A04F06EFBC4
:1023C00040F2DC5005F0BCF80120206101B0F0BD06
:1023D0006666663F000034439A99993E0000B44215
:1023E000F0B581B02DED028B40F258049FED530AF9
:1023F000C2F200040026E661C4E9046603F0B0F905
:1024000040F6AC5005F09CF89FED4D0A03F0FCF847
:1024100040F6980005F094F8606940F23F0540F2FC
:1024200047070128C2F20005C2F2000734DD03F0BD
:10243000CBFB4FF4FA7005F083F89FED420A03F0EE
:102440008FF940F6980005F07BF866610CE000BF5C
:102450000121E161FA786069002A01BF0129013098
:102460006061E661032823DA02F0D2FCA879E979F9
:102470000843EDD0287869780843E9D0E169E9E7B5
:102480000121E161FA786069002A01BF0129013068
:102490006061E6610228CADA02F0BAFCA879E9793B
:1024A0000843EDD0287869780843E9D0E169E9E785
:1024B0004FF4FA7005F044F89FED238A0020A061E4
:1024C0000DE000BFB0EE480A03F014F94FF4FA70C3
:1024D00005F036F8A0690130A061022808DA02F0A0
:1024E00097FC287869780843ECD0A0690228F6DBCD
:1024F00003F06AFB4FF47A7005F022F89FED138A1F
:10250000B0EE480A04F0CAFA4FF4FA6005F018F881
:102510009FED0A0A03F0EEF840F6B83005F010F827
:10252000B0EE480A04F0BAFA4FF4FA6005F008F881
:1025300001202061BDEC028B01B0F0BDAE47613FD0
:10254000000034439A99993EB81E053E0000B442FB
:10255000B0B540F258049FED2B0AC2F200040020EF
:10256000E061C4E9040003F04FF840F6980004F07D
:10257000E7FF9FED250A03F0BDF84FF4FA7004F071
:10258000DFFF40F24705C2F20005E87840B100BF26
:1025900002F03EFC0A2004F0D3FFE8780028F7D1CF
:1025A00003F012FB4FF4FA7004F0CAFF9FED150A16
:1025B00004F074FA40F6980004F0C2FF9FED120A8E
:1025C00003F098F84FF4FA7004F0BAFFE87838B1E5
:1025D00002F01EFC0A2004F0B3FFE8780028F7D1CF
:1025E00003F0F2FA4FF4FA7004F0AAFF9FED050A27
:1025F00004F054FA40F6980004F0A2FF0120206194
:10260000B0BD00BF0000B442CDCCCC3DB0B52DED87
:10261000028B40F258049FED2D0AC2F20004002004
:10262000E061C4E9040003F065F84FF4FA7004F0C7
:1026300087FF40F24705C2F20005E87840B100BFCD
:1026400002F0E6FB0A2004F07BFFE8780028F7D1CF
:1026500003F0BAFA4FF4FA7004F072FF9FED1C8A8F
:10266000B0EE480A03F0B6F840F6980004F068FFB0
:10267000B0EE480A03F03EF840F6980004F060FF20
:102680009FED140A02F0C0FF40F6980004F058FFD6
:102690009FED0E0A03F02EF84FF4FA7004F050FF8D
:1026A000E87838B102F0B4FB0A2004F049FFE8787A
:1026B0000028F7D103F088FA4FF4FA7004F040FFD5
:1026C00001202061BDEC028BB0BD00BFCDCCCC3D64
:1026D0009A99993E0000B442B0B540F258049FED7B
:1026E000340AC2F200040020E061C4E9040003F0EF
:1026F00001F84FF4FA7004F023FF40F24705C2F2EC
:102700000005E87840B100BF02F082FB0A2004F027
:1027100017FFE8780028F7D103F056FA4FF4FA7063
:1027200004F00EFF9FED220A02F0E4FF4FF4FA706E
:1027300004F006FFE87838B102F06AFB0A2004F0E2
:10274000FFFEE8780028F7D103F03EFA4FF4FA7064
:1027500004F0F6FE9FED170A03F03CF840F6B8309F
:1027600004F0EEFE40F23F05C2F20005287838B1D1
:1027700002F04EFB0A2004F0E3FE28780028F7D18F
:1027800003F022FA4FF4FA7004F0DAFE9FED080A23
:1027900002F0B0FF4FF4FA7004F0D2FE03F014FA26
:1027A0004FF4FA7004F0CCFE01202061B0BD00BFF0
:1027B000CDCCCC3D9A99193F10B52DED028B40F24E
:1027C0005804C2F20004A0680021022821610FD041
:1027D000012817D080B99FED228AB0EE480A02F096
:1027E00089FF40F2DC5004F0ABFE5A2015E000BF38
:1027F00003F060F803F0CEF901202061BDEC028BFC
:1028000010BD00BF9FED168AB0EE480A02F072FFBD
:1028100040F2DC5004F094FE1E2003F01DFC4FF447
:10282000FA7004F08DFE03F045F803F0B3F940F2BE
:10283000DC5004F085FE412003F00EFC40F2DC5039
:1028400004F07EFEB0EE480A02F01EFF40F2DC50BB
:1028500004F076FE01202061BDEC028B10BD00BFAC
:102860009A99193E10B52DED028B40F25804C2F230
:102870000004A0680021022821610FD0012817D090
:1028800080B99FED228AB0EE480A02F033FF40F291
:10289000DC5004F055FE5F2015E000BF03F00AF89D
:1028A00003F078F901202061BDEC028B10BD00BF60
:1028B0009FED168AB0EE480A02F01CFF40F2DC5091
:1028C00004F03EFE0F2003F0C7FB40F2DC5004F0A2
:1028D00037FE02F0EFFF03F05DF940F2DC5004F048
:1028E0002FFE412003F0B8FB40F2DC5004F028FE3C
:1028F000B0EE480A02F0C8FE40F2DC5004F020FEC0
:1029000001202061BDEC028B10BD00BF9A99193ED9
:1029100010B52DED028B40F25804C2F20004A068FD
:102920000021022821610FD0012813D0B0BB9FEDF8
:102930001E8AB0EE480A02F0DDFE40F2DC5004F0E0
:10294000FFFD7D2011E000BF02F0B4FF03F022F98B
:1029500020E000BF9FED148AB0EE480A02F0CAFEE4
:1029600040F2DC5004F0ECFD232003F075FB40F254
:10297000DC5004F0E5FD02F09DFF03F00BF941206F
:1029800003F06AFB40F2DC5004F0DAFDB0EE480AD6
:1029900002F07AFE40F2DC5004F0D2FD012020610A
:1029A000BDEC028B10BD00BF9A99193E10B52DEDFC
:1029B000028B40F25804C2F20004A06800210228F1
:1029C00021610FD0012813D0B0BB9FED1E8AB0EE5D
:1029D000480A02F08FFE40F2DC5004F0B1FD78208E
:1029E00011E000BF02F066FF03F0D4F820E000BF62
:1029F0009FED148AB0EE480A02F07CFE40F2DC50F3
:102A000004F09EFD232003F027FB40F2DC5004F08D
:102A100097FD02F04FFF03F0BDF8412003F01CFBCF
:102A200040F2DC5004F08CFDB0EE480A02F02CFEBF
:102A300040F2DC5004F084FD01202061BDEC028BEB
:102A400010BD00BFCDCCCC3D10B52DED028B40F2BA
:102A50005804C2F20004A0680021022821610FD0AE
:102A6000012813D0B0BB9FED1E8AB0EE480A02F0D9
:102A700041FE40F2DC5004F063FD7D2011E000BF18
:102A800002F018FF03F086F820E000BF9FED148AE3
:102A9000B0EE480A02F02EFE40F2DC5004F050FD89
:102AA000232003F0D9FA40F2DC5004F049FD02F093
:102AB00001FF03F06FF8412003F0CEFA40F2DC5042
:102AC00004F03EFDB0EE480A02F0DEFD40F2DC50BC
:102AD00004F036FD01202061BDEC028B10BD00BF6B
:102AE0009A99193E10B52DED028B40F25804C2F2AE
:102AF0000004A0680021022821610FD0012813D012
:102B0000B0BB9FED1E8AB0EE480A02F0F3FD40F222
:102B1000DC5004F015FD7D2011E000BF02F0CAFE7C
:102B200003F038F820E000BF9FED148AB0EE480AA9
:102B300002F0E0FD40F2DC5004F002FD232003F03F
:102B40008BFA40F2DC5004F0FBFC02F0B3FE03F021
:102B500021F8412003F080FA40F2DC5004F0F0FC50
:102B6000B0EE480A02F090FD40F2DC5004F0E8FCC0
:102B700001202061BDEC028B10BD00BF9A99193E67
:102B800010B52DED028B40F25804C2F20004A0688B
:102B90000021022821610FD0012813D0B0BB9FED86
:102BA0001E8AB0EE480A02F0A5FD40F2DC5004F0A7
:102BB000C7FC7D2011E000BF02F07CFE02F0EAFFBE
:102BC00020E000BF9FED148AB0EE480A02F092FDAB
:102BD00040F2DC5004F0B4FC232003F03DFA40F254
:102BE000DC5004F0ADFC02F065FE02F0D3FF4120A2
:102BF00003F032FA40F2DC5004F0A2FCB0EE480AD6
:102C000002F042FD40F2DC5004F09AFC0120206109
:102C1000BDEC028B10BD00BF9A99193E10B52DED89
:102C2000028B40F25804C2F20004A068002102287E
:102C300021610FD0012813D0B0BB9FED1E8AB0EEEA
:102C4000480A02F057FD40F2DC5004F079FC7D2088
:102C500011E000BF02F02EFE02F09CFF20E000BF5A
:102C60009FED148AB0EE480A02F044FD40F2DC50B9
:102C700004F066FC1E2003F0EFF940F2DC5004F093
:102C80005FFC02F017FE02F085FF412003F0E4F93B
:102C900040F2DC5004F054FCB0EE480A02F0F4FCC0
:102CA00040F2DC5004F04CFC01202061BDEC028BB2
:102CB00010BD00BF3D0AD73D10B52DED028B40F28F
:102CC0005804C2F20004A0680021022821610FD03C
:102CD00001281DD0B0B99FED238AB0EE480A02F05A
:102CE00009FD40F2DC5004F02BFC64201BE000BF27
:102CF00002F0E0FD02F04EFF40F2DC5004F020FC58
:102D00000120606201202061BDEC028B10BD00BF7C
:102D10009FED148AB0EE480A02F0ECFC40F2DC5061
:102D200004F00EFC232003F097F940F2DC5004F08D
:102D300007FC02F0BFFD02F02DFF412003F08CF9EB
:102D400040F2DC5004F0FCFBB0EE480A02F09CFCC0
:102D500040F2DC5004F0F4FB01202061BDEC028B5A
:102D600010BD00BF9A99193E72B600BFFEE7000081
:102D7000F0B540F23F00C2F200000278437890F8CC
:102D800002E082F0010183F0010739438EF0010770
:102D900051EA070C14D10121C17001799FED491A44
:102DA00001294FF000012AD14479012C27D18479DF
:102DB000012C24D1C479012C21D19FED430AF0BD0F
:102DC000B9EE000A9FED3F1A002A4FF0010108BF3B
:102DD000B0EE401AB8EE040A08BF0221002BB2FA86
:102DE00082F431EE000A0CBFB0EE401A6109BEF168
:102DF000000F04D1BFEE000A31EE001A0131BEEE21
:102E0000000AC77831EE000A047945798679002FE7
:102E100004BFB0EE401A0131B6EE000A31EE000AEE
:102E2000002C04BFB0EE401A0131B7EE000A1A437D
:102E300031EE000A42EA0E02002D04BFB0EE401A45
:102E40000131B0EE040A3A4331EE000A002E04BF0D
:102E5000B0EE401A0131C079B1EE002A42EA040313
:102E600031EE020A2B43002804BFB0EE401A0131B4
:102E700033439FED150A034322D0002A08BF012DDA
:102E80001AD044EA050333431843BCFA8CF2B0FA73
:102E900080F052094009024218BFF0BD00EE101A3E
:102EA000B8EEC00A81EE000AB6EE0C1A30EE020A45
:102EB00020EE010AF0BD00BF012EE2D10128E0D1D1
:102EC000F0BD00BF0000000033337340B0B50446CE
:102ED00000F0E6F8054640F20800C2F20000007873
:102EE000611C18BF044400BF00F0DAF8401BA04288
:102EF000FAD3B0BD2DE9F04F82B000F13E4707F1A3
:102F0000FF77860546EA972741F60046C4F2020697
:102F1000082243F6004EB04208BF0722C4F2010E59
:102F2000072F38BF3A46002600274FF000080092CE
:102F300009E000BF08F101080237B8F1100F06F1EF
:102F4000040600F0A3800D68012202FA08F415EAD5
:102F50000409EFD0D1F804B003220BF0030CACF15C
:102F60000105BA40012D6FEA020A0FD88268CD68C8
:102F700002EA0A02BD402A4382604268A243CBF3C0
:102F8000001404FA08F42243426005E0BCF1030F88
:102F900002D14FF0030C1EE0C2688C6802EA0A02FC
:102FA000BC402243BCF1020FC26014D16FF0030297
:102FB00002EA58020244D2F820C006F01C040F2393
:102FC0000D69A3402CEA0303A5402B431362D1F8FB
:102FD00004B00BF0030C02680CFA07F302EA0A02D1
:102FE0001A431BF4403F0260A4D0002243F644037E
:102FF0000192C4F202031A684FF6084C42F4804270
:103000001A601A68CFF6FF7C02F480420192019A9E
:1030100028F00302724452F80C3006F00C050F241D
:10302000AC40A343009C04FA05F52B4342F80C3056
:10303000DEF808204B6842EA090543F60C4CDC0236
:1030400058BF22EA0905CEF80850C4F2010CDCF89A
:1030500000209C0242EA090558BF22EA0905CCF883
:103060000050DEF804209C0342EA090558BF22EA1A
:103070000905CEF80450DEF80020DB0342EA09051A
:1030800058BF22EA0905CEF8005053E702B0BDE868
:10309000F08F0000002A08BF09048161704700001A
:1030A00044F27C20C2F2000000687047002804BF90
:1030B00001207047F0B581B0044690F83D0028B972
:1030C000002084F83C00204600F0CEF9242084F84B
:1030D0003D002068016821F001010160016841F4B0
:1030E00000410160016821F40041016000F0D4FB5F
:1030F000636848F2A16CC0F2010C40F60011C0F206
:103100003D0163453CBF48F28041C0F21E01884248
:1031100002D2012001B0F0BD4DF68361C4F21B3133
:10312000A0FB01122168970CD1F804E04FF49676C9
:103130002EF03F0545EA92454D60774348F6381634
:103140000D6AC0F24106A7FB067625F03F076345EE
:1031500038BF960C721C3A430A62CA6948F2A066EC
:103160004CF6FF77C0F20106B34222EA07020BD801
:1031700001385B00B0FBF3F001306FF31F3004281F
:1031800098BF04201BE000BFA768013857B119277A
:103190007B43B0FBF3F001306FF31F3070B100F5EB
:1031A000804007E003EB4303B0FBF3F001306FF323
:1031B0001F3018B100F5004001E000BF01201043AE
:1031C000C8610868D4E9072320F0C0001043184301
:1031D0000860886848F2FF3204F10C0790438CCFF6
:1031E00018431043A6698860C86820F0FF00384380
:1031F0003043C860086840F00100086000202021CA
:10320000206484F83D10206384F83E0001B0F0BDD6
:103210002DE9F04784B0994616460F460446FFF75D
:103220003FFF94F83D10202927D10546206800BFB4
:10323000816989071CD5FFF733FF411B20681A29D4
:10324000F6D381698907F3D500202021206384F813
:103250003D1084F83E00206C04F13C0A40F0200050
:103260002064022000218AF8001004B0BDE8F08735
:10327000A2461AF83C1F012904D1022004B0BDE87F
:10328000F08700BF01228AF800200368DDE90D18ED
:103290000C9ADB0703D1036843F001030360036862
:1032A00023F400630360222084F83D00402084F86A
:1032B0003E000020206462626185608D3946208571
:1032C0000020CFF6FF70E062204632464B46CDE943
:1032D000008501F01BFB18B1012004B0BDE8F087A8
:1032E000208DA8B102282BD0012835D121680A6889
:1032F00022F480620A60002203924A6903928A697A
:103300000392039A0A6842F400720A602CE000BF3C
:10331000002003902068416903918169039103991A
:10332000016841F400710160202084F83D00002014
:1033300084F83E0000218AF8001004B0BDE8F08750
:1033400021680A6822F480620A600A6842F4006216
:103350000A600022039202E00021039121684A6979
:1033600003928969039103990427C0F201070CE0D5
:1033700010690870606A218D01306062481E2085E6
:10338000618D013961850104CED080B203280FD848
:1033900002284AD001282DD1204641462A4601F074
:1033A00091FC002898D12068616A0069E1E700BFBC
:1033B000204641462A4601F085FC00287FF48CAF68
:1033C0002068616A00690870606A2268411C208D6B
:1033D000616201382085638D013B638553695B071A
:1033E000D1D580B20328C3D1106820F4806010606A
:1033F000BEE700BF2046394600224346009501F053
:103400000FFB00287FF468AF2068616A026822F42D
:103410008062026000690870606A218D013060621C
:10342000481E2085608D013860852046394600227F
:103430004346009501F0F4FA00287FF44DAF206870
:10344000616A026842F40072026000690870606A92
:103450002268411C6162218D01392185618D01390C
:1034600061851169417085E72DE9F04786B00068F4
:1034700045F60041C4F2000100268842CDE9046609
:10348000CDE9026601962FD045F60001C4F2000195
:1034900088426ED1002543F630040095C4F2020440
:1034A000206801A940F002002060206800F00200BE
:1034B000009000984FF4406001901220CDE9020581
:1034C00003200490042005900020C4F2020000F5BF
:1034D0008060FFF70FFD0095206940F480002061B7
:1034E000206900F4800042E043F630070096C4F201
:1034F00002073868002440F0040038603868C4F2DD
:10350000020400F00400009000980096386801ADB5
:1035100040F00100386038684FF0120800F00100F8
:10352000009000984FF4007001904FF003094FF0A5
:10353000040A04F500602946CDE90286CDF8109012
:10354000CDF814A0FFF7D6FC4FF48070CDE9010848
:1035500003A880E8400620462946FFF7CBFC0096EA
:10356000386940F400003861386900F400000090C8
:10357000009806B0BDE8F08740F2080044F27C21D4
:10358000C2F20000C2F2000100780A68104408602C
:103590007047000080B543F60040C4F202000168A5
:1035A00041F400710160016841F4806101600168CB
:1035B00041F480710160032000F0ACF80F2000F0AE
:1035C00005F800F027F8002080BD000070B540F23B
:1035D0000806C2F2000640F214013278C2F200017D
:1035E0004FF47A730968B3FBF2F20446B1FBF2F1CF
:1035F000084600F087FB0F2C4FF0010508D838B9BA
:103600004FF0FF3021460022002500F057F874608B
:10361000284670BD80B582B0002043F6400101907D
:10362000C4F202014A6842F480424A604A6802F4E5
:1036300080420192019A00900868002240F0805078
:1036400008600868012100F08050009000986FF039
:103650000B0000F033F86FF00A000121002200F0A7
:103660002DF86FF009000121002200F027F86FF01B
:1036700004000121002200F021F86FF00300012175
:10368000002200F01BF86FF001000F21002202B0B1
:10369000BDE8804000F012B8002848BF704700F035
:1036A0001F01012202FA01F11C2202EAD0004EF2AF
:1036B0000012CEF2000281507047000010B54EF6A5
:1036C0000C5CCEF2000CDCF80030C3F3022E8EF05E
:1036D0000704042C28BF0424BEF103034FF0FF3E6F
:1036E0000EFA04F438BF0023A14399400EFA03F305
:1036F0009A43114300F00F0200F160430901043ABC
:1037000003F564436244002848BF02F10C031970BA
:1037100010BD00004EF60C51CEF200010A684FF6C3
:10372000FF031A4060F30A2242F0806040F0FD700F
:1037300008607047002804BF012070472DE9F04160
:1037400043F60808C4F202080446D8F8F8030D4608
:1037500000F00700884207D288F8F853D8F8F80339
:1037600000F00700A84277D12068810717D54107EC
:1037700005D5D8F8001041F4E051C8F80010010751
:1037800005D5D8F8001041F46041C8F80010D8F809
:103790000010A26821F0F0011143C8F80010C00722
:1037A00040D1D8F8F80300F00700A84207D988F8FC
:1037B000F853D8F8F80300F00700A8424CD120686D
:1037C000410707D5D8F80010E26821F4E051114311
:1037D000C8F80010000708D5D8F80000216920F4C7
:1037E000604040EAC100C8F8000000F07DF8D8F859
:1037F000001047F65852C1F30311C0F60002515CA5
:1038000040F2140220FA01F140F20C00C2F2000072
:103810000068C2F200021160FFF7D8FE0020BDE888
:10382000F08100BF6068811E022907D258F8081C89
:1038300089015CBF0120BDE8F08111E0012807D1BA
:1038400058F8081C89035CBF0120BDE8F08107E03F
:1038500058F8081C890703D40120BDE8F08100BF97
:10386000D8F8001021F003010843C8F80000FFF762
:1038700017FC064641F28837D8F80000616800F06E
:103880000C00B0EB810F8CD0FFF70AFC801BB84214
:10389000F2D90320BDE8F08140F2140043F608019C
:1038A000C2F20000C4F202010068096847F66852DB
:1038B000C1F38221C0F60002515CC840704700008D
:1038C00040F2140043F60801C2F20000C4F2020103
:1038D0000068096847F66852C1F34231C0F6000239
:1038E000515CC8407047000010B543F60404C4F2B0
:1038F0000204606800F00C0008280BD0042819BFEF
:1039000042F20040C0F2F40047F64000C0F27D10E1
:1039100010BD00BF206821682368490247F64001B6
:10392000C0F27D1100F03F02C3F388105CBF42F289
:103930000041C0F2F401A1FB00010023FCF740FCB0
:1039400021680222C1F3014102EB4101B0FBF1F019
:1039500010BD0000002804BF012070472DE9F04190
:1039600082B00446007843F60006C007C4F202069F
:103970000CD0B06800F00C00042840F08180306862
:10398000800303D56068002800F06A8120788007F2
:103990001BD5B06810F00C0F09D0B06800F00C0017
:1039A000082840F087807068400200F1838030680A
:1039B000800703D5E068012840F052813068216912
:1039C00020F0F80040EAC10030602078000713D4EE
:1039D000207840072AD4A569002D00F03C81B0680A
:1039E00000F00C00082840F0A180012D40F010816B
:1039F000012002B0BDE8F0816069002840F20000BB
:103A0000C4F2472000F07E800121C0F8801EFFF73D
:103A100047FB0546706F8007DAD4FFF741FB401B78
:103A20000228F7D9032002B0BDE8F081306C5FEACC
:103A3000C0080AD400200190306C40F080503064FF
:103A4000306C00F080500190019847F20007C4F2FA
:103A500000073868C00547D4386840F48070386083
:103A6000FFF71EFB054600BF3868C0053CD4FFF7D2
:103A700017FB401B0228F7D9032002B0BDE8F081F4
:103A8000B06800F00C00082803D1706840023FF5D0
:103A900076AF6068B0F5803F07D0B0F5A02F40F05A
:103AA0009B80306840F480203060306840F4803083
:103AB00030609BE0E06800285CD00020C4F2472022
:103AC00001210160FFF7ECFA054600BF306880076E
:103AD0003FF574AFFFF7E4FA401B0228F6D9032044
:103AE00002B0BDE8F08100BFA068012805D005281C
:103AF00054D1306F40F004003067306F40F0010067
:103B0000306755E00021C0F8801EFFF7C9FA05466E
:103B1000706F80077FF55CAFFFF7C2FA401B022889
:103B2000F6D9032002B0BDE8F08100BF0027C4F23F
:103B3000472700203866FFF7B3FA022D05460DD15E
:103B40003068800140F19080FFF7AAFA401B0228FC
:103B50004FF00300F4D902B0BDE8F0813068800175
:103B600079D5FFF79DFA401B02284FF00300F5D9E5
:103B7000F1E700BF0020C4F2472000210160FFF7F9
:103B80008FFA0546306880077FF51FAFFFF788FA88
:103B9000401B02284FF00300F4D9DCE7316F002806
:103BA00021F001013167316F21F0040131677DD0CF
:103BB000FFF776FA054641F2883700BF306F80077D
:103BC00000F18680FFF76CFA401BB842F6D903205B
:103BD00002B0BDE8F08100BF3168002821F48031D7
:103BE0003160316821F4802131607BD0FFF758FAD1
:103BF000054600BF306880033FF5C8AEFFF750FAB6
:103C0000401B6428F6D9032002B0BDE8F08100BF54
:103C10007068E16900F480028A4221D1216A00F0D3
:103C20003F028A421CD147F6C071626A0140B1EB83
:103C3000821F15D1A16A4FF6FF73C903994300F49F
:103C40004032A1F580318A420AD1E16A00F0706009
:103C5000B0EB016F04D1002002B0BDE8F08100BFDD
:103C6000012002B0BDE8F08104F11C052FCD08430E
:103C700040EA8210D9034FF6FF729143A1F58031DB
:103C800040EA05600843706001203866FFF708FAD3
:103C9000044600BF30688001DDD4FFF701FA001B45
:103CA00002284FF00300F5D955E700BFFFF7F8F9F8
:103CB000054641F2883700BF306F800708D5FFF70F
:103CC000EFF9401BB8424FF00300F5D943E700BFBE
:103CD000B8F1000F3FF57FAE306C20F080503064BB
:103CE00079E600BFFFF7DCF9054600BF30688003C6
:103CF0007FF54CAEFFF7D4F9401B64284FF003006A
:103D0000F4D928E7411E0020B0EB116F1CBF012041
:103D100070474EF21002CEF2000251604EF623516F
:103D2000CEF20001F0230B70072190601160704704
:103D3000704700007047000090F83C20012A4FF0C7
:103D4000020254D010B580F83D200268D2F804E099
:103D5000D2F808C00C682EF07003234341F2FF74C0
:103D6000C4F20004A24253600EDC40F2FF73C4F2BE
:103D700000039A4216DCB2F1804F2BD040F2004390
:103D8000C4F2000324E000BF40F2FF33C4F2010399
:103D90009A4213DC41F60003C4F200039A4219D0A0
:103DA000002313E040F60003C4F200039A4211D04E
:103DB00040F60043C4F200030AE000BF44F20003EF
:103DC000C4F201039A4205D040F20043C4F2010359
:103DD0009A4204D149682CF0800319439160012173
:103DE000002280F83D1080F83C20BDE810401046CD
:103DF00070470000002804BF0120704710B504463A
:103E000090F83D0028B9002084F83C00204600F0DE
:103E10001FF8022084F83D002068211D01F0DEFF1C
:103E2000012084F8460084F83E0084F83F0084F8BE
:103E3000400084F8410084F8420084F8430084F88C
:103E4000440084F8450084F83D00002010BD0000C7
:103E500080B582B0006800F14041800540EA9120C1
:103E6000042858D8DFE800F00412203A480000BFC8
:103E70000020019043F64000C4F20200016841F0C6
:103E800001010160006800F0010042E000200190A3
:103E900043F64000C4F20200016841F002010160F3
:103EA000006800F0020034E00020019043F640007A
:103EB000C4F202000168002241F0040101600068C0
:103EC000052100F00400019001981E20FFF7F6FB89
:103ED0001E2002B0BDE88040FFF7DEBB002001904D
:103EE00043F64000C4F20200016841F0080101609D
:103EF000006800F008000CE00020019043F640004C
:103F0000C4F20200016841F010010160006800F095
:103F100010000190019802B080BD000090F83D10A3
:103F200001291CBF01207047022180F83D10006864
:103F300041F2FF72C168C4F20002904241F00101F7
:103F4000C1600DDC40F2FF71C4F20001884215DC53
:103F5000B0F1804F2AD040F20041C4F2000123E0CA
:103F600040F2FF31C4F20101884213DC41F6000146
:103F7000C4F20001884219D0002113E040F600018C
:103F8000C4F20001884211D040F60041C4F20001A1
:103F90000AE000BF44F20001C4F20101884205D0EA
:103FA00040F20041C4F20101884206D1816801F06B
:103FB0000701062904BF00207047016841F0010194
:103FC000016000207047000090F83C20012A4FF06B
:103FD000020200F0C58080B580F83D20D0F800C016
:103FE0004FF67772DCF8083023EA0202CCF808209A
:103FF0000B684F2B28DC1F2B44DD202B45D0302BAA
:1040000043D0402B40F0AE80D1F804E0C968DCF822
:104010002030DCF8202022F00102CCF82020DCF84F
:10402000182022F0F00242EA011123F00A0242EACB
:104030000E02CCF81810CCF82020DCF8081041F063
:10404000470121F0300180E06F2B27DDB3F5005FE1
:1040500048D0B3F5805F7AD0702B40F08380D1E9EF
:1040600001E3C968DCF8082043EA0E0322F47F422A
:1040700043EA01211143CCF80810DCF8081041F0A4
:10408000770162E00BB1102B6CD1DCF8081021F045
:104090007001194341F0070157E000BF502B35D0A4
:1040A000602B5FD1D1F804E0C968DCF82030DCF87F
:1040B000202022F01002CCF82020DCF8182022F476
:1040C000704242EA013123F0A00242EA0E12CCF81B
:1040D0001810CCF82020DCF8081041F0670121F01E
:1040E000100132E0D1E901E3C968DCF8082043EAB5
:1040F0000E0322F47F4243EA01211143CCF8081059
:10410000DCF8081041F480411FE000BFD1F804E062
:10411000C968DCF82030DCF8202022F00102CCF85D
:104120002020DCF8182022F0F00242EA011123F0EE
:104130000A0242EA0E02CCF81810CCF82020DCF873
:10414000081041F0570121F02001CCF8081000229E
:10415000012180F83D10002180F83C10BDE880402E
:10416000104670470122F3E77047000070B504461F
:104170000068C5680669B10716D515F0020113D0AD
:104180006FF002010161012121778069800703D06E
:104190002046FFF7E9FF05E0204600F08FF82046B3
:1041A00000F0D0F900202077700719D515F0040031
:1041B00016D020686FF00401016102212177806927
:1041C00010F4407F04D02046FFF7CEFF06E000BF8A
:1041D000204600F073F8204600F0B4F90020207764
:1041E000300717D515F0080014D020686FF00801CB
:1041F000016104212177C069800703D02046FFF7C1
:10420000B3FF05E0204600F059F8204600F09AF987
:1042100000202077F00619D515F0100016D0206880
:104220006FF01001016108212177C06910F4407F0F
:1042300004D02046FFF798FF06E000BF204600F0BC
:104240003DF8204600F07EF900202077F00718BFE7
:1042500015F0010002D1300609D412E020686FF099
:1042600001010161204600F0FFF9300609D515F083
:10427000800006D020686FF0800101612046FFF7C2
:1042800057FD700609D515F0400006D020686FF084
:1042900040010161204600F0E9F9B00658BF70BD49
:1042A00015F0200008D021686FF0200220460A6136
:1042B000BDE87040FFF73EBD70BD000070470000D4
:1042C00090F83C30012B04BF022070474FEAB20245
:1042D000032A00F201812DE9F043DFE802F0033FF9
:1042E0007FBF00BF036840F200461C6A1A6A24F0D0
:1042F000020422F001021A621A46D3F804C052F8EE
:1043000018EF8F6843F48065C4F20106B54244EAB1
:10431000070405D1CF6824F00C0427F004073C43C0
:104320000F68B54206D1D1E905582CF440762E43EA
:1043300046EA080C2EF073063743C3F804C09F61A9
:104340004F6809695F631C629F6947F008079F61B6
:104350009F6927F004079F61B2E000BF036840F245
:1043600000481C6A1A6A24F0200422F010021A6223
:104370001A46D3F804C052F818EF8F6843F48065EA
:10438000C4F20108454544EA071407D1CF686FF02D
:10439000400624F0C00406EA07163443D1F8009022
:1043A000454506D1D1E905562CF440672E4347EA2E
:1043B000860C2EF4E64747EA0927C3F804C09F613C
:1043C0004F6809699F631C629F6947F400679F619A
:1043D0009F6927F480679F6171E000BF036840F226
:1043E00000481C6A1A6A24F4007422F480721A626B
:1043F0001A46D3F804C052F81CEF8F6843F4806566
:10440000C4F20108454544EA072408D1CF6840F2C8
:10441000FF463F0224F4406427EA06063443D1F8FD
:104420000090454506D1D1E905562CF440572E435E
:1044300047EA061C2EF0730747EA0907C3F804C0D1
:10444000DF614F680969DF631C62DF6947F00807B5
:10445000DF61DF6927F00407DF6131E0036840F2C4
:104460000045D3F820C01A6A43F4806722F48052D2
:104470001A621A465C6852F81CEFD1F800808E6808
:10448000C4F20105AF4204D14D6924F4804444EAEA
:1044900085142CF4005747EA06372EF4E64646EA20
:1044A00008265C60DE614E6809691E641F62DF6970
:1044B00047F40067DF61DF6927F48067DF61090285
:1044C0001368194311600021BDE8F043002280F811
:1044D0003C200846704700BF0121002280F83C20A4
:1044E00008467047002804BF0120704710B50446F5
:1044F00090F83D0028B9002084F83C00204600F0E8
:104500001FF8022084F83D002068211D01F066FCA0
:10451000012084F8460084F83E0084F83F0084F8C7
:10452000400084F8410084F8420084F8430084F895
:10453000440084F8450084F83D00002010BD0000D0
:10454000704700007047000041B1082910D00429CD
:1045500014BF00F1410200F13F020BE090F83E2051
:10456000012A1CBF01207047022280F83E2013E080
:1045700000F140021278012A1CBF0120704702227C
:10458000082907D0042914BF80F8412080F83F2073
:1045900002E000BF80F84020006801F01F01012206
:1045A000036A02FA01F123EA01020262026A11437C
:1045B00041F2FF72C4F200029042016210DC40F24C
:1045C000FF71C4F2000188421CDCB0F1804F3FD083
:1045D00040F20041C4F20001884239D03DE000BF02
:1045E00040F2FF31C4F20101884219DC41F60001BA
:1045F000C4F2000188422BD00021C4F2010188429C
:104600001AD02AE040F60001C4F2000188421FD00F
:1046100040F60041C4F20001884219D01DE000BFFD
:1046200044F20001C4F20101884211D040F200417D
:10463000C4F20101884210D1416C40F2004340F4C1
:104640008062C4F2010341F400419A42416404D102
:10465000816801F00701062903D0016841F00101DA
:1046600001600020704700007047000070470000A4
:10467000002804BF0120704710B5044690F841009F
:1046800028B9002084F84000204600F021F82420BA
:1046900084F841002068C16821F40051C1602046BF
:1046A00001F03EFC2068016921F4904101614169FB
:1046B00021F02A014161C16841F40051C16000202C
:1046C0002021606484F8411084F84210606310BDBA
:1046D00080B586B0006844F20042C4F200020021B6
:1046E0009042CDE90411CDE90211019124D041F2AB
:1046F0000001C4F20101884248D1002043F6300194
:104700000090C4F202014A6942F010024A614A690B
:1047100002F010020092009A0090086840F0010038
:10472000086008684FF4C06100F001000090009834
:104730000020C4F202001DE043F630000091C4F2F4
:104740000200026942F400320261026902F400329E
:104750000092009A0091016841F008010160006830
:10476000602100F00800009000980020C4F20200D0
:1047700000F5406001910221029100210391032183
:1047800004910721059101A9FEF7B4FB06B080BD95
:104790002DE9F041044690F8410020281CBF02207A
:1047A000BDE8F0810D4600294FF0010000F0AA801D
:1047B0001646002A08BFBDE8F08100206064212071
:1047C000984684F84100FEF76BFCA684E684A16855
:1047D0000646B1F5805F02D12069002862D02F46DD
:1047E0000025E08C002861D018F1010018D0B8F144
:1047F000000F37D1216808E017F8010B4860E08C02
:104800000138E084E08C002851D00868000673D598
:10481000002FF1D135F8020B00276FF35F20EDE791
:10482000216802E00868000609D40868000606D47A
:10483000086800065CBF08685FEA0060F2D51FB137
:1048400017F8010B05E000BF35F8020B00276FF3E6
:104850005F204860E08C0138E084E08C0028E4D1DF
:1048600025E000BF216800BF0868000608D4FEF7F5
:1048700017FC801B404541D82168C868F4E700BF99
:1048800017B117F8010B04E035F8020B00276FF39E
:104890005F204860E08C0138E084E08C0028E3D1A0
:1048A00005E000BF0027E08C00289DD12168086842
:1048B00040061FD4B8F1000F1ED018F101000FD12F
:1048C0000868400616D40868400613D408684006F5
:1048D00010D4086840064FF00000F1D50FE000BF8B
:1048E000FEF7DEFB801B404508D82068C1680068E1
:1048F0004006F5D5002002E0FEF7D2FB0320202180
:1049000084F84110BDE8F081FEE700002DE9F04792
:1049100082B0044600689A460B9D0A9E0368914641
:1049200043F48062026002680F4642F480710160C5
:1049300020464FF0011100223346009500F070F838
:1049400050B120680068C00544BF4FF40070206477
:10495000032002B0BDE8F08740F202082068C0F2F0
:10496000010807F0FE0707612046414632462B4604
:1049700000F03CF920B1012002B0BDE8F08700BF93
:104980000020019020682A464169019180693146E2
:1049900001900198204600F0DDF9B0B92068BAF125
:1049A000010F09D04FEA19210161204631462A46FC
:1049B00000F0D0F948B920685FFA89F1016120461A
:1049C00031462A4600F0C6F960B1206C0428D2D1E5
:1049D0002068016841F400710160012002B0BDE867
:1049E000F08700BF206800220168334641F48071DF
:1049F000016020464FF00111009500F011F80028E9
:104A00009FD147F0010C27682046414632462B468D
:104A1000C7F810C002B0BDE8F04700F0E7B80000EA
:104A20002DE9F041054600681E46144601F47F0258
:104A300001338FB242D0DDF81880B2F5803F40F0EC
:104A4000878040693840C01BB0FA80F04009A0421E
:104A500040F0C8804EB924E040693840C01BB0FA2D
:104A600080F04009A04240F0BD80FEF719FBA0EBAA
:104A700008012868B142EFD941693940C91BB1FA30
:104A800081F14909A142E7D19BE000BF406938406C
:104A9000C01BB0FA80F04009A0424FF0000040F087
:104AA000A280FEF7FDFA286841693940C91BB1FAB6
:104AB00081F14909A142E9D183E000BFB2F5803F0D
:104AC00024D100BF41693940C91BB1FA81F14909BC
:104AD000A14240F0878041693940C91BB1FA81F198
:104AE0004909A14240F07E8041693940C91BB1FAB1
:104AF00081F14909A14275D141693940C91BB1FA17
:104B000081F14909A142DDD06CE000BF81693940E3
:104B1000C91BB1FA81F14909A14263D181693940C8
:104B2000C91BB1FA81F14909A1425BD181693940C0
:104B3000C91BB1FA81F14909A14253D181693940B8
:104B4000C91BB1FA81F14909A142DFD04AE000BF97
:104B500080693840C01BB0FA80F04009A04241D1C2
:104B600046B923E080693840C01BB0FA80F04009A4
:104B7000A04237D1FEF794FAA0EB08012868B142B1
:104B8000F0D981693940C91BB1FA81F14909A142C3
:104B9000E8D116E080693840C01BB0FA80F04009C7
:104BA000A0424FF0000018BFBDE8F081FEF778FA90
:104BB000286881693940C91BB1FA81F14909A142CC
:104BC000E8D100202021286385F83D1085F83E00BB
:104BD000296C41F02001296485F83C000120BDE8E2
:104BE000F08100BF0020BDE8F0810000F0B581B089
:104BF000044600681D4643698FB203EA0701B942C3
:104C000002D1002001B0F0BD4169164601323FD00B
:104C100049053FD4CEB100BFFEF742FA411B2068E0
:104C2000B14203D941693940B94215D1416939408E
:104C3000B942E6D041694905EED52BE041693940DA
:104C4000B942DED04169490524D4FEF729FA20682B
:104C500041693940B942F1D0202023E0416939400F
:104C6000B942CED04169490514D441693940B942AD
:104C7000C7D0416949050DD441693940B942C0D016
:104C80004169490506D441693940B942B9D0416901
:104C90004905E3D5016841F4007101606FF480615A
:104CA0004161042000212022216384F83D2084F802
:104CB0003E10226C1043206484F83C10012001B0A7
:104CC000F0BD000070B504460068154650F8143F6A
:104CD0005A063DD40E4629B926E000BF50F8141FED
:104CE000490635D40168C90621D4FEF7D9F9411B1C
:104CF0002068B142F2D941694906EFD40020202151
:104D0000206384F83D1084F83E00206C40F02000C1
:104D100018E000BFFEF7C4F9206850F8141F4906D8
:104D2000ECD50168490613D40168C906F2D56FF0C5
:104D30001001016000202021206384F83D1084F8D8
:104D40003E00206C2064002084F83C00012070BDEF
:104D5000002070BD70B50368044653F8140F0006B8
:104D600011D40E46481C29D086BB00BF18684005E8
:104D700027D4FEF795F9236853F8140F000637D5AA
:104D800018680006F2D5002070BD00BF1868000644
:104D9000F9D41868400514D418680006F3D41868CC
:104DA00040050ED418680006EDD41868400508D4F4
:104DB000186800064FF0000048BF70BD1868400535
:104DC000E4D56FF480601860042012E0154603E01B
:104DD00053F8140F0006D6D418684005F1D4FEF736
:104DE0005FF9401B2368B042F2D958690006EFD43E
:104DF000202000212022216384F83D2084F83E10E9
:104E0000226C10432064012084F83C1070BD000027
:104E100080B52DED048B40F24700C2F2000001780E
:104E20009FED3E8A012953D14178012950D18178E3
:104E300001294DD1C17801294AD10179012947D1F0
:104E40004179012944D18179012941D1C079B0EE5C
:104E5000489A01283ED1FDF78BFF9FED311AB0EE45
:104E6000408AB4EE410AF1EE10FA21D19FED2D9A5D
:104E700040F24420C2F20000B0EE490A02F0B8F954
:104E800040F29C20C2F20000B0EE490A02F0B0F9F4
:104E900040F2F420C2F20000B0EE490A02F0A8F994
:104EA00040F2EC10C2F20000B0EE490A02F0A0F9A4
:104EB0009FED1D0A9FED1D1A38EE000A9FED1C2A7A
:104EC00020EE010A30EE029A32EE408A02E000BF84
:104ED000B0EE489A40F24420C2F20000B0EE480A18
:104EE00002F086F940F29C20C2F20000B0EE490ABE
:104EF00002F07EF940F2F420C2F20000B0EE480A5F
:104F000002F076F940F2EC10C2F20000B0EE490A6D
:104F1000BDEC048BBDE8804002F06AB93333B33E88
:104F2000333373409A99993E333373C0CDCC4C3DA3
:104F3000CDCCCC3E80B588B00B4802AF01900AA022
:104F400000F1040E9EE80E50806987E80E5007902D
:104F500001A8002101F0F0FD40F24C31C2F2000145
:104F6000086008B080BD00BF707D0008A95B000824
:104F700000000000000000008000000000000000B1
:104F80000000000070B586B0002543F6300005959E
:104F90000095C4F20200016840F6000441F080016F
:104FA00001600168C4F2020401F0800100910099DF
:104FB00000950168002241F0010101600168C026EE
:104FC00001F00101009100990095016841F0020192
:104FD0000160016801F002010091009900950168EB
:104FE00041F004010160016801F0040100910099A1
:104FF0000095016841F0080101600068C02100F0DF
:105000000800009000982046FEF744F80120CDE902
:10501000020501A9204601960495FDF76BFF06B035
:1050200070BD000080B540F2503045F60001C2F27C
:105030000000C4F2000100234FF4804C42F21072D1
:1050400080E80E00C0E9033CC0E90533C0E907333E
:10505000FEF72CF8002808BF80BDBDE88040FDF7B2
:1050600083BE000080B540F2A43045F60041C2F294
:105070000000C4F2000100234FF4804C42F2107291
:1050800080E80E00C0E9033CC0E90533C0E90733FE
:10509000FEF70CF8002808BF80BDBDE88040FDF792
:1050A00063BE000010B594B040F2F8300021C2F2A7
:1050B00000004FF08042532344F61F640D91CDE968
:1050C0000B110991CDE90711CDE90511CDE90311C6
:1050D000CDE90111C0E90023C0E902140161816139
:1050E000FEF788FE002818BFFDF73EFE4FF4805003
:1050F0000A9040F2F830C2F200000AA9FEF764FFFD
:10510000002818BFFDF730FE40F2F830C2F2000070
:10511000FFF7E8F9002818BFFDF726FE40F2F83047
:105120000024C2F2000008A9CDE90844FEF704FEFD
:10513000002818BFFDF718FE6020CDE90104039494
:10514000059440F2F834C2F2000401A9204600227E
:10515000FFF7B6F8002818BFFDF706FE206840F6F6
:105160000042C4F20002002190420F911CD040F294
:105170000041C4F20001884226D0B0F1804F41D1F5
:1051800000200E9043F63000C4F20200016841F0A6
:1051900001010160006800F001000E900E982020CF
:1051A0000F90012022E000BF43F630000E91C4F2C0
:1051B0000200016841F001010160006800F0010097
:1051C0000E900E9801200FE000200E9043F6300064
:1051D000C4F20200016841F001010160006800F0C2
:1051E00001000E900E9840200F9002200221109195
:1051F000002113900020CDE91111C4F202000FA983
:10520000FDF778FE14B010BDB0B594B040F2004583
:1052100040F24040C4F200050021C2F200005322D7
:1052200044F61F630D91CDE90B110991CDE90711EA
:10523000CDE90511CDE90311CDE90111C0E9005215
:10524000C0E9021301618161FEF7D4FD002818BF97
:10525000FDF78AFD4FF480500A9040F24040C2F2C0
:1052600000000AA9FEF7B0FE002818BFFDF77CFD7C
:1052700040F24040C2F20000FFF734F9002818BFA6
:10528000FDF772FD40F240400024C2F2000008A980
:10529000CDE90844FEF750FD002818BFFDF764FD76
:1052A0006020CDE901040394059440F24044C2F229
:1052B000000401A920460022FFF702F8002818BFC9
:1052C000FDF752FD206840F60042C4F200020021C2
:1052D00090420F9118D0A84226D0B0F1804F40D113
:1052E00000200E9043F63000C4F20200016841F045
:1052F00001010160006800F001000E900E9820206E
:105300000F90012022E000BF43F630000E91C4F25E
:105310000200016841F001010160006800F0010035
:105320000E900E9801200FE000200E9043F6300002
:10533000C4F20200016841F001010160006800F060
:1053400001000E900E9840200F9002200221109133
:105350000021CDE91111139005F5FE300FA9FDF7DD
:10536000C9FD14B0B0BD000080B586B040F28840E1
:1053700040F600020021C2F20000C4F200025323F2
:105380000591CDE90311CDE90011C0E90021C0E983
:105390000213016180218161FEF72CFD002818BFF6
:1053A000FDF7E2FC4FF48050029040F28840C2F2D8
:1053B000000002A9FEF708FE002818BFFDF7D4FC84
:1053C00040F28840C2F200006946FEF7B5FC0028B2
:1053D00018BFFDF7C9FC06B080BD0000B0B594B0A1
:1053E00040F6004540F2D040C4F200050021C2F270
:1053F0000000532244F61F630D91CDE90B11099172
:10540000CDE90711CDE90511CDE90311CDE9011170
:10541000C0E90052C0E9021301618161FEF7EAFCB4
:10542000002818BFFDF7A0FC4FF480500A9040F20E
:10543000D040C2F200000AA9FEF7C6FD002818BF3E
:10544000FDF792FC40F2D040C2F20000FFF74AF8AC
:10545000002818BFFDF788FC40F2D0400024C2F2BB
:10546000000008A9CDE90844FEF766FC002818BF33
:10547000FDF77AFC6020CDE901040394059440F225
:10548000D044C2F2000401A920460022FEF718FF12
:10549000002818BFFDF768FC20680021A8420F9182
:1054A0001CD040F20041C4F20001884226D0B0F185
:1054B000804F40D100200E9043F63000C4F202002D
:1054C000016841F001010160006800F001000E90E8
:1054D0000E9820200F90012022E000BF43F63000FC
:1054E0000E91C4F20200016841F001010160006800
:1054F00000F001000E900E9801200FE000200E90A9
:1055000043F63000C4F20200016841F0010101607D
:10551000006800F001000E900E9840200F900220CD
:10552000022110910021CDE91111139005F5FA30F7
:105530000FA9FDF7DFFC14B0B0BD000080B582B04C
:1055400040F2185041F200020021C2F20000C4F201
:105550000002532340F2E73CCDE90011C0E90023EB
:10556000C0E9021C8161FEF745FC002818BFFDF769
:10557000FBFB40F21850C2F200006946FEF7DCFB6C
:10558000002818BFFDF7F0FB02B080BD80B540F2E7
:10559000605041F20001C2F20000C4F20101002398
:1055A0004FF00C0C4FF4E13280E80E00C0E90333F9
:1055B000C0E905C3C361FFF75BF8002808BF80BDE1
:1055C000BDE88040FDF7D0BB80B540F2A85044F262
:1055D0000041C2F20000C4F2000100234FF00C0CA5
:1055E0004FF4E13280E80E00C0E90333C0E905C39F
:1055F000C361FFF73DF8002808BF80BDBDE88040CB
:10560000FDF7B2BBFEE7000080B52DED068B9FEDE8
:105610001B8A9FED1B1A20EE080A80EE019A9FED6F
:1056200019AA40F24420C2F20000B0EE4A0AF0EE9D
:10563000490A01F04DFD40F29C20C2F20000B0EE9C
:10564000480AF0EE490A01F043FD40F2F420C2F2AC
:105650000000B0EE4A0AF0EE490A01F039FD40F2CE
:10566000EC10C2F20000B0EE480AF0EE490ABDECC0
:10567000068BBDE8804001F02BBD00BFF5DB973EF7
:105680000000B442F5DB97BE80B52DED048B9FED95
:10569000189AB0EE408A40F24420C2F20000B0EE08
:1056A000490AF0EE480A01F013FD40F29C20C2F2D4
:1056B0000000B0EE490AF0EE480A01F009FD40F2A0
:1056C000F420C2F20000B0EE490AF0EE480A01F000
:1056D000FFFC40F2EC10C2F20000B0EE490AF0EE1E
:1056E000480ABDEC048BBDE8804001F0F1BC00BF6E
:1056F0003333B3BE80B52DED048B9FED189AB0EE19
:10570000408A40F24420C2F20000B0EE490AF0EEB6
:10571000480A01F0DDFC40F29C20C2F20000B0EE2D
:10572000490AF0EE480A01F0D3FC40F2F420C2F23C
:105730000000B0EE490AF0EE480A01F0C9FC40F260
:10574000EC10C2F20000B0EE490AF0EE480ABDECDF
:10575000048BBDE8804001F0BBBC00BF3333B33ED7
:1057600080B52DED048B9FED199AB0EE408A40F282
:105770004420C2F20000B0EE490AF0EE480A01F0FF
:10578000A7FC40F29C20C2F20000B0EE490AF0EE05
:10579000480A01F09DFC9FED0E9A40F2F420C2F2FF
:1057A0000000B0EE490AF0EE480A01F091FC40F228
:1057B000EC10C2F20000B0EE490AF0EE480ABDEC6F
:1057C000048BBDE8804001F083BC00BF3333B33E9F
:1057D0003333B3BE80B52DED048B9FED199AB0EE37
:1057E000408A40F24420C2F20000B0EE490AF0EED6
:1057F000480A01F06DFC40F29C20C2F20000B0EEBD
:10580000490AF0EE480A01F063FC9FED0E9A40F25F
:10581000F420C2F20000B0EE490AF0EE480A01F0AE
:1058200057FC40F2EC10C2F20000B0EE490AF0EE74
:10583000480ABDEC048BBDE8804001F049BC00BFC4
:105840003333B3BE3333B33EFEE700000000000045
:10585000EFF30980BFF36F8F154B1A681EF0100F1E
:1058600008BF20ED108A20E9F04F10602DE90900F3
:105870004FF0500080F31188BFF34F8FBFF36F8F4D
:1058800001F01CFF4FF0000080F31188BDE8090013
:1058900019680868B0E8F04F1EF0100F08BFB0ECB0
:1058A000108A80F30988BFF36F8F704700BF00BF75
:1058B000D400002040F2F830C2F2000000684FF43B
:1058C000FA7141637047000040F2F830C2F2000004
:1058D000006840F6C411416370470000F0B585B020
:1058E00040F2A4340020C2F20004ADF812004FF4DC
:1058F0007A7501260DF1120720469821DD22012339
:10590000CDE900760295FDF783FC781CCDE9000611
:1059100020469A21DD2201230295FDF779FC9DF8AE
:1059200012109DF8130040F2380201F00103C2F298
:105930000002D37100F00103D373C1F3400313726B
:10594000C0F340031374C1F380035372C0F38003A8
:105950005374C1F3C0039372C0F3C0039374C1F3D3
:105960000013D372C0F30013D374C1F34013137345
:10597000C0F340131375C1F380135373C0F3801346
:10598000C909C00953759173907505B0F0BD000049
:10599000F0B583B040F23807C2F2000740F250344D
:1059A0000326781CC2F200044FF47A75CDE9000694
:1059B00020469021D02201230295FDF729FC381DB5
:1059C000CDE9000620469021D12201230295FDF762
:1059D0001FFC03B0F0BD000000000000000000004C
:1059E000074B19680868B0E8F04F80F30988BFF3E7
:1059F0006F8F4FF0000080F31188704700BF00BF29
:105A0000D40000202DE9F04740F23808C2F2000827
:105A100098F8000040F2390740F2340640F250098D
:105A200040F2300A0228C2F20007C2F20006C2F2B7
:105A30000009C2F2000A23D17879EF2802D10220AE
:105A400016E000BF01244FF4C84500BFFFF7A0FFD8
:105A5000012001F075FD01203460C9F80050CAF83A
:105A6000004001F06DFD7879EF28EFD198F8000043
:105A700001214FF4AF223160C9F80020CAF80010AC
:105A8000032823D17879EF2802D1032016E000BF44
:105A900001244FF4C84500BFFFF77AFF012001F051
:105AA0004FFD01203460C9F80050CAF8004001F0F1
:105AB00047FD7879EF28EFD198F8000001214FF4E5
:105AC000AF223160C9F80020CAF80010012818BFC1
:105AD000BDE8F0877879EF2812D001244FF4C8454B
