:020000040800F2
:10000000F00A0020310200083D3800088D29000860
:10001000F9350008FD0A0008893E000800000000CC
:10002000000000000000000000000000B5380008DB
:10003000190C00080000000041380008D93A0008F7
:100040004B0200084B0200084B0200084B0200085C
:100050004B0200084B0200084B0200084B0200084C
:100060004B0200084B0200084B0200084B0200083C
:100070004B0200084B0200084B0200084B0200082C
:100080004B0200084B0200084B0200084B0200081C
:100090004B0200084B0200084B0200084B0200080C
:1000A0004B0200084B0200084B0200084B020008FC
:1000B0004B0200084B0200089D3B00084B02000861
:1000C0004B0200084B0200084B0200084B020008DC
:1000D0004B0200084B0200084B0200084B020008CC
:1000E0004B0200084B0200084B0200084B020008BC
:1000F0004B0200084B0200084B0200084B020008AC
:100100004B0200084B0200084B0200084B0200089B
:100110004B0200084B0200084B0200084B0200088B
:100120004B0200084B0200084B0200084B0200087B
:100130004B0200084B0200084B0200084B0200086B
:100140004B0200084B0200084B0200084B0200085B
:100150004B0200084B0200084B0200084B0200084B
:100160004B0200084B0200084B0200084B0200083B
:100170004B0200084B0200084B0200080000000080
:100180004B0200084B02000800F002F800F040F8B3
:100190000AA090E8000C82448344AAF10107DA45E2
:1001A00001D100F035F8AFF2090EBAE80F0013F0F4
:1001B000010F18BFFB1A43F001031847304A000033
:1001C000504A0000103A24BF78C878C1FAD85207C4
:1001D00024BF30C830C144BF04680C6070470000C1
:1001E0000023002400250026103A28BF78C1FBD840
:1001F000520728BF30C148BF0B6070471FB504F0DD
:10020000CCFC9DE8030000F05BF91FBD10B510BDEC
:1002100000F00CFA1146FFF7F1FF03F0ABFE00F01F
:100220002AFA03B4FFF7F2FF03BC00F05BFA000008
:100230000948804709480047FEE7FEE7FEE7FEE77A
:10024000FEE7FEE7FEE7FEE7FEE7FEE704480549B6
:10025000054A064B70470000893B000889010008E9
:10026000F0040020F00A0020F0060020F006002034
:1002700070B5064600F008F9056806F10B0020F09D
:100280000704B4429CBF002070BD2B466A68BAB117
:100290001068A04210D304F1080188423CBF5068A6
:1002A000586007D35168101941601168091B01603B
:1002B00058601460101D70BD13465268002AE7D1C3
:1002C0002146284600F0E8F80028DED170BD70B560
:1002D0000D460646041F00F0D7F80268BDB1DEB136
:1002E00005F10B0020F00701A9423CBF002070BDC2
:1002F00023688B4238BF506813D35A1A082A36D362
:10030000601840F8042B216000F010F92FE030460F
:1003100000F00CF9002070BD2846BDE87040FFF7E2
:10032000A7BF002818BFA0423CBF02464068F8D3D0
:1003300003EB040C84451CD1D0F800C063449942FF
:1003400017D8A3EB010CBCF1080F0DD3D0F804C0F3
:100350006318C3F804C0D4F800C000686044401AB1
:1003600018602160536002E0236040685060201DE7
:1003700070BD2846FFF77CFF050008D03146206895
:10038000021F284600F0F9F8201D00F0CFF828469B
:1003900070BD53EA020C00F069802DE9F04B4FF07C
:1003A0000006002B1FBFB3FA83F503FA05F424FA05
:1003B00005F65E4012BF1643B2FA82F502FA05F462
:1003C000C5F120051EBF22FA05FC44EA0C042035C5
:1003D00056EA044C4FEA144418BF641C4FF000085E
:1003E0004FF00009904271EB030C39D3002919BF7B
:1003F000B1FA81F701FA07F6B0FA80F700FA07F6CA
:10040000C7F120071EBF20FA07FC46EA0C0620377A
:10041000B6FBF4FCA7EB0507103F07F01F0BCBF171
:1004200020062CFA06F60CFA0BFB44BFB346002656
:10043000202FA4BF5E464FF0000B5BEA060C08BFFE
:100440004FF0010B19EB0B0948EB0608ABFB027CE4
:1004500006FB02CC0BFB03CCC01B71EB0C01C1E70C
:100460000B46024641464846BDE8F08B13B50843AB
:1004700018BF4FF0FF300146AFF30080BDE81C40CD
:100480007047704770477047004870471800002059
:10049000704770477047704738B504460A460020D9
:1004A0006946AFF30080002808BF38BD02460099B6
:1004B000204600F099F8012038BD012000F0AEB8C8
:1004C000F8B5AFF30080054600200C46102000BFB1
:1004D0000646A819A0420DD9324669460020AFF35E
:1004E0000080070008BF00F099F80098A04218BFEC
:1004F0000546C419FFF7C8FF05600746F01D20F048
:1005000007004619284600F00AF8B44208BFF8BDB3
:10051000A21B31463868BDE8F84000F065B80021FC
:100520000160C0E9011070471020704770B50446A3
:10053000051FFFF7A9FF0068002C14BF446870BDB9
:10054000002C18BFAC423CBF20466468F8D3016859
:100550000A18AA4218BF456003D12A68054611440B
:10056000016028684119A1421CBF6C6070BD6168C0
:10057000696021680844286070BD10B5203AC0F059
:100580000B80B1E81850A0E81850B1E81850A0E866
:100590001850203ABFF4F5AF5FEA027C24BFB1E8FF
:1005A0001850A0E8185044BF18C918C0BDE8104042
:1005B0005FEA827C24BF51F8043B40F8043B08BF4B
:1005C0007047D20728BF31F8023B48BF11F8012B12
:1005D00028BF20F8023B48BF00F8012B70470000FD
:1005E0000048704710000020034640688C460028F1
:1005F00018BF88423CBF03464068F8D318681844C7
:10060000884207D00CF1030020F00700001D411ABA
:10061000521A0146081D0A60FFF788BF10B500F0A6
:1006200039F8BDE8104000F02FB870477546FFF765
:10063000D7FFAE4605006946534620F007008546C1
:1006400018B020B5FFF702FEBDE820404FF00006CD
:100650004FF000074FF000084FF0000BAC46ACE83D
:10066000C009ACE8C009ACE8C009ACE8C00921F099
:1006700007018D46704710B50446AFF30080204651
:10068000BDE81040FFF7CDBD002801D000F02AB82A
:100690007047000010B5012805D0002103A000F02C
:1006A00027F8012010BD09A1F8E70000534947527F
:1006B000544D454D3A204F7574206F662068656132
:1006C00070206D656D6F7279000000003A204865FA
:1006D0006170206D656D6F727920636F72727570D5
:1006E0007465640001491820ABBEFEE726000200D5
:1006F00070B505460C460A2000E06D1C00F011F8AC
:1007000035B128780028F8D102E0641C00F009F81F
:1007100014B120780028F8D1BDE870400A20AFF36A
:10072000008008B569468DF800000320ABBE08BD07
:1007300010B540F29C00C2F200004068022809D1C6
:100740009FED1F0A02F05AFF9FED190ABDE8104005
:1007500002F0CABF9FED160A02F0FCFF9FED150ADA
:1007600002F04CFF9FED140A02F0BEFF40F293042A
:10077000C2F2000420796179084305D002F096FBAB
:10078000207961790843F9D103F07AF99FED0B0ADA
:1007900002F034FF20796179084305D002F086FB2E
:1007A000207961790843F9D1BDE8104003F068B9B8
:1007B0009A99193F00003443CDCCCC3D0000B4429F
:1007C0000000B4C240F29C00C2F200009FED260A75
:1007D000456802F013FF9FED250A02F085FF9FEDAB
:1007E000240A02F0F1FF40F29304C2F200042079DF
:1007F0006179084318BF0120022D13D130B100BF29
:1008000002F054FB207961790843F9D103F038F9FB
:100810009FED170A02F0D8FF02F048FB03F030F911
:10082000FAE700BF30B100BF02F040FB20796179E8
:100830000843F9D103F024F99FED0B0A02F0DEFE24
:1008400020796179084305D002F030FB2079617985
:100850000843F9D103F014F99FED060A02F0CEFE29
:1008600002F024FBFCE700BF0000B4C29A99193FD4
:100870009A99993E0000B44240F29C00C2F20000F6
:100880009FED1D0A456802F0B9FE9FED1C0A02F0BB
:100890002BFF9FED1B0A02F05DFF40F29304C2F2B2
:1008A000000420796179084318BF0120022D11D17D
:1008B00030B100BF02F0FAFA207961790843F9D12A
:1008C00003F0DEF89FED0F0A02F098FE02F0EEFA58
:1008D000FCE700BF30B100BF02F0E8FA207961798F
:1008E0000843F9D103F0CCF89FED060A02F086FE2A
:1008F00002F0DCFAFCE700BF0000B4C29A99193F8D
:100900009A99993E0000B44210B52DED028B40F249
:100910009C04C2F20004606802280FD0012815D0A0
:1009200080B99FED1E8AB0EE480A02F04DFF9FEDA0
:100930001C0A02F0D9FE5F2013E000BF0020012155
:10094000C4E90101BDEC028B10BD00BF9FED138A0D
:10095000B0EE480A02F038FF9FED110A02F0C4FE23
:10096000232003F093FA03F003F803F073F802F086
:1009700073FF9FED0C0A03F02FF8412003F086FA75
:10098000B0EE480A02F0E6FE9FED070A02F036FEDE
:10099000606801306060BDEC028B10BD9A99993E91
:1009A0009A99193E0000C8C20000344310B52DEDDD
:1009B000028B40F29C04C2F20004606802280FD04F
:1009C000012815D080B99FED1E8AB0EE480A02F0CA
:1009D000FBFE9FED1C0A02F087FE5F2013E000BFC4
:1009E00000200121C4E90101BDEC028B10BD00BF54
:1009F0009FED138AB0EE480A02F0E6FE9FED110A61
:100A000002F072FE232003F041FA02F0B1FF03F07E
:100A100021F802F021FF9FED0C0A02F0DDFF4120DA
:100A200003F034FAB0EE480A02F094FE9FED070A94
:100A300002F0E4FD606801306060BDEC028B10BD27
:100A40009A99993E9A99193E0000C8C20000344311
:100A500010B52DED028B40F29C04C2F200046068D8
:100A600002280FD0012815D080B99FED1E8AB0EE64
:100A7000480A02F0A9FE9FED1C0A02F035FE5F2035
:100A800013E000BF00200121C4E90101BDEC028B8D
:100A900010BD00BF9FED138AB0EE480A02F094FE2D
:100AA0009FED110A02F020FE232003F0EFF902F07F
:100AB0005FFF02F0CFFF02F0CFFE9FED0C0A02F0C5
:100AC0008BFF412003F0E2F9B0EE480A02F042FE4B
:100AD0009FED070A02F092FD606801306060BDEC96
:100AE000028B10BD9A99993E9A99193E0000C8C28E
:100AF0000000344302F0DAF9FCE70000FEE70000F2
:100B000080B52DED028B9FED138AB0EE480A02F0FE
:100B10005BFE40F28400C2F20000007840F2402107
:100B2000C2F20001086002F023FF02F093FF02F01E
:100B300093FE9FED090A02F04FFFB0EE480A02F063
:100B400009FE9FED060ABDEC028BBDE8804002F075
:100B500055BD00BF9A99993E0000C8C200003443B9
:100B600040F29300C2F20000017940790843B0FAE4
:100B700080F040097047000040F29300C2F200008C
:100B80000179407908431CBF0020704740F24020A3
:100B9000C2F2000000680338B0FA80F040097047E4
:100BA00040F29300C2F200000179407908431CBF73
:100BB0000020704740F29C00C2F200008068B0FA4A
:100BC00080F040097047000040F29300C2F200003C
:100BD0000179407908431CBF0020704740F2402053
:100BE000C2F2000000680138B0FA80F04009704796
:100BF00040F29300C2F200000179407908431CBF23
:100C00000020704740F24020C2F200000068023825
:100C1000B0FA80F0400970477047000010B540F20C
:100C20009304C2F2000420796179084306D000BF22
:100C300002F03CF9207961790843F9D102F020FFF4
:100C40009FED0C0A02F0DAFC9FED0B0A02F04CFD5E
:100C500020796179084305D002F028F9207961797B
:100C60000843F9D102F00CFF9FED040ABDE81040E3
:100C700002F0AABD0000B4C2CDCCCC3D9A99193F78
:100C800002F014F9FCE7000002F010F9FCE70000A4
:100C900080B52DED028B40F29C00C2F2000040684E
:100CA00002280BD0012811D040BB9FED168AB0EE70
:100CB000480A02F019FD7D200FE000BF02F0C2FDDE
:100CC000BDEC028BBDE8804002F0BABE9FED0D8AFC
:100CD000B0EE480A02F008FDFB2003F0D7F802F05E
:100CE000B1FD02F0ADFE412003F0D0F8B0EE480AAD
:100CF000BDEC028BBDE8804002F0C0BCBDEC028BB5
:100D000080BD00BF9A99193E80B52DED028B40F24F
:100D10009C00C2F20000406802280BD0012811D0CC
:100D200040BB9FED168AB0EE480A02F0DDFC7D2044
:100D30000FE000BF02F086FDBDEC028BBDE88040F5
:100D400002F07EBE9FED0D8AB0EE480A02F0CCFCA8
:100D5000FB2003F09BF802F075FD02F071FE4120CC
:100D600003F094F8B0EE480ABDEC028BBDE8804079
:100D700002F084BCBDEC028B80BD00BF9A99193E85
:100D800080B52DED028B40F29C00C2F2000040685D
:100D900002280BD0012811D040BB9FED168AB0EE7F
:100DA000480A02F0A1FC7D200FE000BF02F04AFDDE
:100DB000BDEC028BBDE8804002F042BE9FED0D8A83
:100DC000B0EE480A02F090FC232003F05FF802F036
:100DD00039FD02F035FE412003F058F8B0EE480A24
:100DE000BDEC028BBDE8804002F048BCBDEC028B3C
:100DF00080BD00BF9A99193E72B600BFFEE70000A1
:100E00002DE9F04140F28B02C2F2000216785778C9
:100E1000907886F0010187F00103194380F0010307
:100E200051EA030C1CD10120D07010799FED5F1A9C
:100E300001284FF0000E3DD1507901283AD1907928
:100E4000012837D1D0794FF0000801284FF0000376
:100E50004FF0000104BFB0EE0C0ABDE8F0812DE0B8
:100E6000B6FA86F19FED511A002E4FEA5113B9EEF2
:100E7000000A08BFB0EE401A0121002EB7FA87F52C
:100E8000B8EE040A08BF0221002F31EE000A0CBFA1
:100E9000B0EE401A19464FEA551818B14FF0000E3F
:100EA0000CE000BFBFEE000A31EE001A01314FF036
:100EB000010E03E000234FF000080021D578BEEEBC
:100EC000000A167931EE000AB6EE002A54799079BC
:100ED000002D04BFB0EE401A013131EE020A002E9F
:100EE00004BFB0EE401A0131B7EE000A31EE000A3D
:100EF000002C04BFB0EE401A0131B0EE040AB5FA7E
:100F000085F731EE000A002804BFB0EE401A013127
:100F1000D27903EA08037F09B1EE003A03EA0E032F
:100F200031EE030A002A03EA070304BFB0EE401AB9
:100F30000131012BB0EE0C0A08BF002E2CD0671E29
:100F4000B7FA87F77F093B40012B08BF012829D05A
:100F5000BCFA8CF3B6FA86F75B097F093B40012B9C
:100F600008BF002C04D118B9002A08BFBDE8F081E1
:100F700000EE101AB8EEC00A81EE000AB6EE0C1AA6
:100F800030EE030A20EE010A30EE020ABDEEC00A7E
:100F9000B8EEC00A08E000BF002CD0D10028CED1A6
:100FA00012B1CCE7012AD3D1BDE8F08100000000E6
:100FB000B0B5044600F0EAF8054640F20000C2F27F
:100FC00000000078611C18BF044400BF00F0DEF888
:100FD000401BA042FAD3B0BD2DE9F04F82B000F122
:100FE0003E4241F6004502F1FF77C4F202050822B5
:100FF00043F6004E4FEAB726A84208BF0722C4F2C4
:10100000010E072E38BF4FEAB72201250026002720
:101010004FF00008009208E008F101080437B8F129
:10102000100F06F1020600F0A7800C6805FA08F917
:1010300014EA090FF0D0D1F804B003220BF0030C2E
:10104000ACF10104B240012C6FEA020A10D88268A8
:10105000CC6802EA0A02B440224382604268CBF3C1
:10106000001422EA090204FA08F42243426005E06F
:10107000BCF1030F02D14FF0030C20E0C2688C6872
:1010800002EA0A02B4402243BCF1020FC26016D148
:101090006FF0030202EA58020244D2F820C007F0BF
:1010A0001C050F230C69AB402CEA030304FA05F579
:1010B0002B431362D1F804B001250BF0030C026836
:1010C0000CFA06F302EA0A021A431BF4403F0260DC
:1010D000A2D0002243F644030192C4F202031A682C
:1010E0004FF6084C42F480421A601A68CFF6FF7C33
:1010F00002F480420192019A28F00302724452F8ED
:101100000C3007F00C050F24AC40A343009C04FAFC
:1011100005F52B4342F80C30DEF808204B6842EA14
:10112000090543F60C4CDC0258BF22EA0905CEF84B
:101130000850C4F2010CDCF800209C0242EA0905C8
:1011400058BF22EA0905CCF80050DEF804209C03C1
:1011500042EA090558BF22EA0905CEF80450DEF834
:101160000020DB0342EA090558BF22EA0905CEF850
:101170000050012550E700BF02B0BDE8F08F00002D
:10118000002A08BF090481617047000040F2E8406E
:10119000C2F200000068704770B5B8B3044690F81A
:1011A0003D0028B9002084F83C00204600F0DEF91C
:1011B000242084F83D002068016821F001010160CD
:1011C000016841F400410160016821F400410160BF
:1011D00000F0C2FB48F28041C0F21E0140F600134D
:1011E000D4F804E088424FF00001C0F23D0348F219
:1011F000A16C4FF0000238BF01219842C0F2010CEF
:1012000038BF0122E64538BF0A460AB1012070BD49
:101210004DF68361C4F21B31A0FB01122168950CCD
:101220004B684FF4967623F03F0343EA92437543AD
:1012300044F6D3564B60C1F262060B6AA5FB065614
:10124000B50923F03F03E64538BF950C6A1C1A43E5
:101250000A62CA6948F2A0664CF6FF73C0F2010642
:10126000B64522EA03020BD801384FEA4E03B0FB21
:10127000F3F001306FF31F30042898BF04201EE004
:10128000A368013863B119230EFB03F3B0FBF3F03D
:1012900001306FF31F3078B100F5804008E000BFE7
:1012A0000EEB4E03B0FBF3F001306FF31F3028B1AB
:1012B00000F5004003E000BF012000E001201043E2
:1012C000C8610868D4E9072320F0C0001043184320
:1012D0000860886848F2FF3204F10C0690434CCE57
:1012E00018431043A5698860C86820F0FF003043A8
:1012F0002843C860086840F00100086000202021F1
:10130000206484F83D10206384F83E0070BD000026
:101310002DE9F04784B0994616460F460446FFF77C
:1013200035FF94F83D10202927D10546206800BFDD
:10133000816989071CD5FFF729FF411B20681A29FD
:10134000F6D381698907F3D500202021206384F832
:101350003D1084F83E00206C04F13C0A40F020006F
:101360002064022000218AF8001004B0BDE8F08754
:10137000A2461AF83C1F012904D1022004B0BDE89E
:10138000F08700BF01228AF800200368DDE90D180C
:101390000C9ADB0703D1036843F001030360036881
:1013A00023F400630360222084F83D00402084F889
:1013B0003E000020206462626185608D3946208590
:1013C0000020CFF6FF70E062204632464B46CDF853
:1013D0000080019501F0DCFA20B1012004B0BDE8E5
:1013E000F08700BF208DA8B102282BD0012835D16D
:1013F00021680A6822F480620A60002203924A6926
:1014000003928A690392039A0A6842F400720A609E
:101410002CE000BF0020039020684169039181699E
:1014200003910399016841F400710160202084F860
:101430003D00002084F83E0000218AF8001004B02E
:10144000BDE8F08721680A6822F480620A600A68B1
:1014500042F400620A600022039202E0002103913C
:1014600021684A6903928969039103990427C0F2AC
:1014700001070CE010690870606A218D013060621C
:10148000481E2085618D013961850104CED080B26E
:1014900003280FD802284AD001282DD120464146E2
:1014A0002A4601F05BFC002897D12068616A006938
:1014B000E1E700BF204641462A4601F04FFC0028E4
:1014C0007FF48BAF2068616A00690870606A2268E7
:1014D000411C208D616201382085638D013B63854D
:1014E00053695B07D1D580B20328C3D1106820F4BB
:1014F00080601060BEE700BF2046394600224346A8
:10150000009501F0D1FA00287FF467AF2068616A86
:10151000026822F48062026000690870606A218DAE
:1015200001306062481E2085608D0138608520464C
:10153000394600224346009501F0B6FA00287FF4B0
:101540004CAF2068616A026842F400720260006970
:101550000870606A2268411C6162218D0139218511
:10156000618D013961851169417085E72DE9F04789
:1015700086B0006845F60041C4F2000100268842AA
:10158000CDE90466CDE90266019633D045F6000147
:10159000C4F20001884272D1002543F63004009560
:1015A000C4F20204206801A940F002002060206813
:1015B00000F00200009000984FF44060019012206B
:1015C000CDE9020503200490042005900020C4F218
:1015D000020000F58060FFF7FFFC0095206940F4F1
:1015E00080002061206900F480000090009806B01F
:1015F000BDE8F08743F630070096C4F2020738686A
:10160000002440F0040038603868C4F2020400F09E
:101610000400009000980096386801AD40F0010089
:10162000386038684FF0120800F001000090009810
:101630004FF4007001904FF003094FF0040A04F5D5
:1016400000602946CDE90286CDF81090CDF814A0AF
:10165000FFF7C2FC4FF48070CDE9010803A880E8D1
:10166000400620462946FFF7B7FC0096386940F44B
:1016700000003861386900F400000090009806B05E
:10168000BDE8F08740F2000040F2E841C2F20000FD
:10169000C2F2000100780A68104408607047000038
:1016A00080B543F60040C4F20200016841F40071C5
:1016B0000160016841F480610160016841F480715A
:1016C0000160032000F088F8002000F005F800F029
:1016D00027F8002080BD000070B540F20006C2F27D
:1016E000000640F20C013278C2F200014FF47A7326
:1016F0000968B3FBF2F20446B1FBF2F1084600F0D0
:1017000043FB0F2C4FF0010508D838B94FF0FF30DC
:1017100021460022002500F033F87460284670BD91
:1017200082B0002043F640010190C4F202014A68F1
:1017300042F480424A604A6802F480420192019A6F
:101740000090086840F080500860086800F0805001
:101750000090009802B07047002848BF7047C1B29F
:1017600000F01F00012202FA00F04EF20012CEF249
:10177000000242EAD10121F0030108607047000035
:1017800010B54EF60C5CCEF2000CDCF80030C3F362
:10179000022E8EF00704042C28BF0424BEF103039C
:1017A0004FF0FF3E0EFA04F438BF0023A1439940E6
:1017B0000EFA03F39A43114300F00F0200F1604365
:1017C0000901043A03F564436244002848BF02F16A
:1017D0000C03197010BD00004EF60C51CEF2000142
:1017E0000A684FF6FF031A4060F30A2242F0806055
:1017F00040F0FD70086070472DE9F041002800F0CE
:101800008B8043F60808C4F202080446D8F8F803AF
:101810000D4600F00700884207D288F8F853D8F840
:10182000F80300F00700A84276D12068810717D599
:10183000410705D5D8F8001041F4E051C8F8001070
:10184000010705D5D8F8001041F46041C8F8001030
:10185000D8F80010A26821F0F0011143C8F8001078
:10186000C0073FD1D8F8F80300F00700A84207D915
:1018700088F8F853D8F8F80300F00700A8424BD1D5
:101880002068410707D5D8F80010E26821F4E0513C
:101890001143C8F80010000708D5D8F800002169E6
:1018A00020F4604040EAC100C8F8000000F07CF875
:1018B000D8F8001044F6B432C1F30311C0F60002A8
:1018C000515C40F20C0220FA01F140F20400C2F235
:1018D00000000068C2F200021160FFF7FDFE002068
:1018E000BDE8F0816068811E022907D258F8081C03
:1018F00089015CBF0120BDE8F08111E0012807D11A
:1019000058F8081C89035CBF0120BDE8F08107E09E
:1019100058F8081C890703D40120BDE8F08100BFF6
:10192000D8F8001021F003010843C8F80000FFF7C1
:101930002DFC064641F28837D8F80000616800F0B7
:101940000C00B0EB810F8DD0FFF720FC801BB8425C
:10195000F2D90320BDE8F08140F20C0043F6080103
:10196000C2F20000C4F202010068096844F6C43201
:10197000C1F38221C0F60002515CC84070470000EC
:1019800040F20C0043F60801C2F20000C4F202016A
:101990000068096844F6C432C1F34231C0F600025F
:1019A000515CC8407047000010B543F60404C4F20F
:1019B0000204606800F00C0008280BD0042819BF4E
:1019C00042F20040C0F2F40047F64000C0F27D1041
:1019D00010BD00BF206821682368490247F6400116
:1019E000C0F27D1100F03F02C3F388105CBF42F2E9
:1019F0000041C0F2F401A1FB00010023FEF7C9FC85
:101A000021680222C1F3014102EB4101B0FBF1F078
:101A100010BD00002DE9F04182B0002868D00446D6
:101A2000007843F60006C007C4F202060BD0B06887
:101A300000F00C00042840F09F803068800302D53D
:101A40006068002854D0207880071AD5B06810F05C
:101A50000C0F09D0B06800F00C00082840F0A680F8
:101A60007068400200F1A2803068800702D5E0680B
:101A700001283DD13068216920F0F80040EAC1001A
:101A800030602078000737D4207840074CD4A5690F
:101A900055B3B06800F00C00082840F0BB80012D61
:101AA00026D07068E16900F480028A4220D1216A60
:101AB00000F03F028A421BD147F6C071626A0140C2
:101AC000B1EB821F14D1A16A4FF6FF73C90399438A
:101AD00000F44032A1F580318A4209D1E16A00F078
:101AE0007060B0EB016F03D1002002B0BDE8F0815F
:101AF000012002B0BDE8F0816069002840F20000DA
:101B0000C4F2472076D00121C0F8801EFFF73EFBCB
:101B1000054600BF706F8007B6D4FFF737FB401B48
:101B20000228F7D9DDE000BF306C10F080580AD1F0
:101B300000200190306C40F080503064306C00F038
:101B400080500190019847F20007C4F200073868FE
:101B5000C00541D4386840F480703860FFF716FB48
:101B6000054600BF3868C00536D4FFF70FFB401BA1
:101B70000228F7D9B5E000BFB06800F00C000828D3
:101B800003D1706840023FF558AF6068B0F5803F00
:101B900007D0B0F5A02F40F08D80306840F4802051
:101BA0003060306840F4803030608DE0E0680028BC
:101BB00052D00020C4F2472001210160FFF7E6FA6D
:101BC000054600BF306880073FF554AFFFF7DEFAE7
:101BD000401B0228F6D984E0A068012805D005281A
:101BE0004ED1306F40F004003067306F40F001009C
:101BF00030674FE00021C0F8801EFFF7C7FA0546A6
:101C0000706F80077FF540AFFFF7C0FA401B0228D6
:101C1000F6D966E00027C4F2472700203866FFF7B0
:101C2000B5FA022D05460BD1306880015ED5FFF76D
:101C3000ADFA401B02284FF00300F5D955E700BF6D
:101C4000306880017FF550AFFFF7A0FA401B0228F3
:101C50004FF00300F4D948E70020C4F247200021E8
:101C60000160FFF793FA0546306880077FF509AFFA
:101C7000FFF78CFA401B02284FF00300F4D934E739
:101C8000316F002821F001013167316F21F004012B
:101C900031674DD0FFF77AFA054641F2883700BF29
:101CA000306F800756D4FFF771FA401BB842F7D95E
:101CB00017E000BF3168002821F4803131603168BD
:101CC00021F4802131604FD0FFF760FA054600BF54
:101CD000306880033FF5B7AEFFF758FA401B642821
:101CE000F6D9032002B0BDE8F08100BF04F11C0565
:101CF0002FCD084340EA8210D9034FF6FF7291437B
:101D0000A1F5803140EA0560084370600120386623
:101D1000FFF73CFA044600BF306880013FF5E4AEAF
:101D2000FFF734FA001B02284FF00300F4D9DCE679
:101D3000FFF72CFA054641F2883700BF306F800765
:101D400008D5FFF723FA401BB8424FF00300F5D93E
:101D5000CBE600BFB8F1000F7FF499AE306C20F0F5
:101D60008050306493E600BFFFF710FA054600BFCD
:101D7000306880037FF567AEFFF708FA401B6428E0
:101D80004FF00300F4D9B0E6411E0020B0EB116F14
:101D90001CBF012070474EF21002CEF200025160CB
:101DA0004EF62351CEF20001F0230B700721906014
:101DB00011607047704700007047000010B590F840
:101DC0003C20012A4FF0020251D080F83D200268E9
:101DD000D2F804E0D2F808C00C682EF07003234358
:101DE00041F2FF74C4F20004A24253600EDC40F2E0
:101DF000FF73C4F200039A4216DCB2F1804F2BD07D
:101E000040F20043C4F2000324E000BF40F2FF337D
:101E1000C4F201039A4213DC41F60003C4F200034A
:101E20009A4219D0002313E040F60003C4F20003E5
:101E30009A4211D040F60043C4F200030AE000BF0A
:101E400044F20003C4F201039A4205D040F2004379
:101E5000C4F201039A4204D149682CF0800319436B
:101E600091600121002280F83D1080F83C2010464E
:101E700010BD0000002804BF0120704710B50446C3
:101E800090F83D0028B9002084F83C00204600F07E
:101E90001FF8022084F83D002068211D01F0DAFEC1
:101EA000012084F8460084F83E0084F83F0084F85E
:101EB000400084F8410084F8420084F8430084F82C
:101EC000440084F8450084F83D00002010BD000067
:101ED00080B582B0006800F140404FEAB02004288D
:101EE00063D8DFE800F0031527415300002001907C
:101EF00043F64000C4F20200016841F001010160B4
:101F0000006800F001000190019802B080BD00BFA0
:101F10000020019043F64000C4F20200016841F045
:101F200002010160006800F002000190019802B017
:101F300080BD00BF0020019043F64000C4F20200C3
:101F40000168002241F0040101600068002100F0F6
:101F50000400019001981E20FFF712FC1E2002B021
:101F6000BDE88040FFF7F8BB0020019043F6400039
:101F7000C4F20200016841F008010160006800F04D
:101F800008000190019802B080BD00BF00200190C0
:101F900043F64000C4F20200016841F01001016004
:101FA000006800F010000190019802B080BD0000B0
:101FB00090F83D1001291CBF01207047022180F8D4
:101FC0003D10006841F2FF72C168C4F20002904205
:101FD00041F00101C1600DDC40F2FF71C4F200016B
:101FE000884215DCB0F1804F2AD040F20041C4F2A3
:101FF000000123E040F2FF31C4F20101884213DC0A
:1020000041F60001C4F20001884219D0002113E01A
:1020100040F60001C4F20001884211D040F60041B0
:10202000C4F200010AE000BF44F20001C4F2010161
:10203000884205D040F20041C4F20101884206D135
:10204000816801F00701062904BF0020704701687C
:1020500041F00101016000207047000080B590F858
:102060003C20012A4FF0020200F0C28080F83D209F
:10207000D0F800C04FF67772DCF8083023EA02028D
:10208000CCF808200B684F2B28DC1F2B44DD202BBD
:1020900045D0302B43D0402B40F0AC80D1F804E049
:1020A000C968DCF82030DCF8202022F00102CCF8EE
:1020B0002020DCF8182022F0F00242EA011123F07F
:1020C0000A0242EA0E02CCF81810CCF82020DCF804
:1020D000081041F0470121F0300180E06F2B27DD2F
:1020E000B3F5005F48D0B3F5805F7AD0702B40F035
:1020F0008180D1E901E3C968DCF8082043EA0E03D6
:1021000022F47F4243EA01211143CCF80810DCF8A5
:10211000081041F0770162E00BB1102B6AD1DCF8B6
:10212000081021F07001194341F0070157E000BF8A
:10213000502B35D0602B5DD1D1F804E0C968DCF8B4
:102140002030DCF8202022F01002CCF82020DCF82F
:10215000182022F4704242EA013123F0A00242EA40
:102160000E12CCF81810CCF82020DCF8081041F042
:10217000670121F0100132E0D1E901E3C968DCF820
:10218000082043EA0E0322F47F4243EA012111436F
:10219000CCF80810DCF8081041F480411FE000BFC3
:1021A000D1F804E0C968DCF82030DCF8202022F007
:1021B0000102CCF82020DCF8182022F0F00242EADC
:1021C000011123F00A0242EA0E02CCF81810CCF8F2
:1021D0002020DCF8081041F0570121F02001CCF854
:1021E00008100022012180F83D10002180F83C10E9
:1021F000104680BD0122F5E77047000070B5044627
:102200000068C5680669B10716D515F0020113D03C
:102210006FF002010161012121778069800703D0FD
:102220002046FFF7E9FF05E0204600F08FF8204642
:1022300000F0D0F900202077700719D515F00400C0
:1022400016D020686FF004010161022121778069B6
:1022500010F4407F04D02046FFF7CEFF06E000BF19
:10226000204600F073F8204600F0B4F900202077F3
:10227000300717D515F0080014D020686FF008015A
:10228000016104212177C069800703D02046FFF750
:10229000B3FF05E0204600F059F8204600F09AF917
:1022A00000202077F00619D515F0100016D0206810
:1022B0006FF01001016108212177C06910F4407F9F
:1022C00004D02046FFF798FF06E000BF204600F04C
:1022D0003DF8204600F07EF900202077F00718BF77
:1022E00015F0010002D1300609D412E020686FF029
:1022F00001010161204600F0F9F9300609D515F019
:10230000800006D020686FF0800101612046FFF751
:1023100051FD700609D515F0400006D020686FF019
:1023200040010161204600F0E3F9B00658BF70BDDE
:1023300015F0200008D021686FF0200220460A61C5
:10234000BDE87040FFF738BD70BD00007047000069
:102350002DE9F04390F83C30012B04BF0220BDE88A
:10236000F0834FEAB202032A00F2FC80DFE802F0B9
:10237000023E7EBE036840F200471C6A1A6A24F0DF
:10238000020422F001021A621A46D3F804E052F85D
:1023900018CF8E6843F48065C4F20107BD4244EA59
:1023A000060405D1CE6824F00C0426F0040634435C
:1023B0000E68BD4207D1D1E905572EF4407E45EAAB
:1023C0000E0545EA070E2CF073073743C3F804E007
:1023D0009F614F6809695F631C629F6947F0080746
:1023E0009F619F6927F004079F61B1E0036840F295
:1023F00000481C6A1A6A24F0200422F010021A62B3
:102400001A46D3F804C052F818EF8F6843F4806579
:10241000C4F20108454544EA071407D1CF686FF0BC
:10242000400624F0C00406EA07163443D1F80090B1
:10243000454506D1D1E905562CF440672E4347EABD
:10244000860C2EF4E64747EA0927C3F804C09F61CB
:102450004F6809699F631C629F6947F400679F6129
:102460009F6927F480679F6171E000BF036840F2B5
:1024700000481C6A1A6A24F4007422F480721A62FA
:102480001A46D3F804C052F81CEF8F6843F48065F5
:10249000C4F20108454544EA072408D1CF6840F258
:1024A000FF463F0224F4406427EA06063443D1F88D
:1024B0000090454506D1D1E905562CF440572E43EE
:1024C00047EA061C2EF0730747EA0907C3F804C061
:1024D000DF614F680969DF631C62DF6947F0080745
:1024E000DF61DF6927F00407DF6131E0036840F254
:1024F0000045D3F820C01A6A43F4806722F4805262
:102500001A621A465C6852F81CEFD1F800808E6897
:10251000C4F20105AF4204D14D6924F4804444EA79
:1025200085142CF4005747EA06372EF4E64646EAAF
:1025300008265C60DE614E6809691E641F62DF69FF
:1025400047F40067DF61DF6927F48067DF61090214
:102550001368194311600021002280F83C200846CE
:10256000BDE8F0830121002280F83C200846BDE848
:10257000F0830000002804BF0120704710B5044616
:1025800090F83D0028B9002084F83C00204600F077
:102590001FF8022084F83D002068211D01F05AFB3D
:1025A000012084F8460084F83E0084F83F0084F857
:1025B000400084F8410084F8420084F8430084F825
:1025C000440084F8450084F83D00002010BD000060
:1025D000704700007047000041B1082910D004295D
:1025E00014BF00F1410200F13F020BE090F83E20E1
:1025F000012A1CBF01207047022280F83E2013E010
:1026000000F140021278012A1CBF0120704702220B
:10261000082907D0042914BF80F8412080F83F2002
:1026200002E000BF80F84020006801F01F01012295
:10263000036A02FA01F123EA01020262026A11430B
:1026400041F2FF72C4F20002904201620CDC40F2DF
:10265000FF71C4F20001884214DCB0F1804F37D022
:1026600040F2004116E000BF40F2FF31C4F2010128
:10267000884215DC41F60001C4F20001884227D0EF
:10268000002115E040F60001C4F2000188421FD08D
:1026900040F60041C4F20001884219D01FE000BF9B
:1026A00044F20001C4F20101884211D040F200411D
:1026B000C4F20101884212D1416C40F2004340F45F
:1026C0008062C4F2010341F400419A42416406D1A0
:1026D000816801F00701062904BF002070470168E6
:1026E00041F00101016000207047000070470000C8
:1026F00070470000002804BF0120704710B5044651
:1027000090F8410028B9002084F84000204600F0ED
:1027100021F8242084F841002068C16821F4005188
:10272000C160204601F038FB2068016921F4904126
:102730000161416921F02A014161C16841F4005100
:10274000C16000202021606484F8411084F84210A8
:10275000606310BD80B586B0006844F20042C4F2E8
:10276000000200219042CDE90411CDE9021101914E
:1027700024D041F20001C4F20101884248D1002076
:1027800043F630010090C4F202014A6942F010029F
:102790004A614A6902F010020092009A00900868AB
:1027A00040F00100086008684FF4C06100F00100CB
:1027B000009000980020C4F202001DE043F63000B3
:1027C0000091C4F20200026942F40032026102691F
:1027D00002F400320092009A0091016841F0080171
:1027E00001600068602100F008000090009800205F
:1027F000C4F2020000F54060019102210291002123
:102800000391032104910721059101A9FEF7E4FB3F
:1028100006B080BD2DE9F041044690F84100202823
:102820001CBF0220BDE8F0810D4600294FF00100D9
:1028300000F0AA801646002A08BFBDE8F0810020FB
:1028400060642120984684F84100FEF79FFCA6842E
:10285000E684A1680646B1F5805F02D120690028B0
:1028600062D02F460025E08C002861D018F10100CD
:1028700018D0B8F1000F37D1216808E017F8010B24
:102880004860E08C0138E084E08C002851D0086872
:10289000000673D5002FF1D135F8020B00276FF336
:1028A0005F20EDE7216802E00868000609D40868A7
:1028B000000606D4086800065CBF08685FEA00608E
:1028C000F2D51FB117F8010B05E000BF35F8020B78
:1028D00000276FF35F204860E08C0138E084E08CD3
:1028E0000028E4D125E000BF216800BF0868000689
:1028F00008D4FEF74BFC801B404541D82168C868CE
:10290000F4E700BF17B117F8010B04E035F8020B2C
:1029100000276FF35F204860E08C0138E084E08C92
:102920000028E3D105E000BF0027E08C00289DD1FE
:102930002168086840061FD4B8F1000F1ED018F1B6
:1029400001000FD10868400616D40868400613D469
:102950000868400610D4086840064FF00000F1D522
:102960000FE000BFFEF712FC801B404508D820682E
:10297000C16800684006F5D5002002E0FEF706FCBD
:102980000320202184F84110BDE8F081FEE700001B
:102990002DE9F04782B0044600680E460168DDF874
:1029A00028A041F4806101600168DDF82C9041F4B9
:1029B00080711D461746016020464FF0011100222C
:1029C0005346CDF8009000F06FF858B120680068C9
:1029D000C00544BF4FF400702064032002B0BDE87E
:1029E000F08700BF40F202082068C0F2010806F03C
:1029F000FE0606612046414652464B4600F03EF92F
:102A000020B1012002B0BDE8F08700BF0020019096
:102A100020684A46416901918069514601900198B8
:102A2000204600F0E3F998B92068012D08D0390A52
:102A30000161204651464A4600F0D8F940B9206865
:102A4000F9B20161204651464A4600F0CFF958B12B
:102A5000206C0428D5D12068016841F40071016020
:102A6000012002B0BDE8F0872068002201685346CB
:102A700041F48071016020464FF00111CDF80090C3
:102A800000F012F80028A1D1206846F00101016190
:102A90002046414652464B4600F0F0F8002818BF49
:102AA000012002B0BDE8F0872DE9F041054600683D
:102AB0001E46144601F47F0201338FB242D0DDF886
:102AC0001880B2F5803F40F0878040693840C01BD5
:102AD000B0FA80F04009A04240F0C8804EB924E02E
:102AE00040693840C01BB0FA80F04009A04240F075
:102AF000BD80FEF74BFBA0EB08012868B142EFD97F
:102B000041693940C91BB1FA81F14909A142E7D1B4
:102B10009BE000BF40693840C01BB0FA80F040091C
:102B2000A0424FF0000040F0A680FEF72FFB28687F
:102B300041693940C91BB1FA81F14909A142E9D182
:102B400083E000BFB2F5803F24D100BF4169394026
:102B5000C91BB1FA81F14909A14240F0878041695E
:102B60003940C91BB1FA81F14909A14240F07E8088
:102B700041693940C91BB1FA81F14909A14275D1B6
:102B800041693940C91BB1FA81F14909A142DDD03F
:102B90006CE000BF81693940C91BB1FA81F1490974
:102BA000A14263D181693940C91BB1FA81F1490958
:102BB000A1425BD181693940C91BB1FA81F1490950
:102BC000A14253D181693940C91BB1FA81F1490948
:102BD000A142DFD04AE000BF80693840C01BB0FA94
:102BE00080F04009A04241D146B923E080693840D5
:102BF000C01BB0FA80F04009A0423BD1FEF7C6FAF4
:102C0000A0EB08012868B142F0D981693940C91B9D
:102C1000B1FA81F14909A142E8D116E08069384052
:102C2000C01BB0FA80F04009A0424FF0000018BF6E
:102C3000BDE8F081FEF7AAFA286881693940C91B0E
:102C4000B1FA81F14909A142E8D10020202128638D
:102C500085F83D1085F83E00296C41F0200129647B
:102C600085F83C000120BDE8F08100BF0020BDE8F0
:102C7000F08100BF0020BDE8F0810000F0B581B018
:102C8000044600681D4643698FB203EA0701B94252
:102C900002D1002001B0F0BD41691646013201F4B5
:102CA000806125D0002940D1CEB100BFFEF76EFA79
:102CB000411B2068B14203D941693940B9424BD127
:102CC00041693940B942E4D041694905EED52CE06B
:102CD00041693940B942DCD04169490525D4FEF744
:102CE00055FA206841693940B942F1D0202024E0EA
:102CF000D9B941693940B942CBD04169490514D4A9
:102D000041693940B942C4D0416949050DD441698E
:102D10003940B942BDD04169490506D441693940BD
:102D2000B942B6D041694905E3D5016841F4007163
:102D300001606FF480614161042000212022216341
:102D400084F83D2084F83E10226C1043206484F8FF
:102D50003C10012001B0F0BD2020EEE770B5044624
:102D60000068154650F8143F5A063DD40E4629B95E
:102D700026E000BF50F8141F490635D40168C90683
:102D800021D4FEF703FA411B2068B142F2D9416910
:102D90004906EFD400202021206384F83D1084F8F8
:102DA0003E00206C40F0200018E000BFFEF7EEF976
:102DB000206850F8141F4906ECD50168490613D461
:102DC0000168C906F2D56FF01001016000202021D2
:102DD000206384F83D1084F83E00206C20640020BD
:102DE00084F83C00012070BD002070BD70B5036800
:102DF000044653F8140F000611D40E46481C29D07F
:102E000086BB00BF1868400527D4FEF7BFF92368CA
:102E100053F8140F000639D518680006F2D50020C3
:102E200070BD00BF18680006F9D41868400514D4B6
:102E300018680006F3D4186840050ED41868000618
:102E4000EDD41868400508D4186800064FF000005B
:102E500048BF70BD18684005E4D56FF48060186005
:102E6000042014E0154603E053F8140F0006D6D4EE
:102E700018684005F1D4FEF789F9401B2368B04279
:102E8000F2D958690006EFD4202000E0202000216C
:102E90002022216384F83D2084F83E10226C1043E8
:102EA0002064012084F83C1070BD000080B52DED39
:102EB000048BFDF7A5FFB0EE408AB0EE0C0AB4EE2D
:102EC000408AF1EE10FA21D19FED299A40F2E000FC
:102ED000C2F20000B0EE490A01F0CAFA40F238101E
:102EE000C2F20000B0EE490A01F0C2FA40F29010BE
:102EF000C2F20000B0EE490A01F0BAFA40F2E8105E
:102F0000C2F20000B0EE490A01F0B2FAB8EE0C0AC3
:102F10009FED181A38EE000A9FED152A20EE010ADF
:102F200030EE028A40F2E00032EE409AC2F2000037
:102F3000B0EE480A01F09CFA40F23810C2F20000EC
:102F4000B0EE490A01F094FA40F29010C2F200008B
:102F5000B0EE480A01F08CFA40F2E810C2F200002C
:102F6000B0EE490ABDEC048BBDE8804001F080BAA8
:102F7000CDCC4C3ECDCC4C3D70B586B0002543F653
:102F8000300005950095C4F20200016840F6000487
:102F900041F0800101600168C4F2020401F0800187
:102FA0000091009900950168002241F00101016043
:102FB0000168C02601F001010091009900950168A7
:102FC00041F002010160016801F0020100910099E5
:102FD0000095016841F004010160016801F00401FD
:102FE000009100990095016841F0080101600068B6
:102FF000C02100F00800009000982046FEF7C0F8BD
:103000000120CDE9020501A9204601960495FDF7AE
:10301000E3FF06B070BD000080B540F2442045F6E5
:103020000001C2F20000C4F2000100234FF4804C02
:1030300042F2107280E80E00C0E9033CC0E905339B
:10304000C0E90733FEF7A8F8002808BF80BDBDE837
:103050008040FDF7D1BE000080B540F2982045F6D3
:103060000041C2F20000C4F2000100234FF4804C82
:1030700042F2107280E80E00C0E9033CC0E905335B
:10308000C0E90733FEF788F8002808BF80BDBDE817
:103090008040FDF7B1BE000010B594B040F2EC20C6
:1030A0000021C2F200004FF08042532344F61F6417
:1030B0000D91CDE90B110991CDE90711CDE905116C
:1030C000CDE90311CDE90111C0E90023C0E90214E3
:1030D00001618161FEF7CEFE002818BFFDF78CFE6E
:1030E0004FF480500A9040F2EC20C2F200000AA98E
:1030F000FEF7B4FF002818BFFDF77EFE40F2EC207B
:10310000C2F20000FFF736FA002818BFFDF774FE80
:1031100040F2EC200024C2F2000008A9CDE90844E6
:10312000FEF74CFE002818BFFDF766FE6020CDE9D3
:1031300001040394059440F2EC24C2F2000401A9B6
:1031400020460022FFF704F9002818BFFDF754FEBF
:10315000206840F60042C4F20002002190420F9124
:103160001CD040F20041C4F20001884226D0B0F1E8
:10317000804F41D100200E9043F63000C4F202008F
:10318000016841F001010160006800F001000E904B
:103190000E9820200F90012022E000BF43F630005F
:1031A0000E91C4F20200016841F001010160006863
:1031B00000F001000E900E9801200FE000200E900C
:1031C00043F63000C4F20200016841F001010160E1
:1031D000006800F001000E900E9840200F90022031
:1031E00002211091002113900020CDE91111C4F2A9
:1031F00002000FA9FDF7F0FE14B010BDB0B594B0F9
:1032000040F2004540F23430C4F200050021C2F221
:103210000000532244F61F630D91CDE90B11099173
:10322000CDE90711CDE90511CDE90311CDE9011172
:10323000C0E90052C0E9021301618161FEF71AFE84
:10324000002818BFFDF7D8FD4FF480500A9040F2D7
:103250003430C2F200000AA9FEF700FF002818BFB0
:10326000FDF7CAFD40F23430C2F20000FFF782F9E8
:10327000002818BFFDF7C0FD40F234300024C2F230
:10328000000008A9CDE90844FEF798FD002818BF02
:10329000FDF7B2FD6020CDE901040394059440F2EE
:1032A0003434C2F2000401A920460022FFF750F88E
:1032B000002818BFFDF7A0FD206840F60042C4F2C8
:1032C0000002002190420F9118D0A84226D0B0F100
:1032D000804F40D100200E9043F63000C4F202002F
:1032E000016841F001010160006800F001000E90EA
:1032F0000E9820200F90012022E000BF43F63000FE
:103300000E91C4F20200016841F001010160006801
:1033100000F001000E900E9801200FE000200E90AA
:1033200043F63000C4F20200016841F0010101607F
:10333000006800F001000E900E9840200F900220CF
:10334000022110910021CDE91111139005F5FE30F5
:103350000FA9FDF741FE14B0B0BD000080B586B0E6
:1033600040F27C3040F600020021C2F20000C4F2BC
:10337000000253230591CDE90311CDE90011C0E905
:103380000021C0E90213016180218161FEF772FD15
:10339000002818BFFDF730FD4FF48050029040F236
:1033A0007C30C2F2000002A9FEF758FE002818BFC8
:1033B000FDF722FD40F27C30C2F200006946FEF7C4
:1033C000FDFC002818BFFDF717FD06B080BD00000A
:1033D000B0B594B040F6004540F2C430C4F20005E8
:1033E0000021C2F20000532244F61F630D91CDE983
:1033F0000B110991CDE90711CDE90511CDE90311B3
:10340000CDE90111C0E90052C0E9021301618161F7
:10341000FEF730FD002818BFFDF7EEFC4FF480509A
:103420000A9040F2C430C2F200000AA9FEF716FE6C
:10343000002818BFFDF7E0FC40F2C430C2F20000E3
:10344000FFF798F8002818BFFDF7D6FC40F2C4300B
:103450000024C2F2000008A9CDE90844FEF7AEFC42
:10346000002818BFFDF7C8FC6020CDE901040394D3
:10347000059440F2C434C2F2000401A9204600229F
:10348000FEF766FF002818BFFDF7B6FC2068002194
:10349000A8420F911CD040F20041C4F200018842C2
:1034A00026D0B0F1804F40D100200E9043F630007E
:1034B000C4F20200016841F001010160006800F0FF
:1034C00001000E900E9820200F90012022E000BFF6
:1034D00043F630000E91C4F20200016841F0010190
:1034E0000160006800F001000E900E9801200FE0CE
:1034F00000200E9043F63000C4F20200016841F053
:1035000001010160006800F001000E900E9840205B
:103510000F900220022110910021CDE9111113908A
:1035200005F5FA300FA9FDF757FD14B0B0BD000046
:1035300080B582B040F20C4041F200020021C2F29C
:103540000000C4F20002532342F20F7CCDE90011C7
:10355000C0E90023C0E9021C8161FEF78BFC002852
:1035600018BFFDF749FC40F20C40C2F2000069466A
:10357000FEF724FC002818BFFDF73EFC02B080BD1A
:1035800080B540F2544041F20001C2F20000C4F2A2
:10359000010100234FF00C0C4FF4E13280E80E00E3
:1035A000C0E90333C0E905C3C361FFF7A3F80028EE
:1035B00008BF80BDBDE88040FDF71EBC80B540F26D
:1035C0009C4044F20041C2F20000C4F2000100231A
:1035D0004FF00C0C4FF4E13280E80E00C0E90333E9
:1035E000C0E905C3C361FFF785F8002808BF80BDA7
:1035F000BDE88040FDF700BCFEE7000080B52DED82
:10360000068B9FED1B8A9FED1B1A20EE080A80EEA9
:10361000019A40F2E000C2F20000B0EE480AF0EE7B
:10362000490A00F095FE9FED14AA40F23810C2F24C
:103630000000B0EE4A0AF0EE490A00F089FE40F2BE
:103640009010C2F20000B0EE480AF0EE490A00F015
:103650007FFE40F2E810C2F20000B0EE4A0AF0EE3F
:10366000490ABDEC068BBDE8804000F071BE00BF8A
:10367000F5DB973E0000B442F5DB97BE80B52DED3B
:10368000048B9FED189AB0EE408A40F2E000C2F23F
:103690000000B0EE490AF0EE480A00F059FE40F290
:1036A0003810C2F20000B0EE490AF0EE480A00F00D
:1036B0004FFE40F29010C2F20000B0EE490AF0EE68
:1036C000480A00F045FE40F2E810C2F20000B0EEF9
:1036D000490AF0EE480ABDEC048BBDE8804000F0DA
:1036E00037BE00BFCDCC4CBE80B52DED048B9FED19
:1036F000189AB0EE408A40F2E000C2F20000B0EE4C
:10370000490AF0EE480A00F023FE40F23810C2F2F7
:103710000000B0EE490AF0EE480A00F019FE40F24F
:103720009010C2F20000B0EE490AF0EE480A00F034
:103730000FFE40F2E810C2F20000B0EE490AF0EECF
:10374000480ABDEC048BBDE8804000F001BE00BF1C
:10375000CDCC4C3E80B52DED068B9FED199AB0EE89
:10376000408A40F2E000C2F20000B0EE490AF0EEFA
:10377000480A00F0EDFD9FED13AA40F23810C2F2A6
:103780000000B0EE4A0AF0EE480A00F0E1FD40F217
:103790009010C2F20000B0EE4A0AF0EE480A00F0C3
:1037A000D7FD40F2E810C2F20000B0EE490AF0EE98
:1037B000480ABDEC068BBDE8804000F0C9BD00BFE3
:1037C000CDCC4CBECDCC4C3E80B52DED068B9FEDC7
:1037D000199AB0EE408A40F2E000C2F20000B0EE6A
:1037E000490AF0EE480A00F0B3FD9FED13AA40F23B
:1037F0003810C2F20000B0EE4A0AF0EE480A00F0BB
:10380000A7FD40F29010C2F20000B0EE4A0AF0EEBE
:10381000480A00F09DFD40F2E810C2F20000B0EE50
:10382000490AF0EE480ABDEC068BBDE8804000F086
:103830008FBD00BFCDCC4C3ECDCC4CBEFEE70000D2
:103840007047000040F2EC20C2F2000000684FF424
:10385000FA7141637047000040F2EC20C2F20000B0
:10386000006840F6C411416370470000F0B583B0B2
:1038700040F28407C2F2000740F244240326781C79
:10388000C2F200044FF47A75CDE90006204690217B
:10389000D02201230295FDF73BFD381DCDE900063E
:1038A00020469021D12201230295FDF731FD03B07E
:1038B000F0BD000070470000F0B585B040F29824DC
:1038C0000020C2F20004ADF812004FF47A75012610
:1038D0000DF1120720469821DD220123CDE9007663
:1038E0000295FDF715FD781CCDE9000620469A21CA
:1038F000DD2201230295FDF70BFD9DF812109DF8C6
:10390000130040F2840201F00103C2F20002D371FD
:1039100000F00103D373C1F340031372C0F34003FB
:103920001374C1F380035372C0F380035374C1F363
:10393000C0039372C0F3C0039374C1F30013D37236
:10394000C0F30013D374C1F340131373C0F34013D7
:103950001375C1F380135373C0F38013C009C909F1
:1039600090750A2053759173FDF722FB05B0F0BDE9
:103970002DE9F04381B040F28506C2F2000670796D
:1039800040F27C0740F2E44840F27809EF28C2F2A6
:103990000007C2F20008C2F200090DD001244FF462
:1039A000485500BFFFF762FF70793C60EF28C8F808
:1039B0000050C9F80040F5D141F200610120C0F289
:1039C0000D013860C8F80010C9F8000001B0BDE86A
:1039D000F08300000000000080B510EE100A40F2F5
:1039E0007C020021B5EE400AC2F2000220F0004045
:1039F000F1EE10FAC8BF0121116001F05DF89FEDF2
:103A00000E0B53EC102B00F059FF00F029FFC117EB
:103A100000EB517140F2E4420730C910C2F20002DB
:103A20000F28116038BF80BD40F27800C2F200005C
:103A30000121016080BD00BF000000000000F940CE
:103A400040F23430C2F2000000684FF4FA71416372
:103A50007047000040F23430C2F20000006840F6C7
:103A6000C411416370470000DDF800C0016042638B
:103A700080F8383080ED0F0A80F840C070470000B1
:103A800080B52DED028B9FED138A40F2E000C2F26B
:103A90000000B0EE480A00F0EBFC40F23810C2F231
:103AA0000000B0EE480A00F0E3FC40F29010C2F2D1
:103AB0000000B0EE480A00F0DBFC40F2E810C2F271
:103AC0000000B0EE480ABDEC028BBDE8804000F07B
:103AD000CFBC00BF00000000FDF7D4BDB0B592B070
:103AE000002443F64000CDE90A44CDE9084405949A
:103AF000CDE90344CDE901440094C4F20200016819
:103B0000022541F080510160006800F08050009073
:103B1000009847F200000094C4F20000016841F4EC
:103B200080410160006800F480400090009801200E
:103B300006904FF4803007904FF480000D901920CC
:103B40000E904FF4A870CDE90F050420119006A83F
:103B50000C95FDF75FFF18B172B600BFFEE700BF1E
:103B60000F20CDE901054FF4A05004904FF4805090
:103B7000059001A805210394FDF73EFE10B172B631
:103B8000FEE700BF12B0B0BD4EF68850CEF2000086
:103B9000016841F4700101607047000070B540F2A7
:103BA0007005C2F20005A86801282FD1E86840F628
:103BB00000040138C4F20204B0FA80F04209204641
:103BC0008021FDF7DDFA2868012827D0F0B940F2FE
:103BD000E446C2F20006306880B32046402101224C
:103BE000FDF7CEFA40F20800C2F2000069680068F2
:103BF00032680131013A81424FF000006960326061
:103C0000A4BF6860012029680844286040F27C3025
:103C1000C2F20000BDE87040FEF7F0BA2046402135
:103C200000220024FDF7ACFA2C6040F27C30C2F296
:103C30000000BDE87040FEF7E1BA00BF0020A860B8
:103C4000286140F27C30C2F20000BDE87040FEF70F
:103C5000D5BA0000B0B540F6FF3E0568C4F2000ECC
:103C600040F2004C7045C4F2010C27DCB0F1804FEB
:103C700031D040F20043C4F2000398422BD040F60A
:103C80000003C4F20003984225D041F6FF73C4F24A
:103C9000000398422ADC70453CDCB0F1804F5FD0D5
:103CA00040F20043C4F20003984259D040F60003AA
:103CB000C4F20003984253D057E000BF40F60043DF
:103CC000C4F20003984206D0604504D00023C4F239
:103CD00001039842D9D14B6825F0700243EA0205EE
:103CE00041F6FF73C4F200039842D4DD43F6FF733C
:103CF000C4F20103984221DC42F20003C4F2000343
:103D000098422DD00023C4F20103984228D0604588
:103D100026D02AE040F60043C4F2000398421FD0A8
:103D200041F60003C4F20003984219D041F6004363
:103D3000C4F20003984213D017E000BF44F200031E
:103D4000C4F2010398420BD044F60003C4F201030D
:103D5000984205D044F20043C4F20103984204D1D2
:103D6000CB6825F4407243EA02050A688C684B6907
:103D7000C46240F480648262644504BF09690163DF
:103D8000026825F0800142F004021943026001221A
:103D900042610160B0BD000010B504460068D4E97E
:103DA00002C22369016921F4405111430161626932
:103DB00043EA0C01E3691143C268194349F20C63F9
:103DC0009A431143C1604169A26921F4407141F2F3
:103DD0000043114340F48062C4F201039A424161FE
:103DE00002D1FDF7CDFD01E0FDF7B6FDE1696368A5
:103DF0001922B1F5004FA0FB020123D15A00DB0FBD
:103E0000FCF7C7FA48F21F51C5F2EB11A0FB0123E2
:103E10005A094FF69C73C0F6FF7303F1805302FBFF
:103E20000300322303EBC000A0FB01014FF4F87044
:103E300000EA111000EB0210C1F34211084421689E
:103E4000886010BD9A009B0FFCF7A3FA48F21F513F
:103E5000C5F2EB11A0FB01235A094FF69C73C0F683
:103E6000FF7302FB0300322303EB0010A0FB0101F0
:103E7000F02000EA511000EB0210C1F34311084496
:103E80002168886010BD0000FEE700004FF4FA6171
:103E900048434DF24961CFF2B921A0FB010140F244
:103EA000C430C2F2000000684FF4FA7202EB112134
:103EB0004163704770B50D460646D0E903011446CC
:103EC00001313161C900FCF702FA3169F06000EBA1
:103ED000C10040E9025470BD80B50C20FCF7C8F960
:103EE0000021C0E90011816080BD00002DE9F04192
:103EF00007461420984615460E46FCF7B9F90446C5
:103F00000020C4E902802061D7E90101C4E900650D
:103F10000131B9608900FCF7DAF9B968786000EB23
:103F20008101204641F8044CBDE8F081F0B581B034
:103F300004460068A0B10D4681682846884720687D
:103F4000016901290CDB0026C76807EBC600416840
:103F50002846884730B92068013601698E42F3DB74
:103F600001B0F0BD57F83600206001B0F0BD000090
:103F70000160704782B0FDF793FBFFF7AFFDFEF7DE
:103F8000FBFFFFF769F8FFF7FBFAFFF717FBFFF7F7
:103F900043F8FFF781F8FFF731F9FFF719FAFFF758
:103FA000DDF9FFF7C5FA40F27C30C2F20000FDF700
:103FB000FFFF40F20C40C2F20000FDF7F9FF40F2B3
:103FC000EC20C2F2000000210025FEF705FB40F2C4
:103FD0003430C2F200000021FEF7FEFA40F2C43095
:103FE000C2F200000021FEF7F7FA40F254449FEDC0
:103FF000258A40F2E000C2F20004C2F20000022171
:1040000022460023B0EE480A0095FFF72DFD40F24E
:104010003810C2F20000012122460123B0EE480A06
:1040200000950126FFF720FD40F29010C2F200003B
:10403000032122460023B0EE480A0095FFF714FD45
:1040400040F2E810C2F20000042122460123B0EE43
:10405000480A0096FFF708FD00F01EF84120FFF720
:1040600015FFFFF7EFFBFFF7EBFC00BFFFF724FCAA
:104070001420FCF79DFF00F007F81420FCF798FFD0
:10408000F4E700BF2DB29D3D40F29C00C2F200005B
:1040900000680021FFF74ABFB0B5FFF71DFF40F2EF
:1040A0009C0540F6F523C2F200057DA2C0F6000390
:1040B00000212860FFF71AFF296840F60133E86005
:1040C00079A2C0F6000308460121FFF70FFF296817
:1040D00044F6DB3240F61D432861C0F60002C0F60C
:1040E000000308460221FFF701FF296844F6CC329D
:1040F00040F691436861C0F60002C0F6000308462E
:104100000321FFF7F3FE296840F23173A86168A22A
:10411000C0F6000308460421FFF7E8FE296840F6D0
:104120000913E86166A2C0F6000308460521FFF7FF
:10413000DDFE296840F68143286264A2C0F60003D0
:1041400008460621FFF7D2FE296840F60953686247
:1041500063A2C0F6000308460721FFF7C7FE2968DF
:1041600040F2C573A86262A2C0F6000308460821A7
:10417000FFF7BCFE296840F6AD13E86260A2C0F606
:10418000000308460921FFF7B1FE296840F689437C
:1041900028635EA2C0F6000308460A21FFF7A6FEC8
:1041A000296840F6815368635DA2C0F600030846A3
:1041B0000B21FFF79BFE296840F67903A8635CA2F8
:1041C000C0F6000308460C21FFF790FE296840F670
:1041D0005123E8635AA2C0F6000308460D21FFF7F9
:1041E00085FED5E9032140F66134C0F60004286459
:1041F00010462246FFF75EFED5E9040140F679320B
:10420000C0F60002FFF756FED5E905012246FFF78A
:1042100051FED5E906012246FFF74CFED5E907011C
:104220002246FFF747FE6969286A40F6A132C0F6C8
:104230000002FFF73FFE2869696A40F6C932C0F6FE
:104240000002FFF737FED5E909012246FFF732FEEB
:10425000D5E90A012246FFF72DFED5E90B012246DA
:10426000FFF728FE2869696B40F6F132C0F60002BC
:10427000FFF720FED5E90D012246FFF71BFED5E929
:104280000E012246FFF716FED5E90F012246FFF781
:1042900011FE2868E968BDE8B040FFF769BE00BFBD
:1042A000426567696E0000004361727279410000E7
:1042B0004261636B5F626567696E413100000000B7
:1042C0004261636B5F656E644131000044656C69F7
:1042D000766572795F626567696E41320000000041
:1042E00044656C69766572795F656E644132000081
:1042F0004261636B5F626567696E41320000000076
:104300004261636B5F656E644132000044656C69B5
:10431000766572795F626567696E413300000000FF
:1043200044656C69766572795F656E64413300003F
:104330004261636B5F626567696E41330000000034
:104340004261636B5F656E644133000000000000F2
:104350002DE9F0412DED048BB0EE409A9FED420A1D
:10436000044629EE000A10EE100AB0EE608A00F052
:10437000A3FB0546E06B884600F09EFB9FED360BE5
:1043800053EC102B00F09AFA06460F462846414699
:1043900032463B4600F0DAF800F032FA0546608714
:1043A00018EE100A00F088FB32463B4600F0CEF8CB
:1043B0009FED2B0B53EC102B00F080FA00F050FA1D
:1043C00094F83810B5F1FF3F02DDAAB206E000BF55
:1043D000B1FA81F16D424909AAB265872368264680
:1043E00006F8413FB17000217171010EB171010CED
:1043F000F171010A70724FF48070120AFD2331725C
:1044000070816B2156F80D0C7370F2703173314668
:104410000D224FF47A733571FEF7FCF90120FCF799
:10442000C7FD16F8010C78B14FF60071C6F666317B
:10443000606BC4F84110314604224FF47A73FEF7E2
:10444000E9F90120FCF7B4FD84ED099A84ED0A8AAC
:10445000BDEC048BBDE8F0811F85EB51B81E09400F
:10446000000000000000A9400000704200000000B1
:10447000F0B581B0054600682C4604F8410F9FED69
:10448000321AA4F11D0080ED000A20EE010A10EEA0
:10449000100A00F011FB064654F8050C0F4600F018
:1044A0000BFB9FED270B53EC102B00F007FA024695
:1044B0000B463046394600F049F800F0A1F901B248
:1044C00080EAE13714F8092CA7EBE13124F8070C56
:1044D00000284FEA1120B2FA82F3D8BF5A09E070DF
:1044E0004FF48070F6232171A4F805006B2154F875
:1044F0000D0C6370A270E171214608224FF47A73AB
:10450000FEF788F90120FCF753FD14F8010C98B16F
:104510004FF60071C6F66631686BC5F8411021464A
:1045200004224FF47A73FEF775F9012001B0BDE85B
:10453000F040FCF73DBD00BF01B0F0BD00BF00BFC3
:104540001F85EB51B81E0940000070422DE9C041A3
:1045500030B4DFF8A4C23CEA111418BF3CEA1314CB
:1045600000F0ED801CEA111481EA030544EAD574D9
:1045700018BF1CEA131500F0C880A4EB050404F171
:104580007F7404F500344FF0004545EAC12145EA47
:10459000C32341EA505143EA52534FEAC0204FEA45
:1045A000C222994208BF904200F09D804FEA1365F5
:1045B0000FF24416765D4FEA134506FB05F7C7F187
:1045C000807706FB07F74FEAD737A7FB03687642E9
:1045D000A7FB06CEC8F5803838BFA8F1010807FB55
:1045E00008E6A6FB028C4FF0000EE6FB03CEDCF1E2
:1045F000000CCEF1004E38BFAEF1010EA6FB0C58F8
:104600004FF00007E6FB0E87A1FB08C6A0FB07CE14
:1046100016EB0E064FF0000545F10005E1FB0765BE
:1046200015F1E04E7EBFA4F580345FEA46066D4189
:1046300016F1800745F100054FEA172747EA05679D
:104640004FEA15254FEA0666A6F1DE46B6F1805F11
:1046500020D9384605EBC47124F0010C01EB0C1194
:10466000BCF1FE6F02D8F0BCBDE8008124425CBF03
:1046700001F5801E9EEAC47F02D4F0BCBDE8008133
:10468000244200F13980A1F1C041F0BCBDE80041F5
:1046900000F00CBA4FEAD02040EA41504FEAD12155
:1046A0004FEAD22242EA43524FEAD323A7FB0286C3
:1046B00007FB036605FB02661EEA0E0F58BFA6EB5A
:1046C0000056B6EB00564FEA520E4EEAC37E18EB88
:1046D0000E0E56EB530EBCD518EB02085E417F1C44
:1046E00055F10005B5E74FF480154FF000074FF086
:1046F00000064FF00008ACE701F1C04101F00041B5
:104700004FF00000F0BCBDE800810CEA131511EA7F
:104710000C1F00D00CE013EA0C1F00F026804FF0B5
:10472000000081EA030101F00041F0BCBDE8008116
:10473000F0BCBDE8004181EA030100F0B7B9F0BC6C
:10474000BDE8004170B500F063F900BF097EFC3E92
:1047500000F007B84FF0000081EA030101F00041CA
:10476000704781EA030100F0A1B9F0BCBDE8004147
:1047700022494FF000007047FFFDFBF9F7F5F4F216
:10478000F0EEEDEBE9E8E6E4E3E1E0DEDDDBDAD8EC
:10479000D7D5D4D3D1D0CFCDCCCBCAC8C7C6C5C44A
:1047A000C2C1C0BFBEBDBCBBBAB9B8B7B6B5B4B361
:1047B000B2B1B0AFAEADACABAAA9A8A8A7A6A5A44C
:1047C000A3A3A2A1A09F9F9E9D9C9C9B9A99999810
:1047D0009797969595949393929191908F8F8E8EB3
:1047E0008D8C8C8B8B8A8989888887878685858440
:1047F00084838382828181800000FF070000F87F2C
:104800004FEA41034FEA5353A3F58063D3F11E03EC
:10481000C8BFD3F1210C0CDD4FF0004242EAC122A7
:1048200042EA505232FA03FC8CEAE17CACEBE170D4
:104830007047102BC4BF0020704703F5787CBCF193
:10484000FF3F04D06FF0004282EA2100704770B54C
:1048500000F0DEF84992248000207047F2E7000063
:104860004FEA1153A3F58063D3F11E03A8BFD3F120
:10487000200C08DB4FF0004242EAC12252EA5052BB
:1048800032FA03F0704709420BD4102BC4BF00204A
:10489000704703F5787CBCF1FF3F05D04FF0FF3047
:1048A00070474FF00000704770B500F0B1F800BFDE
:1048B0004992248000207047F0E7000070B5DFF8CF
:1048C00048C11CEA111E1EBF1CEA13159EEA0C0FFC
:1048D00095EA0C0F00F06F8081EA03044EEAD47E63
:1048E000AE4421EA4C1123EA4C1341F4801143F405
:1048F0008013AEF17F7EA1FB024CA0FB036536194D
:1049000055EB0C05A1FB034C4CF10003A0FB021C72
:1049100016EB0C06654153F10003094218BF46F03F
:10492000010613F4007F0BD14FEA03314FEA053043
:1049300041EA155140EA165034036FF003020AE0D1
:104940004FEAC3214FEAC52041EA555140EA56508B
:10495000F4026FF0020202EB2E4201EB025585EAEF
:10496000CE710AD05FEA440C18BF24F0004450F125
:10497000000041F1000120EAD47040F2FE7C624563
:1049800000D270BDA84214BF4FF080444FF04044A5
:10499000002E08BF0024BEF1806FA8BFA1F1C04166
:1049A000BDE8704080F2828001F1C04101F0004119
:1049B0004FF0000070470CEA13159EEA0C0F18BF69
:1049C00095EA0C0F06D081EA030E4FF000000EF0BE
:1049D000004170BD00F01CF88900013E00F007B8EE
:1049E00000F009B84FEA430C5FEA5C5C08D081EA4A
:1049F000030100F05BB84FEA410C5FEA5C5CF6D162
:104A000002494FF0000070470000FF070000F87FE8
:104A10000EF1020E2EF0030E5EF8046B364205D442
:104A2000012A43EB030515F5001F12D8012841EBBD
:104A3000010C1CF5001F0CD80ED14FEAD17C0CEBF9
:104A40004C0C0CF1020C15F5001F08BF4CEBD37C8D
:104A500004E04FF0080C01E04FEAD37C0CEB4C056E
:104A600026FA05F606F00706B6F1040C06D20EEBA0
:104A7000860CBDE870404CF0010C6047DFE80CF09C
:104A8000090B02024FF00041A1F500214FF0000098
:104A900070BD19461046012851EB010418BFD4F52A
:104AA000001484BF002001F0004170BD0808A0F58B
:104AB00000114FEA3101704743004FEAD30C4FEA2F
:104AC0003C0C43401FBF40070CF1605113F0FE4FF8
:104AD00070471CF0006F03D10CF0004100207047BC
:104AE0000CF0004343EA507040EACC0010B500F0EF
:104AF0000EF800BF000000924FEA0001FFF7D6BF9A
:104B00004FF00041A1F500214FF0000070470EF179
:104B1000020E2EF0030E5EF8044B244204D44FEA3A
:104B20004102B2F17F4F11D84FEA4003B3F17F4FFA
:104B30000CD80ED14FEAD07C0CEB4C0C0CF1020CD3
:104B4000B2F17F4F08BF4CEBD17C04E04FF0080C72
:104B500001E04FEAD17C0CEB4C0324FA03F404F09F
:104B60000704B4F1040C06D20EEB840CBDE810402F
:104B70004CF0010C6047DFE80CF0070802024FF030
:104B80000040A0F5800010BD0846420018BFD2F1D9
:104B9000807288BF00F0004010BDF1EE100A4FF6A1
:104BA000FF71C0F2C03120EA010040F04070E1EE38
:104BB000100A70470000000000000000010203041A
:104BC00006070809000000000102030444656C693F
:104BD000766572795F656E6441310044656C697613
:104BE0006572795F626567696E413100104C00083B
:104BF0000000002010000000C4010008204C000844
:104C000010000020E00A0000E001000800000000A1
:104C10000100000010000000190000000024F40052
:040000050800018965
:00000001FF
